{
  "_format": "hh-sol-artifact-1",
  "contractName": "ArtongNFT",
  "sourceName": "contracts/ArtongNFT.sol",
  "abi": [
    {
      "inputs": [
        {
          "internalType": "string",
          "name": "_name",
          "type": "string"
        },
        {
          "internalType": "string",
          "name": "_symbol",
          "type": "string"
        },
        {
          "internalType": "address",
          "name": "_marketplace",
          "type": "address"
        },
        {
          "internalType": "uint16",
          "name": "_platformFee",
          "type": "uint16"
        },
        {
          "internalType": "address payable",
          "name": "_feeReceipient",
          "type": "address"
        },
        {
          "internalType": "uint256",
          "name": "_maxAmount",
          "type": "uint256"
        },
        {
          "internalType": "enum Policy",
          "name": "_policy",
          "type": "uint8"
        }
      ],
      "stateMutability": "nonpayable",
      "type": "constructor"
    },
    {
      "anonymous": false,
      "inputs": [
        {
          "indexed": true,
          "internalType": "address",
          "name": "owner",
          "type": "address"
        },
        {
          "indexed": true,
          "internalType": "address",
          "name": "approved",
          "type": "address"
        },
        {
          "indexed": true,
          "internalType": "uint256",
          "name": "tokenId",
          "type": "uint256"
        }
      ],
      "name": "Approval",
      "type": "event"
    },
    {
      "anonymous": false,
      "inputs": [
        {
          "indexed": true,
          "internalType": "address",
          "name": "owner",
          "type": "address"
        },
        {
          "indexed": true,
          "internalType": "address",
          "name": "operator",
          "type": "address"
        },
        {
          "indexed": false,
          "internalType": "bool",
          "name": "approved",
          "type": "bool"
        }
      ],
      "name": "ApprovalForAll",
      "type": "event"
    },
    {
      "anonymous": false,
      "inputs": [
        {
          "indexed": true,
          "internalType": "address",
          "name": "previousOwner",
          "type": "address"
        },
        {
          "indexed": true,
          "internalType": "address",
          "name": "newOwner",
          "type": "address"
        }
      ],
      "name": "OwnershipTransferred",
      "type": "event"
    },
    {
      "anonymous": false,
      "inputs": [
        {
          "indexed": false,
          "internalType": "address",
          "name": "account",
          "type": "address"
        }
      ],
      "name": "Paused",
      "type": "event"
    },
    {
      "anonymous": false,
      "inputs": [
        {
          "indexed": false,
          "internalType": "address",
          "name": "minter",
          "type": "address"
        },
        {
          "indexed": false,
          "internalType": "uint256",
          "name": "tokenId",
          "type": "uint256"
        },
        {
          "indexed": false,
          "internalType": "string",
          "name": "tokenUri",
          "type": "string"
        },
        {
          "indexed": false,
          "internalType": "string",
          "name": "contentUri",
          "type": "string"
        }
      ],
      "name": "TokenMinted",
      "type": "event"
    },
    {
      "anonymous": false,
      "inputs": [
        {
          "indexed": true,
          "internalType": "address",
          "name": "from",
          "type": "address"
        },
        {
          "indexed": true,
          "internalType": "address",
          "name": "to",
          "type": "address"
        },
        {
          "indexed": true,
          "internalType": "uint256",
          "name": "tokenId",
          "type": "uint256"
        }
      ],
      "name": "Transfer",
      "type": "event"
    },
    {
      "anonymous": false,
      "inputs": [
        {
          "indexed": false,
          "internalType": "address",
          "name": "account",
          "type": "address"
        }
      ],
      "name": "Unpaused",
      "type": "event"
    },
    {
      "anonymous": false,
      "inputs": [
        {
          "indexed": false,
          "internalType": "enum Policy",
          "name": "policy",
          "type": "uint8"
        },
        {
          "indexed": false,
          "internalType": "address",
          "name": "updater",
          "type": "address"
        }
      ],
      "name": "UpdatePolicy",
      "type": "event"
    },
    {
      "inputs": [
        {
          "internalType": "address",
          "name": "to",
          "type": "address"
        },
        {
          "internalType": "uint256",
          "name": "tokenId",
          "type": "uint256"
        }
      ],
      "name": "approve",
      "outputs": [],
      "stateMutability": "nonpayable",
      "type": "function"
    },
    {
      "inputs": [
        {
          "internalType": "address",
          "name": "owner",
          "type": "address"
        }
      ],
      "name": "balanceOf",
      "outputs": [
        {
          "internalType": "uint256",
          "name": "",
          "type": "uint256"
        }
      ],
      "stateMutability": "view",
      "type": "function"
    },
    {
      "inputs": [
        {
          "internalType": "uint256",
          "name": "tokenId",
          "type": "uint256"
        }
      ],
      "name": "burn",
      "outputs": [],
      "stateMutability": "nonpayable",
      "type": "function"
    },
    {
      "inputs": [],
      "name": "feeReceipient",
      "outputs": [
        {
          "internalType": "address payable",
          "name": "",
          "type": "address"
        }
      ],
      "stateMutability": "view",
      "type": "function"
    },
    {
      "inputs": [
        {
          "internalType": "uint256",
          "name": "tokenId",
          "type": "uint256"
        }
      ],
      "name": "getApproved",
      "outputs": [
        {
          "internalType": "address",
          "name": "",
          "type": "address"
        }
      ],
      "stateMutability": "view",
      "type": "function"
    },
    {
      "inputs": [],
      "name": "getChainID",
      "outputs": [
        {
          "internalType": "uint256",
          "name": "",
          "type": "uint256"
        }
      ],
      "stateMutability": "view",
      "type": "function"
    },
    {
      "inputs": [
        {
          "internalType": "address",
          "name": "owner",
          "type": "address"
        },
        {
          "internalType": "address",
          "name": "operator",
          "type": "address"
        }
      ],
      "name": "isApprovedForAll",
      "outputs": [
        {
          "internalType": "bool",
          "name": "",
          "type": "bool"
        }
      ],
      "stateMutability": "view",
      "type": "function"
    },
    {
      "inputs": [],
      "name": "marketplace",
      "outputs": [
        {
          "internalType": "address",
          "name": "",
          "type": "address"
        }
      ],
      "stateMutability": "view",
      "type": "function"
    },
    {
      "inputs": [],
      "name": "maxAmount",
      "outputs": [
        {
          "internalType": "uint256",
          "name": "",
          "type": "uint256"
        }
      ],
      "stateMutability": "view",
      "type": "function"
    },
    {
      "inputs": [
        {
          "internalType": "address",
          "name": "_to",
          "type": "address"
        },
        {
          "internalType": "string",
          "name": "_tokenUri",
          "type": "string"
        },
        {
          "internalType": "string",
          "name": "_contentUri",
          "type": "string"
        }
      ],
      "name": "mint",
      "outputs": [
        {
          "internalType": "uint256",
          "name": "",
          "type": "uint256"
        }
      ],
      "stateMutability": "nonpayable",
      "type": "function"
    },
    {
      "inputs": [],
      "name": "name",
      "outputs": [
        {
          "internalType": "string",
          "name": "",
          "type": "string"
        }
      ],
      "stateMutability": "view",
      "type": "function"
    },
    {
      "inputs": [],
      "name": "owner",
      "outputs": [
        {
          "internalType": "address",
          "name": "",
          "type": "address"
        }
      ],
      "stateMutability": "view",
      "type": "function"
    },
    {
      "inputs": [
        {
          "internalType": "uint256",
          "name": "tokenId",
          "type": "uint256"
        }
      ],
      "name": "ownerOf",
      "outputs": [
        {
          "internalType": "address",
          "name": "",
          "type": "address"
        }
      ],
      "stateMutability": "view",
      "type": "function"
    },
    {
      "inputs": [],
      "name": "pause",
      "outputs": [],
      "stateMutability": "nonpayable",
      "type": "function"
    },
    {
      "inputs": [],
      "name": "paused",
      "outputs": [
        {
          "internalType": "bool",
          "name": "",
          "type": "bool"
        }
      ],
      "stateMutability": "view",
      "type": "function"
    },
    {
      "inputs": [],
      "name": "platformFee",
      "outputs": [
        {
          "internalType": "uint16",
          "name": "",
          "type": "uint16"
        }
      ],
      "stateMutability": "view",
      "type": "function"
    },
    {
      "inputs": [],
      "name": "policy",
      "outputs": [
        {
          "internalType": "enum Policy",
          "name": "",
          "type": "uint8"
        }
      ],
      "stateMutability": "view",
      "type": "function"
    },
    {
      "inputs": [
        {
          "internalType": "address",
          "name": "redeemer",
          "type": "address"
        },
        {
          "components": [
            {
              "internalType": "address",
              "name": "creator",
              "type": "address"
            },
            {
              "internalType": "uint256",
              "name": "minPrice",
              "type": "uint256"
            },
            {
              "internalType": "string",
              "name": "tokenUri",
              "type": "string"
            },
            {
              "internalType": "string",
              "name": "contentUri",
              "type": "string"
            },
            {
              "internalType": "bytes",
              "name": "signature",
              "type": "bytes"
            }
          ],
          "internalType": "struct ArtongNFT.NFTVoucher",
          "name": "voucher",
          "type": "tuple"
        }
      ],
      "name": "redeem",
      "outputs": [
        {
          "internalType": "uint256",
          "name": "",
          "type": "uint256"
        }
      ],
      "stateMutability": "payable",
      "type": "function"
    },
    {
      "inputs": [],
      "name": "renounceOwnership",
      "outputs": [],
      "stateMutability": "nonpayable",
      "type": "function"
    },
    {
      "inputs": [
        {
          "internalType": "address",
          "name": "from",
          "type": "address"
        },
        {
          "internalType": "address",
          "name": "to",
          "type": "address"
        },
        {
          "internalType": "uint256",
          "name": "tokenId",
          "type": "uint256"
        }
      ],
      "name": "safeTransferFrom",
      "outputs": [],
      "stateMutability": "nonpayable",
      "type": "function"
    },
    {
      "inputs": [
        {
          "internalType": "address",
          "name": "from",
          "type": "address"
        },
        {
          "internalType": "address",
          "name": "to",
          "type": "address"
        },
        {
          "internalType": "uint256",
          "name": "tokenId",
          "type": "uint256"
        },
        {
          "internalType": "bytes",
          "name": "data",
          "type": "bytes"
        }
      ],
      "name": "safeTransferFrom",
      "outputs": [],
      "stateMutability": "nonpayable",
      "type": "function"
    },
    {
      "inputs": [
        {
          "internalType": "address",
          "name": "operator",
          "type": "address"
        },
        {
          "internalType": "bool",
          "name": "approved",
          "type": "bool"
        }
      ],
      "name": "setApprovalForAll",
      "outputs": [],
      "stateMutability": "nonpayable",
      "type": "function"
    },
    {
      "inputs": [
        {
          "internalType": "enum Policy",
          "name": "_policy",
          "type": "uint8"
        }
      ],
      "name": "setPolicy",
      "outputs": [],
      "stateMutability": "nonpayable",
      "type": "function"
    },
    {
      "inputs": [
        {
          "internalType": "bytes4",
          "name": "interfaceId",
          "type": "bytes4"
        }
      ],
      "name": "supportsInterface",
      "outputs": [
        {
          "internalType": "bool",
          "name": "",
          "type": "bool"
        }
      ],
      "stateMutability": "view",
      "type": "function"
    },
    {
      "inputs": [],
      "name": "symbol",
      "outputs": [
        {
          "internalType": "string",
          "name": "",
          "type": "string"
        }
      ],
      "stateMutability": "view",
      "type": "function"
    },
    {
      "inputs": [
        {
          "internalType": "uint256",
          "name": "index",
          "type": "uint256"
        }
      ],
      "name": "tokenByIndex",
      "outputs": [
        {
          "internalType": "uint256",
          "name": "",
          "type": "uint256"
        }
      ],
      "stateMutability": "view",
      "type": "function"
    },
    {
      "inputs": [
        {
          "internalType": "address",
          "name": "owner",
          "type": "address"
        },
        {
          "internalType": "uint256",
          "name": "index",
          "type": "uint256"
        }
      ],
      "name": "tokenOfOwnerByIndex",
      "outputs": [
        {
          "internalType": "uint256",
          "name": "",
          "type": "uint256"
        }
      ],
      "stateMutability": "view",
      "type": "function"
    },
    {
      "inputs": [
        {
          "internalType": "uint256",
          "name": "tokenId",
          "type": "uint256"
        }
      ],
      "name": "tokenURI",
      "outputs": [
        {
          "internalType": "string",
          "name": "",
          "type": "string"
        }
      ],
      "stateMutability": "view",
      "type": "function"
    },
    {
      "inputs": [],
      "name": "totalSupply",
      "outputs": [
        {
          "internalType": "uint256",
          "name": "",
          "type": "uint256"
        }
      ],
      "stateMutability": "view",
      "type": "function"
    },
    {
      "inputs": [
        {
          "internalType": "address",
          "name": "from",
          "type": "address"
        },
        {
          "internalType": "address",
          "name": "to",
          "type": "address"
        },
        {
          "internalType": "uint256",
          "name": "tokenId",
          "type": "uint256"
        }
      ],
      "name": "transferFrom",
      "outputs": [],
      "stateMutability": "nonpayable",
      "type": "function"
    },
    {
      "inputs": [
        {
          "internalType": "address",
          "name": "newOwner",
          "type": "address"
        }
      ],
      "name": "transferOwnership",
      "outputs": [],
      "stateMutability": "nonpayable",
      "type": "function"
    },
    {
      "inputs": [],
      "name": "unpause",
      "outputs": [],
      "stateMutability": "nonpayable",
      "type": "function"
    }
  ],
  "bytecode": "0x6101606040523480156200001257600080fd5b5060405162003594380380620035948339810160408190526200003591620004d1565b6040518060400160405280601181526020017020b93a37b733a7232a16ab37bab1b432b960791b815250604051806040016040528060018152602001603160f81b815250888881600090805190602001906200009392919062000323565b508051620000a990600190602084019062000323565b5050825160209384012082519284019290922060e08390526101008190524660a0818152604080517f8b73c3c69bb8fe3d512ecc4cf759cc79239f7b179b0ffacaa9a75d522b39400f818901819052818301979097526060810194909452608080850193909352308483018190528151808603909301835260c09485019091528151919096012090529290925261012052506007805460ff191690556200015033620002c9565b60008751116200019a5760405162461bcd60e51b815260206004820152601060248201526f13985b59481a5cc81c995c5d5a5c995960821b60448201526064015b60405180910390fd5b6000865111620001e25760405162461bcd60e51b815260206004820152601260248201527114de5b589bdb081a5cc81c995c5d5a5c995960721b604482015260640162000191565b60008211620002405760405162461bcd60e51b815260206004820152602360248201527f4d6178416d6f756e742068617320746f20626520706f736974697665206e756d6044820152623132b960e91b606482015260840162000191565b600d8054610100600160b81b0319166101006001600160a01b038881169190910261ffff60a81b191691909117600160a81b61ffff88160217808355600e80546001600160a01b0319169287169290921790915561014084905282919060ff191660018381811115620002b757620002b76200059a565b021790555050505050505050620005ed565b600780546001600160a01b03838116610100818102610100600160a81b031985161790945560405193909204169182907f8be0079c531659141344cd1fd0a4f28419497f9722a3daafe3b4186f6b6457e090600090a35050565b8280546200033190620005b0565b90600052602060002090601f016020900481019282620003555760008555620003a0565b82601f106200037057805160ff1916838001178555620003a0565b82800160010185558215620003a0579182015b82811115620003a057825182559160200191906001019062000383565b50620003ae929150620003b2565b5090565b5b80821115620003ae5760008155600101620003b3565b634e487b7160e01b600052604160045260246000fd5b600082601f830112620003f157600080fd5b81516001600160401b03808211156200040e576200040e620003c9565b604051601f8301601f19908116603f01168101908282118183101715620004395762000439620003c9565b816040528381526020925086838588010111156200045657600080fd5b600091505b838210156200047a57858201830151818301840152908201906200045b565b838211156200048c5760008385830101525b9695505050505050565b6001600160a01b0381168114620004ac57600080fd5b50565b8051620004bc8162000496565b919050565b805160028110620004bc57600080fd5b600080600080600080600060e0888a031215620004ed57600080fd5b87516001600160401b03808211156200050557600080fd5b620005138b838c01620003df565b985060208a01519150808211156200052a57600080fd5b50620005398a828b01620003df565b96505060408801516200054c8162000496565b606089015190955061ffff811681146200056557600080fd5b93506200057560808901620004af565b925060a088015191506200058c60c08901620004c1565b905092959891949750929550565b634e487b7160e01b600052602160045260246000fd5b600181811c90821680620005c557607f821691505b60208210811415620005e757634e487b7160e01b600052602260045260246000fd5b50919050565b60805160a05160c05160e051610100516101205161014051612f456200064f60003960008181610426015261146e0152600061251f0152600061256e01526000612549015260006124a2015260006124cc015260006124f60152612f456000f3fe6080604052600436106101e35760003560e01c80635f48f393116101025780639907119011610095578063c87b56dd11610064578063c87b56dd1461058f578063d9393029146105af578063e985e9c5146105c2578063f2fde38b146105e257600080fd5b8063990711901461050a578063a22cb4651461052a578063abc8c7af1461054a578063b88d4fde1461056f57600080fd5b806374bce0bc116100d157806374bce0bc1461049d5780638456cb59146104bd5780638da5cb5b146104d257806395d89b41146104f557600080fd5b80635f48f393146104145780636352211e1461044857806370a0823114610468578063715018a61461048857600080fd5b80632f745c591161017a57806342966c681161014957806342966c68146103a95780634f6ccce7146103c9578063564b81ef146103e95780635c975abb146103fc57600080fd5b80632f745c59146103345780633740ebb3146103545780633f4ba83a1461037457806342842e0e1461038957600080fd5b8063095ea7b3116101b6578063095ea7b31461029e57806318160ddd146102c057806323b872dd146102df57806326232a2e146102ff57600080fd5b806301ffc9a7146101e85780630505c8c91461021d57806306fdde0314610244578063081812fc14610266575b600080fd5b3480156101f457600080fd5b506102086102033660046127cb565b610602565b60405190151581526020015b60405180910390f35b34801561022957600080fd5b50600d546102379060ff1681565b6040516102149190612820565b34801561025057600080fd5b50610259610613565b6040516102149190612886565b34801561027257600080fd5b50610286610281366004612899565b6106a5565b6040516001600160a01b039091168152602001610214565b3480156102aa57600080fd5b506102be6102b93660046128ce565b6106cc565b005b3480156102cc57600080fd5b50600a545b604051908152602001610214565b3480156102eb57600080fd5b506102be6102fa3660046128f8565b6107e7565b34801561030b57600080fd5b50600d5461032190600160a81b900461ffff1681565b60405161ffff9091168152602001610214565b34801561034057600080fd5b506102d161034f3660046128ce565b610819565b34801561036057600080fd5b50600e54610286906001600160a01b031681565b34801561038057600080fd5b506102be6108af565b34801561039557600080fd5b506102be6103a43660046128f8565b610900565b3480156103b557600080fd5b506102be6103c4366004612899565b61091b565b3480156103d557600080fd5b506102d16103e4366004612899565b61094c565b3480156103f557600080fd5b50466102d1565b34801561040857600080fd5b5060075460ff16610208565b34801561042057600080fd5b506102d17f000000000000000000000000000000000000000000000000000000000000000081565b34801561045457600080fd5b50610286610463366004612899565b6109df565b34801561047457600080fd5b506102d1610483366004612934565b610a3f565b34801561049457600080fd5b506102be610ac5565b3480156104a957600080fd5b506102be6104b836600461294f565b610ad7565b3480156104c957600080fd5b506102be610b3e565b3480156104de57600080fd5b5060075461010090046001600160a01b0316610286565b34801561050157600080fd5b50610259610b8d565b34801561051657600080fd5b506102d16105253660046129b2565b610b9c565b34801561053657600080fd5b506102be610545366004612a33565b610c23565b34801561055657600080fd5b50600d546102869061010090046001600160a01b031681565b34801561057b57600080fd5b506102be61058a366004612a85565b610c32565b34801561059b57600080fd5b506102596105aa366004612899565b610c6a565b6102d16105bd366004612b61565b610c75565b3480156105ce57600080fd5b506102086105dd366004612bab565b610eb2565b3480156105ee57600080fd5b506102be6105fd366004612934565b610f09565b600061060d82610f7f565b92915050565b60606000805461062290612bde565b80601f016020809104026020016040519081016040528092919081815260200182805461064e90612bde565b801561069b5780601f106106705761010080835404028352916020019161069b565b820191906000526020600020905b81548152906001019060200180831161067e57829003601f168201915b5050505050905090565b60006106b082610fa4565b506000908152600460205260409020546001600160a01b031690565b60006106d7826109df565b9050806001600160a01b0316836001600160a01b0316141561074a5760405162461bcd60e51b815260206004820152602160248201527f4552433732313a20617070726f76616c20746f2063757272656e74206f776e656044820152603960f91b60648201526084015b60405180910390fd5b336001600160a01b038216148061076657506107668133610eb2565b6107d85760405162461bcd60e51b815260206004820152603e60248201527f4552433732313a20617070726f76652063616c6c6572206973206e6f7420746f60448201527f6b656e206f776e6572206e6f7220617070726f76656420666f7220616c6c00006064820152608401610741565b6107e28383611003565b505050565b6107f2335b82611071565b61080e5760405162461bcd60e51b815260040161074190612c19565b6107e2838383611122565b600061082483610a3f565b82106108865760405162461bcd60e51b815260206004820152602b60248201527f455243373231456e756d657261626c653a206f776e657220696e646578206f7560448201526a74206f6620626f756e647360a81b6064820152608401610741565b506001600160a01b03919091166000908152600860209081526040808320938352929052205490565b6108b93333610eb2565b6108f65760405162461bcd60e51b815260206004820152600e60248201526d139bdd08185d5d1a1bdc9a5e995960921b6044820152606401610741565b6108fe6112c9565b565b6107e283838360405180602001604052806000815250610c32565b610924336107ec565b6109405760405162461bcd60e51b815260040161074190612c19565b6109498161131b565b50565b6000610957600a5490565b82106109ba5760405162461bcd60e51b815260206004820152602c60248201527f455243373231456e756d657261626c653a20676c6f62616c20696e646578206f60448201526b7574206f6620626f756e647360a01b6064820152608401610741565b600a82815481106109cd576109cd612c67565b90600052602060002001549050919050565b6000818152600260205260408120546001600160a01b03168061060d5760405162461bcd60e51b8152602060048201526018602482015277115490cdcc8c4e881a5b9d985b1a59081d1bdad95b88125160421b6044820152606401610741565b60006001600160a01b038216610aa95760405162461bcd60e51b815260206004820152602960248201527f4552433732313a2061646472657373207a65726f206973206e6f7420612076616044820152683634b21037bbb732b960b91b6064820152608401610741565b506001600160a01b031660009081526003602052604090205490565b610acd611324565b6108fe6000611384565b610adf611324565b7f2a84386076f08e18b35c0fd50fee06abe5278e5ef64da9b565736ba7e93726998133604051610b10929190612c7d565b60405180910390a1600d805482919060ff191660018381811115610b3657610b366127e8565b021790555050565b610b483333610eb2565b610b855760405162461bcd60e51b815260206004820152600e60248201526d139bdd08185d5d1a1bdc9a5e995960921b6044820152606401610741565b6108fe6113de565b60606001805461062290612bde565b6000610ba661141b565b6000600d5460ff166001811115610bbf57610bbf6127e8565b14610c0c5760405162461bcd60e51b815260206004820152601f60248201527f506f6c696379206f6e6c7920616c6c6f7773206c617a79206d696e74696e67006044820152606401610741565b610c198686868686611461565b9695505050505050565b610c2e3383836115fd565b5050565b610c3c3383611071565b610c585760405162461bcd60e51b815260040161074190612c19565b610c64848484846116cc565b50505050565b606061060d826116ff565b6000610c7f61141b565b6000610c8a83611808565b9050610c996020840184612934565b6001600160a01b0316816001600160a01b031614610ced5760405162461bcd60e51b815260206004820152601160248201527014da59db985d1d5c99481a5b9d985b1a59607a1b6044820152606401610741565b8260200135341015610d415760405162461bcd60e51b815260206004820152601c60248201527f496e73756666696369656e742066756e647320746f2072656465656d000000006044820152606401610741565b6000610d4b611861565b600e546040519192506000916001600160a01b039091169083908381818185875af1925050503d8060008114610d9d576040519150601f19603f3d011682016040523d82523d6000602084013e610da2565b606091505b5050905080610de55760405162461bcd60e51b815260206004820152600f60248201526e151c985b9cd9995c8819985a5b1959608a1b6044820152606401610741565b6000610e16610df76020880188612934565b610e046040890189612ca3565b610e1160608b018b612ca3565b611461565b9050610e2f610e286020880188612934565b8883611122565b600d5461010090046001600160a01b031663e6d07de9610e4f8534612d00565b6040516001600160e01b031960e084901b1681526001600160a01b03881660048201526024016000604051808303818588803b158015610e8e57600080fd5b505af1158015610ea2573d6000803e3d6000fd5b50939a9950505050505050505050565b600d546000906001600160a01b03838116610100909204161415610ed85750600161060d565b6001600160a01b0380841660009081526005602090815260408083209386168352929052205460ff165b9392505050565b610f11611324565b6001600160a01b038116610f765760405162461bcd60e51b815260206004820152602660248201527f4f776e61626c653a206e6577206f776e657220697320746865207a65726f206160448201526564647265737360d01b6064820152608401610741565b61094981611384565b60006001600160e01b0319821663780e9d6360e01b148061060d575061060d8261188f565b6000818152600260205260409020546001600160a01b03166109495760405162461bcd60e51b8152602060048201526018602482015277115490cdcc8c4e881a5b9d985b1a59081d1bdad95b88125160421b6044820152606401610741565b600081815260046020526040902080546001600160a01b0319166001600160a01b0384169081179091558190611038826109df565b6001600160a01b03167f8c5be1e5ebec7d5bd14f71427d1e84f3dd0314c0f7b2291e5b200ac8c7c3b92560405160405180910390a45050565b6000818152600260205260408120546001600160a01b03166110ea5760405162461bcd60e51b815260206004820152602c60248201527f4552433732313a206f70657261746f7220717565727920666f72206e6f6e657860448201526b34b9ba32b73a103a37b5b2b760a11b6064820152608401610741565b60006110f5836109df565b90506111018185610eb2565b1561111057600191505061060d565b61111a84846118df565b949350505050565b826001600160a01b0316611135826109df565b6001600160a01b0316146111995760405162461bcd60e51b815260206004820152602560248201527f4552433732313a207472616e736665722066726f6d20696e636f72726563742060448201526437bbb732b960d91b6064820152608401610741565b6001600160a01b0382166111fb5760405162461bcd60e51b8152602060048201526024808201527f4552433732313a207472616e7366657220746f20746865207a65726f206164646044820152637265737360e01b6064820152608401610741565b61120683838361193d565b611211600082611003565b6001600160a01b038316600090815260036020526040812080546001929061123a908490612d00565b90915550506001600160a01b0382166000908152600360205260408120805460019290611268908490612d17565b909155505060008181526002602052604080822080546001600160a01b0319166001600160a01b0386811691821790925591518493918716917fddf252ad1be2c89b69c2b068fc378daa952ba7f163c4a11628f55a4df523b3ef91a4505050565b6112d1611948565b6007805460ff191690557f5db9ee0a495bf2e6ff9c91a7834c1ba4fdd244a5e8aa4e537bd38aeae4b073aa335b6040516001600160a01b03909116815260200160405180910390a1565b61094981611991565b6007546001600160a01b036101009091041633146108fe5760405162461bcd60e51b815260206004820181905260248201527f4f776e61626c653a2063616c6c6572206973206e6f7420746865206f776e65726044820152606401610741565b600780546001600160a01b03838116610100818102610100600160a81b031985161790945560405193909204169182907f8be0079c531659141344cd1fd0a4f28419497f9722a3daafe3b4186f6b6457e090600090a35050565b6113e661141b565b6007805460ff191660011790557f62e78cea01bee320cd4e420270b5ea74000d11b0c9f74754ebdbfc544b05a2586112fe3390565b60075460ff16156108fe5760405162461bcd60e51b815260206004820152601060248201526f14185d5cd8589b194e881c185d5cd95960821b6044820152606401610741565b600061146c600c5490565b7f0000000000000000000000000000000000000000000000000000000000000000116114da5760405162461bcd60e51b815260206004820152601e60248201527f4d6178696d756d206e756d626572206f66204e465473207265616368656400006044820152606401610741565b6114e8600c80546001019055565b60006114f3600c5490565b600d546040516313408a3960e21b81526001600160a01b038a811660048301523060248301526044820184905292935061010090910490911690634d0228e490606401600060405180830381600087803b15801561155057600080fd5b505af1158015611564573d6000803e3d6000fd5b5050505061157287826119d1565b6115b28187878080601f016020809104026020016040519081016040528093929190818152602001838380828437600092019190915250611b1f92505050565b7f4e501b7ed20ed00ab45bf6bdfe315ee8cea82218c0680b05b465207dafd47d018782888888886040516115eb96959493929190612d58565b60405180910390a19695505050505050565b816001600160a01b0316836001600160a01b0316141561165f5760405162461bcd60e51b815260206004820152601960248201527f4552433732313a20617070726f766520746f2063616c6c6572000000000000006044820152606401610741565b6001600160a01b03838116600081815260056020908152604080832094871680845294825291829020805460ff191686151590811790915591519182527f17307eab39ab6107e8899845ad3d59bd9653f200f220920489ca2b5937696c31910160405180910390a3505050565b6116d7848484611122565b6116e384848484611bb9565b610c645760405162461bcd60e51b815260040161074190612da0565b606061170a82610fa4565b6000828152600660205260408120805461172390612bde565b80601f016020809104026020016040519081016040528092919081815260200182805461174f90612bde565b801561179c5780601f106117715761010080835404028352916020019161179c565b820191906000526020600020905b81548152906001019060200180831161177f57829003601f168201915b5050505050905060006117ba60408051602081019091526000815290565b90508051600014156117cd575092915050565b8151156117ff5780826040516020016117e7929190612df2565b60405160208183030381529060405292505050919050565b61111a84611cc6565b60008061181483611d39565b9050610f02816118276080860186612ca3565b8080601f016020809104026020016040519081016040528093929190818152602001838380828437600092019190915250611e0b92505050565b600d546000906127109061188090600160a81b900461ffff1634612e21565b61188a9190612e56565b905090565b60006001600160e01b031982166380ac58cd60e01b14806118c057506001600160e01b03198216635b5e139f60e01b145b8061060d57506301ffc9a760e01b6001600160e01b031983161461060d565b6000806118eb836109df565b9050806001600160a01b0316846001600160a01b0316148061191257506119128185610eb2565b8061111a5750836001600160a01b031661192b846106a5565b6001600160a01b031614949350505050565b6107e2838383611e2f565b60075460ff166108fe5760405162461bcd60e51b815260206004820152601460248201527314185d5cd8589b194e881b9bdd081c185d5cd95960621b6044820152606401610741565b61199a81611ee7565b600081815260066020526040902080546119b390612bde565b159050610949576000818152600660205260408120610949916126e2565b6001600160a01b038216611a275760405162461bcd60e51b815260206004820181905260248201527f4552433732313a206d696e7420746f20746865207a65726f20616464726573736044820152606401610741565b6000818152600260205260409020546001600160a01b031615611a8c5760405162461bcd60e51b815260206004820152601c60248201527f4552433732313a20746f6b656e20616c7265616479206d696e746564000000006044820152606401610741565b611a986000838361193d565b6001600160a01b0382166000908152600360205260408120805460019290611ac1908490612d17565b909155505060008181526002602052604080822080546001600160a01b0319166001600160a01b03861690811790915590518392907fddf252ad1be2c89b69c2b068fc378daa952ba7f163c4a11628f55a4df523b3ef908290a45050565b6000828152600260205260409020546001600160a01b0316611b9a5760405162461bcd60e51b815260206004820152602e60248201527f45524337323155524953746f726167653a2055524920736574206f66206e6f6e60448201526d32bc34b9ba32b73a103a37b5b2b760911b6064820152608401610741565b600082815260066020908152604090912082516107e29284019061271c565b60006001600160a01b0384163b15611cbb57604051630a85bd0160e11b81526001600160a01b0385169063150b7a0290611bfd903390899088908890600401612e6a565b602060405180830381600087803b158015611c1757600080fd5b505af1925050508015611c47575060408051601f3d908101601f19168201909252611c4491810190612e9d565b60015b611ca1573d808015611c75576040519150601f19603f3d011682016040523d82523d6000602084013e611c7a565b606091505b508051611c995760405162461bcd60e51b815260040161074190612da0565b805181602001fd5b6001600160e01b031916630a85bd0160e11b14905061111a565b506001949350505050565b6060611cd182610fa4565b6000611ce860408051602081019091526000815290565b90506000815111611d085760405180602001604052806000815250610f02565b80611d1284611f8e565b604051602001611d23929190612df2565b6040516020818303038152906040529392505050565b600061060d7f89b875cfe3337c5849875f6d0252c29697e43c2fef0f9105b00e27e048573ea0611d6c6020850185612934565b6020850135611d7e6040870187612ca3565b604051611d8c929190612eba565b604051908190039020611da26060880188612ca3565b604051611db0929190612eba565b604051908190038120611df095949392916020019485526001600160a01b0393909316602085015260408401919091526060830152608082015260a00190565b6040516020818303038152906040528051906020012061208c565b6000806000611e1a85856120da565b91509150611e278161214a565b509392505050565b6001600160a01b038316611e8a57611e8581600a80546000838152600b60205260408120829055600182018355919091527fc65a7bb8d6351c1cf70c95a316cc6a92839c986682d98bc35f958f4883f9d2a80155565b611ead565b816001600160a01b0316836001600160a01b031614611ead57611ead8382612305565b6001600160a01b038216611ec4576107e2816123a2565b826001600160a01b0316826001600160a01b0316146107e2576107e28282612451565b6000611ef2826109df565b9050611f008160008461193d565b611f0b600083611003565b6001600160a01b0381166000908152600360205260408120805460019290611f34908490612d00565b909155505060008281526002602052604080822080546001600160a01b0319169055518391906001600160a01b038416907fddf252ad1be2c89b69c2b068fc378daa952ba7f163c4a11628f55a4df523b3ef908390a45050565b606081611fb25750506040805180820190915260018152600360fc1b602082015290565b8160005b8115611fdc5780611fc681612eca565b9150611fd59050600a83612e56565b9150611fb6565b60008167ffffffffffffffff811115611ff757611ff7612a6f565b6040519080825280601f01601f191660200182016040528015612021576020820181803683370190505b5090505b841561111a57612036600183612d00565b9150612043600a86612ee5565b61204e906030612d17565b60f81b81838151811061206357612063612c67565b60200101906001600160f81b031916908160001a905350612085600a86612e56565b9450612025565b600061060d612099612495565b8360405161190160f01b6020820152602281018390526042810182905260009060620160405160208183030381529060405280519060200120905092915050565b6000808251604114156121115760208301516040840151606085015160001a612105878285856125bc565b94509450505050612143565b82516040141561213b57602083015160408401516121308683836126a9565b935093505050612143565b506000905060025b9250929050565b600081600481111561215e5761215e6127e8565b14156121675750565b600181600481111561217b5761217b6127e8565b14156121c95760405162461bcd60e51b815260206004820152601860248201527f45434453413a20696e76616c6964207369676e617475726500000000000000006044820152606401610741565b60028160048111156121dd576121dd6127e8565b141561222b5760405162461bcd60e51b815260206004820152601f60248201527f45434453413a20696e76616c6964207369676e6174757265206c656e677468006044820152606401610741565b600381600481111561223f5761223f6127e8565b14156122985760405162461bcd60e51b815260206004820152602260248201527f45434453413a20696e76616c6964207369676e6174757265202773272076616c604482015261756560f01b6064820152608401610741565b60048160048111156122ac576122ac6127e8565b14156109495760405162461bcd60e51b815260206004820152602260248201527f45434453413a20696e76616c6964207369676e6174757265202776272076616c604482015261756560f01b6064820152608401610741565b6000600161231284610a3f565b61231c9190612d00565b60008381526009602052604090205490915080821461236f576001600160a01b03841660009081526008602090815260408083208584528252808320548484528184208190558352600990915290208190555b5060009182526009602090815260408084208490556001600160a01b039094168352600881528383209183525290812055565b600a546000906123b490600190612d00565b6000838152600b6020526040812054600a80549394509092849081106123dc576123dc612c67565b9060005260206000200154905080600a83815481106123fd576123fd612c67565b6000918252602080832090910192909255828152600b9091526040808220849055858252812055600a80548061243557612435612ef9565b6001900381819060005260206000200160009055905550505050565b600061245c83610a3f565b6001600160a01b039093166000908152600860209081526040808320868452825280832085905593825260099052919091209190915550565b6000306001600160a01b037f0000000000000000000000000000000000000000000000000000000000000000161480156124ee57507f000000000000000000000000000000000000000000000000000000000000000046145b1561251857507f000000000000000000000000000000000000000000000000000000000000000090565b50604080517f00000000000000000000000000000000000000000000000000000000000000006020808301919091527f0000000000000000000000000000000000000000000000000000000000000000828401527f000000000000000000000000000000000000000000000000000000000000000060608301524660808301523060a0808401919091528351808403909101815260c0909201909252805191012090565b6000807f7fffffffffffffffffffffffffffffff5d576e7357a4501ddfe92f46681b20a08311156125f357506000905060036126a0565b8460ff16601b1415801561260b57508460ff16601c14155b1561261c57506000905060046126a0565b6040805160008082526020820180845289905260ff881692820192909252606081018690526080810185905260019060a0016020604051602081039080840390855afa158015612670573d6000803e3d6000fd5b5050604051601f1901519150506001600160a01b038116612699576000600192509250506126a0565b9150600090505b94509492505050565b6000806001600160ff1b038316816126c660ff86901c601b612d17565b90506126d4878288856125bc565b935093505050935093915050565b5080546126ee90612bde565b6000825580601f106126fe575050565b601f01602090049060005260206000209081019061094991906127a0565b82805461272890612bde565b90600052602060002090601f01602090048101928261274a5760008555612790565b82601f1061276357805160ff1916838001178555612790565b82800160010185558215612790579182015b82811115612790578251825591602001919060010190612775565b5061279c9291506127a0565b5090565b5b8082111561279c57600081556001016127a1565b6001600160e01b03198116811461094957600080fd5b6000602082840312156127dd57600080fd5b8135610f02816127b5565b634e487b7160e01b600052602160045260246000fd5b6002811061281c57634e487b7160e01b600052602160045260246000fd5b9052565b6020810161060d82846127fe565b60005b83811015612849578181015183820152602001612831565b83811115610c645750506000910152565b6000815180845261287281602086016020860161282e565b601f01601f19169290920160200192915050565b602081526000610f02602083018461285a565b6000602082840312156128ab57600080fd5b5035919050565b80356001600160a01b03811681146128c957600080fd5b919050565b600080604083850312156128e157600080fd5b6128ea836128b2565b946020939093013593505050565b60008060006060848603121561290d57600080fd5b612916846128b2565b9250612924602085016128b2565b9150604084013590509250925092565b60006020828403121561294657600080fd5b610f02826128b2565b60006020828403121561296157600080fd5b813560028110610f0257600080fd5b60008083601f84011261298257600080fd5b50813567ffffffffffffffff81111561299a57600080fd5b60208301915083602082850101111561214357600080fd5b6000806000806000606086880312156129ca57600080fd5b6129d3866128b2565b9450602086013567ffffffffffffffff808211156129f057600080fd5b6129fc89838a01612970565b90965094506040880135915080821115612a1557600080fd5b50612a2288828901612970565b969995985093965092949392505050565b60008060408385031215612a4657600080fd5b612a4f836128b2565b915060208301358015158114612a6457600080fd5b809150509250929050565b634e487b7160e01b600052604160045260246000fd5b60008060008060808587031215612a9b57600080fd5b612aa4856128b2565b9350612ab2602086016128b2565b925060408501359150606085013567ffffffffffffffff80821115612ad657600080fd5b818701915087601f830112612aea57600080fd5b813581811115612afc57612afc612a6f565b604051601f8201601f19908116603f01168101908382118183101715612b2457612b24612a6f565b816040528281528a6020848701011115612b3d57600080fd5b82602086016020830137600060208483010152809550505050505092959194509250565b60008060408385031215612b7457600080fd5b612b7d836128b2565b9150602083013567ffffffffffffffff811115612b9957600080fd5b830160a08186031215612a6457600080fd5b60008060408385031215612bbe57600080fd5b612bc7836128b2565b9150612bd5602084016128b2565b90509250929050565b600181811c90821680612bf257607f821691505b60208210811415612c1357634e487b7160e01b600052602260045260246000fd5b50919050565b6020808252602e908201527f4552433732313a2063616c6c6572206973206e6f7420746f6b656e206f776e6560408201526d1c881b9bdc88185c1c1c9bdd995960921b606082015260800190565b634e487b7160e01b600052603260045260246000fd5b60408101612c8b82856127fe565b6001600160a01b039290921660209190910152919050565b6000808335601e19843603018112612cba57600080fd5b83018035915067ffffffffffffffff821115612cd557600080fd5b60200191503681900382131561214357600080fd5b634e487b7160e01b600052601160045260246000fd5b600082821015612d1257612d12612cea565b500390565b60008219821115612d2a57612d2a612cea565b500190565b81835281816020850137506000828201602090810191909152601f909101601f19169091010190565b60018060a01b0387168152856020820152608060408201526000612d80608083018688612d2f565b8281036060840152612d93818587612d2f565b9998505050505050505050565b60208082526032908201527f4552433732313a207472616e7366657220746f206e6f6e20455243373231526560408201527131b2b4bb32b91034b6b83632b6b2b73a32b960711b606082015260800190565b60008351612e0481846020880161282e565b835190830190612e1881836020880161282e565b01949350505050565b6000816000190483118215151615612e3b57612e3b612cea565b500290565b634e487b7160e01b600052601260045260246000fd5b600082612e6557612e65612e40565b500490565b6001600160a01b0385811682528416602082015260408101839052608060608201819052600090610c199083018461285a565b600060208284031215612eaf57600080fd5b8151610f02816127b5565b8183823760009101908152919050565b6000600019821415612ede57612ede612cea565b5060010190565b600082612ef457612ef4612e40565b500690565b634e487b7160e01b600052603160045260246000fdfea2646970667358221220a4ee5542e719d01b923f7c38203d653d7c9e36df8c203aea0d7afd37bb69d92a64736f6c63430008090033",
  "linkReferences": {},
  "deployedLinkReferences": {}
}