{
  "_format": "hh-sol-artifact-1",
  "contractName": "ArtongNFT",
  "sourceName": "contracts/ArtongNFT.sol",
  "abi": [
    {
      "inputs": [
        {
          "internalType": "string",
          "name": "_name",
          "type": "string"
        },
        {
          "internalType": "string",
          "name": "_symbol",
          "type": "string"
        },
        {
          "internalType": "address",
          "name": "_marketplace",
          "type": "address"
        },
        {
          "internalType": "uint16",
          "name": "_platformFee",
          "type": "uint16"
        },
        {
          "internalType": "address payable",
          "name": "_feeReceipient",
          "type": "address"
        },
        {
          "internalType": "uint256",
          "name": "_maxAmount",
          "type": "uint256"
        },
        {
          "internalType": "enum ArtongNFT.Policy",
          "name": "_policy",
          "type": "uint8"
        }
      ],
      "stateMutability": "nonpayable",
      "type": "constructor"
    },
    {
      "anonymous": false,
      "inputs": [
        {
          "indexed": true,
          "internalType": "address",
          "name": "owner",
          "type": "address"
        },
        {
          "indexed": true,
          "internalType": "address",
          "name": "approved",
          "type": "address"
        },
        {
          "indexed": true,
          "internalType": "uint256",
          "name": "tokenId",
          "type": "uint256"
        }
      ],
      "name": "Approval",
      "type": "event"
    },
    {
      "anonymous": false,
      "inputs": [
        {
          "indexed": true,
          "internalType": "address",
          "name": "owner",
          "type": "address"
        },
        {
          "indexed": true,
          "internalType": "address",
          "name": "operator",
          "type": "address"
        },
        {
          "indexed": false,
          "internalType": "bool",
          "name": "approved",
          "type": "bool"
        }
      ],
      "name": "ApprovalForAll",
      "type": "event"
    },
    {
      "anonymous": false,
      "inputs": [
        {
          "indexed": true,
          "internalType": "address",
          "name": "previousOwner",
          "type": "address"
        },
        {
          "indexed": true,
          "internalType": "address",
          "name": "newOwner",
          "type": "address"
        }
      ],
      "name": "OwnershipTransferred",
      "type": "event"
    },
    {
      "anonymous": false,
      "inputs": [
        {
          "indexed": true,
          "internalType": "address",
          "name": "from",
          "type": "address"
        },
        {
          "indexed": true,
          "internalType": "address",
          "name": "to",
          "type": "address"
        },
        {
          "indexed": true,
          "internalType": "uint256",
          "name": "tokenId",
          "type": "uint256"
        }
      ],
      "name": "Transfer",
      "type": "event"
    },
    {
      "inputs": [
        {
          "internalType": "address",
          "name": "to",
          "type": "address"
        },
        {
          "internalType": "uint256",
          "name": "tokenId",
          "type": "uint256"
        }
      ],
      "name": "approve",
      "outputs": [],
      "stateMutability": "nonpayable",
      "type": "function"
    },
    {
      "inputs": [
        {
          "internalType": "address",
          "name": "owner",
          "type": "address"
        }
      ],
      "name": "balanceOf",
      "outputs": [
        {
          "internalType": "uint256",
          "name": "",
          "type": "uint256"
        }
      ],
      "stateMutability": "view",
      "type": "function"
    },
    {
      "inputs": [],
      "name": "feeReceipient",
      "outputs": [
        {
          "internalType": "address payable",
          "name": "",
          "type": "address"
        }
      ],
      "stateMutability": "view",
      "type": "function"
    },
    {
      "inputs": [
        {
          "internalType": "uint256",
          "name": "tokenId",
          "type": "uint256"
        }
      ],
      "name": "getApproved",
      "outputs": [
        {
          "internalType": "address",
          "name": "",
          "type": "address"
        }
      ],
      "stateMutability": "view",
      "type": "function"
    },
    {
      "inputs": [],
      "name": "getChainID",
      "outputs": [
        {
          "internalType": "uint256",
          "name": "",
          "type": "uint256"
        }
      ],
      "stateMutability": "view",
      "type": "function"
    },
    {
      "inputs": [],
      "name": "getPolicy",
      "outputs": [
        {
          "internalType": "enum ArtongNFT.Policy",
          "name": "",
          "type": "uint8"
        }
      ],
      "stateMutability": "view",
      "type": "function"
    },
    {
      "inputs": [],
      "name": "getWithdrawal",
      "outputs": [
        {
          "internalType": "uint256",
          "name": "",
          "type": "uint256"
        }
      ],
      "stateMutability": "view",
      "type": "function"
    },
    {
      "inputs": [
        {
          "internalType": "address",
          "name": "owner",
          "type": "address"
        },
        {
          "internalType": "address",
          "name": "operator",
          "type": "address"
        }
      ],
      "name": "isApprovedForAll",
      "outputs": [
        {
          "internalType": "bool",
          "name": "",
          "type": "bool"
        }
      ],
      "stateMutability": "view",
      "type": "function"
    },
    {
      "inputs": [],
      "name": "marketplace",
      "outputs": [
        {
          "internalType": "address",
          "name": "",
          "type": "address"
        }
      ],
      "stateMutability": "view",
      "type": "function"
    },
    {
      "inputs": [
        {
          "internalType": "address",
          "name": "_to",
          "type": "address"
        },
        {
          "internalType": "string",
          "name": "_tokenUri",
          "type": "string"
        }
      ],
      "name": "mint",
      "outputs": [
        {
          "internalType": "uint256",
          "name": "",
          "type": "uint256"
        }
      ],
      "stateMutability": "nonpayable",
      "type": "function"
    },
    {
      "inputs": [],
      "name": "name",
      "outputs": [
        {
          "internalType": "string",
          "name": "",
          "type": "string"
        }
      ],
      "stateMutability": "view",
      "type": "function"
    },
    {
      "inputs": [],
      "name": "owner",
      "outputs": [
        {
          "internalType": "address",
          "name": "",
          "type": "address"
        }
      ],
      "stateMutability": "view",
      "type": "function"
    },
    {
      "inputs": [
        {
          "internalType": "uint256",
          "name": "tokenId",
          "type": "uint256"
        }
      ],
      "name": "ownerOf",
      "outputs": [
        {
          "internalType": "address",
          "name": "",
          "type": "address"
        }
      ],
      "stateMutability": "view",
      "type": "function"
    },
    {
      "inputs": [],
      "name": "platformFee",
      "outputs": [
        {
          "internalType": "uint16",
          "name": "",
          "type": "uint16"
        }
      ],
      "stateMutability": "view",
      "type": "function"
    },
    {
      "inputs": [
        {
          "internalType": "address",
          "name": "redeemer",
          "type": "address"
        },
        {
          "components": [
            {
              "internalType": "address",
              "name": "creator",
              "type": "address"
            },
            {
              "internalType": "uint256",
              "name": "minPrice",
              "type": "uint256"
            },
            {
              "internalType": "string",
              "name": "uri",
              "type": "string"
            },
            {
              "internalType": "bytes",
              "name": "signature",
              "type": "bytes"
            }
          ],
          "internalType": "struct ArtongNFT.NFTVoucher",
          "name": "voucher",
          "type": "tuple"
        }
      ],
      "name": "redeem",
      "outputs": [
        {
          "internalType": "uint256",
          "name": "",
          "type": "uint256"
        }
      ],
      "stateMutability": "payable",
      "type": "function"
    },
    {
      "inputs": [],
      "name": "renounceOwnership",
      "outputs": [],
      "stateMutability": "nonpayable",
      "type": "function"
    },
    {
      "inputs": [
        {
          "internalType": "address",
          "name": "from",
          "type": "address"
        },
        {
          "internalType": "address",
          "name": "to",
          "type": "address"
        },
        {
          "internalType": "uint256",
          "name": "tokenId",
          "type": "uint256"
        }
      ],
      "name": "safeTransferFrom",
      "outputs": [],
      "stateMutability": "nonpayable",
      "type": "function"
    },
    {
      "inputs": [
        {
          "internalType": "address",
          "name": "from",
          "type": "address"
        },
        {
          "internalType": "address",
          "name": "to",
          "type": "address"
        },
        {
          "internalType": "uint256",
          "name": "tokenId",
          "type": "uint256"
        },
        {
          "internalType": "bytes",
          "name": "data",
          "type": "bytes"
        }
      ],
      "name": "safeTransferFrom",
      "outputs": [],
      "stateMutability": "nonpayable",
      "type": "function"
    },
    {
      "inputs": [
        {
          "internalType": "address",
          "name": "operator",
          "type": "address"
        },
        {
          "internalType": "bool",
          "name": "approved",
          "type": "bool"
        }
      ],
      "name": "setApprovalForAll",
      "outputs": [],
      "stateMutability": "nonpayable",
      "type": "function"
    },
    {
      "inputs": [
        {
          "internalType": "bytes4",
          "name": "interfaceId",
          "type": "bytes4"
        }
      ],
      "name": "supportsInterface",
      "outputs": [
        {
          "internalType": "bool",
          "name": "",
          "type": "bool"
        }
      ],
      "stateMutability": "view",
      "type": "function"
    },
    {
      "inputs": [],
      "name": "symbol",
      "outputs": [
        {
          "internalType": "string",
          "name": "",
          "type": "string"
        }
      ],
      "stateMutability": "view",
      "type": "function"
    },
    {
      "inputs": [
        {
          "internalType": "uint256",
          "name": "tokenId",
          "type": "uint256"
        }
      ],
      "name": "tokenURI",
      "outputs": [
        {
          "internalType": "string",
          "name": "",
          "type": "string"
        }
      ],
      "stateMutability": "view",
      "type": "function"
    },
    {
      "inputs": [
        {
          "internalType": "address",
          "name": "from",
          "type": "address"
        },
        {
          "internalType": "address",
          "name": "to",
          "type": "address"
        },
        {
          "internalType": "uint256",
          "name": "tokenId",
          "type": "uint256"
        }
      ],
      "name": "transferFrom",
      "outputs": [],
      "stateMutability": "nonpayable",
      "type": "function"
    },
    {
      "inputs": [
        {
          "internalType": "address",
          "name": "newOwner",
          "type": "address"
        }
      ],
      "name": "transferOwnership",
      "outputs": [],
      "stateMutability": "nonpayable",
      "type": "function"
    },
    {
      "inputs": [],
      "name": "withdraw",
      "outputs": [],
      "stateMutability": "nonpayable",
      "type": "function"
    }
  ],
  "bytecode": "0x6101406040523480156200001257600080fd5b5060405162004c5138038062004c5183398181016040528101906200003891906200072f565b6040518060400160405280601181526020017f4172746f6e674e46542d566f75636865720000000000000000000000000000008152506040518060400160405280600181526020017f310000000000000000000000000000000000000000000000000000000000000081525088888160009080519060200190620000be92919062000396565b508060019080519060200190620000d792919062000396565b50505060008280519060200120905060008280519060200120905060007f8b73c3c69bb8fe3d512ecc4cf759cc79239f7b179b0ffacaa9a75d522b39400f90508260e081815250508161010081815250504660a08181525050620001438184846200028c60201b60201c565b608081815250503073ffffffffffffffffffffffffffffffffffffffff1660c08173ffffffffffffffffffffffffffffffffffffffff16815250508061012081815250505050505050620001ac620001a0620002c860201b60201c565b620002d060201b60201c565b84600a60016101000a81548173ffffffffffffffffffffffffffffffffffffffff021916908373ffffffffffffffffffffffffffffffffffffffff16021790555083600a60156101000a81548161ffff021916908361ffff16021790555082600b60006101000a81548173ffffffffffffffffffffffffffffffffffffffff021916908373ffffffffffffffffffffffffffffffffffffffff1602179055508160098190555080600a60006101000a81548160ff021916908360018111156200027a576200027962000820565b5b0217905550505050505050506200094e565b60008383834630604051602001620002a99594939291906200088c565b6040516020818303038152906040528051906020012090509392505050565b600033905090565b6000600760009054906101000a900473ffffffffffffffffffffffffffffffffffffffff16905081600760006101000a81548173ffffffffffffffffffffffffffffffffffffffff021916908373ffffffffffffffffffffffffffffffffffffffff1602179055508173ffffffffffffffffffffffffffffffffffffffff168173ffffffffffffffffffffffffffffffffffffffff167f8be0079c531659141344cd1fd0a4f28419497f9722a3daafe3b4186f6b6457e060405160405180910390a35050565b828054620003a49062000918565b90600052602060002090601f016020900481019282620003c8576000855562000414565b82601f10620003e357805160ff191683800117855562000414565b8280016001018555821562000414579182015b8281111562000413578251825591602001919060010190620003f6565b5b50905062000423919062000427565b5090565b5b808211156200044257600081600090555060010162000428565b5090565b6000604051905090565b600080fd5b600080fd5b600080fd5b600080fd5b6000601f19601f8301169050919050565b7f4e487b7100000000000000000000000000000000000000000000000000000000600052604160045260246000fd5b620004af8262000464565b810181811067ffffffffffffffff82111715620004d157620004d062000475565b5b80604052505050565b6000620004e662000446565b9050620004f48282620004a4565b919050565b600067ffffffffffffffff82111562000517576200051662000475565b5b620005228262000464565b9050602081019050919050565b60005b838110156200054f57808201518184015260208101905062000532565b838111156200055f576000848401525b50505050565b60006200057c6200057684620004f9565b620004da565b9050828152602081018484840111156200059b576200059a6200045f565b5b620005a88482856200052f565b509392505050565b600082601f830112620005c857620005c76200045a565b5b8151620005da84826020860162000565565b91505092915050565b600073ffffffffffffffffffffffffffffffffffffffff82169050919050565b60006200061082620005e3565b9050919050565b620006228162000603565b81146200062e57600080fd5b50565b600081519050620006428162000617565b92915050565b600061ffff82169050919050565b620006618162000648565b81146200066d57600080fd5b50565b600081519050620006818162000656565b92915050565b60006200069482620005e3565b9050919050565b620006a68162000687565b8114620006b257600080fd5b50565b600081519050620006c6816200069b565b92915050565b6000819050919050565b620006e181620006cc565b8114620006ed57600080fd5b50565b6000815190506200070181620006d6565b92915050565b600281106200071557600080fd5b50565b600081519050620007298162000707565b92915050565b600080600080600080600060e0888a03121562000751576200075062000450565b5b600088015167ffffffffffffffff81111562000772576200077162000455565b5b620007808a828b01620005b0565b975050602088015167ffffffffffffffff811115620007a457620007a362000455565b5b620007b28a828b01620005b0565b9650506040620007c58a828b0162000631565b9550506060620007d88a828b0162000670565b9450506080620007eb8a828b01620006b5565b93505060a0620007fe8a828b01620006f0565b92505060c0620008118a828b0162000718565b91505092959891949750929550565b7f4e487b7100000000000000000000000000000000000000000000000000000000600052602160045260246000fd5b6000819050919050565b62000864816200084f565b82525050565b6200087581620006cc565b82525050565b620008868162000603565b82525050565b600060a082019050620008a3600083018862000859565b620008b2602083018762000859565b620008c1604083018662000859565b620008d060608301856200086a565b620008df60808301846200087b565b9695505050505050565b7f4e487b7100000000000000000000000000000000000000000000000000000000600052602260045260246000fd5b600060028204905060018216806200093157607f821691505b60208210811415620009485762000947620008e9565b5b50919050565b60805160a05160c05160e05161010051610120516142b36200099e60003960006125d301526000612615015260006125f4015260006125290152600061257f015260006125a801526142b36000f3fe6080604052600436106101665760003560e01c806370a08231116100d1578063abc8c7af1161008a578063ce1e462611610064578063ce1e46261461051f578063d0def5211461054a578063e985e9c514610587578063f2fde38b146105c457610166565b8063abc8c7af1461048e578063b88d4fde146104b9578063c87b56dd146104e257610166565b806370a0823114610390578063715018a6146103cd578063806ad169146103e45780638da5cb5b1461040f57806395d89b411461043a578063a22cb4651461046557610166565b806326232a2e1161012357806326232a2e146102925780633740ebb3146102bd5780633ccfd60b146102e857806342842e0e146102ff578063564b81ef146103285780636352211e1461035357610166565b806301ffc9a71461016b57806306fdde03146101a8578063081812fc146101d3578063095ea7b314610210578063111425521461023957806323b872dd14610269575b600080fd5b34801561017757600080fd5b50610192600480360381019061018d9190612927565b6105ed565b60405161019f919061296f565b60405180910390f35b3480156101b457600080fd5b506101bd6106cf565b6040516101ca9190612a23565b60405180910390f35b3480156101df57600080fd5b506101fa60048036038101906101f59190612a7b565b610761565b6040516102079190612ae9565b60405180910390f35b34801561021c57600080fd5b5061023760048036038101906102329190612b30565b6107a7565b005b610253600480360381019061024e9190612b94565b6108bf565b6040516102609190612bff565b60405180910390f35b34801561027557600080fd5b50610290600480360381019061028b9190612c1a565b610b28565b005b34801561029e57600080fd5b506102a7610b88565b6040516102b49190612c8a565b60405180910390f35b3480156102c957600080fd5b506102d2610b9c565b6040516102df9190612cc6565b60405180910390f35b3480156102f457600080fd5b506102fd610bc2565b005b34801561030b57600080fd5b5061032660048036038101906103219190612c1a565b610cb6565b005b34801561033457600080fd5b5061033d610cd6565b60405161034a9190612bff565b60405180910390f35b34801561035f57600080fd5b5061037a60048036038101906103759190612a7b565b610ce3565b6040516103879190612ae9565b60405180910390f35b34801561039c57600080fd5b506103b760048036038101906103b29190612ce1565b610d95565b6040516103c49190612bff565b60405180910390f35b3480156103d957600080fd5b506103e2610e4d565b005b3480156103f057600080fd5b506103f9610e61565b6040516104069190612bff565b60405180910390f35b34801561041b57600080fd5b50610424610ea8565b6040516104319190612ae9565b60405180910390f35b34801561044657600080fd5b5061044f610ed2565b60405161045c9190612a23565b60405180910390f35b34801561047157600080fd5b5061048c60048036038101906104879190612d3a565b610f64565b005b34801561049a57600080fd5b506104a3610f7a565b6040516104b09190612ae9565b60405180910390f35b3480156104c557600080fd5b506104e060048036038101906104db9190612eaf565b610fa0565b005b3480156104ee57600080fd5b5061050960048036038101906105049190612a7b565b611002565b6040516105169190612a23565b60405180910390f35b34801561052b57600080fd5b50610534611115565b6040516105419190612fa9565b60405180910390f35b34801561055657600080fd5b50610571600480360381019061056c9190613024565b61112c565b60405161057e9190612bff565b60405180910390f35b34801561059357600080fd5b506105ae60048036038101906105a99190613084565b6111b7565b6040516105bb919061296f565b60405180910390f35b3480156105d057600080fd5b506105eb60048036038101906105e69190612ce1565b61124b565b005b60007f80ac58cd000000000000000000000000000000000000000000000000000000007bffffffffffffffffffffffffffffffffffffffffffffffffffffffff1916827bffffffffffffffffffffffffffffffffffffffffffffffffffffffff191614806106b857507f5b5e139f000000000000000000000000000000000000000000000000000000007bffffffffffffffffffffffffffffffffffffffffffffffffffffffff1916827bffffffffffffffffffffffffffffffffffffffffffffffffffffffff1916145b806106c857506106c7826112cf565b5b9050919050565b6060600080546106de906130f3565b80601f016020809104026020016040519081016040528092919081815260200182805461070a906130f3565b80156107575780601f1061072c57610100808354040283529160200191610757565b820191906000526020600020905b81548152906001019060200180831161073a57829003601f168201915b5050505050905090565b600061076c82611339565b6004600083815260200190815260200160002060009054906101000a900473ffffffffffffffffffffffffffffffffffffffff169050919050565b60006107b282610ce3565b90508073ffffffffffffffffffffffffffffffffffffffff168373ffffffffffffffffffffffffffffffffffffffff161415610823576040517f08c379a000000000000000000000000000000000000000000000000000000000815260040161081a90613197565b60405180910390fd5b8073ffffffffffffffffffffffffffffffffffffffff16610842611384565b73ffffffffffffffffffffffffffffffffffffffff16148061087157506108708161086b611384565b6111b7565b5b6108b0576040517f08c379a00000000000000000000000000000000000000000000000000000000081526004016108a790613229565b60405180910390fd5b6108ba838361138c565b505050565b6000806108cb83611445565b90508260000160208101906108e09190612ce1565b73ffffffffffffffffffffffffffffffffffffffff168173ffffffffffffffffffffffffffffffffffffffff161461094d576040517f08c379a000000000000000000000000000000000000000000000000000000000815260040161094490613295565b60405180910390fd5b8260200135341015610994576040517f08c379a000000000000000000000000000000000000000000000000000000000815260040161098b90613301565b60405180910390fd5b60006109c18460000160208101906109ac9190612ce1565b8580604001906109bc9190613330565b6114b7565b90506109e08460000160208101906109d99190612ce1565b8683611534565b60006109ea61179b565b905080346109f891906133c2565b600c60008573ffffffffffffffffffffffffffffffffffffffff1673ffffffffffffffffffffffffffffffffffffffff1681526020019081526020016000206000828254610a4691906133f6565b925050819055506000600b60009054906101000a900473ffffffffffffffffffffffffffffffffffffffff1673ffffffffffffffffffffffffffffffffffffffff1682604051610a959061347d565b60006040518083038185875af1925050503d8060008114610ad2576040519150601f19603f3d011682016040523d82523d6000602084013e610ad7565b606091505b5050905080610b1b576040517f08c379a0000000000000000000000000000000000000000000000000000000008152600401610b12906134de565b60405180910390fd5b8294505050505092915050565b610b39610b33611384565b826117cf565b610b78576040517f08c379a0000000000000000000000000000000000000000000000000000000008152600401610b6f90613570565b60405180910390fd5b610b83838383611534565b505050565b600a60159054906101000a900461ffff1681565b600b60009054906101000a900473ffffffffffffffffffffffffffffffffffffffff1681565b6000600c60003373ffffffffffffffffffffffffffffffffffffffff1673ffffffffffffffffffffffffffffffffffffffff1681526020019081526020016000205490506000811415610c1457600080fd5b80471015610c2157600080fd5b60003390506000600c60003373ffffffffffffffffffffffffffffffffffffffff1673ffffffffffffffffffffffffffffffffffffffff168152602001908152602001600020819055508073ffffffffffffffffffffffffffffffffffffffff166108fc839081150290604051600060405180830381858888f19350505050158015610cb1573d6000803e3d6000fd5b505050565b610cd183838360405180602001604052806000815250610fa0565b505050565b6000804690508091505090565b6000806002600084815260200190815260200160002060009054906101000a900473ffffffffffffffffffffffffffffffffffffffff169050600073ffffffffffffffffffffffffffffffffffffffff168173ffffffffffffffffffffffffffffffffffffffff161415610d8c576040517f08c379a0000000000000000000000000000000000000000000000000000000008152600401610d83906135dc565b60405180910390fd5b80915050919050565b60008073ffffffffffffffffffffffffffffffffffffffff168273ffffffffffffffffffffffffffffffffffffffff161415610e06576040517f08c379a0000000000000000000000000000000000000000000000000000000008152600401610dfd9061366e565b60405180910390fd5b600360008373ffffffffffffffffffffffffffffffffffffffff1673ffffffffffffffffffffffffffffffffffffffff168152602001908152602001600020549050919050565b610e55611864565b610e5f60006118e2565b565b6000600c60003373ffffffffffffffffffffffffffffffffffffffff1673ffffffffffffffffffffffffffffffffffffffff16815260200190815260200160002054905090565b6000600760009054906101000a900473ffffffffffffffffffffffffffffffffffffffff16905090565b606060018054610ee1906130f3565b80601f0160208091040260200160405190810160405280929190818152602001828054610f0d906130f3565b8015610f5a5780601f10610f2f57610100808354040283529160200191610f5a565b820191906000526020600020905b815481529060010190602001808311610f3d57829003601f168201915b5050505050905090565b610f76610f6f611384565b83836119a8565b5050565b600a60019054906101000a900473ffffffffffffffffffffffffffffffffffffffff1681565b610fb1610fab611384565b836117cf565b610ff0576040517f08c379a0000000000000000000000000000000000000000000000000000000008152600401610fe790613570565b60405180910390fd5b610ffc84848484611b15565b50505050565b606061100d82611339565b600060066000848152602001908152602001600020805461102d906130f3565b80601f0160208091040260200160405190810160405280929190818152602001828054611059906130f3565b80156110a65780601f1061107b576101008083540402835291602001916110a6565b820191906000526020600020905b81548152906001019060200180831161108957829003601f168201915b5050505050905060006110b7611b71565b90506000815114156110cd578192505050611110565b6000825111156111025780826040516020016110ea9291906136ca565b60405160208183030381529060405292505050611110565b61110b84611b88565b925050505b919050565b6000600a60009054906101000a900460ff16905090565b600080600181111561114157611140612f32565b5b600a60009054906101000a900460ff16600181111561116357611162612f32565b5b146111a3576040517f08c379a000000000000000000000000000000000000000000000000000000000815260040161119a9061373a565b60405180910390fd5b6111ae8484846114b7565b90509392505050565b6000600560008473ffffffffffffffffffffffffffffffffffffffff1673ffffffffffffffffffffffffffffffffffffffff16815260200190815260200160002060008373ffffffffffffffffffffffffffffffffffffffff1673ffffffffffffffffffffffffffffffffffffffff16815260200190815260200160002060009054906101000a900460ff16905092915050565b611253611864565b600073ffffffffffffffffffffffffffffffffffffffff168173ffffffffffffffffffffffffffffffffffffffff1614156112c3576040517f08c379a00000000000000000000000000000000000000000000000000000000081526004016112ba906137cc565b60405180910390fd5b6112cc816118e2565b50565b60007f01ffc9a7000000000000000000000000000000000000000000000000000000007bffffffffffffffffffffffffffffffffffffffffffffffffffffffff1916827bffffffffffffffffffffffffffffffffffffffffffffffffffffffff1916149050919050565b61134281611bf0565b611381576040517f08c379a0000000000000000000000000000000000000000000000000000000008152600401611378906135dc565b60405180910390fd5b50565b600033905090565b816004600083815260200190815260200160002060006101000a81548173ffffffffffffffffffffffffffffffffffffffff021916908373ffffffffffffffffffffffffffffffffffffffff160217905550808273ffffffffffffffffffffffffffffffffffffffff166113ff83610ce3565b73ffffffffffffffffffffffffffffffffffffffff167f8c5be1e5ebec7d5bd14f71427d1e84f3dd0314c0f7b2291e5b200ac8c7c3b92560405160405180910390a45050565b60008061145183611c5c565b90506114af8184806060019061146791906137ec565b8080601f016020809104026020016040519081016040528093929190818152602001838380828437600081840152601f19601f82011690508083019250505050505050611cf5565b915050919050565b60006114c36008611d1c565b60006114cf6008611d32565b90506114db8582611d40565b6115298185858080601f016020809104026020016040519081016040528093929190818152602001838380828437600081840152601f19601f82011690508083019250505050505050611f1a565b809150509392505050565b8273ffffffffffffffffffffffffffffffffffffffff1661155482610ce3565b73ffffffffffffffffffffffffffffffffffffffff16146115aa576040517f08c379a00000000000000000000000000000000000000000000000000000000081526004016115a1906138c1565b60405180910390fd5b600073ffffffffffffffffffffffffffffffffffffffff168273ffffffffffffffffffffffffffffffffffffffff16141561161a576040517f08c379a000000000000000000000000000000000000000000000000000000000815260040161161190613953565b60405180910390fd5b611625838383611f8e565b61163060008261138c565b6001600360008573ffffffffffffffffffffffffffffffffffffffff1673ffffffffffffffffffffffffffffffffffffffff168152602001908152602001600020600082825461168091906133c2565b925050819055506001600360008473ffffffffffffffffffffffffffffffffffffffff1673ffffffffffffffffffffffffffffffffffffffff16815260200190815260200160002060008282546116d791906133f6565b92505081905550816002600083815260200190815260200160002060006101000a81548173ffffffffffffffffffffffffffffffffffffffff021916908373ffffffffffffffffffffffffffffffffffffffff160217905550808273ffffffffffffffffffffffffffffffffffffffff168473ffffffffffffffffffffffffffffffffffffffff167fddf252ad1be2c89b69c2b068fc378daa952ba7f163c4a11628f55a4df523b3ef60405160405180910390a4611796838383611f93565b505050565b6000612710600a60159054906101000a900461ffff1661ffff16346117c09190613973565b6117ca91906139fc565b905090565b6000806117db83610ce3565b90508073ffffffffffffffffffffffffffffffffffffffff168473ffffffffffffffffffffffffffffffffffffffff16148061181d575061181c81856111b7565b5b8061185b57508373ffffffffffffffffffffffffffffffffffffffff1661184384610761565b73ffffffffffffffffffffffffffffffffffffffff16145b91505092915050565b61186c611384565b73ffffffffffffffffffffffffffffffffffffffff1661188a610ea8565b73ffffffffffffffffffffffffffffffffffffffff16146118e0576040517f08c379a00000000000000000000000000000000000000000000000000000000081526004016118d790613a79565b60405180910390fd5b565b6000600760009054906101000a900473ffffffffffffffffffffffffffffffffffffffff16905081600760006101000a81548173ffffffffffffffffffffffffffffffffffffffff021916908373ffffffffffffffffffffffffffffffffffffffff1602179055508173ffffffffffffffffffffffffffffffffffffffff168173ffffffffffffffffffffffffffffffffffffffff167f8be0079c531659141344cd1fd0a4f28419497f9722a3daafe3b4186f6b6457e060405160405180910390a35050565b8173ffffffffffffffffffffffffffffffffffffffff168373ffffffffffffffffffffffffffffffffffffffff161415611a17576040517f08c379a0000000000000000000000000000000000000000000000000000000008152600401611a0e90613ae5565b60405180910390fd5b80600560008573ffffffffffffffffffffffffffffffffffffffff1673ffffffffffffffffffffffffffffffffffffffff16815260200190815260200160002060008473ffffffffffffffffffffffffffffffffffffffff1673ffffffffffffffffffffffffffffffffffffffff16815260200190815260200160002060006101000a81548160ff0219169083151502179055508173ffffffffffffffffffffffffffffffffffffffff168373ffffffffffffffffffffffffffffffffffffffff167f17307eab39ab6107e8899845ad3d59bd9653f200f220920489ca2b5937696c3183604051611b08919061296f565b60405180910390a3505050565b611b20848484611534565b611b2c84848484611f98565b611b6b576040517f08c379a0000000000000000000000000000000000000000000000000000000008152600401611b6290613b77565b60405180910390fd5b50505050565b606060405180602001604052806000815250905090565b6060611b9382611339565b6000611b9d611b71565b90506000815111611bbd5760405180602001604052806000815250611be8565b80611bc78461212f565b604051602001611bd89291906136ca565b6040516020818303038152906040525b915050919050565b60008073ffffffffffffffffffffffffffffffffffffffff166002600084815260200190815260200160002060009054906101000a900473ffffffffffffffffffffffffffffffffffffffff1673ffffffffffffffffffffffffffffffffffffffff1614159050919050565b6000611cee7fe2c1fe55ff75bc6c0f1e92db9b907c57038a5f95f7c137ff4bf9e10a15bc3d01836000016020810190611c959190612ce1565b8460200135858060400190611caa9190613330565b604051611cb8929190613bbc565b6040518091039020604051602001611cd39493929190613bee565b60405160208183030381529060405280519060200120612290565b9050919050565b6000806000611d0485856122aa565b91509150611d118161232d565b819250505092915050565b6001816000016000828254019250508190555050565b600081600001549050919050565b600073ffffffffffffffffffffffffffffffffffffffff168273ffffffffffffffffffffffffffffffffffffffff161415611db0576040517f08c379a0000000000000000000000000000000000000000000000000000000008152600401611da790613c7f565b60405180910390fd5b611db981611bf0565b15611df9576040517f08c379a0000000000000000000000000000000000000000000000000000000008152600401611df090613ceb565b60405180910390fd5b611e0560008383611f8e565b6001600360008473ffffffffffffffffffffffffffffffffffffffff1673ffffffffffffffffffffffffffffffffffffffff1681526020019081526020016000206000828254611e5591906133f6565b92505081905550816002600083815260200190815260200160002060006101000a81548173ffffffffffffffffffffffffffffffffffffffff021916908373ffffffffffffffffffffffffffffffffffffffff160217905550808273ffffffffffffffffffffffffffffffffffffffff16600073ffffffffffffffffffffffffffffffffffffffff167fddf252ad1be2c89b69c2b068fc378daa952ba7f163c4a11628f55a4df523b3ef60405160405180910390a4611f1660008383611f93565b5050565b611f2382611bf0565b611f62576040517f08c379a0000000000000000000000000000000000000000000000000000000008152600401611f5990613d7d565b60405180910390fd5b80600660008481526020019081526020016000209080519060200190611f89929190612818565b505050565b505050565b505050565b6000611fb98473ffffffffffffffffffffffffffffffffffffffff16612502565b15612122578373ffffffffffffffffffffffffffffffffffffffff1663150b7a02611fe2611384565b8786866040518563ffffffff1660e01b81526004016120049493929190613df2565b602060405180830381600087803b15801561201e57600080fd5b505af192505050801561204f57506040513d601f19601f8201168201806040525081019061204c9190613e53565b60015b6120d2573d806000811461207f576040519150601f19603f3d011682016040523d82523d6000602084013e612084565b606091505b506000815114156120ca576040517f08c379a00000000000000000000000000000000000000000000000000000000081526004016120c190613b77565b60405180910390fd5b805181602001fd5b63150b7a0260e01b7bffffffffffffffffffffffffffffffffffffffffffffffffffffffff1916817bffffffffffffffffffffffffffffffffffffffffffffffffffffffff191614915050612127565b600190505b949350505050565b60606000821415612177576040518060400160405280600181526020017f3000000000000000000000000000000000000000000000000000000000000000815250905061228b565b600082905060005b600082146121a957808061219290613e80565b915050600a826121a291906139fc565b915061217f565b60008167ffffffffffffffff8111156121c5576121c4612d84565b5b6040519080825280601f01601f1916602001820160405280156121f75781602001600182028036833780820191505090505b5090505b600085146122845760018261221091906133c2565b9150600a8561221f9190613ec9565b603061222b91906133f6565b60f81b81838151811061224157612240613efa565b5b60200101907effffffffffffffffffffffffffffffffffffffffffffffffffffffffffffff1916908160001a905350600a8561227d91906139fc565b94506121fb565b8093505050505b919050565b60006122a361229d612525565b8361263f565b9050919050565b6000806041835114156122ec5760008060006020860151925060408601519150606086015160001a90506122e087828585612672565b94509450505050612326565b60408351141561231d57600080602085015191506040850151905061231286838361277f565b935093505050612326565b60006002915091505b9250929050565b6000600481111561234157612340612f32565b5b81600481111561235457612353612f32565b5b141561235f576124ff565b6001600481111561237357612372612f32565b5b81600481111561238657612385612f32565b5b14156123c7576040517f08c379a00000000000000000000000000000000000000000000000000000000081526004016123be90613f75565b60405180910390fd5b600260048111156123db576123da612f32565b5b8160048111156123ee576123ed612f32565b5b141561242f576040517f08c379a000000000000000000000000000000000000000000000000000000000815260040161242690613fe1565b60405180910390fd5b6003600481111561244357612442612f32565b5b81600481111561245657612455612f32565b5b1415612497576040517f08c379a000000000000000000000000000000000000000000000000000000000815260040161248e90614073565b60405180910390fd5b6004808111156124aa576124a9612f32565b5b8160048111156124bd576124bc612f32565b5b14156124fe576040517f08c379a00000000000000000000000000000000000000000000000000000000081526004016124f590614105565b60405180910390fd5b5b50565b6000808273ffffffffffffffffffffffffffffffffffffffff163b119050919050565b60007f000000000000000000000000000000000000000000000000000000000000000073ffffffffffffffffffffffffffffffffffffffff163073ffffffffffffffffffffffffffffffffffffffff161480156125a157507f000000000000000000000000000000000000000000000000000000000000000046145b156125ce577f0000000000000000000000000000000000000000000000000000000000000000905061263c565b6126397f00000000000000000000000000000000000000000000000000000000000000007f00000000000000000000000000000000000000000000000000000000000000007f00000000000000000000000000000000000000000000000000000000000000006127de565b90505b90565b60008282604051602001612654929190614192565b60405160208183030381529060405280519060200120905092915050565b6000807f7fffffffffffffffffffffffffffffff5d576e7357a4501ddfe92f46681b20a08360001c11156126ad576000600391509150612776565b601b8560ff16141580156126c55750601c8560ff1614155b156126d7576000600491509150612776565b6000600187878787604051600081526020016040526040516126fc94939291906141e5565b6020604051602081039080840390855afa15801561271e573d6000803e3d6000fd5b505050602060405103519050600073ffffffffffffffffffffffffffffffffffffffff168173ffffffffffffffffffffffffffffffffffffffff16141561276d57600060019250925050612776565b80600092509250505b94509492505050565b60008060007f7fffffffffffffffffffffffffffffffffffffffffffffffffffffffffffffff60001b841690506000601b60ff8660001c901c6127c291906133f6565b90506127d087828885612672565b935093505050935093915050565b600083838346306040516020016127f995949392919061422a565b6040516020818303038152906040528051906020012090509392505050565b828054612824906130f3565b90600052602060002090601f016020900481019282612846576000855561288d565b82601f1061285f57805160ff191683800117855561288d565b8280016001018555821561288d579182015b8281111561288c578251825591602001919060010190612871565b5b50905061289a919061289e565b5090565b5b808211156128b757600081600090555060010161289f565b5090565b6000604051905090565b600080fd5b600080fd5b60007fffffffff0000000000000000000000000000000000000000000000000000000082169050919050565b612904816128cf565b811461290f57600080fd5b50565b600081359050612921816128fb565b92915050565b60006020828403121561293d5761293c6128c5565b5b600061294b84828501612912565b91505092915050565b60008115159050919050565b61296981612954565b82525050565b60006020820190506129846000830184612960565b92915050565b600081519050919050565b600082825260208201905092915050565b60005b838110156129c45780820151818401526020810190506129a9565b838111156129d3576000848401525b50505050565b6000601f19601f8301169050919050565b60006129f58261298a565b6129ff8185612995565b9350612a0f8185602086016129a6565b612a18816129d9565b840191505092915050565b60006020820190508181036000830152612a3d81846129ea565b905092915050565b6000819050919050565b612a5881612a45565b8114612a6357600080fd5b50565b600081359050612a7581612a4f565b92915050565b600060208284031215612a9157612a906128c5565b5b6000612a9f84828501612a66565b91505092915050565b600073ffffffffffffffffffffffffffffffffffffffff82169050919050565b6000612ad382612aa8565b9050919050565b612ae381612ac8565b82525050565b6000602082019050612afe6000830184612ada565b92915050565b612b0d81612ac8565b8114612b1857600080fd5b50565b600081359050612b2a81612b04565b92915050565b60008060408385031215612b4757612b466128c5565b5b6000612b5585828601612b1b565b9250506020612b6685828601612a66565b9150509250929050565b600080fd5b600060808284031215612b8b57612b8a612b70565b5b81905092915050565b60008060408385031215612bab57612baa6128c5565b5b6000612bb985828601612b1b565b925050602083013567ffffffffffffffff811115612bda57612bd96128ca565b5b612be685828601612b75565b9150509250929050565b612bf981612a45565b82525050565b6000602082019050612c146000830184612bf0565b92915050565b600080600060608486031215612c3357612c326128c5565b5b6000612c4186828701612b1b565b9350506020612c5286828701612b1b565b9250506040612c6386828701612a66565b9150509250925092565b600061ffff82169050919050565b612c8481612c6d565b82525050565b6000602082019050612c9f6000830184612c7b565b92915050565b6000612cb082612aa8565b9050919050565b612cc081612ca5565b82525050565b6000602082019050612cdb6000830184612cb7565b92915050565b600060208284031215612cf757612cf66128c5565b5b6000612d0584828501612b1b565b91505092915050565b612d1781612954565b8114612d2257600080fd5b50565b600081359050612d3481612d0e565b92915050565b60008060408385031215612d5157612d506128c5565b5b6000612d5f85828601612b1b565b9250506020612d7085828601612d25565b9150509250929050565b600080fd5b600080fd5b7f4e487b7100000000000000000000000000000000000000000000000000000000600052604160045260246000fd5b612dbc826129d9565b810181811067ffffffffffffffff82111715612ddb57612dda612d84565b5b80604052505050565b6000612dee6128bb565b9050612dfa8282612db3565b919050565b600067ffffffffffffffff821115612e1a57612e19612d84565b5b612e23826129d9565b9050602081019050919050565b82818337600083830152505050565b6000612e52612e4d84612dff565b612de4565b905082815260208101848484011115612e6e57612e6d612d7f565b5b612e79848285612e30565b509392505050565b600082601f830112612e9657612e95612d7a565b5b8135612ea6848260208601612e3f565b91505092915050565b60008060008060808587031215612ec957612ec86128c5565b5b6000612ed787828801612b1b565b9450506020612ee887828801612b1b565b9350506040612ef987828801612a66565b925050606085013567ffffffffffffffff811115612f1a57612f196128ca565b5b612f2687828801612e81565b91505092959194509250565b7f4e487b7100000000000000000000000000000000000000000000000000000000600052602160045260246000fd5b60028110612f7257612f71612f32565b5b50565b6000819050612f8382612f61565b919050565b6000612f9382612f75565b9050919050565b612fa381612f88565b82525050565b6000602082019050612fbe6000830184612f9a565b92915050565b600080fd5b600080fd5b60008083601f840112612fe457612fe3612d7a565b5b8235905067ffffffffffffffff81111561300157613000612fc4565b5b60208301915083600182028301111561301d5761301c612fc9565b5b9250929050565b60008060006040848603121561303d5761303c6128c5565b5b600061304b86828701612b1b565b935050602084013567ffffffffffffffff81111561306c5761306b6128ca565b5b61307886828701612fce565b92509250509250925092565b6000806040838503121561309b5761309a6128c5565b5b60006130a985828601612b1b565b92505060206130ba85828601612b1b565b9150509250929050565b7f4e487b7100000000000000000000000000000000000000000000000000000000600052602260045260246000fd5b6000600282049050600182168061310b57607f821691505b6020821081141561311f5761311e6130c4565b5b50919050565b7f4552433732313a20617070726f76616c20746f2063757272656e74206f776e6560008201527f7200000000000000000000000000000000000000000000000000000000000000602082015250565b6000613181602183612995565b915061318c82613125565b604082019050919050565b600060208201905081810360008301526131b081613174565b9050919050565b7f4552433732313a20617070726f76652063616c6c6572206973206e6f7420746f60008201527f6b656e206f776e6572206e6f7220617070726f76656420666f7220616c6c0000602082015250565b6000613213603e83612995565b915061321e826131b7565b604082019050919050565b6000602082019050818103600083015261324281613206565b9050919050565b7f5369676e617475726520696e76616c6964000000000000000000000000000000600082015250565b600061327f601183612995565b915061328a82613249565b602082019050919050565b600060208201905081810360008301526132ae81613272565b9050919050565b7f496e73756666696369656e742066756e647320746f2072656465656d00000000600082015250565b60006132eb601c83612995565b91506132f6826132b5565b602082019050919050565b6000602082019050818103600083015261331a816132de565b9050919050565b600080fd5b600080fd5b600080fd5b6000808335600160200384360303811261334d5761334c613321565b5b80840192508235915067ffffffffffffffff82111561336f5761336e613326565b5b60208301925060018202360383131561338b5761338a61332b565b5b509250929050565b7f4e487b7100000000000000000000000000000000000000000000000000000000600052601160045260246000fd5b60006133cd82612a45565b91506133d883612a45565b9250828210156133eb576133ea613393565b5b828203905092915050565b600061340182612a45565b915061340c83612a45565b9250827fffffffffffffffffffffffffffffffffffffffffffffffffffffffffffffffff0382111561344157613440613393565b5b828201905092915050565b600081905092915050565b50565b600061346760008361344c565b915061347282613457565b600082019050919050565b60006134888261345a565b9150819050919050565b7f5472616e73666572206661696c65640000000000000000000000000000000000600082015250565b60006134c8600f83612995565b91506134d382613492565b602082019050919050565b600060208201905081810360008301526134f7816134bb565b9050919050565b7f4552433732313a2063616c6c6572206973206e6f7420746f6b656e206f776e6560008201527f72206e6f7220617070726f766564000000000000000000000000000000000000602082015250565b600061355a602e83612995565b9150613565826134fe565b604082019050919050565b600060208201905081810360008301526135898161354d565b9050919050565b7f4552433732313a20696e76616c696420746f6b656e2049440000000000000000600082015250565b60006135c6601883612995565b91506135d182613590565b602082019050919050565b600060208201905081810360008301526135f5816135b9565b9050919050565b7f4552433732313a2061646472657373207a65726f206973206e6f74206120766160008201527f6c6964206f776e65720000000000000000000000000000000000000000000000602082015250565b6000613658602983612995565b9150613663826135fc565b604082019050919050565b600060208201905081810360008301526136878161364b565b9050919050565b600081905092915050565b60006136a48261298a565b6136ae818561368e565b93506136be8185602086016129a6565b80840191505092915050565b60006136d68285613699565b91506136e28284613699565b91508190509392505050565b7f506f6c696379206f6e6c7920616c6c6f7773206c617a79206d696e74696e6700600082015250565b6000613724601f83612995565b915061372f826136ee565b602082019050919050565b6000602082019050818103600083015261375381613717565b9050919050565b7f4f776e61626c653a206e6577206f776e657220697320746865207a65726f206160008201527f6464726573730000000000000000000000000000000000000000000000000000602082015250565b60006137b6602683612995565b91506137c18261375a565b604082019050919050565b600060208201905081810360008301526137e5816137a9565b9050919050565b6000808335600160200384360303811261380957613808613321565b5b80840192508235915067ffffffffffffffff82111561382b5761382a613326565b5b6020830192506001820236038313156138475761384661332b565b5b509250929050565b7f4552433732313a207472616e736665722066726f6d20696e636f72726563742060008201527f6f776e6572000000000000000000000000000000000000000000000000000000602082015250565b60006138ab602583612995565b91506138b68261384f565b604082019050919050565b600060208201905081810360008301526138da8161389e565b9050919050565b7f4552433732313a207472616e7366657220746f20746865207a65726f2061646460008201527f7265737300000000000000000000000000000000000000000000000000000000602082015250565b600061393d602483612995565b9150613948826138e1565b604082019050919050565b6000602082019050818103600083015261396c81613930565b9050919050565b600061397e82612a45565b915061398983612a45565b9250817fffffffffffffffffffffffffffffffffffffffffffffffffffffffffffffffff04831182151516156139c2576139c1613393565b5b828202905092915050565b7f4e487b7100000000000000000000000000000000000000000000000000000000600052601260045260246000fd5b6000613a0782612a45565b9150613a1283612a45565b925082613a2257613a216139cd565b5b828204905092915050565b7f4f776e61626c653a2063616c6c6572206973206e6f7420746865206f776e6572600082015250565b6000613a63602083612995565b9150613a6e82613a2d565b602082019050919050565b60006020820190508181036000830152613a9281613a56565b9050919050565b7f4552433732313a20617070726f766520746f2063616c6c657200000000000000600082015250565b6000613acf601983612995565b9150613ada82613a99565b602082019050919050565b60006020820190508181036000830152613afe81613ac2565b9050919050565b7f4552433732313a207472616e7366657220746f206e6f6e20455243373231526560008201527f63656976657220696d706c656d656e7465720000000000000000000000000000602082015250565b6000613b61603283612995565b9150613b6c82613b05565b604082019050919050565b60006020820190508181036000830152613b9081613b54565b9050919050565b6000613ba3838561344c565b9350613bb0838584612e30565b82840190509392505050565b6000613bc9828486613b97565b91508190509392505050565b6000819050919050565b613be881613bd5565b82525050565b6000608082019050613c036000830187613bdf565b613c106020830186612ada565b613c1d6040830185612bf0565b613c2a6060830184613bdf565b95945050505050565b7f4552433732313a206d696e7420746f20746865207a65726f2061646472657373600082015250565b6000613c69602083612995565b9150613c7482613c33565b602082019050919050565b60006020820190508181036000830152613c9881613c5c565b9050919050565b7f4552433732313a20746f6b656e20616c7265616479206d696e74656400000000600082015250565b6000613cd5601c83612995565b9150613ce082613c9f565b602082019050919050565b60006020820190508181036000830152613d0481613cc8565b9050919050565b7f45524337323155524953746f726167653a2055524920736574206f66206e6f6e60008201527f6578697374656e7420746f6b656e000000000000000000000000000000000000602082015250565b6000613d67602e83612995565b9150613d7282613d0b565b604082019050919050565b60006020820190508181036000830152613d9681613d5a565b9050919050565b600081519050919050565b600082825260208201905092915050565b6000613dc482613d9d565b613dce8185613da8565b9350613dde8185602086016129a6565b613de7816129d9565b840191505092915050565b6000608082019050613e076000830187612ada565b613e146020830186612ada565b613e216040830185612bf0565b8181036060830152613e338184613db9565b905095945050505050565b600081519050613e4d816128fb565b92915050565b600060208284031215613e6957613e686128c5565b5b6000613e7784828501613e3e565b91505092915050565b6000613e8b82612a45565b91507fffffffffffffffffffffffffffffffffffffffffffffffffffffffffffffffff821415613ebe57613ebd613393565b5b600182019050919050565b6000613ed482612a45565b9150613edf83612a45565b925082613eef57613eee6139cd565b5b828206905092915050565b7f4e487b7100000000000000000000000000000000000000000000000000000000600052603260045260246000fd5b7f45434453413a20696e76616c6964207369676e61747572650000000000000000600082015250565b6000613f5f601883612995565b9150613f6a82613f29565b602082019050919050565b60006020820190508181036000830152613f8e81613f52565b9050919050565b7f45434453413a20696e76616c6964207369676e6174757265206c656e67746800600082015250565b6000613fcb601f83612995565b9150613fd682613f95565b602082019050919050565b60006020820190508181036000830152613ffa81613fbe565b9050919050565b7f45434453413a20696e76616c6964207369676e6174757265202773272076616c60008201527f7565000000000000000000000000000000000000000000000000000000000000602082015250565b600061405d602283612995565b915061406882614001565b604082019050919050565b6000602082019050818103600083015261408c81614050565b9050919050565b7f45434453413a20696e76616c6964207369676e6174757265202776272076616c60008201527f7565000000000000000000000000000000000000000000000000000000000000602082015250565b60006140ef602283612995565b91506140fa82614093565b604082019050919050565b6000602082019050818103600083015261411e816140e2565b9050919050565b7f1901000000000000000000000000000000000000000000000000000000000000600082015250565b600061415b60028361368e565b915061416682614125565b600282019050919050565b6000819050919050565b61418c61418782613bd5565b614171565b82525050565b600061419d8261414e565b91506141a9828561417b565b6020820191506141b9828461417b565b6020820191508190509392505050565b600060ff82169050919050565b6141df816141c9565b82525050565b60006080820190506141fa6000830187613bdf565b61420760208301866141d6565b6142146040830185613bdf565b6142216060830184613bdf565b95945050505050565b600060a08201905061423f6000830188613bdf565b61424c6020830187613bdf565b6142596040830186613bdf565b6142666060830185612bf0565b6142736080830184612ada565b969550505050505056fea26469706673582212202a047130dad0c21a11749577af12b844006b13d6ab8a87b201392ea3b09387ae64736f6c63430008090033",
  "linkReferences": {},
  "deployedLinkReferences": {}
}