{
  "_format": "hh-sol-artifact-1",
  "contractName": "ArtongNFT",
  "sourceName": "contracts/ArtongNFT.sol",
  "abi": [
    {
      "anonymous": false,
      "inputs": [
        {
          "indexed": true,
          "internalType": "address",
          "name": "owner",
          "type": "address"
        },
        {
          "indexed": true,
          "internalType": "address",
          "name": "approved",
          "type": "address"
        },
        {
          "indexed": true,
          "internalType": "uint256",
          "name": "tokenId",
          "type": "uint256"
        }
      ],
      "name": "Approval",
      "type": "event"
    },
    {
      "anonymous": false,
      "inputs": [
        {
          "indexed": true,
          "internalType": "address",
          "name": "owner",
          "type": "address"
        },
        {
          "indexed": true,
          "internalType": "address",
          "name": "operator",
          "type": "address"
        },
        {
          "indexed": false,
          "internalType": "bool",
          "name": "approved",
          "type": "bool"
        }
      ],
      "name": "ApprovalForAll",
      "type": "event"
    },
    {
      "anonymous": false,
      "inputs": [
        {
          "indexed": false,
          "internalType": "uint8",
          "name": "version",
          "type": "uint8"
        }
      ],
      "name": "Initialized",
      "type": "event"
    },
    {
      "anonymous": false,
      "inputs": [
        {
          "indexed": true,
          "internalType": "address",
          "name": "previousOwner",
          "type": "address"
        },
        {
          "indexed": true,
          "internalType": "address",
          "name": "newOwner",
          "type": "address"
        }
      ],
      "name": "OwnershipTransferred",
      "type": "event"
    },
    {
      "anonymous": false,
      "inputs": [
        {
          "indexed": false,
          "internalType": "address",
          "name": "account",
          "type": "address"
        }
      ],
      "name": "Paused",
      "type": "event"
    },
    {
      "anonymous": false,
      "inputs": [
        {
          "indexed": false,
          "internalType": "address",
          "name": "creator",
          "type": "address"
        },
        {
          "indexed": false,
          "internalType": "address",
          "name": "redeemer",
          "type": "address"
        },
        {
          "indexed": false,
          "internalType": "uint256",
          "name": "tokenId",
          "type": "uint256"
        },
        {
          "indexed": false,
          "internalType": "uint256",
          "name": "price",
          "type": "uint256"
        }
      ],
      "name": "Redeemed",
      "type": "event"
    },
    {
      "anonymous": false,
      "inputs": [
        {
          "indexed": false,
          "internalType": "address",
          "name": "minter",
          "type": "address"
        },
        {
          "indexed": false,
          "internalType": "uint256",
          "name": "tokenId",
          "type": "uint256"
        },
        {
          "indexed": false,
          "internalType": "string",
          "name": "tokenUri",
          "type": "string"
        },
        {
          "indexed": false,
          "internalType": "string",
          "name": "contentUri",
          "type": "string"
        },
        {
          "indexed": false,
          "internalType": "uint16",
          "name": "tokenRoyalty",
          "type": "uint16"
        }
      ],
      "name": "TokenMinted",
      "type": "event"
    },
    {
      "anonymous": false,
      "inputs": [
        {
          "indexed": true,
          "internalType": "address",
          "name": "from",
          "type": "address"
        },
        {
          "indexed": true,
          "internalType": "address",
          "name": "to",
          "type": "address"
        },
        {
          "indexed": true,
          "internalType": "uint256",
          "name": "tokenId",
          "type": "uint256"
        }
      ],
      "name": "Transfer",
      "type": "event"
    },
    {
      "anonymous": false,
      "inputs": [
        {
          "indexed": false,
          "internalType": "address",
          "name": "account",
          "type": "address"
        }
      ],
      "name": "Unpaused",
      "type": "event"
    },
    {
      "anonymous": false,
      "inputs": [
        {
          "indexed": false,
          "internalType": "enum Policy",
          "name": "policy",
          "type": "uint8"
        },
        {
          "indexed": false,
          "internalType": "address",
          "name": "updater",
          "type": "address"
        }
      ],
      "name": "UpdatePolicy",
      "type": "event"
    },
    {
      "inputs": [
        {
          "internalType": "address",
          "name": "to",
          "type": "address"
        },
        {
          "internalType": "uint256",
          "name": "tokenId",
          "type": "uint256"
        }
      ],
      "name": "approve",
      "outputs": [],
      "stateMutability": "nonpayable",
      "type": "function"
    },
    {
      "inputs": [
        {
          "internalType": "address",
          "name": "owner",
          "type": "address"
        }
      ],
      "name": "balanceOf",
      "outputs": [
        {
          "internalType": "uint256",
          "name": "",
          "type": "uint256"
        }
      ],
      "stateMutability": "view",
      "type": "function"
    },
    {
      "inputs": [
        {
          "internalType": "uint256",
          "name": "tokenId",
          "type": "uint256"
        }
      ],
      "name": "burn",
      "outputs": [],
      "stateMutability": "nonpayable",
      "type": "function"
    },
    {
      "inputs": [],
      "name": "feeReceipient",
      "outputs": [
        {
          "internalType": "address payable",
          "name": "",
          "type": "address"
        }
      ],
      "stateMutability": "view",
      "type": "function"
    },
    {
      "inputs": [
        {
          "internalType": "uint256",
          "name": "tokenId",
          "type": "uint256"
        }
      ],
      "name": "getApproved",
      "outputs": [
        {
          "internalType": "address",
          "name": "",
          "type": "address"
        }
      ],
      "stateMutability": "view",
      "type": "function"
    },
    {
      "inputs": [],
      "name": "getChainID",
      "outputs": [
        {
          "internalType": "uint256",
          "name": "",
          "type": "uint256"
        }
      ],
      "stateMutability": "view",
      "type": "function"
    },
    {
      "inputs": [
        {
          "internalType": "string",
          "name": "_name",
          "type": "string"
        },
        {
          "internalType": "string",
          "name": "_symbol",
          "type": "string"
        },
        {
          "internalType": "address",
          "name": "_marketplace",
          "type": "address"
        },
        {
          "internalType": "uint16",
          "name": "_platformFee",
          "type": "uint16"
        },
        {
          "internalType": "address payable",
          "name": "_feeReceipient",
          "type": "address"
        },
        {
          "internalType": "uint256",
          "name": "_maxAmount",
          "type": "uint256"
        },
        {
          "internalType": "enum Policy",
          "name": "_policy",
          "type": "uint8"
        },
        {
          "internalType": "address",
          "name": "newOwner",
          "type": "address"
        }
      ],
      "name": "initialize",
      "outputs": [],
      "stateMutability": "nonpayable",
      "type": "function"
    },
    {
      "inputs": [
        {
          "internalType": "address",
          "name": "owner",
          "type": "address"
        },
        {
          "internalType": "address",
          "name": "operator",
          "type": "address"
        }
      ],
      "name": "isApprovedForAll",
      "outputs": [
        {
          "internalType": "bool",
          "name": "",
          "type": "bool"
        }
      ],
      "stateMutability": "view",
      "type": "function"
    },
    {
      "inputs": [],
      "name": "marketplace",
      "outputs": [
        {
          "internalType": "address",
          "name": "",
          "type": "address"
        }
      ],
      "stateMutability": "view",
      "type": "function"
    },
    {
      "inputs": [],
      "name": "maxAmount",
      "outputs": [
        {
          "internalType": "uint256",
          "name": "",
          "type": "uint256"
        }
      ],
      "stateMutability": "view",
      "type": "function"
    },
    {
      "inputs": [
        {
          "internalType": "address",
          "name": "_to",
          "type": "address"
        },
        {
          "internalType": "string",
          "name": "_tokenUri",
          "type": "string"
        },
        {
          "internalType": "string",
          "name": "_contentUri",
          "type": "string"
        },
        {
          "internalType": "uint16",
          "name": "_tokenRoyalty",
          "type": "uint16"
        }
      ],
      "name": "mint",
      "outputs": [
        {
          "internalType": "uint256",
          "name": "",
          "type": "uint256"
        }
      ],
      "stateMutability": "nonpayable",
      "type": "function"
    },
    {
      "inputs": [],
      "name": "name",
      "outputs": [
        {
          "internalType": "string",
          "name": "",
          "type": "string"
        }
      ],
      "stateMutability": "view",
      "type": "function"
    },
    {
      "inputs": [],
      "name": "owner",
      "outputs": [
        {
          "internalType": "address",
          "name": "",
          "type": "address"
        }
      ],
      "stateMutability": "view",
      "type": "function"
    },
    {
      "inputs": [
        {
          "internalType": "uint256",
          "name": "tokenId",
          "type": "uint256"
        }
      ],
      "name": "ownerOf",
      "outputs": [
        {
          "internalType": "address",
          "name": "",
          "type": "address"
        }
      ],
      "stateMutability": "view",
      "type": "function"
    },
    {
      "inputs": [],
      "name": "pause",
      "outputs": [],
      "stateMutability": "nonpayable",
      "type": "function"
    },
    {
      "inputs": [],
      "name": "paused",
      "outputs": [
        {
          "internalType": "bool",
          "name": "",
          "type": "bool"
        }
      ],
      "stateMutability": "view",
      "type": "function"
    },
    {
      "inputs": [],
      "name": "platformFee",
      "outputs": [
        {
          "internalType": "uint16",
          "name": "",
          "type": "uint16"
        }
      ],
      "stateMutability": "view",
      "type": "function"
    },
    {
      "inputs": [],
      "name": "policy",
      "outputs": [
        {
          "internalType": "enum Policy",
          "name": "",
          "type": "uint8"
        }
      ],
      "stateMutability": "view",
      "type": "function"
    },
    {
      "inputs": [
        {
          "internalType": "address",
          "name": "redeemer",
          "type": "address"
        },
        {
          "components": [
            {
              "internalType": "address",
              "name": "creator",
              "type": "address"
            },
            {
              "internalType": "uint256",
              "name": "minPrice",
              "type": "uint256"
            },
            {
              "internalType": "string",
              "name": "tokenUri",
              "type": "string"
            },
            {
              "internalType": "string",
              "name": "contentUri",
              "type": "string"
            },
            {
              "internalType": "uint16",
              "name": "royalty",
              "type": "uint16"
            },
            {
              "internalType": "bytes",
              "name": "signature",
              "type": "bytes"
            }
          ],
          "internalType": "struct ArtongNFT.NFTVoucher",
          "name": "voucher",
          "type": "tuple"
        }
      ],
      "name": "redeem",
      "outputs": [
        {
          "internalType": "uint256",
          "name": "",
          "type": "uint256"
        }
      ],
      "stateMutability": "payable",
      "type": "function"
    },
    {
      "inputs": [],
      "name": "renounceOwnership",
      "outputs": [],
      "stateMutability": "nonpayable",
      "type": "function"
    },
    {
      "inputs": [
        {
          "internalType": "address",
          "name": "from",
          "type": "address"
        },
        {
          "internalType": "address",
          "name": "to",
          "type": "address"
        },
        {
          "internalType": "uint256",
          "name": "tokenId",
          "type": "uint256"
        }
      ],
      "name": "safeTransferFrom",
      "outputs": [],
      "stateMutability": "nonpayable",
      "type": "function"
    },
    {
      "inputs": [
        {
          "internalType": "address",
          "name": "from",
          "type": "address"
        },
        {
          "internalType": "address",
          "name": "to",
          "type": "address"
        },
        {
          "internalType": "uint256",
          "name": "tokenId",
          "type": "uint256"
        },
        {
          "internalType": "bytes",
          "name": "data",
          "type": "bytes"
        }
      ],
      "name": "safeTransferFrom",
      "outputs": [],
      "stateMutability": "nonpayable",
      "type": "function"
    },
    {
      "inputs": [
        {
          "internalType": "address",
          "name": "operator",
          "type": "address"
        },
        {
          "internalType": "bool",
          "name": "approved",
          "type": "bool"
        }
      ],
      "name": "setApprovalForAll",
      "outputs": [],
      "stateMutability": "nonpayable",
      "type": "function"
    },
    {
      "inputs": [
        {
          "internalType": "enum Policy",
          "name": "_policy",
          "type": "uint8"
        }
      ],
      "name": "setPolicy",
      "outputs": [],
      "stateMutability": "nonpayable",
      "type": "function"
    },
    {
      "inputs": [
        {
          "internalType": "bytes4",
          "name": "interfaceId",
          "type": "bytes4"
        }
      ],
      "name": "supportsInterface",
      "outputs": [
        {
          "internalType": "bool",
          "name": "",
          "type": "bool"
        }
      ],
      "stateMutability": "view",
      "type": "function"
    },
    {
      "inputs": [],
      "name": "symbol",
      "outputs": [
        {
          "internalType": "string",
          "name": "",
          "type": "string"
        }
      ],
      "stateMutability": "view",
      "type": "function"
    },
    {
      "inputs": [
        {
          "internalType": "uint256",
          "name": "index",
          "type": "uint256"
        }
      ],
      "name": "tokenByIndex",
      "outputs": [
        {
          "internalType": "uint256",
          "name": "",
          "type": "uint256"
        }
      ],
      "stateMutability": "view",
      "type": "function"
    },
    {
      "inputs": [
        {
          "internalType": "address",
          "name": "owner",
          "type": "address"
        },
        {
          "internalType": "uint256",
          "name": "index",
          "type": "uint256"
        }
      ],
      "name": "tokenOfOwnerByIndex",
      "outputs": [
        {
          "internalType": "uint256",
          "name": "",
          "type": "uint256"
        }
      ],
      "stateMutability": "view",
      "type": "function"
    },
    {
      "inputs": [
        {
          "internalType": "uint256",
          "name": "tokenId",
          "type": "uint256"
        }
      ],
      "name": "tokenURI",
      "outputs": [
        {
          "internalType": "string",
          "name": "",
          "type": "string"
        }
      ],
      "stateMutability": "view",
      "type": "function"
    },
    {
      "inputs": [],
      "name": "totalSupply",
      "outputs": [
        {
          "internalType": "uint256",
          "name": "",
          "type": "uint256"
        }
      ],
      "stateMutability": "view",
      "type": "function"
    },
    {
      "inputs": [
        {
          "internalType": "address",
          "name": "from",
          "type": "address"
        },
        {
          "internalType": "address",
          "name": "to",
          "type": "address"
        },
        {
          "internalType": "uint256",
          "name": "tokenId",
          "type": "uint256"
        }
      ],
      "name": "transferFrom",
      "outputs": [],
      "stateMutability": "nonpayable",
      "type": "function"
    },
    {
      "inputs": [
        {
          "internalType": "address",
          "name": "newOwner",
          "type": "address"
        }
      ],
      "name": "transferOwnership",
      "outputs": [],
      "stateMutability": "nonpayable",
      "type": "function"
    },
    {
      "inputs": [],
      "name": "unpause",
      "outputs": [],
      "stateMutability": "nonpayable",
      "type": "function"
    }
  ],
  "bytecode": "0x608060405234801561001057600080fd5b506136b8806100206000396000f3fe6080604052600436106101ee5760003560e01c80635c975abb1161010d57806395d89b41116100a0578063b88d4fde1161006f578063b88d4fde1461057e578063c87b56dd1461059e578063e985e9c5146105be578063f2fde38b146105de578063fd6552e1146105fe57600080fd5b806395d89b4114610503578063a22cb46514610518578063abc8c7af14610538578063add12d271461055e57600080fd5b8063715018a6116100dc578063715018a61461049a57806374bce0bc146104af5780638456cb59146104cf5780638da5cb5b146104e457600080fd5b80635c975abb1461042a5780635f48f393146104435780636352211e1461045a57806370a082311461047a57600080fd5b806326232a2e1161018557806342842e0e1161015457806342842e0e146103b757806342966c68146103d75780634f6ccce7146103f7578063564b81ef1461041757600080fd5b806326232a2e1461032b5780632f745c59146103615780633740ebb3146103815780633f4ba83a146103a257600080fd5b8063081812fc116101c1578063081812fc14610294578063095ea7b3146102cc57806318160ddd146102ec57806323b872dd1461030b57600080fd5b806301ffc9a7146101f3578063022d8593146102285780630505c8c91461024a57806306fdde0314610272575b600080fd5b3480156101ff57600080fd5b5061021361020e366004612d80565b610611565b60405190151581526020015b60405180910390f35b34801561023457600080fd5b50610248610243366004612e84565b610622565b005b34801561025657600080fd5b506101c7546102659060ff1681565b60405161021f9190612f85565b34801561027e57600080fd5b506102876108a4565b60405161021f9190612feb565b3480156102a057600080fd5b506102b46102af366004612ffe565b610936565b6040516001600160a01b03909116815260200161021f565b3480156102d857600080fd5b506102486102e7366004613017565b61095d565b3480156102f857600080fd5b5060cb545b60405190815260200161021f565b34801561031757600080fd5b50610248610326366004613043565b610a73565b34801561033757600080fd5b506101c75461034e90600160a81b900461ffff1681565b60405161ffff909116815260200161021f565b34801561036d57600080fd5b506102fd61037c366004613017565b610aa5565b34801561038d57600080fd5b506101c8546102b4906001600160a01b031681565b3480156103ae57600080fd5b50610248610b3b565b3480156103c357600080fd5b506102486103d2366004613043565b610b8c565b3480156103e357600080fd5b506102486103f2366004612ffe565b610ba7565b34801561040357600080fd5b506102fd610412366004612ffe565b610bd8565b34801561042357600080fd5b50466102fd565b34801561043657600080fd5b5061012d5460ff16610213565b34801561044f57600080fd5b506102fd6101c65481565b34801561046657600080fd5b506102b4610475366004612ffe565b610c6b565b34801561048657600080fd5b506102fd610495366004613084565b610ccb565b3480156104a657600080fd5b50610248610d51565b3480156104bb57600080fd5b506102486104ca3660046130a1565b610d63565b3480156104db57600080fd5b50610248610dcb565b3480156104f057600080fd5b5061015f546001600160a01b03166102b4565b34801561050f57600080fd5b50610287610e1a565b34801561052457600080fd5b506102486105333660046130bc565b610e29565b34801561054457600080fd5b506101c7546102b49061010090046001600160a01b031681565b34801561056a57600080fd5b506102fd61057936600461313c565b610e38565b34801561058a57600080fd5b506102486105993660046131ce565b610ec2565b3480156105aa57600080fd5b506102876105b9366004612ffe565b610efa565b3480156105ca57600080fd5b506102136105d936600461324e565b610f05565b3480156105ea57600080fd5b506102486105f9366004613084565b610f5d565b6102fd61060c36600461327c565b610fd3565b600061061c82611286565b92915050565b600054610100900460ff16158080156106425750600054600160ff909116105b8061065c5750303b15801561065c575060005460ff166001145b6106c45760405162461bcd60e51b815260206004820152602e60248201527f496e697469616c697a61626c653a20636f6e747261637420697320616c72656160448201526d191e481a5b9a5d1a585b1a5e995960921b60648201526084015b60405180910390fd5b6000805460ff1916600117905580156106e7576000805461ff0019166101001790555b600089511161072b5760405162461bcd60e51b815260206004820152601060248201526f13985b59481a5cc81c995c5d5a5c995960821b60448201526064016106bb565b60008851116107715760405162461bcd60e51b815260206004820152601260248201527114de5b589bdb081a5cc81c995c5d5a5c995960721b60448201526064016106bb565b61077b89896112ab565b6107c76040518060400160405280601181526020017020b93a37b733a7232a16ab37bab1b432b960791b815250604051806040016040528060018152602001603160f81b8152506112dc565b6107cf61130d565b6107d882610f5d565b6101c78054610100600160b81b0319166101006001600160a01b038a81169190910261ffff60a81b191691909117600160a81b61ffff8a1602178083556101c880546001600160a01b031916928916929092179091556101c686905584919060ff19166001838181111561084e5761084e612f4d565b02179055508015610899576000805461ff0019169055604051600181527f7f26b83ff96e1f2b6a682f133852f6798a09c465da95921460cefb38474024989060200160405180910390a15b505050505050505050565b6060606580546108b3906132c8565b80601f01602080910402602001604051908101604052809291908181526020018280546108df906132c8565b801561092c5780601f106109015761010080835404028352916020019161092c565b820191906000526020600020905b81548152906001019060200180831161090f57829003601f168201915b5050505050905090565b60006109418261133c565b506000908152606960205260409020546001600160a01b031690565b600061096882610c6b565b9050806001600160a01b0316836001600160a01b031614156109d65760405162461bcd60e51b815260206004820152602160248201527f4552433732313a20617070726f76616c20746f2063757272656e74206f776e656044820152603960f91b60648201526084016106bb565b336001600160a01b03821614806109f257506109f28133610f05565b610a645760405162461bcd60e51b815260206004820152603d60248201527f4552433732313a20617070726f76652063616c6c6572206973206e6f7420746f60448201527f6b656e206f776e6572206f7220617070726f76656420666f7220616c6c00000060648201526084016106bb565b610a6e838361139b565b505050565b610a7e335b82611409565b610a9a5760405162461bcd60e51b81526004016106bb90613303565b610a6e8383836114ba565b6000610ab083610ccb565b8210610b125760405162461bcd60e51b815260206004820152602b60248201527f455243373231456e756d657261626c653a206f776e657220696e646578206f7560448201526a74206f6620626f756e647360a81b60648201526084016106bb565b506001600160a01b0391909116600090815260c960209081526040808320938352929052205490565b610b453333610f05565b610b825760405162461bcd60e51b815260206004820152600e60248201526d139bdd08185d5d1a1bdc9a5e995960921b60448201526064016106bb565b610b8a61162b565b565b610a6e83838360405180602001604052806000815250610ec2565b610bb033610a78565b610bcc5760405162461bcd60e51b81526004016106bb90613303565b610bd58161167e565b50565b6000610be360cb5490565b8210610c465760405162461bcd60e51b815260206004820152602c60248201527f455243373231456e756d657261626c653a20676c6f62616c20696e646578206f60448201526b7574206f6620626f756e647360a01b60648201526084016106bb565b60cb8281548110610c5957610c59613350565b90600052602060002001549050919050565b6000818152606760205260408120546001600160a01b03168061061c5760405162461bcd60e51b8152602060048201526018602482015277115490cdcc8c4e881a5b9d985b1a59081d1bdad95b88125160421b60448201526064016106bb565b60006001600160a01b038216610d355760405162461bcd60e51b815260206004820152602960248201527f4552433732313a2061646472657373207a65726f206973206e6f7420612076616044820152683634b21037bbb732b960b91b60648201526084016106bb565b506001600160a01b031660009081526068602052604090205490565b610d59611687565b610b8a60006116e2565b610d6b611687565b7f2a84386076f08e18b35c0fd50fee06abe5278e5ef64da9b565736ba7e93726998133604051610d9c929190613366565b60405180910390a16101c7805482919060ff191660018381811115610dc357610dc3612f4d565b021790555050565b610dd53333610f05565b610e125760405162461bcd60e51b815260206004820152600e60248201526d139bdd08185d5d1a1bdc9a5e995960921b60448201526064016106bb565b610b8a611735565b6060606680546108b3906132c8565b610e34338383611773565b5050565b6000610e42611842565b60006101c75460ff166001811115610e5c57610e5c612f4d565b14610ea95760405162461bcd60e51b815260206004820152601f60248201527f506f6c696379206f6e6c7920616c6c6f7773206c617a79206d696e74696e670060448201526064016106bb565b610eb7878787878787611889565b979650505050505050565b610ecc3383611409565b610ee85760405162461bcd60e51b81526004016106bb90613303565b610ef484848484611a90565b50505050565b606061061c82611ac3565b6101c7546000906001600160a01b03838116610100909204161415610f2c5750600161061c565b6001600160a01b038084166000908152606a602090815260408083209386168352929052205460ff165b9392505050565b610f65611687565b6001600160a01b038116610fca5760405162461bcd60e51b815260206004820152602660248201527f4f776e61626c653a206e6577206f776e657220697320746865207a65726f206160448201526564647265737360d01b60648201526084016106bb565b610bd5816116e2565b6000610fdd611842565b6000610fe883611bcc565b9050610ff76020840184613084565b6001600160a01b0316816001600160a01b03161461104b5760405162461bcd60e51b815260206004820152601160248201527014da59db985d1d5c99481a5b9d985b1a59607a1b60448201526064016106bb565b826020013534101561109f5760405162461bcd60e51b815260206004820152601c60248201527f496e73756666696369656e742066756e647320746f2072656465656d0000000060448201526064016106bb565b60006110a9611c25565b6101c8546040519192506000916001600160a01b039091169083908381818185875af1925050503d80600081146110fc576040519150601f19603f3d011682016040523d82523d6000602084013e611101565b606091505b50509050806111445760405162461bcd60e51b815260206004820152600f60248201526e151c985b9cd9995c8819985a5b1959608a1b60448201526064016106bb565b60006111856111566020880188613084565b611163604089018961338c565b61117060608b018b61338c565b61118060a08d0160808e016133d3565b611889565b90507f5cdf07ad0fc222442720b108e3ed4c4640f0fadc2ab2253e66f259a0fea834806111b56020880188613084565b604080516001600160a01b039283168152918a16602083810191909152908201849052880135606082015260800160405180910390a16112026111fb6020880188613084565b88836114ba565b6101c75461010090046001600160a01b031663e6d07de96112238534613404565b6040516001600160e01b031960e084901b1681526001600160a01b03881660048201526024016000604051808303818588803b15801561126257600080fd5b505af1158015611276573d6000803e3d6000fd5b50939a9950505050505050505050565b60006001600160e01b0319821663780e9d6360e01b148061061c575061061c82611c54565b600054610100900460ff166112d25760405162461bcd60e51b81526004016106bb9061341b565b610e348282611ca4565b600054610100900460ff166113035760405162461bcd60e51b81526004016106bb9061341b565b610e348282611cf2565b600054610100900460ff166113345760405162461bcd60e51b81526004016106bb9061341b565b610b8a611d35565b6000818152606760205260409020546001600160a01b0316610bd55760405162461bcd60e51b8152602060048201526018602482015277115490cdcc8c4e881a5b9d985b1a59081d1bdad95b88125160421b60448201526064016106bb565b600081815260696020526040902080546001600160a01b0319166001600160a01b03841690811790915581906113d082610c6b565b6001600160a01b03167f8c5be1e5ebec7d5bd14f71427d1e84f3dd0314c0f7b2291e5b200ac8c7c3b92560405160405180910390a45050565b6000818152606760205260408120546001600160a01b03166114825760405162461bcd60e51b815260206004820152602c60248201527f4552433732313a206f70657261746f7220717565727920666f72206e6f6e657860448201526b34b9ba32b73a103a37b5b2b760a11b60648201526084016106bb565b600061148d83610c6b565b90506114998185610f05565b156114a857600191505061061c565b6114b28484611d65565b949350505050565b826001600160a01b03166114cd82610c6b565b6001600160a01b0316146114f35760405162461bcd60e51b81526004016106bb90613466565b6001600160a01b0382166115555760405162461bcd60e51b8152602060048201526024808201527f4552433732313a207472616e7366657220746f20746865207a65726f206164646044820152637265737360e01b60648201526084016106bb565b6115628383836001611dc3565b826001600160a01b031661157582610c6b565b6001600160a01b03161461159b5760405162461bcd60e51b81526004016106bb90613466565b600081815260696020908152604080832080546001600160a01b03199081169091556001600160a01b0387811680865260688552838620805460001901905590871680865283862080546001019055868652606790945282852080549092168417909155905184937fddf252ad1be2c89b69c2b068fc378daa952ba7f163c4a11628f55a4df523b3ef91a4505050565b611633611dcf565b61012d805460ff191690557f5db9ee0a495bf2e6ff9c91a7834c1ba4fdd244a5e8aa4e537bd38aeae4b073aa335b6040516001600160a01b03909116815260200160405180910390a1565b610bd581611e19565b61015f546001600160a01b03163314610b8a5760405162461bcd60e51b815260206004820181905260248201527f4f776e61626c653a2063616c6c6572206973206e6f7420746865206f776e657260448201526064016106bb565b61015f80546001600160a01b038381166001600160a01b0319831681179093556040519116919082907f8be0079c531659141344cd1fd0a4f28419497f9722a3daafe3b4186f6b6457e090600090a35050565b61173d611842565b61012d805460ff191660011790557f62e78cea01bee320cd4e420270b5ea74000d11b0c9f74754ebdbfc544b05a2586116613390565b816001600160a01b0316836001600160a01b031614156117d55760405162461bcd60e51b815260206004820152601960248201527f4552433732313a20617070726f766520746f2063616c6c65720000000000000060448201526064016106bb565b6001600160a01b038381166000818152606a6020908152604080832094871680845294825291829020805460ff191686151590811790915591519182527f17307eab39ab6107e8899845ad3d59bd9653f200f220920489ca2b5937696c31910160405180910390a3505050565b61012d5460ff1615610b8a5760405162461bcd60e51b815260206004820152601060248201526f14185d5cd8589b194e881c185d5cd95960821b60448201526064016106bb565b6101c654600090156118ea576101c5546101c654116118ea5760405162461bcd60e51b815260206004820152601e60248201527f4d6178696d756d206e756d626572206f66204e4654732072656163686564000060448201526064016106bb565b6118f96101c580546001019055565b60006119056101c55490565b6101c7546040516313408a3960e21b81526001600160a01b038b811660048301523060248301526044820184905292935061010090910490911690634d0228e490606401600060405180830381600087803b15801561196357600080fd5b505af1158015611977573d6000803e3d6000fd5b50506101c754604051636f85f09f60e01b81526001600160a01b038c811660048301523060248301526044820186905261ffff881660648301526101009092049091169250636f85f09f9150608401600060405180830381600087803b1580156119e057600080fd5b505af11580156119f4573d6000803e3d6000fd5b50505050611a028882611e59565b611a428188888080601f016020809104026020016040519081016040528093929190818152602001838380828437600092019190915250611ff292505050565b7f10581f4dd4d2326b0097177f295132f868f1d3e7c27b92a1461fc208ea393fa988828989898989604051611a7d97969594939291906134d4565b60405180910390a1979650505050505050565b611a9b8484846114ba565b611aa78484848461208c565b610ef45760405162461bcd60e51b81526004016106bb90613528565b6060611ace8261133c565b60008281526097602052604081208054611ae7906132c8565b80601f0160208091040260200160405190810160405280929190818152602001828054611b13906132c8565b8015611b605780601f10611b3557610100808354040283529160200191611b60565b820191906000526020600020905b815481529060010190602001808311611b4357829003601f168201915b505050505090506000611b7e60408051602081019091526000815290565b9050805160001415611b91575092915050565b815115611bc3578082604051602001611bab92919061357a565b60405160208183030381529060405292505050919050565b6114b284612199565b600080611bd88361220c565b9050610f5681611beb60a086018661338c565b8080601f0160208091040260200160405190810160405280939291908181526020018383808284376000920191909152506122f392505050565b6101c75460009061271090611c4590600160a81b900461ffff16346135a9565b611c4f91906135c8565b905090565b60006001600160e01b031982166380ac58cd60e01b1480611c8557506001600160e01b03198216635b5e139f60e01b145b8061061c57506301ffc9a760e01b6001600160e01b031983161461061c565b600054610100900460ff16611ccb5760405162461bcd60e51b81526004016106bb9061341b565b8151611cde906065906020850190612c9b565b508051610a6e906066906020840190612c9b565b600054610100900460ff16611d195760405162461bcd60e51b81526004016106bb9061341b565b8151602092830120815191909201206101919190915561019255565b600054610100900460ff16611d5c5760405162461bcd60e51b81526004016106bb9061341b565b610b8a336116e2565b600080611d7183610c6b565b9050806001600160a01b0316846001600160a01b03161480611d985750611d988185610f05565b806114b25750836001600160a01b0316611db184610936565b6001600160a01b031614949350505050565b610ef484848484612317565b61012d5460ff16610b8a5760405162461bcd60e51b815260206004820152601460248201527314185d5cd8589b194e881b9bdd081c185d5cd95960621b60448201526064016106bb565b611e2281612457565b60008181526097602052604090208054611e3b906132c8565b159050610bd5576000818152609760205260408120610bd591612d1f565b6001600160a01b038216611eaf5760405162461bcd60e51b815260206004820181905260248201527f4552433732313a206d696e7420746f20746865207a65726f206164647265737360448201526064016106bb565b6000818152606760205260409020546001600160a01b031615611f145760405162461bcd60e51b815260206004820152601c60248201527f4552433732313a20746f6b656e20616c7265616479206d696e7465640000000060448201526064016106bb565b611f22600083836001611dc3565b6000818152606760205260409020546001600160a01b031615611f875760405162461bcd60e51b815260206004820152601c60248201527f4552433732313a20746f6b656e20616c7265616479206d696e7465640000000060448201526064016106bb565b6001600160a01b038216600081815260686020908152604080832080546001019055848352606790915280822080546001600160a01b0319168417905551839291907fddf252ad1be2c89b69c2b068fc378daa952ba7f163c4a11628f55a4df523b3ef908290a45050565b6000828152606760205260409020546001600160a01b031661206d5760405162461bcd60e51b815260206004820152602e60248201527f45524337323155524953746f726167653a2055524920736574206f66206e6f6e60448201526d32bc34b9ba32b73a103a37b5b2b760911b60648201526084016106bb565b60008281526097602090815260409091208251610a6e92840190612c9b565b60006001600160a01b0384163b1561218e57604051630a85bd0160e11b81526001600160a01b0385169063150b7a02906120d09033908990889088906004016135ea565b602060405180830381600087803b1580156120ea57600080fd5b505af192505050801561211a575060408051601f3d908101601f1916820190925261211791810190613627565b60015b612174573d808015612148576040519150601f19603f3d011682016040523d82523d6000602084013e61214d565b606091505b50805161216c5760405162461bcd60e51b81526004016106bb90613528565b805181602001fd5b6001600160e01b031916630a85bd0160e11b1490506114b2565b506001949350505050565b60606121a48261133c565b60006121bb60408051602081019091526000815290565b905060008151116121db5760405180602001604052806000815250610f56565b806121e5846124fa565b6040516020016121f692919061357a565b6040516020818303038152906040529392505050565b600061061c7f813417fe99aa747cb3b64f77337135438beddc5c90ad64dbaaab5ee0f6a662d061223f6020850185613084565b6020850135612251604087018761338c565b60405161225f929190613644565b604051908190039020612275606088018861338c565b604051612283929190613644565b60405190819003902061229c60a0890160808a016133d3565b6040805160208101979097526001600160a01b03909516948601949094526060850192909252608084015260a083015261ffff1660c082015260e0016040516020818303038152906040528051906020012061258f565b600080600061230285856125dd565b9150915061230f8161264d565b509392505050565b61232384848484612808565b60018111156123925760405162461bcd60e51b815260206004820152603560248201527f455243373231456e756d657261626c653a20636f6e7365637574697665207472604482015274185b9cd9995c9cc81b9bdd081cdd5c1c1bdc9d1959605a1b60648201526084016106bb565b816001600160a01b0385166123ee576123e98160cb8054600083815260cc60205260408120829055600182018355919091527fa7ce836d032b2bf62b7e2097a8e0a6d8aeb35405ad15271e96d3b0188a1d06fb0155565b612411565b836001600160a01b0316856001600160a01b031614612411576124118582612890565b6001600160a01b03841661242d576124288161292d565b612450565b846001600160a01b0316846001600160a01b0316146124505761245084826129dc565b5050505050565b600061246282610c6b565b9050612472816000846001611dc3565b61247b82610c6b565b600083815260696020908152604080832080546001600160a01b03199081169091556001600160a01b0385168085526068845282852080546000190190558785526067909352818420805490911690555192935084927fddf252ad1be2c89b69c2b068fc378daa952ba7f163c4a11628f55a4df523b3ef908390a45050565b6060600061250783612a20565b600101905060008167ffffffffffffffff81111561252757612527612d9d565b6040519080825280601f01601f191660200182016040528015612551576020820181803683370190505b5090508181016020015b600019016f181899199a1a9b1b9c1cb0b131b232b360811b600a86061a8153600a850494508461258a5761230f565b61255b565b600061061c61259c612af8565b8360405161190160f01b6020820152602281018390526042810182905260009060620160405160208183030381529060405280519060200120905092915050565b6000808251604114156126145760208301516040840151606085015160001a61260887828585612b75565b94509450505050612646565b82516040141561263e5760208301516040840151612633868383612c62565b935093505050612646565b506000905060025b9250929050565b600081600481111561266157612661612f4d565b141561266a5750565b600181600481111561267e5761267e612f4d565b14156126cc5760405162461bcd60e51b815260206004820152601860248201527f45434453413a20696e76616c6964207369676e6174757265000000000000000060448201526064016106bb565b60028160048111156126e0576126e0612f4d565b141561272e5760405162461bcd60e51b815260206004820152601f60248201527f45434453413a20696e76616c6964207369676e6174757265206c656e6774680060448201526064016106bb565b600381600481111561274257612742612f4d565b141561279b5760405162461bcd60e51b815260206004820152602260248201527f45434453413a20696e76616c6964207369676e6174757265202773272076616c604482015261756560f01b60648201526084016106bb565b60048160048111156127af576127af612f4d565b1415610bd55760405162461bcd60e51b815260206004820152602260248201527f45434453413a20696e76616c6964207369676e6174757265202776272076616c604482015261756560f01b60648201526084016106bb565b6001811115610ef4576001600160a01b0384161561284e576001600160a01b03841660009081526068602052604081208054839290612848908490613404565b90915550505b6001600160a01b03831615610ef4576001600160a01b03831660009081526068602052604081208054839290612885908490613654565b909155505050505050565b6000600161289d84610ccb565b6128a79190613404565b600083815260ca60205260409020549091508082146128fa576001600160a01b038416600090815260c960209081526040808320858452825280832054848452818420819055835260ca90915290208190555b50600091825260ca602090815260408084208490556001600160a01b03909416835260c981528383209183525290812055565b60cb5460009061293f90600190613404565b600083815260cc602052604081205460cb805493945090928490811061296757612967613350565b906000526020600020015490508060cb838154811061298857612988613350565b600091825260208083209091019290925582815260cc909152604080822084905585825281205560cb8054806129c0576129c061366c565b6001900381819060005260206000200160009055905550505050565b60006129e783610ccb565b6001600160a01b03909316600090815260c960209081526040808320868452825280832085905593825260ca9052919091209190915550565b60008072184f03e93ff9f4daa797ed6e38ed64bf6a1f0160401b8310612a5f5772184f03e93ff9f4daa797ed6e38ed64bf6a1f0160401b830492506040015b6d04ee2d6d415b85acef81000000008310612a8b576d04ee2d6d415b85acef8100000000830492506020015b662386f26fc100008310612aa957662386f26fc10000830492506010015b6305f5e1008310612ac1576305f5e100830492506008015b6127108310612ad557612710830492506004015b60648310612ae7576064830492506002015b600a831061061c5760010192915050565b6000611c4f7f8b73c3c69bb8fe3d512ecc4cf759cc79239f7b179b0ffacaa9a75d522b39400f612b286101915490565b610192546040805160208101859052908101839052606081018290524660808201523060a082015260009060c0016040516020818303038152906040528051906020012090509392505050565b6000807f7fffffffffffffffffffffffffffffff5d576e7357a4501ddfe92f46681b20a0831115612bac5750600090506003612c59565b8460ff16601b14158015612bc457508460ff16601c14155b15612bd55750600090506004612c59565b6040805160008082526020820180845289905260ff881692820192909252606081018690526080810185905260019060a0016020604051602081039080840390855afa158015612c29573d6000803e3d6000fd5b5050604051601f1901519150506001600160a01b038116612c5257600060019250925050612c59565b9150600090505b94509492505050565b6000806001600160ff1b03831681612c7f60ff86901c601b613654565b9050612c8d87828885612b75565b935093505050935093915050565b828054612ca7906132c8565b90600052602060002090601f016020900481019282612cc95760008555612d0f565b82601f10612ce257805160ff1916838001178555612d0f565b82800160010185558215612d0f579182015b82811115612d0f578251825591602001919060010190612cf4565b50612d1b929150612d55565b5090565b508054612d2b906132c8565b6000825580601f10612d3b575050565b601f016020900490600052602060002090810190610bd591905b5b80821115612d1b5760008155600101612d56565b6001600160e01b031981168114610bd557600080fd5b600060208284031215612d9257600080fd5b8135610f5681612d6a565b634e487b7160e01b600052604160045260246000fd5b600067ffffffffffffffff80841115612dce57612dce612d9d565b604051601f8501601f19908116603f01168101908282118183101715612df657612df6612d9d565b81604052809350858152868686011115612e0f57600080fd5b858560208301376000602087830101525050509392505050565b600082601f830112612e3a57600080fd5b610f5683833560208501612db3565b6001600160a01b0381168114610bd557600080fd5b803561ffff81168114612e7057600080fd5b919050565b803560028110612e7057600080fd5b600080600080600080600080610100898b031215612ea157600080fd5b883567ffffffffffffffff80821115612eb957600080fd5b612ec58c838d01612e29565b995060208b0135915080821115612edb57600080fd5b50612ee88b828c01612e29565b9750506040890135612ef981612e49565b9550612f0760608a01612e5e565b94506080890135612f1781612e49565b935060a08901359250612f2c60c08a01612e75565b915060e0890135612f3c81612e49565b809150509295985092959890939650565b634e487b7160e01b600052602160045260246000fd5b60028110612f8157634e487b7160e01b600052602160045260246000fd5b9052565b6020810161061c8284612f63565b60005b83811015612fae578181015183820152602001612f96565b83811115610ef45750506000910152565b60008151808452612fd7816020860160208601612f93565b601f01601f19169290920160200192915050565b602081526000610f566020830184612fbf565b60006020828403121561301057600080fd5b5035919050565b6000806040838503121561302a57600080fd5b823561303581612e49565b946020939093013593505050565b60008060006060848603121561305857600080fd5b833561306381612e49565b9250602084013561307381612e49565b929592945050506040919091013590565b60006020828403121561309657600080fd5b8135610f5681612e49565b6000602082840312156130b357600080fd5b610f5682612e75565b600080604083850312156130cf57600080fd5b82356130da81612e49565b9150602083013580151581146130ef57600080fd5b809150509250929050565b60008083601f84011261310c57600080fd5b50813567ffffffffffffffff81111561312457600080fd5b60208301915083602082850101111561264657600080fd5b6000806000806000806080878903121561315557600080fd5b863561316081612e49565b9550602087013567ffffffffffffffff8082111561317d57600080fd5b6131898a838b016130fa565b909750955060408901359150808211156131a257600080fd5b506131af89828a016130fa565b90945092506131c2905060608801612e5e565b90509295509295509295565b600080600080608085870312156131e457600080fd5b84356131ef81612e49565b935060208501356131ff81612e49565b925060408501359150606085013567ffffffffffffffff81111561322257600080fd5b8501601f8101871361323357600080fd5b61324287823560208401612db3565b91505092959194509250565b6000806040838503121561326157600080fd5b823561326c81612e49565b915060208301356130ef81612e49565b6000806040838503121561328f57600080fd5b823561329a81612e49565b9150602083013567ffffffffffffffff8111156132b657600080fd5b830160c081860312156130ef57600080fd5b600181811c908216806132dc57607f821691505b602082108114156132fd57634e487b7160e01b600052602260045260246000fd5b50919050565b6020808252602d908201527f4552433732313a2063616c6c6572206973206e6f7420746f6b656e206f776e6560408201526c1c881bdc88185c1c1c9bdd9959609a1b606082015260800190565b634e487b7160e01b600052603260045260246000fd5b604081016133748285612f63565b6001600160a01b039290921660209190910152919050565b6000808335601e198436030181126133a357600080fd5b83018035915067ffffffffffffffff8211156133be57600080fd5b60200191503681900382131561264657600080fd5b6000602082840312156133e557600080fd5b610f5682612e5e565b634e487b7160e01b600052601160045260246000fd5b600082821015613416576134166133ee565b500390565b6020808252602b908201527f496e697469616c697a61626c653a20636f6e7472616374206973206e6f74206960408201526a6e697469616c697a696e6760a81b606082015260800190565b60208082526025908201527f4552433732313a207472616e736665722066726f6d20696e636f72726563742060408201526437bbb732b960d91b606082015260800190565b81835281816020850137506000828201602090810191909152601f909101601f19169091010190565b60018060a01b038816815286602082015260a0604082015260006134fc60a0830187896134ab565b828103606084015261350f8186886134ab565b91505061ffff8316608083015298975050505050505050565b60208082526032908201527f4552433732313a207472616e7366657220746f206e6f6e20455243373231526560408201527131b2b4bb32b91034b6b83632b6b2b73a32b960711b606082015260800190565b6000835161358c818460208801612f93565b8351908301906135a0818360208801612f93565b01949350505050565b60008160001904831182151516156135c3576135c36133ee565b500290565b6000826135e557634e487b7160e01b600052601260045260246000fd5b500490565b6001600160a01b038581168252841660208201526040810183905260806060820181905260009061361d90830184612fbf565b9695505050505050565b60006020828403121561363957600080fd5b8151610f5681612d6a565b8183823760009101908152919050565b60008219821115613667576136676133ee565b500190565b634e487b7160e01b600052603160045260246000fdfea2646970667358221220de9ad436587beff791622e96bbd17a8a8efbb0d55e1fc9f57005c03b8245882964736f6c63430008090033",
  "linkReferences": {},
  "deployedLinkReferences": {}
}