{
  "_format": "hh-sol-artifact-1",
  "contractName": "ArtongNFT",
  "sourceName": "contracts/ArtongNFT.sol",
  "abi": [
    {
      "inputs": [
        {
          "internalType": "string",
          "name": "_name",
          "type": "string"
        },
        {
          "internalType": "string",
          "name": "_symbol",
          "type": "string"
        },
        {
          "internalType": "address",
          "name": "_marketplace",
          "type": "address"
        },
        {
          "internalType": "uint16",
          "name": "_platformFee",
          "type": "uint16"
        },
        {
          "internalType": "address payable",
          "name": "_feeReceipient",
          "type": "address"
        },
        {
          "internalType": "uint256",
          "name": "_maxAmount",
          "type": "uint256"
        },
        {
          "internalType": "enum ArtongNFT.Policy",
          "name": "_policy",
          "type": "uint8"
        }
      ],
      "stateMutability": "nonpayable",
      "type": "constructor"
    },
    {
      "anonymous": false,
      "inputs": [
        {
          "indexed": true,
          "internalType": "address",
          "name": "owner",
          "type": "address"
        },
        {
          "indexed": true,
          "internalType": "address",
          "name": "approved",
          "type": "address"
        },
        {
          "indexed": true,
          "internalType": "uint256",
          "name": "tokenId",
          "type": "uint256"
        }
      ],
      "name": "Approval",
      "type": "event"
    },
    {
      "anonymous": false,
      "inputs": [
        {
          "indexed": true,
          "internalType": "address",
          "name": "owner",
          "type": "address"
        },
        {
          "indexed": true,
          "internalType": "address",
          "name": "operator",
          "type": "address"
        },
        {
          "indexed": false,
          "internalType": "bool",
          "name": "approved",
          "type": "bool"
        }
      ],
      "name": "ApprovalForAll",
      "type": "event"
    },
    {
      "anonymous": false,
      "inputs": [
        {
          "indexed": false,
          "internalType": "address",
          "name": "account",
          "type": "address"
        }
      ],
      "name": "Paused",
      "type": "event"
    },
    {
      "anonymous": false,
      "inputs": [
        {
          "indexed": true,
          "internalType": "address",
          "name": "from",
          "type": "address"
        },
        {
          "indexed": true,
          "internalType": "address",
          "name": "to",
          "type": "address"
        },
        {
          "indexed": true,
          "internalType": "uint256",
          "name": "tokenId",
          "type": "uint256"
        }
      ],
      "name": "Transfer",
      "type": "event"
    },
    {
      "anonymous": false,
      "inputs": [
        {
          "indexed": false,
          "internalType": "address",
          "name": "account",
          "type": "address"
        }
      ],
      "name": "Unpaused",
      "type": "event"
    },
    {
      "inputs": [
        {
          "internalType": "address",
          "name": "to",
          "type": "address"
        },
        {
          "internalType": "uint256",
          "name": "tokenId",
          "type": "uint256"
        }
      ],
      "name": "approve",
      "outputs": [],
      "stateMutability": "nonpayable",
      "type": "function"
    },
    {
      "inputs": [
        {
          "internalType": "address",
          "name": "owner",
          "type": "address"
        }
      ],
      "name": "balanceOf",
      "outputs": [
        {
          "internalType": "uint256",
          "name": "",
          "type": "uint256"
        }
      ],
      "stateMutability": "view",
      "type": "function"
    },
    {
      "inputs": [
        {
          "internalType": "uint256",
          "name": "tokenId",
          "type": "uint256"
        }
      ],
      "name": "burn",
      "outputs": [],
      "stateMutability": "nonpayable",
      "type": "function"
    },
    {
      "inputs": [],
      "name": "feeReceipient",
      "outputs": [
        {
          "internalType": "address payable",
          "name": "",
          "type": "address"
        }
      ],
      "stateMutability": "view",
      "type": "function"
    },
    {
      "inputs": [
        {
          "internalType": "uint256",
          "name": "tokenId",
          "type": "uint256"
        }
      ],
      "name": "getApproved",
      "outputs": [
        {
          "internalType": "address",
          "name": "",
          "type": "address"
        }
      ],
      "stateMutability": "view",
      "type": "function"
    },
    {
      "inputs": [],
      "name": "getChainID",
      "outputs": [
        {
          "internalType": "uint256",
          "name": "",
          "type": "uint256"
        }
      ],
      "stateMutability": "view",
      "type": "function"
    },
    {
      "inputs": [],
      "name": "getPolicy",
      "outputs": [
        {
          "internalType": "enum ArtongNFT.Policy",
          "name": "",
          "type": "uint8"
        }
      ],
      "stateMutability": "view",
      "type": "function"
    },
    {
      "inputs": [],
      "name": "getWithdrawal",
      "outputs": [
        {
          "internalType": "uint256",
          "name": "",
          "type": "uint256"
        }
      ],
      "stateMutability": "view",
      "type": "function"
    },
    {
      "inputs": [
        {
          "internalType": "address",
          "name": "owner",
          "type": "address"
        },
        {
          "internalType": "address",
          "name": "operator",
          "type": "address"
        }
      ],
      "name": "isApprovedForAll",
      "outputs": [
        {
          "internalType": "bool",
          "name": "",
          "type": "bool"
        }
      ],
      "stateMutability": "view",
      "type": "function"
    },
    {
      "inputs": [],
      "name": "marketplace",
      "outputs": [
        {
          "internalType": "address",
          "name": "",
          "type": "address"
        }
      ],
      "stateMutability": "view",
      "type": "function"
    },
    {
      "inputs": [
        {
          "internalType": "address",
          "name": "_to",
          "type": "address"
        },
        {
          "internalType": "string",
          "name": "_tokenUri",
          "type": "string"
        }
      ],
      "name": "mint",
      "outputs": [
        {
          "internalType": "uint256",
          "name": "",
          "type": "uint256"
        }
      ],
      "stateMutability": "nonpayable",
      "type": "function"
    },
    {
      "inputs": [],
      "name": "name",
      "outputs": [
        {
          "internalType": "string",
          "name": "",
          "type": "string"
        }
      ],
      "stateMutability": "view",
      "type": "function"
    },
    {
      "inputs": [
        {
          "internalType": "uint256",
          "name": "tokenId",
          "type": "uint256"
        }
      ],
      "name": "ownerOf",
      "outputs": [
        {
          "internalType": "address",
          "name": "",
          "type": "address"
        }
      ],
      "stateMutability": "view",
      "type": "function"
    },
    {
      "inputs": [],
      "name": "pause",
      "outputs": [],
      "stateMutability": "nonpayable",
      "type": "function"
    },
    {
      "inputs": [],
      "name": "paused",
      "outputs": [
        {
          "internalType": "bool",
          "name": "",
          "type": "bool"
        }
      ],
      "stateMutability": "view",
      "type": "function"
    },
    {
      "inputs": [],
      "name": "platformFee",
      "outputs": [
        {
          "internalType": "uint16",
          "name": "",
          "type": "uint16"
        }
      ],
      "stateMutability": "view",
      "type": "function"
    },
    {
      "inputs": [
        {
          "internalType": "address",
          "name": "redeemer",
          "type": "address"
        },
        {
          "components": [
            {
              "internalType": "address",
              "name": "creator",
              "type": "address"
            },
            {
              "internalType": "uint256",
              "name": "minPrice",
              "type": "uint256"
            },
            {
              "internalType": "string",
              "name": "uri",
              "type": "string"
            },
            {
              "internalType": "bytes",
              "name": "signature",
              "type": "bytes"
            }
          ],
          "internalType": "struct ArtongNFT.NFTVoucher",
          "name": "voucher",
          "type": "tuple"
        }
      ],
      "name": "redeem",
      "outputs": [
        {
          "internalType": "uint256",
          "name": "",
          "type": "uint256"
        }
      ],
      "stateMutability": "payable",
      "type": "function"
    },
    {
      "inputs": [
        {
          "internalType": "address",
          "name": "from",
          "type": "address"
        },
        {
          "internalType": "address",
          "name": "to",
          "type": "address"
        },
        {
          "internalType": "uint256",
          "name": "tokenId",
          "type": "uint256"
        }
      ],
      "name": "safeTransferFrom",
      "outputs": [],
      "stateMutability": "nonpayable",
      "type": "function"
    },
    {
      "inputs": [
        {
          "internalType": "address",
          "name": "from",
          "type": "address"
        },
        {
          "internalType": "address",
          "name": "to",
          "type": "address"
        },
        {
          "internalType": "uint256",
          "name": "tokenId",
          "type": "uint256"
        },
        {
          "internalType": "bytes",
          "name": "data",
          "type": "bytes"
        }
      ],
      "name": "safeTransferFrom",
      "outputs": [],
      "stateMutability": "nonpayable",
      "type": "function"
    },
    {
      "inputs": [
        {
          "internalType": "address",
          "name": "operator",
          "type": "address"
        },
        {
          "internalType": "bool",
          "name": "approved",
          "type": "bool"
        }
      ],
      "name": "setApprovalForAll",
      "outputs": [],
      "stateMutability": "nonpayable",
      "type": "function"
    },
    {
      "inputs": [
        {
          "internalType": "bytes4",
          "name": "interfaceId",
          "type": "bytes4"
        }
      ],
      "name": "supportsInterface",
      "outputs": [
        {
          "internalType": "bool",
          "name": "",
          "type": "bool"
        }
      ],
      "stateMutability": "view",
      "type": "function"
    },
    {
      "inputs": [],
      "name": "symbol",
      "outputs": [
        {
          "internalType": "string",
          "name": "",
          "type": "string"
        }
      ],
      "stateMutability": "view",
      "type": "function"
    },
    {
      "inputs": [
        {
          "internalType": "uint256",
          "name": "tokenId",
          "type": "uint256"
        }
      ],
      "name": "tokenURI",
      "outputs": [
        {
          "internalType": "string",
          "name": "",
          "type": "string"
        }
      ],
      "stateMutability": "view",
      "type": "function"
    },
    {
      "inputs": [
        {
          "internalType": "address",
          "name": "from",
          "type": "address"
        },
        {
          "internalType": "address",
          "name": "to",
          "type": "address"
        },
        {
          "internalType": "uint256",
          "name": "tokenId",
          "type": "uint256"
        }
      ],
      "name": "transferFrom",
      "outputs": [],
      "stateMutability": "nonpayable",
      "type": "function"
    },
    {
      "inputs": [],
      "name": "unpause",
      "outputs": [],
      "stateMutability": "nonpayable",
      "type": "function"
    },
    {
      "inputs": [],
      "name": "withdraw",
      "outputs": [],
      "stateMutability": "nonpayable",
      "type": "function"
    }
  ],
  "bytecode": "0x6101406040523480156200001257600080fd5b5060405162004fd438038062004fd483398181016040528101906200003891906200065c565b6040518060400160405280601181526020017f4172746f6e674e46542d566f75636865720000000000000000000000000000008152506040518060400160405280600181526020017f310000000000000000000000000000000000000000000000000000000000000081525088888160009080519060200190620000be929190620002c3565b508060019080519060200190620000d7929190620002c3565b50505060008280519060200120905060008280519060200120905060007f8b73c3c69bb8fe3d512ecc4cf759cc79239f7b179b0ffacaa9a75d522b39400f90508260e081815250508161010081815250504660a08181525050620001438184846200028760201b60201c565b608081815250503073ffffffffffffffffffffffffffffffffffffffff1660c08173ffffffffffffffffffffffffffffffffffffffff168152505080610120818152505050505050506000600760006101000a81548160ff02191690831515021790555084600a60016101000a81548173ffffffffffffffffffffffffffffffffffffffff021916908373ffffffffffffffffffffffffffffffffffffffff16021790555083600a60156101000a81548161ffff021916908361ffff16021790555082600b60006101000a81548173ffffffffffffffffffffffffffffffffffffffff021916908373ffffffffffffffffffffffffffffffffffffffff1602179055508160098190555080600a60006101000a81548160ff021916908360018111156200027557620002746200074d565b5b0217905550505050505050506200087b565b60008383834630604051602001620002a4959493929190620007b9565b6040516020818303038152906040528051906020012090509392505050565b828054620002d19062000845565b90600052602060002090601f016020900481019282620002f5576000855562000341565b82601f106200031057805160ff191683800117855562000341565b8280016001018555821562000341579182015b828111156200034057825182559160200191906001019062000323565b5b50905062000350919062000354565b5090565b5b808211156200036f57600081600090555060010162000355565b5090565b6000604051905090565b600080fd5b600080fd5b600080fd5b600080fd5b6000601f19601f8301169050919050565b7f4e487b7100000000000000000000000000000000000000000000000000000000600052604160045260246000fd5b620003dc8262000391565b810181811067ffffffffffffffff82111715620003fe57620003fd620003a2565b5b80604052505050565b60006200041362000373565b9050620004218282620003d1565b919050565b600067ffffffffffffffff821115620004445762000443620003a2565b5b6200044f8262000391565b9050602081019050919050565b60005b838110156200047c5780820151818401526020810190506200045f565b838111156200048c576000848401525b50505050565b6000620004a9620004a38462000426565b62000407565b905082815260208101848484011115620004c857620004c76200038c565b5b620004d58482856200045c565b509392505050565b600082601f830112620004f557620004f462000387565b5b81516200050784826020860162000492565b91505092915050565b600073ffffffffffffffffffffffffffffffffffffffff82169050919050565b60006200053d8262000510565b9050919050565b6200054f8162000530565b81146200055b57600080fd5b50565b6000815190506200056f8162000544565b92915050565b600061ffff82169050919050565b6200058e8162000575565b81146200059a57600080fd5b50565b600081519050620005ae8162000583565b92915050565b6000620005c18262000510565b9050919050565b620005d381620005b4565b8114620005df57600080fd5b50565b600081519050620005f381620005c8565b92915050565b6000819050919050565b6200060e81620005f9565b81146200061a57600080fd5b50565b6000815190506200062e8162000603565b92915050565b600281106200064257600080fd5b50565b600081519050620006568162000634565b92915050565b600080600080600080600060e0888a0312156200067e576200067d6200037d565b5b600088015167ffffffffffffffff8111156200069f576200069e62000382565b5b620006ad8a828b01620004dd565b975050602088015167ffffffffffffffff811115620006d157620006d062000382565b5b620006df8a828b01620004dd565b9650506040620006f28a828b016200055e565b9550506060620007058a828b016200059d565b9450506080620007188a828b01620005e2565b93505060a06200072b8a828b016200061d565b92505060c06200073e8a828b0162000645565b91505092959891949750929550565b7f4e487b7100000000000000000000000000000000000000000000000000000000600052602160045260246000fd5b6000819050919050565b62000791816200077c565b82525050565b620007a281620005f9565b82525050565b620007b38162000530565b82525050565b600060a082019050620007d0600083018862000786565b620007df602083018762000786565b620007ee604083018662000786565b620007fd606083018562000797565b6200080c6080830184620007a8565b9695505050505050565b7f4e487b7100000000000000000000000000000000000000000000000000000000600052602260045260246000fd5b600060028204905060018216806200085e57607f821691505b6020821081141562000875576200087462000816565b5b50919050565b60805160a05160c05160e0516101005161012051614709620008cb6000396000612911015260006129530152600061293201526000612867015260006128bd015260006128e601526147096000f3fe6080604052600436106101815760003560e01c80635c975abb116100d1578063a22cb4651161008a578063c87b56dd11610064578063c87b56dd1461053d578063ce1e46261461057a578063d0def521146105a5578063e985e9c5146105e257610181565b8063a22cb465146104c0578063abc8c7af146104e9578063b88d4fde1461051457610181565b80635c975abb146103ae5780636352211e146103d957806370a0823114610416578063806ad169146104535780638456cb591461047e57806395d89b411461049557610181565b806326232a2e1161013e5780633f4ba83a116101185780633f4ba83a1461031a57806342842e0e1461033157806342966c681461035a578063564b81ef1461038357610181565b806326232a2e146102ad5780633740ebb3146102d85780633ccfd60b1461030357610181565b806301ffc9a71461018657806306fdde03146101c3578063081812fc146101ee578063095ea7b31461022b578063111425521461025457806323b872dd14610284575b600080fd5b34801561019257600080fd5b506101ad60048036038101906101a89190612ca5565b61061f565b6040516101ba9190612ced565b60405180910390f35b3480156101cf57600080fd5b506101d8610701565b6040516101e59190612da1565b60405180910390f35b3480156101fa57600080fd5b5061021560048036038101906102109190612df9565b610793565b6040516102229190612e67565b60405180910390f35b34801561023757600080fd5b50610252600480360381019061024d9190612eae565b6107d9565b005b61026e60048036038101906102699190612f12565b6108f1565b60405161027b9190612f7d565b60405180910390f35b34801561029057600080fd5b506102ab60048036038101906102a69190612f98565b610b63565b005b3480156102b957600080fd5b506102c2610bc3565b6040516102cf9190613008565b60405180910390f35b3480156102e457600080fd5b506102ed610bd7565b6040516102fa9190613044565b60405180910390f35b34801561030f57600080fd5b50610318610bfd565b005b34801561032657600080fd5b5061032f610cf9565b005b34801561033d57600080fd5b5061035860048036038101906103539190612f98565b610d4c565b005b34801561036657600080fd5b50610381600480360381019061037c9190612df9565b610d6c565b005b34801561038f57600080fd5b50610398610dc8565b6040516103a59190612f7d565b60405180910390f35b3480156103ba57600080fd5b506103c3610dd5565b6040516103d09190612ced565b60405180910390f35b3480156103e557600080fd5b5061040060048036038101906103fb9190612df9565b610dec565b60405161040d9190612e67565b60405180910390f35b34801561042257600080fd5b5061043d6004803603810190610438919061305f565b610e9e565b60405161044a9190612f7d565b60405180910390f35b34801561045f57600080fd5b50610468610f56565b6040516104759190612f7d565b60405180910390f35b34801561048a57600080fd5b50610493610f9d565b005b3480156104a157600080fd5b506104aa610ff0565b6040516104b79190612da1565b60405180910390f35b3480156104cc57600080fd5b506104e760048036038101906104e291906130b8565b611082565b005b3480156104f557600080fd5b506104fe611098565b60405161050b9190612e67565b60405180910390f35b34801561052057600080fd5b5061053b6004803603810190610536919061322d565b6110be565b005b34801561054957600080fd5b50610564600480360381019061055f9190612df9565b611120565b6040516105719190612da1565b60405180910390f35b34801561058657600080fd5b5061058f611132565b60405161059c9190613327565b60405180910390f35b3480156105b157600080fd5b506105cc60048036038101906105c791906133a2565b611149565b6040516105d99190612f7d565b60405180910390f35b3480156105ee57600080fd5b5061060960048036038101906106049190613402565b6111dd565b6040516106169190612ced565b60405180910390f35b60007f80ac58cd000000000000000000000000000000000000000000000000000000007bffffffffffffffffffffffffffffffffffffffffffffffffffffffff1916827bffffffffffffffffffffffffffffffffffffffffffffffffffffffff191614806106ea57507f5b5e139f000000000000000000000000000000000000000000000000000000007bffffffffffffffffffffffffffffffffffffffffffffffffffffffff1916827bffffffffffffffffffffffffffffffffffffffffffffffffffffffff1916145b806106fa57506106f982611251565b5b9050919050565b60606000805461071090613471565b80601f016020809104026020016040519081016040528092919081815260200182805461073c90613471565b80156107895780601f1061075e57610100808354040283529160200191610789565b820191906000526020600020905b81548152906001019060200180831161076c57829003601f168201915b5050505050905090565b600061079e826112bb565b6004600083815260200190815260200160002060009054906101000a900473ffffffffffffffffffffffffffffffffffffffff169050919050565b60006107e482610dec565b90508073ffffffffffffffffffffffffffffffffffffffff168373ffffffffffffffffffffffffffffffffffffffff161415610855576040517f08c379a000000000000000000000000000000000000000000000000000000000815260040161084c90613515565b60405180910390fd5b8073ffffffffffffffffffffffffffffffffffffffff16610874611306565b73ffffffffffffffffffffffffffffffffffffffff1614806108a357506108a28161089d611306565b6111dd565b5b6108e2576040517f08c379a00000000000000000000000000000000000000000000000000000000081526004016108d9906135a7565b60405180910390fd5b6108ec838361130e565b505050565b60006108fb6113c7565b600061090683611411565b905082600001602081019061091b919061305f565b73ffffffffffffffffffffffffffffffffffffffff168173ffffffffffffffffffffffffffffffffffffffff1614610988576040517f08c379a000000000000000000000000000000000000000000000000000000000815260040161097f90613613565b60405180910390fd5b82602001353410156109cf576040517f08c379a00000000000000000000000000000000000000000000000000000000081526004016109c69061367f565b60405180910390fd5b60006109fc8460000160208101906109e7919061305f565b8580604001906109f791906136ae565b611483565b9050610a1b846000016020810190610a14919061305f565b8683611500565b6000610a25611767565b90508034610a339190613740565b600c60008573ffffffffffffffffffffffffffffffffffffffff1673ffffffffffffffffffffffffffffffffffffffff1681526020019081526020016000206000828254610a819190613774565b925050819055506000600b60009054906101000a900473ffffffffffffffffffffffffffffffffffffffff1673ffffffffffffffffffffffffffffffffffffffff1682604051610ad0906137fb565b60006040518083038185875af1925050503d8060008114610b0d576040519150601f19603f3d011682016040523d82523d6000602084013e610b12565b606091505b5050905080610b56576040517f08c379a0000000000000000000000000000000000000000000000000000000008152600401610b4d9061385c565b60405180910390fd5b8294505050505092915050565b610b74610b6e611306565b8261179b565b610bb3576040517f08c379a0000000000000000000000000000000000000000000000000000000008152600401610baa906138ee565b60405180910390fd5b610bbe838383611500565b505050565b600a60159054906101000a900461ffff1681565b600b60009054906101000a900473ffffffffffffffffffffffffffffffffffffffff1681565b610c056113c7565b6000600c60003373ffffffffffffffffffffffffffffffffffffffff1673ffffffffffffffffffffffffffffffffffffffff1681526020019081526020016000205490506000811415610c5757600080fd5b80471015610c6457600080fd5b60003390506000600c60003373ffffffffffffffffffffffffffffffffffffffff1673ffffffffffffffffffffffffffffffffffffffff168152602001908152602001600020819055508073ffffffffffffffffffffffffffffffffffffffff166108fc839081150290604051600060405180830381858888f19350505050158015610cf4573d6000803e3d6000fd5b505050565b610d0333336111dd565b610d42576040517f08c379a0000000000000000000000000000000000000000000000000000000008152600401610d399061395a565b60405180910390fd5b610d4a61181f565b565b610d67838383604051806020016040528060008152506110be565b505050565b610d7d610d77611306565b8261179b565b610dbc576040517f08c379a0000000000000000000000000000000000000000000000000000000008152600401610db3906138ee565b60405180910390fd5b610dc581611882565b50565b6000804690508091505090565b6000600760009054906101000a900460ff16905090565b6000806002600084815260200190815260200160002060009054906101000a900473ffffffffffffffffffffffffffffffffffffffff169050600073ffffffffffffffffffffffffffffffffffffffff168173ffffffffffffffffffffffffffffffffffffffff161415610e95576040517f08c379a0000000000000000000000000000000000000000000000000000000008152600401610e8c906139c6565b60405180910390fd5b80915050919050565b60008073ffffffffffffffffffffffffffffffffffffffff168273ffffffffffffffffffffffffffffffffffffffff161415610f0f576040517f08c379a0000000000000000000000000000000000000000000000000000000008152600401610f0690613a58565b60405180910390fd5b600360008373ffffffffffffffffffffffffffffffffffffffff1673ffffffffffffffffffffffffffffffffffffffff168152602001908152602001600020549050919050565b6000600c60003373ffffffffffffffffffffffffffffffffffffffff1673ffffffffffffffffffffffffffffffffffffffff16815260200190815260200160002054905090565b610fa733336111dd565b610fe6576040517f08c379a0000000000000000000000000000000000000000000000000000000008152600401610fdd9061395a565b60405180910390fd5b610fee61188e565b565b606060018054610fff90613471565b80601f016020809104026020016040519081016040528092919081815260200182805461102b90613471565b80156110785780601f1061104d57610100808354040283529160200191611078565b820191906000526020600020905b81548152906001019060200180831161105b57829003601f168201915b5050505050905090565b61109461108d611306565b83836118f1565b5050565b600a60019054906101000a900473ffffffffffffffffffffffffffffffffffffffff1681565b6110cf6110c9611306565b8361179b565b61110e576040517f08c379a0000000000000000000000000000000000000000000000000000000008152600401611105906138ee565b60405180910390fd5b61111a84848484611a5e565b50505050565b606061112b82611aba565b9050919050565b6000600a60009054906101000a900460ff16905090565b60006111536113c7565b60006001811115611167576111666132b0565b5b600a60009054906101000a900460ff166001811115611189576111886132b0565b5b146111c9576040517f08c379a00000000000000000000000000000000000000000000000000000000081526004016111c090613ac4565b60405180910390fd5b6111d4848484611483565b90509392505050565b60008173ffffffffffffffffffffffffffffffffffffffff16600a60019054906101000a900473ffffffffffffffffffffffffffffffffffffffff1673ffffffffffffffffffffffffffffffffffffffff16141561123e576001905061124b565b6112488383611bcd565b90505b92915050565b60007f01ffc9a7000000000000000000000000000000000000000000000000000000007bffffffffffffffffffffffffffffffffffffffffffffffffffffffff1916827bffffffffffffffffffffffffffffffffffffffffffffffffffffffff1916149050919050565b6112c481611c61565b611303576040517f08c379a00000000000000000000000000000000000000000000000000000000081526004016112fa906139c6565b60405180910390fd5b50565b600033905090565b816004600083815260200190815260200160002060006101000a81548173ffffffffffffffffffffffffffffffffffffffff021916908373ffffffffffffffffffffffffffffffffffffffff160217905550808273ffffffffffffffffffffffffffffffffffffffff1661138183610dec565b73ffffffffffffffffffffffffffffffffffffffff167f8c5be1e5ebec7d5bd14f71427d1e84f3dd0314c0f7b2291e5b200ac8c7c3b92560405160405180910390a45050565b6113cf610dd5565b1561140f576040517f08c379a000000000000000000000000000000000000000000000000000000000815260040161140690613b30565b60405180910390fd5b565b60008061141d83611ccd565b905061147b818480606001906114339190613b50565b8080601f016020809104026020016040519081016040528093929190818152602001838380828437600081840152601f19601f82011690508083019250505050505050611d66565b915050919050565b600061148f6008611d8d565b600061149b6008611da3565b90506114a78582611db1565b6114f58185858080601f016020809104026020016040519081016040528093929190818152602001838380828437600081840152601f19601f82011690508083019250505050505050611f8b565b809150509392505050565b8273ffffffffffffffffffffffffffffffffffffffff1661152082610dec565b73ffffffffffffffffffffffffffffffffffffffff1614611576576040517f08c379a000000000000000000000000000000000000000000000000000000000815260040161156d90613c25565b60405180910390fd5b600073ffffffffffffffffffffffffffffffffffffffff168273ffffffffffffffffffffffffffffffffffffffff1614156115e6576040517f08c379a00000000000000000000000000000000000000000000000000000000081526004016115dd90613cb7565b60405180910390fd5b6115f1838383611fff565b6115fc60008261130e565b6001600360008573ffffffffffffffffffffffffffffffffffffffff1673ffffffffffffffffffffffffffffffffffffffff168152602001908152602001600020600082825461164c9190613740565b925050819055506001600360008473ffffffffffffffffffffffffffffffffffffffff1673ffffffffffffffffffffffffffffffffffffffff16815260200190815260200160002060008282546116a39190613774565b92505081905550816002600083815260200190815260200160002060006101000a81548173ffffffffffffffffffffffffffffffffffffffff021916908373ffffffffffffffffffffffffffffffffffffffff160217905550808273ffffffffffffffffffffffffffffffffffffffff168473ffffffffffffffffffffffffffffffffffffffff167fddf252ad1be2c89b69c2b068fc378daa952ba7f163c4a11628f55a4df523b3ef60405160405180910390a4611762838383612004565b505050565b6000612710600a60159054906101000a900461ffff1661ffff163461178c9190613cd7565b6117969190613d60565b905090565b60006117a682611c61565b6117e5576040517f08c379a00000000000000000000000000000000000000000000000000000000081526004016117dc90613e03565b60405180910390fd5b60006117f083610dec565b90506117fc81856111dd565b1561180b576001915050611819565b6118158484612009565b9150505b92915050565b61182761209e565b6000600760006101000a81548160ff0219169083151502179055507f5db9ee0a495bf2e6ff9c91a7834c1ba4fdd244a5e8aa4e537bd38aeae4b073aa61186b611306565b6040516118789190612e67565b60405180910390a1565b61188b816120e7565b50565b6118966113c7565b6001600760006101000a81548160ff0219169083151502179055507f62e78cea01bee320cd4e420270b5ea74000d11b0c9f74754ebdbfc544b05a2586118da611306565b6040516118e79190612e67565b60405180910390a1565b8173ffffffffffffffffffffffffffffffffffffffff168373ffffffffffffffffffffffffffffffffffffffff161415611960576040517f08c379a000000000000000000000000000000000000000000000000000000000815260040161195790613e6f565b60405180910390fd5b80600560008573ffffffffffffffffffffffffffffffffffffffff1673ffffffffffffffffffffffffffffffffffffffff16815260200190815260200160002060008473ffffffffffffffffffffffffffffffffffffffff1673ffffffffffffffffffffffffffffffffffffffff16815260200190815260200160002060006101000a81548160ff0219169083151502179055508173ffffffffffffffffffffffffffffffffffffffff168373ffffffffffffffffffffffffffffffffffffffff167f17307eab39ab6107e8899845ad3d59bd9653f200f220920489ca2b5937696c3183604051611a519190612ced565b60405180910390a3505050565b611a69848484611500565b611a758484848461213a565b611ab4576040517f08c379a0000000000000000000000000000000000000000000000000000000008152600401611aab90613f01565b60405180910390fd5b50505050565b6060611ac5826112bb565b6000600660008481526020019081526020016000208054611ae590613471565b80601f0160208091040260200160405190810160405280929190818152602001828054611b1190613471565b8015611b5e5780601f10611b3357610100808354040283529160200191611b5e565b820191906000526020600020905b815481529060010190602001808311611b4157829003601f168201915b505050505090506000611b6f6122d1565b9050600081511415611b85578192505050611bc8565b600082511115611bba578082604051602001611ba2929190613f5d565b60405160208183030381529060405292505050611bc8565b611bc3846122e8565b925050505b919050565b6000600560008473ffffffffffffffffffffffffffffffffffffffff1673ffffffffffffffffffffffffffffffffffffffff16815260200190815260200160002060008373ffffffffffffffffffffffffffffffffffffffff1673ffffffffffffffffffffffffffffffffffffffff16815260200190815260200160002060009054906101000a900460ff16905092915050565b60008073ffffffffffffffffffffffffffffffffffffffff166002600084815260200190815260200160002060009054906101000a900473ffffffffffffffffffffffffffffffffffffffff1673ffffffffffffffffffffffffffffffffffffffff1614159050919050565b6000611d5f7fe2c1fe55ff75bc6c0f1e92db9b907c57038a5f95f7c137ff4bf9e10a15bc3d01836000016020810190611d06919061305f565b8460200135858060400190611d1b91906136ae565b604051611d29929190613fa6565b6040518091039020604051602001611d449493929190613fd8565b60405160208183030381529060405280519060200120612350565b9050919050565b6000806000611d75858561236a565b91509150611d82816123ed565b819250505092915050565b6001816000016000828254019250508190555050565b600081600001549050919050565b600073ffffffffffffffffffffffffffffffffffffffff168273ffffffffffffffffffffffffffffffffffffffff161415611e21576040517f08c379a0000000000000000000000000000000000000000000000000000000008152600401611e1890614069565b60405180910390fd5b611e2a81611c61565b15611e6a576040517f08c379a0000000000000000000000000000000000000000000000000000000008152600401611e61906140d5565b60405180910390fd5b611e7660008383611fff565b6001600360008473ffffffffffffffffffffffffffffffffffffffff1673ffffffffffffffffffffffffffffffffffffffff1681526020019081526020016000206000828254611ec69190613774565b92505081905550816002600083815260200190815260200160002060006101000a81548173ffffffffffffffffffffffffffffffffffffffff021916908373ffffffffffffffffffffffffffffffffffffffff160217905550808273ffffffffffffffffffffffffffffffffffffffff16600073ffffffffffffffffffffffffffffffffffffffff167fddf252ad1be2c89b69c2b068fc378daa952ba7f163c4a11628f55a4df523b3ef60405160405180910390a4611f8760008383612004565b5050565b611f9482611c61565b611fd3576040517f08c379a0000000000000000000000000000000000000000000000000000000008152600401611fca90614167565b60405180910390fd5b80600660008481526020019081526020016000209080519060200190611ffa929190612b56565b505050565b505050565b505050565b60008061201583610dec565b90508073ffffffffffffffffffffffffffffffffffffffff168473ffffffffffffffffffffffffffffffffffffffff161480612057575061205681856111dd565b5b8061209557508373ffffffffffffffffffffffffffffffffffffffff1661207d84610793565b73ffffffffffffffffffffffffffffffffffffffff16145b91505092915050565b6120a6610dd5565b6120e5576040517f08c379a00000000000000000000000000000000000000000000000000000000081526004016120dc906141d3565b60405180910390fd5b565b6120f0816125c2565b600060066000838152602001908152602001600020805461211090613471565b905014612137576006600082815260200190815260200160002060006121369190612bdc565b5b50565b600061215b8473ffffffffffffffffffffffffffffffffffffffff166126df565b156122c4578373ffffffffffffffffffffffffffffffffffffffff1663150b7a02612184611306565b8786866040518563ffffffff1660e01b81526004016121a69493929190614248565b602060405180830381600087803b1580156121c057600080fd5b505af19250505080156121f157506040513d601f19601f820116820180604052508101906121ee91906142a9565b60015b612274573d8060008114612221576040519150601f19603f3d011682016040523d82523d6000602084013e612226565b606091505b5060008151141561226c576040517f08c379a000000000000000000000000000000000000000000000000000000000815260040161226390613f01565b60405180910390fd5b805181602001fd5b63150b7a0260e01b7bffffffffffffffffffffffffffffffffffffffffffffffffffffffff1916817bffffffffffffffffffffffffffffffffffffffffffffffffffffffff1916149150506122c9565b600190505b949350505050565b606060405180602001604052806000815250905090565b60606122f3826112bb565b60006122fd6122d1565b9050600081511161231d5760405180602001604052806000815250612348565b8061232784612702565b604051602001612338929190613f5d565b6040516020818303038152906040525b915050919050565b600061236361235d612863565b8361297d565b9050919050565b6000806041835114156123ac5760008060006020860151925060408601519150606086015160001a90506123a0878285856129b0565b945094505050506123e6565b6040835114156123dd5760008060208501519150604085015190506123d2868383612abd565b9350935050506123e6565b60006002915091505b9250929050565b60006004811115612401576124006132b0565b5b816004811115612414576124136132b0565b5b141561241f576125bf565b60016004811115612433576124326132b0565b5b816004811115612446576124456132b0565b5b1415612487576040517f08c379a000000000000000000000000000000000000000000000000000000000815260040161247e90614322565b60405180910390fd5b6002600481111561249b5761249a6132b0565b5b8160048111156124ae576124ad6132b0565b5b14156124ef576040517f08c379a00000000000000000000000000000000000000000000000000000000081526004016124e69061438e565b60405180910390fd5b60036004811115612503576125026132b0565b5b816004811115612516576125156132b0565b5b1415612557576040517f08c379a000000000000000000000000000000000000000000000000000000000815260040161254e90614420565b60405180910390fd5b60048081111561256a576125696132b0565b5b81600481111561257d5761257c6132b0565b5b14156125be576040517f08c379a00000000000000000000000000000000000000000000000000000000081526004016125b5906144b2565b60405180910390fd5b5b50565b60006125cd82610dec565b90506125db81600084611fff565b6125e660008361130e565b6001600360008373ffffffffffffffffffffffffffffffffffffffff1673ffffffffffffffffffffffffffffffffffffffff16815260200190815260200160002060008282546126369190613740565b925050819055506002600083815260200190815260200160002060006101000a81549073ffffffffffffffffffffffffffffffffffffffff021916905581600073ffffffffffffffffffffffffffffffffffffffff168273ffffffffffffffffffffffffffffffffffffffff167fddf252ad1be2c89b69c2b068fc378daa952ba7f163c4a11628f55a4df523b3ef60405160405180910390a46126db81600084612004565b5050565b6000808273ffffffffffffffffffffffffffffffffffffffff163b119050919050565b6060600082141561274a576040518060400160405280600181526020017f3000000000000000000000000000000000000000000000000000000000000000815250905061285e565b600082905060005b6000821461277c578080612765906144d2565b915050600a826127759190613d60565b9150612752565b60008167ffffffffffffffff81111561279857612797613102565b5b6040519080825280601f01601f1916602001820160405280156127ca5781602001600182028036833780820191505090505b5090505b60008514612857576001826127e39190613740565b9150600a856127f2919061451b565b60306127fe9190613774565b60f81b8183815181106128145761281361454c565b5b60200101907effffffffffffffffffffffffffffffffffffffffffffffffffffffffffffff1916908160001a905350600a856128509190613d60565b94506127ce565b8093505050505b919050565b60007f000000000000000000000000000000000000000000000000000000000000000073ffffffffffffffffffffffffffffffffffffffff163073ffffffffffffffffffffffffffffffffffffffff161480156128df57507f000000000000000000000000000000000000000000000000000000000000000046145b1561290c577f0000000000000000000000000000000000000000000000000000000000000000905061297a565b6129777f00000000000000000000000000000000000000000000000000000000000000007f00000000000000000000000000000000000000000000000000000000000000007f0000000000000000000000000000000000000000000000000000000000000000612b1c565b90505b90565b600082826040516020016129929291906145e8565b60405160208183030381529060405280519060200120905092915050565b6000807f7fffffffffffffffffffffffffffffff5d576e7357a4501ddfe92f46681b20a08360001c11156129eb576000600391509150612ab4565b601b8560ff1614158015612a035750601c8560ff1614155b15612a15576000600491509150612ab4565b600060018787878760405160008152602001604052604051612a3a949392919061463b565b6020604051602081039080840390855afa158015612a5c573d6000803e3d6000fd5b505050602060405103519050600073ffffffffffffffffffffffffffffffffffffffff168173ffffffffffffffffffffffffffffffffffffffff161415612aab57600060019250925050612ab4565b80600092509250505b94509492505050565b60008060007f7fffffffffffffffffffffffffffffffffffffffffffffffffffffffffffffff60001b841690506000601b60ff8660001c901c612b009190613774565b9050612b0e878288856129b0565b935093505050935093915050565b60008383834630604051602001612b37959493929190614680565b6040516020818303038152906040528051906020012090509392505050565b828054612b6290613471565b90600052602060002090601f016020900481019282612b845760008555612bcb565b82601f10612b9d57805160ff1916838001178555612bcb565b82800160010185558215612bcb579182015b82811115612bca578251825591602001919060010190612baf565b5b509050612bd89190612c1c565b5090565b508054612be890613471565b6000825580601f10612bfa5750612c19565b601f016020900490600052602060002090810190612c189190612c1c565b5b50565b5b80821115612c35576000816000905550600101612c1d565b5090565b6000604051905090565b600080fd5b600080fd5b60007fffffffff0000000000000000000000000000000000000000000000000000000082169050919050565b612c8281612c4d565b8114612c8d57600080fd5b50565b600081359050612c9f81612c79565b92915050565b600060208284031215612cbb57612cba612c43565b5b6000612cc984828501612c90565b91505092915050565b60008115159050919050565b612ce781612cd2565b82525050565b6000602082019050612d026000830184612cde565b92915050565b600081519050919050565b600082825260208201905092915050565b60005b83811015612d42578082015181840152602081019050612d27565b83811115612d51576000848401525b50505050565b6000601f19601f8301169050919050565b6000612d7382612d08565b612d7d8185612d13565b9350612d8d818560208601612d24565b612d9681612d57565b840191505092915050565b60006020820190508181036000830152612dbb8184612d68565b905092915050565b6000819050919050565b612dd681612dc3565b8114612de157600080fd5b50565b600081359050612df381612dcd565b92915050565b600060208284031215612e0f57612e0e612c43565b5b6000612e1d84828501612de4565b91505092915050565b600073ffffffffffffffffffffffffffffffffffffffff82169050919050565b6000612e5182612e26565b9050919050565b612e6181612e46565b82525050565b6000602082019050612e7c6000830184612e58565b92915050565b612e8b81612e46565b8114612e9657600080fd5b50565b600081359050612ea881612e82565b92915050565b60008060408385031215612ec557612ec4612c43565b5b6000612ed385828601612e99565b9250506020612ee485828601612de4565b9150509250929050565b600080fd5b600060808284031215612f0957612f08612eee565b5b81905092915050565b60008060408385031215612f2957612f28612c43565b5b6000612f3785828601612e99565b925050602083013567ffffffffffffffff811115612f5857612f57612c48565b5b612f6485828601612ef3565b9150509250929050565b612f7781612dc3565b82525050565b6000602082019050612f926000830184612f6e565b92915050565b600080600060608486031215612fb157612fb0612c43565b5b6000612fbf86828701612e99565b9350506020612fd086828701612e99565b9250506040612fe186828701612de4565b9150509250925092565b600061ffff82169050919050565b61300281612feb565b82525050565b600060208201905061301d6000830184612ff9565b92915050565b600061302e82612e26565b9050919050565b61303e81613023565b82525050565b60006020820190506130596000830184613035565b92915050565b60006020828403121561307557613074612c43565b5b600061308384828501612e99565b91505092915050565b61309581612cd2565b81146130a057600080fd5b50565b6000813590506130b28161308c565b92915050565b600080604083850312156130cf576130ce612c43565b5b60006130dd85828601612e99565b92505060206130ee858286016130a3565b9150509250929050565b600080fd5b600080fd5b7f4e487b7100000000000000000000000000000000000000000000000000000000600052604160045260246000fd5b61313a82612d57565b810181811067ffffffffffffffff8211171561315957613158613102565b5b80604052505050565b600061316c612c39565b90506131788282613131565b919050565b600067ffffffffffffffff82111561319857613197613102565b5b6131a182612d57565b9050602081019050919050565b82818337600083830152505050565b60006131d06131cb8461317d565b613162565b9050828152602081018484840111156131ec576131eb6130fd565b5b6131f78482856131ae565b509392505050565b600082601f830112613214576132136130f8565b5b81356132248482602086016131bd565b91505092915050565b6000806000806080858703121561324757613246612c43565b5b600061325587828801612e99565b945050602061326687828801612e99565b935050604061327787828801612de4565b925050606085013567ffffffffffffffff81111561329857613297612c48565b5b6132a4878288016131ff565b91505092959194509250565b7f4e487b7100000000000000000000000000000000000000000000000000000000600052602160045260246000fd5b600281106132f0576132ef6132b0565b5b50565b6000819050613301826132df565b919050565b6000613311826132f3565b9050919050565b61332181613306565b82525050565b600060208201905061333c6000830184613318565b92915050565b600080fd5b600080fd5b60008083601f840112613362576133616130f8565b5b8235905067ffffffffffffffff81111561337f5761337e613342565b5b60208301915083600182028301111561339b5761339a613347565b5b9250929050565b6000806000604084860312156133bb576133ba612c43565b5b60006133c986828701612e99565b935050602084013567ffffffffffffffff8111156133ea576133e9612c48565b5b6133f68682870161334c565b92509250509250925092565b6000806040838503121561341957613418612c43565b5b600061342785828601612e99565b925050602061343885828601612e99565b9150509250929050565b7f4e487b7100000000000000000000000000000000000000000000000000000000600052602260045260246000fd5b6000600282049050600182168061348957607f821691505b6020821081141561349d5761349c613442565b5b50919050565b7f4552433732313a20617070726f76616c20746f2063757272656e74206f776e6560008201527f7200000000000000000000000000000000000000000000000000000000000000602082015250565b60006134ff602183612d13565b915061350a826134a3565b604082019050919050565b6000602082019050818103600083015261352e816134f2565b9050919050565b7f4552433732313a20617070726f76652063616c6c6572206973206e6f7420746f60008201527f6b656e206f776e6572206e6f7220617070726f76656420666f7220616c6c0000602082015250565b6000613591603e83612d13565b915061359c82613535565b604082019050919050565b600060208201905081810360008301526135c081613584565b9050919050565b7f5369676e617475726520696e76616c6964000000000000000000000000000000600082015250565b60006135fd601183612d13565b9150613608826135c7565b602082019050919050565b6000602082019050818103600083015261362c816135f0565b9050919050565b7f496e73756666696369656e742066756e647320746f2072656465656d00000000600082015250565b6000613669601c83612d13565b915061367482613633565b602082019050919050565b600060208201905081810360008301526136988161365c565b9050919050565b600080fd5b600080fd5b600080fd5b600080833560016020038436030381126136cb576136ca61369f565b5b80840192508235915067ffffffffffffffff8211156136ed576136ec6136a4565b5b602083019250600182023603831315613709576137086136a9565b5b509250929050565b7f4e487b7100000000000000000000000000000000000000000000000000000000600052601160045260246000fd5b600061374b82612dc3565b915061375683612dc3565b92508282101561376957613768613711565b5b828203905092915050565b600061377f82612dc3565b915061378a83612dc3565b9250827fffffffffffffffffffffffffffffffffffffffffffffffffffffffffffffffff038211156137bf576137be613711565b5b828201905092915050565b600081905092915050565b50565b60006137e56000836137ca565b91506137f0826137d5565b600082019050919050565b6000613806826137d8565b9150819050919050565b7f5472616e73666572206661696c65640000000000000000000000000000000000600082015250565b6000613846600f83612d13565b915061385182613810565b602082019050919050565b6000602082019050818103600083015261387581613839565b9050919050565b7f4552433732313a2063616c6c6572206973206e6f7420746f6b656e206f776e6560008201527f72206e6f7220617070726f766564000000000000000000000000000000000000602082015250565b60006138d8602e83612d13565b91506138e38261387c565b604082019050919050565b60006020820190508181036000830152613907816138cb565b9050919050565b7f4e6f7420617574686f72697a6564000000000000000000000000000000000000600082015250565b6000613944600e83612d13565b915061394f8261390e565b602082019050919050565b6000602082019050818103600083015261397381613937565b9050919050565b7f4552433732313a20696e76616c696420746f6b656e2049440000000000000000600082015250565b60006139b0601883612d13565b91506139bb8261397a565b602082019050919050565b600060208201905081810360008301526139df816139a3565b9050919050565b7f4552433732313a2061646472657373207a65726f206973206e6f74206120766160008201527f6c6964206f776e65720000000000000000000000000000000000000000000000602082015250565b6000613a42602983612d13565b9150613a4d826139e6565b604082019050919050565b60006020820190508181036000830152613a7181613a35565b9050919050565b7f506f6c696379206f6e6c7920616c6c6f7773206c617a79206d696e74696e6700600082015250565b6000613aae601f83612d13565b9150613ab982613a78565b602082019050919050565b60006020820190508181036000830152613add81613aa1565b9050919050565b7f5061757361626c653a2070617573656400000000000000000000000000000000600082015250565b6000613b1a601083612d13565b9150613b2582613ae4565b602082019050919050565b60006020820190508181036000830152613b4981613b0d565b9050919050565b60008083356001602003843603038112613b6d57613b6c61369f565b5b80840192508235915067ffffffffffffffff821115613b8f57613b8e6136a4565b5b602083019250600182023603831315613bab57613baa6136a9565b5b509250929050565b7f4552433732313a207472616e736665722066726f6d20696e636f72726563742060008201527f6f776e6572000000000000000000000000000000000000000000000000000000602082015250565b6000613c0f602583612d13565b9150613c1a82613bb3565b604082019050919050565b60006020820190508181036000830152613c3e81613c02565b9050919050565b7f4552433732313a207472616e7366657220746f20746865207a65726f2061646460008201527f7265737300000000000000000000000000000000000000000000000000000000602082015250565b6000613ca1602483612d13565b9150613cac82613c45565b604082019050919050565b60006020820190508181036000830152613cd081613c94565b9050919050565b6000613ce282612dc3565b9150613ced83612dc3565b9250817fffffffffffffffffffffffffffffffffffffffffffffffffffffffffffffffff0483118215151615613d2657613d25613711565b5b828202905092915050565b7f4e487b7100000000000000000000000000000000000000000000000000000000600052601260045260246000fd5b6000613d6b82612dc3565b9150613d7683612dc3565b925082613d8657613d85613d31565b5b828204905092915050565b7f4552433732313a206f70657261746f7220717565727920666f72206e6f6e657860008201527f697374656e7420746f6b656e0000000000000000000000000000000000000000602082015250565b6000613ded602c83612d13565b9150613df882613d91565b604082019050919050565b60006020820190508181036000830152613e1c81613de0565b9050919050565b7f4552433732313a20617070726f766520746f2063616c6c657200000000000000600082015250565b6000613e59601983612d13565b9150613e6482613e23565b602082019050919050565b60006020820190508181036000830152613e8881613e4c565b9050919050565b7f4552433732313a207472616e7366657220746f206e6f6e20455243373231526560008201527f63656976657220696d706c656d656e7465720000000000000000000000000000602082015250565b6000613eeb603283612d13565b9150613ef682613e8f565b604082019050919050565b60006020820190508181036000830152613f1a81613ede565b9050919050565b600081905092915050565b6000613f3782612d08565b613f418185613f21565b9350613f51818560208601612d24565b80840191505092915050565b6000613f698285613f2c565b9150613f758284613f2c565b91508190509392505050565b6000613f8d83856137ca565b9350613f9a8385846131ae565b82840190509392505050565b6000613fb3828486613f81565b91508190509392505050565b6000819050919050565b613fd281613fbf565b82525050565b6000608082019050613fed6000830187613fc9565b613ffa6020830186612e58565b6140076040830185612f6e565b6140146060830184613fc9565b95945050505050565b7f4552433732313a206d696e7420746f20746865207a65726f2061646472657373600082015250565b6000614053602083612d13565b915061405e8261401d565b602082019050919050565b6000602082019050818103600083015261408281614046565b9050919050565b7f4552433732313a20746f6b656e20616c7265616479206d696e74656400000000600082015250565b60006140bf601c83612d13565b91506140ca82614089565b602082019050919050565b600060208201905081810360008301526140ee816140b2565b9050919050565b7f45524337323155524953746f726167653a2055524920736574206f66206e6f6e60008201527f6578697374656e7420746f6b656e000000000000000000000000000000000000602082015250565b6000614151602e83612d13565b915061415c826140f5565b604082019050919050565b6000602082019050818103600083015261418081614144565b9050919050565b7f5061757361626c653a206e6f7420706175736564000000000000000000000000600082015250565b60006141bd601483612d13565b91506141c882614187565b602082019050919050565b600060208201905081810360008301526141ec816141b0565b9050919050565b600081519050919050565b600082825260208201905092915050565b600061421a826141f3565b61422481856141fe565b9350614234818560208601612d24565b61423d81612d57565b840191505092915050565b600060808201905061425d6000830187612e58565b61426a6020830186612e58565b6142776040830185612f6e565b8181036060830152614289818461420f565b905095945050505050565b6000815190506142a381612c79565b92915050565b6000602082840312156142bf576142be612c43565b5b60006142cd84828501614294565b91505092915050565b7f45434453413a20696e76616c6964207369676e61747572650000000000000000600082015250565b600061430c601883612d13565b9150614317826142d6565b602082019050919050565b6000602082019050818103600083015261433b816142ff565b9050919050565b7f45434453413a20696e76616c6964207369676e6174757265206c656e67746800600082015250565b6000614378601f83612d13565b915061438382614342565b602082019050919050565b600060208201905081810360008301526143a78161436b565b9050919050565b7f45434453413a20696e76616c6964207369676e6174757265202773272076616c60008201527f7565000000000000000000000000000000000000000000000000000000000000602082015250565b600061440a602283612d13565b9150614415826143ae565b604082019050919050565b60006020820190508181036000830152614439816143fd565b9050919050565b7f45434453413a20696e76616c6964207369676e6174757265202776272076616c60008201527f7565000000000000000000000000000000000000000000000000000000000000602082015250565b600061449c602283612d13565b91506144a782614440565b604082019050919050565b600060208201905081810360008301526144cb8161448f565b9050919050565b60006144dd82612dc3565b91507fffffffffffffffffffffffffffffffffffffffffffffffffffffffffffffffff8214156145105761450f613711565b5b600182019050919050565b600061452682612dc3565b915061453183612dc3565b92508261454157614540613d31565b5b828206905092915050565b7f4e487b7100000000000000000000000000000000000000000000000000000000600052603260045260246000fd5b7f1901000000000000000000000000000000000000000000000000000000000000600082015250565b60006145b1600283613f21565b91506145bc8261457b565b600282019050919050565b6000819050919050565b6145e26145dd82613fbf565b6145c7565b82525050565b60006145f3826145a4565b91506145ff82856145d1565b60208201915061460f82846145d1565b6020820191508190509392505050565b600060ff82169050919050565b6146358161461f565b82525050565b60006080820190506146506000830187613fc9565b61465d602083018661462c565b61466a6040830185613fc9565b6146776060830184613fc9565b95945050505050565b600060a0820190506146956000830188613fc9565b6146a26020830187613fc9565b6146af6040830186613fc9565b6146bc6060830185612f6e565b6146c96080830184612e58565b969550505050505056fea2646970667358221220d80e644f83fe4b9702772ab63568e7966aea0b805b82d56cbcf365197d3e9f6964736f6c63430008090033",
  "linkReferences": {},
  "deployedLinkReferences": {}
}