{
  "_format": "hh-sol-artifact-1",
  "contractName": "ArtongNFT",
  "sourceName": "contracts/ArtongNFT.sol",
  "abi": [
    {
      "inputs": [
        {
          "internalType": "string",
          "name": "_name",
          "type": "string"
        },
        {
          "internalType": "string",
          "name": "_symbol",
          "type": "string"
        },
        {
          "internalType": "address",
          "name": "_marketplace",
          "type": "address"
        },
        {
          "internalType": "uint16",
          "name": "_platformFee",
          "type": "uint16"
        },
        {
          "internalType": "address payable",
          "name": "_feeReceipient",
          "type": "address"
        },
        {
          "internalType": "uint256",
          "name": "_maxAmount",
          "type": "uint256"
        },
        {
          "internalType": "enum ArtongNFT.Policy",
          "name": "_policy",
          "type": "uint8"
        }
      ],
      "stateMutability": "nonpayable",
      "type": "constructor"
    },
    {
      "anonymous": false,
      "inputs": [
        {
          "indexed": true,
          "internalType": "address",
          "name": "owner",
          "type": "address"
        },
        {
          "indexed": true,
          "internalType": "address",
          "name": "approved",
          "type": "address"
        },
        {
          "indexed": true,
          "internalType": "uint256",
          "name": "tokenId",
          "type": "uint256"
        }
      ],
      "name": "Approval",
      "type": "event"
    },
    {
      "anonymous": false,
      "inputs": [
        {
          "indexed": true,
          "internalType": "address",
          "name": "owner",
          "type": "address"
        },
        {
          "indexed": true,
          "internalType": "address",
          "name": "operator",
          "type": "address"
        },
        {
          "indexed": false,
          "internalType": "bool",
          "name": "approved",
          "type": "bool"
        }
      ],
      "name": "ApprovalForAll",
      "type": "event"
    },
    {
      "anonymous": false,
      "inputs": [
        {
          "indexed": true,
          "internalType": "address",
          "name": "previousOwner",
          "type": "address"
        },
        {
          "indexed": true,
          "internalType": "address",
          "name": "newOwner",
          "type": "address"
        }
      ],
      "name": "OwnershipTransferred",
      "type": "event"
    },
    {
      "anonymous": false,
      "inputs": [
        {
          "indexed": false,
          "internalType": "address",
          "name": "account",
          "type": "address"
        }
      ],
      "name": "Paused",
      "type": "event"
    },
    {
      "anonymous": false,
      "inputs": [
        {
          "indexed": true,
          "internalType": "address",
          "name": "from",
          "type": "address"
        },
        {
          "indexed": true,
          "internalType": "address",
          "name": "to",
          "type": "address"
        },
        {
          "indexed": true,
          "internalType": "uint256",
          "name": "tokenId",
          "type": "uint256"
        }
      ],
      "name": "Transfer",
      "type": "event"
    },
    {
      "anonymous": false,
      "inputs": [
        {
          "indexed": false,
          "internalType": "address",
          "name": "account",
          "type": "address"
        }
      ],
      "name": "Unpaused",
      "type": "event"
    },
    {
      "inputs": [
        {
          "internalType": "address",
          "name": "to",
          "type": "address"
        },
        {
          "internalType": "uint256",
          "name": "tokenId",
          "type": "uint256"
        }
      ],
      "name": "approve",
      "outputs": [],
      "stateMutability": "nonpayable",
      "type": "function"
    },
    {
      "inputs": [
        {
          "internalType": "address",
          "name": "owner",
          "type": "address"
        }
      ],
      "name": "balanceOf",
      "outputs": [
        {
          "internalType": "uint256",
          "name": "",
          "type": "uint256"
        }
      ],
      "stateMutability": "view",
      "type": "function"
    },
    {
      "inputs": [
        {
          "internalType": "uint256",
          "name": "tokenId",
          "type": "uint256"
        }
      ],
      "name": "burn",
      "outputs": [],
      "stateMutability": "nonpayable",
      "type": "function"
    },
    {
      "inputs": [],
      "name": "feeReceipient",
      "outputs": [
        {
          "internalType": "address payable",
          "name": "",
          "type": "address"
        }
      ],
      "stateMutability": "view",
      "type": "function"
    },
    {
      "inputs": [
        {
          "internalType": "uint256",
          "name": "tokenId",
          "type": "uint256"
        }
      ],
      "name": "getApproved",
      "outputs": [
        {
          "internalType": "address",
          "name": "",
          "type": "address"
        }
      ],
      "stateMutability": "view",
      "type": "function"
    },
    {
      "inputs": [],
      "name": "getChainID",
      "outputs": [
        {
          "internalType": "uint256",
          "name": "",
          "type": "uint256"
        }
      ],
      "stateMutability": "view",
      "type": "function"
    },
    {
      "inputs": [],
      "name": "getWithdrawal",
      "outputs": [
        {
          "internalType": "uint256",
          "name": "",
          "type": "uint256"
        }
      ],
      "stateMutability": "view",
      "type": "function"
    },
    {
      "inputs": [
        {
          "internalType": "address",
          "name": "owner",
          "type": "address"
        },
        {
          "internalType": "address",
          "name": "operator",
          "type": "address"
        }
      ],
      "name": "isApprovedForAll",
      "outputs": [
        {
          "internalType": "bool",
          "name": "",
          "type": "bool"
        }
      ],
      "stateMutability": "view",
      "type": "function"
    },
    {
      "inputs": [],
      "name": "marketplace",
      "outputs": [
        {
          "internalType": "address",
          "name": "",
          "type": "address"
        }
      ],
      "stateMutability": "view",
      "type": "function"
    },
    {
      "inputs": [],
      "name": "maxAmount",
      "outputs": [
        {
          "internalType": "uint256",
          "name": "",
          "type": "uint256"
        }
      ],
      "stateMutability": "view",
      "type": "function"
    },
    {
      "inputs": [
        {
          "internalType": "address",
          "name": "_to",
          "type": "address"
        },
        {
          "internalType": "string",
          "name": "_tokenUri",
          "type": "string"
        }
      ],
      "name": "mint",
      "outputs": [
        {
          "internalType": "uint256",
          "name": "",
          "type": "uint256"
        }
      ],
      "stateMutability": "nonpayable",
      "type": "function"
    },
    {
      "inputs": [],
      "name": "name",
      "outputs": [
        {
          "internalType": "string",
          "name": "",
          "type": "string"
        }
      ],
      "stateMutability": "view",
      "type": "function"
    },
    {
      "inputs": [],
      "name": "owner",
      "outputs": [
        {
          "internalType": "address",
          "name": "",
          "type": "address"
        }
      ],
      "stateMutability": "view",
      "type": "function"
    },
    {
      "inputs": [
        {
          "internalType": "uint256",
          "name": "tokenId",
          "type": "uint256"
        }
      ],
      "name": "ownerOf",
      "outputs": [
        {
          "internalType": "address",
          "name": "",
          "type": "address"
        }
      ],
      "stateMutability": "view",
      "type": "function"
    },
    {
      "inputs": [],
      "name": "pause",
      "outputs": [],
      "stateMutability": "nonpayable",
      "type": "function"
    },
    {
      "inputs": [],
      "name": "paused",
      "outputs": [
        {
          "internalType": "bool",
          "name": "",
          "type": "bool"
        }
      ],
      "stateMutability": "view",
      "type": "function"
    },
    {
      "inputs": [],
      "name": "platformFee",
      "outputs": [
        {
          "internalType": "uint16",
          "name": "",
          "type": "uint16"
        }
      ],
      "stateMutability": "view",
      "type": "function"
    },
    {
      "inputs": [],
      "name": "policy",
      "outputs": [
        {
          "internalType": "enum ArtongNFT.Policy",
          "name": "",
          "type": "uint8"
        }
      ],
      "stateMutability": "view",
      "type": "function"
    },
    {
      "inputs": [
        {
          "internalType": "address",
          "name": "redeemer",
          "type": "address"
        },
        {
          "components": [
            {
              "internalType": "address",
              "name": "creator",
              "type": "address"
            },
            {
              "internalType": "uint256",
              "name": "minPrice",
              "type": "uint256"
            },
            {
              "internalType": "string",
              "name": "uri",
              "type": "string"
            },
            {
              "internalType": "bytes",
              "name": "signature",
              "type": "bytes"
            }
          ],
          "internalType": "struct ArtongNFT.NFTVoucher",
          "name": "voucher",
          "type": "tuple"
        }
      ],
      "name": "redeem",
      "outputs": [
        {
          "internalType": "uint256",
          "name": "",
          "type": "uint256"
        }
      ],
      "stateMutability": "payable",
      "type": "function"
    },
    {
      "inputs": [],
      "name": "renounceOwnership",
      "outputs": [],
      "stateMutability": "nonpayable",
      "type": "function"
    },
    {
      "inputs": [
        {
          "internalType": "address",
          "name": "from",
          "type": "address"
        },
        {
          "internalType": "address",
          "name": "to",
          "type": "address"
        },
        {
          "internalType": "uint256",
          "name": "tokenId",
          "type": "uint256"
        }
      ],
      "name": "safeTransferFrom",
      "outputs": [],
      "stateMutability": "nonpayable",
      "type": "function"
    },
    {
      "inputs": [
        {
          "internalType": "address",
          "name": "from",
          "type": "address"
        },
        {
          "internalType": "address",
          "name": "to",
          "type": "address"
        },
        {
          "internalType": "uint256",
          "name": "tokenId",
          "type": "uint256"
        },
        {
          "internalType": "bytes",
          "name": "data",
          "type": "bytes"
        }
      ],
      "name": "safeTransferFrom",
      "outputs": [],
      "stateMutability": "nonpayable",
      "type": "function"
    },
    {
      "inputs": [
        {
          "internalType": "address",
          "name": "operator",
          "type": "address"
        },
        {
          "internalType": "bool",
          "name": "approved",
          "type": "bool"
        }
      ],
      "name": "setApprovalForAll",
      "outputs": [],
      "stateMutability": "nonpayable",
      "type": "function"
    },
    {
      "inputs": [
        {
          "internalType": "enum ArtongNFT.Policy",
          "name": "_policy",
          "type": "uint8"
        }
      ],
      "name": "setPolicy",
      "outputs": [],
      "stateMutability": "nonpayable",
      "type": "function"
    },
    {
      "inputs": [
        {
          "internalType": "bytes4",
          "name": "interfaceId",
          "type": "bytes4"
        }
      ],
      "name": "supportsInterface",
      "outputs": [
        {
          "internalType": "bool",
          "name": "",
          "type": "bool"
        }
      ],
      "stateMutability": "view",
      "type": "function"
    },
    {
      "inputs": [],
      "name": "symbol",
      "outputs": [
        {
          "internalType": "string",
          "name": "",
          "type": "string"
        }
      ],
      "stateMutability": "view",
      "type": "function"
    },
    {
      "inputs": [
        {
          "internalType": "uint256",
          "name": "tokenId",
          "type": "uint256"
        }
      ],
      "name": "tokenURI",
      "outputs": [
        {
          "internalType": "string",
          "name": "",
          "type": "string"
        }
      ],
      "stateMutability": "view",
      "type": "function"
    },
    {
      "inputs": [
        {
          "internalType": "address",
          "name": "from",
          "type": "address"
        },
        {
          "internalType": "address",
          "name": "to",
          "type": "address"
        },
        {
          "internalType": "uint256",
          "name": "tokenId",
          "type": "uint256"
        }
      ],
      "name": "transferFrom",
      "outputs": [],
      "stateMutability": "nonpayable",
      "type": "function"
    },
    {
      "inputs": [
        {
          "internalType": "address",
          "name": "newOwner",
          "type": "address"
        }
      ],
      "name": "transferOwnership",
      "outputs": [],
      "stateMutability": "nonpayable",
      "type": "function"
    },
    {
      "inputs": [],
      "name": "unpause",
      "outputs": [],
      "stateMutability": "nonpayable",
      "type": "function"
    },
    {
      "inputs": [],
      "name": "withdraw",
      "outputs": [],
      "stateMutability": "nonpayable",
      "type": "function"
    }
  ],
  "bytecode": "0x6101606040523480156200001257600080fd5b506040516200566e3803806200566e83398181016040528101906200003891906200074c565b6040518060400160405280601181526020017f4172746f6e674e46542d566f75636865720000000000000000000000000000008152506040518060400160405280600181526020017f310000000000000000000000000000000000000000000000000000000000000081525088888160009080519060200190620000be929190620003b3565b508060019080519060200190620000d7929190620003b3565b50505060008280519060200120905060008280519060200120905060007f8b73c3c69bb8fe3d512ecc4cf759cc79239f7b179b0ffacaa9a75d522b39400f90508260e081815250508161010081815250504660a0818152505062000143818484620002a960201b60201c565b608081815250503073ffffffffffffffffffffffffffffffffffffffff1660c08173ffffffffffffffffffffffffffffffffffffffff168152505080610120818152505050505050506000600760006101000a81548160ff021916908315150217905550620001c7620001bb620002e560201b60201c565b620002ed60201b60201c565b84600960016101000a81548173ffffffffffffffffffffffffffffffffffffffff021916908373ffffffffffffffffffffffffffffffffffffffff16021790555083600960156101000a81548161ffff021916908361ffff16021790555082600a60006101000a81548173ffffffffffffffffffffffffffffffffffffffff021916908373ffffffffffffffffffffffffffffffffffffffff16021790555081610140818152505080600960006101000a81548160ff021916908360018111156200029757620002966200083d565b5b0217905550505050505050506200096b565b60008383834630604051602001620002c6959493929190620008a9565b6040516020818303038152906040528051906020012090509392505050565b600033905090565b6000600760019054906101000a900473ffffffffffffffffffffffffffffffffffffffff16905081600760016101000a81548173ffffffffffffffffffffffffffffffffffffffff021916908373ffffffffffffffffffffffffffffffffffffffff1602179055508173ffffffffffffffffffffffffffffffffffffffff168173ffffffffffffffffffffffffffffffffffffffff167f8be0079c531659141344cd1fd0a4f28419497f9722a3daafe3b4186f6b6457e060405160405180910390a35050565b828054620003c19062000935565b90600052602060002090601f016020900481019282620003e5576000855562000431565b82601f106200040057805160ff191683800117855562000431565b8280016001018555821562000431579182015b828111156200043057825182559160200191906001019062000413565b5b50905062000440919062000444565b5090565b5b808211156200045f57600081600090555060010162000445565b5090565b6000604051905090565b600080fd5b600080fd5b600080fd5b600080fd5b6000601f19601f8301169050919050565b7f4e487b7100000000000000000000000000000000000000000000000000000000600052604160045260246000fd5b620004cc8262000481565b810181811067ffffffffffffffff82111715620004ee57620004ed62000492565b5b80604052505050565b60006200050362000463565b9050620005118282620004c1565b919050565b600067ffffffffffffffff82111562000534576200053362000492565b5b6200053f8262000481565b9050602081019050919050565b60005b838110156200056c5780820151818401526020810190506200054f565b838111156200057c576000848401525b50505050565b600062000599620005938462000516565b620004f7565b905082815260208101848484011115620005b857620005b76200047c565b5b620005c58482856200054c565b509392505050565b600082601f830112620005e557620005e462000477565b5b8151620005f784826020860162000582565b91505092915050565b600073ffffffffffffffffffffffffffffffffffffffff82169050919050565b60006200062d8262000600565b9050919050565b6200063f8162000620565b81146200064b57600080fd5b50565b6000815190506200065f8162000634565b92915050565b600061ffff82169050919050565b6200067e8162000665565b81146200068a57600080fd5b50565b6000815190506200069e8162000673565b92915050565b6000620006b18262000600565b9050919050565b620006c381620006a4565b8114620006cf57600080fd5b50565b600081519050620006e381620006b8565b92915050565b6000819050919050565b620006fe81620006e9565b81146200070a57600080fd5b50565b6000815190506200071e81620006f3565b92915050565b600281106200073257600080fd5b50565b600081519050620007468162000724565b92915050565b600080600080600080600060e0888a0312156200076e576200076d6200046d565b5b600088015167ffffffffffffffff8111156200078f576200078e62000472565b5b6200079d8a828b01620005cd565b975050602088015167ffffffffffffffff811115620007c157620007c062000472565b5b620007cf8a828b01620005cd565b9650506040620007e28a828b016200064e565b9550506060620007f58a828b016200068d565b9450506080620008088a828b01620006d2565b93505060a06200081b8a828b016200070d565b92505060c06200082e8a828b0162000735565b91505092959891949750929550565b7f4e487b7100000000000000000000000000000000000000000000000000000000600052602160045260246000fd5b6000819050919050565b62000881816200086c565b82525050565b6200089281620006e9565b82525050565b620008a38162000620565b82525050565b600060a082019050620008c0600083018862000876565b620008cf602083018762000876565b620008de604083018662000876565b620008ed606083018562000887565b620008fc608083018462000898565b9695505050505050565b7f4e487b7100000000000000000000000000000000000000000000000000000000600052602260045260246000fd5b600060028204905060018216806200094e57607f821691505b6020821081141562000965576200096462000906565b5b50919050565b60805160a05160c05160e051610100516101205161014051614ca1620009cd60003960008181610f1701526116be01526000612ced01526000612d2f01526000612d0e01526000612c4301526000612c9901526000612cc20152614ca16000f3fe6080604052600436106101d85760003560e01c80635f48f3931161010257806395d89b4111610095578063c87b56dd11610064578063c87b56dd14610655578063d0def52114610692578063e985e9c5146106cf578063f2fde38b1461070c576101d8565b806395d89b41146105ad578063a22cb465146105d8578063abc8c7af14610601578063b88d4fde1461062c576101d8565b806374bce0bc116100d157806374bce0bc14610517578063806ad169146105405780638456cb591461056b5780638da5cb5b14610582576101d8565b80635f48f3931461045b5780636352211e1461048657806370a08231146104c3578063715018a614610500576101d8565b806326232a2e1161017a57806342842e0e1161014957806342842e0e146103b357806342966c68146103dc578063564b81ef146104055780635c975abb14610430576101d8565b806326232a2e1461032f5780633740ebb31461035a5780633ccfd60b146103855780633f4ba83a1461039c576101d8565b8063081812fc116101b6578063081812fc14610270578063095ea7b3146102ad57806311142552146102d657806323b872dd14610306576101d8565b806301ffc9a7146101dd5780630505c8c91461021a57806306fdde0314610245575b600080fd5b3480156101e957600080fd5b5061020460048036038101906101ff9190613081565b610735565b60405161021191906130c9565b60405180910390f35b34801561022657600080fd5b5061022f610817565b60405161023c919061315b565b60405180910390f35b34801561025157600080fd5b5061025a61082a565b604051610267919061320f565b60405180910390f35b34801561027c57600080fd5b5061029760048036038101906102929190613267565b6108bc565b6040516102a491906132d5565b60405180910390f35b3480156102b957600080fd5b506102d460048036038101906102cf919061331c565b610902565b005b6102f060048036038101906102eb9190613380565b610a1a565b6040516102fd91906133eb565b60405180910390f35b34801561031257600080fd5b5061032d60048036038101906103289190613406565b610c8c565b005b34801561033b57600080fd5b50610344610cec565b6040516103519190613476565b60405180910390f35b34801561036657600080fd5b5061036f610d00565b60405161037c91906134b2565b60405180910390f35b34801561039157600080fd5b5061039a610d26565b005b3480156103a857600080fd5b506103b1610e22565b005b3480156103bf57600080fd5b506103da60048036038101906103d59190613406565b610e75565b005b3480156103e857600080fd5b5061040360048036038101906103fe9190613267565b610e95565b005b34801561041157600080fd5b5061041a610ef1565b60405161042791906133eb565b60405180910390f35b34801561043c57600080fd5b50610445610efe565b60405161045291906130c9565b60405180910390f35b34801561046757600080fd5b50610470610f15565b60405161047d91906133eb565b60405180910390f35b34801561049257600080fd5b506104ad60048036038101906104a89190613267565b610f39565b6040516104ba91906132d5565b60405180910390f35b3480156104cf57600080fd5b506104ea60048036038101906104e591906134cd565b610feb565b6040516104f791906133eb565b60405180910390f35b34801561050c57600080fd5b506105156110a3565b005b34801561052357600080fd5b5061053e6004803603810190610539919061351f565b6110b7565b005b34801561054c57600080fd5b506105556110ec565b60405161056291906133eb565b60405180910390f35b34801561057757600080fd5b50610580611133565b005b34801561058e57600080fd5b50610597611186565b6040516105a491906132d5565b60405180910390f35b3480156105b957600080fd5b506105c26111b0565b6040516105cf919061320f565b60405180910390f35b3480156105e457600080fd5b506105ff60048036038101906105fa9190613578565b611242565b005b34801561060d57600080fd5b50610616611258565b60405161062391906132d5565b60405180910390f35b34801561063857600080fd5b50610653600480360381019061064e91906136ed565b61127e565b005b34801561066157600080fd5b5061067c60048036038101906106779190613267565b6112e0565b604051610689919061320f565b60405180910390f35b34801561069e57600080fd5b506106b960048036038101906106b491906137d0565b6112f2565b6040516106c691906133eb565b60405180910390f35b3480156106db57600080fd5b506106f660048036038101906106f19190613830565b611386565b60405161070391906130c9565b60405180910390f35b34801561071857600080fd5b50610733600480360381019061072e91906134cd565b6113fa565b005b60007f80ac58cd000000000000000000000000000000000000000000000000000000007bffffffffffffffffffffffffffffffffffffffffffffffffffffffff1916827bffffffffffffffffffffffffffffffffffffffffffffffffffffffff1916148061080057507f5b5e139f000000000000000000000000000000000000000000000000000000007bffffffffffffffffffffffffffffffffffffffffffffffffffffffff1916827bffffffffffffffffffffffffffffffffffffffffffffffffffffffff1916145b80610810575061080f8261147e565b5b9050919050565b600960009054906101000a900460ff1681565b6060600080546108399061389f565b80601f01602080910402602001604051908101604052809291908181526020018280546108659061389f565b80156108b25780601f10610887576101008083540402835291602001916108b2565b820191906000526020600020905b81548152906001019060200180831161089557829003601f168201915b5050505050905090565b60006108c7826114e8565b6004600083815260200190815260200160002060009054906101000a900473ffffffffffffffffffffffffffffffffffffffff169050919050565b600061090d82610f39565b90508073ffffffffffffffffffffffffffffffffffffffff168373ffffffffffffffffffffffffffffffffffffffff16141561097e576040517f08c379a000000000000000000000000000000000000000000000000000000000815260040161097590613943565b60405180910390fd5b8073ffffffffffffffffffffffffffffffffffffffff1661099d611533565b73ffffffffffffffffffffffffffffffffffffffff1614806109cc57506109cb816109c6611533565b611386565b5b610a0b576040517f08c379a0000000000000000000000000000000000000000000000000000000008152600401610a02906139d5565b60405180910390fd5b610a15838361153b565b505050565b6000610a246115f4565b6000610a2f8361163e565b9050826000016020810190610a4491906134cd565b73ffffffffffffffffffffffffffffffffffffffff168173ffffffffffffffffffffffffffffffffffffffff1614610ab1576040517f08c379a0000000000000000000000000000000000000000000000000000000008152600401610aa890613a41565b60405180910390fd5b8260200135341015610af8576040517f08c379a0000000000000000000000000000000000000000000000000000000008152600401610aef90613aad565b60405180910390fd5b6000610b25846000016020810190610b1091906134cd565b858060400190610b209190613adc565b6116b0565b9050610b44846000016020810190610b3d91906134cd565b8683611798565b6000610b4e6119ff565b90508034610b5c9190613b6e565b600b60008573ffffffffffffffffffffffffffffffffffffffff1673ffffffffffffffffffffffffffffffffffffffff1681526020019081526020016000206000828254610baa9190613ba2565b925050819055506000600a60009054906101000a900473ffffffffffffffffffffffffffffffffffffffff1673ffffffffffffffffffffffffffffffffffffffff1682604051610bf990613c29565b60006040518083038185875af1925050503d8060008114610c36576040519150601f19603f3d011682016040523d82523d6000602084013e610c3b565b606091505b5050905080610c7f576040517f08c379a0000000000000000000000000000000000000000000000000000000008152600401610c7690613c8a565b60405180910390fd5b8294505050505092915050565b610c9d610c97611533565b82611a33565b610cdc576040517f08c379a0000000000000000000000000000000000000000000000000000000008152600401610cd390613d1c565b60405180910390fd5b610ce7838383611798565b505050565b600960159054906101000a900461ffff1681565b600a60009054906101000a900473ffffffffffffffffffffffffffffffffffffffff1681565b610d2e6115f4565b6000600b60003373ffffffffffffffffffffffffffffffffffffffff1673ffffffffffffffffffffffffffffffffffffffff1681526020019081526020016000205490506000811415610d8057600080fd5b80471015610d8d57600080fd5b60003390506000600b60003373ffffffffffffffffffffffffffffffffffffffff1673ffffffffffffffffffffffffffffffffffffffff168152602001908152602001600020819055508073ffffffffffffffffffffffffffffffffffffffff166108fc839081150290604051600060405180830381858888f19350505050158015610e1d573d6000803e3d6000fd5b505050565b610e2c3333611386565b610e6b576040517f08c379a0000000000000000000000000000000000000000000000000000000008152600401610e6290613d88565b60405180910390fd5b610e73611ab7565b565b610e908383836040518060200160405280600081525061127e565b505050565b610ea6610ea0611533565b82611a33565b610ee5576040517f08c379a0000000000000000000000000000000000000000000000000000000008152600401610edc90613d1c565b60405180910390fd5b610eee81611b1a565b50565b6000804690508091505090565b6000600760009054906101000a900460ff16905090565b7f000000000000000000000000000000000000000000000000000000000000000081565b6000806002600084815260200190815260200160002060009054906101000a900473ffffffffffffffffffffffffffffffffffffffff169050600073ffffffffffffffffffffffffffffffffffffffff168173ffffffffffffffffffffffffffffffffffffffff161415610fe2576040517f08c379a0000000000000000000000000000000000000000000000000000000008152600401610fd990613df4565b60405180910390fd5b80915050919050565b60008073ffffffffffffffffffffffffffffffffffffffff168273ffffffffffffffffffffffffffffffffffffffff16141561105c576040517f08c379a000000000000000000000000000000000000000000000000000000000815260040161105390613e86565b60405180910390fd5b600360008373ffffffffffffffffffffffffffffffffffffffff1673ffffffffffffffffffffffffffffffffffffffff168152602001908152602001600020549050919050565b6110ab611b26565b6110b56000611ba4565b565b6110bf611b26565b80600960006101000a81548160ff021916908360018111156110e4576110e36130e4565b5b021790555050565b6000600b60003373ffffffffffffffffffffffffffffffffffffffff1673ffffffffffffffffffffffffffffffffffffffff16815260200190815260200160002054905090565b61113d3333611386565b61117c576040517f08c379a000000000000000000000000000000000000000000000000000000000815260040161117390613d88565b60405180910390fd5b611184611c6a565b565b6000600760019054906101000a900473ffffffffffffffffffffffffffffffffffffffff16905090565b6060600180546111bf9061389f565b80601f01602080910402602001604051908101604052809291908181526020018280546111eb9061389f565b80156112385780601f1061120d57610100808354040283529160200191611238565b820191906000526020600020905b81548152906001019060200180831161121b57829003601f168201915b5050505050905090565b61125461124d611533565b8383611ccd565b5050565b600960019054906101000a900473ffffffffffffffffffffffffffffffffffffffff1681565b61128f611289611533565b83611a33565b6112ce576040517f08c379a00000000000000000000000000000000000000000000000000000000081526004016112c590613d1c565b60405180910390fd5b6112da84848484611e3a565b50505050565b60606112eb82611e96565b9050919050565b60006112fc6115f4565b600060018111156113105761130f6130e4565b5b600960009054906101000a900460ff166001811115611332576113316130e4565b5b14611372576040517f08c379a000000000000000000000000000000000000000000000000000000000815260040161136990613ef2565b60405180910390fd5b61137d8484846116b0565b90509392505050565b60008173ffffffffffffffffffffffffffffffffffffffff16600960019054906101000a900473ffffffffffffffffffffffffffffffffffffffff1673ffffffffffffffffffffffffffffffffffffffff1614156113e757600190506113f4565b6113f18383611fa9565b90505b92915050565b611402611b26565b600073ffffffffffffffffffffffffffffffffffffffff168173ffffffffffffffffffffffffffffffffffffffff161415611472576040517f08c379a000000000000000000000000000000000000000000000000000000000815260040161146990613f84565b60405180910390fd5b61147b81611ba4565b50565b60007f01ffc9a7000000000000000000000000000000000000000000000000000000007bffffffffffffffffffffffffffffffffffffffffffffffffffffffff1916827bffffffffffffffffffffffffffffffffffffffffffffffffffffffff1916149050919050565b6114f18161203d565b611530576040517f08c379a000000000000000000000000000000000000000000000000000000000815260040161152790613df4565b60405180910390fd5b50565b600033905090565b816004600083815260200190815260200160002060006101000a81548173ffffffffffffffffffffffffffffffffffffffff021916908373ffffffffffffffffffffffffffffffffffffffff160217905550808273ffffffffffffffffffffffffffffffffffffffff166115ae83610f39565b73ffffffffffffffffffffffffffffffffffffffff167f8c5be1e5ebec7d5bd14f71427d1e84f3dd0314c0f7b2291e5b200ac8c7c3b92560405160405180910390a45050565b6115fc610efe565b1561163c576040517f08c379a000000000000000000000000000000000000000000000000000000000815260040161163390613ff0565b60405180910390fd5b565b60008061164a836120a9565b90506116a8818480606001906116609190614010565b8080601f016020809104026020016040519081016040528093929190818152602001838380828437600081840152601f19601f82011690508083019250505050505050612142565b915050919050565b60006116bc6008612169565b7f00000000000000000000000000000000000000000000000000000000000000001161171d576040517f08c379a0000000000000000000000000000000000000000000000000000000008152600401611714906140bf565b60405180910390fd5b6117276008612177565b60006117336008612169565b905061173f858261218d565b61178d8185858080601f016020809104026020016040519081016040528093929190818152602001838380828437600081840152601f19601f82011690508083019250505050505050612367565b809150509392505050565b8273ffffffffffffffffffffffffffffffffffffffff166117b882610f39565b73ffffffffffffffffffffffffffffffffffffffff161461180e576040517f08c379a000000000000000000000000000000000000000000000000000000000815260040161180590614151565b60405180910390fd5b600073ffffffffffffffffffffffffffffffffffffffff168273ffffffffffffffffffffffffffffffffffffffff16141561187e576040517f08c379a0000000000000000000000000000000000000000000000000000000008152600401611875906141e3565b60405180910390fd5b6118898383836123db565b61189460008261153b565b6001600360008573ffffffffffffffffffffffffffffffffffffffff1673ffffffffffffffffffffffffffffffffffffffff16815260200190815260200160002060008282546118e49190613b6e565b925050819055506001600360008473ffffffffffffffffffffffffffffffffffffffff1673ffffffffffffffffffffffffffffffffffffffff168152602001908152602001600020600082825461193b9190613ba2565b92505081905550816002600083815260200190815260200160002060006101000a81548173ffffffffffffffffffffffffffffffffffffffff021916908373ffffffffffffffffffffffffffffffffffffffff160217905550808273ffffffffffffffffffffffffffffffffffffffff168473ffffffffffffffffffffffffffffffffffffffff167fddf252ad1be2c89b69c2b068fc378daa952ba7f163c4a11628f55a4df523b3ef60405160405180910390a46119fa8383836123e0565b505050565b6000612710600960159054906101000a900461ffff1661ffff1634611a249190614203565b611a2e919061428c565b905090565b6000611a3e8261203d565b611a7d576040517f08c379a0000000000000000000000000000000000000000000000000000000008152600401611a749061432f565b60405180910390fd5b6000611a8883610f39565b9050611a948185611386565b15611aa3576001915050611ab1565b611aad84846123e5565b9150505b92915050565b611abf61247a565b6000600760006101000a81548160ff0219169083151502179055507f5db9ee0a495bf2e6ff9c91a7834c1ba4fdd244a5e8aa4e537bd38aeae4b073aa611b03611533565b604051611b1091906132d5565b60405180910390a1565b611b23816124c3565b50565b611b2e611533565b73ffffffffffffffffffffffffffffffffffffffff16611b4c611186565b73ffffffffffffffffffffffffffffffffffffffff1614611ba2576040517f08c379a0000000000000000000000000000000000000000000000000000000008152600401611b999061439b565b60405180910390fd5b565b6000600760019054906101000a900473ffffffffffffffffffffffffffffffffffffffff16905081600760016101000a81548173ffffffffffffffffffffffffffffffffffffffff021916908373ffffffffffffffffffffffffffffffffffffffff1602179055508173ffffffffffffffffffffffffffffffffffffffff168173ffffffffffffffffffffffffffffffffffffffff167f8be0079c531659141344cd1fd0a4f28419497f9722a3daafe3b4186f6b6457e060405160405180910390a35050565b611c726115f4565b6001600760006101000a81548160ff0219169083151502179055507f62e78cea01bee320cd4e420270b5ea74000d11b0c9f74754ebdbfc544b05a258611cb6611533565b604051611cc391906132d5565b60405180910390a1565b8173ffffffffffffffffffffffffffffffffffffffff168373ffffffffffffffffffffffffffffffffffffffff161415611d3c576040517f08c379a0000000000000000000000000000000000000000000000000000000008152600401611d3390614407565b60405180910390fd5b80600560008573ffffffffffffffffffffffffffffffffffffffff1673ffffffffffffffffffffffffffffffffffffffff16815260200190815260200160002060008473ffffffffffffffffffffffffffffffffffffffff1673ffffffffffffffffffffffffffffffffffffffff16815260200190815260200160002060006101000a81548160ff0219169083151502179055508173ffffffffffffffffffffffffffffffffffffffff168373ffffffffffffffffffffffffffffffffffffffff167f17307eab39ab6107e8899845ad3d59bd9653f200f220920489ca2b5937696c3183604051611e2d91906130c9565b60405180910390a3505050565b611e45848484611798565b611e5184848484612516565b611e90576040517f08c379a0000000000000000000000000000000000000000000000000000000008152600401611e8790614499565b60405180910390fd5b50505050565b6060611ea1826114e8565b6000600660008481526020019081526020016000208054611ec19061389f565b80601f0160208091040260200160405190810160405280929190818152602001828054611eed9061389f565b8015611f3a5780601f10611f0f57610100808354040283529160200191611f3a565b820191906000526020600020905b815481529060010190602001808311611f1d57829003601f168201915b505050505090506000611f4b6126ad565b9050600081511415611f61578192505050611fa4565b600082511115611f96578082604051602001611f7e9291906144f5565b60405160208183030381529060405292505050611fa4565b611f9f846126c4565b925050505b919050565b6000600560008473ffffffffffffffffffffffffffffffffffffffff1673ffffffffffffffffffffffffffffffffffffffff16815260200190815260200160002060008373ffffffffffffffffffffffffffffffffffffffff1673ffffffffffffffffffffffffffffffffffffffff16815260200190815260200160002060009054906101000a900460ff16905092915050565b60008073ffffffffffffffffffffffffffffffffffffffff166002600084815260200190815260200160002060009054906101000a900473ffffffffffffffffffffffffffffffffffffffff1673ffffffffffffffffffffffffffffffffffffffff1614159050919050565b600061213b7fe2c1fe55ff75bc6c0f1e92db9b907c57038a5f95f7c137ff4bf9e10a15bc3d018360000160208101906120e291906134cd565b84602001358580604001906120f79190613adc565b60405161210592919061453e565b60405180910390206040516020016121209493929190614570565b6040516020818303038152906040528051906020012061272c565b9050919050565b60008060006121518585612746565b9150915061215e816127c9565b819250505092915050565b600081600001549050919050565b6001816000016000828254019250508190555050565b600073ffffffffffffffffffffffffffffffffffffffff168273ffffffffffffffffffffffffffffffffffffffff1614156121fd576040517f08c379a00000000000000000000000000000000000000000000000000000000081526004016121f490614601565b60405180910390fd5b6122068161203d565b15612246576040517f08c379a000000000000000000000000000000000000000000000000000000000815260040161223d9061466d565b60405180910390fd5b612252600083836123db565b6001600360008473ffffffffffffffffffffffffffffffffffffffff1673ffffffffffffffffffffffffffffffffffffffff16815260200190815260200160002060008282546122a29190613ba2565b92505081905550816002600083815260200190815260200160002060006101000a81548173ffffffffffffffffffffffffffffffffffffffff021916908373ffffffffffffffffffffffffffffffffffffffff160217905550808273ffffffffffffffffffffffffffffffffffffffff16600073ffffffffffffffffffffffffffffffffffffffff167fddf252ad1be2c89b69c2b068fc378daa952ba7f163c4a11628f55a4df523b3ef60405160405180910390a4612363600083836123e0565b5050565b6123708261203d565b6123af576040517f08c379a00000000000000000000000000000000000000000000000000000000081526004016123a6906146ff565b60405180910390fd5b806006600084815260200190815260200160002090805190602001906123d6929190612f32565b505050565b505050565b505050565b6000806123f183610f39565b90508073ffffffffffffffffffffffffffffffffffffffff168473ffffffffffffffffffffffffffffffffffffffff16148061243357506124328185611386565b5b8061247157508373ffffffffffffffffffffffffffffffffffffffff16612459846108bc565b73ffffffffffffffffffffffffffffffffffffffff16145b91505092915050565b612482610efe565b6124c1576040517f08c379a00000000000000000000000000000000000000000000000000000000081526004016124b89061476b565b60405180910390fd5b565b6124cc8161299e565b60006006600083815260200190815260200160002080546124ec9061389f565b905014612513576006600082815260200190815260200160002060006125129190612fb8565b5b50565b60006125378473ffffffffffffffffffffffffffffffffffffffff16612abb565b156126a0578373ffffffffffffffffffffffffffffffffffffffff1663150b7a02612560611533565b8786866040518563ffffffff1660e01b815260040161258294939291906147e0565b602060405180830381600087803b15801561259c57600080fd5b505af19250505080156125cd57506040513d601f19601f820116820180604052508101906125ca9190614841565b60015b612650573d80600081146125fd576040519150601f19603f3d011682016040523d82523d6000602084013e612602565b606091505b50600081511415612648576040517f08c379a000000000000000000000000000000000000000000000000000000000815260040161263f90614499565b60405180910390fd5b805181602001fd5b63150b7a0260e01b7bffffffffffffffffffffffffffffffffffffffffffffffffffffffff1916817bffffffffffffffffffffffffffffffffffffffffffffffffffffffff1916149150506126a5565b600190505b949350505050565b606060405180602001604052806000815250905090565b60606126cf826114e8565b60006126d96126ad565b905060008151116126f95760405180602001604052806000815250612724565b8061270384612ade565b6040516020016127149291906144f5565b6040516020818303038152906040525b915050919050565b600061273f612739612c3f565b83612d59565b9050919050565b6000806041835114156127885760008060006020860151925060408601519150606086015160001a905061277c87828585612d8c565b945094505050506127c2565b6040835114156127b95760008060208501519150604085015190506127ae868383612e99565b9350935050506127c2565b60006002915091505b9250929050565b600060048111156127dd576127dc6130e4565b5b8160048111156127f0576127ef6130e4565b5b14156127fb5761299b565b6001600481111561280f5761280e6130e4565b5b816004811115612822576128216130e4565b5b1415612863576040517f08c379a000000000000000000000000000000000000000000000000000000000815260040161285a906148ba565b60405180910390fd5b60026004811115612877576128766130e4565b5b81600481111561288a576128896130e4565b5b14156128cb576040517f08c379a00000000000000000000000000000000000000000000000000000000081526004016128c290614926565b60405180910390fd5b600360048111156128df576128de6130e4565b5b8160048111156128f2576128f16130e4565b5b1415612933576040517f08c379a000000000000000000000000000000000000000000000000000000000815260040161292a906149b8565b60405180910390fd5b600480811115612946576129456130e4565b5b816004811115612959576129586130e4565b5b141561299a576040517f08c379a000000000000000000000000000000000000000000000000000000000815260040161299190614a4a565b60405180910390fd5b5b50565b60006129a982610f39565b90506129b7816000846123db565b6129c260008361153b565b6001600360008373ffffffffffffffffffffffffffffffffffffffff1673ffffffffffffffffffffffffffffffffffffffff1681526020019081526020016000206000828254612a129190613b6e565b925050819055506002600083815260200190815260200160002060006101000a81549073ffffffffffffffffffffffffffffffffffffffff021916905581600073ffffffffffffffffffffffffffffffffffffffff168273ffffffffffffffffffffffffffffffffffffffff167fddf252ad1be2c89b69c2b068fc378daa952ba7f163c4a11628f55a4df523b3ef60405160405180910390a4612ab7816000846123e0565b5050565b6000808273ffffffffffffffffffffffffffffffffffffffff163b119050919050565b60606000821415612b26576040518060400160405280600181526020017f30000000000000000000000000000000000000000000000000000000000000008152509050612c3a565b600082905060005b60008214612b58578080612b4190614a6a565b915050600a82612b51919061428c565b9150612b2e565b60008167ffffffffffffffff811115612b7457612b736135c2565b5b6040519080825280601f01601f191660200182016040528015612ba65781602001600182028036833780820191505090505b5090505b60008514612c3357600182612bbf9190613b6e565b9150600a85612bce9190614ab3565b6030612bda9190613ba2565b60f81b818381518110612bf057612bef614ae4565b5b60200101907effffffffffffffffffffffffffffffffffffffffffffffffffffffffffffff1916908160001a905350600a85612c2c919061428c565b9450612baa565b8093505050505b919050565b60007f000000000000000000000000000000000000000000000000000000000000000073ffffffffffffffffffffffffffffffffffffffff163073ffffffffffffffffffffffffffffffffffffffff16148015612cbb57507f000000000000000000000000000000000000000000000000000000000000000046145b15612ce8577f00000000000000000000000000000000000000000000000000000000000000009050612d56565b612d537f00000000000000000000000000000000000000000000000000000000000000007f00000000000000000000000000000000000000000000000000000000000000007f0000000000000000000000000000000000000000000000000000000000000000612ef8565b90505b90565b60008282604051602001612d6e929190614b80565b60405160208183030381529060405280519060200120905092915050565b6000807f7fffffffffffffffffffffffffffffff5d576e7357a4501ddfe92f46681b20a08360001c1115612dc7576000600391509150612e90565b601b8560ff1614158015612ddf5750601c8560ff1614155b15612df1576000600491509150612e90565b600060018787878760405160008152602001604052604051612e169493929190614bd3565b6020604051602081039080840390855afa158015612e38573d6000803e3d6000fd5b505050602060405103519050600073ffffffffffffffffffffffffffffffffffffffff168173ffffffffffffffffffffffffffffffffffffffff161415612e8757600060019250925050612e90565b80600092509250505b94509492505050565b60008060007f7fffffffffffffffffffffffffffffffffffffffffffffffffffffffffffffff60001b841690506000601b60ff8660001c901c612edc9190613ba2565b9050612eea87828885612d8c565b935093505050935093915050565b60008383834630604051602001612f13959493929190614c18565b6040516020818303038152906040528051906020012090509392505050565b828054612f3e9061389f565b90600052602060002090601f016020900481019282612f605760008555612fa7565b82601f10612f7957805160ff1916838001178555612fa7565b82800160010185558215612fa7579182015b82811115612fa6578251825591602001919060010190612f8b565b5b509050612fb49190612ff8565b5090565b508054612fc49061389f565b6000825580601f10612fd65750612ff5565b601f016020900490600052602060002090810190612ff49190612ff8565b5b50565b5b80821115613011576000816000905550600101612ff9565b5090565b6000604051905090565b600080fd5b600080fd5b60007fffffffff0000000000000000000000000000000000000000000000000000000082169050919050565b61305e81613029565b811461306957600080fd5b50565b60008135905061307b81613055565b92915050565b6000602082840312156130975761309661301f565b5b60006130a58482850161306c565b91505092915050565b60008115159050919050565b6130c3816130ae565b82525050565b60006020820190506130de60008301846130ba565b92915050565b7f4e487b7100000000000000000000000000000000000000000000000000000000600052602160045260246000fd5b60028110613124576131236130e4565b5b50565b600081905061313582613113565b919050565b600061314582613127565b9050919050565b6131558161313a565b82525050565b6000602082019050613170600083018461314c565b92915050565b600081519050919050565b600082825260208201905092915050565b60005b838110156131b0578082015181840152602081019050613195565b838111156131bf576000848401525b50505050565b6000601f19601f8301169050919050565b60006131e182613176565b6131eb8185613181565b93506131fb818560208601613192565b613204816131c5565b840191505092915050565b6000602082019050818103600083015261322981846131d6565b905092915050565b6000819050919050565b61324481613231565b811461324f57600080fd5b50565b6000813590506132618161323b565b92915050565b60006020828403121561327d5761327c61301f565b5b600061328b84828501613252565b91505092915050565b600073ffffffffffffffffffffffffffffffffffffffff82169050919050565b60006132bf82613294565b9050919050565b6132cf816132b4565b82525050565b60006020820190506132ea60008301846132c6565b92915050565b6132f9816132b4565b811461330457600080fd5b50565b600081359050613316816132f0565b92915050565b600080604083850312156133335761333261301f565b5b600061334185828601613307565b925050602061335285828601613252565b9150509250929050565b600080fd5b6000608082840312156133775761337661335c565b5b81905092915050565b600080604083850312156133975761339661301f565b5b60006133a585828601613307565b925050602083013567ffffffffffffffff8111156133c6576133c5613024565b5b6133d285828601613361565b9150509250929050565b6133e581613231565b82525050565b600060208201905061340060008301846133dc565b92915050565b60008060006060848603121561341f5761341e61301f565b5b600061342d86828701613307565b935050602061343e86828701613307565b925050604061344f86828701613252565b9150509250925092565b600061ffff82169050919050565b61347081613459565b82525050565b600060208201905061348b6000830184613467565b92915050565b600061349c82613294565b9050919050565b6134ac81613491565b82525050565b60006020820190506134c760008301846134a3565b92915050565b6000602082840312156134e3576134e261301f565b5b60006134f184828501613307565b91505092915050565b6002811061350757600080fd5b50565b600081359050613519816134fa565b92915050565b6000602082840312156135355761353461301f565b5b60006135438482850161350a565b91505092915050565b613555816130ae565b811461356057600080fd5b50565b6000813590506135728161354c565b92915050565b6000806040838503121561358f5761358e61301f565b5b600061359d85828601613307565b92505060206135ae85828601613563565b9150509250929050565b600080fd5b600080fd5b7f4e487b7100000000000000000000000000000000000000000000000000000000600052604160045260246000fd5b6135fa826131c5565b810181811067ffffffffffffffff82111715613619576136186135c2565b5b80604052505050565b600061362c613015565b905061363882826135f1565b919050565b600067ffffffffffffffff821115613658576136576135c2565b5b613661826131c5565b9050602081019050919050565b82818337600083830152505050565b600061369061368b8461363d565b613622565b9050828152602081018484840111156136ac576136ab6135bd565b5b6136b784828561366e565b509392505050565b600082601f8301126136d4576136d36135b8565b5b81356136e484826020860161367d565b91505092915050565b600080600080608085870312156137075761370661301f565b5b600061371587828801613307565b945050602061372687828801613307565b935050604061373787828801613252565b925050606085013567ffffffffffffffff81111561375857613757613024565b5b613764878288016136bf565b91505092959194509250565b600080fd5b600080fd5b60008083601f8401126137905761378f6135b8565b5b8235905067ffffffffffffffff8111156137ad576137ac613770565b5b6020830191508360018202830111156137c9576137c8613775565b5b9250929050565b6000806000604084860312156137e9576137e861301f565b5b60006137f786828701613307565b935050602084013567ffffffffffffffff81111561381857613817613024565b5b6138248682870161377a565b92509250509250925092565b600080604083850312156138475761384661301f565b5b600061385585828601613307565b925050602061386685828601613307565b9150509250929050565b7f4e487b7100000000000000000000000000000000000000000000000000000000600052602260045260246000fd5b600060028204905060018216806138b757607f821691505b602082108114156138cb576138ca613870565b5b50919050565b7f4552433732313a20617070726f76616c20746f2063757272656e74206f776e6560008201527f7200000000000000000000000000000000000000000000000000000000000000602082015250565b600061392d602183613181565b9150613938826138d1565b604082019050919050565b6000602082019050818103600083015261395c81613920565b9050919050565b7f4552433732313a20617070726f76652063616c6c6572206973206e6f7420746f60008201527f6b656e206f776e6572206e6f7220617070726f76656420666f7220616c6c0000602082015250565b60006139bf603e83613181565b91506139ca82613963565b604082019050919050565b600060208201905081810360008301526139ee816139b2565b9050919050565b7f5369676e617475726520696e76616c6964000000000000000000000000000000600082015250565b6000613a2b601183613181565b9150613a36826139f5565b602082019050919050565b60006020820190508181036000830152613a5a81613a1e565b9050919050565b7f496e73756666696369656e742066756e647320746f2072656465656d00000000600082015250565b6000613a97601c83613181565b9150613aa282613a61565b602082019050919050565b60006020820190508181036000830152613ac681613a8a565b9050919050565b600080fd5b600080fd5b600080fd5b60008083356001602003843603038112613af957613af8613acd565b5b80840192508235915067ffffffffffffffff821115613b1b57613b1a613ad2565b5b602083019250600182023603831315613b3757613b36613ad7565b5b509250929050565b7f4e487b7100000000000000000000000000000000000000000000000000000000600052601160045260246000fd5b6000613b7982613231565b9150613b8483613231565b925082821015613b9757613b96613b3f565b5b828203905092915050565b6000613bad82613231565b9150613bb883613231565b9250827fffffffffffffffffffffffffffffffffffffffffffffffffffffffffffffffff03821115613bed57613bec613b3f565b5b828201905092915050565b600081905092915050565b50565b6000613c13600083613bf8565b9150613c1e82613c03565b600082019050919050565b6000613c3482613c06565b9150819050919050565b7f5472616e73666572206661696c65640000000000000000000000000000000000600082015250565b6000613c74600f83613181565b9150613c7f82613c3e565b602082019050919050565b60006020820190508181036000830152613ca381613c67565b9050919050565b7f4552433732313a2063616c6c6572206973206e6f7420746f6b656e206f776e6560008201527f72206e6f7220617070726f766564000000000000000000000000000000000000602082015250565b6000613d06602e83613181565b9150613d1182613caa565b604082019050919050565b60006020820190508181036000830152613d3581613cf9565b9050919050565b7f4e6f7420617574686f72697a6564000000000000000000000000000000000000600082015250565b6000613d72600e83613181565b9150613d7d82613d3c565b602082019050919050565b60006020820190508181036000830152613da181613d65565b9050919050565b7f4552433732313a20696e76616c696420746f6b656e2049440000000000000000600082015250565b6000613dde601883613181565b9150613de982613da8565b602082019050919050565b60006020820190508181036000830152613e0d81613dd1565b9050919050565b7f4552433732313a2061646472657373207a65726f206973206e6f74206120766160008201527f6c6964206f776e65720000000000000000000000000000000000000000000000602082015250565b6000613e70602983613181565b9150613e7b82613e14565b604082019050919050565b60006020820190508181036000830152613e9f81613e63565b9050919050565b7f506f6c696379206f6e6c7920616c6c6f7773206c617a79206d696e74696e6700600082015250565b6000613edc601f83613181565b9150613ee782613ea6565b602082019050919050565b60006020820190508181036000830152613f0b81613ecf565b9050919050565b7f4f776e61626c653a206e6577206f776e657220697320746865207a65726f206160008201527f6464726573730000000000000000000000000000000000000000000000000000602082015250565b6000613f6e602683613181565b9150613f7982613f12565b604082019050919050565b60006020820190508181036000830152613f9d81613f61565b9050919050565b7f5061757361626c653a2070617573656400000000000000000000000000000000600082015250565b6000613fda601083613181565b9150613fe582613fa4565b602082019050919050565b6000602082019050818103600083015261400981613fcd565b9050919050565b6000808335600160200384360303811261402d5761402c613acd565b5b80840192508235915067ffffffffffffffff82111561404f5761404e613ad2565b5b60208301925060018202360383131561406b5761406a613ad7565b5b509250929050565b7f4d6178696d756d206e756d626572206f66204e46547320726561636865642e00600082015250565b60006140a9601f83613181565b91506140b482614073565b602082019050919050565b600060208201905081810360008301526140d88161409c565b9050919050565b7f4552433732313a207472616e736665722066726f6d20696e636f72726563742060008201527f6f776e6572000000000000000000000000000000000000000000000000000000602082015250565b600061413b602583613181565b9150614146826140df565b604082019050919050565b6000602082019050818103600083015261416a8161412e565b9050919050565b7f4552433732313a207472616e7366657220746f20746865207a65726f2061646460008201527f7265737300000000000000000000000000000000000000000000000000000000602082015250565b60006141cd602483613181565b91506141d882614171565b604082019050919050565b600060208201905081810360008301526141fc816141c0565b9050919050565b600061420e82613231565b915061421983613231565b9250817fffffffffffffffffffffffffffffffffffffffffffffffffffffffffffffffff048311821515161561425257614251613b3f565b5b828202905092915050565b7f4e487b7100000000000000000000000000000000000000000000000000000000600052601260045260246000fd5b600061429782613231565b91506142a283613231565b9250826142b2576142b161425d565b5b828204905092915050565b7f4552433732313a206f70657261746f7220717565727920666f72206e6f6e657860008201527f697374656e7420746f6b656e0000000000000000000000000000000000000000602082015250565b6000614319602c83613181565b9150614324826142bd565b604082019050919050565b600060208201905081810360008301526143488161430c565b9050919050565b7f4f776e61626c653a2063616c6c6572206973206e6f7420746865206f776e6572600082015250565b6000614385602083613181565b91506143908261434f565b602082019050919050565b600060208201905081810360008301526143b481614378565b9050919050565b7f4552433732313a20617070726f766520746f2063616c6c657200000000000000600082015250565b60006143f1601983613181565b91506143fc826143bb565b602082019050919050565b60006020820190508181036000830152614420816143e4565b9050919050565b7f4552433732313a207472616e7366657220746f206e6f6e20455243373231526560008201527f63656976657220696d706c656d656e7465720000000000000000000000000000602082015250565b6000614483603283613181565b915061448e82614427565b604082019050919050565b600060208201905081810360008301526144b281614476565b9050919050565b600081905092915050565b60006144cf82613176565b6144d981856144b9565b93506144e9818560208601613192565b80840191505092915050565b600061450182856144c4565b915061450d82846144c4565b91508190509392505050565b60006145258385613bf8565b935061453283858461366e565b82840190509392505050565b600061454b828486614519565b91508190509392505050565b6000819050919050565b61456a81614557565b82525050565b60006080820190506145856000830187614561565b61459260208301866132c6565b61459f60408301856133dc565b6145ac6060830184614561565b95945050505050565b7f4552433732313a206d696e7420746f20746865207a65726f2061646472657373600082015250565b60006145eb602083613181565b91506145f6826145b5565b602082019050919050565b6000602082019050818103600083015261461a816145de565b9050919050565b7f4552433732313a20746f6b656e20616c7265616479206d696e74656400000000600082015250565b6000614657601c83613181565b915061466282614621565b602082019050919050565b600060208201905081810360008301526146868161464a565b9050919050565b7f45524337323155524953746f726167653a2055524920736574206f66206e6f6e60008201527f6578697374656e7420746f6b656e000000000000000000000000000000000000602082015250565b60006146e9602e83613181565b91506146f48261468d565b604082019050919050565b60006020820190508181036000830152614718816146dc565b9050919050565b7f5061757361626c653a206e6f7420706175736564000000000000000000000000600082015250565b6000614755601483613181565b91506147608261471f565b602082019050919050565b6000602082019050818103600083015261478481614748565b9050919050565b600081519050919050565b600082825260208201905092915050565b60006147b28261478b565b6147bc8185614796565b93506147cc818560208601613192565b6147d5816131c5565b840191505092915050565b60006080820190506147f560008301876132c6565b61480260208301866132c6565b61480f60408301856133dc565b818103606083015261482181846147a7565b905095945050505050565b60008151905061483b81613055565b92915050565b6000602082840312156148575761485661301f565b5b60006148658482850161482c565b91505092915050565b7f45434453413a20696e76616c6964207369676e61747572650000000000000000600082015250565b60006148a4601883613181565b91506148af8261486e565b602082019050919050565b600060208201905081810360008301526148d381614897565b9050919050565b7f45434453413a20696e76616c6964207369676e6174757265206c656e67746800600082015250565b6000614910601f83613181565b915061491b826148da565b602082019050919050565b6000602082019050818103600083015261493f81614903565b9050919050565b7f45434453413a20696e76616c6964207369676e6174757265202773272076616c60008201527f7565000000000000000000000000000000000000000000000000000000000000602082015250565b60006149a2602283613181565b91506149ad82614946565b604082019050919050565b600060208201905081810360008301526149d181614995565b9050919050565b7f45434453413a20696e76616c6964207369676e6174757265202776272076616c60008201527f7565000000000000000000000000000000000000000000000000000000000000602082015250565b6000614a34602283613181565b9150614a3f826149d8565b604082019050919050565b60006020820190508181036000830152614a6381614a27565b9050919050565b6000614a7582613231565b91507fffffffffffffffffffffffffffffffffffffffffffffffffffffffffffffffff821415614aa857614aa7613b3f565b5b600182019050919050565b6000614abe82613231565b9150614ac983613231565b925082614ad957614ad861425d565b5b828206905092915050565b7f4e487b7100000000000000000000000000000000000000000000000000000000600052603260045260246000fd5b7f1901000000000000000000000000000000000000000000000000000000000000600082015250565b6000614b496002836144b9565b9150614b5482614b13565b600282019050919050565b6000819050919050565b614b7a614b7582614557565b614b5f565b82525050565b6000614b8b82614b3c565b9150614b978285614b69565b602082019150614ba78284614b69565b6020820191508190509392505050565b600060ff82169050919050565b614bcd81614bb7565b82525050565b6000608082019050614be86000830187614561565b614bf56020830186614bc4565b614c026040830185614561565b614c0f6060830184614561565b95945050505050565b600060a082019050614c2d6000830188614561565b614c3a6020830187614561565b614c476040830186614561565b614c5460608301856133dc565b614c6160808301846132c6565b969550505050505056fea26469706673582212202409e3945eb681d36736270a8379878d2386d9d82502a87e94be93d5b38028ea64736f6c63430008090033",
  "linkReferences": {},
  "deployedLinkReferences": {}
}