{
  "_format": "hh-sol-artifact-1",
  "contractName": "ArtongNFT",
  "sourceName": "contracts/ArtongNFT.sol",
  "abi": [
    {
      "inputs": [
        {
          "internalType": "string",
          "name": "_name",
          "type": "string"
        },
        {
          "internalType": "string",
          "name": "_symbol",
          "type": "string"
        },
        {
          "internalType": "address",
          "name": "_marketplace",
          "type": "address"
        },
        {
          "internalType": "uint16",
          "name": "_platformFee",
          "type": "uint16"
        },
        {
          "internalType": "address payable",
          "name": "_feeReceipient",
          "type": "address"
        },
        {
          "internalType": "uint256",
          "name": "_maxAmount",
          "type": "uint256"
        },
        {
          "internalType": "enum Policy",
          "name": "_policy",
          "type": "uint8"
        }
      ],
      "stateMutability": "nonpayable",
      "type": "constructor"
    },
    {
      "anonymous": false,
      "inputs": [
        {
          "indexed": true,
          "internalType": "address",
          "name": "owner",
          "type": "address"
        },
        {
          "indexed": true,
          "internalType": "address",
          "name": "approved",
          "type": "address"
        },
        {
          "indexed": true,
          "internalType": "uint256",
          "name": "tokenId",
          "type": "uint256"
        }
      ],
      "name": "Approval",
      "type": "event"
    },
    {
      "anonymous": false,
      "inputs": [
        {
          "indexed": true,
          "internalType": "address",
          "name": "owner",
          "type": "address"
        },
        {
          "indexed": true,
          "internalType": "address",
          "name": "operator",
          "type": "address"
        },
        {
          "indexed": false,
          "internalType": "bool",
          "name": "approved",
          "type": "bool"
        }
      ],
      "name": "ApprovalForAll",
      "type": "event"
    },
    {
      "anonymous": false,
      "inputs": [
        {
          "indexed": true,
          "internalType": "address",
          "name": "previousOwner",
          "type": "address"
        },
        {
          "indexed": true,
          "internalType": "address",
          "name": "newOwner",
          "type": "address"
        }
      ],
      "name": "OwnershipTransferred",
      "type": "event"
    },
    {
      "anonymous": false,
      "inputs": [
        {
          "indexed": false,
          "internalType": "address",
          "name": "account",
          "type": "address"
        }
      ],
      "name": "Paused",
      "type": "event"
    },
    {
      "anonymous": false,
      "inputs": [
        {
          "indexed": false,
          "internalType": "address",
          "name": "minter",
          "type": "address"
        },
        {
          "indexed": false,
          "internalType": "uint256",
          "name": "tokenId",
          "type": "uint256"
        },
        {
          "indexed": false,
          "internalType": "string",
          "name": "tokenUri",
          "type": "string"
        }
      ],
      "name": "TokenMinted",
      "type": "event"
    },
    {
      "anonymous": false,
      "inputs": [
        {
          "indexed": true,
          "internalType": "address",
          "name": "from",
          "type": "address"
        },
        {
          "indexed": true,
          "internalType": "address",
          "name": "to",
          "type": "address"
        },
        {
          "indexed": true,
          "internalType": "uint256",
          "name": "tokenId",
          "type": "uint256"
        }
      ],
      "name": "Transfer",
      "type": "event"
    },
    {
      "anonymous": false,
      "inputs": [
        {
          "indexed": false,
          "internalType": "address",
          "name": "account",
          "type": "address"
        }
      ],
      "name": "Unpaused",
      "type": "event"
    },
    {
      "anonymous": false,
      "inputs": [
        {
          "indexed": false,
          "internalType": "enum Policy",
          "name": "policy",
          "type": "uint8"
        },
        {
          "indexed": false,
          "internalType": "address",
          "name": "updater",
          "type": "address"
        }
      ],
      "name": "UpdatePolicy",
      "type": "event"
    },
    {
      "inputs": [
        {
          "internalType": "address",
          "name": "to",
          "type": "address"
        },
        {
          "internalType": "uint256",
          "name": "tokenId",
          "type": "uint256"
        }
      ],
      "name": "approve",
      "outputs": [],
      "stateMutability": "nonpayable",
      "type": "function"
    },
    {
      "inputs": [
        {
          "internalType": "address",
          "name": "owner",
          "type": "address"
        }
      ],
      "name": "balanceOf",
      "outputs": [
        {
          "internalType": "uint256",
          "name": "",
          "type": "uint256"
        }
      ],
      "stateMutability": "view",
      "type": "function"
    },
    {
      "inputs": [
        {
          "internalType": "uint256",
          "name": "tokenId",
          "type": "uint256"
        }
      ],
      "name": "burn",
      "outputs": [],
      "stateMutability": "nonpayable",
      "type": "function"
    },
    {
      "inputs": [],
      "name": "feeReceipient",
      "outputs": [
        {
          "internalType": "address payable",
          "name": "",
          "type": "address"
        }
      ],
      "stateMutability": "view",
      "type": "function"
    },
    {
      "inputs": [
        {
          "internalType": "uint256",
          "name": "tokenId",
          "type": "uint256"
        }
      ],
      "name": "getApproved",
      "outputs": [
        {
          "internalType": "address",
          "name": "",
          "type": "address"
        }
      ],
      "stateMutability": "view",
      "type": "function"
    },
    {
      "inputs": [],
      "name": "getChainID",
      "outputs": [
        {
          "internalType": "uint256",
          "name": "",
          "type": "uint256"
        }
      ],
      "stateMutability": "view",
      "type": "function"
    },
    {
      "inputs": [
        {
          "internalType": "address",
          "name": "owner",
          "type": "address"
        },
        {
          "internalType": "address",
          "name": "operator",
          "type": "address"
        }
      ],
      "name": "isApprovedForAll",
      "outputs": [
        {
          "internalType": "bool",
          "name": "",
          "type": "bool"
        }
      ],
      "stateMutability": "view",
      "type": "function"
    },
    {
      "inputs": [],
      "name": "marketplace",
      "outputs": [
        {
          "internalType": "address",
          "name": "",
          "type": "address"
        }
      ],
      "stateMutability": "view",
      "type": "function"
    },
    {
      "inputs": [],
      "name": "maxAmount",
      "outputs": [
        {
          "internalType": "uint256",
          "name": "",
          "type": "uint256"
        }
      ],
      "stateMutability": "view",
      "type": "function"
    },
    {
      "inputs": [
        {
          "internalType": "address",
          "name": "_to",
          "type": "address"
        },
        {
          "internalType": "string",
          "name": "_tokenUri",
          "type": "string"
        }
      ],
      "name": "mint",
      "outputs": [
        {
          "internalType": "uint256",
          "name": "",
          "type": "uint256"
        }
      ],
      "stateMutability": "nonpayable",
      "type": "function"
    },
    {
      "inputs": [],
      "name": "name",
      "outputs": [
        {
          "internalType": "string",
          "name": "",
          "type": "string"
        }
      ],
      "stateMutability": "view",
      "type": "function"
    },
    {
      "inputs": [],
      "name": "owner",
      "outputs": [
        {
          "internalType": "address",
          "name": "",
          "type": "address"
        }
      ],
      "stateMutability": "view",
      "type": "function"
    },
    {
      "inputs": [
        {
          "internalType": "uint256",
          "name": "tokenId",
          "type": "uint256"
        }
      ],
      "name": "ownerOf",
      "outputs": [
        {
          "internalType": "address",
          "name": "",
          "type": "address"
        }
      ],
      "stateMutability": "view",
      "type": "function"
    },
    {
      "inputs": [],
      "name": "pause",
      "outputs": [],
      "stateMutability": "nonpayable",
      "type": "function"
    },
    {
      "inputs": [],
      "name": "paused",
      "outputs": [
        {
          "internalType": "bool",
          "name": "",
          "type": "bool"
        }
      ],
      "stateMutability": "view",
      "type": "function"
    },
    {
      "inputs": [],
      "name": "platformFee",
      "outputs": [
        {
          "internalType": "uint16",
          "name": "",
          "type": "uint16"
        }
      ],
      "stateMutability": "view",
      "type": "function"
    },
    {
      "inputs": [],
      "name": "policy",
      "outputs": [
        {
          "internalType": "enum Policy",
          "name": "",
          "type": "uint8"
        }
      ],
      "stateMutability": "view",
      "type": "function"
    },
    {
      "inputs": [
        {
          "internalType": "address",
          "name": "redeemer",
          "type": "address"
        },
        {
          "components": [
            {
              "internalType": "address",
              "name": "creator",
              "type": "address"
            },
            {
              "internalType": "uint256",
              "name": "minPrice",
              "type": "uint256"
            },
            {
              "internalType": "string",
              "name": "uri",
              "type": "string"
            },
            {
              "internalType": "bytes",
              "name": "signature",
              "type": "bytes"
            }
          ],
          "internalType": "struct ArtongNFT.NFTVoucher",
          "name": "voucher",
          "type": "tuple"
        }
      ],
      "name": "redeem",
      "outputs": [
        {
          "internalType": "uint256",
          "name": "",
          "type": "uint256"
        }
      ],
      "stateMutability": "payable",
      "type": "function"
    },
    {
      "inputs": [],
      "name": "renounceOwnership",
      "outputs": [],
      "stateMutability": "nonpayable",
      "type": "function"
    },
    {
      "inputs": [
        {
          "internalType": "address",
          "name": "from",
          "type": "address"
        },
        {
          "internalType": "address",
          "name": "to",
          "type": "address"
        },
        {
          "internalType": "uint256",
          "name": "tokenId",
          "type": "uint256"
        }
      ],
      "name": "safeTransferFrom",
      "outputs": [],
      "stateMutability": "nonpayable",
      "type": "function"
    },
    {
      "inputs": [
        {
          "internalType": "address",
          "name": "from",
          "type": "address"
        },
        {
          "internalType": "address",
          "name": "to",
          "type": "address"
        },
        {
          "internalType": "uint256",
          "name": "tokenId",
          "type": "uint256"
        },
        {
          "internalType": "bytes",
          "name": "data",
          "type": "bytes"
        }
      ],
      "name": "safeTransferFrom",
      "outputs": [],
      "stateMutability": "nonpayable",
      "type": "function"
    },
    {
      "inputs": [
        {
          "internalType": "address",
          "name": "operator",
          "type": "address"
        },
        {
          "internalType": "bool",
          "name": "approved",
          "type": "bool"
        }
      ],
      "name": "setApprovalForAll",
      "outputs": [],
      "stateMutability": "nonpayable",
      "type": "function"
    },
    {
      "inputs": [
        {
          "internalType": "enum Policy",
          "name": "_policy",
          "type": "uint8"
        }
      ],
      "name": "setPolicy",
      "outputs": [],
      "stateMutability": "nonpayable",
      "type": "function"
    },
    {
      "inputs": [
        {
          "internalType": "bytes4",
          "name": "interfaceId",
          "type": "bytes4"
        }
      ],
      "name": "supportsInterface",
      "outputs": [
        {
          "internalType": "bool",
          "name": "",
          "type": "bool"
        }
      ],
      "stateMutability": "view",
      "type": "function"
    },
    {
      "inputs": [],
      "name": "symbol",
      "outputs": [
        {
          "internalType": "string",
          "name": "",
          "type": "string"
        }
      ],
      "stateMutability": "view",
      "type": "function"
    },
    {
      "inputs": [
        {
          "internalType": "uint256",
          "name": "index",
          "type": "uint256"
        }
      ],
      "name": "tokenByIndex",
      "outputs": [
        {
          "internalType": "uint256",
          "name": "",
          "type": "uint256"
        }
      ],
      "stateMutability": "view",
      "type": "function"
    },
    {
      "inputs": [
        {
          "internalType": "address",
          "name": "owner",
          "type": "address"
        },
        {
          "internalType": "uint256",
          "name": "index",
          "type": "uint256"
        }
      ],
      "name": "tokenOfOwnerByIndex",
      "outputs": [
        {
          "internalType": "uint256",
          "name": "",
          "type": "uint256"
        }
      ],
      "stateMutability": "view",
      "type": "function"
    },
    {
      "inputs": [
        {
          "internalType": "uint256",
          "name": "tokenId",
          "type": "uint256"
        }
      ],
      "name": "tokenURI",
      "outputs": [
        {
          "internalType": "string",
          "name": "",
          "type": "string"
        }
      ],
      "stateMutability": "view",
      "type": "function"
    },
    {
      "inputs": [],
      "name": "totalSupply",
      "outputs": [
        {
          "internalType": "uint256",
          "name": "",
          "type": "uint256"
        }
      ],
      "stateMutability": "view",
      "type": "function"
    },
    {
      "inputs": [
        {
          "internalType": "address",
          "name": "from",
          "type": "address"
        },
        {
          "internalType": "address",
          "name": "to",
          "type": "address"
        },
        {
          "internalType": "uint256",
          "name": "tokenId",
          "type": "uint256"
        }
      ],
      "name": "transferFrom",
      "outputs": [],
      "stateMutability": "nonpayable",
      "type": "function"
    },
    {
      "inputs": [
        {
          "internalType": "address",
          "name": "newOwner",
          "type": "address"
        }
      ],
      "name": "transferOwnership",
      "outputs": [],
      "stateMutability": "nonpayable",
      "type": "function"
    },
    {
      "inputs": [],
      "name": "unpause",
      "outputs": [],
      "stateMutability": "nonpayable",
      "type": "function"
    }
  ],
  "bytecode": "0x6101606040523480156200001257600080fd5b50604051620034e9380380620034e98339810160408190526200003591620004d1565b6040518060400160405280601181526020017020b93a37b733a7232a16ab37bab1b432b960791b815250604051806040016040528060018152602001603160f81b815250888881600090805190602001906200009392919062000323565b508051620000a990600190602084019062000323565b5050825160209384012082519284019290922060e08390526101008190524660a0818152604080517f8b73c3c69bb8fe3d512ecc4cf759cc79239f7b179b0ffacaa9a75d522b39400f818901819052818301979097526060810194909452608080850193909352308483018190528151808603909301835260c09485019091528151919096012090529290925261012052506007805460ff191690556200015033620002c9565b60008751116200019a5760405162461bcd60e51b815260206004820152601060248201526f13985b59481a5cc81c995c5d5a5c995960821b60448201526064015b60405180910390fd5b6000865111620001e25760405162461bcd60e51b815260206004820152601260248201527114de5b589bdb081a5cc81c995c5d5a5c995960721b604482015260640162000191565b60008211620002405760405162461bcd60e51b815260206004820152602360248201527f4d6178416d6f756e742068617320746f20626520706f736974697665206e756d6044820152623132b960e91b606482015260840162000191565b600d8054610100600160b81b0319166101006001600160a01b038881169190910261ffff60a81b191691909117600160a81b61ffff88160217808355600e80546001600160a01b0319169287169290921790915561014084905282919060ff191660018381811115620002b757620002b76200059a565b021790555050505050505050620005ed565b600780546001600160a01b03838116610100818102610100600160a81b031985161790945560405193909204169182907f8be0079c531659141344cd1fd0a4f28419497f9722a3daafe3b4186f6b6457e090600090a35050565b8280546200033190620005b0565b90600052602060002090601f016020900481019282620003555760008555620003a0565b82601f106200037057805160ff1916838001178555620003a0565b82800160010185558215620003a0579182015b82811115620003a057825182559160200191906001019062000383565b50620003ae929150620003b2565b5090565b5b80821115620003ae5760008155600101620003b3565b634e487b7160e01b600052604160045260246000fd5b600082601f830112620003f157600080fd5b81516001600160401b03808211156200040e576200040e620003c9565b604051601f8301601f19908116603f01168101908282118183101715620004395762000439620003c9565b816040528381526020925086838588010111156200045657600080fd5b600091505b838210156200047a57858201830151818301840152908201906200045b565b838211156200048c5760008385830101525b9695505050505050565b6001600160a01b0381168114620004ac57600080fd5b50565b8051620004bc8162000496565b919050565b805160028110620004bc57600080fd5b600080600080600080600060e0888a031215620004ed57600080fd5b87516001600160401b03808211156200050557600080fd5b620005138b838c01620003df565b985060208a01519150808211156200052a57600080fd5b50620005398a828b01620003df565b96505060408801516200054c8162000496565b606089015190955061ffff811681146200056557600080fd5b93506200057560808901620004af565b925060a088015191506200058c60c08901620004c1565b905092959891949750929550565b634e487b7160e01b600052602160045260246000fd5b600181811c90821680620005c557607f821691505b60208210811415620005e757634e487b7160e01b600052602260045260246000fd5b50919050565b60805160a05160c05160e051610100516101205161014051612e9a6200064f6000396000818161043d015261113e015260006123470152600061239601526000612371015260006122ca015260006122f40152600061231e0152612e9a6000f3fe6080604052600436106101e35760003560e01c80635c975abb1161010257806395d89b4111610095578063c87b56dd11610064578063c87b56dd14610586578063d0def521146105a6578063e985e9c5146105c6578063f2fde38b146105e657600080fd5b806395d89b411461050c578063a22cb46514610521578063abc8c7af14610541578063b88d4fde1461056657600080fd5b8063715018a6116100d1578063715018a61461049f57806374bce0bc146104b45780638456cb59146104d45780638da5cb5b146104e957600080fd5b80635c975abb146104135780635f48f3931461042b5780636352211e1461045f57806370a082311461047f57600080fd5b806326232a2e1161017a57806342842e0e1161014957806342842e0e146103a057806342966c68146103c05780634f6ccce7146103e0578063564b81ef1461040057600080fd5b806326232a2e146103165780632f745c591461034b5780633740ebb31461036b5780633f4ba83a1461038b57600080fd5b8063095ea7b3116101b6578063095ea7b31461029e57806311142552146102c057806318160ddd146102e157806323b872dd146102f657600080fd5b806301ffc9a7146101e85780630505c8c91461021d57806306fdde0314610244578063081812fc14610266575b600080fd5b3480156101f457600080fd5b5061020861020336600461277f565b610606565b60405190151581526020015b60405180910390f35b34801561022957600080fd5b50600d546102379060ff1681565b60405161021491906127d4565b34801561025057600080fd5b50610259610617565b604051610214919061283a565b34801561027257600080fd5b5061028661028136600461284d565b6106a9565b6040516001600160a01b039091168152602001610214565b3480156102aa57600080fd5b506102be6102b9366004612882565b6106d0565b005b6102d36102ce3660046128ac565b6107eb565b604051908152602001610214565b3480156102ed57600080fd5b50600a546102d3565b34801561030257600080fd5b506102be610311366004612901565b610a1b565b34801561032257600080fd5b50600d5461033890600160a81b900461ffff1681565b60405161ffff9091168152602001610214565b34801561035757600080fd5b506102d3610366366004612882565b610a4d565b34801561037757600080fd5b50600e54610286906001600160a01b031681565b34801561039757600080fd5b506102be610ae3565b3480156103ac57600080fd5b506102be6103bb366004612901565b610b34565b3480156103cc57600080fd5b506102be6103db36600461284d565b610b4f565b3480156103ec57600080fd5b506102d36103fb36600461284d565b610b80565b34801561040c57600080fd5b50466102d3565b34801561041f57600080fd5b5060075460ff16610208565b34801561043757600080fd5b506102d37f000000000000000000000000000000000000000000000000000000000000000081565b34801561046b57600080fd5b5061028661047a36600461284d565b610c13565b34801561048b57600080fd5b506102d361049a36600461293d565b610c73565b3480156104ab57600080fd5b506102be610cf9565b3480156104c057600080fd5b506102be6104cf366004612958565b610d0b565b3480156104e057600080fd5b506102be610d72565b3480156104f557600080fd5b5060075461010090046001600160a01b0316610286565b34801561051857600080fd5b50610259610dc1565b34801561052d57600080fd5b506102be61053c366004612979565b610dd0565b34801561054d57600080fd5b50600d546102869061010090046001600160a01b031681565b34801561057257600080fd5b506102be6105813660046129c0565b610ddf565b34801561059257600080fd5b506102596105a136600461284d565b610e17565b3480156105b257600080fd5b506102d36105c1366004612a9c565b610e22565b3480156105d257600080fd5b506102086105e1366004612b1f565b610ea5565b3480156105f257600080fd5b506102be61060136600461293d565b610efc565b600061061182610f72565b92915050565b60606000805461062690612b52565b80601f016020809104026020016040519081016040528092919081815260200182805461065290612b52565b801561069f5780601f106106745761010080835404028352916020019161069f565b820191906000526020600020905b81548152906001019060200180831161068257829003601f168201915b5050505050905090565b60006106b482610f97565b506000908152600460205260409020546001600160a01b031690565b60006106db82610c13565b9050806001600160a01b0316836001600160a01b0316141561074e5760405162461bcd60e51b815260206004820152602160248201527f4552433732313a20617070726f76616c20746f2063757272656e74206f776e656044820152603960f91b60648201526084015b60405180910390fd5b336001600160a01b038216148061076a575061076a8133610ea5565b6107dc5760405162461bcd60e51b815260206004820152603e60248201527f4552433732313a20617070726f76652063616c6c6572206973206e6f7420746f60448201527f6b656e206f776e6572206e6f7220617070726f76656420666f7220616c6c00006064820152608401610745565b6107e68383610ff6565b505050565b60006107f5611064565b6000610800836110aa565b905061080f602084018461293d565b6001600160a01b0316816001600160a01b0316146108635760405162461bcd60e51b815260206004820152601160248201527014da59db985d1d5c99481a5b9d985b1a59607a1b6044820152606401610745565b82602001353410156108b75760405162461bcd60e51b815260206004820152601c60248201527f496e73756666696369656e742066756e647320746f2072656465656d000000006044820152606401610745565b60006108c1611103565b600e546040519192506000916001600160a01b039091169083908381818185875af1925050503d8060008114610913576040519150601f19603f3d011682016040523d82523d6000602084013e610918565b606091505b505090508061095b5760405162461bcd60e51b815260206004820152600f60248201526e151c985b9cd9995c8819985a5b1959608a1b6044820152606401610745565b600061097f61096d602088018861293d565b61097a6040890189612b8d565b611131565b9050610998610991602088018861293d565b88836112c7565b600d5461010090046001600160a01b031663e6d07de96109b88534612bea565b6040516001600160e01b031960e084901b1681526001600160a01b03881660048201526024016000604051808303818588803b1580156109f757600080fd5b505af1158015610a0b573d6000803e3d6000fd5b50939a9950505050505050505050565b610a26335b8261146e565b610a425760405162461bcd60e51b815260040161074590612c01565b6107e68383836112c7565b6000610a5883610c73565b8210610aba5760405162461bcd60e51b815260206004820152602b60248201527f455243373231456e756d657261626c653a206f776e657220696e646578206f7560448201526a74206f6620626f756e647360a81b6064820152608401610745565b506001600160a01b03919091166000908152600860209081526040808320938352929052205490565b610aed3333610ea5565b610b2a5760405162461bcd60e51b815260206004820152600e60248201526d139bdd08185d5d1a1bdc9a5e995960921b6044820152606401610745565b610b32611517565b565b6107e683838360405180602001604052806000815250610ddf565b610b5833610a20565b610b745760405162461bcd60e51b815260040161074590612c01565b610b7d81611569565b50565b6000610b8b600a5490565b8210610bee5760405162461bcd60e51b815260206004820152602c60248201527f455243373231456e756d657261626c653a20676c6f62616c20696e646578206f60448201526b7574206f6620626f756e647360a01b6064820152608401610745565b600a8281548110610c0157610c01612c4f565b90600052602060002001549050919050565b6000818152600260205260408120546001600160a01b0316806106115760405162461bcd60e51b8152602060048201526018602482015277115490cdcc8c4e881a5b9d985b1a59081d1bdad95b88125160421b6044820152606401610745565b60006001600160a01b038216610cdd5760405162461bcd60e51b815260206004820152602960248201527f4552433732313a2061646472657373207a65726f206973206e6f7420612076616044820152683634b21037bbb732b960b91b6064820152608401610745565b506001600160a01b031660009081526003602052604090205490565b610d01611572565b610b3260006115d2565b610d13611572565b7f2a84386076f08e18b35c0fd50fee06abe5278e5ef64da9b565736ba7e93726998133604051610d44929190612c65565b60405180910390a1600d805482919060ff191660018381811115610d6a57610d6a61279c565b021790555050565b610d7c3333610ea5565b610db95760405162461bcd60e51b815260206004820152600e60248201526d139bdd08185d5d1a1bdc9a5e995960921b6044820152606401610745565b610b3261162c565b60606001805461062690612b52565b610ddb338383611669565b5050565b610de9338361146e565b610e055760405162461bcd60e51b815260040161074590612c01565b610e1184848484611738565b50505050565b60606106118261176b565b6000610e2c611064565b6000600d5460ff166001811115610e4557610e4561279c565b14610e925760405162461bcd60e51b815260206004820152601f60248201527f506f6c696379206f6e6c7920616c6c6f7773206c617a79206d696e74696e67006044820152606401610745565b610e9d848484611131565b949350505050565b600d546000906001600160a01b03838116610100909204161415610ecb57506001610611565b6001600160a01b0380841660009081526005602090815260408083209386168352929052205460ff165b9392505050565b610f04611572565b6001600160a01b038116610f695760405162461bcd60e51b815260206004820152602660248201527f4f776e61626c653a206e6577206f776e657220697320746865207a65726f206160448201526564647265737360d01b6064820152608401610745565b610b7d816115d2565b60006001600160e01b0319821663780e9d6360e01b1480610611575061061182611874565b6000818152600260205260409020546001600160a01b0316610b7d5760405162461bcd60e51b8152602060048201526018602482015277115490cdcc8c4e881a5b9d985b1a59081d1bdad95b88125160421b6044820152606401610745565b600081815260046020526040902080546001600160a01b0319166001600160a01b038416908117909155819061102b82610c13565b6001600160a01b03167f8c5be1e5ebec7d5bd14f71427d1e84f3dd0314c0f7b2291e5b200ac8c7c3b92560405160405180910390a45050565b60075460ff1615610b325760405162461bcd60e51b815260206004820152601060248201526f14185d5cd8589b194e881c185d5cd95960821b6044820152606401610745565b6000806110b6836118c4565b9050610ef5816110c96060860186612b8d565b8080601f01602080910402602001604051908101604052809392919081815260200183838082843760009201919091525061196992505050565b600d546000906127109061112290600160a81b900461ffff1634612c8b565b61112c9190612cc0565b905090565b600061113c600c5490565b7f0000000000000000000000000000000000000000000000000000000000000000116111aa5760405162461bcd60e51b815260206004820152601e60248201527f4d6178696d756d206e756d626572206f66204e465473207265616368656400006044820152606401610745565b6111b8600c80546001019055565b60006111c3600c5490565b600d546040516313408a3960e21b81526001600160a01b0388811660048301523060248301526044820184905292935061010090910490911690634d0228e490606401600060405180830381600087803b15801561122057600080fd5b505af1158015611234573d6000803e3d6000fd5b50505050611242858261198d565b6112828185858080601f016020809104026020016040519081016040528093929190818152602001838380828437600092019190915250611adb92505050565b7fdf92894dc4675a7333caa5903b69cf5d8e8ec0d3f361c88207b6688e525703bb858286866040516112b79493929190612cd4565b60405180910390a1949350505050565b826001600160a01b03166112da82610c13565b6001600160a01b03161461133e5760405162461bcd60e51b815260206004820152602560248201527f4552433732313a207472616e736665722066726f6d20696e636f72726563742060448201526437bbb732b960d91b6064820152608401610745565b6001600160a01b0382166113a05760405162461bcd60e51b8152602060048201526024808201527f4552433732313a207472616e7366657220746f20746865207a65726f206164646044820152637265737360e01b6064820152608401610745565b6113ab838383611b75565b6113b6600082610ff6565b6001600160a01b03831660009081526003602052604081208054600192906113df908490612bea565b90915550506001600160a01b038216600090815260036020526040812080546001929061140d908490612d1c565b909155505060008181526002602052604080822080546001600160a01b0319166001600160a01b0386811691821790925591518493918716917fddf252ad1be2c89b69c2b068fc378daa952ba7f163c4a11628f55a4df523b3ef91a4505050565b6000818152600260205260408120546001600160a01b03166114e75760405162461bcd60e51b815260206004820152602c60248201527f4552433732313a206f70657261746f7220717565727920666f72206e6f6e657860448201526b34b9ba32b73a103a37b5b2b760a11b6064820152608401610745565b60006114f283610c13565b90506114fe8185610ea5565b1561150d576001915050610611565b610e9d8484611b80565b61151f611bde565b6007805460ff191690557f5db9ee0a495bf2e6ff9c91a7834c1ba4fdd244a5e8aa4e537bd38aeae4b073aa335b6040516001600160a01b03909116815260200160405180910390a1565b610b7d81611c27565b6007546001600160a01b03610100909104163314610b325760405162461bcd60e51b815260206004820181905260248201527f4f776e61626c653a2063616c6c6572206973206e6f7420746865206f776e65726044820152606401610745565b600780546001600160a01b03838116610100818102610100600160a81b031985161790945560405193909204169182907f8be0079c531659141344cd1fd0a4f28419497f9722a3daafe3b4186f6b6457e090600090a35050565b611634611064565b6007805460ff191660011790557f62e78cea01bee320cd4e420270b5ea74000d11b0c9f74754ebdbfc544b05a25861154c3390565b816001600160a01b0316836001600160a01b031614156116cb5760405162461bcd60e51b815260206004820152601960248201527f4552433732313a20617070726f766520746f2063616c6c6572000000000000006044820152606401610745565b6001600160a01b03838116600081815260056020908152604080832094871680845294825291829020805460ff191686151590811790915591519182527f17307eab39ab6107e8899845ad3d59bd9653f200f220920489ca2b5937696c31910160405180910390a3505050565b6117438484846112c7565b61174f84848484611c67565b610e115760405162461bcd60e51b815260040161074590612d34565b606061177682610f97565b6000828152600660205260408120805461178f90612b52565b80601f01602080910402602001604051908101604052809291908181526020018280546117bb90612b52565b80156118085780601f106117dd57610100808354040283529160200191611808565b820191906000526020600020905b8154815290600101906020018083116117eb57829003601f168201915b50505050509050600061182660408051602081019091526000815290565b9050805160001415611839575092915050565b81511561186b578082604051602001611853929190612d86565b60405160208183030381529060405292505050919050565b610e9d84611d74565b60006001600160e01b031982166380ac58cd60e01b14806118a557506001600160e01b03198216635b5e139f60e01b145b8061061157506301ffc9a760e01b6001600160e01b0319831614610611565b60006106117fe2c1fe55ff75bc6c0f1e92db9b907c57038a5f95f7c137ff4bf9e10a15bc3d016118f7602085018561293d565b60208501356119096040870187612b8d565b604051611917929190612db5565b60405190819003812061194e949392916020019384526001600160a01b039290921660208401526040830152606082015260800190565b60405160208183030381529060405280519060200120611de7565b60008060006119788585611e35565b9150915061198581611ea5565b509392505050565b6001600160a01b0382166119e35760405162461bcd60e51b815260206004820181905260248201527f4552433732313a206d696e7420746f20746865207a65726f20616464726573736044820152606401610745565b6000818152600260205260409020546001600160a01b031615611a485760405162461bcd60e51b815260206004820152601c60248201527f4552433732313a20746f6b656e20616c7265616479206d696e746564000000006044820152606401610745565b611a5460008383611b75565b6001600160a01b0382166000908152600360205260408120805460019290611a7d908490612d1c565b909155505060008181526002602052604080822080546001600160a01b0319166001600160a01b03861690811790915590518392907fddf252ad1be2c89b69c2b068fc378daa952ba7f163c4a11628f55a4df523b3ef908290a45050565b6000828152600260205260409020546001600160a01b0316611b565760405162461bcd60e51b815260206004820152602e60248201527f45524337323155524953746f726167653a2055524920736574206f66206e6f6e60448201526d32bc34b9ba32b73a103a37b5b2b760911b6064820152608401610745565b600082815260066020908152604090912082516107e69284019061269a565b6107e6838383612060565b600080611b8c83610c13565b9050806001600160a01b0316846001600160a01b03161480611bb35750611bb38185610ea5565b80610e9d5750836001600160a01b0316611bcc846106a9565b6001600160a01b031614949350505050565b60075460ff16610b325760405162461bcd60e51b815260206004820152601460248201527314185d5cd8589b194e881b9bdd081c185d5cd95960621b6044820152606401610745565b611c3081612118565b60008181526006602052604090208054611c4990612b52565b159050610b7d576000818152600660205260408120610b7d9161271e565b60006001600160a01b0384163b15611d6957604051630a85bd0160e11b81526001600160a01b0385169063150b7a0290611cab903390899088908890600401612dc5565b602060405180830381600087803b158015611cc557600080fd5b505af1925050508015611cf5575060408051601f3d908101601f19168201909252611cf291810190612e02565b60015b611d4f573d808015611d23576040519150601f19603f3d011682016040523d82523d6000602084013e611d28565b606091505b508051611d475760405162461bcd60e51b815260040161074590612d34565b805181602001fd5b6001600160e01b031916630a85bd0160e11b149050610e9d565b506001949350505050565b6060611d7f82610f97565b6000611d9660408051602081019091526000815290565b90506000815111611db65760405180602001604052806000815250610ef5565b80611dc0846121bf565b604051602001611dd1929190612d86565b6040516020818303038152906040529392505050565b6000610611611df46122bd565b8360405161190160f01b6020820152602281018390526042810182905260009060620160405160208183030381529060405280519060200120905092915050565b600080825160411415611e6c5760208301516040840151606085015160001a611e60878285856123e4565b94509450505050611e9e565b825160401415611e965760208301516040840151611e8b8683836124d1565b935093505050611e9e565b506000905060025b9250929050565b6000816004811115611eb957611eb961279c565b1415611ec25750565b6001816004811115611ed657611ed661279c565b1415611f245760405162461bcd60e51b815260206004820152601860248201527f45434453413a20696e76616c6964207369676e617475726500000000000000006044820152606401610745565b6002816004811115611f3857611f3861279c565b1415611f865760405162461bcd60e51b815260206004820152601f60248201527f45434453413a20696e76616c6964207369676e6174757265206c656e677468006044820152606401610745565b6003816004811115611f9a57611f9a61279c565b1415611ff35760405162461bcd60e51b815260206004820152602260248201527f45434453413a20696e76616c6964207369676e6174757265202773272076616c604482015261756560f01b6064820152608401610745565b60048160048111156120075761200761279c565b1415610b7d5760405162461bcd60e51b815260206004820152602260248201527f45434453413a20696e76616c6964207369676e6174757265202776272076616c604482015261756560f01b6064820152608401610745565b6001600160a01b0383166120bb576120b681600a80546000838152600b60205260408120829055600182018355919091527fc65a7bb8d6351c1cf70c95a316cc6a92839c986682d98bc35f958f4883f9d2a80155565b6120de565b816001600160a01b0316836001600160a01b0316146120de576120de838261250a565b6001600160a01b0382166120f5576107e6816125a7565b826001600160a01b0316826001600160a01b0316146107e6576107e68282612656565b600061212382610c13565b905061213181600084611b75565b61213c600083610ff6565b6001600160a01b0381166000908152600360205260408120805460019290612165908490612bea565b909155505060008281526002602052604080822080546001600160a01b0319169055518391906001600160a01b038416907fddf252ad1be2c89b69c2b068fc378daa952ba7f163c4a11628f55a4df523b3ef908390a45050565b6060816121e35750506040805180820190915260018152600360fc1b602082015290565b8160005b811561220d57806121f781612e1f565b91506122069050600a83612cc0565b91506121e7565b60008167ffffffffffffffff811115612228576122286129aa565b6040519080825280601f01601f191660200182016040528015612252576020820181803683370190505b5090505b8415610e9d57612267600183612bea565b9150612274600a86612e3a565b61227f906030612d1c565b60f81b81838151811061229457612294612c4f565b60200101906001600160f81b031916908160001a9053506122b6600a86612cc0565b9450612256565b6000306001600160a01b037f00000000000000000000000000000000000000000000000000000000000000001614801561231657507f000000000000000000000000000000000000000000000000000000000000000046145b1561234057507f000000000000000000000000000000000000000000000000000000000000000090565b50604080517f00000000000000000000000000000000000000000000000000000000000000006020808301919091527f0000000000000000000000000000000000000000000000000000000000000000828401527f000000000000000000000000000000000000000000000000000000000000000060608301524660808301523060a0808401919091528351808403909101815260c0909201909252805191012090565b6000807f7fffffffffffffffffffffffffffffff5d576e7357a4501ddfe92f46681b20a083111561241b57506000905060036124c8565b8460ff16601b1415801561243357508460ff16601c14155b1561244457506000905060046124c8565b6040805160008082526020820180845289905260ff881692820192909252606081018690526080810185905260019060a0016020604051602081039080840390855afa158015612498573d6000803e3d6000fd5b5050604051601f1901519150506001600160a01b0381166124c1576000600192509250506124c8565b9150600090505b94509492505050565b6000806001600160ff1b038316816124ee60ff86901c601b612d1c565b90506124fc878288856123e4565b935093505050935093915050565b6000600161251784610c73565b6125219190612bea565b600083815260096020526040902054909150808214612574576001600160a01b03841660009081526008602090815260408083208584528252808320548484528184208190558352600990915290208190555b5060009182526009602090815260408084208490556001600160a01b039094168352600881528383209183525290812055565b600a546000906125b990600190612bea565b6000838152600b6020526040812054600a80549394509092849081106125e1576125e1612c4f565b9060005260206000200154905080600a838154811061260257612602612c4f565b6000918252602080832090910192909255828152600b9091526040808220849055858252812055600a80548061263a5761263a612e4e565b6001900381819060005260206000200160009055905550505050565b600061266183610c73565b6001600160a01b039093166000908152600860209081526040808320868452825280832085905593825260099052919091209190915550565b8280546126a690612b52565b90600052602060002090601f0160209004810192826126c8576000855561270e565b82601f106126e157805160ff191683800117855561270e565b8280016001018555821561270e579182015b8281111561270e5782518255916020019190600101906126f3565b5061271a929150612754565b5090565b50805461272a90612b52565b6000825580601f1061273a575050565b601f016020900490600052602060002090810190610b7d91905b5b8082111561271a5760008155600101612755565b6001600160e01b031981168114610b7d57600080fd5b60006020828403121561279157600080fd5b8135610ef581612769565b634e487b7160e01b600052602160045260246000fd5b600281106127d057634e487b7160e01b600052602160045260246000fd5b9052565b6020810161061182846127b2565b60005b838110156127fd5781810151838201526020016127e5565b83811115610e115750506000910152565b600081518084526128268160208601602086016127e2565b601f01601f19169290920160200192915050565b602081526000610ef5602083018461280e565b60006020828403121561285f57600080fd5b5035919050565b80356001600160a01b038116811461287d57600080fd5b919050565b6000806040838503121561289557600080fd5b61289e83612866565b946020939093013593505050565b600080604083850312156128bf57600080fd5b6128c883612866565b9150602083013567ffffffffffffffff8111156128e457600080fd5b8301608081860312156128f657600080fd5b809150509250929050565b60008060006060848603121561291657600080fd5b61291f84612866565b925061292d60208501612866565b9150604084013590509250925092565b60006020828403121561294f57600080fd5b610ef582612866565b60006020828403121561296a57600080fd5b813560028110610ef557600080fd5b6000806040838503121561298c57600080fd5b61299583612866565b9150602083013580151581146128f657600080fd5b634e487b7160e01b600052604160045260246000fd5b600080600080608085870312156129d657600080fd5b6129df85612866565b93506129ed60208601612866565b925060408501359150606085013567ffffffffffffffff80821115612a1157600080fd5b818701915087601f830112612a2557600080fd5b813581811115612a3757612a376129aa565b604051601f8201601f19908116603f01168101908382118183101715612a5f57612a5f6129aa565b816040528281528a6020848701011115612a7857600080fd5b82602086016020830137600060208483010152809550505050505092959194509250565b600080600060408486031215612ab157600080fd5b612aba84612866565b9250602084013567ffffffffffffffff80821115612ad757600080fd5b818601915086601f830112612aeb57600080fd5b813581811115612afa57600080fd5b876020828501011115612b0c57600080fd5b6020830194508093505050509250925092565b60008060408385031215612b3257600080fd5b612b3b83612866565b9150612b4960208401612866565b90509250929050565b600181811c90821680612b6657607f821691505b60208210811415612b8757634e487b7160e01b600052602260045260246000fd5b50919050565b6000808335601e19843603018112612ba457600080fd5b83018035915067ffffffffffffffff821115612bbf57600080fd5b602001915036819003821315611e9e57600080fd5b634e487b7160e01b600052601160045260246000fd5b600082821015612bfc57612bfc612bd4565b500390565b6020808252602e908201527f4552433732313a2063616c6c6572206973206e6f7420746f6b656e206f776e6560408201526d1c881b9bdc88185c1c1c9bdd995960921b606082015260800190565b634e487b7160e01b600052603260045260246000fd5b60408101612c7382856127b2565b6001600160a01b039290921660209190910152919050565b6000816000190483118215151615612ca557612ca5612bd4565b500290565b634e487b7160e01b600052601260045260246000fd5b600082612ccf57612ccf612caa565b500490565b6001600160a01b0385168152602081018490526060604082018190528101829052818360808301376000818301608090810191909152601f909201601f191601019392505050565b60008219821115612d2f57612d2f612bd4565b500190565b60208082526032908201527f4552433732313a207472616e7366657220746f206e6f6e20455243373231526560408201527131b2b4bb32b91034b6b83632b6b2b73a32b960711b606082015260800190565b60008351612d988184602088016127e2565b835190830190612dac8183602088016127e2565b01949350505050565b8183823760009101908152919050565b6001600160a01b0385811682528416602082015260408101839052608060608201819052600090612df89083018461280e565b9695505050505050565b600060208284031215612e1457600080fd5b8151610ef581612769565b6000600019821415612e3357612e33612bd4565b5060010190565b600082612e4957612e49612caa565b500690565b634e487b7160e01b600052603160045260246000fdfea2646970667358221220ffac61edd3ea8ee9912effea9bc753bfb6833564f130149d0cd8d7eb858cc93a64736f6c63430008090033",
  "linkReferences": {},
  "deployedLinkReferences": {}
}