{
  "_format": "hh-sol-artifact-1",
  "contractName": "ArtongNFT",
  "sourceName": "contracts/ArtongNFT.sol",
  "abi": [
    {
      "inputs": [
        {
          "internalType": "string",
          "name": "_name",
          "type": "string"
        },
        {
          "internalType": "string",
          "name": "_symbol",
          "type": "string"
        },
        {
          "internalType": "address",
          "name": "_marketplace",
          "type": "address"
        },
        {
          "internalType": "uint16",
          "name": "_platformFee",
          "type": "uint16"
        },
        {
          "internalType": "address payable",
          "name": "_feeReceipient",
          "type": "address"
        },
        {
          "internalType": "uint256",
          "name": "_maxAmount",
          "type": "uint256"
        },
        {
          "internalType": "enum ArtongNFT.Policy",
          "name": "_policy",
          "type": "uint8"
        }
      ],
      "stateMutability": "nonpayable",
      "type": "constructor"
    },
    {
      "anonymous": false,
      "inputs": [
        {
          "indexed": true,
          "internalType": "address",
          "name": "owner",
          "type": "address"
        },
        {
          "indexed": true,
          "internalType": "address",
          "name": "approved",
          "type": "address"
        },
        {
          "indexed": true,
          "internalType": "uint256",
          "name": "tokenId",
          "type": "uint256"
        }
      ],
      "name": "Approval",
      "type": "event"
    },
    {
      "anonymous": false,
      "inputs": [
        {
          "indexed": true,
          "internalType": "address",
          "name": "owner",
          "type": "address"
        },
        {
          "indexed": true,
          "internalType": "address",
          "name": "operator",
          "type": "address"
        },
        {
          "indexed": false,
          "internalType": "bool",
          "name": "approved",
          "type": "bool"
        }
      ],
      "name": "ApprovalForAll",
      "type": "event"
    },
    {
      "anonymous": false,
      "inputs": [
        {
          "indexed": true,
          "internalType": "address",
          "name": "previousOwner",
          "type": "address"
        },
        {
          "indexed": true,
          "internalType": "address",
          "name": "newOwner",
          "type": "address"
        }
      ],
      "name": "OwnershipTransferred",
      "type": "event"
    },
    {
      "anonymous": false,
      "inputs": [
        {
          "indexed": true,
          "internalType": "address",
          "name": "from",
          "type": "address"
        },
        {
          "indexed": true,
          "internalType": "address",
          "name": "to",
          "type": "address"
        },
        {
          "indexed": true,
          "internalType": "uint256",
          "name": "tokenId",
          "type": "uint256"
        }
      ],
      "name": "Transfer",
      "type": "event"
    },
    {
      "inputs": [
        {
          "internalType": "address",
          "name": "to",
          "type": "address"
        },
        {
          "internalType": "uint256",
          "name": "tokenId",
          "type": "uint256"
        }
      ],
      "name": "approve",
      "outputs": [],
      "stateMutability": "nonpayable",
      "type": "function"
    },
    {
      "inputs": [],
      "name": "availableToWithdraw",
      "outputs": [
        {
          "internalType": "uint256",
          "name": "",
          "type": "uint256"
        }
      ],
      "stateMutability": "view",
      "type": "function"
    },
    {
      "inputs": [
        {
          "internalType": "address",
          "name": "owner",
          "type": "address"
        }
      ],
      "name": "balanceOf",
      "outputs": [
        {
          "internalType": "uint256",
          "name": "",
          "type": "uint256"
        }
      ],
      "stateMutability": "view",
      "type": "function"
    },
    {
      "inputs": [],
      "name": "feeReceipient",
      "outputs": [
        {
          "internalType": "address payable",
          "name": "",
          "type": "address"
        }
      ],
      "stateMutability": "view",
      "type": "function"
    },
    {
      "inputs": [
        {
          "internalType": "uint256",
          "name": "tokenId",
          "type": "uint256"
        }
      ],
      "name": "getApproved",
      "outputs": [
        {
          "internalType": "address",
          "name": "",
          "type": "address"
        }
      ],
      "stateMutability": "view",
      "type": "function"
    },
    {
      "inputs": [],
      "name": "getChainID",
      "outputs": [
        {
          "internalType": "uint256",
          "name": "",
          "type": "uint256"
        }
      ],
      "stateMutability": "view",
      "type": "function"
    },
    {
      "inputs": [],
      "name": "getPolicy",
      "outputs": [
        {
          "internalType": "enum ArtongNFT.Policy",
          "name": "",
          "type": "uint8"
        }
      ],
      "stateMutability": "view",
      "type": "function"
    },
    {
      "inputs": [
        {
          "internalType": "address",
          "name": "owner",
          "type": "address"
        },
        {
          "internalType": "address",
          "name": "operator",
          "type": "address"
        }
      ],
      "name": "isApprovedForAll",
      "outputs": [
        {
          "internalType": "bool",
          "name": "",
          "type": "bool"
        }
      ],
      "stateMutability": "view",
      "type": "function"
    },
    {
      "inputs": [],
      "name": "marketplace",
      "outputs": [
        {
          "internalType": "address",
          "name": "",
          "type": "address"
        }
      ],
      "stateMutability": "view",
      "type": "function"
    },
    {
      "inputs": [
        {
          "internalType": "address",
          "name": "_to",
          "type": "address"
        },
        {
          "internalType": "string",
          "name": "_tokenUri",
          "type": "string"
        }
      ],
      "name": "mint",
      "outputs": [
        {
          "internalType": "uint256",
          "name": "",
          "type": "uint256"
        }
      ],
      "stateMutability": "nonpayable",
      "type": "function"
    },
    {
      "inputs": [],
      "name": "name",
      "outputs": [
        {
          "internalType": "string",
          "name": "",
          "type": "string"
        }
      ],
      "stateMutability": "view",
      "type": "function"
    },
    {
      "inputs": [],
      "name": "owner",
      "outputs": [
        {
          "internalType": "address",
          "name": "",
          "type": "address"
        }
      ],
      "stateMutability": "view",
      "type": "function"
    },
    {
      "inputs": [
        {
          "internalType": "uint256",
          "name": "tokenId",
          "type": "uint256"
        }
      ],
      "name": "ownerOf",
      "outputs": [
        {
          "internalType": "address",
          "name": "",
          "type": "address"
        }
      ],
      "stateMutability": "view",
      "type": "function"
    },
    {
      "inputs": [],
      "name": "platformFee",
      "outputs": [
        {
          "internalType": "uint16",
          "name": "",
          "type": "uint16"
        }
      ],
      "stateMutability": "view",
      "type": "function"
    },
    {
      "inputs": [
        {
          "internalType": "address",
          "name": "redeemer",
          "type": "address"
        },
        {
          "components": [
            {
              "internalType": "address",
              "name": "creator",
              "type": "address"
            },
            {
              "internalType": "uint256",
              "name": "minPrice",
              "type": "uint256"
            },
            {
              "internalType": "string",
              "name": "uri",
              "type": "string"
            },
            {
              "internalType": "bytes",
              "name": "signature",
              "type": "bytes"
            }
          ],
          "internalType": "struct ArtongNFT.NFTVoucher",
          "name": "voucher",
          "type": "tuple"
        }
      ],
      "name": "redeem",
      "outputs": [
        {
          "internalType": "uint256",
          "name": "",
          "type": "uint256"
        }
      ],
      "stateMutability": "payable",
      "type": "function"
    },
    {
      "inputs": [],
      "name": "renounceOwnership",
      "outputs": [],
      "stateMutability": "nonpayable",
      "type": "function"
    },
    {
      "inputs": [
        {
          "internalType": "address",
          "name": "from",
          "type": "address"
        },
        {
          "internalType": "address",
          "name": "to",
          "type": "address"
        },
        {
          "internalType": "uint256",
          "name": "tokenId",
          "type": "uint256"
        }
      ],
      "name": "safeTransferFrom",
      "outputs": [],
      "stateMutability": "nonpayable",
      "type": "function"
    },
    {
      "inputs": [
        {
          "internalType": "address",
          "name": "from",
          "type": "address"
        },
        {
          "internalType": "address",
          "name": "to",
          "type": "address"
        },
        {
          "internalType": "uint256",
          "name": "tokenId",
          "type": "uint256"
        },
        {
          "internalType": "bytes",
          "name": "data",
          "type": "bytes"
        }
      ],
      "name": "safeTransferFrom",
      "outputs": [],
      "stateMutability": "nonpayable",
      "type": "function"
    },
    {
      "inputs": [
        {
          "internalType": "address",
          "name": "operator",
          "type": "address"
        },
        {
          "internalType": "bool",
          "name": "approved",
          "type": "bool"
        }
      ],
      "name": "setApprovalForAll",
      "outputs": [],
      "stateMutability": "nonpayable",
      "type": "function"
    },
    {
      "inputs": [
        {
          "internalType": "bytes4",
          "name": "interfaceId",
          "type": "bytes4"
        }
      ],
      "name": "supportsInterface",
      "outputs": [
        {
          "internalType": "bool",
          "name": "",
          "type": "bool"
        }
      ],
      "stateMutability": "view",
      "type": "function"
    },
    {
      "inputs": [],
      "name": "symbol",
      "outputs": [
        {
          "internalType": "string",
          "name": "",
          "type": "string"
        }
      ],
      "stateMutability": "view",
      "type": "function"
    },
    {
      "inputs": [
        {
          "internalType": "uint256",
          "name": "tokenId",
          "type": "uint256"
        }
      ],
      "name": "tokenURI",
      "outputs": [
        {
          "internalType": "string",
          "name": "",
          "type": "string"
        }
      ],
      "stateMutability": "view",
      "type": "function"
    },
    {
      "inputs": [
        {
          "internalType": "address",
          "name": "from",
          "type": "address"
        },
        {
          "internalType": "address",
          "name": "to",
          "type": "address"
        },
        {
          "internalType": "uint256",
          "name": "tokenId",
          "type": "uint256"
        }
      ],
      "name": "transferFrom",
      "outputs": [],
      "stateMutability": "nonpayable",
      "type": "function"
    },
    {
      "inputs": [
        {
          "internalType": "address",
          "name": "newOwner",
          "type": "address"
        }
      ],
      "name": "transferOwnership",
      "outputs": [],
      "stateMutability": "nonpayable",
      "type": "function"
    },
    {
      "inputs": [],
      "name": "withdraw",
      "outputs": [],
      "stateMutability": "nonpayable",
      "type": "function"
    }
  ],
  "bytecode": "0x6101406040523480156200001257600080fd5b5060405162004b8e38038062004b8e83398181016040528101906200003891906200072f565b6040518060400160405280601181526020017f4172746f6e674e46542d566f75636865720000000000000000000000000000008152506040518060400160405280600181526020017f310000000000000000000000000000000000000000000000000000000000000081525088888160009080519060200190620000be92919062000396565b508060019080519060200190620000d792919062000396565b50505060008280519060200120905060008280519060200120905060007f8b73c3c69bb8fe3d512ecc4cf759cc79239f7b179b0ffacaa9a75d522b39400f90508260e081815250508161010081815250504660a08181525050620001438184846200028c60201b60201c565b608081815250503073ffffffffffffffffffffffffffffffffffffffff1660c08173ffffffffffffffffffffffffffffffffffffffff16815250508061012081815250505050505050620001ac620001a0620002c860201b60201c565b620002d060201b60201c565b84600a60016101000a81548173ffffffffffffffffffffffffffffffffffffffff021916908373ffffffffffffffffffffffffffffffffffffffff16021790555083600a60156101000a81548161ffff021916908361ffff16021790555082600b60006101000a81548173ffffffffffffffffffffffffffffffffffffffff021916908373ffffffffffffffffffffffffffffffffffffffff1602179055508160098190555080600a60006101000a81548160ff021916908360018111156200027a576200027962000820565b5b0217905550505050505050506200094e565b60008383834630604051602001620002a99594939291906200088c565b6040516020818303038152906040528051906020012090509392505050565b600033905090565b6000600760009054906101000a900473ffffffffffffffffffffffffffffffffffffffff16905081600760006101000a81548173ffffffffffffffffffffffffffffffffffffffff021916908373ffffffffffffffffffffffffffffffffffffffff1602179055508173ffffffffffffffffffffffffffffffffffffffff168173ffffffffffffffffffffffffffffffffffffffff167f8be0079c531659141344cd1fd0a4f28419497f9722a3daafe3b4186f6b6457e060405160405180910390a35050565b828054620003a49062000918565b90600052602060002090601f016020900481019282620003c8576000855562000414565b82601f10620003e357805160ff191683800117855562000414565b8280016001018555821562000414579182015b8281111562000413578251825591602001919060010190620003f6565b5b50905062000423919062000427565b5090565b5b808211156200044257600081600090555060010162000428565b5090565b6000604051905090565b600080fd5b600080fd5b600080fd5b600080fd5b6000601f19601f8301169050919050565b7f4e487b7100000000000000000000000000000000000000000000000000000000600052604160045260246000fd5b620004af8262000464565b810181811067ffffffffffffffff82111715620004d157620004d062000475565b5b80604052505050565b6000620004e662000446565b9050620004f48282620004a4565b919050565b600067ffffffffffffffff82111562000517576200051662000475565b5b620005228262000464565b9050602081019050919050565b60005b838110156200054f57808201518184015260208101905062000532565b838111156200055f576000848401525b50505050565b60006200057c6200057684620004f9565b620004da565b9050828152602081018484840111156200059b576200059a6200045f565b5b620005a88482856200052f565b509392505050565b600082601f830112620005c857620005c76200045a565b5b8151620005da84826020860162000565565b91505092915050565b600073ffffffffffffffffffffffffffffffffffffffff82169050919050565b60006200061082620005e3565b9050919050565b620006228162000603565b81146200062e57600080fd5b50565b600081519050620006428162000617565b92915050565b600061ffff82169050919050565b620006618162000648565b81146200066d57600080fd5b50565b600081519050620006818162000656565b92915050565b60006200069482620005e3565b9050919050565b620006a68162000687565b8114620006b257600080fd5b50565b600081519050620006c6816200069b565b92915050565b6000819050919050565b620006e181620006cc565b8114620006ed57600080fd5b50565b6000815190506200070181620006d6565b92915050565b600281106200071557600080fd5b50565b600081519050620007298162000707565b92915050565b600080600080600080600060e0888a03121562000751576200075062000450565b5b600088015167ffffffffffffffff81111562000772576200077162000455565b5b620007808a828b01620005b0565b975050602088015167ffffffffffffffff811115620007a457620007a362000455565b5b620007b28a828b01620005b0565b9650506040620007c58a828b0162000631565b9550506060620007d88a828b0162000670565b9450506080620007eb8a828b01620006b5565b93505060a0620007fe8a828b01620006f0565b92505060c0620008118a828b0162000718565b91505092959891949750929550565b7f4e487b7100000000000000000000000000000000000000000000000000000000600052602160045260246000fd5b6000819050919050565b62000864816200084f565b82525050565b6200087581620006cc565b82525050565b620008868162000603565b82525050565b600060a082019050620008a3600083018862000859565b620008b2602083018762000859565b620008c1604083018662000859565b620008d060608301856200086a565b620008df60808301846200087b565b9695505050505050565b7f4e487b7100000000000000000000000000000000000000000000000000000000600052602260045260246000fd5b600060028204905060018216806200093157607f821691505b60208210811415620009485762000947620008e9565b5b50919050565b60805160a05160c05160e05161010051610120516141f06200099e600039600061254b0152600061258d0152600061256c015260006124a1015260006124f70152600061252001526141f06000f3fe6080604052600436106101665760003560e01c806370a08231116100d1578063b88d4fde1161008a578063d0def52111610064578063d0def5211461051f578063e322ad2b1461055c578063e985e9c514610587578063f2fde38b146105c457610166565b8063b88d4fde1461048e578063c87b56dd146104b7578063ce1e4626146104f457610166565b806370a0823114610390578063715018a6146103cd5780638da5cb5b146103e457806395d89b411461040f578063a22cb4651461043a578063abc8c7af1461046357610166565b806326232a2e1161012357806326232a2e146102925780633740ebb3146102bd5780633ccfd60b146102e857806342842e0e146102ff578063564b81ef146103285780636352211e1461035357610166565b806301ffc9a71461016b57806306fdde03146101a8578063081812fc146101d3578063095ea7b314610210578063111425521461023957806323b872dd14610269575b600080fd5b34801561017757600080fd5b50610192600480360381019061018d919061289f565b6105ed565b60405161019f91906128e7565b60405180910390f35b3480156101b457600080fd5b506101bd6106cf565b6040516101ca919061299b565b60405180910390f35b3480156101df57600080fd5b506101fa60048036038101906101f591906129f3565b610761565b6040516102079190612a61565b60405180910390f35b34801561021c57600080fd5b5061023760048036038101906102329190612aa8565b6107a7565b005b610253600480360381019061024e9190612b0c565b6108bf565b6040516102609190612b77565b60405180910390f35b34801561027557600080fd5b50610290600480360381019061028b9190612b92565b610b29565b005b34801561029e57600080fd5b506102a7610b89565b6040516102b49190612c02565b60405180910390f35b3480156102c957600080fd5b506102d2610b9d565b6040516102df9190612c3e565b60405180910390f35b3480156102f457600080fd5b506102fd610bc3565b005b34801561030b57600080fd5b5061032660048036038101906103219190612b92565b610cb7565b005b34801561033457600080fd5b5061033d610cd7565b60405161034a9190612b77565b60405180910390f35b34801561035f57600080fd5b5061037a600480360381019061037591906129f3565b610ce4565b6040516103879190612a61565b60405180910390f35b34801561039c57600080fd5b506103b760048036038101906103b29190612c59565b610d96565b6040516103c49190612b77565b60405180910390f35b3480156103d957600080fd5b506103e2610e4e565b005b3480156103f057600080fd5b506103f9610e62565b6040516104069190612a61565b60405180910390f35b34801561041b57600080fd5b50610424610e8c565b604051610431919061299b565b60405180910390f35b34801561044657600080fd5b50610461600480360381019061045c9190612cb2565b610f1e565b005b34801561046f57600080fd5b50610478610f34565b6040516104859190612a61565b60405180910390f35b34801561049a57600080fd5b506104b560048036038101906104b09190612e27565b610f5a565b005b3480156104c357600080fd5b506104de60048036038101906104d991906129f3565b610fbc565b6040516104eb919061299b565b60405180910390f35b34801561050057600080fd5b506105096110cf565b6040516105169190612f21565b60405180910390f35b34801561052b57600080fd5b5061054660048036038101906105419190612f9c565b6110e6565b6040516105539190612b77565b60405180910390f35b34801561056857600080fd5b50610571611163565b60405161057e9190612b77565b60405180910390f35b34801561059357600080fd5b506105ae60048036038101906105a99190612ffc565b6111aa565b6040516105bb91906128e7565b60405180910390f35b3480156105d057600080fd5b506105eb60048036038101906105e69190612c59565b61123e565b005b60007f80ac58cd000000000000000000000000000000000000000000000000000000007bffffffffffffffffffffffffffffffffffffffffffffffffffffffff1916827bffffffffffffffffffffffffffffffffffffffffffffffffffffffff191614806106b857507f5b5e139f000000000000000000000000000000000000000000000000000000007bffffffffffffffffffffffffffffffffffffffffffffffffffffffff1916827bffffffffffffffffffffffffffffffffffffffffffffffffffffffff1916145b806106c857506106c7826112c2565b5b9050919050565b6060600080546106de9061306b565b80601f016020809104026020016040519081016040528092919081815260200182805461070a9061306b565b80156107575780601f1061072c57610100808354040283529160200191610757565b820191906000526020600020905b81548152906001019060200180831161073a57829003601f168201915b5050505050905090565b600061076c8261132c565b6004600083815260200190815260200160002060009054906101000a900473ffffffffffffffffffffffffffffffffffffffff169050919050565b60006107b282610ce4565b90508073ffffffffffffffffffffffffffffffffffffffff168373ffffffffffffffffffffffffffffffffffffffff161415610823576040517f08c379a000000000000000000000000000000000000000000000000000000000815260040161081a9061310f565b60405180910390fd5b8073ffffffffffffffffffffffffffffffffffffffff16610842611377565b73ffffffffffffffffffffffffffffffffffffffff16148061087157506108708161086b611377565b6111aa565b5b6108b0576040517f08c379a00000000000000000000000000000000000000000000000000000000081526004016108a7906131a1565b60405180910390fd5b6108ba838361137f565b505050565b6000806108cb83611438565b90508260000160208101906108e09190612c59565b73ffffffffffffffffffffffffffffffffffffffff168173ffffffffffffffffffffffffffffffffffffffff161461094d576040517f08c379a00000000000000000000000000000000000000000000000000000000081526004016109449061320d565b60405180910390fd5b8260200135341015610994576040517f08c379a000000000000000000000000000000000000000000000000000000000815260040161098b90613279565b60405180910390fd5b60006109c18460000160208101906109ac9190612c59565b8580604001906109bc91906132a8565b6110e6565b90506109e08460000160208101906109d99190612c59565b86836114aa565b60006109eb34611711565b905080346109f9919061333a565b600c60008573ffffffffffffffffffffffffffffffffffffffff1673ffffffffffffffffffffffffffffffffffffffff1681526020019081526020016000206000828254610a47919061336e565b925050819055506000600b60009054906101000a900473ffffffffffffffffffffffffffffffffffffffff1673ffffffffffffffffffffffffffffffffffffffff1682604051610a96906133f5565b60006040518083038185875af1925050503d8060008114610ad3576040519150601f19603f3d011682016040523d82523d6000602084013e610ad8565b606091505b5050905080610b1c576040517f08c379a0000000000000000000000000000000000000000000000000000000008152600401610b1390613456565b60405180910390fd5b8294505050505092915050565b610b3a610b34611377565b82611747565b610b79576040517f08c379a0000000000000000000000000000000000000000000000000000000008152600401610b70906134e8565b60405180910390fd5b610b848383836114aa565b505050565b600a60159054906101000a900461ffff1681565b600b60009054906101000a900473ffffffffffffffffffffffffffffffffffffffff1681565b6000600c60003373ffffffffffffffffffffffffffffffffffffffff1673ffffffffffffffffffffffffffffffffffffffff1681526020019081526020016000205490506000811415610c1557600080fd5b80471015610c2257600080fd5b60003390506000600c60003373ffffffffffffffffffffffffffffffffffffffff1673ffffffffffffffffffffffffffffffffffffffff168152602001908152602001600020819055508073ffffffffffffffffffffffffffffffffffffffff166108fc839081150290604051600060405180830381858888f19350505050158015610cb2573d6000803e3d6000fd5b505050565b610cd283838360405180602001604052806000815250610f5a565b505050565b6000804690508091505090565b6000806002600084815260200190815260200160002060009054906101000a900473ffffffffffffffffffffffffffffffffffffffff169050600073ffffffffffffffffffffffffffffffffffffffff168173ffffffffffffffffffffffffffffffffffffffff161415610d8d576040517f08c379a0000000000000000000000000000000000000000000000000000000008152600401610d8490613554565b60405180910390fd5b80915050919050565b60008073ffffffffffffffffffffffffffffffffffffffff168273ffffffffffffffffffffffffffffffffffffffff161415610e07576040517f08c379a0000000000000000000000000000000000000000000000000000000008152600401610dfe906135e6565b60405180910390fd5b600360008373ffffffffffffffffffffffffffffffffffffffff1673ffffffffffffffffffffffffffffffffffffffff168152602001908152602001600020549050919050565b610e566117dc565b610e60600061185a565b565b6000600760009054906101000a900473ffffffffffffffffffffffffffffffffffffffff16905090565b606060018054610e9b9061306b565b80601f0160208091040260200160405190810160405280929190818152602001828054610ec79061306b565b8015610f145780601f10610ee957610100808354040283529160200191610f14565b820191906000526020600020905b815481529060010190602001808311610ef757829003601f168201915b5050505050905090565b610f30610f29611377565b8383611920565b5050565b600a60019054906101000a900473ffffffffffffffffffffffffffffffffffffffff1681565b610f6b610f65611377565b83611747565b610faa576040517f08c379a0000000000000000000000000000000000000000000000000000000008152600401610fa1906134e8565b60405180910390fd5b610fb684848484611a8d565b50505050565b6060610fc78261132c565b6000600660008481526020019081526020016000208054610fe79061306b565b80601f01602080910402602001604051908101604052809291908181526020018280546110139061306b565b80156110605780601f1061103557610100808354040283529160200191611060565b820191906000526020600020905b81548152906001019060200180831161104357829003601f168201915b505050505090506000611071611ae9565b90506000815114156110875781925050506110ca565b6000825111156110bc5780826040516020016110a4929190613642565b604051602081830303815290604052925050506110ca565b6110c584611b00565b925050505b919050565b6000600a60009054906101000a900460ff16905090565b60006110f26008611b68565b60006110fe6008611b7e565b905061110a8582611b8c565b6111588185858080601f016020809104026020016040519081016040528093929190818152602001838380828437600081840152601f19601f82011690508083019250505050505050611d66565b809150509392505050565b6000600c60003373ffffffffffffffffffffffffffffffffffffffff1673ffffffffffffffffffffffffffffffffffffffff16815260200190815260200160002054905090565b6000600560008473ffffffffffffffffffffffffffffffffffffffff1673ffffffffffffffffffffffffffffffffffffffff16815260200190815260200160002060008373ffffffffffffffffffffffffffffffffffffffff1673ffffffffffffffffffffffffffffffffffffffff16815260200190815260200160002060009054906101000a900460ff16905092915050565b6112466117dc565b600073ffffffffffffffffffffffffffffffffffffffff168173ffffffffffffffffffffffffffffffffffffffff1614156112b6576040517f08c379a00000000000000000000000000000000000000000000000000000000081526004016112ad906136d8565b60405180910390fd5b6112bf8161185a565b50565b60007f01ffc9a7000000000000000000000000000000000000000000000000000000007bffffffffffffffffffffffffffffffffffffffffffffffffffffffff1916827bffffffffffffffffffffffffffffffffffffffffffffffffffffffff1916149050919050565b61133581611dda565b611374576040517f08c379a000000000000000000000000000000000000000000000000000000000815260040161136b90613554565b60405180910390fd5b50565b600033905090565b816004600083815260200190815260200160002060006101000a81548173ffffffffffffffffffffffffffffffffffffffff021916908373ffffffffffffffffffffffffffffffffffffffff160217905550808273ffffffffffffffffffffffffffffffffffffffff166113f283610ce4565b73ffffffffffffffffffffffffffffffffffffffff167f8c5be1e5ebec7d5bd14f71427d1e84f3dd0314c0f7b2291e5b200ac8c7c3b92560405160405180910390a45050565b60008061144483611e46565b90506114a28184806060019061145a91906136f8565b8080601f016020809104026020016040519081016040528093929190818152602001838380828437600081840152601f19601f82011690508083019250505050505050611edf565b915050919050565b8273ffffffffffffffffffffffffffffffffffffffff166114ca82610ce4565b73ffffffffffffffffffffffffffffffffffffffff1614611520576040517f08c379a0000000000000000000000000000000000000000000000000000000008152600401611517906137cd565b60405180910390fd5b600073ffffffffffffffffffffffffffffffffffffffff168273ffffffffffffffffffffffffffffffffffffffff161415611590576040517f08c379a00000000000000000000000000000000000000000000000000000000081526004016115879061385f565b60405180910390fd5b61159b838383611f06565b6115a660008261137f565b6001600360008573ffffffffffffffffffffffffffffffffffffffff1673ffffffffffffffffffffffffffffffffffffffff16815260200190815260200160002060008282546115f6919061333a565b925050819055506001600360008473ffffffffffffffffffffffffffffffffffffffff1673ffffffffffffffffffffffffffffffffffffffff168152602001908152602001600020600082825461164d919061336e565b92505081905550816002600083815260200190815260200160002060006101000a81548173ffffffffffffffffffffffffffffffffffffffff021916908373ffffffffffffffffffffffffffffffffffffffff160217905550808273ffffffffffffffffffffffffffffffffffffffff168473ffffffffffffffffffffffffffffffffffffffff167fddf252ad1be2c89b69c2b068fc378daa952ba7f163c4a11628f55a4df523b3ef60405160405180910390a461170c838383611f0b565b505050565b6000612710600a60159054906101000a900461ffff1661173191906138ae565b61ffff168261174091906138df565b9050919050565b60008061175383610ce4565b90508073ffffffffffffffffffffffffffffffffffffffff168473ffffffffffffffffffffffffffffffffffffffff161480611795575061179481856111aa565b5b806117d357508373ffffffffffffffffffffffffffffffffffffffff166117bb84610761565b73ffffffffffffffffffffffffffffffffffffffff16145b91505092915050565b6117e4611377565b73ffffffffffffffffffffffffffffffffffffffff16611802610e62565b73ffffffffffffffffffffffffffffffffffffffff1614611858576040517f08c379a000000000000000000000000000000000000000000000000000000000815260040161184f90613985565b60405180910390fd5b565b6000600760009054906101000a900473ffffffffffffffffffffffffffffffffffffffff16905081600760006101000a81548173ffffffffffffffffffffffffffffffffffffffff021916908373ffffffffffffffffffffffffffffffffffffffff1602179055508173ffffffffffffffffffffffffffffffffffffffff168173ffffffffffffffffffffffffffffffffffffffff167f8be0079c531659141344cd1fd0a4f28419497f9722a3daafe3b4186f6b6457e060405160405180910390a35050565b8173ffffffffffffffffffffffffffffffffffffffff168373ffffffffffffffffffffffffffffffffffffffff16141561198f576040517f08c379a0000000000000000000000000000000000000000000000000000000008152600401611986906139f1565b60405180910390fd5b80600560008573ffffffffffffffffffffffffffffffffffffffff1673ffffffffffffffffffffffffffffffffffffffff16815260200190815260200160002060008473ffffffffffffffffffffffffffffffffffffffff1673ffffffffffffffffffffffffffffffffffffffff16815260200190815260200160002060006101000a81548160ff0219169083151502179055508173ffffffffffffffffffffffffffffffffffffffff168373ffffffffffffffffffffffffffffffffffffffff167f17307eab39ab6107e8899845ad3d59bd9653f200f220920489ca2b5937696c3183604051611a8091906128e7565b60405180910390a3505050565b611a988484846114aa565b611aa484848484611f10565b611ae3576040517f08c379a0000000000000000000000000000000000000000000000000000000008152600401611ada90613a83565b60405180910390fd5b50505050565b606060405180602001604052806000815250905090565b6060611b0b8261132c565b6000611b15611ae9565b90506000815111611b355760405180602001604052806000815250611b60565b80611b3f846120a7565b604051602001611b50929190613642565b6040516020818303038152906040525b915050919050565b6001816000016000828254019250508190555050565b600081600001549050919050565b600073ffffffffffffffffffffffffffffffffffffffff168273ffffffffffffffffffffffffffffffffffffffff161415611bfc576040517f08c379a0000000000000000000000000000000000000000000000000000000008152600401611bf390613aef565b60405180910390fd5b611c0581611dda565b15611c45576040517f08c379a0000000000000000000000000000000000000000000000000000000008152600401611c3c90613b5b565b60405180910390fd5b611c5160008383611f06565b6001600360008473ffffffffffffffffffffffffffffffffffffffff1673ffffffffffffffffffffffffffffffffffffffff1681526020019081526020016000206000828254611ca1919061336e565b92505081905550816002600083815260200190815260200160002060006101000a81548173ffffffffffffffffffffffffffffffffffffffff021916908373ffffffffffffffffffffffffffffffffffffffff160217905550808273ffffffffffffffffffffffffffffffffffffffff16600073ffffffffffffffffffffffffffffffffffffffff167fddf252ad1be2c89b69c2b068fc378daa952ba7f163c4a11628f55a4df523b3ef60405160405180910390a4611d6260008383611f0b565b5050565b611d6f82611dda565b611dae576040517f08c379a0000000000000000000000000000000000000000000000000000000008152600401611da590613bed565b60405180910390fd5b80600660008481526020019081526020016000209080519060200190611dd5929190612790565b505050565b60008073ffffffffffffffffffffffffffffffffffffffff166002600084815260200190815260200160002060009054906101000a900473ffffffffffffffffffffffffffffffffffffffff1673ffffffffffffffffffffffffffffffffffffffff1614159050919050565b6000611ed87fe2c1fe55ff75bc6c0f1e92db9b907c57038a5f95f7c137ff4bf9e10a15bc3d01836000016020810190611e7f9190612c59565b8460200135858060400190611e9491906132a8565b604051611ea2929190613c32565b6040518091039020604051602001611ebd9493929190613c64565b60405160208183030381529060405280519060200120612208565b9050919050565b6000806000611eee8585612222565b91509150611efb816122a5565b819250505092915050565b505050565b505050565b6000611f318473ffffffffffffffffffffffffffffffffffffffff1661247a565b1561209a578373ffffffffffffffffffffffffffffffffffffffff1663150b7a02611f5a611377565b8786866040518563ffffffff1660e01b8152600401611f7c9493929190613cfe565b602060405180830381600087803b158015611f9657600080fd5b505af1925050508015611fc757506040513d601f19601f82011682018060405250810190611fc49190613d5f565b60015b61204a573d8060008114611ff7576040519150601f19603f3d011682016040523d82523d6000602084013e611ffc565b606091505b50600081511415612042576040517f08c379a000000000000000000000000000000000000000000000000000000000815260040161203990613a83565b60405180910390fd5b805181602001fd5b63150b7a0260e01b7bffffffffffffffffffffffffffffffffffffffffffffffffffffffff1916817bffffffffffffffffffffffffffffffffffffffffffffffffffffffff19161491505061209f565b600190505b949350505050565b606060008214156120ef576040518060400160405280600181526020017f30000000000000000000000000000000000000000000000000000000000000008152509050612203565b600082905060005b6000821461212157808061210a90613d8c565b915050600a8261211a9190613dd5565b91506120f7565b60008167ffffffffffffffff81111561213d5761213c612cfc565b5b6040519080825280601f01601f19166020018201604052801561216f5781602001600182028036833780820191505090505b5090505b600085146121fc57600182612188919061333a565b9150600a856121979190613e06565b60306121a3919061336e565b60f81b8183815181106121b9576121b8613e37565b5b60200101907effffffffffffffffffffffffffffffffffffffffffffffffffffffffffffff1916908160001a905350600a856121f59190613dd5565b9450612173565b8093505050505b919050565b600061221b61221561249d565b836125b7565b9050919050565b6000806041835114156122645760008060006020860151925060408601519150606086015160001a9050612258878285856125ea565b9450945050505061229e565b60408351141561229557600080602085015191506040850151905061228a8683836126f7565b93509350505061229e565b60006002915091505b9250929050565b600060048111156122b9576122b8612eaa565b5b8160048111156122cc576122cb612eaa565b5b14156122d757612477565b600160048111156122eb576122ea612eaa565b5b8160048111156122fe576122fd612eaa565b5b141561233f576040517f08c379a000000000000000000000000000000000000000000000000000000000815260040161233690613eb2565b60405180910390fd5b6002600481111561235357612352612eaa565b5b81600481111561236657612365612eaa565b5b14156123a7576040517f08c379a000000000000000000000000000000000000000000000000000000000815260040161239e90613f1e565b60405180910390fd5b600360048111156123bb576123ba612eaa565b5b8160048111156123ce576123cd612eaa565b5b141561240f576040517f08c379a000000000000000000000000000000000000000000000000000000000815260040161240690613fb0565b60405180910390fd5b60048081111561242257612421612eaa565b5b81600481111561243557612434612eaa565b5b1415612476576040517f08c379a000000000000000000000000000000000000000000000000000000000815260040161246d90614042565b60405180910390fd5b5b50565b6000808273ffffffffffffffffffffffffffffffffffffffff163b119050919050565b60007f000000000000000000000000000000000000000000000000000000000000000073ffffffffffffffffffffffffffffffffffffffff163073ffffffffffffffffffffffffffffffffffffffff1614801561251957507f000000000000000000000000000000000000000000000000000000000000000046145b15612546577f000000000000000000000000000000000000000000000000000000000000000090506125b4565b6125b17f00000000000000000000000000000000000000000000000000000000000000007f00000000000000000000000000000000000000000000000000000000000000007f0000000000000000000000000000000000000000000000000000000000000000612756565b90505b90565b600082826040516020016125cc9291906140cf565b60405160208183030381529060405280519060200120905092915050565b6000807f7fffffffffffffffffffffffffffffff5d576e7357a4501ddfe92f46681b20a08360001c11156126255760006003915091506126ee565b601b8560ff161415801561263d5750601c8560ff1614155b1561264f5760006004915091506126ee565b6000600187878787604051600081526020016040526040516126749493929190614122565b6020604051602081039080840390855afa158015612696573d6000803e3d6000fd5b505050602060405103519050600073ffffffffffffffffffffffffffffffffffffffff168173ffffffffffffffffffffffffffffffffffffffff1614156126e5576000600192509250506126ee565b80600092509250505b94509492505050565b60008060007f7fffffffffffffffffffffffffffffffffffffffffffffffffffffffffffffff60001b841690506000601b60ff8660001c901c61273a919061336e565b9050612748878288856125ea565b935093505050935093915050565b60008383834630604051602001612771959493929190614167565b6040516020818303038152906040528051906020012090509392505050565b82805461279c9061306b565b90600052602060002090601f0160209004810192826127be5760008555612805565b82601f106127d757805160ff1916838001178555612805565b82800160010185558215612805579182015b828111156128045782518255916020019190600101906127e9565b5b5090506128129190612816565b5090565b5b8082111561282f576000816000905550600101612817565b5090565b6000604051905090565b600080fd5b600080fd5b60007fffffffff0000000000000000000000000000000000000000000000000000000082169050919050565b61287c81612847565b811461288757600080fd5b50565b60008135905061289981612873565b92915050565b6000602082840312156128b5576128b461283d565b5b60006128c38482850161288a565b91505092915050565b60008115159050919050565b6128e1816128cc565b82525050565b60006020820190506128fc60008301846128d8565b92915050565b600081519050919050565b600082825260208201905092915050565b60005b8381101561293c578082015181840152602081019050612921565b8381111561294b576000848401525b50505050565b6000601f19601f8301169050919050565b600061296d82612902565b612977818561290d565b935061298781856020860161291e565b61299081612951565b840191505092915050565b600060208201905081810360008301526129b58184612962565b905092915050565b6000819050919050565b6129d0816129bd565b81146129db57600080fd5b50565b6000813590506129ed816129c7565b92915050565b600060208284031215612a0957612a0861283d565b5b6000612a17848285016129de565b91505092915050565b600073ffffffffffffffffffffffffffffffffffffffff82169050919050565b6000612a4b82612a20565b9050919050565b612a5b81612a40565b82525050565b6000602082019050612a766000830184612a52565b92915050565b612a8581612a40565b8114612a9057600080fd5b50565b600081359050612aa281612a7c565b92915050565b60008060408385031215612abf57612abe61283d565b5b6000612acd85828601612a93565b9250506020612ade858286016129de565b9150509250929050565b600080fd5b600060808284031215612b0357612b02612ae8565b5b81905092915050565b60008060408385031215612b2357612b2261283d565b5b6000612b3185828601612a93565b925050602083013567ffffffffffffffff811115612b5257612b51612842565b5b612b5e85828601612aed565b9150509250929050565b612b71816129bd565b82525050565b6000602082019050612b8c6000830184612b68565b92915050565b600080600060608486031215612bab57612baa61283d565b5b6000612bb986828701612a93565b9350506020612bca86828701612a93565b9250506040612bdb868287016129de565b9150509250925092565b600061ffff82169050919050565b612bfc81612be5565b82525050565b6000602082019050612c176000830184612bf3565b92915050565b6000612c2882612a20565b9050919050565b612c3881612c1d565b82525050565b6000602082019050612c536000830184612c2f565b92915050565b600060208284031215612c6f57612c6e61283d565b5b6000612c7d84828501612a93565b91505092915050565b612c8f816128cc565b8114612c9a57600080fd5b50565b600081359050612cac81612c86565b92915050565b60008060408385031215612cc957612cc861283d565b5b6000612cd785828601612a93565b9250506020612ce885828601612c9d565b9150509250929050565b600080fd5b600080fd5b7f4e487b7100000000000000000000000000000000000000000000000000000000600052604160045260246000fd5b612d3482612951565b810181811067ffffffffffffffff82111715612d5357612d52612cfc565b5b80604052505050565b6000612d66612833565b9050612d728282612d2b565b919050565b600067ffffffffffffffff821115612d9257612d91612cfc565b5b612d9b82612951565b9050602081019050919050565b82818337600083830152505050565b6000612dca612dc584612d77565b612d5c565b905082815260208101848484011115612de657612de5612cf7565b5b612df1848285612da8565b509392505050565b600082601f830112612e0e57612e0d612cf2565b5b8135612e1e848260208601612db7565b91505092915050565b60008060008060808587031215612e4157612e4061283d565b5b6000612e4f87828801612a93565b9450506020612e6087828801612a93565b9350506040612e71878288016129de565b925050606085013567ffffffffffffffff811115612e9257612e91612842565b5b612e9e87828801612df9565b91505092959194509250565b7f4e487b7100000000000000000000000000000000000000000000000000000000600052602160045260246000fd5b60028110612eea57612ee9612eaa565b5b50565b6000819050612efb82612ed9565b919050565b6000612f0b82612eed565b9050919050565b612f1b81612f00565b82525050565b6000602082019050612f366000830184612f12565b92915050565b600080fd5b600080fd5b60008083601f840112612f5c57612f5b612cf2565b5b8235905067ffffffffffffffff811115612f7957612f78612f3c565b5b602083019150836001820283011115612f9557612f94612f41565b5b9250929050565b600080600060408486031215612fb557612fb461283d565b5b6000612fc386828701612a93565b935050602084013567ffffffffffffffff811115612fe457612fe3612842565b5b612ff086828701612f46565b92509250509250925092565b600080604083850312156130135761301261283d565b5b600061302185828601612a93565b925050602061303285828601612a93565b9150509250929050565b7f4e487b7100000000000000000000000000000000000000000000000000000000600052602260045260246000fd5b6000600282049050600182168061308357607f821691505b602082108114156130975761309661303c565b5b50919050565b7f4552433732313a20617070726f76616c20746f2063757272656e74206f776e6560008201527f7200000000000000000000000000000000000000000000000000000000000000602082015250565b60006130f960218361290d565b91506131048261309d565b604082019050919050565b60006020820190508181036000830152613128816130ec565b9050919050565b7f4552433732313a20617070726f76652063616c6c6572206973206e6f7420746f60008201527f6b656e206f776e6572206e6f7220617070726f76656420666f7220616c6c0000602082015250565b600061318b603e8361290d565b91506131968261312f565b604082019050919050565b600060208201905081810360008301526131ba8161317e565b9050919050565b7f5369676e617475726520696e76616c6964000000000000000000000000000000600082015250565b60006131f760118361290d565b9150613202826131c1565b602082019050919050565b60006020820190508181036000830152613226816131ea565b9050919050565b7f496e73756666696369656e742066756e647320746f2072656465656d00000000600082015250565b6000613263601c8361290d565b915061326e8261322d565b602082019050919050565b6000602082019050818103600083015261329281613256565b9050919050565b600080fd5b600080fd5b600080fd5b600080833560016020038436030381126132c5576132c4613299565b5b80840192508235915067ffffffffffffffff8211156132e7576132e661329e565b5b602083019250600182023603831315613303576133026132a3565b5b509250929050565b7f4e487b7100000000000000000000000000000000000000000000000000000000600052601160045260246000fd5b6000613345826129bd565b9150613350836129bd565b9250828210156133635761336261330b565b5b828203905092915050565b6000613379826129bd565b9150613384836129bd565b9250827fffffffffffffffffffffffffffffffffffffffffffffffffffffffffffffffff038211156133b9576133b861330b565b5b828201905092915050565b600081905092915050565b50565b60006133df6000836133c4565b91506133ea826133cf565b600082019050919050565b6000613400826133d2565b9150819050919050565b7f5472616e73666572206661696c65640000000000000000000000000000000000600082015250565b6000613440600f8361290d565b915061344b8261340a565b602082019050919050565b6000602082019050818103600083015261346f81613433565b9050919050565b7f4552433732313a2063616c6c6572206973206e6f7420746f6b656e206f776e6560008201527f72206e6f7220617070726f766564000000000000000000000000000000000000602082015250565b60006134d2602e8361290d565b91506134dd82613476565b604082019050919050565b60006020820190508181036000830152613501816134c5565b9050919050565b7f4552433732313a20696e76616c696420746f6b656e2049440000000000000000600082015250565b600061353e60188361290d565b915061354982613508565b602082019050919050565b6000602082019050818103600083015261356d81613531565b9050919050565b7f4552433732313a2061646472657373207a65726f206973206e6f74206120766160008201527f6c6964206f776e65720000000000000000000000000000000000000000000000602082015250565b60006135d060298361290d565b91506135db82613574565b604082019050919050565b600060208201905081810360008301526135ff816135c3565b9050919050565b600081905092915050565b600061361c82612902565b6136268185613606565b935061363681856020860161291e565b80840191505092915050565b600061364e8285613611565b915061365a8284613611565b91508190509392505050565b7f4f776e61626c653a206e6577206f776e657220697320746865207a65726f206160008201527f6464726573730000000000000000000000000000000000000000000000000000602082015250565b60006136c260268361290d565b91506136cd82613666565b604082019050919050565b600060208201905081810360008301526136f1816136b5565b9050919050565b6000808335600160200384360303811261371557613714613299565b5b80840192508235915067ffffffffffffffff8211156137375761373661329e565b5b602083019250600182023603831315613753576137526132a3565b5b509250929050565b7f4552433732313a207472616e736665722066726f6d20696e636f72726563742060008201527f6f776e6572000000000000000000000000000000000000000000000000000000602082015250565b60006137b760258361290d565b91506137c28261375b565b604082019050919050565b600060208201905081810360008301526137e6816137aa565b9050919050565b7f4552433732313a207472616e7366657220746f20746865207a65726f2061646460008201527f7265737300000000000000000000000000000000000000000000000000000000602082015250565b600061384960248361290d565b9150613854826137ed565b604082019050919050565b600060208201905081810360008301526138788161383c565b9050919050565b7f4e487b7100000000000000000000000000000000000000000000000000000000600052601260045260246000fd5b60006138b982612be5565b91506138c483612be5565b9250826138d4576138d361387f565b5b828204905092915050565b60006138ea826129bd565b91506138f5836129bd565b9250817fffffffffffffffffffffffffffffffffffffffffffffffffffffffffffffffff048311821515161561392e5761392d61330b565b5b828202905092915050565b7f4f776e61626c653a2063616c6c6572206973206e6f7420746865206f776e6572600082015250565b600061396f60208361290d565b915061397a82613939565b602082019050919050565b6000602082019050818103600083015261399e81613962565b9050919050565b7f4552433732313a20617070726f766520746f2063616c6c657200000000000000600082015250565b60006139db60198361290d565b91506139e6826139a5565b602082019050919050565b60006020820190508181036000830152613a0a816139ce565b9050919050565b7f4552433732313a207472616e7366657220746f206e6f6e20455243373231526560008201527f63656976657220696d706c656d656e7465720000000000000000000000000000602082015250565b6000613a6d60328361290d565b9150613a7882613a11565b604082019050919050565b60006020820190508181036000830152613a9c81613a60565b9050919050565b7f4552433732313a206d696e7420746f20746865207a65726f2061646472657373600082015250565b6000613ad960208361290d565b9150613ae482613aa3565b602082019050919050565b60006020820190508181036000830152613b0881613acc565b9050919050565b7f4552433732313a20746f6b656e20616c7265616479206d696e74656400000000600082015250565b6000613b45601c8361290d565b9150613b5082613b0f565b602082019050919050565b60006020820190508181036000830152613b7481613b38565b9050919050565b7f45524337323155524953746f726167653a2055524920736574206f66206e6f6e60008201527f6578697374656e7420746f6b656e000000000000000000000000000000000000602082015250565b6000613bd7602e8361290d565b9150613be282613b7b565b604082019050919050565b60006020820190508181036000830152613c0681613bca565b9050919050565b6000613c1983856133c4565b9350613c26838584612da8565b82840190509392505050565b6000613c3f828486613c0d565b91508190509392505050565b6000819050919050565b613c5e81613c4b565b82525050565b6000608082019050613c796000830187613c55565b613c866020830186612a52565b613c936040830185612b68565b613ca06060830184613c55565b95945050505050565b600081519050919050565b600082825260208201905092915050565b6000613cd082613ca9565b613cda8185613cb4565b9350613cea81856020860161291e565b613cf381612951565b840191505092915050565b6000608082019050613d136000830187612a52565b613d206020830186612a52565b613d2d6040830185612b68565b8181036060830152613d3f8184613cc5565b905095945050505050565b600081519050613d5981612873565b92915050565b600060208284031215613d7557613d7461283d565b5b6000613d8384828501613d4a565b91505092915050565b6000613d97826129bd565b91507fffffffffffffffffffffffffffffffffffffffffffffffffffffffffffffffff821415613dca57613dc961330b565b5b600182019050919050565b6000613de0826129bd565b9150613deb836129bd565b925082613dfb57613dfa61387f565b5b828204905092915050565b6000613e11826129bd565b9150613e1c836129bd565b925082613e2c57613e2b61387f565b5b828206905092915050565b7f4e487b7100000000000000000000000000000000000000000000000000000000600052603260045260246000fd5b7f45434453413a20696e76616c6964207369676e61747572650000000000000000600082015250565b6000613e9c60188361290d565b9150613ea782613e66565b602082019050919050565b60006020820190508181036000830152613ecb81613e8f565b9050919050565b7f45434453413a20696e76616c6964207369676e6174757265206c656e67746800600082015250565b6000613f08601f8361290d565b9150613f1382613ed2565b602082019050919050565b60006020820190508181036000830152613f3781613efb565b9050919050565b7f45434453413a20696e76616c6964207369676e6174757265202773272076616c60008201527f7565000000000000000000000000000000000000000000000000000000000000602082015250565b6000613f9a60228361290d565b9150613fa582613f3e565b604082019050919050565b60006020820190508181036000830152613fc981613f8d565b9050919050565b7f45434453413a20696e76616c6964207369676e6174757265202776272076616c60008201527f7565000000000000000000000000000000000000000000000000000000000000602082015250565b600061402c60228361290d565b915061403782613fd0565b604082019050919050565b6000602082019050818103600083015261405b8161401f565b9050919050565b7f1901000000000000000000000000000000000000000000000000000000000000600082015250565b6000614098600283613606565b91506140a382614062565b600282019050919050565b6000819050919050565b6140c96140c482613c4b565b6140ae565b82525050565b60006140da8261408b565b91506140e682856140b8565b6020820191506140f682846140b8565b6020820191508190509392505050565b600060ff82169050919050565b61411c81614106565b82525050565b60006080820190506141376000830187613c55565b6141446020830186614113565b6141516040830185613c55565b61415e6060830184613c55565b95945050505050565b600060a08201905061417c6000830188613c55565b6141896020830187613c55565b6141966040830186613c55565b6141a36060830185612b68565b6141b06080830184612a52565b969550505050505056fea26469706673582212202771b5d4d99d36466f9a7f30b429868bbd22420dd10bf343baadadd1d050b4de64736f6c63430008090033",
  "linkReferences": {},
  "deployedLinkReferences": {}
}