{
  "_format": "hh-sol-artifact-1",
  "contractName": "ArtongNFT",
  "sourceName": "contracts/ArtongNFT.sol",
  "abi": [
    {
      "inputs": [
        {
          "internalType": "string",
          "name": "_name",
          "type": "string"
        },
        {
          "internalType": "string",
          "name": "_symbol",
          "type": "string"
        },
        {
          "internalType": "address",
          "name": "_marketplace",
          "type": "address"
        },
        {
          "internalType": "uint16",
          "name": "_platformFee",
          "type": "uint16"
        },
        {
          "internalType": "address payable",
          "name": "_feeReceipient",
          "type": "address"
        },
        {
          "internalType": "uint256",
          "name": "_maxAmount",
          "type": "uint256"
        },
        {
          "internalType": "enum ArtongNFT.Policy",
          "name": "_policy",
          "type": "uint8"
        }
      ],
      "stateMutability": "nonpayable",
      "type": "constructor"
    },
    {
      "anonymous": false,
      "inputs": [
        {
          "indexed": true,
          "internalType": "address",
          "name": "owner",
          "type": "address"
        },
        {
          "indexed": true,
          "internalType": "address",
          "name": "approved",
          "type": "address"
        },
        {
          "indexed": true,
          "internalType": "uint256",
          "name": "tokenId",
          "type": "uint256"
        }
      ],
      "name": "Approval",
      "type": "event"
    },
    {
      "anonymous": false,
      "inputs": [
        {
          "indexed": true,
          "internalType": "address",
          "name": "owner",
          "type": "address"
        },
        {
          "indexed": true,
          "internalType": "address",
          "name": "operator",
          "type": "address"
        },
        {
          "indexed": false,
          "internalType": "bool",
          "name": "approved",
          "type": "bool"
        }
      ],
      "name": "ApprovalForAll",
      "type": "event"
    },
    {
      "anonymous": false,
      "inputs": [
        {
          "indexed": false,
          "internalType": "address",
          "name": "account",
          "type": "address"
        }
      ],
      "name": "Paused",
      "type": "event"
    },
    {
      "anonymous": false,
      "inputs": [
        {
          "indexed": true,
          "internalType": "address",
          "name": "from",
          "type": "address"
        },
        {
          "indexed": true,
          "internalType": "address",
          "name": "to",
          "type": "address"
        },
        {
          "indexed": true,
          "internalType": "uint256",
          "name": "tokenId",
          "type": "uint256"
        }
      ],
      "name": "Transfer",
      "type": "event"
    },
    {
      "anonymous": false,
      "inputs": [
        {
          "indexed": false,
          "internalType": "address",
          "name": "account",
          "type": "address"
        }
      ],
      "name": "Unpaused",
      "type": "event"
    },
    {
      "inputs": [
        {
          "internalType": "address",
          "name": "to",
          "type": "address"
        },
        {
          "internalType": "uint256",
          "name": "tokenId",
          "type": "uint256"
        }
      ],
      "name": "approve",
      "outputs": [],
      "stateMutability": "nonpayable",
      "type": "function"
    },
    {
      "inputs": [
        {
          "internalType": "address",
          "name": "owner",
          "type": "address"
        }
      ],
      "name": "balanceOf",
      "outputs": [
        {
          "internalType": "uint256",
          "name": "",
          "type": "uint256"
        }
      ],
      "stateMutability": "view",
      "type": "function"
    },
    {
      "inputs": [
        {
          "internalType": "uint256",
          "name": "tokenId",
          "type": "uint256"
        }
      ],
      "name": "burn",
      "outputs": [],
      "stateMutability": "nonpayable",
      "type": "function"
    },
    {
      "inputs": [],
      "name": "feeReceipient",
      "outputs": [
        {
          "internalType": "address payable",
          "name": "",
          "type": "address"
        }
      ],
      "stateMutability": "view",
      "type": "function"
    },
    {
      "inputs": [
        {
          "internalType": "uint256",
          "name": "tokenId",
          "type": "uint256"
        }
      ],
      "name": "getApproved",
      "outputs": [
        {
          "internalType": "address",
          "name": "",
          "type": "address"
        }
      ],
      "stateMutability": "view",
      "type": "function"
    },
    {
      "inputs": [],
      "name": "getChainID",
      "outputs": [
        {
          "internalType": "uint256",
          "name": "",
          "type": "uint256"
        }
      ],
      "stateMutability": "view",
      "type": "function"
    },
    {
      "inputs": [],
      "name": "getWithdrawal",
      "outputs": [
        {
          "internalType": "uint256",
          "name": "",
          "type": "uint256"
        }
      ],
      "stateMutability": "view",
      "type": "function"
    },
    {
      "inputs": [
        {
          "internalType": "address",
          "name": "owner",
          "type": "address"
        },
        {
          "internalType": "address",
          "name": "operator",
          "type": "address"
        }
      ],
      "name": "isApprovedForAll",
      "outputs": [
        {
          "internalType": "bool",
          "name": "",
          "type": "bool"
        }
      ],
      "stateMutability": "view",
      "type": "function"
    },
    {
      "inputs": [],
      "name": "marketplace",
      "outputs": [
        {
          "internalType": "address",
          "name": "",
          "type": "address"
        }
      ],
      "stateMutability": "view",
      "type": "function"
    },
    {
      "inputs": [],
      "name": "maxAmount",
      "outputs": [
        {
          "internalType": "uint256",
          "name": "",
          "type": "uint256"
        }
      ],
      "stateMutability": "view",
      "type": "function"
    },
    {
      "inputs": [
        {
          "internalType": "address",
          "name": "_to",
          "type": "address"
        },
        {
          "internalType": "string",
          "name": "_tokenUri",
          "type": "string"
        }
      ],
      "name": "mint",
      "outputs": [
        {
          "internalType": "uint256",
          "name": "",
          "type": "uint256"
        }
      ],
      "stateMutability": "nonpayable",
      "type": "function"
    },
    {
      "inputs": [],
      "name": "name",
      "outputs": [
        {
          "internalType": "string",
          "name": "",
          "type": "string"
        }
      ],
      "stateMutability": "view",
      "type": "function"
    },
    {
      "inputs": [
        {
          "internalType": "uint256",
          "name": "tokenId",
          "type": "uint256"
        }
      ],
      "name": "ownerOf",
      "outputs": [
        {
          "internalType": "address",
          "name": "",
          "type": "address"
        }
      ],
      "stateMutability": "view",
      "type": "function"
    },
    {
      "inputs": [],
      "name": "pause",
      "outputs": [],
      "stateMutability": "nonpayable",
      "type": "function"
    },
    {
      "inputs": [],
      "name": "paused",
      "outputs": [
        {
          "internalType": "bool",
          "name": "",
          "type": "bool"
        }
      ],
      "stateMutability": "view",
      "type": "function"
    },
    {
      "inputs": [],
      "name": "platformFee",
      "outputs": [
        {
          "internalType": "uint16",
          "name": "",
          "type": "uint16"
        }
      ],
      "stateMutability": "view",
      "type": "function"
    },
    {
      "inputs": [],
      "name": "policy",
      "outputs": [
        {
          "internalType": "enum ArtongNFT.Policy",
          "name": "",
          "type": "uint8"
        }
      ],
      "stateMutability": "view",
      "type": "function"
    },
    {
      "inputs": [
        {
          "internalType": "address",
          "name": "redeemer",
          "type": "address"
        },
        {
          "components": [
            {
              "internalType": "address",
              "name": "creator",
              "type": "address"
            },
            {
              "internalType": "uint256",
              "name": "minPrice",
              "type": "uint256"
            },
            {
              "internalType": "string",
              "name": "uri",
              "type": "string"
            },
            {
              "internalType": "bytes",
              "name": "signature",
              "type": "bytes"
            }
          ],
          "internalType": "struct ArtongNFT.NFTVoucher",
          "name": "voucher",
          "type": "tuple"
        }
      ],
      "name": "redeem",
      "outputs": [
        {
          "internalType": "uint256",
          "name": "",
          "type": "uint256"
        }
      ],
      "stateMutability": "payable",
      "type": "function"
    },
    {
      "inputs": [
        {
          "internalType": "address",
          "name": "from",
          "type": "address"
        },
        {
          "internalType": "address",
          "name": "to",
          "type": "address"
        },
        {
          "internalType": "uint256",
          "name": "tokenId",
          "type": "uint256"
        }
      ],
      "name": "safeTransferFrom",
      "outputs": [],
      "stateMutability": "nonpayable",
      "type": "function"
    },
    {
      "inputs": [
        {
          "internalType": "address",
          "name": "from",
          "type": "address"
        },
        {
          "internalType": "address",
          "name": "to",
          "type": "address"
        },
        {
          "internalType": "uint256",
          "name": "tokenId",
          "type": "uint256"
        },
        {
          "internalType": "bytes",
          "name": "data",
          "type": "bytes"
        }
      ],
      "name": "safeTransferFrom",
      "outputs": [],
      "stateMutability": "nonpayable",
      "type": "function"
    },
    {
      "inputs": [
        {
          "internalType": "address",
          "name": "operator",
          "type": "address"
        },
        {
          "internalType": "bool",
          "name": "approved",
          "type": "bool"
        }
      ],
      "name": "setApprovalForAll",
      "outputs": [],
      "stateMutability": "nonpayable",
      "type": "function"
    },
    {
      "inputs": [
        {
          "internalType": "bytes4",
          "name": "interfaceId",
          "type": "bytes4"
        }
      ],
      "name": "supportsInterface",
      "outputs": [
        {
          "internalType": "bool",
          "name": "",
          "type": "bool"
        }
      ],
      "stateMutability": "view",
      "type": "function"
    },
    {
      "inputs": [],
      "name": "symbol",
      "outputs": [
        {
          "internalType": "string",
          "name": "",
          "type": "string"
        }
      ],
      "stateMutability": "view",
      "type": "function"
    },
    {
      "inputs": [
        {
          "internalType": "uint256",
          "name": "tokenId",
          "type": "uint256"
        }
      ],
      "name": "tokenURI",
      "outputs": [
        {
          "internalType": "string",
          "name": "",
          "type": "string"
        }
      ],
      "stateMutability": "view",
      "type": "function"
    },
    {
      "inputs": [
        {
          "internalType": "address",
          "name": "from",
          "type": "address"
        },
        {
          "internalType": "address",
          "name": "to",
          "type": "address"
        },
        {
          "internalType": "uint256",
          "name": "tokenId",
          "type": "uint256"
        }
      ],
      "name": "transferFrom",
      "outputs": [],
      "stateMutability": "nonpayable",
      "type": "function"
    },
    {
      "inputs": [],
      "name": "unpause",
      "outputs": [],
      "stateMutability": "nonpayable",
      "type": "function"
    },
    {
      "inputs": [],
      "name": "withdraw",
      "outputs": [],
      "stateMutability": "nonpayable",
      "type": "function"
    }
  ],
  "bytecode": "0x6101606040523480156200001257600080fd5b50604051620051253803806200512583398181016040528101906200003891906200065e565b6040518060400160405280601181526020017f4172746f6e674e46542d566f75636865720000000000000000000000000000008152506040518060400160405280600181526020017f310000000000000000000000000000000000000000000000000000000000000081525088888160009080519060200190620000be929190620002c5565b508060019080519060200190620000d7929190620002c5565b50505060008280519060200120905060008280519060200120905060007f8b73c3c69bb8fe3d512ecc4cf759cc79239f7b179b0ffacaa9a75d522b39400f90508260e081815250508161010081815250504660a08181525050620001438184846200028960201b60201c565b608081815250503073ffffffffffffffffffffffffffffffffffffffff1660c08173ffffffffffffffffffffffffffffffffffffffff168152505080610120818152505050505050506000600760006101000a81548160ff02191690831515021790555084600960016101000a81548173ffffffffffffffffffffffffffffffffffffffff021916908373ffffffffffffffffffffffffffffffffffffffff16021790555083600960156101000a81548161ffff021916908361ffff16021790555082600a60006101000a81548173ffffffffffffffffffffffffffffffffffffffff021916908373ffffffffffffffffffffffffffffffffffffffff16021790555081610140818152505080600960006101000a81548160ff021916908360018111156200027757620002766200074f565b5b0217905550505050505050506200087d565b60008383834630604051602001620002a6959493929190620007bb565b6040516020818303038152906040528051906020012090509392505050565b828054620002d39062000847565b90600052602060002090601f016020900481019282620002f7576000855562000343565b82601f106200031257805160ff191683800117855562000343565b8280016001018555821562000343579182015b828111156200034257825182559160200191906001019062000325565b5b50905062000352919062000356565b5090565b5b808211156200037157600081600090555060010162000357565b5090565b6000604051905090565b600080fd5b600080fd5b600080fd5b600080fd5b6000601f19601f8301169050919050565b7f4e487b7100000000000000000000000000000000000000000000000000000000600052604160045260246000fd5b620003de8262000393565b810181811067ffffffffffffffff821117156200040057620003ff620003a4565b5b80604052505050565b60006200041562000375565b9050620004238282620003d3565b919050565b600067ffffffffffffffff821115620004465762000445620003a4565b5b620004518262000393565b9050602081019050919050565b60005b838110156200047e57808201518184015260208101905062000461565b838111156200048e576000848401525b50505050565b6000620004ab620004a58462000428565b62000409565b905082815260208101848484011115620004ca57620004c96200038e565b5b620004d78482856200045e565b509392505050565b600082601f830112620004f757620004f662000389565b5b81516200050984826020860162000494565b91505092915050565b600073ffffffffffffffffffffffffffffffffffffffff82169050919050565b60006200053f8262000512565b9050919050565b620005518162000532565b81146200055d57600080fd5b50565b600081519050620005718162000546565b92915050565b600061ffff82169050919050565b620005908162000577565b81146200059c57600080fd5b50565b600081519050620005b08162000585565b92915050565b6000620005c38262000512565b9050919050565b620005d581620005b6565b8114620005e157600080fd5b50565b600081519050620005f581620005ca565b92915050565b6000819050919050565b6200061081620005fb565b81146200061c57600080fd5b50565b600081519050620006308162000605565b92915050565b600281106200064457600080fd5b50565b600081519050620006588162000636565b92915050565b600080600080600080600060e0888a03121562000680576200067f6200037f565b5b600088015167ffffffffffffffff811115620006a157620006a062000384565b5b620006af8a828b01620004df565b975050602088015167ffffffffffffffff811115620006d357620006d262000384565b5b620006e18a828b01620004df565b9650506040620006f48a828b0162000560565b9550506060620007078a828b016200059f565b94505060806200071a8a828b01620005e4565b93505060a06200072d8a828b016200061f565b92505060c0620007408a828b0162000647565b91505092959891949750929550565b7f4e487b7100000000000000000000000000000000000000000000000000000000600052602160045260246000fd5b6000819050919050565b62000793816200077e565b82525050565b620007a481620005fb565b82525050565b620007b58162000532565b82525050565b600060a082019050620007d2600083018862000788565b620007e1602083018762000788565b620007f0604083018662000788565b620007ff606083018562000799565b6200080e6080830184620007aa565b9695505050505050565b7f4e487b7100000000000000000000000000000000000000000000000000000000600052602260045260246000fd5b600060028204905060018216806200086057607f821691505b6020821081141562000877576200087662000818565b5b50919050565b60805160a05160c05160e051610100516101205161014051614846620008df60003960008181610e4701526114f7015260006129e201526000612a2401526000612a03015260006129380152600061298e015260006129b701526148466000f3fe60806040526004361061019c5760003560e01c8063564b81ef116100ec57806395d89b411161008a578063b88d4fde11610064578063b88d4fde14610585578063c87b56dd146105ae578063d0def521146105eb578063e985e9c5146106285761019c565b806395d89b4114610506578063a22cb46514610531578063abc8c7af1461055a5761019c565b80636352211e116100c65780636352211e1461044a57806370a0823114610487578063806ad169146104c45780638456cb59146104ef5761019c565b8063564b81ef146103c95780635c975abb146103f45780635f48f3931461041f5761019c565b806323b872dd116101595780633ccfd60b116101335780633ccfd60b146103495780633f4ba83a1461036057806342842e0e1461037757806342966c68146103a05761019c565b806323b872dd146102ca57806326232a2e146102f35780633740ebb31461031e5761019c565b806301ffc9a7146101a15780630505c8c9146101de57806306fdde0314610209578063081812fc14610234578063095ea7b314610271578063111425521461029a575b600080fd5b3480156101ad57600080fd5b506101c860048036038101906101c39190612d76565b610665565b6040516101d59190612dbe565b60405180910390f35b3480156101ea57600080fd5b506101f3610747565b6040516102009190612e50565b60405180910390f35b34801561021557600080fd5b5061021e61075a565b60405161022b9190612f04565b60405180910390f35b34801561024057600080fd5b5061025b60048036038101906102569190612f5c565b6107ec565b6040516102689190612fca565b60405180910390f35b34801561027d57600080fd5b5061029860048036038101906102939190613011565b610832565b005b6102b460048036038101906102af9190613075565b61094a565b6040516102c191906130e0565b60405180910390f35b3480156102d657600080fd5b506102f160048036038101906102ec91906130fb565b610bbc565b005b3480156102ff57600080fd5b50610308610c1c565b604051610315919061316b565b60405180910390f35b34801561032a57600080fd5b50610333610c30565b60405161034091906131a7565b60405180910390f35b34801561035557600080fd5b5061035e610c56565b005b34801561036c57600080fd5b50610375610d52565b005b34801561038357600080fd5b5061039e600480360381019061039991906130fb565b610da5565b005b3480156103ac57600080fd5b506103c760048036038101906103c29190612f5c565b610dc5565b005b3480156103d557600080fd5b506103de610e21565b6040516103eb91906130e0565b60405180910390f35b34801561040057600080fd5b50610409610e2e565b6040516104169190612dbe565b60405180910390f35b34801561042b57600080fd5b50610434610e45565b60405161044191906130e0565b60405180910390f35b34801561045657600080fd5b50610471600480360381019061046c9190612f5c565b610e69565b60405161047e9190612fca565b60405180910390f35b34801561049357600080fd5b506104ae60048036038101906104a991906131c2565b610f1b565b6040516104bb91906130e0565b60405180910390f35b3480156104d057600080fd5b506104d9610fd3565b6040516104e691906130e0565b60405180910390f35b3480156104fb57600080fd5b5061050461101a565b005b34801561051257600080fd5b5061051b61106d565b6040516105289190612f04565b60405180910390f35b34801561053d57600080fd5b506105586004803603810190610553919061321b565b6110ff565b005b34801561056657600080fd5b5061056f611115565b60405161057c9190612fca565b60405180910390f35b34801561059157600080fd5b506105ac60048036038101906105a79190613390565b61113b565b005b3480156105ba57600080fd5b506105d560048036038101906105d09190612f5c565b61119d565b6040516105e29190612f04565b60405180910390f35b3480156105f757600080fd5b50610612600480360381019061060d9190613473565b6111af565b60405161061f91906130e0565b60405180910390f35b34801561063457600080fd5b5061064f600480360381019061064a91906134d3565b611243565b60405161065c9190612dbe565b60405180910390f35b60007f80ac58cd000000000000000000000000000000000000000000000000000000007bffffffffffffffffffffffffffffffffffffffffffffffffffffffff1916827bffffffffffffffffffffffffffffffffffffffffffffffffffffffff1916148061073057507f5b5e139f000000000000000000000000000000000000000000000000000000007bffffffffffffffffffffffffffffffffffffffffffffffffffffffff1916827bffffffffffffffffffffffffffffffffffffffffffffffffffffffff1916145b80610740575061073f826112b7565b5b9050919050565b600960009054906101000a900460ff1681565b60606000805461076990613542565b80601f016020809104026020016040519081016040528092919081815260200182805461079590613542565b80156107e25780601f106107b7576101008083540402835291602001916107e2565b820191906000526020600020905b8154815290600101906020018083116107c557829003601f168201915b5050505050905090565b60006107f782611321565b6004600083815260200190815260200160002060009054906101000a900473ffffffffffffffffffffffffffffffffffffffff169050919050565b600061083d82610e69565b90508073ffffffffffffffffffffffffffffffffffffffff168373ffffffffffffffffffffffffffffffffffffffff1614156108ae576040517f08c379a00000000000000000000000000000000000000000000000000000000081526004016108a5906135e6565b60405180910390fd5b8073ffffffffffffffffffffffffffffffffffffffff166108cd61136c565b73ffffffffffffffffffffffffffffffffffffffff1614806108fc57506108fb816108f661136c565b611243565b5b61093b576040517f08c379a000000000000000000000000000000000000000000000000000000000815260040161093290613678565b60405180910390fd5b6109458383611374565b505050565b600061095461142d565b600061095f83611477565b905082600001602081019061097491906131c2565b73ffffffffffffffffffffffffffffffffffffffff168173ffffffffffffffffffffffffffffffffffffffff16146109e1576040517f08c379a00000000000000000000000000000000000000000000000000000000081526004016109d8906136e4565b60405180910390fd5b8260200135341015610a28576040517f08c379a0000000000000000000000000000000000000000000000000000000008152600401610a1f90613750565b60405180910390fd5b6000610a55846000016020810190610a4091906131c2565b858060400190610a50919061377f565b6114e9565b9050610a74846000016020810190610a6d91906131c2565b86836115d1565b6000610a7e611838565b90508034610a8c9190613811565b600b60008573ffffffffffffffffffffffffffffffffffffffff1673ffffffffffffffffffffffffffffffffffffffff1681526020019081526020016000206000828254610ada9190613845565b925050819055506000600a60009054906101000a900473ffffffffffffffffffffffffffffffffffffffff1673ffffffffffffffffffffffffffffffffffffffff1682604051610b29906138cc565b60006040518083038185875af1925050503d8060008114610b66576040519150601f19603f3d011682016040523d82523d6000602084013e610b6b565b606091505b5050905080610baf576040517f08c379a0000000000000000000000000000000000000000000000000000000008152600401610ba69061392d565b60405180910390fd5b8294505050505092915050565b610bcd610bc761136c565b8261186c565b610c0c576040517f08c379a0000000000000000000000000000000000000000000000000000000008152600401610c03906139bf565b60405180910390fd5b610c178383836115d1565b505050565b600960159054906101000a900461ffff1681565b600a60009054906101000a900473ffffffffffffffffffffffffffffffffffffffff1681565b610c5e61142d565b6000600b60003373ffffffffffffffffffffffffffffffffffffffff1673ffffffffffffffffffffffffffffffffffffffff1681526020019081526020016000205490506000811415610cb057600080fd5b80471015610cbd57600080fd5b60003390506000600b60003373ffffffffffffffffffffffffffffffffffffffff1673ffffffffffffffffffffffffffffffffffffffff168152602001908152602001600020819055508073ffffffffffffffffffffffffffffffffffffffff166108fc839081150290604051600060405180830381858888f19350505050158015610d4d573d6000803e3d6000fd5b505050565b610d5c3333611243565b610d9b576040517f08c379a0000000000000000000000000000000000000000000000000000000008152600401610d9290613a2b565b60405180910390fd5b610da36118f0565b565b610dc08383836040518060200160405280600081525061113b565b505050565b610dd6610dd061136c565b8261186c565b610e15576040517f08c379a0000000000000000000000000000000000000000000000000000000008152600401610e0c906139bf565b60405180910390fd5b610e1e81611953565b50565b6000804690508091505090565b6000600760009054906101000a900460ff16905090565b7f000000000000000000000000000000000000000000000000000000000000000081565b6000806002600084815260200190815260200160002060009054906101000a900473ffffffffffffffffffffffffffffffffffffffff169050600073ffffffffffffffffffffffffffffffffffffffff168173ffffffffffffffffffffffffffffffffffffffff161415610f12576040517f08c379a0000000000000000000000000000000000000000000000000000000008152600401610f0990613a97565b60405180910390fd5b80915050919050565b60008073ffffffffffffffffffffffffffffffffffffffff168273ffffffffffffffffffffffffffffffffffffffff161415610f8c576040517f08c379a0000000000000000000000000000000000000000000000000000000008152600401610f8390613b29565b60405180910390fd5b600360008373ffffffffffffffffffffffffffffffffffffffff1673ffffffffffffffffffffffffffffffffffffffff168152602001908152602001600020549050919050565b6000600b60003373ffffffffffffffffffffffffffffffffffffffff1673ffffffffffffffffffffffffffffffffffffffff16815260200190815260200160002054905090565b6110243333611243565b611063576040517f08c379a000000000000000000000000000000000000000000000000000000000815260040161105a90613a2b565b60405180910390fd5b61106b61195f565b565b60606001805461107c90613542565b80601f01602080910402602001604051908101604052809291908181526020018280546110a890613542565b80156110f55780601f106110ca576101008083540402835291602001916110f5565b820191906000526020600020905b8154815290600101906020018083116110d857829003601f168201915b5050505050905090565b61111161110a61136c565b83836119c2565b5050565b600960019054906101000a900473ffffffffffffffffffffffffffffffffffffffff1681565b61114c61114661136c565b8361186c565b61118b576040517f08c379a0000000000000000000000000000000000000000000000000000000008152600401611182906139bf565b60405180910390fd5b61119784848484611b2f565b50505050565b60606111a882611b8b565b9050919050565b60006111b961142d565b600060018111156111cd576111cc612dd9565b5b600960009054906101000a900460ff1660018111156111ef576111ee612dd9565b5b1461122f576040517f08c379a000000000000000000000000000000000000000000000000000000000815260040161122690613b95565b60405180910390fd5b61123a8484846114e9565b90509392505050565b60008173ffffffffffffffffffffffffffffffffffffffff16600960019054906101000a900473ffffffffffffffffffffffffffffffffffffffff1673ffffffffffffffffffffffffffffffffffffffff1614156112a457600190506112b1565b6112ae8383611c9e565b90505b92915050565b60007f01ffc9a7000000000000000000000000000000000000000000000000000000007bffffffffffffffffffffffffffffffffffffffffffffffffffffffff1916827bffffffffffffffffffffffffffffffffffffffffffffffffffffffff1916149050919050565b61132a81611d32565b611369576040517f08c379a000000000000000000000000000000000000000000000000000000000815260040161136090613a97565b60405180910390fd5b50565b600033905090565b816004600083815260200190815260200160002060006101000a81548173ffffffffffffffffffffffffffffffffffffffff021916908373ffffffffffffffffffffffffffffffffffffffff160217905550808273ffffffffffffffffffffffffffffffffffffffff166113e783610e69565b73ffffffffffffffffffffffffffffffffffffffff167f8c5be1e5ebec7d5bd14f71427d1e84f3dd0314c0f7b2291e5b200ac8c7c3b92560405160405180910390a45050565b611435610e2e565b15611475576040517f08c379a000000000000000000000000000000000000000000000000000000000815260040161146c90613c01565b60405180910390fd5b565b60008061148383611d9e565b90506114e1818480606001906114999190613c21565b8080601f016020809104026020016040519081016040528093929190818152602001838380828437600081840152601f19601f82011690508083019250505050505050611e37565b915050919050565b60006114f56008611e5e565b7f000000000000000000000000000000000000000000000000000000000000000011611556576040517f08c379a000000000000000000000000000000000000000000000000000000000815260040161154d90613cd0565b60405180910390fd5b6115606008611e6c565b600061156c6008611e5e565b90506115788582611e82565b6115c68185858080601f016020809104026020016040519081016040528093929190818152602001838380828437600081840152601f19601f8201169050808301925050505050505061205c565b809150509392505050565b8273ffffffffffffffffffffffffffffffffffffffff166115f182610e69565b73ffffffffffffffffffffffffffffffffffffffff1614611647576040517f08c379a000000000000000000000000000000000000000000000000000000000815260040161163e90613d62565b60405180910390fd5b600073ffffffffffffffffffffffffffffffffffffffff168273ffffffffffffffffffffffffffffffffffffffff1614156116b7576040517f08c379a00000000000000000000000000000000000000000000000000000000081526004016116ae90613df4565b60405180910390fd5b6116c28383836120d0565b6116cd600082611374565b6001600360008573ffffffffffffffffffffffffffffffffffffffff1673ffffffffffffffffffffffffffffffffffffffff168152602001908152602001600020600082825461171d9190613811565b925050819055506001600360008473ffffffffffffffffffffffffffffffffffffffff1673ffffffffffffffffffffffffffffffffffffffff16815260200190815260200160002060008282546117749190613845565b92505081905550816002600083815260200190815260200160002060006101000a81548173ffffffffffffffffffffffffffffffffffffffff021916908373ffffffffffffffffffffffffffffffffffffffff160217905550808273ffffffffffffffffffffffffffffffffffffffff168473ffffffffffffffffffffffffffffffffffffffff167fddf252ad1be2c89b69c2b068fc378daa952ba7f163c4a11628f55a4df523b3ef60405160405180910390a46118338383836120d5565b505050565b6000612710600960159054906101000a900461ffff1661ffff163461185d9190613e14565b6118679190613e9d565b905090565b600061187782611d32565b6118b6576040517f08c379a00000000000000000000000000000000000000000000000000000000081526004016118ad90613f40565b60405180910390fd5b60006118c183610e69565b90506118cd8185611243565b156118dc5760019150506118ea565b6118e684846120da565b9150505b92915050565b6118f861216f565b6000600760006101000a81548160ff0219169083151502179055507f5db9ee0a495bf2e6ff9c91a7834c1ba4fdd244a5e8aa4e537bd38aeae4b073aa61193c61136c565b6040516119499190612fca565b60405180910390a1565b61195c816121b8565b50565b61196761142d565b6001600760006101000a81548160ff0219169083151502179055507f62e78cea01bee320cd4e420270b5ea74000d11b0c9f74754ebdbfc544b05a2586119ab61136c565b6040516119b89190612fca565b60405180910390a1565b8173ffffffffffffffffffffffffffffffffffffffff168373ffffffffffffffffffffffffffffffffffffffff161415611a31576040517f08c379a0000000000000000000000000000000000000000000000000000000008152600401611a2890613fac565b60405180910390fd5b80600560008573ffffffffffffffffffffffffffffffffffffffff1673ffffffffffffffffffffffffffffffffffffffff16815260200190815260200160002060008473ffffffffffffffffffffffffffffffffffffffff1673ffffffffffffffffffffffffffffffffffffffff16815260200190815260200160002060006101000a81548160ff0219169083151502179055508173ffffffffffffffffffffffffffffffffffffffff168373ffffffffffffffffffffffffffffffffffffffff167f17307eab39ab6107e8899845ad3d59bd9653f200f220920489ca2b5937696c3183604051611b229190612dbe565b60405180910390a3505050565b611b3a8484846115d1565b611b468484848461220b565b611b85576040517f08c379a0000000000000000000000000000000000000000000000000000000008152600401611b7c9061403e565b60405180910390fd5b50505050565b6060611b9682611321565b6000600660008481526020019081526020016000208054611bb690613542565b80601f0160208091040260200160405190810160405280929190818152602001828054611be290613542565b8015611c2f5780601f10611c0457610100808354040283529160200191611c2f565b820191906000526020600020905b815481529060010190602001808311611c1257829003601f168201915b505050505090506000611c406123a2565b9050600081511415611c56578192505050611c99565b600082511115611c8b578082604051602001611c7392919061409a565b60405160208183030381529060405292505050611c99565b611c94846123b9565b925050505b919050565b6000600560008473ffffffffffffffffffffffffffffffffffffffff1673ffffffffffffffffffffffffffffffffffffffff16815260200190815260200160002060008373ffffffffffffffffffffffffffffffffffffffff1673ffffffffffffffffffffffffffffffffffffffff16815260200190815260200160002060009054906101000a900460ff16905092915050565b60008073ffffffffffffffffffffffffffffffffffffffff166002600084815260200190815260200160002060009054906101000a900473ffffffffffffffffffffffffffffffffffffffff1673ffffffffffffffffffffffffffffffffffffffff1614159050919050565b6000611e307fe2c1fe55ff75bc6c0f1e92db9b907c57038a5f95f7c137ff4bf9e10a15bc3d01836000016020810190611dd791906131c2565b8460200135858060400190611dec919061377f565b604051611dfa9291906140e3565b6040518091039020604051602001611e159493929190614115565b60405160208183030381529060405280519060200120612421565b9050919050565b6000806000611e46858561243b565b91509150611e53816124be565b819250505092915050565b600081600001549050919050565b6001816000016000828254019250508190555050565b600073ffffffffffffffffffffffffffffffffffffffff168273ffffffffffffffffffffffffffffffffffffffff161415611ef2576040517f08c379a0000000000000000000000000000000000000000000000000000000008152600401611ee9906141a6565b60405180910390fd5b611efb81611d32565b15611f3b576040517f08c379a0000000000000000000000000000000000000000000000000000000008152600401611f3290614212565b60405180910390fd5b611f47600083836120d0565b6001600360008473ffffffffffffffffffffffffffffffffffffffff1673ffffffffffffffffffffffffffffffffffffffff1681526020019081526020016000206000828254611f979190613845565b92505081905550816002600083815260200190815260200160002060006101000a81548173ffffffffffffffffffffffffffffffffffffffff021916908373ffffffffffffffffffffffffffffffffffffffff160217905550808273ffffffffffffffffffffffffffffffffffffffff16600073ffffffffffffffffffffffffffffffffffffffff167fddf252ad1be2c89b69c2b068fc378daa952ba7f163c4a11628f55a4df523b3ef60405160405180910390a4612058600083836120d5565b5050565b61206582611d32565b6120a4576040517f08c379a000000000000000000000000000000000000000000000000000000000815260040161209b906142a4565b60405180910390fd5b806006600084815260200190815260200160002090805190602001906120cb929190612c27565b505050565b505050565b505050565b6000806120e683610e69565b90508073ffffffffffffffffffffffffffffffffffffffff168473ffffffffffffffffffffffffffffffffffffffff16148061212857506121278185611243565b5b8061216657508373ffffffffffffffffffffffffffffffffffffffff1661214e846107ec565b73ffffffffffffffffffffffffffffffffffffffff16145b91505092915050565b612177610e2e565b6121b6576040517f08c379a00000000000000000000000000000000000000000000000000000000081526004016121ad90614310565b60405180910390fd5b565b6121c181612693565b60006006600083815260200190815260200160002080546121e190613542565b905014612208576006600082815260200190815260200160002060006122079190612cad565b5b50565b600061222c8473ffffffffffffffffffffffffffffffffffffffff166127b0565b15612395578373ffffffffffffffffffffffffffffffffffffffff1663150b7a0261225561136c565b8786866040518563ffffffff1660e01b81526004016122779493929190614385565b602060405180830381600087803b15801561229157600080fd5b505af19250505080156122c257506040513d601f19601f820116820180604052508101906122bf91906143e6565b60015b612345573d80600081146122f2576040519150601f19603f3d011682016040523d82523d6000602084013e6122f7565b606091505b5060008151141561233d576040517f08c379a00000000000000000000000000000000000000000000000000000000081526004016123349061403e565b60405180910390fd5b805181602001fd5b63150b7a0260e01b7bffffffffffffffffffffffffffffffffffffffffffffffffffffffff1916817bffffffffffffffffffffffffffffffffffffffffffffffffffffffff19161491505061239a565b600190505b949350505050565b606060405180602001604052806000815250905090565b60606123c482611321565b60006123ce6123a2565b905060008151116123ee5760405180602001604052806000815250612419565b806123f8846127d3565b60405160200161240992919061409a565b6040516020818303038152906040525b915050919050565b600061243461242e612934565b83612a4e565b9050919050565b60008060418351141561247d5760008060006020860151925060408601519150606086015160001a905061247187828585612a81565b945094505050506124b7565b6040835114156124ae5760008060208501519150604085015190506124a3868383612b8e565b9350935050506124b7565b60006002915091505b9250929050565b600060048111156124d2576124d1612dd9565b5b8160048111156124e5576124e4612dd9565b5b14156124f057612690565b6001600481111561250457612503612dd9565b5b81600481111561251757612516612dd9565b5b1415612558576040517f08c379a000000000000000000000000000000000000000000000000000000000815260040161254f9061445f565b60405180910390fd5b6002600481111561256c5761256b612dd9565b5b81600481111561257f5761257e612dd9565b5b14156125c0576040517f08c379a00000000000000000000000000000000000000000000000000000000081526004016125b7906144cb565b60405180910390fd5b600360048111156125d4576125d3612dd9565b5b8160048111156125e7576125e6612dd9565b5b1415612628576040517f08c379a000000000000000000000000000000000000000000000000000000000815260040161261f9061455d565b60405180910390fd5b60048081111561263b5761263a612dd9565b5b81600481111561264e5761264d612dd9565b5b141561268f576040517f08c379a0000000000000000000000000000000000000000000000000000000008152600401612686906145ef565b60405180910390fd5b5b50565b600061269e82610e69565b90506126ac816000846120d0565b6126b7600083611374565b6001600360008373ffffffffffffffffffffffffffffffffffffffff1673ffffffffffffffffffffffffffffffffffffffff16815260200190815260200160002060008282546127079190613811565b925050819055506002600083815260200190815260200160002060006101000a81549073ffffffffffffffffffffffffffffffffffffffff021916905581600073ffffffffffffffffffffffffffffffffffffffff168273ffffffffffffffffffffffffffffffffffffffff167fddf252ad1be2c89b69c2b068fc378daa952ba7f163c4a11628f55a4df523b3ef60405160405180910390a46127ac816000846120d5565b5050565b6000808273ffffffffffffffffffffffffffffffffffffffff163b119050919050565b6060600082141561281b576040518060400160405280600181526020017f3000000000000000000000000000000000000000000000000000000000000000815250905061292f565b600082905060005b6000821461284d5780806128369061460f565b915050600a826128469190613e9d565b9150612823565b60008167ffffffffffffffff81111561286957612868613265565b5b6040519080825280601f01601f19166020018201604052801561289b5781602001600182028036833780820191505090505b5090505b60008514612928576001826128b49190613811565b9150600a856128c39190614658565b60306128cf9190613845565b60f81b8183815181106128e5576128e4614689565b5b60200101907effffffffffffffffffffffffffffffffffffffffffffffffffffffffffffff1916908160001a905350600a856129219190613e9d565b945061289f565b8093505050505b919050565b60007f000000000000000000000000000000000000000000000000000000000000000073ffffffffffffffffffffffffffffffffffffffff163073ffffffffffffffffffffffffffffffffffffffff161480156129b057507f000000000000000000000000000000000000000000000000000000000000000046145b156129dd577f00000000000000000000000000000000000000000000000000000000000000009050612a4b565b612a487f00000000000000000000000000000000000000000000000000000000000000007f00000000000000000000000000000000000000000000000000000000000000007f0000000000000000000000000000000000000000000000000000000000000000612bed565b90505b90565b60008282604051602001612a63929190614725565b60405160208183030381529060405280519060200120905092915050565b6000807f7fffffffffffffffffffffffffffffff5d576e7357a4501ddfe92f46681b20a08360001c1115612abc576000600391509150612b85565b601b8560ff1614158015612ad45750601c8560ff1614155b15612ae6576000600491509150612b85565b600060018787878760405160008152602001604052604051612b0b9493929190614778565b6020604051602081039080840390855afa158015612b2d573d6000803e3d6000fd5b505050602060405103519050600073ffffffffffffffffffffffffffffffffffffffff168173ffffffffffffffffffffffffffffffffffffffff161415612b7c57600060019250925050612b85565b80600092509250505b94509492505050565b60008060007f7fffffffffffffffffffffffffffffffffffffffffffffffffffffffffffffff60001b841690506000601b60ff8660001c901c612bd19190613845565b9050612bdf87828885612a81565b935093505050935093915050565b60008383834630604051602001612c089594939291906147bd565b6040516020818303038152906040528051906020012090509392505050565b828054612c3390613542565b90600052602060002090601f016020900481019282612c555760008555612c9c565b82601f10612c6e57805160ff1916838001178555612c9c565b82800160010185558215612c9c579182015b82811115612c9b578251825591602001919060010190612c80565b5b509050612ca99190612ced565b5090565b508054612cb990613542565b6000825580601f10612ccb5750612cea565b601f016020900490600052602060002090810190612ce99190612ced565b5b50565b5b80821115612d06576000816000905550600101612cee565b5090565b6000604051905090565b600080fd5b600080fd5b60007fffffffff0000000000000000000000000000000000000000000000000000000082169050919050565b612d5381612d1e565b8114612d5e57600080fd5b50565b600081359050612d7081612d4a565b92915050565b600060208284031215612d8c57612d8b612d14565b5b6000612d9a84828501612d61565b91505092915050565b60008115159050919050565b612db881612da3565b82525050565b6000602082019050612dd36000830184612daf565b92915050565b7f4e487b7100000000000000000000000000000000000000000000000000000000600052602160045260246000fd5b60028110612e1957612e18612dd9565b5b50565b6000819050612e2a82612e08565b919050565b6000612e3a82612e1c565b9050919050565b612e4a81612e2f565b82525050565b6000602082019050612e656000830184612e41565b92915050565b600081519050919050565b600082825260208201905092915050565b60005b83811015612ea5578082015181840152602081019050612e8a565b83811115612eb4576000848401525b50505050565b6000601f19601f8301169050919050565b6000612ed682612e6b565b612ee08185612e76565b9350612ef0818560208601612e87565b612ef981612eba565b840191505092915050565b60006020820190508181036000830152612f1e8184612ecb565b905092915050565b6000819050919050565b612f3981612f26565b8114612f4457600080fd5b50565b600081359050612f5681612f30565b92915050565b600060208284031215612f7257612f71612d14565b5b6000612f8084828501612f47565b91505092915050565b600073ffffffffffffffffffffffffffffffffffffffff82169050919050565b6000612fb482612f89565b9050919050565b612fc481612fa9565b82525050565b6000602082019050612fdf6000830184612fbb565b92915050565b612fee81612fa9565b8114612ff957600080fd5b50565b60008135905061300b81612fe5565b92915050565b6000806040838503121561302857613027612d14565b5b600061303685828601612ffc565b925050602061304785828601612f47565b9150509250929050565b600080fd5b60006080828403121561306c5761306b613051565b5b81905092915050565b6000806040838503121561308c5761308b612d14565b5b600061309a85828601612ffc565b925050602083013567ffffffffffffffff8111156130bb576130ba612d19565b5b6130c785828601613056565b9150509250929050565b6130da81612f26565b82525050565b60006020820190506130f560008301846130d1565b92915050565b60008060006060848603121561311457613113612d14565b5b600061312286828701612ffc565b935050602061313386828701612ffc565b925050604061314486828701612f47565b9150509250925092565b600061ffff82169050919050565b6131658161314e565b82525050565b6000602082019050613180600083018461315c565b92915050565b600061319182612f89565b9050919050565b6131a181613186565b82525050565b60006020820190506131bc6000830184613198565b92915050565b6000602082840312156131d8576131d7612d14565b5b60006131e684828501612ffc565b91505092915050565b6131f881612da3565b811461320357600080fd5b50565b600081359050613215816131ef565b92915050565b6000806040838503121561323257613231612d14565b5b600061324085828601612ffc565b925050602061325185828601613206565b9150509250929050565b600080fd5b600080fd5b7f4e487b7100000000000000000000000000000000000000000000000000000000600052604160045260246000fd5b61329d82612eba565b810181811067ffffffffffffffff821117156132bc576132bb613265565b5b80604052505050565b60006132cf612d0a565b90506132db8282613294565b919050565b600067ffffffffffffffff8211156132fb576132fa613265565b5b61330482612eba565b9050602081019050919050565b82818337600083830152505050565b600061333361332e846132e0565b6132c5565b90508281526020810184848401111561334f5761334e613260565b5b61335a848285613311565b509392505050565b600082601f8301126133775761337661325b565b5b8135613387848260208601613320565b91505092915050565b600080600080608085870312156133aa576133a9612d14565b5b60006133b887828801612ffc565b94505060206133c987828801612ffc565b93505060406133da87828801612f47565b925050606085013567ffffffffffffffff8111156133fb576133fa612d19565b5b61340787828801613362565b91505092959194509250565b600080fd5b600080fd5b60008083601f8401126134335761343261325b565b5b8235905067ffffffffffffffff8111156134505761344f613413565b5b60208301915083600182028301111561346c5761346b613418565b5b9250929050565b60008060006040848603121561348c5761348b612d14565b5b600061349a86828701612ffc565b935050602084013567ffffffffffffffff8111156134bb576134ba612d19565b5b6134c78682870161341d565b92509250509250925092565b600080604083850312156134ea576134e9612d14565b5b60006134f885828601612ffc565b925050602061350985828601612ffc565b9150509250929050565b7f4e487b7100000000000000000000000000000000000000000000000000000000600052602260045260246000fd5b6000600282049050600182168061355a57607f821691505b6020821081141561356e5761356d613513565b5b50919050565b7f4552433732313a20617070726f76616c20746f2063757272656e74206f776e6560008201527f7200000000000000000000000000000000000000000000000000000000000000602082015250565b60006135d0602183612e76565b91506135db82613574565b604082019050919050565b600060208201905081810360008301526135ff816135c3565b9050919050565b7f4552433732313a20617070726f76652063616c6c6572206973206e6f7420746f60008201527f6b656e206f776e6572206e6f7220617070726f76656420666f7220616c6c0000602082015250565b6000613662603e83612e76565b915061366d82613606565b604082019050919050565b6000602082019050818103600083015261369181613655565b9050919050565b7f5369676e617475726520696e76616c6964000000000000000000000000000000600082015250565b60006136ce601183612e76565b91506136d982613698565b602082019050919050565b600060208201905081810360008301526136fd816136c1565b9050919050565b7f496e73756666696369656e742066756e647320746f2072656465656d00000000600082015250565b600061373a601c83612e76565b915061374582613704565b602082019050919050565b600060208201905081810360008301526137698161372d565b9050919050565b600080fd5b600080fd5b600080fd5b6000808335600160200384360303811261379c5761379b613770565b5b80840192508235915067ffffffffffffffff8211156137be576137bd613775565b5b6020830192506001820236038313156137da576137d961377a565b5b509250929050565b7f4e487b7100000000000000000000000000000000000000000000000000000000600052601160045260246000fd5b600061381c82612f26565b915061382783612f26565b92508282101561383a576138396137e2565b5b828203905092915050565b600061385082612f26565b915061385b83612f26565b9250827fffffffffffffffffffffffffffffffffffffffffffffffffffffffffffffffff038211156138905761388f6137e2565b5b828201905092915050565b600081905092915050565b50565b60006138b660008361389b565b91506138c1826138a6565b600082019050919050565b60006138d7826138a9565b9150819050919050565b7f5472616e73666572206661696c65640000000000000000000000000000000000600082015250565b6000613917600f83612e76565b9150613922826138e1565b602082019050919050565b600060208201905081810360008301526139468161390a565b9050919050565b7f4552433732313a2063616c6c6572206973206e6f7420746f6b656e206f776e6560008201527f72206e6f7220617070726f766564000000000000000000000000000000000000602082015250565b60006139a9602e83612e76565b91506139b48261394d565b604082019050919050565b600060208201905081810360008301526139d88161399c565b9050919050565b7f4e6f7420617574686f72697a6564000000000000000000000000000000000000600082015250565b6000613a15600e83612e76565b9150613a20826139df565b602082019050919050565b60006020820190508181036000830152613a4481613a08565b9050919050565b7f4552433732313a20696e76616c696420746f6b656e2049440000000000000000600082015250565b6000613a81601883612e76565b9150613a8c82613a4b565b602082019050919050565b60006020820190508181036000830152613ab081613a74565b9050919050565b7f4552433732313a2061646472657373207a65726f206973206e6f74206120766160008201527f6c6964206f776e65720000000000000000000000000000000000000000000000602082015250565b6000613b13602983612e76565b9150613b1e82613ab7565b604082019050919050565b60006020820190508181036000830152613b4281613b06565b9050919050565b7f506f6c696379206f6e6c7920616c6c6f7773206c617a79206d696e74696e6700600082015250565b6000613b7f601f83612e76565b9150613b8a82613b49565b602082019050919050565b60006020820190508181036000830152613bae81613b72565b9050919050565b7f5061757361626c653a2070617573656400000000000000000000000000000000600082015250565b6000613beb601083612e76565b9150613bf682613bb5565b602082019050919050565b60006020820190508181036000830152613c1a81613bde565b9050919050565b60008083356001602003843603038112613c3e57613c3d613770565b5b80840192508235915067ffffffffffffffff821115613c6057613c5f613775565b5b602083019250600182023603831315613c7c57613c7b61377a565b5b509250929050565b7f4d6178696d756d206e756d626572206f66204e46547320726561636865642e00600082015250565b6000613cba601f83612e76565b9150613cc582613c84565b602082019050919050565b60006020820190508181036000830152613ce981613cad565b9050919050565b7f4552433732313a207472616e736665722066726f6d20696e636f72726563742060008201527f6f776e6572000000000000000000000000000000000000000000000000000000602082015250565b6000613d4c602583612e76565b9150613d5782613cf0565b604082019050919050565b60006020820190508181036000830152613d7b81613d3f565b9050919050565b7f4552433732313a207472616e7366657220746f20746865207a65726f2061646460008201527f7265737300000000000000000000000000000000000000000000000000000000602082015250565b6000613dde602483612e76565b9150613de982613d82565b604082019050919050565b60006020820190508181036000830152613e0d81613dd1565b9050919050565b6000613e1f82612f26565b9150613e2a83612f26565b9250817fffffffffffffffffffffffffffffffffffffffffffffffffffffffffffffffff0483118215151615613e6357613e626137e2565b5b828202905092915050565b7f4e487b7100000000000000000000000000000000000000000000000000000000600052601260045260246000fd5b6000613ea882612f26565b9150613eb383612f26565b925082613ec357613ec2613e6e565b5b828204905092915050565b7f4552433732313a206f70657261746f7220717565727920666f72206e6f6e657860008201527f697374656e7420746f6b656e0000000000000000000000000000000000000000602082015250565b6000613f2a602c83612e76565b9150613f3582613ece565b604082019050919050565b60006020820190508181036000830152613f5981613f1d565b9050919050565b7f4552433732313a20617070726f766520746f2063616c6c657200000000000000600082015250565b6000613f96601983612e76565b9150613fa182613f60565b602082019050919050565b60006020820190508181036000830152613fc581613f89565b9050919050565b7f4552433732313a207472616e7366657220746f206e6f6e20455243373231526560008201527f63656976657220696d706c656d656e7465720000000000000000000000000000602082015250565b6000614028603283612e76565b915061403382613fcc565b604082019050919050565b600060208201905081810360008301526140578161401b565b9050919050565b600081905092915050565b600061407482612e6b565b61407e818561405e565b935061408e818560208601612e87565b80840191505092915050565b60006140a68285614069565b91506140b28284614069565b91508190509392505050565b60006140ca838561389b565b93506140d7838584613311565b82840190509392505050565b60006140f08284866140be565b91508190509392505050565b6000819050919050565b61410f816140fc565b82525050565b600060808201905061412a6000830187614106565b6141376020830186612fbb565b61414460408301856130d1565b6141516060830184614106565b95945050505050565b7f4552433732313a206d696e7420746f20746865207a65726f2061646472657373600082015250565b6000614190602083612e76565b915061419b8261415a565b602082019050919050565b600060208201905081810360008301526141bf81614183565b9050919050565b7f4552433732313a20746f6b656e20616c7265616479206d696e74656400000000600082015250565b60006141fc601c83612e76565b9150614207826141c6565b602082019050919050565b6000602082019050818103600083015261422b816141ef565b9050919050565b7f45524337323155524953746f726167653a2055524920736574206f66206e6f6e60008201527f6578697374656e7420746f6b656e000000000000000000000000000000000000602082015250565b600061428e602e83612e76565b915061429982614232565b604082019050919050565b600060208201905081810360008301526142bd81614281565b9050919050565b7f5061757361626c653a206e6f7420706175736564000000000000000000000000600082015250565b60006142fa601483612e76565b9150614305826142c4565b602082019050919050565b60006020820190508181036000830152614329816142ed565b9050919050565b600081519050919050565b600082825260208201905092915050565b600061435782614330565b614361818561433b565b9350614371818560208601612e87565b61437a81612eba565b840191505092915050565b600060808201905061439a6000830187612fbb565b6143a76020830186612fbb565b6143b460408301856130d1565b81810360608301526143c6818461434c565b905095945050505050565b6000815190506143e081612d4a565b92915050565b6000602082840312156143fc576143fb612d14565b5b600061440a848285016143d1565b91505092915050565b7f45434453413a20696e76616c6964207369676e61747572650000000000000000600082015250565b6000614449601883612e76565b915061445482614413565b602082019050919050565b600060208201905081810360008301526144788161443c565b9050919050565b7f45434453413a20696e76616c6964207369676e6174757265206c656e67746800600082015250565b60006144b5601f83612e76565b91506144c08261447f565b602082019050919050565b600060208201905081810360008301526144e4816144a8565b9050919050565b7f45434453413a20696e76616c6964207369676e6174757265202773272076616c60008201527f7565000000000000000000000000000000000000000000000000000000000000602082015250565b6000614547602283612e76565b9150614552826144eb565b604082019050919050565b600060208201905081810360008301526145768161453a565b9050919050565b7f45434453413a20696e76616c6964207369676e6174757265202776272076616c60008201527f7565000000000000000000000000000000000000000000000000000000000000602082015250565b60006145d9602283612e76565b91506145e48261457d565b604082019050919050565b60006020820190508181036000830152614608816145cc565b9050919050565b600061461a82612f26565b91507fffffffffffffffffffffffffffffffffffffffffffffffffffffffffffffffff82141561464d5761464c6137e2565b5b600182019050919050565b600061466382612f26565b915061466e83612f26565b92508261467e5761467d613e6e565b5b828206905092915050565b7f4e487b7100000000000000000000000000000000000000000000000000000000600052603260045260246000fd5b7f1901000000000000000000000000000000000000000000000000000000000000600082015250565b60006146ee60028361405e565b91506146f9826146b8565b600282019050919050565b6000819050919050565b61471f61471a826140fc565b614704565b82525050565b6000614730826146e1565b915061473c828561470e565b60208201915061474c828461470e565b6020820191508190509392505050565b600060ff82169050919050565b6147728161475c565b82525050565b600060808201905061478d6000830187614106565b61479a6020830186614769565b6147a76040830185614106565b6147b46060830184614106565b95945050505050565b600060a0820190506147d26000830188614106565b6147df6020830187614106565b6147ec6040830186614106565b6147f960608301856130d1565b6148066080830184612fbb565b969550505050505056fea2646970667358221220d736e9d4dbb595259c70206438247e0b390267c2ef30ead46e109c8c5114bc0164736f6c63430008090033",
  "linkReferences": {},
  "deployedLinkReferences": {}
}