{
  "_format": "hh-sol-artifact-1",
  "contractName": "ArtongNFT",
  "sourceName": "contracts/ArtongNFT.sol",
  "abi": [
    {
      "inputs": [
        {
          "internalType": "string",
          "name": "_name",
          "type": "string"
        },
        {
          "internalType": "string",
          "name": "_symbol",
          "type": "string"
        },
        {
          "internalType": "address",
          "name": "_marketplace",
          "type": "address"
        },
        {
          "internalType": "uint16",
          "name": "_platformFee",
          "type": "uint16"
        },
        {
          "internalType": "address payable",
          "name": "_feeReceipient",
          "type": "address"
        },
        {
          "internalType": "uint256",
          "name": "_maxAmount",
          "type": "uint256"
        },
        {
          "internalType": "enum Policy",
          "name": "_policy",
          "type": "uint8"
        }
      ],
      "stateMutability": "nonpayable",
      "type": "constructor"
    },
    {
      "anonymous": false,
      "inputs": [
        {
          "indexed": true,
          "internalType": "address",
          "name": "owner",
          "type": "address"
        },
        {
          "indexed": true,
          "internalType": "address",
          "name": "approved",
          "type": "address"
        },
        {
          "indexed": true,
          "internalType": "uint256",
          "name": "tokenId",
          "type": "uint256"
        }
      ],
      "name": "Approval",
      "type": "event"
    },
    {
      "anonymous": false,
      "inputs": [
        {
          "indexed": true,
          "internalType": "address",
          "name": "owner",
          "type": "address"
        },
        {
          "indexed": true,
          "internalType": "address",
          "name": "operator",
          "type": "address"
        },
        {
          "indexed": false,
          "internalType": "bool",
          "name": "approved",
          "type": "bool"
        }
      ],
      "name": "ApprovalForAll",
      "type": "event"
    },
    {
      "anonymous": false,
      "inputs": [
        {
          "indexed": true,
          "internalType": "address",
          "name": "previousOwner",
          "type": "address"
        },
        {
          "indexed": true,
          "internalType": "address",
          "name": "newOwner",
          "type": "address"
        }
      ],
      "name": "OwnershipTransferred",
      "type": "event"
    },
    {
      "anonymous": false,
      "inputs": [
        {
          "indexed": false,
          "internalType": "address",
          "name": "account",
          "type": "address"
        }
      ],
      "name": "Paused",
      "type": "event"
    },
    {
      "anonymous": false,
      "inputs": [
        {
          "indexed": true,
          "internalType": "address",
          "name": "from",
          "type": "address"
        },
        {
          "indexed": true,
          "internalType": "address",
          "name": "to",
          "type": "address"
        },
        {
          "indexed": true,
          "internalType": "uint256",
          "name": "tokenId",
          "type": "uint256"
        }
      ],
      "name": "Transfer",
      "type": "event"
    },
    {
      "anonymous": false,
      "inputs": [
        {
          "indexed": false,
          "internalType": "address",
          "name": "account",
          "type": "address"
        }
      ],
      "name": "Unpaused",
      "type": "event"
    },
    {
      "inputs": [
        {
          "internalType": "address",
          "name": "to",
          "type": "address"
        },
        {
          "internalType": "uint256",
          "name": "tokenId",
          "type": "uint256"
        }
      ],
      "name": "approve",
      "outputs": [],
      "stateMutability": "nonpayable",
      "type": "function"
    },
    {
      "inputs": [
        {
          "internalType": "address",
          "name": "owner",
          "type": "address"
        }
      ],
      "name": "balanceOf",
      "outputs": [
        {
          "internalType": "uint256",
          "name": "",
          "type": "uint256"
        }
      ],
      "stateMutability": "view",
      "type": "function"
    },
    {
      "inputs": [
        {
          "internalType": "uint256",
          "name": "tokenId",
          "type": "uint256"
        }
      ],
      "name": "burn",
      "outputs": [],
      "stateMutability": "nonpayable",
      "type": "function"
    },
    {
      "inputs": [],
      "name": "feeReceipient",
      "outputs": [
        {
          "internalType": "address payable",
          "name": "",
          "type": "address"
        }
      ],
      "stateMutability": "view",
      "type": "function"
    },
    {
      "inputs": [
        {
          "internalType": "uint256",
          "name": "tokenId",
          "type": "uint256"
        }
      ],
      "name": "getApproved",
      "outputs": [
        {
          "internalType": "address",
          "name": "",
          "type": "address"
        }
      ],
      "stateMutability": "view",
      "type": "function"
    },
    {
      "inputs": [],
      "name": "getChainID",
      "outputs": [
        {
          "internalType": "uint256",
          "name": "",
          "type": "uint256"
        }
      ],
      "stateMutability": "view",
      "type": "function"
    },
    {
      "inputs": [
        {
          "internalType": "address",
          "name": "owner",
          "type": "address"
        },
        {
          "internalType": "address",
          "name": "operator",
          "type": "address"
        }
      ],
      "name": "isApprovedForAll",
      "outputs": [
        {
          "internalType": "bool",
          "name": "",
          "type": "bool"
        }
      ],
      "stateMutability": "view",
      "type": "function"
    },
    {
      "inputs": [],
      "name": "marketplace",
      "outputs": [
        {
          "internalType": "address",
          "name": "",
          "type": "address"
        }
      ],
      "stateMutability": "view",
      "type": "function"
    },
    {
      "inputs": [],
      "name": "maxAmount",
      "outputs": [
        {
          "internalType": "uint256",
          "name": "",
          "type": "uint256"
        }
      ],
      "stateMutability": "view",
      "type": "function"
    },
    {
      "inputs": [
        {
          "internalType": "address",
          "name": "_to",
          "type": "address"
        },
        {
          "internalType": "string",
          "name": "_tokenUri",
          "type": "string"
        }
      ],
      "name": "mint",
      "outputs": [
        {
          "internalType": "uint256",
          "name": "",
          "type": "uint256"
        }
      ],
      "stateMutability": "nonpayable",
      "type": "function"
    },
    {
      "inputs": [],
      "name": "name",
      "outputs": [
        {
          "internalType": "string",
          "name": "",
          "type": "string"
        }
      ],
      "stateMutability": "view",
      "type": "function"
    },
    {
      "inputs": [],
      "name": "owner",
      "outputs": [
        {
          "internalType": "address",
          "name": "",
          "type": "address"
        }
      ],
      "stateMutability": "view",
      "type": "function"
    },
    {
      "inputs": [
        {
          "internalType": "uint256",
          "name": "tokenId",
          "type": "uint256"
        }
      ],
      "name": "ownerOf",
      "outputs": [
        {
          "internalType": "address",
          "name": "",
          "type": "address"
        }
      ],
      "stateMutability": "view",
      "type": "function"
    },
    {
      "inputs": [],
      "name": "pause",
      "outputs": [],
      "stateMutability": "nonpayable",
      "type": "function"
    },
    {
      "inputs": [],
      "name": "paused",
      "outputs": [
        {
          "internalType": "bool",
          "name": "",
          "type": "bool"
        }
      ],
      "stateMutability": "view",
      "type": "function"
    },
    {
      "inputs": [],
      "name": "platformFee",
      "outputs": [
        {
          "internalType": "uint16",
          "name": "",
          "type": "uint16"
        }
      ],
      "stateMutability": "view",
      "type": "function"
    },
    {
      "inputs": [],
      "name": "policy",
      "outputs": [
        {
          "internalType": "enum Policy",
          "name": "",
          "type": "uint8"
        }
      ],
      "stateMutability": "view",
      "type": "function"
    },
    {
      "inputs": [
        {
          "internalType": "address",
          "name": "redeemer",
          "type": "address"
        },
        {
          "components": [
            {
              "internalType": "address",
              "name": "creator",
              "type": "address"
            },
            {
              "internalType": "uint256",
              "name": "minPrice",
              "type": "uint256"
            },
            {
              "internalType": "string",
              "name": "uri",
              "type": "string"
            },
            {
              "internalType": "bytes",
              "name": "signature",
              "type": "bytes"
            }
          ],
          "internalType": "struct ArtongNFT.NFTVoucher",
          "name": "voucher",
          "type": "tuple"
        }
      ],
      "name": "redeem",
      "outputs": [
        {
          "internalType": "uint256",
          "name": "",
          "type": "uint256"
        }
      ],
      "stateMutability": "payable",
      "type": "function"
    },
    {
      "inputs": [],
      "name": "renounceOwnership",
      "outputs": [],
      "stateMutability": "nonpayable",
      "type": "function"
    },
    {
      "inputs": [
        {
          "internalType": "address",
          "name": "from",
          "type": "address"
        },
        {
          "internalType": "address",
          "name": "to",
          "type": "address"
        },
        {
          "internalType": "uint256",
          "name": "tokenId",
          "type": "uint256"
        }
      ],
      "name": "safeTransferFrom",
      "outputs": [],
      "stateMutability": "nonpayable",
      "type": "function"
    },
    {
      "inputs": [
        {
          "internalType": "address",
          "name": "from",
          "type": "address"
        },
        {
          "internalType": "address",
          "name": "to",
          "type": "address"
        },
        {
          "internalType": "uint256",
          "name": "tokenId",
          "type": "uint256"
        },
        {
          "internalType": "bytes",
          "name": "data",
          "type": "bytes"
        }
      ],
      "name": "safeTransferFrom",
      "outputs": [],
      "stateMutability": "nonpayable",
      "type": "function"
    },
    {
      "inputs": [
        {
          "internalType": "address",
          "name": "operator",
          "type": "address"
        },
        {
          "internalType": "bool",
          "name": "approved",
          "type": "bool"
        }
      ],
      "name": "setApprovalForAll",
      "outputs": [],
      "stateMutability": "nonpayable",
      "type": "function"
    },
    {
      "inputs": [
        {
          "internalType": "enum Policy",
          "name": "_policy",
          "type": "uint8"
        }
      ],
      "name": "setPolicy",
      "outputs": [],
      "stateMutability": "nonpayable",
      "type": "function"
    },
    {
      "inputs": [
        {
          "internalType": "bytes4",
          "name": "interfaceId",
          "type": "bytes4"
        }
      ],
      "name": "supportsInterface",
      "outputs": [
        {
          "internalType": "bool",
          "name": "",
          "type": "bool"
        }
      ],
      "stateMutability": "view",
      "type": "function"
    },
    {
      "inputs": [],
      "name": "symbol",
      "outputs": [
        {
          "internalType": "string",
          "name": "",
          "type": "string"
        }
      ],
      "stateMutability": "view",
      "type": "function"
    },
    {
      "inputs": [
        {
          "internalType": "uint256",
          "name": "tokenId",
          "type": "uint256"
        }
      ],
      "name": "tokenURI",
      "outputs": [
        {
          "internalType": "string",
          "name": "",
          "type": "string"
        }
      ],
      "stateMutability": "view",
      "type": "function"
    },
    {
      "inputs": [
        {
          "internalType": "address",
          "name": "from",
          "type": "address"
        },
        {
          "internalType": "address",
          "name": "to",
          "type": "address"
        },
        {
          "internalType": "uint256",
          "name": "tokenId",
          "type": "uint256"
        }
      ],
      "name": "transferFrom",
      "outputs": [],
      "stateMutability": "nonpayable",
      "type": "function"
    },
    {
      "inputs": [
        {
          "internalType": "address",
          "name": "newOwner",
          "type": "address"
        }
      ],
      "name": "transferOwnership",
      "outputs": [],
      "stateMutability": "nonpayable",
      "type": "function"
    },
    {
      "inputs": [],
      "name": "unpause",
      "outputs": [],
      "stateMutability": "nonpayable",
      "type": "function"
    }
  ],
  "bytecode": "0x6101606040523480156200001257600080fd5b5060405162002f9638038062002f968339810160408190526200003591620004d1565b6040518060400160405280601181526020017020b93a37b733a7232a16ab37bab1b432b960791b815250604051806040016040528060018152602001603160f81b815250888881600090805190602001906200009392919062000323565b508051620000a990600190602084019062000323565b5050825160209384012082519284019290922060e08390526101008190524660a0818152604080517f8b73c3c69bb8fe3d512ecc4cf759cc79239f7b179b0ffacaa9a75d522b39400f818901819052818301979097526060810194909452608080850193909352308483018190528151808603909301835260c09485019091528151919096012090529290925261012052506007805460ff191690556200015033620002c9565b60008751116200019a5760405162461bcd60e51b815260206004820152601060248201526f13985b59481a5cc81c995c5d5a5c995960821b60448201526064015b60405180910390fd5b6000865111620001e25760405162461bcd60e51b815260206004820152601260248201527114de5b589bdb081a5cc81c995c5d5a5c995960721b604482015260640162000191565b60008211620002405760405162461bcd60e51b815260206004820152602360248201527f4d6178416d6f756e742068617320746f20626520706f736974697665206e756d6044820152623132b960e91b606482015260840162000191565b60098054610100600160b81b0319166101006001600160a01b038881169190910261ffff60a81b191691909117600160a81b61ffff88160217808355600a80546001600160a01b0319169287169290921790915561014084905282919060ff191660018381811115620002b757620002b76200059a565b021790555050505050505050620005ed565b600780546001600160a01b03838116610100818102610100600160a81b031985161790945560405193909204169182907f8be0079c531659141344cd1fd0a4f28419497f9722a3daafe3b4186f6b6457e090600090a35050565b8280546200033190620005b0565b90600052602060002090601f016020900481019282620003555760008555620003a0565b82601f106200037057805160ff1916838001178555620003a0565b82800160010185558215620003a0579182015b82811115620003a057825182559160200191906001019062000383565b50620003ae929150620003b2565b5090565b5b80821115620003ae5760008155600101620003b3565b634e487b7160e01b600052604160045260246000fd5b600082601f830112620003f157600080fd5b81516001600160401b03808211156200040e576200040e620003c9565b604051601f8301601f19908116603f01168101908282118183101715620004395762000439620003c9565b816040528381526020925086838588010111156200045657600080fd5b600091505b838210156200047a57858201830151818301840152908201906200045b565b838211156200048c5760008385830101525b9695505050505050565b6001600160a01b0381168114620004ac57600080fd5b50565b8051620004bc8162000496565b919050565b805160028110620004bc57600080fd5b600080600080600080600060e0888a031215620004ed57600080fd5b87516001600160401b03808211156200050557600080fd5b620005138b838c01620003df565b985060208a01519150808211156200052a57600080fd5b50620005398a828b01620003df565b96505060408801516200054c8162000496565b606089015190955061ffff811681146200056557600080fd5b93506200057560808901620004af565b925060a088015191506200058c60c08901620004c1565b905092959891949750929550565b634e487b7160e01b600052602160045260246000fd5b600181811c90821680620005c557607f821691505b60208210811415620005e757634e487b7160e01b600052602260045260246000fd5b50919050565b60805160a05160c05160e0516101005161012051610140516129476200064f600039600081816103c70152610f82015260006120100152600061205f0152600061203a01526000611f9301526000611fbd01526000611fe701526129476000f3fe6080604052600436106101c25760003560e01c80635f48f393116100f757806395d89b4111610095578063c87b56dd11610064578063c87b56dd14610510578063d0def52114610530578063e985e9c514610550578063f2fde38b1461057057600080fd5b806395d89b4114610496578063a22cb465146104ab578063abc8c7af146104cb578063b88d4fde146104f057600080fd5b8063715018a6116100d1578063715018a61461042957806374bce0bc1461043e5780638456cb591461045e5780638da5cb5b1461047357600080fd5b80635f48f393146103b55780636352211e146103e957806370a082311461040957600080fd5b806326232a2e1161016457806342842e0e1161013e57806342842e0e1461034a57806342966c681461036a578063564b81ef1461038a5780635c975abb1461039d57600080fd5b806326232a2e146102e05780633740ebb3146103155780633f4ba83a1461033557600080fd5b8063081812fc116101a0578063081812fc14610245578063095ea7b31461027d578063111425521461029f57806323b872dd146102c057600080fd5b806301ffc9a7146101c75780630505c8c9146101fc57806306fdde0314610223575b600080fd5b3480156101d357600080fd5b506101e76101e23660046122b8565b610590565b60405190151581526020015b60405180910390f35b34801561020857600080fd5b506009546102169060ff1681565b6040516101f391906122eb565b34801561022f57600080fd5b506102386105e2565b6040516101f3919061236b565b34801561025157600080fd5b5061026561026036600461237e565b610674565b6040516001600160a01b0390911681526020016101f3565b34801561028957600080fd5b5061029d6102983660046123b3565b61069b565b005b6102b26102ad3660046123dd565b6107b6565b6040519081526020016101f3565b3480156102cc57600080fd5b5061029d6102db366004612432565b6109e6565b3480156102ec57600080fd5b5060095461030290600160a81b900461ffff1681565b60405161ffff90911681526020016101f3565b34801561032157600080fd5b50600a54610265906001600160a01b031681565b34801561034157600080fd5b5061029d610a18565b34801561035657600080fd5b5061029d610365366004612432565b610a69565b34801561037657600080fd5b5061029d61038536600461237e565b610a84565b34801561039657600080fd5b50466102b2565b3480156103a957600080fd5b5060075460ff166101e7565b3480156103c157600080fd5b506102b27f000000000000000000000000000000000000000000000000000000000000000081565b3480156103f557600080fd5b5061026561040436600461237e565b610ab5565b34801561041557600080fd5b506102b261042436600461246e565b610b15565b34801561043557600080fd5b5061029d610b9b565b34801561044a57600080fd5b5061029d610459366004612489565b610bad565b34801561046a57600080fd5b5061029d610bdb565b34801561047f57600080fd5b5060075461010090046001600160a01b0316610265565b3480156104a257600080fd5b50610238610c2a565b3480156104b757600080fd5b5061029d6104c63660046124aa565b610c39565b3480156104d757600080fd5b506009546102659061010090046001600160a01b031681565b3480156104fc57600080fd5b5061029d61050b3660046124f1565b610c48565b34801561051c57600080fd5b5061023861052b36600461237e565b610c80565b34801561053c57600080fd5b506102b261054b3660046125cd565b610c8b565b34801561055c57600080fd5b506101e761056b366004612650565b610d0e565b34801561057c57600080fd5b5061029d61058b36600461246e565b610d65565b60006001600160e01b031982166380ac58cd60e01b14806105c157506001600160e01b03198216635b5e139f60e01b145b806105dc57506301ffc9a760e01b6001600160e01b03198316145b92915050565b6060600080546105f190612683565b80601f016020809104026020016040519081016040528092919081815260200182805461061d90612683565b801561066a5780601f1061063f5761010080835404028352916020019161066a565b820191906000526020600020905b81548152906001019060200180831161064d57829003601f168201915b5050505050905090565b600061067f82610ddb565b506000908152600460205260409020546001600160a01b031690565b60006106a682610ab5565b9050806001600160a01b0316836001600160a01b031614156107195760405162461bcd60e51b815260206004820152602160248201527f4552433732313a20617070726f76616c20746f2063757272656e74206f776e656044820152603960f91b60648201526084015b60405180910390fd5b336001600160a01b038216148061073557506107358133610d0e565b6107a75760405162461bcd60e51b815260206004820152603e60248201527f4552433732313a20617070726f76652063616c6c6572206973206e6f7420746f60448201527f6b656e206f776e6572206e6f7220617070726f76656420666f7220616c6c00006064820152608401610710565b6107b18383610e3a565b505050565b60006107c0610ea8565b60006107cb83610eee565b90506107da602084018461246e565b6001600160a01b0316816001600160a01b03161461082e5760405162461bcd60e51b815260206004820152601160248201527014da59db985d1d5c99481a5b9d985b1a59607a1b6044820152606401610710565b82602001353410156108825760405162461bcd60e51b815260206004820152601c60248201527f496e73756666696369656e742066756e647320746f2072656465656d000000006044820152606401610710565b600061088c610f47565b600a546040519192506000916001600160a01b039091169083908381818185875af1925050503d80600081146108de576040519150601f19603f3d011682016040523d82523d6000602084013e6108e3565b606091505b50509050806109265760405162461bcd60e51b815260206004820152600f60248201526e151c985b9cd9995c8819985a5b1959608a1b6044820152606401610710565b600061094a610938602088018861246e565b61094560408901896126be565b610f75565b905061096361095c602088018861246e565b88836110c6565b60095461010090046001600160a01b031663e6d07de9610983853461271b565b6040516001600160e01b031960e084901b1681526001600160a01b03881660048201526024016000604051808303818588803b1580156109c257600080fd5b505af11580156109d6573d6000803e3d6000fd5b50939a9950505050505050505050565b6109f1335b82611262565b610a0d5760405162461bcd60e51b815260040161071090612732565b6107b18383836110c6565b610a223333610d0e565b610a5f5760405162461bcd60e51b815260206004820152600e60248201526d139bdd08185d5d1a1bdc9a5e995960921b6044820152606401610710565b610a6761130b565b565b6107b183838360405180602001604052806000815250610c48565b610a8d336109eb565b610aa95760405162461bcd60e51b815260040161071090612732565b610ab28161135d565b50565b6000818152600260205260408120546001600160a01b0316806105dc5760405162461bcd60e51b8152602060048201526018602482015277115490cdcc8c4e881a5b9d985b1a59081d1bdad95b88125160421b6044820152606401610710565b60006001600160a01b038216610b7f5760405162461bcd60e51b815260206004820152602960248201527f4552433732313a2061646472657373207a65726f206973206e6f7420612076616044820152683634b21037bbb732b960b91b6064820152608401610710565b506001600160a01b031660009081526003602052604090205490565b610ba3611366565b610a6760006113c6565b610bb5611366565b6009805482919060ff191660018381811115610bd357610bd36122d5565b021790555050565b610be53333610d0e565b610c225760405162461bcd60e51b815260206004820152600e60248201526d139bdd08185d5d1a1bdc9a5e995960921b6044820152606401610710565b610a67611420565b6060600180546105f190612683565b610c4433838361145d565b5050565b610c523383611262565b610c6e5760405162461bcd60e51b815260040161071090612732565b610c7a8484848461152c565b50505050565b60606105dc8261155f565b6000610c95610ea8565b600060095460ff166001811115610cae57610cae6122d5565b14610cfb5760405162461bcd60e51b815260206004820152601f60248201527f506f6c696379206f6e6c7920616c6c6f7773206c617a79206d696e74696e67006044820152606401610710565b610d06848484610f75565b949350505050565b6009546000906001600160a01b03838116610100909204161415610d34575060016105dc565b6001600160a01b0380841660009081526005602090815260408083209386168352929052205460ff165b9392505050565b610d6d611366565b6001600160a01b038116610dd25760405162461bcd60e51b815260206004820152602660248201527f4f776e61626c653a206e6577206f776e657220697320746865207a65726f206160448201526564647265737360d01b6064820152608401610710565b610ab2816113c6565b6000818152600260205260409020546001600160a01b0316610ab25760405162461bcd60e51b8152602060048201526018602482015277115490cdcc8c4e881a5b9d985b1a59081d1bdad95b88125160421b6044820152606401610710565b600081815260046020526040902080546001600160a01b0319166001600160a01b0384169081179091558190610e6f82610ab5565b6001600160a01b03167f8c5be1e5ebec7d5bd14f71427d1e84f3dd0314c0f7b2291e5b200ac8c7c3b92560405160405180910390a45050565b60075460ff1615610a675760405162461bcd60e51b815260206004820152601060248201526f14185d5cd8589b194e881c185d5cd95960821b6044820152606401610710565b600080610efa83611668565b9050610d5e81610f0d60608601866126be565b8080601f01602080910402602001604051908101604052809392919081815260200183838082843760009201919091525061170d92505050565b60095460009061271090610f6690600160a81b900461ffff1634612780565b610f7091906127b5565b905090565b6000610f8060085490565b7f000000000000000000000000000000000000000000000000000000000000000011610fee5760405162461bcd60e51b815260206004820152601e60248201527f4d6178696d756d206e756d626572206f66204e465473207265616368656400006044820152606401610710565b610ffc600880546001019055565b600061100760085490565b6009546040516313408a3960e21b81526001600160a01b0388811660048301523060248301526044820184905292935061010090910490911690634d0228e490606401600060405180830381600087803b15801561106457600080fd5b505af1158015611078573d6000803e3d6000fd5b505050506110868582611731565b610d068185858080601f01602080910402602001604051908101604052809392919081815260200183838082843760009201919091525061187392505050565b826001600160a01b03166110d982610ab5565b6001600160a01b03161461113d5760405162461bcd60e51b815260206004820152602560248201527f4552433732313a207472616e736665722066726f6d20696e636f72726563742060448201526437bbb732b960d91b6064820152608401610710565b6001600160a01b03821661119f5760405162461bcd60e51b8152602060048201526024808201527f4552433732313a207472616e7366657220746f20746865207a65726f206164646044820152637265737360e01b6064820152608401610710565b6111aa600082610e3a565b6001600160a01b03831660009081526003602052604081208054600192906111d390849061271b565b90915550506001600160a01b03821660009081526003602052604081208054600192906112019084906127c9565b909155505060008181526002602052604080822080546001600160a01b0319166001600160a01b0386811691821790925591518493918716917fddf252ad1be2c89b69c2b068fc378daa952ba7f163c4a11628f55a4df523b3ef91a4505050565b6000818152600260205260408120546001600160a01b03166112db5760405162461bcd60e51b815260206004820152602c60248201527f4552433732313a206f70657261746f7220717565727920666f72206e6f6e657860448201526b34b9ba32b73a103a37b5b2b760a11b6064820152608401610710565b60006112e683610ab5565b90506112f28185610d0e565b156113015760019150506105dc565b610d06848461190d565b61131361196b565b6007805460ff191690557f5db9ee0a495bf2e6ff9c91a7834c1ba4fdd244a5e8aa4e537bd38aeae4b073aa335b6040516001600160a01b03909116815260200160405180910390a1565b610ab2816119b4565b6007546001600160a01b03610100909104163314610a675760405162461bcd60e51b815260206004820181905260248201527f4f776e61626c653a2063616c6c6572206973206e6f7420746865206f776e65726044820152606401610710565b600780546001600160a01b03838116610100818102610100600160a81b031985161790945560405193909204169182907f8be0079c531659141344cd1fd0a4f28419497f9722a3daafe3b4186f6b6457e090600090a35050565b611428610ea8565b6007805460ff191660011790557f62e78cea01bee320cd4e420270b5ea74000d11b0c9f74754ebdbfc544b05a2586113403390565b816001600160a01b0316836001600160a01b031614156114bf5760405162461bcd60e51b815260206004820152601960248201527f4552433732313a20617070726f766520746f2063616c6c6572000000000000006044820152606401610710565b6001600160a01b03838116600081815260056020908152604080832094871680845294825291829020805460ff191686151590811790915591519182527f17307eab39ab6107e8899845ad3d59bd9653f200f220920489ca2b5937696c31910160405180910390a3505050565b6115378484846110c6565b611543848484846119f4565b610c7a5760405162461bcd60e51b8152600401610710906127e1565b606061156a82610ddb565b6000828152600660205260408120805461158390612683565b80601f01602080910402602001604051908101604052809291908181526020018280546115af90612683565b80156115fc5780601f106115d1576101008083540402835291602001916115fc565b820191906000526020600020905b8154815290600101906020018083116115df57829003601f168201915b50505050509050600061161a60408051602081019091526000815290565b905080516000141561162d575092915050565b81511561165f578082604051602001611647929190612833565b60405160208183030381529060405292505050919050565b610d0684611b01565b60006105dc7fe2c1fe55ff75bc6c0f1e92db9b907c57038a5f95f7c137ff4bf9e10a15bc3d0161169b602085018561246e565b60208501356116ad60408701876126be565b6040516116bb929190612862565b6040519081900381206116f2949392916020019384526001600160a01b039290921660208401526040830152606082015260800190565b60405160208183030381529060405280519060200120611b74565b600080600061171c8585611bc2565b9150915061172981611c32565b509392505050565b6001600160a01b0382166117875760405162461bcd60e51b815260206004820181905260248201527f4552433732313a206d696e7420746f20746865207a65726f20616464726573736044820152606401610710565b6000818152600260205260409020546001600160a01b0316156117ec5760405162461bcd60e51b815260206004820152601c60248201527f4552433732313a20746f6b656e20616c7265616479206d696e746564000000006044820152606401610710565b6001600160a01b03821660009081526003602052604081208054600192906118159084906127c9565b909155505060008181526002602052604080822080546001600160a01b0319166001600160a01b03861690811790915590518392907fddf252ad1be2c89b69c2b068fc378daa952ba7f163c4a11628f55a4df523b3ef908290a45050565b6000828152600260205260409020546001600160a01b03166118ee5760405162461bcd60e51b815260206004820152602e60248201527f45524337323155524953746f726167653a2055524920736574206f66206e6f6e60448201526d32bc34b9ba32b73a103a37b5b2b760911b6064820152608401610710565b600082815260066020908152604090912082516107b1928401906121d3565b60008061191983610ab5565b9050806001600160a01b0316846001600160a01b0316148061194057506119408185610d0e565b80610d065750836001600160a01b031661195984610674565b6001600160a01b031614949350505050565b60075460ff16610a675760405162461bcd60e51b815260206004820152601460248201527314185d5cd8589b194e881b9bdd081c185d5cd95960621b6044820152606401610710565b6119bd81611ded565b600081815260066020526040902080546119d690612683565b159050610ab2576000818152600660205260408120610ab291612257565b60006001600160a01b0384163b15611af657604051630a85bd0160e11b81526001600160a01b0385169063150b7a0290611a38903390899088908890600401612872565b602060405180830381600087803b158015611a5257600080fd5b505af1925050508015611a82575060408051601f3d908101601f19168201909252611a7f918101906128af565b60015b611adc573d808015611ab0576040519150601f19603f3d011682016040523d82523d6000602084013e611ab5565b606091505b508051611ad45760405162461bcd60e51b8152600401610710906127e1565b805181602001fd5b6001600160e01b031916630a85bd0160e11b149050610d06565b506001949350505050565b6060611b0c82610ddb565b6000611b2360408051602081019091526000815290565b90506000815111611b435760405180602001604052806000815250610d5e565b80611b4d84611e88565b604051602001611b5e929190612833565b6040516020818303038152906040529392505050565b60006105dc611b81611f86565b8360405161190160f01b6020820152602281018390526042810182905260009060620160405160208183030381529060405280519060200120905092915050565b600080825160411415611bf95760208301516040840151606085015160001a611bed878285856120ad565b94509450505050611c2b565b825160401415611c235760208301516040840151611c1886838361219a565b935093505050611c2b565b506000905060025b9250929050565b6000816004811115611c4657611c466122d5565b1415611c4f5750565b6001816004811115611c6357611c636122d5565b1415611cb15760405162461bcd60e51b815260206004820152601860248201527f45434453413a20696e76616c6964207369676e617475726500000000000000006044820152606401610710565b6002816004811115611cc557611cc56122d5565b1415611d135760405162461bcd60e51b815260206004820152601f60248201527f45434453413a20696e76616c6964207369676e6174757265206c656e677468006044820152606401610710565b6003816004811115611d2757611d276122d5565b1415611d805760405162461bcd60e51b815260206004820152602260248201527f45434453413a20696e76616c6964207369676e6174757265202773272076616c604482015261756560f01b6064820152608401610710565b6004816004811115611d9457611d946122d5565b1415610ab25760405162461bcd60e51b815260206004820152602260248201527f45434453413a20696e76616c6964207369676e6174757265202776272076616c604482015261756560f01b6064820152608401610710565b6000611df882610ab5565b9050611e05600083610e3a565b6001600160a01b0381166000908152600360205260408120805460019290611e2e90849061271b565b909155505060008281526002602052604080822080546001600160a01b0319169055518391906001600160a01b038416907fddf252ad1be2c89b69c2b068fc378daa952ba7f163c4a11628f55a4df523b3ef908390a45050565b606081611eac5750506040805180820190915260018152600360fc1b602082015290565b8160005b8115611ed65780611ec0816128cc565b9150611ecf9050600a836127b5565b9150611eb0565b60008167ffffffffffffffff811115611ef157611ef16124db565b6040519080825280601f01601f191660200182016040528015611f1b576020820181803683370190505b5090505b8415610d0657611f3060018361271b565b9150611f3d600a866128e7565b611f489060306127c9565b60f81b818381518110611f5d57611f5d6128fb565b60200101906001600160f81b031916908160001a905350611f7f600a866127b5565b9450611f1f565b6000306001600160a01b037f000000000000000000000000000000000000000000000000000000000000000016148015611fdf57507f000000000000000000000000000000000000000000000000000000000000000046145b1561200957507f000000000000000000000000000000000000000000000000000000000000000090565b50604080517f00000000000000000000000000000000000000000000000000000000000000006020808301919091527f0000000000000000000000000000000000000000000000000000000000000000828401527f000000000000000000000000000000000000000000000000000000000000000060608301524660808301523060a0808401919091528351808403909101815260c0909201909252805191012090565b6000807f7fffffffffffffffffffffffffffffff5d576e7357a4501ddfe92f46681b20a08311156120e45750600090506003612191565b8460ff16601b141580156120fc57508460ff16601c14155b1561210d5750600090506004612191565b6040805160008082526020820180845289905260ff881692820192909252606081018690526080810185905260019060a0016020604051602081039080840390855afa158015612161573d6000803e3d6000fd5b5050604051601f1901519150506001600160a01b03811661218a57600060019250925050612191565b9150600090505b94509492505050565b6000806001600160ff1b038316816121b760ff86901c601b6127c9565b90506121c5878288856120ad565b935093505050935093915050565b8280546121df90612683565b90600052602060002090601f0160209004810192826122015760008555612247565b82601f1061221a57805160ff1916838001178555612247565b82800160010185558215612247579182015b8281111561224757825182559160200191906001019061222c565b5061225392915061228d565b5090565b50805461226390612683565b6000825580601f10612273575050565b601f016020900490600052602060002090810190610ab291905b5b80821115612253576000815560010161228e565b6001600160e01b031981168114610ab257600080fd5b6000602082840312156122ca57600080fd5b8135610d5e816122a2565b634e487b7160e01b600052602160045260246000fd5b602081016002831061230d57634e487b7160e01b600052602160045260246000fd5b91905290565b60005b8381101561232e578181015183820152602001612316565b83811115610c7a5750506000910152565b60008151808452612357816020860160208601612313565b601f01601f19169290920160200192915050565b602081526000610d5e602083018461233f565b60006020828403121561239057600080fd5b5035919050565b80356001600160a01b03811681146123ae57600080fd5b919050565b600080604083850312156123c657600080fd5b6123cf83612397565b946020939093013593505050565b600080604083850312156123f057600080fd5b6123f983612397565b9150602083013567ffffffffffffffff81111561241557600080fd5b83016080818603121561242757600080fd5b809150509250929050565b60008060006060848603121561244757600080fd5b61245084612397565b925061245e60208501612397565b9150604084013590509250925092565b60006020828403121561248057600080fd5b610d5e82612397565b60006020828403121561249b57600080fd5b813560028110610d5e57600080fd5b600080604083850312156124bd57600080fd5b6124c683612397565b91506020830135801515811461242757600080fd5b634e487b7160e01b600052604160045260246000fd5b6000806000806080858703121561250757600080fd5b61251085612397565b935061251e60208601612397565b925060408501359150606085013567ffffffffffffffff8082111561254257600080fd5b818701915087601f83011261255657600080fd5b813581811115612568576125686124db565b604051601f8201601f19908116603f01168101908382118183101715612590576125906124db565b816040528281528a60208487010111156125a957600080fd5b82602086016020830137600060208483010152809550505050505092959194509250565b6000806000604084860312156125e257600080fd5b6125eb84612397565b9250602084013567ffffffffffffffff8082111561260857600080fd5b818601915086601f83011261261c57600080fd5b81358181111561262b57600080fd5b87602082850101111561263d57600080fd5b6020830194508093505050509250925092565b6000806040838503121561266357600080fd5b61266c83612397565b915061267a60208401612397565b90509250929050565b600181811c9082168061269757607f821691505b602082108114156126b857634e487b7160e01b600052602260045260246000fd5b50919050565b6000808335601e198436030181126126d557600080fd5b83018035915067ffffffffffffffff8211156126f057600080fd5b602001915036819003821315611c2b57600080fd5b634e487b7160e01b600052601160045260246000fd5b60008282101561272d5761272d612705565b500390565b6020808252602e908201527f4552433732313a2063616c6c6572206973206e6f7420746f6b656e206f776e6560408201526d1c881b9bdc88185c1c1c9bdd995960921b606082015260800190565b600081600019048311821515161561279a5761279a612705565b500290565b634e487b7160e01b600052601260045260246000fd5b6000826127c4576127c461279f565b500490565b600082198211156127dc576127dc612705565b500190565b60208082526032908201527f4552433732313a207472616e7366657220746f206e6f6e20455243373231526560408201527131b2b4bb32b91034b6b83632b6b2b73a32b960711b606082015260800190565b60008351612845818460208801612313565b835190830190612859818360208801612313565b01949350505050565b8183823760009101908152919050565b6001600160a01b03858116825284166020820152604081018390526080606082018190526000906128a59083018461233f565b9695505050505050565b6000602082840312156128c157600080fd5b8151610d5e816122a2565b60006000198214156128e0576128e0612705565b5060010190565b6000826128f6576128f661279f565b500690565b634e487b7160e01b600052603260045260246000fdfea26469706673582212205720e3da25f674b99bf19265a553822a8425e30382761c6c6fcae97fe220013064736f6c63430008090033",
  "linkReferences": {},
  "deployedLinkReferences": {}
}