{
  "_format": "hh-sol-artifact-1",
  "contractName": "ArtongNFT",
  "sourceName": "contracts/ArtongNFT.sol",
  "abi": [
    {
      "inputs": [
        {
          "internalType": "string",
          "name": "_name",
          "type": "string"
        },
        {
          "internalType": "string",
          "name": "_symbol",
          "type": "string"
        },
        {
          "internalType": "address",
          "name": "_marketplace",
          "type": "address"
        },
        {
          "internalType": "uint16",
          "name": "_platformFee",
          "type": "uint16"
        },
        {
          "internalType": "address payable",
          "name": "_feeReceipient",
          "type": "address"
        },
        {
          "internalType": "uint256",
          "name": "_maxAmount",
          "type": "uint256"
        },
        {
          "internalType": "enum ArtongNFT.Policy",
          "name": "_policy",
          "type": "uint8"
        }
      ],
      "stateMutability": "nonpayable",
      "type": "constructor"
    },
    {
      "anonymous": false,
      "inputs": [
        {
          "indexed": true,
          "internalType": "address",
          "name": "owner",
          "type": "address"
        },
        {
          "indexed": true,
          "internalType": "address",
          "name": "approved",
          "type": "address"
        },
        {
          "indexed": true,
          "internalType": "uint256",
          "name": "tokenId",
          "type": "uint256"
        }
      ],
      "name": "Approval",
      "type": "event"
    },
    {
      "anonymous": false,
      "inputs": [
        {
          "indexed": true,
          "internalType": "address",
          "name": "owner",
          "type": "address"
        },
        {
          "indexed": true,
          "internalType": "address",
          "name": "operator",
          "type": "address"
        },
        {
          "indexed": false,
          "internalType": "bool",
          "name": "approved",
          "type": "bool"
        }
      ],
      "name": "ApprovalForAll",
      "type": "event"
    },
    {
      "anonymous": false,
      "inputs": [
        {
          "indexed": true,
          "internalType": "address",
          "name": "previousOwner",
          "type": "address"
        },
        {
          "indexed": true,
          "internalType": "address",
          "name": "newOwner",
          "type": "address"
        }
      ],
      "name": "OwnershipTransferred",
      "type": "event"
    },
    {
      "anonymous": false,
      "inputs": [
        {
          "indexed": true,
          "internalType": "address",
          "name": "from",
          "type": "address"
        },
        {
          "indexed": true,
          "internalType": "address",
          "name": "to",
          "type": "address"
        },
        {
          "indexed": true,
          "internalType": "uint256",
          "name": "tokenId",
          "type": "uint256"
        }
      ],
      "name": "Transfer",
      "type": "event"
    },
    {
      "inputs": [
        {
          "internalType": "address",
          "name": "to",
          "type": "address"
        },
        {
          "internalType": "uint256",
          "name": "tokenId",
          "type": "uint256"
        }
      ],
      "name": "approve",
      "outputs": [],
      "stateMutability": "nonpayable",
      "type": "function"
    },
    {
      "inputs": [],
      "name": "availableToWithdraw",
      "outputs": [
        {
          "internalType": "uint256",
          "name": "",
          "type": "uint256"
        }
      ],
      "stateMutability": "view",
      "type": "function"
    },
    {
      "inputs": [
        {
          "internalType": "address",
          "name": "owner",
          "type": "address"
        }
      ],
      "name": "balanceOf",
      "outputs": [
        {
          "internalType": "uint256",
          "name": "",
          "type": "uint256"
        }
      ],
      "stateMutability": "view",
      "type": "function"
    },
    {
      "inputs": [],
      "name": "feeReceipient",
      "outputs": [
        {
          "internalType": "address payable",
          "name": "",
          "type": "address"
        }
      ],
      "stateMutability": "view",
      "type": "function"
    },
    {
      "inputs": [
        {
          "internalType": "uint256",
          "name": "tokenId",
          "type": "uint256"
        }
      ],
      "name": "getApproved",
      "outputs": [
        {
          "internalType": "address",
          "name": "",
          "type": "address"
        }
      ],
      "stateMutability": "view",
      "type": "function"
    },
    {
      "inputs": [],
      "name": "getPolicy",
      "outputs": [
        {
          "internalType": "enum ArtongNFT.Policy",
          "name": "",
          "type": "uint8"
        }
      ],
      "stateMutability": "view",
      "type": "function"
    },
    {
      "inputs": [
        {
          "internalType": "address",
          "name": "owner",
          "type": "address"
        },
        {
          "internalType": "address",
          "name": "operator",
          "type": "address"
        }
      ],
      "name": "isApprovedForAll",
      "outputs": [
        {
          "internalType": "bool",
          "name": "",
          "type": "bool"
        }
      ],
      "stateMutability": "view",
      "type": "function"
    },
    {
      "inputs": [],
      "name": "marketplace",
      "outputs": [
        {
          "internalType": "address",
          "name": "",
          "type": "address"
        }
      ],
      "stateMutability": "view",
      "type": "function"
    },
    {
      "inputs": [
        {
          "internalType": "address",
          "name": "_to",
          "type": "address"
        },
        {
          "internalType": "string",
          "name": "_tokenUri",
          "type": "string"
        }
      ],
      "name": "mint",
      "outputs": [
        {
          "internalType": "uint256",
          "name": "",
          "type": "uint256"
        }
      ],
      "stateMutability": "nonpayable",
      "type": "function"
    },
    {
      "inputs": [],
      "name": "name",
      "outputs": [
        {
          "internalType": "string",
          "name": "",
          "type": "string"
        }
      ],
      "stateMutability": "view",
      "type": "function"
    },
    {
      "inputs": [],
      "name": "owner",
      "outputs": [
        {
          "internalType": "address",
          "name": "",
          "type": "address"
        }
      ],
      "stateMutability": "view",
      "type": "function"
    },
    {
      "inputs": [
        {
          "internalType": "uint256",
          "name": "tokenId",
          "type": "uint256"
        }
      ],
      "name": "ownerOf",
      "outputs": [
        {
          "internalType": "address",
          "name": "",
          "type": "address"
        }
      ],
      "stateMutability": "view",
      "type": "function"
    },
    {
      "inputs": [],
      "name": "platformFee",
      "outputs": [
        {
          "internalType": "uint16",
          "name": "",
          "type": "uint16"
        }
      ],
      "stateMutability": "view",
      "type": "function"
    },
    {
      "inputs": [
        {
          "internalType": "address",
          "name": "redeemer",
          "type": "address"
        },
        {
          "components": [
            {
              "internalType": "address",
              "name": "creator",
              "type": "address"
            },
            {
              "internalType": "uint256",
              "name": "minPrice",
              "type": "uint256"
            },
            {
              "internalType": "string",
              "name": "uri",
              "type": "string"
            },
            {
              "internalType": "bytes",
              "name": "signature",
              "type": "bytes"
            }
          ],
          "internalType": "struct ArtongNFT.NFTVoucher",
          "name": "voucher",
          "type": "tuple"
        }
      ],
      "name": "redeem",
      "outputs": [
        {
          "internalType": "uint256",
          "name": "",
          "type": "uint256"
        }
      ],
      "stateMutability": "payable",
      "type": "function"
    },
    {
      "inputs": [],
      "name": "renounceOwnership",
      "outputs": [],
      "stateMutability": "nonpayable",
      "type": "function"
    },
    {
      "inputs": [
        {
          "internalType": "address",
          "name": "from",
          "type": "address"
        },
        {
          "internalType": "address",
          "name": "to",
          "type": "address"
        },
        {
          "internalType": "uint256",
          "name": "tokenId",
          "type": "uint256"
        }
      ],
      "name": "safeTransferFrom",
      "outputs": [],
      "stateMutability": "nonpayable",
      "type": "function"
    },
    {
      "inputs": [
        {
          "internalType": "address",
          "name": "from",
          "type": "address"
        },
        {
          "internalType": "address",
          "name": "to",
          "type": "address"
        },
        {
          "internalType": "uint256",
          "name": "tokenId",
          "type": "uint256"
        },
        {
          "internalType": "bytes",
          "name": "data",
          "type": "bytes"
        }
      ],
      "name": "safeTransferFrom",
      "outputs": [],
      "stateMutability": "nonpayable",
      "type": "function"
    },
    {
      "inputs": [
        {
          "internalType": "address",
          "name": "operator",
          "type": "address"
        },
        {
          "internalType": "bool",
          "name": "approved",
          "type": "bool"
        }
      ],
      "name": "setApprovalForAll",
      "outputs": [],
      "stateMutability": "nonpayable",
      "type": "function"
    },
    {
      "inputs": [
        {
          "internalType": "bytes4",
          "name": "interfaceId",
          "type": "bytes4"
        }
      ],
      "name": "supportsInterface",
      "outputs": [
        {
          "internalType": "bool",
          "name": "",
          "type": "bool"
        }
      ],
      "stateMutability": "view",
      "type": "function"
    },
    {
      "inputs": [],
      "name": "symbol",
      "outputs": [
        {
          "internalType": "string",
          "name": "",
          "type": "string"
        }
      ],
      "stateMutability": "view",
      "type": "function"
    },
    {
      "inputs": [
        {
          "internalType": "uint256",
          "name": "tokenId",
          "type": "uint256"
        }
      ],
      "name": "tokenURI",
      "outputs": [
        {
          "internalType": "string",
          "name": "",
          "type": "string"
        }
      ],
      "stateMutability": "view",
      "type": "function"
    },
    {
      "inputs": [
        {
          "internalType": "address",
          "name": "from",
          "type": "address"
        },
        {
          "internalType": "address",
          "name": "to",
          "type": "address"
        },
        {
          "internalType": "uint256",
          "name": "tokenId",
          "type": "uint256"
        }
      ],
      "name": "transferFrom",
      "outputs": [],
      "stateMutability": "nonpayable",
      "type": "function"
    },
    {
      "inputs": [
        {
          "internalType": "address",
          "name": "newOwner",
          "type": "address"
        }
      ],
      "name": "transferOwnership",
      "outputs": [],
      "stateMutability": "nonpayable",
      "type": "function"
    },
    {
      "inputs": [],
      "name": "withdraw",
      "outputs": [],
      "stateMutability": "nonpayable",
      "type": "function"
    }
  ],
  "bytecode": "0x6101406040523480156200001257600080fd5b5060405162004b3b38038062004b3b83398181016040528101906200003891906200072f565b6040518060400160405280601181526020017f4172746f6e674e46542d566f75636865720000000000000000000000000000008152506040518060400160405280600181526020017f310000000000000000000000000000000000000000000000000000000000000081525088888160009080519060200190620000be92919062000396565b508060019080519060200190620000d792919062000396565b50505060008280519060200120905060008280519060200120905060007f8b73c3c69bb8fe3d512ecc4cf759cc79239f7b179b0ffacaa9a75d522b39400f90508260e081815250508161010081815250504660a08181525050620001438184846200028c60201b60201c565b608081815250503073ffffffffffffffffffffffffffffffffffffffff1660c08173ffffffffffffffffffffffffffffffffffffffff16815250508061012081815250505050505050620001ac620001a0620002c860201b60201c565b620002d060201b60201c565b84600a60016101000a81548173ffffffffffffffffffffffffffffffffffffffff021916908373ffffffffffffffffffffffffffffffffffffffff16021790555083600a60156101000a81548161ffff021916908361ffff16021790555082600b60006101000a81548173ffffffffffffffffffffffffffffffffffffffff021916908373ffffffffffffffffffffffffffffffffffffffff1602179055508160098190555080600a60006101000a81548160ff021916908360018111156200027a576200027962000820565b5b0217905550505050505050506200094e565b60008383834630604051602001620002a99594939291906200088c565b6040516020818303038152906040528051906020012090509392505050565b600033905090565b6000600760009054906101000a900473ffffffffffffffffffffffffffffffffffffffff16905081600760006101000a81548173ffffffffffffffffffffffffffffffffffffffff021916908373ffffffffffffffffffffffffffffffffffffffff1602179055508173ffffffffffffffffffffffffffffffffffffffff168173ffffffffffffffffffffffffffffffffffffffff167f8be0079c531659141344cd1fd0a4f28419497f9722a3daafe3b4186f6b6457e060405160405180910390a35050565b828054620003a49062000918565b90600052602060002090601f016020900481019282620003c8576000855562000414565b82601f10620003e357805160ff191683800117855562000414565b8280016001018555821562000414579182015b8281111562000413578251825591602001919060010190620003f6565b5b50905062000423919062000427565b5090565b5b808211156200044257600081600090555060010162000428565b5090565b6000604051905090565b600080fd5b600080fd5b600080fd5b600080fd5b6000601f19601f8301169050919050565b7f4e487b7100000000000000000000000000000000000000000000000000000000600052604160045260246000fd5b620004af8262000464565b810181811067ffffffffffffffff82111715620004d157620004d062000475565b5b80604052505050565b6000620004e662000446565b9050620004f48282620004a4565b919050565b600067ffffffffffffffff82111562000517576200051662000475565b5b620005228262000464565b9050602081019050919050565b60005b838110156200054f57808201518184015260208101905062000532565b838111156200055f576000848401525b50505050565b60006200057c6200057684620004f9565b620004da565b9050828152602081018484840111156200059b576200059a6200045f565b5b620005a88482856200052f565b509392505050565b600082601f830112620005c857620005c76200045a565b5b8151620005da84826020860162000565565b91505092915050565b600073ffffffffffffffffffffffffffffffffffffffff82169050919050565b60006200061082620005e3565b9050919050565b620006228162000603565b81146200062e57600080fd5b50565b600081519050620006428162000617565b92915050565b600061ffff82169050919050565b620006618162000648565b81146200066d57600080fd5b50565b600081519050620006818162000656565b92915050565b60006200069482620005e3565b9050919050565b620006a68162000687565b8114620006b257600080fd5b50565b600081519050620006c6816200069b565b92915050565b6000819050919050565b620006e181620006cc565b8114620006ed57600080fd5b50565b6000815190506200070181620006d6565b92915050565b600281106200071557600080fd5b50565b600081519050620007298162000707565b92915050565b600080600080600080600060e0888a03121562000751576200075062000450565b5b600088015167ffffffffffffffff81111562000772576200077162000455565b5b620007808a828b01620005b0565b975050602088015167ffffffffffffffff811115620007a457620007a362000455565b5b620007b28a828b01620005b0565b9650506040620007c58a828b0162000631565b9550506060620007d88a828b0162000670565b9450506080620007eb8a828b01620006b5565b93505060a0620007fe8a828b01620006f0565b92505060c0620008118a828b0162000718565b91505092959891949750929550565b7f4e487b7100000000000000000000000000000000000000000000000000000000600052602160045260246000fd5b6000819050919050565b62000864816200084f565b82525050565b6200087581620006cc565b82525050565b620008868162000603565b82525050565b600060a082019050620008a3600083018862000859565b620008b2602083018762000859565b620008c1604083018662000859565b620008d060608301856200086a565b620008df60808301846200087b565b9695505050505050565b7f4e487b7100000000000000000000000000000000000000000000000000000000600052602260045260246000fd5b600060028204905060018216806200093157607f821691505b60208210811415620009485762000947620008e9565b5b50919050565b60805160a05160c05160e051610100516101205161419d6200099e60003960006124f80152600061253a015260006125190152600061244e015260006124a4015260006124cd015261419d6000f3fe60806040526004361061014b5760003560e01c8063715018a6116100b6578063c87b56dd1161006f578063c87b56dd14610471578063ce1e4626146104ae578063d0def521146104d9578063e322ad2b14610516578063e985e9c514610541578063f2fde38b1461057e5761014b565b8063715018a6146103875780638da5cb5b1461039e57806395d89b41146103c9578063a22cb465146103f4578063abc8c7af1461041d578063b88d4fde146104485761014b565b806326232a2e1161010857806326232a2e146102775780633740ebb3146102a25780633ccfd60b146102cd57806342842e0e146102e45780636352211e1461030d57806370a082311461034a5761014b565b806301ffc9a71461015057806306fdde031461018d578063081812fc146101b8578063095ea7b3146101f5578063111425521461021e57806323b872dd1461024e575b600080fd5b34801561015c57600080fd5b506101776004803603810190610172919061284c565b6105a7565b6040516101849190612894565b60405180910390f35b34801561019957600080fd5b506101a2610689565b6040516101af9190612948565b60405180910390f35b3480156101c457600080fd5b506101df60048036038101906101da91906129a0565b61071b565b6040516101ec9190612a0e565b60405180910390f35b34801561020157600080fd5b5061021c60048036038101906102179190612a55565b610761565b005b61023860048036038101906102339190612ab9565b610879565b6040516102459190612b24565b60405180910390f35b34801561025a57600080fd5b5061027560048036038101906102709190612b3f565b610ae3565b005b34801561028357600080fd5b5061028c610b43565b6040516102999190612baf565b60405180910390f35b3480156102ae57600080fd5b506102b7610b57565b6040516102c49190612beb565b60405180910390f35b3480156102d957600080fd5b506102e2610b7d565b005b3480156102f057600080fd5b5061030b60048036038101906103069190612b3f565b610c71565b005b34801561031957600080fd5b50610334600480360381019061032f91906129a0565b610c91565b6040516103419190612a0e565b60405180910390f35b34801561035657600080fd5b50610371600480360381019061036c9190612c06565b610d43565b60405161037e9190612b24565b60405180910390f35b34801561039357600080fd5b5061039c610dfb565b005b3480156103aa57600080fd5b506103b3610e0f565b6040516103c09190612a0e565b60405180910390f35b3480156103d557600080fd5b506103de610e39565b6040516103eb9190612948565b60405180910390f35b34801561040057600080fd5b5061041b60048036038101906104169190612c5f565b610ecb565b005b34801561042957600080fd5b50610432610ee1565b60405161043f9190612a0e565b60405180910390f35b34801561045457600080fd5b5061046f600480360381019061046a9190612dd4565b610f07565b005b34801561047d57600080fd5b50610498600480360381019061049391906129a0565b610f69565b6040516104a59190612948565b60405180910390f35b3480156104ba57600080fd5b506104c361107c565b6040516104d09190612ece565b60405180910390f35b3480156104e557600080fd5b5061050060048036038101906104fb9190612f49565b611093565b60405161050d9190612b24565b60405180910390f35b34801561052257600080fd5b5061052b611110565b6040516105389190612b24565b60405180910390f35b34801561054d57600080fd5b5061056860048036038101906105639190612fa9565b611157565b6040516105759190612894565b60405180910390f35b34801561058a57600080fd5b506105a560048036038101906105a09190612c06565b6111eb565b005b60007f80ac58cd000000000000000000000000000000000000000000000000000000007bffffffffffffffffffffffffffffffffffffffffffffffffffffffff1916827bffffffffffffffffffffffffffffffffffffffffffffffffffffffff1916148061067257507f5b5e139f000000000000000000000000000000000000000000000000000000007bffffffffffffffffffffffffffffffffffffffffffffffffffffffff1916827bffffffffffffffffffffffffffffffffffffffffffffffffffffffff1916145b8061068257506106818261126f565b5b9050919050565b60606000805461069890613018565b80601f01602080910402602001604051908101604052809291908181526020018280546106c490613018565b80156107115780601f106106e657610100808354040283529160200191610711565b820191906000526020600020905b8154815290600101906020018083116106f457829003601f168201915b5050505050905090565b6000610726826112d9565b6004600083815260200190815260200160002060009054906101000a900473ffffffffffffffffffffffffffffffffffffffff169050919050565b600061076c82610c91565b90508073ffffffffffffffffffffffffffffffffffffffff168373ffffffffffffffffffffffffffffffffffffffff1614156107dd576040517f08c379a00000000000000000000000000000000000000000000000000000000081526004016107d4906130bc565b60405180910390fd5b8073ffffffffffffffffffffffffffffffffffffffff166107fc611324565b73ffffffffffffffffffffffffffffffffffffffff16148061082b575061082a81610825611324565b611157565b5b61086a576040517f08c379a00000000000000000000000000000000000000000000000000000000081526004016108619061314e565b60405180910390fd5b610874838361132c565b505050565b600080610885836113e5565b905082600001602081019061089a9190612c06565b73ffffffffffffffffffffffffffffffffffffffff168173ffffffffffffffffffffffffffffffffffffffff1614610907576040517f08c379a00000000000000000000000000000000000000000000000000000000081526004016108fe906131ba565b60405180910390fd5b826020013534101561094e576040517f08c379a000000000000000000000000000000000000000000000000000000000815260040161094590613226565b60405180910390fd5b600061097b8460000160208101906109669190612c06565b8580604001906109769190613255565b611093565b905061099a8460000160208101906109939190612c06565b8683611457565b60006109a5346116be565b905080346109b391906132e7565b600c60008573ffffffffffffffffffffffffffffffffffffffff1673ffffffffffffffffffffffffffffffffffffffff1681526020019081526020016000206000828254610a01919061331b565b925050819055506000600b60009054906101000a900473ffffffffffffffffffffffffffffffffffffffff1673ffffffffffffffffffffffffffffffffffffffff1682604051610a50906133a2565b60006040518083038185875af1925050503d8060008114610a8d576040519150601f19603f3d011682016040523d82523d6000602084013e610a92565b606091505b5050905080610ad6576040517f08c379a0000000000000000000000000000000000000000000000000000000008152600401610acd90613403565b60405180910390fd5b8294505050505092915050565b610af4610aee611324565b826116f4565b610b33576040517f08c379a0000000000000000000000000000000000000000000000000000000008152600401610b2a90613495565b60405180910390fd5b610b3e838383611457565b505050565b600a60159054906101000a900461ffff1681565b600b60009054906101000a900473ffffffffffffffffffffffffffffffffffffffff1681565b6000600c60003373ffffffffffffffffffffffffffffffffffffffff1673ffffffffffffffffffffffffffffffffffffffff1681526020019081526020016000205490506000811415610bcf57600080fd5b80471015610bdc57600080fd5b60003390506000600c60003373ffffffffffffffffffffffffffffffffffffffff1673ffffffffffffffffffffffffffffffffffffffff168152602001908152602001600020819055508073ffffffffffffffffffffffffffffffffffffffff166108fc839081150290604051600060405180830381858888f19350505050158015610c6c573d6000803e3d6000fd5b505050565b610c8c83838360405180602001604052806000815250610f07565b505050565b6000806002600084815260200190815260200160002060009054906101000a900473ffffffffffffffffffffffffffffffffffffffff169050600073ffffffffffffffffffffffffffffffffffffffff168173ffffffffffffffffffffffffffffffffffffffff161415610d3a576040517f08c379a0000000000000000000000000000000000000000000000000000000008152600401610d3190613501565b60405180910390fd5b80915050919050565b60008073ffffffffffffffffffffffffffffffffffffffff168273ffffffffffffffffffffffffffffffffffffffff161415610db4576040517f08c379a0000000000000000000000000000000000000000000000000000000008152600401610dab90613593565b60405180910390fd5b600360008373ffffffffffffffffffffffffffffffffffffffff1673ffffffffffffffffffffffffffffffffffffffff168152602001908152602001600020549050919050565b610e03611789565b610e0d6000611807565b565b6000600760009054906101000a900473ffffffffffffffffffffffffffffffffffffffff16905090565b606060018054610e4890613018565b80601f0160208091040260200160405190810160405280929190818152602001828054610e7490613018565b8015610ec15780601f10610e9657610100808354040283529160200191610ec1565b820191906000526020600020905b815481529060010190602001808311610ea457829003601f168201915b5050505050905090565b610edd610ed6611324565b83836118cd565b5050565b600a60019054906101000a900473ffffffffffffffffffffffffffffffffffffffff1681565b610f18610f12611324565b836116f4565b610f57576040517f08c379a0000000000000000000000000000000000000000000000000000000008152600401610f4e90613495565b60405180910390fd5b610f6384848484611a3a565b50505050565b6060610f74826112d9565b6000600660008481526020019081526020016000208054610f9490613018565b80601f0160208091040260200160405190810160405280929190818152602001828054610fc090613018565b801561100d5780601f10610fe25761010080835404028352916020019161100d565b820191906000526020600020905b815481529060010190602001808311610ff057829003601f168201915b50505050509050600061101e611a96565b9050600081511415611034578192505050611077565b6000825111156110695780826040516020016110519291906135ef565b60405160208183030381529060405292505050611077565b61107284611aad565b925050505b919050565b6000600a60009054906101000a900460ff16905090565b600061109f6008611b15565b60006110ab6008611b2b565b90506110b78582611b39565b6111058185858080601f016020809104026020016040519081016040528093929190818152602001838380828437600081840152601f19601f82011690508083019250505050505050611d13565b809150509392505050565b6000600c60003373ffffffffffffffffffffffffffffffffffffffff1673ffffffffffffffffffffffffffffffffffffffff16815260200190815260200160002054905090565b6000600560008473ffffffffffffffffffffffffffffffffffffffff1673ffffffffffffffffffffffffffffffffffffffff16815260200190815260200160002060008373ffffffffffffffffffffffffffffffffffffffff1673ffffffffffffffffffffffffffffffffffffffff16815260200190815260200160002060009054906101000a900460ff16905092915050565b6111f3611789565b600073ffffffffffffffffffffffffffffffffffffffff168173ffffffffffffffffffffffffffffffffffffffff161415611263576040517f08c379a000000000000000000000000000000000000000000000000000000000815260040161125a90613685565b60405180910390fd5b61126c81611807565b50565b60007f01ffc9a7000000000000000000000000000000000000000000000000000000007bffffffffffffffffffffffffffffffffffffffffffffffffffffffff1916827bffffffffffffffffffffffffffffffffffffffffffffffffffffffff1916149050919050565b6112e281611d87565b611321576040517f08c379a000000000000000000000000000000000000000000000000000000000815260040161131890613501565b60405180910390fd5b50565b600033905090565b816004600083815260200190815260200160002060006101000a81548173ffffffffffffffffffffffffffffffffffffffff021916908373ffffffffffffffffffffffffffffffffffffffff160217905550808273ffffffffffffffffffffffffffffffffffffffff1661139f83610c91565b73ffffffffffffffffffffffffffffffffffffffff167f8c5be1e5ebec7d5bd14f71427d1e84f3dd0314c0f7b2291e5b200ac8c7c3b92560405160405180910390a45050565b6000806113f183611df3565b905061144f8184806060019061140791906136a5565b8080601f016020809104026020016040519081016040528093929190818152602001838380828437600081840152601f19601f82011690508083019250505050505050611e8c565b915050919050565b8273ffffffffffffffffffffffffffffffffffffffff1661147782610c91565b73ffffffffffffffffffffffffffffffffffffffff16146114cd576040517f08c379a00000000000000000000000000000000000000000000000000000000081526004016114c49061377a565b60405180910390fd5b600073ffffffffffffffffffffffffffffffffffffffff168273ffffffffffffffffffffffffffffffffffffffff16141561153d576040517f08c379a00000000000000000000000000000000000000000000000000000000081526004016115349061380c565b60405180910390fd5b611548838383611eb3565b61155360008261132c565b6001600360008573ffffffffffffffffffffffffffffffffffffffff1673ffffffffffffffffffffffffffffffffffffffff16815260200190815260200160002060008282546115a391906132e7565b925050819055506001600360008473ffffffffffffffffffffffffffffffffffffffff1673ffffffffffffffffffffffffffffffffffffffff16815260200190815260200160002060008282546115fa919061331b565b92505081905550816002600083815260200190815260200160002060006101000a81548173ffffffffffffffffffffffffffffffffffffffff021916908373ffffffffffffffffffffffffffffffffffffffff160217905550808273ffffffffffffffffffffffffffffffffffffffff168473ffffffffffffffffffffffffffffffffffffffff167fddf252ad1be2c89b69c2b068fc378daa952ba7f163c4a11628f55a4df523b3ef60405160405180910390a46116b9838383611eb8565b505050565b6000612710600a60159054906101000a900461ffff166116de919061385b565b61ffff16826116ed919061388c565b9050919050565b60008061170083610c91565b90508073ffffffffffffffffffffffffffffffffffffffff168473ffffffffffffffffffffffffffffffffffffffff16148061174257506117418185611157565b5b8061178057508373ffffffffffffffffffffffffffffffffffffffff166117688461071b565b73ffffffffffffffffffffffffffffffffffffffff16145b91505092915050565b611791611324565b73ffffffffffffffffffffffffffffffffffffffff166117af610e0f565b73ffffffffffffffffffffffffffffffffffffffff1614611805576040517f08c379a00000000000000000000000000000000000000000000000000000000081526004016117fc90613932565b60405180910390fd5b565b6000600760009054906101000a900473ffffffffffffffffffffffffffffffffffffffff16905081600760006101000a81548173ffffffffffffffffffffffffffffffffffffffff021916908373ffffffffffffffffffffffffffffffffffffffff1602179055508173ffffffffffffffffffffffffffffffffffffffff168173ffffffffffffffffffffffffffffffffffffffff167f8be0079c531659141344cd1fd0a4f28419497f9722a3daafe3b4186f6b6457e060405160405180910390a35050565b8173ffffffffffffffffffffffffffffffffffffffff168373ffffffffffffffffffffffffffffffffffffffff16141561193c576040517f08c379a00000000000000000000000000000000000000000000000000000000081526004016119339061399e565b60405180910390fd5b80600560008573ffffffffffffffffffffffffffffffffffffffff1673ffffffffffffffffffffffffffffffffffffffff16815260200190815260200160002060008473ffffffffffffffffffffffffffffffffffffffff1673ffffffffffffffffffffffffffffffffffffffff16815260200190815260200160002060006101000a81548160ff0219169083151502179055508173ffffffffffffffffffffffffffffffffffffffff168373ffffffffffffffffffffffffffffffffffffffff167f17307eab39ab6107e8899845ad3d59bd9653f200f220920489ca2b5937696c3183604051611a2d9190612894565b60405180910390a3505050565b611a45848484611457565b611a5184848484611ebd565b611a90576040517f08c379a0000000000000000000000000000000000000000000000000000000008152600401611a8790613a30565b60405180910390fd5b50505050565b606060405180602001604052806000815250905090565b6060611ab8826112d9565b6000611ac2611a96565b90506000815111611ae25760405180602001604052806000815250611b0d565b80611aec84612054565b604051602001611afd9291906135ef565b6040516020818303038152906040525b915050919050565b6001816000016000828254019250508190555050565b600081600001549050919050565b600073ffffffffffffffffffffffffffffffffffffffff168273ffffffffffffffffffffffffffffffffffffffff161415611ba9576040517f08c379a0000000000000000000000000000000000000000000000000000000008152600401611ba090613a9c565b60405180910390fd5b611bb281611d87565b15611bf2576040517f08c379a0000000000000000000000000000000000000000000000000000000008152600401611be990613b08565b60405180910390fd5b611bfe60008383611eb3565b6001600360008473ffffffffffffffffffffffffffffffffffffffff1673ffffffffffffffffffffffffffffffffffffffff1681526020019081526020016000206000828254611c4e919061331b565b92505081905550816002600083815260200190815260200160002060006101000a81548173ffffffffffffffffffffffffffffffffffffffff021916908373ffffffffffffffffffffffffffffffffffffffff160217905550808273ffffffffffffffffffffffffffffffffffffffff16600073ffffffffffffffffffffffffffffffffffffffff167fddf252ad1be2c89b69c2b068fc378daa952ba7f163c4a11628f55a4df523b3ef60405160405180910390a4611d0f60008383611eb8565b5050565b611d1c82611d87565b611d5b576040517f08c379a0000000000000000000000000000000000000000000000000000000008152600401611d5290613b9a565b60405180910390fd5b80600660008481526020019081526020016000209080519060200190611d8292919061273d565b505050565b60008073ffffffffffffffffffffffffffffffffffffffff166002600084815260200190815260200160002060009054906101000a900473ffffffffffffffffffffffffffffffffffffffff1673ffffffffffffffffffffffffffffffffffffffff1614159050919050565b6000611e857fe2c1fe55ff75bc6c0f1e92db9b907c57038a5f95f7c137ff4bf9e10a15bc3d01836000016020810190611e2c9190612c06565b8460200135858060400190611e419190613255565b604051611e4f929190613bdf565b6040518091039020604051602001611e6a9493929190613c11565b604051602081830303815290604052805190602001206121b5565b9050919050565b6000806000611e9b85856121cf565b91509150611ea881612252565b819250505092915050565b505050565b505050565b6000611ede8473ffffffffffffffffffffffffffffffffffffffff16612427565b15612047578373ffffffffffffffffffffffffffffffffffffffff1663150b7a02611f07611324565b8786866040518563ffffffff1660e01b8152600401611f299493929190613cab565b602060405180830381600087803b158015611f4357600080fd5b505af1925050508015611f7457506040513d601f19601f82011682018060405250810190611f719190613d0c565b60015b611ff7573d8060008114611fa4576040519150601f19603f3d011682016040523d82523d6000602084013e611fa9565b606091505b50600081511415611fef576040517f08c379a0000000000000000000000000000000000000000000000000000000008152600401611fe690613a30565b60405180910390fd5b805181602001fd5b63150b7a0260e01b7bffffffffffffffffffffffffffffffffffffffffffffffffffffffff1916817bffffffffffffffffffffffffffffffffffffffffffffffffffffffff19161491505061204c565b600190505b949350505050565b6060600082141561209c576040518060400160405280600181526020017f300000000000000000000000000000000000000000000000000000000000000081525090506121b0565b600082905060005b600082146120ce5780806120b790613d39565b915050600a826120c79190613d82565b91506120a4565b60008167ffffffffffffffff8111156120ea576120e9612ca9565b5b6040519080825280601f01601f19166020018201604052801561211c5781602001600182028036833780820191505090505b5090505b600085146121a95760018261213591906132e7565b9150600a856121449190613db3565b6030612150919061331b565b60f81b81838151811061216657612165613de4565b5b60200101907effffffffffffffffffffffffffffffffffffffffffffffffffffffffffffff1916908160001a905350600a856121a29190613d82565b9450612120565b8093505050505b919050565b60006121c86121c261244a565b83612564565b9050919050565b6000806041835114156122115760008060006020860151925060408601519150606086015160001a905061220587828585612597565b9450945050505061224b565b6040835114156122425760008060208501519150604085015190506122378683836126a4565b93509350505061224b565b60006002915091505b9250929050565b6000600481111561226657612265612e57565b5b81600481111561227957612278612e57565b5b141561228457612424565b6001600481111561229857612297612e57565b5b8160048111156122ab576122aa612e57565b5b14156122ec576040517f08c379a00000000000000000000000000000000000000000000000000000000081526004016122e390613e5f565b60405180910390fd5b60026004811115612300576122ff612e57565b5b81600481111561231357612312612e57565b5b1415612354576040517f08c379a000000000000000000000000000000000000000000000000000000000815260040161234b90613ecb565b60405180910390fd5b6003600481111561236857612367612e57565b5b81600481111561237b5761237a612e57565b5b14156123bc576040517f08c379a00000000000000000000000000000000000000000000000000000000081526004016123b390613f5d565b60405180910390fd5b6004808111156123cf576123ce612e57565b5b8160048111156123e2576123e1612e57565b5b1415612423576040517f08c379a000000000000000000000000000000000000000000000000000000000815260040161241a90613fef565b60405180910390fd5b5b50565b6000808273ffffffffffffffffffffffffffffffffffffffff163b119050919050565b60007f000000000000000000000000000000000000000000000000000000000000000073ffffffffffffffffffffffffffffffffffffffff163073ffffffffffffffffffffffffffffffffffffffff161480156124c657507f000000000000000000000000000000000000000000000000000000000000000046145b156124f3577f00000000000000000000000000000000000000000000000000000000000000009050612561565b61255e7f00000000000000000000000000000000000000000000000000000000000000007f00000000000000000000000000000000000000000000000000000000000000007f0000000000000000000000000000000000000000000000000000000000000000612703565b90505b90565b6000828260405160200161257992919061407c565b60405160208183030381529060405280519060200120905092915050565b6000807f7fffffffffffffffffffffffffffffff5d576e7357a4501ddfe92f46681b20a08360001c11156125d257600060039150915061269b565b601b8560ff16141580156125ea5750601c8560ff1614155b156125fc57600060049150915061269b565b60006001878787876040516000815260200160405260405161262194939291906140cf565b6020604051602081039080840390855afa158015612643573d6000803e3d6000fd5b505050602060405103519050600073ffffffffffffffffffffffffffffffffffffffff168173ffffffffffffffffffffffffffffffffffffffff1614156126925760006001925092505061269b565b80600092509250505b94509492505050565b60008060007f7fffffffffffffffffffffffffffffffffffffffffffffffffffffffffffffff60001b841690506000601b60ff8660001c901c6126e7919061331b565b90506126f587828885612597565b935093505050935093915050565b6000838383463060405160200161271e959493929190614114565b6040516020818303038152906040528051906020012090509392505050565b82805461274990613018565b90600052602060002090601f01602090048101928261276b57600085556127b2565b82601f1061278457805160ff19168380011785556127b2565b828001600101855582156127b2579182015b828111156127b1578251825591602001919060010190612796565b5b5090506127bf91906127c3565b5090565b5b808211156127dc5760008160009055506001016127c4565b5090565b6000604051905090565b600080fd5b600080fd5b60007fffffffff0000000000000000000000000000000000000000000000000000000082169050919050565b612829816127f4565b811461283457600080fd5b50565b60008135905061284681612820565b92915050565b600060208284031215612862576128616127ea565b5b600061287084828501612837565b91505092915050565b60008115159050919050565b61288e81612879565b82525050565b60006020820190506128a96000830184612885565b92915050565b600081519050919050565b600082825260208201905092915050565b60005b838110156128e95780820151818401526020810190506128ce565b838111156128f8576000848401525b50505050565b6000601f19601f8301169050919050565b600061291a826128af565b61292481856128ba565b93506129348185602086016128cb565b61293d816128fe565b840191505092915050565b60006020820190508181036000830152612962818461290f565b905092915050565b6000819050919050565b61297d8161296a565b811461298857600080fd5b50565b60008135905061299a81612974565b92915050565b6000602082840312156129b6576129b56127ea565b5b60006129c48482850161298b565b91505092915050565b600073ffffffffffffffffffffffffffffffffffffffff82169050919050565b60006129f8826129cd565b9050919050565b612a08816129ed565b82525050565b6000602082019050612a2360008301846129ff565b92915050565b612a32816129ed565b8114612a3d57600080fd5b50565b600081359050612a4f81612a29565b92915050565b60008060408385031215612a6c57612a6b6127ea565b5b6000612a7a85828601612a40565b9250506020612a8b8582860161298b565b9150509250929050565b600080fd5b600060808284031215612ab057612aaf612a95565b5b81905092915050565b60008060408385031215612ad057612acf6127ea565b5b6000612ade85828601612a40565b925050602083013567ffffffffffffffff811115612aff57612afe6127ef565b5b612b0b85828601612a9a565b9150509250929050565b612b1e8161296a565b82525050565b6000602082019050612b396000830184612b15565b92915050565b600080600060608486031215612b5857612b576127ea565b5b6000612b6686828701612a40565b9350506020612b7786828701612a40565b9250506040612b888682870161298b565b9150509250925092565b600061ffff82169050919050565b612ba981612b92565b82525050565b6000602082019050612bc46000830184612ba0565b92915050565b6000612bd5826129cd565b9050919050565b612be581612bca565b82525050565b6000602082019050612c006000830184612bdc565b92915050565b600060208284031215612c1c57612c1b6127ea565b5b6000612c2a84828501612a40565b91505092915050565b612c3c81612879565b8114612c4757600080fd5b50565b600081359050612c5981612c33565b92915050565b60008060408385031215612c7657612c756127ea565b5b6000612c8485828601612a40565b9250506020612c9585828601612c4a565b9150509250929050565b600080fd5b600080fd5b7f4e487b7100000000000000000000000000000000000000000000000000000000600052604160045260246000fd5b612ce1826128fe565b810181811067ffffffffffffffff82111715612d0057612cff612ca9565b5b80604052505050565b6000612d136127e0565b9050612d1f8282612cd8565b919050565b600067ffffffffffffffff821115612d3f57612d3e612ca9565b5b612d48826128fe565b9050602081019050919050565b82818337600083830152505050565b6000612d77612d7284612d24565b612d09565b905082815260208101848484011115612d9357612d92612ca4565b5b612d9e848285612d55565b509392505050565b600082601f830112612dbb57612dba612c9f565b5b8135612dcb848260208601612d64565b91505092915050565b60008060008060808587031215612dee57612ded6127ea565b5b6000612dfc87828801612a40565b9450506020612e0d87828801612a40565b9350506040612e1e8782880161298b565b925050606085013567ffffffffffffffff811115612e3f57612e3e6127ef565b5b612e4b87828801612da6565b91505092959194509250565b7f4e487b7100000000000000000000000000000000000000000000000000000000600052602160045260246000fd5b60028110612e9757612e96612e57565b5b50565b6000819050612ea882612e86565b919050565b6000612eb882612e9a565b9050919050565b612ec881612ead565b82525050565b6000602082019050612ee36000830184612ebf565b92915050565b600080fd5b600080fd5b60008083601f840112612f0957612f08612c9f565b5b8235905067ffffffffffffffff811115612f2657612f25612ee9565b5b602083019150836001820283011115612f4257612f41612eee565b5b9250929050565b600080600060408486031215612f6257612f616127ea565b5b6000612f7086828701612a40565b935050602084013567ffffffffffffffff811115612f9157612f906127ef565b5b612f9d86828701612ef3565b92509250509250925092565b60008060408385031215612fc057612fbf6127ea565b5b6000612fce85828601612a40565b9250506020612fdf85828601612a40565b9150509250929050565b7f4e487b7100000000000000000000000000000000000000000000000000000000600052602260045260246000fd5b6000600282049050600182168061303057607f821691505b6020821081141561304457613043612fe9565b5b50919050565b7f4552433732313a20617070726f76616c20746f2063757272656e74206f776e6560008201527f7200000000000000000000000000000000000000000000000000000000000000602082015250565b60006130a66021836128ba565b91506130b18261304a565b604082019050919050565b600060208201905081810360008301526130d581613099565b9050919050565b7f4552433732313a20617070726f76652063616c6c6572206973206e6f7420746f60008201527f6b656e206f776e6572206e6f7220617070726f76656420666f7220616c6c0000602082015250565b6000613138603e836128ba565b9150613143826130dc565b604082019050919050565b600060208201905081810360008301526131678161312b565b9050919050565b7f5369676e617475726520696e76616c6964000000000000000000000000000000600082015250565b60006131a46011836128ba565b91506131af8261316e565b602082019050919050565b600060208201905081810360008301526131d381613197565b9050919050565b7f496e73756666696369656e742066756e647320746f2072656465656d00000000600082015250565b6000613210601c836128ba565b915061321b826131da565b602082019050919050565b6000602082019050818103600083015261323f81613203565b9050919050565b600080fd5b600080fd5b600080fd5b6000808335600160200384360303811261327257613271613246565b5b80840192508235915067ffffffffffffffff8211156132945761329361324b565b5b6020830192506001820236038313156132b0576132af613250565b5b509250929050565b7f4e487b7100000000000000000000000000000000000000000000000000000000600052601160045260246000fd5b60006132f28261296a565b91506132fd8361296a565b9250828210156133105761330f6132b8565b5b828203905092915050565b60006133268261296a565b91506133318361296a565b9250827fffffffffffffffffffffffffffffffffffffffffffffffffffffffffffffffff03821115613366576133656132b8565b5b828201905092915050565b600081905092915050565b50565b600061338c600083613371565b91506133978261337c565b600082019050919050565b60006133ad8261337f565b9150819050919050565b7f5472616e73666572206661696c65640000000000000000000000000000000000600082015250565b60006133ed600f836128ba565b91506133f8826133b7565b602082019050919050565b6000602082019050818103600083015261341c816133e0565b9050919050565b7f4552433732313a2063616c6c6572206973206e6f7420746f6b656e206f776e6560008201527f72206e6f7220617070726f766564000000000000000000000000000000000000602082015250565b600061347f602e836128ba565b915061348a82613423565b604082019050919050565b600060208201905081810360008301526134ae81613472565b9050919050565b7f4552433732313a20696e76616c696420746f6b656e2049440000000000000000600082015250565b60006134eb6018836128ba565b91506134f6826134b5565b602082019050919050565b6000602082019050818103600083015261351a816134de565b9050919050565b7f4552433732313a2061646472657373207a65726f206973206e6f74206120766160008201527f6c6964206f776e65720000000000000000000000000000000000000000000000602082015250565b600061357d6029836128ba565b915061358882613521565b604082019050919050565b600060208201905081810360008301526135ac81613570565b9050919050565b600081905092915050565b60006135c9826128af565b6135d381856135b3565b93506135e38185602086016128cb565b80840191505092915050565b60006135fb82856135be565b915061360782846135be565b91508190509392505050565b7f4f776e61626c653a206e6577206f776e657220697320746865207a65726f206160008201527f6464726573730000000000000000000000000000000000000000000000000000602082015250565b600061366f6026836128ba565b915061367a82613613565b604082019050919050565b6000602082019050818103600083015261369e81613662565b9050919050565b600080833560016020038436030381126136c2576136c1613246565b5b80840192508235915067ffffffffffffffff8211156136e4576136e361324b565b5b602083019250600182023603831315613700576136ff613250565b5b509250929050565b7f4552433732313a207472616e736665722066726f6d20696e636f72726563742060008201527f6f776e6572000000000000000000000000000000000000000000000000000000602082015250565b60006137646025836128ba565b915061376f82613708565b604082019050919050565b6000602082019050818103600083015261379381613757565b9050919050565b7f4552433732313a207472616e7366657220746f20746865207a65726f2061646460008201527f7265737300000000000000000000000000000000000000000000000000000000602082015250565b60006137f66024836128ba565b91506138018261379a565b604082019050919050565b60006020820190508181036000830152613825816137e9565b9050919050565b7f4e487b7100000000000000000000000000000000000000000000000000000000600052601260045260246000fd5b600061386682612b92565b915061387183612b92565b9250826138815761388061382c565b5b828204905092915050565b60006138978261296a565b91506138a28361296a565b9250817fffffffffffffffffffffffffffffffffffffffffffffffffffffffffffffffff04831182151516156138db576138da6132b8565b5b828202905092915050565b7f4f776e61626c653a2063616c6c6572206973206e6f7420746865206f776e6572600082015250565b600061391c6020836128ba565b9150613927826138e6565b602082019050919050565b6000602082019050818103600083015261394b8161390f565b9050919050565b7f4552433732313a20617070726f766520746f2063616c6c657200000000000000600082015250565b60006139886019836128ba565b915061399382613952565b602082019050919050565b600060208201905081810360008301526139b78161397b565b9050919050565b7f4552433732313a207472616e7366657220746f206e6f6e20455243373231526560008201527f63656976657220696d706c656d656e7465720000000000000000000000000000602082015250565b6000613a1a6032836128ba565b9150613a25826139be565b604082019050919050565b60006020820190508181036000830152613a4981613a0d565b9050919050565b7f4552433732313a206d696e7420746f20746865207a65726f2061646472657373600082015250565b6000613a866020836128ba565b9150613a9182613a50565b602082019050919050565b60006020820190508181036000830152613ab581613a79565b9050919050565b7f4552433732313a20746f6b656e20616c7265616479206d696e74656400000000600082015250565b6000613af2601c836128ba565b9150613afd82613abc565b602082019050919050565b60006020820190508181036000830152613b2181613ae5565b9050919050565b7f45524337323155524953746f726167653a2055524920736574206f66206e6f6e60008201527f6578697374656e7420746f6b656e000000000000000000000000000000000000602082015250565b6000613b84602e836128ba565b9150613b8f82613b28565b604082019050919050565b60006020820190508181036000830152613bb381613b77565b9050919050565b6000613bc68385613371565b9350613bd3838584612d55565b82840190509392505050565b6000613bec828486613bba565b91508190509392505050565b6000819050919050565b613c0b81613bf8565b82525050565b6000608082019050613c266000830187613c02565b613c3360208301866129ff565b613c406040830185612b15565b613c4d6060830184613c02565b95945050505050565b600081519050919050565b600082825260208201905092915050565b6000613c7d82613c56565b613c878185613c61565b9350613c978185602086016128cb565b613ca0816128fe565b840191505092915050565b6000608082019050613cc060008301876129ff565b613ccd60208301866129ff565b613cda6040830185612b15565b8181036060830152613cec8184613c72565b905095945050505050565b600081519050613d0681612820565b92915050565b600060208284031215613d2257613d216127ea565b5b6000613d3084828501613cf7565b91505092915050565b6000613d448261296a565b91507fffffffffffffffffffffffffffffffffffffffffffffffffffffffffffffffff821415613d7757613d766132b8565b5b600182019050919050565b6000613d8d8261296a565b9150613d988361296a565b925082613da857613da761382c565b5b828204905092915050565b6000613dbe8261296a565b9150613dc98361296a565b925082613dd957613dd861382c565b5b828206905092915050565b7f4e487b7100000000000000000000000000000000000000000000000000000000600052603260045260246000fd5b7f45434453413a20696e76616c6964207369676e61747572650000000000000000600082015250565b6000613e496018836128ba565b9150613e5482613e13565b602082019050919050565b60006020820190508181036000830152613e7881613e3c565b9050919050565b7f45434453413a20696e76616c6964207369676e6174757265206c656e67746800600082015250565b6000613eb5601f836128ba565b9150613ec082613e7f565b602082019050919050565b60006020820190508181036000830152613ee481613ea8565b9050919050565b7f45434453413a20696e76616c6964207369676e6174757265202773272076616c60008201527f7565000000000000000000000000000000000000000000000000000000000000602082015250565b6000613f476022836128ba565b9150613f5282613eeb565b604082019050919050565b60006020820190508181036000830152613f7681613f3a565b9050919050565b7f45434453413a20696e76616c6964207369676e6174757265202776272076616c60008201527f7565000000000000000000000000000000000000000000000000000000000000602082015250565b6000613fd96022836128ba565b9150613fe482613f7d565b604082019050919050565b6000602082019050818103600083015261400881613fcc565b9050919050565b7f1901000000000000000000000000000000000000000000000000000000000000600082015250565b60006140456002836135b3565b91506140508261400f565b600282019050919050565b6000819050919050565b61407661407182613bf8565b61405b565b82525050565b600061408782614038565b91506140938285614065565b6020820191506140a38284614065565b6020820191508190509392505050565b600060ff82169050919050565b6140c9816140b3565b82525050565b60006080820190506140e46000830187613c02565b6140f160208301866140c0565b6140fe6040830185613c02565b61410b6060830184613c02565b95945050505050565b600060a0820190506141296000830188613c02565b6141366020830187613c02565b6141436040830186613c02565b6141506060830185612b15565b61415d60808301846129ff565b969550505050505056fea2646970667358221220edf3b8be595c043d7dfd29b0fd21ba9f55ab45505ee8c58a51df58a6f1a13ddc64736f6c63430008090033",
  "linkReferences": {},
  "deployedLinkReferences": {}
}