{
  "_format": "hh-sol-artifact-1",
  "contractName": "ArtongNFT",
  "sourceName": "contracts/ArtongNFT.sol",
  "abi": [
    {
      "inputs": [
        {
          "internalType": "string",
          "name": "_name",
          "type": "string"
        },
        {
          "internalType": "string",
          "name": "_symbol",
          "type": "string"
        },
        {
          "internalType": "address",
          "name": "_marketplace",
          "type": "address"
        },
        {
          "internalType": "uint16",
          "name": "_platformFee",
          "type": "uint16"
        },
        {
          "internalType": "address payable",
          "name": "_feeReceipient",
          "type": "address"
        },
        {
          "internalType": "uint256",
          "name": "_maxAmount",
          "type": "uint256"
        },
        {
          "internalType": "enum ArtongNFT.Policy",
          "name": "_policy",
          "type": "uint8"
        }
      ],
      "stateMutability": "nonpayable",
      "type": "constructor"
    },
    {
      "anonymous": false,
      "inputs": [
        {
          "indexed": true,
          "internalType": "address",
          "name": "owner",
          "type": "address"
        },
        {
          "indexed": true,
          "internalType": "address",
          "name": "approved",
          "type": "address"
        },
        {
          "indexed": true,
          "internalType": "uint256",
          "name": "tokenId",
          "type": "uint256"
        }
      ],
      "name": "Approval",
      "type": "event"
    },
    {
      "anonymous": false,
      "inputs": [
        {
          "indexed": true,
          "internalType": "address",
          "name": "owner",
          "type": "address"
        },
        {
          "indexed": true,
          "internalType": "address",
          "name": "operator",
          "type": "address"
        },
        {
          "indexed": false,
          "internalType": "bool",
          "name": "approved",
          "type": "bool"
        }
      ],
      "name": "ApprovalForAll",
      "type": "event"
    },
    {
      "anonymous": false,
      "inputs": [
        {
          "indexed": true,
          "internalType": "address",
          "name": "previousOwner",
          "type": "address"
        },
        {
          "indexed": true,
          "internalType": "address",
          "name": "newOwner",
          "type": "address"
        }
      ],
      "name": "OwnershipTransferred",
      "type": "event"
    },
    {
      "anonymous": false,
      "inputs": [
        {
          "indexed": false,
          "internalType": "address",
          "name": "account",
          "type": "address"
        }
      ],
      "name": "Paused",
      "type": "event"
    },
    {
      "anonymous": false,
      "inputs": [
        {
          "indexed": true,
          "internalType": "address",
          "name": "from",
          "type": "address"
        },
        {
          "indexed": true,
          "internalType": "address",
          "name": "to",
          "type": "address"
        },
        {
          "indexed": true,
          "internalType": "uint256",
          "name": "tokenId",
          "type": "uint256"
        }
      ],
      "name": "Transfer",
      "type": "event"
    },
    {
      "anonymous": false,
      "inputs": [
        {
          "indexed": false,
          "internalType": "address",
          "name": "account",
          "type": "address"
        }
      ],
      "name": "Unpaused",
      "type": "event"
    },
    {
      "inputs": [
        {
          "internalType": "address",
          "name": "to",
          "type": "address"
        },
        {
          "internalType": "uint256",
          "name": "tokenId",
          "type": "uint256"
        }
      ],
      "name": "approve",
      "outputs": [],
      "stateMutability": "nonpayable",
      "type": "function"
    },
    {
      "inputs": [
        {
          "internalType": "address",
          "name": "owner",
          "type": "address"
        }
      ],
      "name": "balanceOf",
      "outputs": [
        {
          "internalType": "uint256",
          "name": "",
          "type": "uint256"
        }
      ],
      "stateMutability": "view",
      "type": "function"
    },
    {
      "inputs": [
        {
          "internalType": "uint256",
          "name": "tokenId",
          "type": "uint256"
        }
      ],
      "name": "burn",
      "outputs": [],
      "stateMutability": "nonpayable",
      "type": "function"
    },
    {
      "inputs": [],
      "name": "feeReceipient",
      "outputs": [
        {
          "internalType": "address payable",
          "name": "",
          "type": "address"
        }
      ],
      "stateMutability": "view",
      "type": "function"
    },
    {
      "inputs": [
        {
          "internalType": "uint256",
          "name": "tokenId",
          "type": "uint256"
        }
      ],
      "name": "getApproved",
      "outputs": [
        {
          "internalType": "address",
          "name": "",
          "type": "address"
        }
      ],
      "stateMutability": "view",
      "type": "function"
    },
    {
      "inputs": [],
      "name": "getChainID",
      "outputs": [
        {
          "internalType": "uint256",
          "name": "",
          "type": "uint256"
        }
      ],
      "stateMutability": "view",
      "type": "function"
    },
    {
      "inputs": [],
      "name": "getWithdrawal",
      "outputs": [
        {
          "internalType": "uint256",
          "name": "",
          "type": "uint256"
        }
      ],
      "stateMutability": "view",
      "type": "function"
    },
    {
      "inputs": [
        {
          "internalType": "address",
          "name": "owner",
          "type": "address"
        },
        {
          "internalType": "address",
          "name": "operator",
          "type": "address"
        }
      ],
      "name": "isApprovedForAll",
      "outputs": [
        {
          "internalType": "bool",
          "name": "",
          "type": "bool"
        }
      ],
      "stateMutability": "view",
      "type": "function"
    },
    {
      "inputs": [],
      "name": "marketplace",
      "outputs": [
        {
          "internalType": "address",
          "name": "",
          "type": "address"
        }
      ],
      "stateMutability": "view",
      "type": "function"
    },
    {
      "inputs": [],
      "name": "maxAmount",
      "outputs": [
        {
          "internalType": "uint256",
          "name": "",
          "type": "uint256"
        }
      ],
      "stateMutability": "view",
      "type": "function"
    },
    {
      "inputs": [
        {
          "internalType": "address",
          "name": "_to",
          "type": "address"
        },
        {
          "internalType": "string",
          "name": "_tokenUri",
          "type": "string"
        }
      ],
      "name": "mint",
      "outputs": [
        {
          "internalType": "uint256",
          "name": "",
          "type": "uint256"
        }
      ],
      "stateMutability": "nonpayable",
      "type": "function"
    },
    {
      "inputs": [],
      "name": "name",
      "outputs": [
        {
          "internalType": "string",
          "name": "",
          "type": "string"
        }
      ],
      "stateMutability": "view",
      "type": "function"
    },
    {
      "inputs": [],
      "name": "owner",
      "outputs": [
        {
          "internalType": "address",
          "name": "",
          "type": "address"
        }
      ],
      "stateMutability": "view",
      "type": "function"
    },
    {
      "inputs": [
        {
          "internalType": "uint256",
          "name": "tokenId",
          "type": "uint256"
        }
      ],
      "name": "ownerOf",
      "outputs": [
        {
          "internalType": "address",
          "name": "",
          "type": "address"
        }
      ],
      "stateMutability": "view",
      "type": "function"
    },
    {
      "inputs": [],
      "name": "pause",
      "outputs": [],
      "stateMutability": "nonpayable",
      "type": "function"
    },
    {
      "inputs": [],
      "name": "paused",
      "outputs": [
        {
          "internalType": "bool",
          "name": "",
          "type": "bool"
        }
      ],
      "stateMutability": "view",
      "type": "function"
    },
    {
      "inputs": [],
      "name": "platformFee",
      "outputs": [
        {
          "internalType": "uint16",
          "name": "",
          "type": "uint16"
        }
      ],
      "stateMutability": "view",
      "type": "function"
    },
    {
      "inputs": [],
      "name": "policy",
      "outputs": [
        {
          "internalType": "enum ArtongNFT.Policy",
          "name": "",
          "type": "uint8"
        }
      ],
      "stateMutability": "view",
      "type": "function"
    },
    {
      "inputs": [
        {
          "internalType": "address",
          "name": "redeemer",
          "type": "address"
        },
        {
          "components": [
            {
              "internalType": "address",
              "name": "creator",
              "type": "address"
            },
            {
              "internalType": "uint256",
              "name": "minPrice",
              "type": "uint256"
            },
            {
              "internalType": "string",
              "name": "uri",
              "type": "string"
            },
            {
              "internalType": "bytes",
              "name": "signature",
              "type": "bytes"
            }
          ],
          "internalType": "struct ArtongNFT.NFTVoucher",
          "name": "voucher",
          "type": "tuple"
        }
      ],
      "name": "redeem",
      "outputs": [
        {
          "internalType": "uint256",
          "name": "",
          "type": "uint256"
        }
      ],
      "stateMutability": "payable",
      "type": "function"
    },
    {
      "inputs": [],
      "name": "renounceOwnership",
      "outputs": [],
      "stateMutability": "nonpayable",
      "type": "function"
    },
    {
      "inputs": [
        {
          "internalType": "address",
          "name": "from",
          "type": "address"
        },
        {
          "internalType": "address",
          "name": "to",
          "type": "address"
        },
        {
          "internalType": "uint256",
          "name": "tokenId",
          "type": "uint256"
        }
      ],
      "name": "safeTransferFrom",
      "outputs": [],
      "stateMutability": "nonpayable",
      "type": "function"
    },
    {
      "inputs": [
        {
          "internalType": "address",
          "name": "from",
          "type": "address"
        },
        {
          "internalType": "address",
          "name": "to",
          "type": "address"
        },
        {
          "internalType": "uint256",
          "name": "tokenId",
          "type": "uint256"
        },
        {
          "internalType": "bytes",
          "name": "data",
          "type": "bytes"
        }
      ],
      "name": "safeTransferFrom",
      "outputs": [],
      "stateMutability": "nonpayable",
      "type": "function"
    },
    {
      "inputs": [
        {
          "internalType": "address",
          "name": "operator",
          "type": "address"
        },
        {
          "internalType": "bool",
          "name": "approved",
          "type": "bool"
        }
      ],
      "name": "setApprovalForAll",
      "outputs": [],
      "stateMutability": "nonpayable",
      "type": "function"
    },
    {
      "inputs": [
        {
          "internalType": "address",
          "name": "minter",
          "type": "address"
        }
      ],
      "name": "setPendingWithdrawal",
      "outputs": [],
      "stateMutability": "payable",
      "type": "function"
    },
    {
      "inputs": [
        {
          "internalType": "enum ArtongNFT.Policy",
          "name": "_policy",
          "type": "uint8"
        }
      ],
      "name": "setPolicy",
      "outputs": [],
      "stateMutability": "nonpayable",
      "type": "function"
    },
    {
      "inputs": [
        {
          "internalType": "bytes4",
          "name": "interfaceId",
          "type": "bytes4"
        }
      ],
      "name": "supportsInterface",
      "outputs": [
        {
          "internalType": "bool",
          "name": "",
          "type": "bool"
        }
      ],
      "stateMutability": "view",
      "type": "function"
    },
    {
      "inputs": [],
      "name": "symbol",
      "outputs": [
        {
          "internalType": "string",
          "name": "",
          "type": "string"
        }
      ],
      "stateMutability": "view",
      "type": "function"
    },
    {
      "inputs": [
        {
          "internalType": "uint256",
          "name": "tokenId",
          "type": "uint256"
        }
      ],
      "name": "tokenURI",
      "outputs": [
        {
          "internalType": "string",
          "name": "",
          "type": "string"
        }
      ],
      "stateMutability": "view",
      "type": "function"
    },
    {
      "inputs": [
        {
          "internalType": "address",
          "name": "from",
          "type": "address"
        },
        {
          "internalType": "address",
          "name": "to",
          "type": "address"
        },
        {
          "internalType": "uint256",
          "name": "tokenId",
          "type": "uint256"
        }
      ],
      "name": "transferFrom",
      "outputs": [],
      "stateMutability": "nonpayable",
      "type": "function"
    },
    {
      "inputs": [
        {
          "internalType": "address",
          "name": "newOwner",
          "type": "address"
        }
      ],
      "name": "transferOwnership",
      "outputs": [],
      "stateMutability": "nonpayable",
      "type": "function"
    },
    {
      "inputs": [],
      "name": "unpause",
      "outputs": [],
      "stateMutability": "nonpayable",
      "type": "function"
    },
    {
      "inputs": [],
      "name": "withdraw",
      "outputs": [],
      "stateMutability": "nonpayable",
      "type": "function"
    }
  ],
  "bytecode": "0x6101606040523480156200001257600080fd5b50604051620058fa380380620058fa83398181016040528101906200003891906200074c565b6040518060400160405280601181526020017f4172746f6e674e46542d566f75636865720000000000000000000000000000008152506040518060400160405280600181526020017f310000000000000000000000000000000000000000000000000000000000000081525088888160009080519060200190620000be929190620003b3565b508060019080519060200190620000d7929190620003b3565b50505060008280519060200120905060008280519060200120905060007f8b73c3c69bb8fe3d512ecc4cf759cc79239f7b179b0ffacaa9a75d522b39400f90508260e081815250508161010081815250504660a0818152505062000143818484620002a960201b60201c565b608081815250503073ffffffffffffffffffffffffffffffffffffffff1660c08173ffffffffffffffffffffffffffffffffffffffff168152505080610120818152505050505050506000600760006101000a81548160ff021916908315150217905550620001c7620001bb620002e560201b60201c565b620002ed60201b60201c565b84600960016101000a81548173ffffffffffffffffffffffffffffffffffffffff021916908373ffffffffffffffffffffffffffffffffffffffff16021790555083600960156101000a81548161ffff021916908361ffff16021790555082600a60006101000a81548173ffffffffffffffffffffffffffffffffffffffff021916908373ffffffffffffffffffffffffffffffffffffffff16021790555081610140818152505080600960006101000a81548160ff021916908360018111156200029757620002966200083d565b5b0217905550505050505050506200096b565b60008383834630604051602001620002c6959493929190620008a9565b6040516020818303038152906040528051906020012090509392505050565b600033905090565b6000600760019054906101000a900473ffffffffffffffffffffffffffffffffffffffff16905081600760016101000a81548173ffffffffffffffffffffffffffffffffffffffff021916908373ffffffffffffffffffffffffffffffffffffffff1602179055508173ffffffffffffffffffffffffffffffffffffffff168173ffffffffffffffffffffffffffffffffffffffff167f8be0079c531659141344cd1fd0a4f28419497f9722a3daafe3b4186f6b6457e060405160405180910390a35050565b828054620003c19062000935565b90600052602060002090601f016020900481019282620003e5576000855562000431565b82601f106200040057805160ff191683800117855562000431565b8280016001018555821562000431579182015b828111156200043057825182559160200191906001019062000413565b5b50905062000440919062000444565b5090565b5b808211156200045f57600081600090555060010162000445565b5090565b6000604051905090565b600080fd5b600080fd5b600080fd5b600080fd5b6000601f19601f8301169050919050565b7f4e487b7100000000000000000000000000000000000000000000000000000000600052604160045260246000fd5b620004cc8262000481565b810181811067ffffffffffffffff82111715620004ee57620004ed62000492565b5b80604052505050565b60006200050362000463565b9050620005118282620004c1565b919050565b600067ffffffffffffffff82111562000534576200053362000492565b5b6200053f8262000481565b9050602081019050919050565b60005b838110156200056c5780820151818401526020810190506200054f565b838111156200057c576000848401525b50505050565b600062000599620005938462000516565b620004f7565b905082815260208101848484011115620005b857620005b76200047c565b5b620005c58482856200054c565b509392505050565b600082601f830112620005e557620005e462000477565b5b8151620005f784826020860162000582565b91505092915050565b600073ffffffffffffffffffffffffffffffffffffffff82169050919050565b60006200062d8262000600565b9050919050565b6200063f8162000620565b81146200064b57600080fd5b50565b6000815190506200065f8162000634565b92915050565b600061ffff82169050919050565b6200067e8162000665565b81146200068a57600080fd5b50565b6000815190506200069e8162000673565b92915050565b6000620006b18262000600565b9050919050565b620006c381620006a4565b8114620006cf57600080fd5b50565b600081519050620006e381620006b8565b92915050565b6000819050919050565b620006fe81620006e9565b81146200070a57600080fd5b50565b6000815190506200071e81620006f3565b92915050565b600281106200073257600080fd5b50565b600081519050620007468162000724565b92915050565b600080600080600080600060e0888a0312156200076e576200076d6200046d565b5b600088015167ffffffffffffffff8111156200078f576200078e62000472565b5b6200079d8a828b01620005cd565b975050602088015167ffffffffffffffff811115620007c157620007c062000472565b5b620007cf8a828b01620005cd565b9650506040620007e28a828b016200064e565b9550506060620007f58a828b016200068d565b9450506080620008088a828b01620006d2565b93505060a06200081b8a828b016200070d565b92505060c06200082e8a828b0162000735565b91505092959891949750929550565b7f4e487b7100000000000000000000000000000000000000000000000000000000600052602160045260246000fd5b6000819050919050565b62000881816200086c565b82525050565b6200089281620006e9565b82525050565b620008a38162000620565b82525050565b600060a082019050620008c0600083018862000876565b620008cf602083018762000876565b620008de604083018662000876565b620008ed606083018562000887565b620008fc608083018462000898565b9695505050505050565b7f4e487b7100000000000000000000000000000000000000000000000000000000600052602260045260246000fd5b600060028204905060018216806200094e57607f821691505b6020821081141562000965576200096462000906565b5b50919050565b60805160a05160c05160e051610100516101205161014051614f2d620009cd60003960008181610faa01526117aa01526000612e6a01526000612eac01526000612e8b01526000612dc001526000612e1601526000612e3f0152614f2d6000f3fe6080604052600436106101e35760003560e01c80636352211e11610102578063a22cb46511610095578063d0def52111610064578063d0def5211461069d578063da965778146106da578063e985e9c5146106f6578063f2fde38b14610733576101e3565b8063a22cb465146105e3578063abc8c7af1461060c578063b88d4fde14610637578063c87b56dd14610660576101e3565b8063806ad169116100d1578063806ad1691461054b5780638456cb59146105765780638da5cb5b1461058d57806395d89b41146105b8576101e3565b80636352211e1461049157806370a08231146104ce578063715018a61461050b57806374bce0bc14610522576101e3565b80633740ebb31161017a57806342966c681161014957806342966c68146103e7578063564b81ef146104105780635c975abb1461043b5780635f48f39314610466576101e3565b80633740ebb3146103655780633ccfd60b146103905780633f4ba83a146103a757806342842e0e146103be576101e3565b8063095ea7b3116101b6578063095ea7b3146102b857806311142552146102e157806323b872dd1461031157806326232a2e1461033a576101e3565b806301ffc9a7146101e85780630505c8c91461022557806306fdde0314610250578063081812fc1461027b575b600080fd5b3480156101f457600080fd5b5061020f600480360381019061020a91906131fe565b61075c565b60405161021c9190613246565b60405180910390f35b34801561023157600080fd5b5061023a61083e565b60405161024791906132d8565b60405180910390f35b34801561025c57600080fd5b50610265610851565b604051610272919061338c565b60405180910390f35b34801561028757600080fd5b506102a2600480360381019061029d91906133e4565b6108e3565b6040516102af9190613452565b60405180910390f35b3480156102c457600080fd5b506102df60048036038101906102da9190613499565b610929565b005b6102fb60048036038101906102f691906134fd565b610a41565b6040516103089190613568565b60405180910390f35b34801561031d57600080fd5b5061033860048036038101906103339190613583565b610cb3565b005b34801561034657600080fd5b5061034f610d13565b60405161035c91906135f3565b60405180910390f35b34801561037157600080fd5b5061037a610d27565b604051610387919061362f565b60405180910390f35b34801561039c57600080fd5b506103a5610d4d565b005b3480156103b357600080fd5b506103bc610eb5565b005b3480156103ca57600080fd5b506103e560048036038101906103e09190613583565b610f08565b005b3480156103f357600080fd5b5061040e600480360381019061040991906133e4565b610f28565b005b34801561041c57600080fd5b50610425610f84565b6040516104329190613568565b60405180910390f35b34801561044757600080fd5b50610450610f91565b60405161045d9190613246565b60405180910390f35b34801561047257600080fd5b5061047b610fa8565b6040516104889190613568565b60405180910390f35b34801561049d57600080fd5b506104b860048036038101906104b391906133e4565b610fcc565b6040516104c59190613452565b60405180910390f35b3480156104da57600080fd5b506104f560048036038101906104f0919061364a565b61107e565b6040516105029190613568565b60405180910390f35b34801561051757600080fd5b50610520611136565b005b34801561052e57600080fd5b506105496004803603810190610544919061369c565b61114a565b005b34801561055757600080fd5b5061056061117f565b60405161056d9190613568565b60405180910390f35b34801561058257600080fd5b5061058b6111c6565b005b34801561059957600080fd5b506105a2611219565b6040516105af9190613452565b60405180910390f35b3480156105c457600080fd5b506105cd611243565b6040516105da919061338c565b60405180910390f35b3480156105ef57600080fd5b5061060a600480360381019061060591906136f5565b6112d5565b005b34801561061857600080fd5b506106216112eb565b60405161062e9190613452565b60405180910390f35b34801561064357600080fd5b5061065e6004803603810190610659919061386a565b611311565b005b34801561066c57600080fd5b50610687600480360381019061068291906133e4565b611373565b604051610694919061338c565b60405180910390f35b3480156106a957600080fd5b506106c460048036038101906106bf919061394d565b611385565b6040516106d19190613568565b60405180910390f35b6106f460048036038101906106ef919061364a565b611419565b005b34801561070257600080fd5b5061071d600480360381019061071891906139ad565b611472565b60405161072a9190613246565b60405180910390f35b34801561073f57600080fd5b5061075a6004803603810190610755919061364a565b6114e6565b005b60007f80ac58cd000000000000000000000000000000000000000000000000000000007bffffffffffffffffffffffffffffffffffffffffffffffffffffffff1916827bffffffffffffffffffffffffffffffffffffffffffffffffffffffff1916148061082757507f5b5e139f000000000000000000000000000000000000000000000000000000007bffffffffffffffffffffffffffffffffffffffffffffffffffffffff1916827bffffffffffffffffffffffffffffffffffffffffffffffffffffffff1916145b8061083757506108368261156a565b5b9050919050565b600960009054906101000a900460ff1681565b60606000805461086090613a1c565b80601f016020809104026020016040519081016040528092919081815260200182805461088c90613a1c565b80156108d95780601f106108ae576101008083540402835291602001916108d9565b820191906000526020600020905b8154815290600101906020018083116108bc57829003601f168201915b5050505050905090565b60006108ee826115d4565b6004600083815260200190815260200160002060009054906101000a900473ffffffffffffffffffffffffffffffffffffffff169050919050565b600061093482610fcc565b90508073ffffffffffffffffffffffffffffffffffffffff168373ffffffffffffffffffffffffffffffffffffffff1614156109a5576040517f08c379a000000000000000000000000000000000000000000000000000000000815260040161099c90613ac0565b60405180910390fd5b8073ffffffffffffffffffffffffffffffffffffffff166109c461161f565b73ffffffffffffffffffffffffffffffffffffffff1614806109f357506109f2816109ed61161f565b611472565b5b610a32576040517f08c379a0000000000000000000000000000000000000000000000000000000008152600401610a2990613b52565b60405180910390fd5b610a3c8383611627565b505050565b6000610a4b6116e0565b6000610a568361172a565b9050826000016020810190610a6b919061364a565b73ffffffffffffffffffffffffffffffffffffffff168173ffffffffffffffffffffffffffffffffffffffff1614610ad8576040517f08c379a0000000000000000000000000000000000000000000000000000000008152600401610acf90613bbe565b60405180910390fd5b8260200135341015610b1f576040517f08c379a0000000000000000000000000000000000000000000000000000000008152600401610b1690613c2a565b60405180910390fd5b6000610b4c846000016020810190610b37919061364a565b858060400190610b479190613c59565b61179c565b9050610b6b846000016020810190610b64919061364a565b8683611915565b6000610b75611b7c565b90508034610b839190613ceb565b600b60008573ffffffffffffffffffffffffffffffffffffffff1673ffffffffffffffffffffffffffffffffffffffff1681526020019081526020016000206000828254610bd19190613d1f565b925050819055506000600a60009054906101000a900473ffffffffffffffffffffffffffffffffffffffff1673ffffffffffffffffffffffffffffffffffffffff1682604051610c2090613da6565b60006040518083038185875af1925050503d8060008114610c5d576040519150601f19603f3d011682016040523d82523d6000602084013e610c62565b606091505b5050905080610ca6576040517f08c379a0000000000000000000000000000000000000000000000000000000008152600401610c9d90613e07565b60405180910390fd5b8294505050505092915050565b610cc4610cbe61161f565b82611bb0565b610d03576040517f08c379a0000000000000000000000000000000000000000000000000000000008152600401610cfa90613e99565b60405180910390fd5b610d0e838383611915565b505050565b600960159054906101000a900461ffff1681565b600a60009054906101000a900473ffffffffffffffffffffffffffffffffffffffff1681565b610d556116e0565b6000600b60003373ffffffffffffffffffffffffffffffffffffffff1673ffffffffffffffffffffffffffffffffffffffff1681526020019081526020016000205490506000811415610ddd576040517f08c379a0000000000000000000000000000000000000000000000000000000008152600401610dd490613f05565b60405180910390fd5b80471015610e20576040517f08c379a0000000000000000000000000000000000000000000000000000000008152600401610e1790613f71565b60405180910390fd5b60003390506000600b60003373ffffffffffffffffffffffffffffffffffffffff1673ffffffffffffffffffffffffffffffffffffffff168152602001908152602001600020819055508073ffffffffffffffffffffffffffffffffffffffff166108fc839081150290604051600060405180830381858888f19350505050158015610eb0573d6000803e3d6000fd5b505050565b610ebf3333611472565b610efe576040517f08c379a0000000000000000000000000000000000000000000000000000000008152600401610ef590613fdd565b60405180910390fd5b610f06611c34565b565b610f2383838360405180602001604052806000815250611311565b505050565b610f39610f3361161f565b82611bb0565b610f78576040517f08c379a0000000000000000000000000000000000000000000000000000000008152600401610f6f90613e99565b60405180910390fd5b610f8181611c97565b50565b6000804690508091505090565b6000600760009054906101000a900460ff16905090565b7f000000000000000000000000000000000000000000000000000000000000000081565b6000806002600084815260200190815260200160002060009054906101000a900473ffffffffffffffffffffffffffffffffffffffff169050600073ffffffffffffffffffffffffffffffffffffffff168173ffffffffffffffffffffffffffffffffffffffff161415611075576040517f08c379a000000000000000000000000000000000000000000000000000000000815260040161106c90614049565b60405180910390fd5b80915050919050565b60008073ffffffffffffffffffffffffffffffffffffffff168273ffffffffffffffffffffffffffffffffffffffff1614156110ef576040517f08c379a00000000000000000000000000000000000000000000000000000000081526004016110e6906140db565b60405180910390fd5b600360008373ffffffffffffffffffffffffffffffffffffffff1673ffffffffffffffffffffffffffffffffffffffff168152602001908152602001600020549050919050565b61113e611ca3565b6111486000611d21565b565b611152611ca3565b80600960006101000a81548160ff0219169083600181111561117757611176613261565b5b021790555050565b6000600b60003373ffffffffffffffffffffffffffffffffffffffff1673ffffffffffffffffffffffffffffffffffffffff16815260200190815260200160002054905090565b6111d03333611472565b61120f576040517f08c379a000000000000000000000000000000000000000000000000000000000815260040161120690613fdd565b60405180910390fd5b611217611de7565b565b6000600760019054906101000a900473ffffffffffffffffffffffffffffffffffffffff16905090565b60606001805461125290613a1c565b80601f016020809104026020016040519081016040528092919081815260200182805461127e90613a1c565b80156112cb5780601f106112a0576101008083540402835291602001916112cb565b820191906000526020600020905b8154815290600101906020018083116112ae57829003601f168201915b5050505050905090565b6112e76112e061161f565b8383611e4a565b5050565b600960019054906101000a900473ffffffffffffffffffffffffffffffffffffffff1681565b61132261131c61161f565b83611bb0565b611361576040517f08c379a000000000000000000000000000000000000000000000000000000000815260040161135890613e99565b60405180910390fd5b61136d84848484611fb7565b50505050565b606061137e82612013565b9050919050565b600061138f6116e0565b600060018111156113a3576113a2613261565b5b600960009054906101000a900460ff1660018111156113c5576113c4613261565b5b14611405576040517f08c379a00000000000000000000000000000000000000000000000000000000081526004016113fc90614147565b60405180910390fd5b61141084848461179c565b90509392505050565b34600b60008373ffffffffffffffffffffffffffffffffffffffff1673ffffffffffffffffffffffffffffffffffffffff16815260200190815260200160002060008282546114689190613d1f565b9250508190555050565b60008173ffffffffffffffffffffffffffffffffffffffff16600960019054906101000a900473ffffffffffffffffffffffffffffffffffffffff1673ffffffffffffffffffffffffffffffffffffffff1614156114d357600190506114e0565b6114dd8383612126565b90505b92915050565b6114ee611ca3565b600073ffffffffffffffffffffffffffffffffffffffff168173ffffffffffffffffffffffffffffffffffffffff16141561155e576040517f08c379a0000000000000000000000000000000000000000000000000000000008152600401611555906141d9565b60405180910390fd5b61156781611d21565b50565b60007f01ffc9a7000000000000000000000000000000000000000000000000000000007bffffffffffffffffffffffffffffffffffffffffffffffffffffffff1916827bffffffffffffffffffffffffffffffffffffffffffffffffffffffff1916149050919050565b6115dd816121ba565b61161c576040517f08c379a000000000000000000000000000000000000000000000000000000000815260040161161390614049565b60405180910390fd5b50565b600033905090565b816004600083815260200190815260200160002060006101000a81548173ffffffffffffffffffffffffffffffffffffffff021916908373ffffffffffffffffffffffffffffffffffffffff160217905550808273ffffffffffffffffffffffffffffffffffffffff1661169a83610fcc565b73ffffffffffffffffffffffffffffffffffffffff167f8c5be1e5ebec7d5bd14f71427d1e84f3dd0314c0f7b2291e5b200ac8c7c3b92560405160405180910390a45050565b6116e8610f91565b15611728576040517f08c379a000000000000000000000000000000000000000000000000000000000815260040161171f90614245565b60405180910390fd5b565b60008061173683612226565b90506117948184806060019061174c9190614265565b8080601f016020809104026020016040519081016040528093929190818152602001838380828437600081840152601f19601f820116905080830192505050505050506122bf565b915050919050565b60006117a860086122e6565b7f000000000000000000000000000000000000000000000000000000000000000011611809576040517f08c379a000000000000000000000000000000000000000000000000000000000815260040161180090614314565b60405180910390fd5b61181360086122f4565b600061181f60086122e6565b9050600960019054906101000a900473ffffffffffffffffffffffffffffffffffffffff1673ffffffffffffffffffffffffffffffffffffffff16634d0228e48630846040518463ffffffff1660e01b815260040161188093929190614334565b600060405180830381600087803b15801561189a57600080fd5b505af11580156118ae573d6000803e3d6000fd5b505050506118bc858261230a565b61190a8185858080601f016020809104026020016040519081016040528093929190818152602001838380828437600081840152601f19601f820116905080830192505050505050506124e4565b809150509392505050565b8273ffffffffffffffffffffffffffffffffffffffff1661193582610fcc565b73ffffffffffffffffffffffffffffffffffffffff161461198b576040517f08c379a0000000000000000000000000000000000000000000000000000000008152600401611982906143dd565b60405180910390fd5b600073ffffffffffffffffffffffffffffffffffffffff168273ffffffffffffffffffffffffffffffffffffffff1614156119fb576040517f08c379a00000000000000000000000000000000000000000000000000000000081526004016119f29061446f565b60405180910390fd5b611a06838383612558565b611a11600082611627565b6001600360008573ffffffffffffffffffffffffffffffffffffffff1673ffffffffffffffffffffffffffffffffffffffff1681526020019081526020016000206000828254611a619190613ceb565b925050819055506001600360008473ffffffffffffffffffffffffffffffffffffffff1673ffffffffffffffffffffffffffffffffffffffff1681526020019081526020016000206000828254611ab89190613d1f565b92505081905550816002600083815260200190815260200160002060006101000a81548173ffffffffffffffffffffffffffffffffffffffff021916908373ffffffffffffffffffffffffffffffffffffffff160217905550808273ffffffffffffffffffffffffffffffffffffffff168473ffffffffffffffffffffffffffffffffffffffff167fddf252ad1be2c89b69c2b068fc378daa952ba7f163c4a11628f55a4df523b3ef60405160405180910390a4611b7783838361255d565b505050565b6000612710600960159054906101000a900461ffff1661ffff1634611ba1919061448f565b611bab9190614518565b905090565b6000611bbb826121ba565b611bfa576040517f08c379a0000000000000000000000000000000000000000000000000000000008152600401611bf1906145bb565b60405180910390fd5b6000611c0583610fcc565b9050611c118185611472565b15611c20576001915050611c2e565b611c2a8484612562565b9150505b92915050565b611c3c6125f7565b6000600760006101000a81548160ff0219169083151502179055507f5db9ee0a495bf2e6ff9c91a7834c1ba4fdd244a5e8aa4e537bd38aeae4b073aa611c8061161f565b604051611c8d9190613452565b60405180910390a1565b611ca081612640565b50565b611cab61161f565b73ffffffffffffffffffffffffffffffffffffffff16611cc9611219565b73ffffffffffffffffffffffffffffffffffffffff1614611d1f576040517f08c379a0000000000000000000000000000000000000000000000000000000008152600401611d1690614627565b60405180910390fd5b565b6000600760019054906101000a900473ffffffffffffffffffffffffffffffffffffffff16905081600760016101000a81548173ffffffffffffffffffffffffffffffffffffffff021916908373ffffffffffffffffffffffffffffffffffffffff1602179055508173ffffffffffffffffffffffffffffffffffffffff168173ffffffffffffffffffffffffffffffffffffffff167f8be0079c531659141344cd1fd0a4f28419497f9722a3daafe3b4186f6b6457e060405160405180910390a35050565b611def6116e0565b6001600760006101000a81548160ff0219169083151502179055507f62e78cea01bee320cd4e420270b5ea74000d11b0c9f74754ebdbfc544b05a258611e3361161f565b604051611e409190613452565b60405180910390a1565b8173ffffffffffffffffffffffffffffffffffffffff168373ffffffffffffffffffffffffffffffffffffffff161415611eb9576040517f08c379a0000000000000000000000000000000000000000000000000000000008152600401611eb090614693565b60405180910390fd5b80600560008573ffffffffffffffffffffffffffffffffffffffff1673ffffffffffffffffffffffffffffffffffffffff16815260200190815260200160002060008473ffffffffffffffffffffffffffffffffffffffff1673ffffffffffffffffffffffffffffffffffffffff16815260200190815260200160002060006101000a81548160ff0219169083151502179055508173ffffffffffffffffffffffffffffffffffffffff168373ffffffffffffffffffffffffffffffffffffffff167f17307eab39ab6107e8899845ad3d59bd9653f200f220920489ca2b5937696c3183604051611faa9190613246565b60405180910390a3505050565b611fc2848484611915565b611fce84848484612693565b61200d576040517f08c379a000000000000000000000000000000000000000000000000000000000815260040161200490614725565b60405180910390fd5b50505050565b606061201e826115d4565b600060066000848152602001908152602001600020805461203e90613a1c565b80601f016020809104026020016040519081016040528092919081815260200182805461206a90613a1c565b80156120b75780601f1061208c576101008083540402835291602001916120b7565b820191906000526020600020905b81548152906001019060200180831161209a57829003601f168201915b5050505050905060006120c861282a565b90506000815114156120de578192505050612121565b6000825111156121135780826040516020016120fb929190614781565b60405160208183030381529060405292505050612121565b61211c84612841565b925050505b919050565b6000600560008473ffffffffffffffffffffffffffffffffffffffff1673ffffffffffffffffffffffffffffffffffffffff16815260200190815260200160002060008373ffffffffffffffffffffffffffffffffffffffff1673ffffffffffffffffffffffffffffffffffffffff16815260200190815260200160002060009054906101000a900460ff16905092915050565b60008073ffffffffffffffffffffffffffffffffffffffff166002600084815260200190815260200160002060009054906101000a900473ffffffffffffffffffffffffffffffffffffffff1673ffffffffffffffffffffffffffffffffffffffff1614159050919050565b60006122b87fe2c1fe55ff75bc6c0f1e92db9b907c57038a5f95f7c137ff4bf9e10a15bc3d0183600001602081019061225f919061364a565b84602001358580604001906122749190613c59565b6040516122829291906147ca565b604051809103902060405160200161229d94939291906147fc565b604051602081830303815290604052805190602001206128a9565b9050919050565b60008060006122ce85856128c3565b915091506122db81612946565b819250505092915050565b600081600001549050919050565b6001816000016000828254019250508190555050565b600073ffffffffffffffffffffffffffffffffffffffff168273ffffffffffffffffffffffffffffffffffffffff16141561237a576040517f08c379a00000000000000000000000000000000000000000000000000000000081526004016123719061488d565b60405180910390fd5b612383816121ba565b156123c3576040517f08c379a00000000000000000000000000000000000000000000000000000000081526004016123ba906148f9565b60405180910390fd5b6123cf60008383612558565b6001600360008473ffffffffffffffffffffffffffffffffffffffff1673ffffffffffffffffffffffffffffffffffffffff168152602001908152602001600020600082825461241f9190613d1f565b92505081905550816002600083815260200190815260200160002060006101000a81548173ffffffffffffffffffffffffffffffffffffffff021916908373ffffffffffffffffffffffffffffffffffffffff160217905550808273ffffffffffffffffffffffffffffffffffffffff16600073ffffffffffffffffffffffffffffffffffffffff167fddf252ad1be2c89b69c2b068fc378daa952ba7f163c4a11628f55a4df523b3ef60405160405180910390a46124e06000838361255d565b5050565b6124ed826121ba565b61252c576040517f08c379a00000000000000000000000000000000000000000000000000000000081526004016125239061498b565b60405180910390fd5b806006600084815260200190815260200160002090805190602001906125539291906130af565b505050565b505050565b505050565b60008061256e83610fcc565b90508073ffffffffffffffffffffffffffffffffffffffff168473ffffffffffffffffffffffffffffffffffffffff1614806125b057506125af8185611472565b5b806125ee57508373ffffffffffffffffffffffffffffffffffffffff166125d6846108e3565b73ffffffffffffffffffffffffffffffffffffffff16145b91505092915050565b6125ff610f91565b61263e576040517f08c379a0000000000000000000000000000000000000000000000000000000008152600401612635906149f7565b60405180910390fd5b565b61264981612b1b565b600060066000838152602001908152602001600020805461266990613a1c565b9050146126905760066000828152602001908152602001600020600061268f9190613135565b5b50565b60006126b48473ffffffffffffffffffffffffffffffffffffffff16612c38565b1561281d578373ffffffffffffffffffffffffffffffffffffffff1663150b7a026126dd61161f565b8786866040518563ffffffff1660e01b81526004016126ff9493929190614a6c565b602060405180830381600087803b15801561271957600080fd5b505af192505050801561274a57506040513d601f19601f820116820180604052508101906127479190614acd565b60015b6127cd573d806000811461277a576040519150601f19603f3d011682016040523d82523d6000602084013e61277f565b606091505b506000815114156127c5576040517f08c379a00000000000000000000000000000000000000000000000000000000081526004016127bc90614725565b60405180910390fd5b805181602001fd5b63150b7a0260e01b7bffffffffffffffffffffffffffffffffffffffffffffffffffffffff1916817bffffffffffffffffffffffffffffffffffffffffffffffffffffffff191614915050612822565b600190505b949350505050565b606060405180602001604052806000815250905090565b606061284c826115d4565b600061285661282a565b9050600081511161287657604051806020016040528060008152506128a1565b8061288084612c5b565b604051602001612891929190614781565b6040516020818303038152906040525b915050919050565b60006128bc6128b6612dbc565b83612ed6565b9050919050565b6000806041835114156129055760008060006020860151925060408601519150606086015160001a90506128f987828585612f09565b9450945050505061293f565b60408351141561293657600080602085015191506040850151905061292b868383613016565b93509350505061293f565b60006002915091505b9250929050565b6000600481111561295a57612959613261565b5b81600481111561296d5761296c613261565b5b141561297857612b18565b6001600481111561298c5761298b613261565b5b81600481111561299f5761299e613261565b5b14156129e0576040517f08c379a00000000000000000000000000000000000000000000000000000000081526004016129d790614b46565b60405180910390fd5b600260048111156129f4576129f3613261565b5b816004811115612a0757612a06613261565b5b1415612a48576040517f08c379a0000000000000000000000000000000000000000000000000000000008152600401612a3f90614bb2565b60405180910390fd5b60036004811115612a5c57612a5b613261565b5b816004811115612a6f57612a6e613261565b5b1415612ab0576040517f08c379a0000000000000000000000000000000000000000000000000000000008152600401612aa790614c44565b60405180910390fd5b600480811115612ac357612ac2613261565b5b816004811115612ad657612ad5613261565b5b1415612b17576040517f08c379a0000000000000000000000000000000000000000000000000000000008152600401612b0e90614cd6565b60405180910390fd5b5b50565b6000612b2682610fcc565b9050612b3481600084612558565b612b3f600083611627565b6001600360008373ffffffffffffffffffffffffffffffffffffffff1673ffffffffffffffffffffffffffffffffffffffff1681526020019081526020016000206000828254612b8f9190613ceb565b925050819055506002600083815260200190815260200160002060006101000a81549073ffffffffffffffffffffffffffffffffffffffff021916905581600073ffffffffffffffffffffffffffffffffffffffff168273ffffffffffffffffffffffffffffffffffffffff167fddf252ad1be2c89b69c2b068fc378daa952ba7f163c4a11628f55a4df523b3ef60405160405180910390a4612c348160008461255d565b5050565b6000808273ffffffffffffffffffffffffffffffffffffffff163b119050919050565b60606000821415612ca3576040518060400160405280600181526020017f30000000000000000000000000000000000000000000000000000000000000008152509050612db7565b600082905060005b60008214612cd5578080612cbe90614cf6565b915050600a82612cce9190614518565b9150612cab565b60008167ffffffffffffffff811115612cf157612cf061373f565b5b6040519080825280601f01601f191660200182016040528015612d235781602001600182028036833780820191505090505b5090505b60008514612db057600182612d3c9190613ceb565b9150600a85612d4b9190614d3f565b6030612d579190613d1f565b60f81b818381518110612d6d57612d6c614d70565b5b60200101907effffffffffffffffffffffffffffffffffffffffffffffffffffffffffffff1916908160001a905350600a85612da99190614518565b9450612d27565b8093505050505b919050565b60007f000000000000000000000000000000000000000000000000000000000000000073ffffffffffffffffffffffffffffffffffffffff163073ffffffffffffffffffffffffffffffffffffffff16148015612e3857507f000000000000000000000000000000000000000000000000000000000000000046145b15612e65577f00000000000000000000000000000000000000000000000000000000000000009050612ed3565b612ed07f00000000000000000000000000000000000000000000000000000000000000007f00000000000000000000000000000000000000000000000000000000000000007f0000000000000000000000000000000000000000000000000000000000000000613075565b90505b90565b60008282604051602001612eeb929190614e0c565b60405160208183030381529060405280519060200120905092915050565b6000807f7fffffffffffffffffffffffffffffff5d576e7357a4501ddfe92f46681b20a08360001c1115612f4457600060039150915061300d565b601b8560ff1614158015612f5c5750601c8560ff1614155b15612f6e57600060049150915061300d565b600060018787878760405160008152602001604052604051612f939493929190614e5f565b6020604051602081039080840390855afa158015612fb5573d6000803e3d6000fd5b505050602060405103519050600073ffffffffffffffffffffffffffffffffffffffff168173ffffffffffffffffffffffffffffffffffffffff1614156130045760006001925092505061300d565b80600092509250505b94509492505050565b60008060007f7fffffffffffffffffffffffffffffffffffffffffffffffffffffffffffffff60001b841690506000601b60ff8660001c901c6130599190613d1f565b905061306787828885612f09565b935093505050935093915050565b60008383834630604051602001613090959493929190614ea4565b6040516020818303038152906040528051906020012090509392505050565b8280546130bb90613a1c565b90600052602060002090601f0160209004810192826130dd5760008555613124565b82601f106130f657805160ff1916838001178555613124565b82800160010185558215613124579182015b82811115613123578251825591602001919060010190613108565b5b5090506131319190613175565b5090565b50805461314190613a1c565b6000825580601f106131535750613172565b601f0160209004906000526020600020908101906131719190613175565b5b50565b5b8082111561318e576000816000905550600101613176565b5090565b6000604051905090565b600080fd5b600080fd5b60007fffffffff0000000000000000000000000000000000000000000000000000000082169050919050565b6131db816131a6565b81146131e657600080fd5b50565b6000813590506131f8816131d2565b92915050565b6000602082840312156132145761321361319c565b5b6000613222848285016131e9565b91505092915050565b60008115159050919050565b6132408161322b565b82525050565b600060208201905061325b6000830184613237565b92915050565b7f4e487b7100000000000000000000000000000000000000000000000000000000600052602160045260246000fd5b600281106132a1576132a0613261565b5b50565b60008190506132b282613290565b919050565b60006132c2826132a4565b9050919050565b6132d2816132b7565b82525050565b60006020820190506132ed60008301846132c9565b92915050565b600081519050919050565b600082825260208201905092915050565b60005b8381101561332d578082015181840152602081019050613312565b8381111561333c576000848401525b50505050565b6000601f19601f8301169050919050565b600061335e826132f3565b61336881856132fe565b935061337881856020860161330f565b61338181613342565b840191505092915050565b600060208201905081810360008301526133a68184613353565b905092915050565b6000819050919050565b6133c1816133ae565b81146133cc57600080fd5b50565b6000813590506133de816133b8565b92915050565b6000602082840312156133fa576133f961319c565b5b6000613408848285016133cf565b91505092915050565b600073ffffffffffffffffffffffffffffffffffffffff82169050919050565b600061343c82613411565b9050919050565b61344c81613431565b82525050565b60006020820190506134676000830184613443565b92915050565b61347681613431565b811461348157600080fd5b50565b6000813590506134938161346d565b92915050565b600080604083850312156134b0576134af61319c565b5b60006134be85828601613484565b92505060206134cf858286016133cf565b9150509250929050565b600080fd5b6000608082840312156134f4576134f36134d9565b5b81905092915050565b600080604083850312156135145761351361319c565b5b600061352285828601613484565b925050602083013567ffffffffffffffff811115613543576135426131a1565b5b61354f858286016134de565b9150509250929050565b613562816133ae565b82525050565b600060208201905061357d6000830184613559565b92915050565b60008060006060848603121561359c5761359b61319c565b5b60006135aa86828701613484565b93505060206135bb86828701613484565b92505060406135cc868287016133cf565b9150509250925092565b600061ffff82169050919050565b6135ed816135d6565b82525050565b600060208201905061360860008301846135e4565b92915050565b600061361982613411565b9050919050565b6136298161360e565b82525050565b60006020820190506136446000830184613620565b92915050565b6000602082840312156136605761365f61319c565b5b600061366e84828501613484565b91505092915050565b6002811061368457600080fd5b50565b60008135905061369681613677565b92915050565b6000602082840312156136b2576136b161319c565b5b60006136c084828501613687565b91505092915050565b6136d28161322b565b81146136dd57600080fd5b50565b6000813590506136ef816136c9565b92915050565b6000806040838503121561370c5761370b61319c565b5b600061371a85828601613484565b925050602061372b858286016136e0565b9150509250929050565b600080fd5b600080fd5b7f4e487b7100000000000000000000000000000000000000000000000000000000600052604160045260246000fd5b61377782613342565b810181811067ffffffffffffffff821117156137965761379561373f565b5b80604052505050565b60006137a9613192565b90506137b5828261376e565b919050565b600067ffffffffffffffff8211156137d5576137d461373f565b5b6137de82613342565b9050602081019050919050565b82818337600083830152505050565b600061380d613808846137ba565b61379f565b9050828152602081018484840111156138295761382861373a565b5b6138348482856137eb565b509392505050565b600082601f83011261385157613850613735565b5b81356138618482602086016137fa565b91505092915050565b600080600080608085870312156138845761388361319c565b5b600061389287828801613484565b94505060206138a387828801613484565b93505060406138b4878288016133cf565b925050606085013567ffffffffffffffff8111156138d5576138d46131a1565b5b6138e18782880161383c565b91505092959194509250565b600080fd5b600080fd5b60008083601f84011261390d5761390c613735565b5b8235905067ffffffffffffffff81111561392a576139296138ed565b5b602083019150836001820283011115613946576139456138f2565b5b9250929050565b6000806000604084860312156139665761396561319c565b5b600061397486828701613484565b935050602084013567ffffffffffffffff811115613995576139946131a1565b5b6139a1868287016138f7565b92509250509250925092565b600080604083850312156139c4576139c361319c565b5b60006139d285828601613484565b92505060206139e385828601613484565b9150509250929050565b7f4e487b7100000000000000000000000000000000000000000000000000000000600052602260045260246000fd5b60006002820490506001821680613a3457607f821691505b60208210811415613a4857613a476139ed565b5b50919050565b7f4552433732313a20617070726f76616c20746f2063757272656e74206f776e6560008201527f7200000000000000000000000000000000000000000000000000000000000000602082015250565b6000613aaa6021836132fe565b9150613ab582613a4e565b604082019050919050565b60006020820190508181036000830152613ad981613a9d565b9050919050565b7f4552433732313a20617070726f76652063616c6c6572206973206e6f7420746f60008201527f6b656e206f776e6572206e6f7220617070726f76656420666f7220616c6c0000602082015250565b6000613b3c603e836132fe565b9150613b4782613ae0565b604082019050919050565b60006020820190508181036000830152613b6b81613b2f565b9050919050565b7f5369676e617475726520696e76616c6964000000000000000000000000000000600082015250565b6000613ba86011836132fe565b9150613bb382613b72565b602082019050919050565b60006020820190508181036000830152613bd781613b9b565b9050919050565b7f496e73756666696369656e742066756e647320746f2072656465656d00000000600082015250565b6000613c14601c836132fe565b9150613c1f82613bde565b602082019050919050565b60006020820190508181036000830152613c4381613c07565b9050919050565b600080fd5b600080fd5b600080fd5b60008083356001602003843603038112613c7657613c75613c4a565b5b80840192508235915067ffffffffffffffff821115613c9857613c97613c4f565b5b602083019250600182023603831315613cb457613cb3613c54565b5b509250929050565b7f4e487b7100000000000000000000000000000000000000000000000000000000600052601160045260246000fd5b6000613cf6826133ae565b9150613d01836133ae565b925082821015613d1457613d13613cbc565b5b828203905092915050565b6000613d2a826133ae565b9150613d35836133ae565b9250827fffffffffffffffffffffffffffffffffffffffffffffffffffffffffffffffff03821115613d6a57613d69613cbc565b5b828201905092915050565b600081905092915050565b50565b6000613d90600083613d75565b9150613d9b82613d80565b600082019050919050565b6000613db182613d83565b9150819050919050565b7f5472616e73666572206661696c65640000000000000000000000000000000000600082015250565b6000613df1600f836132fe565b9150613dfc82613dbb565b602082019050919050565b60006020820190508181036000830152613e2081613de4565b9050919050565b7f4552433732313a2063616c6c6572206973206e6f7420746f6b656e206f776e6560008201527f72206e6f7220617070726f766564000000000000000000000000000000000000602082015250565b6000613e83602e836132fe565b9150613e8e82613e27565b604082019050919050565b60006020820190508181036000830152613eb281613e76565b9050919050565b7f6e6f7468696e6720746f20776974686472617700000000000000000000000000600082015250565b6000613eef6013836132fe565b9150613efa82613eb9565b602082019050919050565b60006020820190508181036000830152613f1e81613ee2565b9050919050565b7f62616c616e6365206e6f7420656e6f75676820746f2077697468647261770000600082015250565b6000613f5b601e836132fe565b9150613f6682613f25565b602082019050919050565b60006020820190508181036000830152613f8a81613f4e565b9050919050565b7f4e6f7420617574686f72697a6564000000000000000000000000000000000000600082015250565b6000613fc7600e836132fe565b9150613fd282613f91565b602082019050919050565b60006020820190508181036000830152613ff681613fba565b9050919050565b7f4552433732313a20696e76616c696420746f6b656e2049440000000000000000600082015250565b60006140336018836132fe565b915061403e82613ffd565b602082019050919050565b6000602082019050818103600083015261406281614026565b9050919050565b7f4552433732313a2061646472657373207a65726f206973206e6f74206120766160008201527f6c6964206f776e65720000000000000000000000000000000000000000000000602082015250565b60006140c56029836132fe565b91506140d082614069565b604082019050919050565b600060208201905081810360008301526140f4816140b8565b9050919050565b7f506f6c696379206f6e6c7920616c6c6f7773206c617a79206d696e74696e6700600082015250565b6000614131601f836132fe565b915061413c826140fb565b602082019050919050565b6000602082019050818103600083015261416081614124565b9050919050565b7f4f776e61626c653a206e6577206f776e657220697320746865207a65726f206160008201527f6464726573730000000000000000000000000000000000000000000000000000602082015250565b60006141c36026836132fe565b91506141ce82614167565b604082019050919050565b600060208201905081810360008301526141f2816141b6565b9050919050565b7f5061757361626c653a2070617573656400000000000000000000000000000000600082015250565b600061422f6010836132fe565b915061423a826141f9565b602082019050919050565b6000602082019050818103600083015261425e81614222565b9050919050565b6000808335600160200384360303811261428257614281613c4a565b5b80840192508235915067ffffffffffffffff8211156142a4576142a3613c4f565b5b6020830192506001820236038313156142c0576142bf613c54565b5b509250929050565b7f4d6178696d756d206e756d626572206f66204e46547320726561636865640000600082015250565b60006142fe601e836132fe565b9150614309826142c8565b602082019050919050565b6000602082019050818103600083015261432d816142f1565b9050919050565b60006060820190506143496000830186613443565b6143566020830185613443565b6143636040830184613559565b949350505050565b7f4552433732313a207472616e736665722066726f6d20696e636f72726563742060008201527f6f776e6572000000000000000000000000000000000000000000000000000000602082015250565b60006143c76025836132fe565b91506143d28261436b565b604082019050919050565b600060208201905081810360008301526143f6816143ba565b9050919050565b7f4552433732313a207472616e7366657220746f20746865207a65726f2061646460008201527f7265737300000000000000000000000000000000000000000000000000000000602082015250565b60006144596024836132fe565b9150614464826143fd565b604082019050919050565b600060208201905081810360008301526144888161444c565b9050919050565b600061449a826133ae565b91506144a5836133ae565b9250817fffffffffffffffffffffffffffffffffffffffffffffffffffffffffffffffff04831182151516156144de576144dd613cbc565b5b828202905092915050565b7f4e487b7100000000000000000000000000000000000000000000000000000000600052601260045260246000fd5b6000614523826133ae565b915061452e836133ae565b92508261453e5761453d6144e9565b5b828204905092915050565b7f4552433732313a206f70657261746f7220717565727920666f72206e6f6e657860008201527f697374656e7420746f6b656e0000000000000000000000000000000000000000602082015250565b60006145a5602c836132fe565b91506145b082614549565b604082019050919050565b600060208201905081810360008301526145d481614598565b9050919050565b7f4f776e61626c653a2063616c6c6572206973206e6f7420746865206f776e6572600082015250565b60006146116020836132fe565b915061461c826145db565b602082019050919050565b6000602082019050818103600083015261464081614604565b9050919050565b7f4552433732313a20617070726f766520746f2063616c6c657200000000000000600082015250565b600061467d6019836132fe565b915061468882614647565b602082019050919050565b600060208201905081810360008301526146ac81614670565b9050919050565b7f4552433732313a207472616e7366657220746f206e6f6e20455243373231526560008201527f63656976657220696d706c656d656e7465720000000000000000000000000000602082015250565b600061470f6032836132fe565b915061471a826146b3565b604082019050919050565b6000602082019050818103600083015261473e81614702565b9050919050565b600081905092915050565b600061475b826132f3565b6147658185614745565b935061477581856020860161330f565b80840191505092915050565b600061478d8285614750565b91506147998284614750565b91508190509392505050565b60006147b18385613d75565b93506147be8385846137eb565b82840190509392505050565b60006147d78284866147a5565b91508190509392505050565b6000819050919050565b6147f6816147e3565b82525050565b600060808201905061481160008301876147ed565b61481e6020830186613443565b61482b6040830185613559565b61483860608301846147ed565b95945050505050565b7f4552433732313a206d696e7420746f20746865207a65726f2061646472657373600082015250565b60006148776020836132fe565b915061488282614841565b602082019050919050565b600060208201905081810360008301526148a68161486a565b9050919050565b7f4552433732313a20746f6b656e20616c7265616479206d696e74656400000000600082015250565b60006148e3601c836132fe565b91506148ee826148ad565b602082019050919050565b60006020820190508181036000830152614912816148d6565b9050919050565b7f45524337323155524953746f726167653a2055524920736574206f66206e6f6e60008201527f6578697374656e7420746f6b656e000000000000000000000000000000000000602082015250565b6000614975602e836132fe565b915061498082614919565b604082019050919050565b600060208201905081810360008301526149a481614968565b9050919050565b7f5061757361626c653a206e6f7420706175736564000000000000000000000000600082015250565b60006149e16014836132fe565b91506149ec826149ab565b602082019050919050565b60006020820190508181036000830152614a10816149d4565b9050919050565b600081519050919050565b600082825260208201905092915050565b6000614a3e82614a17565b614a488185614a22565b9350614a5881856020860161330f565b614a6181613342565b840191505092915050565b6000608082019050614a816000830187613443565b614a8e6020830186613443565b614a9b6040830185613559565b8181036060830152614aad8184614a33565b905095945050505050565b600081519050614ac7816131d2565b92915050565b600060208284031215614ae357614ae261319c565b5b6000614af184828501614ab8565b91505092915050565b7f45434453413a20696e76616c6964207369676e61747572650000000000000000600082015250565b6000614b306018836132fe565b9150614b3b82614afa565b602082019050919050565b60006020820190508181036000830152614b5f81614b23565b9050919050565b7f45434453413a20696e76616c6964207369676e6174757265206c656e67746800600082015250565b6000614b9c601f836132fe565b9150614ba782614b66565b602082019050919050565b60006020820190508181036000830152614bcb81614b8f565b9050919050565b7f45434453413a20696e76616c6964207369676e6174757265202773272076616c60008201527f7565000000000000000000000000000000000000000000000000000000000000602082015250565b6000614c2e6022836132fe565b9150614c3982614bd2565b604082019050919050565b60006020820190508181036000830152614c5d81614c21565b9050919050565b7f45434453413a20696e76616c6964207369676e6174757265202776272076616c60008201527f7565000000000000000000000000000000000000000000000000000000000000602082015250565b6000614cc06022836132fe565b9150614ccb82614c64565b604082019050919050565b60006020820190508181036000830152614cef81614cb3565b9050919050565b6000614d01826133ae565b91507fffffffffffffffffffffffffffffffffffffffffffffffffffffffffffffffff821415614d3457614d33613cbc565b5b600182019050919050565b6000614d4a826133ae565b9150614d55836133ae565b925082614d6557614d646144e9565b5b828206905092915050565b7f4e487b7100000000000000000000000000000000000000000000000000000000600052603260045260246000fd5b7f1901000000000000000000000000000000000000000000000000000000000000600082015250565b6000614dd5600283614745565b9150614de082614d9f565b600282019050919050565b6000819050919050565b614e06614e01826147e3565b614deb565b82525050565b6000614e1782614dc8565b9150614e238285614df5565b602082019150614e338284614df5565b6020820191508190509392505050565b600060ff82169050919050565b614e5981614e43565b82525050565b6000608082019050614e7460008301876147ed565b614e816020830186614e50565b614e8e60408301856147ed565b614e9b60608301846147ed565b95945050505050565b600060a082019050614eb960008301886147ed565b614ec660208301876147ed565b614ed360408301866147ed565b614ee06060830185613559565b614eed6080830184613443565b969550505050505056fea26469706673582212204733738961b9de929d4c2def4eb34449b0ae73d7a9d295d826433e7d7a2932bb64736f6c63430008090033",
  "linkReferences": {},
  "deployedLinkReferences": {}
}