{
  "_format": "hh-sol-artifact-1",
  "contractName": "ArtongNFT",
  "sourceName": "contracts/ArtongNFT.sol",
  "abi": [
    {
      "inputs": [
        {
          "internalType": "string",
          "name": "_name",
          "type": "string"
        },
        {
          "internalType": "string",
          "name": "_symbol",
          "type": "string"
        },
        {
          "internalType": "address",
          "name": "_marketplace",
          "type": "address"
        },
        {
          "internalType": "uint16",
          "name": "_platformFee",
          "type": "uint16"
        },
        {
          "internalType": "address payable",
          "name": "_feeReceipient",
          "type": "address"
        },
        {
          "internalType": "uint256",
          "name": "_maxAmount",
          "type": "uint256"
        },
        {
          "internalType": "enum ArtongNFT.Policy",
          "name": "_policy",
          "type": "uint8"
        }
      ],
      "stateMutability": "nonpayable",
      "type": "constructor"
    },
    {
      "anonymous": false,
      "inputs": [
        {
          "indexed": true,
          "internalType": "address",
          "name": "owner",
          "type": "address"
        },
        {
          "indexed": true,
          "internalType": "address",
          "name": "approved",
          "type": "address"
        },
        {
          "indexed": true,
          "internalType": "uint256",
          "name": "tokenId",
          "type": "uint256"
        }
      ],
      "name": "Approval",
      "type": "event"
    },
    {
      "anonymous": false,
      "inputs": [
        {
          "indexed": true,
          "internalType": "address",
          "name": "owner",
          "type": "address"
        },
        {
          "indexed": true,
          "internalType": "address",
          "name": "operator",
          "type": "address"
        },
        {
          "indexed": false,
          "internalType": "bool",
          "name": "approved",
          "type": "bool"
        }
      ],
      "name": "ApprovalForAll",
      "type": "event"
    },
    {
      "anonymous": false,
      "inputs": [
        {
          "indexed": true,
          "internalType": "address",
          "name": "previousOwner",
          "type": "address"
        },
        {
          "indexed": true,
          "internalType": "address",
          "name": "newOwner",
          "type": "address"
        }
      ],
      "name": "OwnershipTransferred",
      "type": "event"
    },
    {
      "anonymous": false,
      "inputs": [
        {
          "indexed": false,
          "internalType": "address",
          "name": "account",
          "type": "address"
        }
      ],
      "name": "Paused",
      "type": "event"
    },
    {
      "anonymous": false,
      "inputs": [
        {
          "indexed": true,
          "internalType": "address",
          "name": "from",
          "type": "address"
        },
        {
          "indexed": true,
          "internalType": "address",
          "name": "to",
          "type": "address"
        },
        {
          "indexed": true,
          "internalType": "uint256",
          "name": "tokenId",
          "type": "uint256"
        }
      ],
      "name": "Transfer",
      "type": "event"
    },
    {
      "anonymous": false,
      "inputs": [
        {
          "indexed": false,
          "internalType": "address",
          "name": "account",
          "type": "address"
        }
      ],
      "name": "Unpaused",
      "type": "event"
    },
    {
      "inputs": [
        {
          "internalType": "address",
          "name": "to",
          "type": "address"
        },
        {
          "internalType": "uint256",
          "name": "tokenId",
          "type": "uint256"
        }
      ],
      "name": "approve",
      "outputs": [],
      "stateMutability": "nonpayable",
      "type": "function"
    },
    {
      "inputs": [
        {
          "internalType": "address",
          "name": "owner",
          "type": "address"
        }
      ],
      "name": "balanceOf",
      "outputs": [
        {
          "internalType": "uint256",
          "name": "",
          "type": "uint256"
        }
      ],
      "stateMutability": "view",
      "type": "function"
    },
    {
      "inputs": [
        {
          "internalType": "uint256",
          "name": "tokenId",
          "type": "uint256"
        }
      ],
      "name": "burn",
      "outputs": [],
      "stateMutability": "nonpayable",
      "type": "function"
    },
    {
      "inputs": [],
      "name": "feeReceipient",
      "outputs": [
        {
          "internalType": "address payable",
          "name": "",
          "type": "address"
        }
      ],
      "stateMutability": "view",
      "type": "function"
    },
    {
      "inputs": [
        {
          "internalType": "uint256",
          "name": "tokenId",
          "type": "uint256"
        }
      ],
      "name": "getApproved",
      "outputs": [
        {
          "internalType": "address",
          "name": "",
          "type": "address"
        }
      ],
      "stateMutability": "view",
      "type": "function"
    },
    {
      "inputs": [],
      "name": "getChainID",
      "outputs": [
        {
          "internalType": "uint256",
          "name": "",
          "type": "uint256"
        }
      ],
      "stateMutability": "view",
      "type": "function"
    },
    {
      "inputs": [],
      "name": "getWithdrawal",
      "outputs": [
        {
          "internalType": "uint256",
          "name": "",
          "type": "uint256"
        }
      ],
      "stateMutability": "view",
      "type": "function"
    },
    {
      "inputs": [
        {
          "internalType": "address",
          "name": "owner",
          "type": "address"
        },
        {
          "internalType": "address",
          "name": "operator",
          "type": "address"
        }
      ],
      "name": "isApprovedForAll",
      "outputs": [
        {
          "internalType": "bool",
          "name": "",
          "type": "bool"
        }
      ],
      "stateMutability": "view",
      "type": "function"
    },
    {
      "inputs": [],
      "name": "marketplace",
      "outputs": [
        {
          "internalType": "address",
          "name": "",
          "type": "address"
        }
      ],
      "stateMutability": "view",
      "type": "function"
    },
    {
      "inputs": [],
      "name": "maxAmount",
      "outputs": [
        {
          "internalType": "uint256",
          "name": "",
          "type": "uint256"
        }
      ],
      "stateMutability": "view",
      "type": "function"
    },
    {
      "inputs": [
        {
          "internalType": "address",
          "name": "_to",
          "type": "address"
        },
        {
          "internalType": "string",
          "name": "_tokenUri",
          "type": "string"
        }
      ],
      "name": "mint",
      "outputs": [
        {
          "internalType": "uint256",
          "name": "",
          "type": "uint256"
        }
      ],
      "stateMutability": "nonpayable",
      "type": "function"
    },
    {
      "inputs": [],
      "name": "name",
      "outputs": [
        {
          "internalType": "string",
          "name": "",
          "type": "string"
        }
      ],
      "stateMutability": "view",
      "type": "function"
    },
    {
      "inputs": [],
      "name": "owner",
      "outputs": [
        {
          "internalType": "address",
          "name": "",
          "type": "address"
        }
      ],
      "stateMutability": "view",
      "type": "function"
    },
    {
      "inputs": [
        {
          "internalType": "uint256",
          "name": "tokenId",
          "type": "uint256"
        }
      ],
      "name": "ownerOf",
      "outputs": [
        {
          "internalType": "address",
          "name": "",
          "type": "address"
        }
      ],
      "stateMutability": "view",
      "type": "function"
    },
    {
      "inputs": [],
      "name": "pause",
      "outputs": [],
      "stateMutability": "nonpayable",
      "type": "function"
    },
    {
      "inputs": [],
      "name": "paused",
      "outputs": [
        {
          "internalType": "bool",
          "name": "",
          "type": "bool"
        }
      ],
      "stateMutability": "view",
      "type": "function"
    },
    {
      "inputs": [],
      "name": "platformFee",
      "outputs": [
        {
          "internalType": "uint16",
          "name": "",
          "type": "uint16"
        }
      ],
      "stateMutability": "view",
      "type": "function"
    },
    {
      "inputs": [],
      "name": "policy",
      "outputs": [
        {
          "internalType": "enum ArtongNFT.Policy",
          "name": "",
          "type": "uint8"
        }
      ],
      "stateMutability": "view",
      "type": "function"
    },
    {
      "inputs": [
        {
          "internalType": "address",
          "name": "redeemer",
          "type": "address"
        },
        {
          "components": [
            {
              "internalType": "address",
              "name": "creator",
              "type": "address"
            },
            {
              "internalType": "uint256",
              "name": "minPrice",
              "type": "uint256"
            },
            {
              "internalType": "string",
              "name": "uri",
              "type": "string"
            },
            {
              "internalType": "bytes",
              "name": "signature",
              "type": "bytes"
            }
          ],
          "internalType": "struct ArtongNFT.NFTVoucher",
          "name": "voucher",
          "type": "tuple"
        }
      ],
      "name": "redeem",
      "outputs": [
        {
          "internalType": "uint256",
          "name": "",
          "type": "uint256"
        }
      ],
      "stateMutability": "payable",
      "type": "function"
    },
    {
      "inputs": [],
      "name": "renounceOwnership",
      "outputs": [],
      "stateMutability": "nonpayable",
      "type": "function"
    },
    {
      "inputs": [
        {
          "internalType": "address",
          "name": "from",
          "type": "address"
        },
        {
          "internalType": "address",
          "name": "to",
          "type": "address"
        },
        {
          "internalType": "uint256",
          "name": "tokenId",
          "type": "uint256"
        }
      ],
      "name": "safeTransferFrom",
      "outputs": [],
      "stateMutability": "nonpayable",
      "type": "function"
    },
    {
      "inputs": [
        {
          "internalType": "address",
          "name": "from",
          "type": "address"
        },
        {
          "internalType": "address",
          "name": "to",
          "type": "address"
        },
        {
          "internalType": "uint256",
          "name": "tokenId",
          "type": "uint256"
        },
        {
          "internalType": "bytes",
          "name": "data",
          "type": "bytes"
        }
      ],
      "name": "safeTransferFrom",
      "outputs": [],
      "stateMutability": "nonpayable",
      "type": "function"
    },
    {
      "inputs": [
        {
          "internalType": "address",
          "name": "operator",
          "type": "address"
        },
        {
          "internalType": "bool",
          "name": "approved",
          "type": "bool"
        }
      ],
      "name": "setApprovalForAll",
      "outputs": [],
      "stateMutability": "nonpayable",
      "type": "function"
    },
    {
      "inputs": [
        {
          "internalType": "address",
          "name": "minter",
          "type": "address"
        }
      ],
      "name": "setPendingWithdrawal",
      "outputs": [],
      "stateMutability": "payable",
      "type": "function"
    },
    {
      "inputs": [
        {
          "internalType": "enum ArtongNFT.Policy",
          "name": "_policy",
          "type": "uint8"
        }
      ],
      "name": "setPolicy",
      "outputs": [],
      "stateMutability": "nonpayable",
      "type": "function"
    },
    {
      "inputs": [
        {
          "internalType": "bytes4",
          "name": "interfaceId",
          "type": "bytes4"
        }
      ],
      "name": "supportsInterface",
      "outputs": [
        {
          "internalType": "bool",
          "name": "",
          "type": "bool"
        }
      ],
      "stateMutability": "view",
      "type": "function"
    },
    {
      "inputs": [],
      "name": "symbol",
      "outputs": [
        {
          "internalType": "string",
          "name": "",
          "type": "string"
        }
      ],
      "stateMutability": "view",
      "type": "function"
    },
    {
      "inputs": [
        {
          "internalType": "uint256",
          "name": "tokenId",
          "type": "uint256"
        }
      ],
      "name": "tokenURI",
      "outputs": [
        {
          "internalType": "string",
          "name": "",
          "type": "string"
        }
      ],
      "stateMutability": "view",
      "type": "function"
    },
    {
      "inputs": [
        {
          "internalType": "address",
          "name": "from",
          "type": "address"
        },
        {
          "internalType": "address",
          "name": "to",
          "type": "address"
        },
        {
          "internalType": "uint256",
          "name": "tokenId",
          "type": "uint256"
        }
      ],
      "name": "transferFrom",
      "outputs": [],
      "stateMutability": "nonpayable",
      "type": "function"
    },
    {
      "inputs": [
        {
          "internalType": "address",
          "name": "newOwner",
          "type": "address"
        }
      ],
      "name": "transferOwnership",
      "outputs": [],
      "stateMutability": "nonpayable",
      "type": "function"
    },
    {
      "inputs": [],
      "name": "unpause",
      "outputs": [],
      "stateMutability": "nonpayable",
      "type": "function"
    },
    {
      "inputs": [],
      "name": "withdraw",
      "outputs": [],
      "stateMutability": "nonpayable",
      "type": "function"
    }
  ],
  "bytecode": "0x6101606040523480156200001257600080fd5b50604051620058323803806200583283398181016040528101906200003891906200074c565b6040518060400160405280601181526020017f4172746f6e674e46542d566f75636865720000000000000000000000000000008152506040518060400160405280600181526020017f310000000000000000000000000000000000000000000000000000000000000081525088888160009080519060200190620000be929190620003b3565b508060019080519060200190620000d7929190620003b3565b50505060008280519060200120905060008280519060200120905060007f8b73c3c69bb8fe3d512ecc4cf759cc79239f7b179b0ffacaa9a75d522b39400f90508260e081815250508161010081815250504660a0818152505062000143818484620002a960201b60201c565b608081815250503073ffffffffffffffffffffffffffffffffffffffff1660c08173ffffffffffffffffffffffffffffffffffffffff168152505080610120818152505050505050506000600760006101000a81548160ff021916908315150217905550620001c7620001bb620002e560201b60201c565b620002ed60201b60201c565b84600960016101000a81548173ffffffffffffffffffffffffffffffffffffffff021916908373ffffffffffffffffffffffffffffffffffffffff16021790555083600960156101000a81548161ffff021916908361ffff16021790555082600a60006101000a81548173ffffffffffffffffffffffffffffffffffffffff021916908373ffffffffffffffffffffffffffffffffffffffff16021790555081610140818152505080600960006101000a81548160ff021916908360018111156200029757620002966200083d565b5b0217905550505050505050506200096b565b60008383834630604051602001620002c6959493929190620008a9565b6040516020818303038152906040528051906020012090509392505050565b600033905090565b6000600760019054906101000a900473ffffffffffffffffffffffffffffffffffffffff16905081600760016101000a81548173ffffffffffffffffffffffffffffffffffffffff021916908373ffffffffffffffffffffffffffffffffffffffff1602179055508173ffffffffffffffffffffffffffffffffffffffff168173ffffffffffffffffffffffffffffffffffffffff167f8be0079c531659141344cd1fd0a4f28419497f9722a3daafe3b4186f6b6457e060405160405180910390a35050565b828054620003c19062000935565b90600052602060002090601f016020900481019282620003e5576000855562000431565b82601f106200040057805160ff191683800117855562000431565b8280016001018555821562000431579182015b828111156200043057825182559160200191906001019062000413565b5b50905062000440919062000444565b5090565b5b808211156200045f57600081600090555060010162000445565b5090565b6000604051905090565b600080fd5b600080fd5b600080fd5b600080fd5b6000601f19601f8301169050919050565b7f4e487b7100000000000000000000000000000000000000000000000000000000600052604160045260246000fd5b620004cc8262000481565b810181811067ffffffffffffffff82111715620004ee57620004ed62000492565b5b80604052505050565b60006200050362000463565b9050620005118282620004c1565b919050565b600067ffffffffffffffff82111562000534576200053362000492565b5b6200053f8262000481565b9050602081019050919050565b60005b838110156200056c5780820151818401526020810190506200054f565b838111156200057c576000848401525b50505050565b600062000599620005938462000516565b620004f7565b905082815260208101848484011115620005b857620005b76200047c565b5b620005c58482856200054c565b509392505050565b600082601f830112620005e557620005e462000477565b5b8151620005f784826020860162000582565b91505092915050565b600073ffffffffffffffffffffffffffffffffffffffff82169050919050565b60006200062d8262000600565b9050919050565b6200063f8162000620565b81146200064b57600080fd5b50565b6000815190506200065f8162000634565b92915050565b600061ffff82169050919050565b6200067e8162000665565b81146200068a57600080fd5b50565b6000815190506200069e8162000673565b92915050565b6000620006b18262000600565b9050919050565b620006c381620006a4565b8114620006cf57600080fd5b50565b600081519050620006e381620006b8565b92915050565b6000819050919050565b620006fe81620006e9565b81146200070a57600080fd5b50565b6000815190506200071e81620006f3565b92915050565b600281106200073257600080fd5b50565b600081519050620007468162000724565b92915050565b600080600080600080600060e0888a0312156200076e576200076d6200046d565b5b600088015167ffffffffffffffff8111156200078f576200078e62000472565b5b6200079d8a828b01620005cd565b975050602088015167ffffffffffffffff811115620007c157620007c062000472565b5b620007cf8a828b01620005cd565b9650506040620007e28a828b016200064e565b9550506060620007f58a828b016200068d565b9450506080620008088a828b01620006d2565b93505060a06200081b8a828b016200070d565b92505060c06200082e8a828b0162000735565b91505092959891949750929550565b7f4e487b7100000000000000000000000000000000000000000000000000000000600052602160045260246000fd5b6000819050919050565b62000881816200086c565b82525050565b6200089281620006e9565b82525050565b620008a38162000620565b82525050565b600060a082019050620008c0600083018862000876565b620008cf602083018762000876565b620008de604083018662000876565b620008ed606083018562000887565b620008fc608083018462000898565b9695505050505050565b7f4e487b7100000000000000000000000000000000000000000000000000000000600052602260045260246000fd5b600060028204905060018216806200094e57607f821691505b6020821081141562000965576200096462000906565b5b50919050565b60805160a05160c05160e051610100516101205161014051614e65620009cd60003960008181610faa01526117aa01526000612dd901526000612e1b01526000612dfa01526000612d2f01526000612d8501526000612dae0152614e656000f3fe6080604052600436106101e35760003560e01c80636352211e11610102578063a22cb46511610095578063d0def52111610064578063d0def5211461069d578063da965778146106da578063e985e9c5146106f6578063f2fde38b14610733576101e3565b8063a22cb465146105e3578063abc8c7af1461060c578063b88d4fde14610637578063c87b56dd14610660576101e3565b8063806ad169116100d1578063806ad1691461054b5780638456cb59146105765780638da5cb5b1461058d57806395d89b41146105b8576101e3565b80636352211e1461049157806370a08231146104ce578063715018a61461050b57806374bce0bc14610522576101e3565b80633740ebb31161017a57806342966c681161014957806342966c68146103e7578063564b81ef146104105780635c975abb1461043b5780635f48f39314610466576101e3565b80633740ebb3146103655780633ccfd60b146103905780633f4ba83a146103a757806342842e0e146103be576101e3565b8063095ea7b3116101b6578063095ea7b3146102b857806311142552146102e157806323b872dd1461031157806326232a2e1461033a576101e3565b806301ffc9a7146101e85780630505c8c91461022557806306fdde0314610250578063081812fc1461027b575b600080fd5b3480156101f457600080fd5b5061020f600480360381019061020a919061316d565b61075c565b60405161021c91906131b5565b60405180910390f35b34801561023157600080fd5b5061023a61083e565b6040516102479190613247565b60405180910390f35b34801561025c57600080fd5b50610265610851565b60405161027291906132fb565b60405180910390f35b34801561028757600080fd5b506102a2600480360381019061029d9190613353565b6108e3565b6040516102af91906133c1565b60405180910390f35b3480156102c457600080fd5b506102df60048036038101906102da9190613408565b610929565b005b6102fb60048036038101906102f6919061346c565b610a41565b60405161030891906134d7565b60405180910390f35b34801561031d57600080fd5b50610338600480360381019061033391906134f2565b610cb3565b005b34801561034657600080fd5b5061034f610d13565b60405161035c9190613562565b60405180910390f35b34801561037157600080fd5b5061037a610d27565b604051610387919061359e565b60405180910390f35b34801561039c57600080fd5b506103a5610d4d565b005b3480156103b357600080fd5b506103bc610eb5565b005b3480156103ca57600080fd5b506103e560048036038101906103e091906134f2565b610f08565b005b3480156103f357600080fd5b5061040e60048036038101906104099190613353565b610f28565b005b34801561041c57600080fd5b50610425610f84565b60405161043291906134d7565b60405180910390f35b34801561044757600080fd5b50610450610f91565b60405161045d91906131b5565b60405180910390f35b34801561047257600080fd5b5061047b610fa8565b60405161048891906134d7565b60405180910390f35b34801561049d57600080fd5b506104b860048036038101906104b39190613353565b610fcc565b6040516104c591906133c1565b60405180910390f35b3480156104da57600080fd5b506104f560048036038101906104f091906135b9565b61107e565b60405161050291906134d7565b60405180910390f35b34801561051757600080fd5b50610520611136565b005b34801561052e57600080fd5b506105496004803603810190610544919061360b565b61114a565b005b34801561055757600080fd5b5061056061117f565b60405161056d91906134d7565b60405180910390f35b34801561058257600080fd5b5061058b6111c6565b005b34801561059957600080fd5b506105a2611219565b6040516105af91906133c1565b60405180910390f35b3480156105c457600080fd5b506105cd611243565b6040516105da91906132fb565b60405180910390f35b3480156105ef57600080fd5b5061060a60048036038101906106059190613664565b6112d5565b005b34801561061857600080fd5b506106216112eb565b60405161062e91906133c1565b60405180910390f35b34801561064357600080fd5b5061065e600480360381019061065991906137d9565b611311565b005b34801561066c57600080fd5b5061068760048036038101906106829190613353565b611373565b60405161069491906132fb565b60405180910390f35b3480156106a957600080fd5b506106c460048036038101906106bf91906138bc565b611385565b6040516106d191906134d7565b60405180910390f35b6106f460048036038101906106ef91906135b9565b611419565b005b34801561070257600080fd5b5061071d6004803603810190610718919061391c565b611472565b60405161072a91906131b5565b60405180910390f35b34801561073f57600080fd5b5061075a600480360381019061075591906135b9565b6114e6565b005b60007f80ac58cd000000000000000000000000000000000000000000000000000000007bffffffffffffffffffffffffffffffffffffffffffffffffffffffff1916827bffffffffffffffffffffffffffffffffffffffffffffffffffffffff1916148061082757507f5b5e139f000000000000000000000000000000000000000000000000000000007bffffffffffffffffffffffffffffffffffffffffffffffffffffffff1916827bffffffffffffffffffffffffffffffffffffffffffffffffffffffff1916145b8061083757506108368261156a565b5b9050919050565b600960009054906101000a900460ff1681565b6060600080546108609061398b565b80601f016020809104026020016040519081016040528092919081815260200182805461088c9061398b565b80156108d95780601f106108ae576101008083540402835291602001916108d9565b820191906000526020600020905b8154815290600101906020018083116108bc57829003601f168201915b5050505050905090565b60006108ee826115d4565b6004600083815260200190815260200160002060009054906101000a900473ffffffffffffffffffffffffffffffffffffffff169050919050565b600061093482610fcc565b90508073ffffffffffffffffffffffffffffffffffffffff168373ffffffffffffffffffffffffffffffffffffffff1614156109a5576040517f08c379a000000000000000000000000000000000000000000000000000000000815260040161099c90613a2f565b60405180910390fd5b8073ffffffffffffffffffffffffffffffffffffffff166109c461161f565b73ffffffffffffffffffffffffffffffffffffffff1614806109f357506109f2816109ed61161f565b611472565b5b610a32576040517f08c379a0000000000000000000000000000000000000000000000000000000008152600401610a2990613ac1565b60405180910390fd5b610a3c8383611627565b505050565b6000610a4b6116e0565b6000610a568361172a565b9050826000016020810190610a6b91906135b9565b73ffffffffffffffffffffffffffffffffffffffff168173ffffffffffffffffffffffffffffffffffffffff1614610ad8576040517f08c379a0000000000000000000000000000000000000000000000000000000008152600401610acf90613b2d565b60405180910390fd5b8260200135341015610b1f576040517f08c379a0000000000000000000000000000000000000000000000000000000008152600401610b1690613b99565b60405180910390fd5b6000610b4c846000016020810190610b3791906135b9565b858060400190610b479190613bc8565b61179c565b9050610b6b846000016020810190610b6491906135b9565b8683611884565b6000610b75611aeb565b90508034610b839190613c5a565b600b60008573ffffffffffffffffffffffffffffffffffffffff1673ffffffffffffffffffffffffffffffffffffffff1681526020019081526020016000206000828254610bd19190613c8e565b925050819055506000600a60009054906101000a900473ffffffffffffffffffffffffffffffffffffffff1673ffffffffffffffffffffffffffffffffffffffff1682604051610c2090613d15565b60006040518083038185875af1925050503d8060008114610c5d576040519150601f19603f3d011682016040523d82523d6000602084013e610c62565b606091505b5050905080610ca6576040517f08c379a0000000000000000000000000000000000000000000000000000000008152600401610c9d90613d76565b60405180910390fd5b8294505050505092915050565b610cc4610cbe61161f565b82611b1f565b610d03576040517f08c379a0000000000000000000000000000000000000000000000000000000008152600401610cfa90613e08565b60405180910390fd5b610d0e838383611884565b505050565b600960159054906101000a900461ffff1681565b600a60009054906101000a900473ffffffffffffffffffffffffffffffffffffffff1681565b610d556116e0565b6000600b60003373ffffffffffffffffffffffffffffffffffffffff1673ffffffffffffffffffffffffffffffffffffffff1681526020019081526020016000205490506000811415610ddd576040517f08c379a0000000000000000000000000000000000000000000000000000000008152600401610dd490613e74565b60405180910390fd5b80471015610e20576040517f08c379a0000000000000000000000000000000000000000000000000000000008152600401610e1790613ee0565b60405180910390fd5b60003390506000600b60003373ffffffffffffffffffffffffffffffffffffffff1673ffffffffffffffffffffffffffffffffffffffff168152602001908152602001600020819055508073ffffffffffffffffffffffffffffffffffffffff166108fc839081150290604051600060405180830381858888f19350505050158015610eb0573d6000803e3d6000fd5b505050565b610ebf3333611472565b610efe576040517f08c379a0000000000000000000000000000000000000000000000000000000008152600401610ef590613f4c565b60405180910390fd5b610f06611ba3565b565b610f2383838360405180602001604052806000815250611311565b505050565b610f39610f3361161f565b82611b1f565b610f78576040517f08c379a0000000000000000000000000000000000000000000000000000000008152600401610f6f90613e08565b60405180910390fd5b610f8181611c06565b50565b6000804690508091505090565b6000600760009054906101000a900460ff16905090565b7f000000000000000000000000000000000000000000000000000000000000000081565b6000806002600084815260200190815260200160002060009054906101000a900473ffffffffffffffffffffffffffffffffffffffff169050600073ffffffffffffffffffffffffffffffffffffffff168173ffffffffffffffffffffffffffffffffffffffff161415611075576040517f08c379a000000000000000000000000000000000000000000000000000000000815260040161106c90613fb8565b60405180910390fd5b80915050919050565b60008073ffffffffffffffffffffffffffffffffffffffff168273ffffffffffffffffffffffffffffffffffffffff1614156110ef576040517f08c379a00000000000000000000000000000000000000000000000000000000081526004016110e69061404a565b60405180910390fd5b600360008373ffffffffffffffffffffffffffffffffffffffff1673ffffffffffffffffffffffffffffffffffffffff168152602001908152602001600020549050919050565b61113e611c12565b6111486000611c90565b565b611152611c12565b80600960006101000a81548160ff02191690836001811115611177576111766131d0565b5b021790555050565b6000600b60003373ffffffffffffffffffffffffffffffffffffffff1673ffffffffffffffffffffffffffffffffffffffff16815260200190815260200160002054905090565b6111d03333611472565b61120f576040517f08c379a000000000000000000000000000000000000000000000000000000000815260040161120690613f4c565b60405180910390fd5b611217611d56565b565b6000600760019054906101000a900473ffffffffffffffffffffffffffffffffffffffff16905090565b6060600180546112529061398b565b80601f016020809104026020016040519081016040528092919081815260200182805461127e9061398b565b80156112cb5780601f106112a0576101008083540402835291602001916112cb565b820191906000526020600020905b8154815290600101906020018083116112ae57829003601f168201915b5050505050905090565b6112e76112e061161f565b8383611db9565b5050565b600960019054906101000a900473ffffffffffffffffffffffffffffffffffffffff1681565b61132261131c61161f565b83611b1f565b611361576040517f08c379a000000000000000000000000000000000000000000000000000000000815260040161135890613e08565b60405180910390fd5b61136d84848484611f26565b50505050565b606061137e82611f82565b9050919050565b600061138f6116e0565b600060018111156113a3576113a26131d0565b5b600960009054906101000a900460ff1660018111156113c5576113c46131d0565b5b14611405576040517f08c379a00000000000000000000000000000000000000000000000000000000081526004016113fc906140b6565b60405180910390fd5b61141084848461179c565b90509392505050565b34600b60008373ffffffffffffffffffffffffffffffffffffffff1673ffffffffffffffffffffffffffffffffffffffff16815260200190815260200160002060008282546114689190613c8e565b9250508190555050565b60008173ffffffffffffffffffffffffffffffffffffffff16600960019054906101000a900473ffffffffffffffffffffffffffffffffffffffff1673ffffffffffffffffffffffffffffffffffffffff1614156114d357600190506114e0565b6114dd8383612095565b90505b92915050565b6114ee611c12565b600073ffffffffffffffffffffffffffffffffffffffff168173ffffffffffffffffffffffffffffffffffffffff16141561155e576040517f08c379a000000000000000000000000000000000000000000000000000000000815260040161155590614148565b60405180910390fd5b61156781611c90565b50565b60007f01ffc9a7000000000000000000000000000000000000000000000000000000007bffffffffffffffffffffffffffffffffffffffffffffffffffffffff1916827bffffffffffffffffffffffffffffffffffffffffffffffffffffffff1916149050919050565b6115dd81612129565b61161c576040517f08c379a000000000000000000000000000000000000000000000000000000000815260040161161390613fb8565b60405180910390fd5b50565b600033905090565b816004600083815260200190815260200160002060006101000a81548173ffffffffffffffffffffffffffffffffffffffff021916908373ffffffffffffffffffffffffffffffffffffffff160217905550808273ffffffffffffffffffffffffffffffffffffffff1661169a83610fcc565b73ffffffffffffffffffffffffffffffffffffffff167f8c5be1e5ebec7d5bd14f71427d1e84f3dd0314c0f7b2291e5b200ac8c7c3b92560405160405180910390a45050565b6116e8610f91565b15611728576040517f08c379a000000000000000000000000000000000000000000000000000000000815260040161171f906141b4565b60405180910390fd5b565b60008061173683612195565b90506117948184806060019061174c91906141d4565b8080601f016020809104026020016040519081016040528093929190818152602001838380828437600081840152601f19601f8201169050808301925050505050505061222e565b915050919050565b60006117a86008612255565b7f000000000000000000000000000000000000000000000000000000000000000011611809576040517f08c379a000000000000000000000000000000000000000000000000000000000815260040161180090614283565b60405180910390fd5b6118136008612263565b600061181f6008612255565b905061182b8582612279565b6118798185858080601f016020809104026020016040519081016040528093929190818152602001838380828437600081840152601f19601f82011690508083019250505050505050612453565b809150509392505050565b8273ffffffffffffffffffffffffffffffffffffffff166118a482610fcc565b73ffffffffffffffffffffffffffffffffffffffff16146118fa576040517f08c379a00000000000000000000000000000000000000000000000000000000081526004016118f190614315565b60405180910390fd5b600073ffffffffffffffffffffffffffffffffffffffff168273ffffffffffffffffffffffffffffffffffffffff16141561196a576040517f08c379a0000000000000000000000000000000000000000000000000000000008152600401611961906143a7565b60405180910390fd5b6119758383836124c7565b611980600082611627565b6001600360008573ffffffffffffffffffffffffffffffffffffffff1673ffffffffffffffffffffffffffffffffffffffff16815260200190815260200160002060008282546119d09190613c5a565b925050819055506001600360008473ffffffffffffffffffffffffffffffffffffffff1673ffffffffffffffffffffffffffffffffffffffff1681526020019081526020016000206000828254611a279190613c8e565b92505081905550816002600083815260200190815260200160002060006101000a81548173ffffffffffffffffffffffffffffffffffffffff021916908373ffffffffffffffffffffffffffffffffffffffff160217905550808273ffffffffffffffffffffffffffffffffffffffff168473ffffffffffffffffffffffffffffffffffffffff167fddf252ad1be2c89b69c2b068fc378daa952ba7f163c4a11628f55a4df523b3ef60405160405180910390a4611ae68383836124cc565b505050565b6000612710600960159054906101000a900461ffff1661ffff1634611b1091906143c7565b611b1a9190614450565b905090565b6000611b2a82612129565b611b69576040517f08c379a0000000000000000000000000000000000000000000000000000000008152600401611b60906144f3565b60405180910390fd5b6000611b7483610fcc565b9050611b808185611472565b15611b8f576001915050611b9d565b611b9984846124d1565b9150505b92915050565b611bab612566565b6000600760006101000a81548160ff0219169083151502179055507f5db9ee0a495bf2e6ff9c91a7834c1ba4fdd244a5e8aa4e537bd38aeae4b073aa611bef61161f565b604051611bfc91906133c1565b60405180910390a1565b611c0f816125af565b50565b611c1a61161f565b73ffffffffffffffffffffffffffffffffffffffff16611c38611219565b73ffffffffffffffffffffffffffffffffffffffff1614611c8e576040517f08c379a0000000000000000000000000000000000000000000000000000000008152600401611c859061455f565b60405180910390fd5b565b6000600760019054906101000a900473ffffffffffffffffffffffffffffffffffffffff16905081600760016101000a81548173ffffffffffffffffffffffffffffffffffffffff021916908373ffffffffffffffffffffffffffffffffffffffff1602179055508173ffffffffffffffffffffffffffffffffffffffff168173ffffffffffffffffffffffffffffffffffffffff167f8be0079c531659141344cd1fd0a4f28419497f9722a3daafe3b4186f6b6457e060405160405180910390a35050565b611d5e6116e0565b6001600760006101000a81548160ff0219169083151502179055507f62e78cea01bee320cd4e420270b5ea74000d11b0c9f74754ebdbfc544b05a258611da261161f565b604051611daf91906133c1565b60405180910390a1565b8173ffffffffffffffffffffffffffffffffffffffff168373ffffffffffffffffffffffffffffffffffffffff161415611e28576040517f08c379a0000000000000000000000000000000000000000000000000000000008152600401611e1f906145cb565b60405180910390fd5b80600560008573ffffffffffffffffffffffffffffffffffffffff1673ffffffffffffffffffffffffffffffffffffffff16815260200190815260200160002060008473ffffffffffffffffffffffffffffffffffffffff1673ffffffffffffffffffffffffffffffffffffffff16815260200190815260200160002060006101000a81548160ff0219169083151502179055508173ffffffffffffffffffffffffffffffffffffffff168373ffffffffffffffffffffffffffffffffffffffff167f17307eab39ab6107e8899845ad3d59bd9653f200f220920489ca2b5937696c3183604051611f1991906131b5565b60405180910390a3505050565b611f31848484611884565b611f3d84848484612602565b611f7c576040517f08c379a0000000000000000000000000000000000000000000000000000000008152600401611f739061465d565b60405180910390fd5b50505050565b6060611f8d826115d4565b6000600660008481526020019081526020016000208054611fad9061398b565b80601f0160208091040260200160405190810160405280929190818152602001828054611fd99061398b565b80156120265780601f10611ffb57610100808354040283529160200191612026565b820191906000526020600020905b81548152906001019060200180831161200957829003601f168201915b505050505090506000612037612799565b905060008151141561204d578192505050612090565b60008251111561208257808260405160200161206a9291906146b9565b60405160208183030381529060405292505050612090565b61208b846127b0565b925050505b919050565b6000600560008473ffffffffffffffffffffffffffffffffffffffff1673ffffffffffffffffffffffffffffffffffffffff16815260200190815260200160002060008373ffffffffffffffffffffffffffffffffffffffff1673ffffffffffffffffffffffffffffffffffffffff16815260200190815260200160002060009054906101000a900460ff16905092915050565b60008073ffffffffffffffffffffffffffffffffffffffff166002600084815260200190815260200160002060009054906101000a900473ffffffffffffffffffffffffffffffffffffffff1673ffffffffffffffffffffffffffffffffffffffff1614159050919050565b60006122277fe2c1fe55ff75bc6c0f1e92db9b907c57038a5f95f7c137ff4bf9e10a15bc3d018360000160208101906121ce91906135b9565b84602001358580604001906121e39190613bc8565b6040516121f1929190614702565b604051809103902060405160200161220c9493929190614734565b60405160208183030381529060405280519060200120612818565b9050919050565b600080600061223d8585612832565b9150915061224a816128b5565b819250505092915050565b600081600001549050919050565b6001816000016000828254019250508190555050565b600073ffffffffffffffffffffffffffffffffffffffff168273ffffffffffffffffffffffffffffffffffffffff1614156122e9576040517f08c379a00000000000000000000000000000000000000000000000000000000081526004016122e0906147c5565b60405180910390fd5b6122f281612129565b15612332576040517f08c379a000000000000000000000000000000000000000000000000000000000815260040161232990614831565b60405180910390fd5b61233e600083836124c7565b6001600360008473ffffffffffffffffffffffffffffffffffffffff1673ffffffffffffffffffffffffffffffffffffffff168152602001908152602001600020600082825461238e9190613c8e565b92505081905550816002600083815260200190815260200160002060006101000a81548173ffffffffffffffffffffffffffffffffffffffff021916908373ffffffffffffffffffffffffffffffffffffffff160217905550808273ffffffffffffffffffffffffffffffffffffffff16600073ffffffffffffffffffffffffffffffffffffffff167fddf252ad1be2c89b69c2b068fc378daa952ba7f163c4a11628f55a4df523b3ef60405160405180910390a461244f600083836124cc565b5050565b61245c82612129565b61249b576040517f08c379a0000000000000000000000000000000000000000000000000000000008152600401612492906148c3565b60405180910390fd5b806006600084815260200190815260200160002090805190602001906124c292919061301e565b505050565b505050565b505050565b6000806124dd83610fcc565b90508073ffffffffffffffffffffffffffffffffffffffff168473ffffffffffffffffffffffffffffffffffffffff16148061251f575061251e8185611472565b5b8061255d57508373ffffffffffffffffffffffffffffffffffffffff16612545846108e3565b73ffffffffffffffffffffffffffffffffffffffff16145b91505092915050565b61256e610f91565b6125ad576040517f08c379a00000000000000000000000000000000000000000000000000000000081526004016125a49061492f565b60405180910390fd5b565b6125b881612a8a565b60006006600083815260200190815260200160002080546125d89061398b565b9050146125ff576006600082815260200190815260200160002060006125fe91906130a4565b5b50565b60006126238473ffffffffffffffffffffffffffffffffffffffff16612ba7565b1561278c578373ffffffffffffffffffffffffffffffffffffffff1663150b7a0261264c61161f565b8786866040518563ffffffff1660e01b815260040161266e94939291906149a4565b602060405180830381600087803b15801561268857600080fd5b505af19250505080156126b957506040513d601f19601f820116820180604052508101906126b69190614a05565b60015b61273c573d80600081146126e9576040519150601f19603f3d011682016040523d82523d6000602084013e6126ee565b606091505b50600081511415612734576040517f08c379a000000000000000000000000000000000000000000000000000000000815260040161272b9061465d565b60405180910390fd5b805181602001fd5b63150b7a0260e01b7bffffffffffffffffffffffffffffffffffffffffffffffffffffffff1916817bffffffffffffffffffffffffffffffffffffffffffffffffffffffff191614915050612791565b600190505b949350505050565b606060405180602001604052806000815250905090565b60606127bb826115d4565b60006127c5612799565b905060008151116127e55760405180602001604052806000815250612810565b806127ef84612bca565b6040516020016128009291906146b9565b6040516020818303038152906040525b915050919050565b600061282b612825612d2b565b83612e45565b9050919050565b6000806041835114156128745760008060006020860151925060408601519150606086015160001a905061286887828585612e78565b945094505050506128ae565b6040835114156128a557600080602085015191506040850151905061289a868383612f85565b9350935050506128ae565b60006002915091505b9250929050565b600060048111156128c9576128c86131d0565b5b8160048111156128dc576128db6131d0565b5b14156128e757612a87565b600160048111156128fb576128fa6131d0565b5b81600481111561290e5761290d6131d0565b5b141561294f576040517f08c379a000000000000000000000000000000000000000000000000000000000815260040161294690614a7e565b60405180910390fd5b60026004811115612963576129626131d0565b5b816004811115612976576129756131d0565b5b14156129b7576040517f08c379a00000000000000000000000000000000000000000000000000000000081526004016129ae90614aea565b60405180910390fd5b600360048111156129cb576129ca6131d0565b5b8160048111156129de576129dd6131d0565b5b1415612a1f576040517f08c379a0000000000000000000000000000000000000000000000000000000008152600401612a1690614b7c565b60405180910390fd5b600480811115612a3257612a316131d0565b5b816004811115612a4557612a446131d0565b5b1415612a86576040517f08c379a0000000000000000000000000000000000000000000000000000000008152600401612a7d90614c0e565b60405180910390fd5b5b50565b6000612a9582610fcc565b9050612aa3816000846124c7565b612aae600083611627565b6001600360008373ffffffffffffffffffffffffffffffffffffffff1673ffffffffffffffffffffffffffffffffffffffff1681526020019081526020016000206000828254612afe9190613c5a565b925050819055506002600083815260200190815260200160002060006101000a81549073ffffffffffffffffffffffffffffffffffffffff021916905581600073ffffffffffffffffffffffffffffffffffffffff168273ffffffffffffffffffffffffffffffffffffffff167fddf252ad1be2c89b69c2b068fc378daa952ba7f163c4a11628f55a4df523b3ef60405160405180910390a4612ba3816000846124cc565b5050565b6000808273ffffffffffffffffffffffffffffffffffffffff163b119050919050565b60606000821415612c12576040518060400160405280600181526020017f30000000000000000000000000000000000000000000000000000000000000008152509050612d26565b600082905060005b60008214612c44578080612c2d90614c2e565b915050600a82612c3d9190614450565b9150612c1a565b60008167ffffffffffffffff811115612c6057612c5f6136ae565b5b6040519080825280601f01601f191660200182016040528015612c925781602001600182028036833780820191505090505b5090505b60008514612d1f57600182612cab9190613c5a565b9150600a85612cba9190614c77565b6030612cc69190613c8e565b60f81b818381518110612cdc57612cdb614ca8565b5b60200101907effffffffffffffffffffffffffffffffffffffffffffffffffffffffffffff1916908160001a905350600a85612d189190614450565b9450612c96565b8093505050505b919050565b60007f000000000000000000000000000000000000000000000000000000000000000073ffffffffffffffffffffffffffffffffffffffff163073ffffffffffffffffffffffffffffffffffffffff16148015612da757507f000000000000000000000000000000000000000000000000000000000000000046145b15612dd4577f00000000000000000000000000000000000000000000000000000000000000009050612e42565b612e3f7f00000000000000000000000000000000000000000000000000000000000000007f00000000000000000000000000000000000000000000000000000000000000007f0000000000000000000000000000000000000000000000000000000000000000612fe4565b90505b90565b60008282604051602001612e5a929190614d44565b60405160208183030381529060405280519060200120905092915050565b6000807f7fffffffffffffffffffffffffffffff5d576e7357a4501ddfe92f46681b20a08360001c1115612eb3576000600391509150612f7c565b601b8560ff1614158015612ecb5750601c8560ff1614155b15612edd576000600491509150612f7c565b600060018787878760405160008152602001604052604051612f029493929190614d97565b6020604051602081039080840390855afa158015612f24573d6000803e3d6000fd5b505050602060405103519050600073ffffffffffffffffffffffffffffffffffffffff168173ffffffffffffffffffffffffffffffffffffffff161415612f7357600060019250925050612f7c565b80600092509250505b94509492505050565b60008060007f7fffffffffffffffffffffffffffffffffffffffffffffffffffffffffffffff60001b841690506000601b60ff8660001c901c612fc89190613c8e565b9050612fd687828885612e78565b935093505050935093915050565b60008383834630604051602001612fff959493929190614ddc565b6040516020818303038152906040528051906020012090509392505050565b82805461302a9061398b565b90600052602060002090601f01602090048101928261304c5760008555613093565b82601f1061306557805160ff1916838001178555613093565b82800160010185558215613093579182015b82811115613092578251825591602001919060010190613077565b5b5090506130a091906130e4565b5090565b5080546130b09061398b565b6000825580601f106130c257506130e1565b601f0160209004906000526020600020908101906130e091906130e4565b5b50565b5b808211156130fd5760008160009055506001016130e5565b5090565b6000604051905090565b600080fd5b600080fd5b60007fffffffff0000000000000000000000000000000000000000000000000000000082169050919050565b61314a81613115565b811461315557600080fd5b50565b60008135905061316781613141565b92915050565b6000602082840312156131835761318261310b565b5b600061319184828501613158565b91505092915050565b60008115159050919050565b6131af8161319a565b82525050565b60006020820190506131ca60008301846131a6565b92915050565b7f4e487b7100000000000000000000000000000000000000000000000000000000600052602160045260246000fd5b600281106132105761320f6131d0565b5b50565b6000819050613221826131ff565b919050565b600061323182613213565b9050919050565b61324181613226565b82525050565b600060208201905061325c6000830184613238565b92915050565b600081519050919050565b600082825260208201905092915050565b60005b8381101561329c578082015181840152602081019050613281565b838111156132ab576000848401525b50505050565b6000601f19601f8301169050919050565b60006132cd82613262565b6132d7818561326d565b93506132e781856020860161327e565b6132f0816132b1565b840191505092915050565b6000602082019050818103600083015261331581846132c2565b905092915050565b6000819050919050565b6133308161331d565b811461333b57600080fd5b50565b60008135905061334d81613327565b92915050565b6000602082840312156133695761336861310b565b5b60006133778482850161333e565b91505092915050565b600073ffffffffffffffffffffffffffffffffffffffff82169050919050565b60006133ab82613380565b9050919050565b6133bb816133a0565b82525050565b60006020820190506133d660008301846133b2565b92915050565b6133e5816133a0565b81146133f057600080fd5b50565b600081359050613402816133dc565b92915050565b6000806040838503121561341f5761341e61310b565b5b600061342d858286016133f3565b925050602061343e8582860161333e565b9150509250929050565b600080fd5b60006080828403121561346357613462613448565b5b81905092915050565b600080604083850312156134835761348261310b565b5b6000613491858286016133f3565b925050602083013567ffffffffffffffff8111156134b2576134b1613110565b5b6134be8582860161344d565b9150509250929050565b6134d18161331d565b82525050565b60006020820190506134ec60008301846134c8565b92915050565b60008060006060848603121561350b5761350a61310b565b5b6000613519868287016133f3565b935050602061352a868287016133f3565b925050604061353b8682870161333e565b9150509250925092565b600061ffff82169050919050565b61355c81613545565b82525050565b60006020820190506135776000830184613553565b92915050565b600061358882613380565b9050919050565b6135988161357d565b82525050565b60006020820190506135b3600083018461358f565b92915050565b6000602082840312156135cf576135ce61310b565b5b60006135dd848285016133f3565b91505092915050565b600281106135f357600080fd5b50565b600081359050613605816135e6565b92915050565b6000602082840312156136215761362061310b565b5b600061362f848285016135f6565b91505092915050565b6136418161319a565b811461364c57600080fd5b50565b60008135905061365e81613638565b92915050565b6000806040838503121561367b5761367a61310b565b5b6000613689858286016133f3565b925050602061369a8582860161364f565b9150509250929050565b600080fd5b600080fd5b7f4e487b7100000000000000000000000000000000000000000000000000000000600052604160045260246000fd5b6136e6826132b1565b810181811067ffffffffffffffff82111715613705576137046136ae565b5b80604052505050565b6000613718613101565b905061372482826136dd565b919050565b600067ffffffffffffffff821115613744576137436136ae565b5b61374d826132b1565b9050602081019050919050565b82818337600083830152505050565b600061377c61377784613729565b61370e565b905082815260208101848484011115613798576137976136a9565b5b6137a384828561375a565b509392505050565b600082601f8301126137c0576137bf6136a4565b5b81356137d0848260208601613769565b91505092915050565b600080600080608085870312156137f3576137f261310b565b5b6000613801878288016133f3565b9450506020613812878288016133f3565b93505060406138238782880161333e565b925050606085013567ffffffffffffffff81111561384457613843613110565b5b613850878288016137ab565b91505092959194509250565b600080fd5b600080fd5b60008083601f84011261387c5761387b6136a4565b5b8235905067ffffffffffffffff8111156138995761389861385c565b5b6020830191508360018202830111156138b5576138b4613861565b5b9250929050565b6000806000604084860312156138d5576138d461310b565b5b60006138e3868287016133f3565b935050602084013567ffffffffffffffff81111561390457613903613110565b5b61391086828701613866565b92509250509250925092565b600080604083850312156139335761393261310b565b5b6000613941858286016133f3565b9250506020613952858286016133f3565b9150509250929050565b7f4e487b7100000000000000000000000000000000000000000000000000000000600052602260045260246000fd5b600060028204905060018216806139a357607f821691505b602082108114156139b7576139b661395c565b5b50919050565b7f4552433732313a20617070726f76616c20746f2063757272656e74206f776e6560008201527f7200000000000000000000000000000000000000000000000000000000000000602082015250565b6000613a1960218361326d565b9150613a24826139bd565b604082019050919050565b60006020820190508181036000830152613a4881613a0c565b9050919050565b7f4552433732313a20617070726f76652063616c6c6572206973206e6f7420746f60008201527f6b656e206f776e6572206e6f7220617070726f76656420666f7220616c6c0000602082015250565b6000613aab603e8361326d565b9150613ab682613a4f565b604082019050919050565b60006020820190508181036000830152613ada81613a9e565b9050919050565b7f5369676e617475726520696e76616c6964000000000000000000000000000000600082015250565b6000613b1760118361326d565b9150613b2282613ae1565b602082019050919050565b60006020820190508181036000830152613b4681613b0a565b9050919050565b7f496e73756666696369656e742066756e647320746f2072656465656d00000000600082015250565b6000613b83601c8361326d565b9150613b8e82613b4d565b602082019050919050565b60006020820190508181036000830152613bb281613b76565b9050919050565b600080fd5b600080fd5b600080fd5b60008083356001602003843603038112613be557613be4613bb9565b5b80840192508235915067ffffffffffffffff821115613c0757613c06613bbe565b5b602083019250600182023603831315613c2357613c22613bc3565b5b509250929050565b7f4e487b7100000000000000000000000000000000000000000000000000000000600052601160045260246000fd5b6000613c658261331d565b9150613c708361331d565b925082821015613c8357613c82613c2b565b5b828203905092915050565b6000613c998261331d565b9150613ca48361331d565b9250827fffffffffffffffffffffffffffffffffffffffffffffffffffffffffffffffff03821115613cd957613cd8613c2b565b5b828201905092915050565b600081905092915050565b50565b6000613cff600083613ce4565b9150613d0a82613cef565b600082019050919050565b6000613d2082613cf2565b9150819050919050565b7f5472616e73666572206661696c65640000000000000000000000000000000000600082015250565b6000613d60600f8361326d565b9150613d6b82613d2a565b602082019050919050565b60006020820190508181036000830152613d8f81613d53565b9050919050565b7f4552433732313a2063616c6c6572206973206e6f7420746f6b656e206f776e6560008201527f72206e6f7220617070726f766564000000000000000000000000000000000000602082015250565b6000613df2602e8361326d565b9150613dfd82613d96565b604082019050919050565b60006020820190508181036000830152613e2181613de5565b9050919050565b7f6e6f7468696e6720746f20776974686472617700000000000000000000000000600082015250565b6000613e5e60138361326d565b9150613e6982613e28565b602082019050919050565b60006020820190508181036000830152613e8d81613e51565b9050919050565b7f62616c616e6365206e6f7420656e6f75676820746f2077697468647261770000600082015250565b6000613eca601e8361326d565b9150613ed582613e94565b602082019050919050565b60006020820190508181036000830152613ef981613ebd565b9050919050565b7f4e6f7420617574686f72697a6564000000000000000000000000000000000000600082015250565b6000613f36600e8361326d565b9150613f4182613f00565b602082019050919050565b60006020820190508181036000830152613f6581613f29565b9050919050565b7f4552433732313a20696e76616c696420746f6b656e2049440000000000000000600082015250565b6000613fa260188361326d565b9150613fad82613f6c565b602082019050919050565b60006020820190508181036000830152613fd181613f95565b9050919050565b7f4552433732313a2061646472657373207a65726f206973206e6f74206120766160008201527f6c6964206f776e65720000000000000000000000000000000000000000000000602082015250565b600061403460298361326d565b915061403f82613fd8565b604082019050919050565b6000602082019050818103600083015261406381614027565b9050919050565b7f506f6c696379206f6e6c7920616c6c6f7773206c617a79206d696e74696e6700600082015250565b60006140a0601f8361326d565b91506140ab8261406a565b602082019050919050565b600060208201905081810360008301526140cf81614093565b9050919050565b7f4f776e61626c653a206e6577206f776e657220697320746865207a65726f206160008201527f6464726573730000000000000000000000000000000000000000000000000000602082015250565b600061413260268361326d565b915061413d826140d6565b604082019050919050565b6000602082019050818103600083015261416181614125565b9050919050565b7f5061757361626c653a2070617573656400000000000000000000000000000000600082015250565b600061419e60108361326d565b91506141a982614168565b602082019050919050565b600060208201905081810360008301526141cd81614191565b9050919050565b600080833560016020038436030381126141f1576141f0613bb9565b5b80840192508235915067ffffffffffffffff82111561421357614212613bbe565b5b60208301925060018202360383131561422f5761422e613bc3565b5b509250929050565b7f4d6178696d756d206e756d626572206f66204e46547320726561636865640000600082015250565b600061426d601e8361326d565b915061427882614237565b602082019050919050565b6000602082019050818103600083015261429c81614260565b9050919050565b7f4552433732313a207472616e736665722066726f6d20696e636f72726563742060008201527f6f776e6572000000000000000000000000000000000000000000000000000000602082015250565b60006142ff60258361326d565b915061430a826142a3565b604082019050919050565b6000602082019050818103600083015261432e816142f2565b9050919050565b7f4552433732313a207472616e7366657220746f20746865207a65726f2061646460008201527f7265737300000000000000000000000000000000000000000000000000000000602082015250565b600061439160248361326d565b915061439c82614335565b604082019050919050565b600060208201905081810360008301526143c081614384565b9050919050565b60006143d28261331d565b91506143dd8361331d565b9250817fffffffffffffffffffffffffffffffffffffffffffffffffffffffffffffffff048311821515161561441657614415613c2b565b5b828202905092915050565b7f4e487b7100000000000000000000000000000000000000000000000000000000600052601260045260246000fd5b600061445b8261331d565b91506144668361331d565b92508261447657614475614421565b5b828204905092915050565b7f4552433732313a206f70657261746f7220717565727920666f72206e6f6e657860008201527f697374656e7420746f6b656e0000000000000000000000000000000000000000602082015250565b60006144dd602c8361326d565b91506144e882614481565b604082019050919050565b6000602082019050818103600083015261450c816144d0565b9050919050565b7f4f776e61626c653a2063616c6c6572206973206e6f7420746865206f776e6572600082015250565b600061454960208361326d565b915061455482614513565b602082019050919050565b600060208201905081810360008301526145788161453c565b9050919050565b7f4552433732313a20617070726f766520746f2063616c6c657200000000000000600082015250565b60006145b560198361326d565b91506145c08261457f565b602082019050919050565b600060208201905081810360008301526145e4816145a8565b9050919050565b7f4552433732313a207472616e7366657220746f206e6f6e20455243373231526560008201527f63656976657220696d706c656d656e7465720000000000000000000000000000602082015250565b600061464760328361326d565b9150614652826145eb565b604082019050919050565b600060208201905081810360008301526146768161463a565b9050919050565b600081905092915050565b600061469382613262565b61469d818561467d565b93506146ad81856020860161327e565b80840191505092915050565b60006146c58285614688565b91506146d18284614688565b91508190509392505050565b60006146e98385613ce4565b93506146f683858461375a565b82840190509392505050565b600061470f8284866146dd565b91508190509392505050565b6000819050919050565b61472e8161471b565b82525050565b60006080820190506147496000830187614725565b61475660208301866133b2565b61476360408301856134c8565b6147706060830184614725565b95945050505050565b7f4552433732313a206d696e7420746f20746865207a65726f2061646472657373600082015250565b60006147af60208361326d565b91506147ba82614779565b602082019050919050565b600060208201905081810360008301526147de816147a2565b9050919050565b7f4552433732313a20746f6b656e20616c7265616479206d696e74656400000000600082015250565b600061481b601c8361326d565b9150614826826147e5565b602082019050919050565b6000602082019050818103600083015261484a8161480e565b9050919050565b7f45524337323155524953746f726167653a2055524920736574206f66206e6f6e60008201527f6578697374656e7420746f6b656e000000000000000000000000000000000000602082015250565b60006148ad602e8361326d565b91506148b882614851565b604082019050919050565b600060208201905081810360008301526148dc816148a0565b9050919050565b7f5061757361626c653a206e6f7420706175736564000000000000000000000000600082015250565b600061491960148361326d565b9150614924826148e3565b602082019050919050565b600060208201905081810360008301526149488161490c565b9050919050565b600081519050919050565b600082825260208201905092915050565b60006149768261494f565b614980818561495a565b935061499081856020860161327e565b614999816132b1565b840191505092915050565b60006080820190506149b960008301876133b2565b6149c660208301866133b2565b6149d360408301856134c8565b81810360608301526149e5818461496b565b905095945050505050565b6000815190506149ff81613141565b92915050565b600060208284031215614a1b57614a1a61310b565b5b6000614a29848285016149f0565b91505092915050565b7f45434453413a20696e76616c6964207369676e61747572650000000000000000600082015250565b6000614a6860188361326d565b9150614a7382614a32565b602082019050919050565b60006020820190508181036000830152614a9781614a5b565b9050919050565b7f45434453413a20696e76616c6964207369676e6174757265206c656e67746800600082015250565b6000614ad4601f8361326d565b9150614adf82614a9e565b602082019050919050565b60006020820190508181036000830152614b0381614ac7565b9050919050565b7f45434453413a20696e76616c6964207369676e6174757265202773272076616c60008201527f7565000000000000000000000000000000000000000000000000000000000000602082015250565b6000614b6660228361326d565b9150614b7182614b0a565b604082019050919050565b60006020820190508181036000830152614b9581614b59565b9050919050565b7f45434453413a20696e76616c6964207369676e6174757265202776272076616c60008201527f7565000000000000000000000000000000000000000000000000000000000000602082015250565b6000614bf860228361326d565b9150614c0382614b9c565b604082019050919050565b60006020820190508181036000830152614c2781614beb565b9050919050565b6000614c398261331d565b91507fffffffffffffffffffffffffffffffffffffffffffffffffffffffffffffffff821415614c6c57614c6b613c2b565b5b600182019050919050565b6000614c828261331d565b9150614c8d8361331d565b925082614c9d57614c9c614421565b5b828206905092915050565b7f4e487b7100000000000000000000000000000000000000000000000000000000600052603260045260246000fd5b7f1901000000000000000000000000000000000000000000000000000000000000600082015250565b6000614d0d60028361467d565b9150614d1882614cd7565b600282019050919050565b6000819050919050565b614d3e614d398261471b565b614d23565b82525050565b6000614d4f82614d00565b9150614d5b8285614d2d565b602082019150614d6b8284614d2d565b6020820191508190509392505050565b600060ff82169050919050565b614d9181614d7b565b82525050565b6000608082019050614dac6000830187614725565b614db96020830186614d88565b614dc66040830185614725565b614dd36060830184614725565b95945050505050565b600060a082019050614df16000830188614725565b614dfe6020830187614725565b614e0b6040830186614725565b614e1860608301856134c8565b614e2560808301846133b2565b969550505050505056fea26469706673582212203ab7625f079e833711eee4f83a2647e70571f0ecb174f81e9983a0bc2a5e51af64736f6c63430008090033",
  "linkReferences": {},
  "deployedLinkReferences": {}
}