{
  "_format": "hh-sol-artifact-1",
  "contractName": "ArtongNFT",
  "sourceName": "contracts/ArtongNFT.sol",
  "abi": [
    {
      "inputs": [
        {
          "internalType": "string",
          "name": "_name",
          "type": "string"
        },
        {
          "internalType": "string",
          "name": "_symbol",
          "type": "string"
        },
        {
          "internalType": "address",
          "name": "_marketplace",
          "type": "address"
        },
        {
          "internalType": "uint256",
          "name": "_maxAmount",
          "type": "uint256"
        },
        {
          "internalType": "enum ArtongNFT.Policy",
          "name": "_policy",
          "type": "uint8"
        }
      ],
      "stateMutability": "nonpayable",
      "type": "constructor"
    },
    {
      "anonymous": false,
      "inputs": [
        {
          "indexed": true,
          "internalType": "address",
          "name": "owner",
          "type": "address"
        },
        {
          "indexed": true,
          "internalType": "address",
          "name": "approved",
          "type": "address"
        },
        {
          "indexed": true,
          "internalType": "uint256",
          "name": "tokenId",
          "type": "uint256"
        }
      ],
      "name": "Approval",
      "type": "event"
    },
    {
      "anonymous": false,
      "inputs": [
        {
          "indexed": true,
          "internalType": "address",
          "name": "owner",
          "type": "address"
        },
        {
          "indexed": true,
          "internalType": "address",
          "name": "operator",
          "type": "address"
        },
        {
          "indexed": false,
          "internalType": "bool",
          "name": "approved",
          "type": "bool"
        }
      ],
      "name": "ApprovalForAll",
      "type": "event"
    },
    {
      "anonymous": false,
      "inputs": [
        {
          "indexed": true,
          "internalType": "address",
          "name": "previousOwner",
          "type": "address"
        },
        {
          "indexed": true,
          "internalType": "address",
          "name": "newOwner",
          "type": "address"
        }
      ],
      "name": "OwnershipTransferred",
      "type": "event"
    },
    {
      "anonymous": false,
      "inputs": [
        {
          "indexed": true,
          "internalType": "address",
          "name": "from",
          "type": "address"
        },
        {
          "indexed": true,
          "internalType": "address",
          "name": "to",
          "type": "address"
        },
        {
          "indexed": true,
          "internalType": "uint256",
          "name": "tokenId",
          "type": "uint256"
        }
      ],
      "name": "Transfer",
      "type": "event"
    },
    {
      "inputs": [
        {
          "internalType": "address",
          "name": "to",
          "type": "address"
        },
        {
          "internalType": "uint256",
          "name": "tokenId",
          "type": "uint256"
        }
      ],
      "name": "approve",
      "outputs": [],
      "stateMutability": "nonpayable",
      "type": "function"
    },
    {
      "inputs": [],
      "name": "availableToWithdraw",
      "outputs": [
        {
          "internalType": "uint256",
          "name": "",
          "type": "uint256"
        }
      ],
      "stateMutability": "view",
      "type": "function"
    },
    {
      "inputs": [
        {
          "internalType": "address",
          "name": "owner",
          "type": "address"
        }
      ],
      "name": "balanceOf",
      "outputs": [
        {
          "internalType": "uint256",
          "name": "",
          "type": "uint256"
        }
      ],
      "stateMutability": "view",
      "type": "function"
    },
    {
      "inputs": [
        {
          "internalType": "uint256",
          "name": "tokenId",
          "type": "uint256"
        }
      ],
      "name": "getApproved",
      "outputs": [
        {
          "internalType": "address",
          "name": "",
          "type": "address"
        }
      ],
      "stateMutability": "view",
      "type": "function"
    },
    {
      "inputs": [
        {
          "internalType": "address",
          "name": "owner",
          "type": "address"
        },
        {
          "internalType": "address",
          "name": "operator",
          "type": "address"
        }
      ],
      "name": "isApprovedForAll",
      "outputs": [
        {
          "internalType": "bool",
          "name": "",
          "type": "bool"
        }
      ],
      "stateMutability": "view",
      "type": "function"
    },
    {
      "inputs": [],
      "name": "marketplace",
      "outputs": [
        {
          "internalType": "address",
          "name": "",
          "type": "address"
        }
      ],
      "stateMutability": "view",
      "type": "function"
    },
    {
      "inputs": [
        {
          "internalType": "address",
          "name": "_to",
          "type": "address"
        },
        {
          "internalType": "string",
          "name": "_tokenUri",
          "type": "string"
        }
      ],
      "name": "mint",
      "outputs": [
        {
          "internalType": "uint256",
          "name": "",
          "type": "uint256"
        }
      ],
      "stateMutability": "nonpayable",
      "type": "function"
    },
    {
      "inputs": [],
      "name": "name",
      "outputs": [
        {
          "internalType": "string",
          "name": "",
          "type": "string"
        }
      ],
      "stateMutability": "view",
      "type": "function"
    },
    {
      "inputs": [],
      "name": "owner",
      "outputs": [
        {
          "internalType": "address",
          "name": "",
          "type": "address"
        }
      ],
      "stateMutability": "view",
      "type": "function"
    },
    {
      "inputs": [
        {
          "internalType": "uint256",
          "name": "tokenId",
          "type": "uint256"
        }
      ],
      "name": "ownerOf",
      "outputs": [
        {
          "internalType": "address",
          "name": "",
          "type": "address"
        }
      ],
      "stateMutability": "view",
      "type": "function"
    },
    {
      "inputs": [
        {
          "internalType": "address",
          "name": "redeemer",
          "type": "address"
        },
        {
          "components": [
            {
              "internalType": "address",
              "name": "creator",
              "type": "address"
            },
            {
              "internalType": "uint256",
              "name": "minPrice",
              "type": "uint256"
            },
            {
              "internalType": "string",
              "name": "uri",
              "type": "string"
            },
            {
              "internalType": "bytes",
              "name": "signature",
              "type": "bytes"
            }
          ],
          "internalType": "struct ArtongNFT.NFTVoucher",
          "name": "voucher",
          "type": "tuple"
        }
      ],
      "name": "redeem",
      "outputs": [
        {
          "internalType": "uint256",
          "name": "",
          "type": "uint256"
        }
      ],
      "stateMutability": "payable",
      "type": "function"
    },
    {
      "inputs": [],
      "name": "renounceOwnership",
      "outputs": [],
      "stateMutability": "nonpayable",
      "type": "function"
    },
    {
      "inputs": [
        {
          "internalType": "address",
          "name": "from",
          "type": "address"
        },
        {
          "internalType": "address",
          "name": "to",
          "type": "address"
        },
        {
          "internalType": "uint256",
          "name": "tokenId",
          "type": "uint256"
        }
      ],
      "name": "safeTransferFrom",
      "outputs": [],
      "stateMutability": "nonpayable",
      "type": "function"
    },
    {
      "inputs": [
        {
          "internalType": "address",
          "name": "from",
          "type": "address"
        },
        {
          "internalType": "address",
          "name": "to",
          "type": "address"
        },
        {
          "internalType": "uint256",
          "name": "tokenId",
          "type": "uint256"
        },
        {
          "internalType": "bytes",
          "name": "data",
          "type": "bytes"
        }
      ],
      "name": "safeTransferFrom",
      "outputs": [],
      "stateMutability": "nonpayable",
      "type": "function"
    },
    {
      "inputs": [
        {
          "internalType": "address",
          "name": "operator",
          "type": "address"
        },
        {
          "internalType": "bool",
          "name": "approved",
          "type": "bool"
        }
      ],
      "name": "setApprovalForAll",
      "outputs": [],
      "stateMutability": "nonpayable",
      "type": "function"
    },
    {
      "inputs": [
        {
          "internalType": "bytes4",
          "name": "interfaceId",
          "type": "bytes4"
        }
      ],
      "name": "supportsInterface",
      "outputs": [
        {
          "internalType": "bool",
          "name": "",
          "type": "bool"
        }
      ],
      "stateMutability": "view",
      "type": "function"
    },
    {
      "inputs": [],
      "name": "symbol",
      "outputs": [
        {
          "internalType": "string",
          "name": "",
          "type": "string"
        }
      ],
      "stateMutability": "view",
      "type": "function"
    },
    {
      "inputs": [
        {
          "internalType": "uint256",
          "name": "tokenId",
          "type": "uint256"
        }
      ],
      "name": "tokenURI",
      "outputs": [
        {
          "internalType": "string",
          "name": "",
          "type": "string"
        }
      ],
      "stateMutability": "view",
      "type": "function"
    },
    {
      "inputs": [
        {
          "internalType": "address",
          "name": "from",
          "type": "address"
        },
        {
          "internalType": "address",
          "name": "to",
          "type": "address"
        },
        {
          "internalType": "uint256",
          "name": "tokenId",
          "type": "uint256"
        }
      ],
      "name": "transferFrom",
      "outputs": [],
      "stateMutability": "nonpayable",
      "type": "function"
    },
    {
      "inputs": [
        {
          "internalType": "address",
          "name": "newOwner",
          "type": "address"
        }
      ],
      "name": "transferOwnership",
      "outputs": [],
      "stateMutability": "nonpayable",
      "type": "function"
    },
    {
      "inputs": [],
      "name": "withdraw",
      "outputs": [],
      "stateMutability": "nonpayable",
      "type": "function"
    }
  ],
  "bytecode": "0x6101406040523480156200001257600080fd5b50604051620046123803806200461283398181016040528101906200003891906200064b565b6040518060400160405280601181526020017f4172746f6e674e46542d566f75636865720000000000000000000000000000008152506040518060400160405280600181526020017f310000000000000000000000000000000000000000000000000000000000000081525086868160009080519060200190620000be92919062000336565b508060019080519060200190620000d792919062000336565b50505060008280519060200120905060008280519060200120905060007f8b73c3c69bb8fe3d512ecc4cf759cc79239f7b179b0ffacaa9a75d522b39400f90508260e081815250508161010081815250504660a08181525050620001438184846200022c60201b60201c565b608081815250503073ffffffffffffffffffffffffffffffffffffffff1660c08173ffffffffffffffffffffffffffffffffffffffff16815250508061012081815250505050505050620001ac620001a06200026860201b60201c565b6200027060201b60201c565b82600a60016101000a81548173ffffffffffffffffffffffffffffffffffffffff021916908373ffffffffffffffffffffffffffffffffffffffff1602179055508160098190555080600a60006101000a81548160ff021916908360018111156200021c576200021b62000711565b5b021790555050505050506200083f565b60008383834630604051602001620002499594939291906200077d565b6040516020818303038152906040528051906020012090509392505050565b600033905090565b6000600760009054906101000a900473ffffffffffffffffffffffffffffffffffffffff16905081600760006101000a81548173ffffffffffffffffffffffffffffffffffffffff021916908373ffffffffffffffffffffffffffffffffffffffff1602179055508173ffffffffffffffffffffffffffffffffffffffff168173ffffffffffffffffffffffffffffffffffffffff167f8be0079c531659141344cd1fd0a4f28419497f9722a3daafe3b4186f6b6457e060405160405180910390a35050565b828054620003449062000809565b90600052602060002090601f016020900481019282620003685760008555620003b4565b82601f106200038357805160ff1916838001178555620003b4565b82800160010185558215620003b4579182015b82811115620003b357825182559160200191906001019062000396565b5b509050620003c39190620003c7565b5090565b5b80821115620003e2576000816000905550600101620003c8565b5090565b6000604051905090565b600080fd5b600080fd5b600080fd5b600080fd5b6000601f19601f8301169050919050565b7f4e487b7100000000000000000000000000000000000000000000000000000000600052604160045260246000fd5b6200044f8262000404565b810181811067ffffffffffffffff8211171562000471576200047062000415565b5b80604052505050565b600062000486620003e6565b905062000494828262000444565b919050565b600067ffffffffffffffff821115620004b757620004b662000415565b5b620004c28262000404565b9050602081019050919050565b60005b83811015620004ef578082015181840152602081019050620004d2565b83811115620004ff576000848401525b50505050565b60006200051c620005168462000499565b6200047a565b9050828152602081018484840111156200053b576200053a620003ff565b5b62000548848285620004cf565b509392505050565b600082601f830112620005685762000567620003fa565b5b81516200057a84826020860162000505565b91505092915050565b600073ffffffffffffffffffffffffffffffffffffffff82169050919050565b6000620005b08262000583565b9050919050565b620005c281620005a3565b8114620005ce57600080fd5b50565b600081519050620005e281620005b7565b92915050565b6000819050919050565b620005fd81620005e8565b81146200060957600080fd5b50565b6000815190506200061d81620005f2565b92915050565b600281106200063157600080fd5b50565b600081519050620006458162000623565b92915050565b600080600080600060a086880312156200066a5762000669620003f0565b5b600086015167ffffffffffffffff8111156200068b576200068a620003f5565b5b620006998882890162000550565b955050602086015167ffffffffffffffff811115620006bd57620006bc620003f5565b5b620006cb8882890162000550565b9450506040620006de88828901620005d1565b9350506060620006f1888289016200060c565b9250506080620007048882890162000634565b9150509295509295909350565b7f4e487b7100000000000000000000000000000000000000000000000000000000600052602160045260246000fd5b6000819050919050565b620007558162000740565b82525050565b6200076681620005e8565b82525050565b6200077781620005a3565b82525050565b600060a0820190506200079460008301886200074a565b620007a360208301876200074a565b620007b260408301866200074a565b620007c160608301856200075b565b620007d060808301846200076c565b9695505050505050565b7f4e487b7100000000000000000000000000000000000000000000000000000000600052602260045260246000fd5b600060028204905060018216806200082257607f821691505b60208210811415620008395762000838620007da565b5b50919050565b60805160a05160c05160e0516101005161012051613d836200088f60003960006122e701526000612329015260006123080152600061223d01526000612293015260006122bc0152613d836000f3fe60806040526004361061012a5760003560e01c8063715018a6116100ab578063b88d4fde1161006f578063b88d4fde146103d1578063c87b56dd146103fa578063d0def52114610437578063e322ad2b14610474578063e985e9c51461049f578063f2fde38b146104dc5761012a565b8063715018a6146103105780638da5cb5b1461032757806395d89b4114610352578063a22cb4651461037d578063abc8c7af146103a65761012a565b806323b872dd116100f257806323b872dd1461022d5780633ccfd60b1461025657806342842e0e1461026d5780636352211e1461029657806370a08231146102d35761012a565b806301ffc9a71461012f57806306fdde031461016c578063081812fc14610197578063095ea7b3146101d457806311142552146101fd575b600080fd5b34801561013b57600080fd5b506101566004803603810190610151919061263b565b610505565b6040516101639190612683565b60405180910390f35b34801561017857600080fd5b506101816105e7565b60405161018e9190612737565b60405180910390f35b3480156101a357600080fd5b506101be60048036038101906101b9919061278f565b610679565b6040516101cb91906127fd565b60405180910390f35b3480156101e057600080fd5b506101fb60048036038101906101f69190612844565b6106bf565b005b610217600480360381019061021291906128a8565b6107d7565b6040516102249190612913565b60405180910390f35b34801561023957600080fd5b50610254600480360381019061024f919061292e565b610959565b005b34801561026257600080fd5b5061026b6109b9565b005b34801561027957600080fd5b50610294600480360381019061028f919061292e565b610aad565b005b3480156102a257600080fd5b506102bd60048036038101906102b8919061278f565b610acd565b6040516102ca91906127fd565b60405180910390f35b3480156102df57600080fd5b506102fa60048036038101906102f59190612981565b610b7f565b6040516103079190612913565b60405180910390f35b34801561031c57600080fd5b50610325610c37565b005b34801561033357600080fd5b5061033c610c4b565b60405161034991906127fd565b60405180910390f35b34801561035e57600080fd5b50610367610c75565b6040516103749190612737565b60405180910390f35b34801561038957600080fd5b506103a4600480360381019061039f91906129da565b610d07565b005b3480156103b257600080fd5b506103bb610d1d565b6040516103c891906127fd565b60405180910390f35b3480156103dd57600080fd5b506103f860048036038101906103f39190612b4f565b610d43565b005b34801561040657600080fd5b50610421600480360381019061041c919061278f565b610da5565b60405161042e9190612737565b60405180910390f35b34801561044357600080fd5b5061045e60048036038101906104599190612c32565b610eb8565b60405161046b9190612913565b60405180910390f35b34801561048057600080fd5b50610489610f35565b6040516104969190612913565b60405180910390f35b3480156104ab57600080fd5b506104c660048036038101906104c19190612c92565b610f7c565b6040516104d39190612683565b60405180910390f35b3480156104e857600080fd5b5061050360048036038101906104fe9190612981565b611010565b005b60007f80ac58cd000000000000000000000000000000000000000000000000000000007bffffffffffffffffffffffffffffffffffffffffffffffffffffffff1916827bffffffffffffffffffffffffffffffffffffffffffffffffffffffff191614806105d057507f5b5e139f000000000000000000000000000000000000000000000000000000007bffffffffffffffffffffffffffffffffffffffffffffffffffffffff1916827bffffffffffffffffffffffffffffffffffffffffffffffffffffffff1916145b806105e057506105df82611094565b5b9050919050565b6060600080546105f690612d01565b80601f016020809104026020016040519081016040528092919081815260200182805461062290612d01565b801561066f5780601f106106445761010080835404028352916020019161066f565b820191906000526020600020905b81548152906001019060200180831161065257829003601f168201915b5050505050905090565b6000610684826110fe565b6004600083815260200190815260200160002060009054906101000a900473ffffffffffffffffffffffffffffffffffffffff169050919050565b60006106ca82610acd565b90508073ffffffffffffffffffffffffffffffffffffffff168373ffffffffffffffffffffffffffffffffffffffff16141561073b576040517f08c379a000000000000000000000000000000000000000000000000000000000815260040161073290612da5565b60405180910390fd5b8073ffffffffffffffffffffffffffffffffffffffff1661075a611149565b73ffffffffffffffffffffffffffffffffffffffff161480610789575061078881610783611149565b610f7c565b5b6107c8576040517f08c379a00000000000000000000000000000000000000000000000000000000081526004016107bf90612e37565b60405180910390fd5b6107d28383611151565b505050565b6000806107e38361120a565b90508260000160208101906107f89190612981565b73ffffffffffffffffffffffffffffffffffffffff168173ffffffffffffffffffffffffffffffffffffffff1614610865576040517f08c379a000000000000000000000000000000000000000000000000000000000815260040161085c90612ea3565b60405180910390fd5b82602001353410156108ac576040517f08c379a00000000000000000000000000000000000000000000000000000000081526004016108a390612f0f565b60405180910390fd5b60006108d98460000160208101906108c49190612981565b8580604001906108d49190612f3e565b610eb8565b90506108f88460000160208101906108f19190612981565b868361127c565b34600b60008473ffffffffffffffffffffffffffffffffffffffff1673ffffffffffffffffffffffffffffffffffffffff16815260200190815260200160002060008282546109479190612fd0565b92505081905550809250505092915050565b61096a610964611149565b826114e3565b6109a9576040517f08c379a00000000000000000000000000000000000000000000000000000000081526004016109a090613098565b60405180910390fd5b6109b483838361127c565b505050565b6000600b60003373ffffffffffffffffffffffffffffffffffffffff1673ffffffffffffffffffffffffffffffffffffffff1681526020019081526020016000205490506000811415610a0b57600080fd5b80471015610a1857600080fd5b60003390506000600b60003373ffffffffffffffffffffffffffffffffffffffff1673ffffffffffffffffffffffffffffffffffffffff168152602001908152602001600020819055508073ffffffffffffffffffffffffffffffffffffffff166108fc839081150290604051600060405180830381858888f19350505050158015610aa8573d6000803e3d6000fd5b505050565b610ac883838360405180602001604052806000815250610d43565b505050565b6000806002600084815260200190815260200160002060009054906101000a900473ffffffffffffffffffffffffffffffffffffffff169050600073ffffffffffffffffffffffffffffffffffffffff168173ffffffffffffffffffffffffffffffffffffffff161415610b76576040517f08c379a0000000000000000000000000000000000000000000000000000000008152600401610b6d90613104565b60405180910390fd5b80915050919050565b60008073ffffffffffffffffffffffffffffffffffffffff168273ffffffffffffffffffffffffffffffffffffffff161415610bf0576040517f08c379a0000000000000000000000000000000000000000000000000000000008152600401610be790613196565b60405180910390fd5b600360008373ffffffffffffffffffffffffffffffffffffffff1673ffffffffffffffffffffffffffffffffffffffff168152602001908152602001600020549050919050565b610c3f611578565b610c4960006115f6565b565b6000600760009054906101000a900473ffffffffffffffffffffffffffffffffffffffff16905090565b606060018054610c8490612d01565b80601f0160208091040260200160405190810160405280929190818152602001828054610cb090612d01565b8015610cfd5780601f10610cd257610100808354040283529160200191610cfd565b820191906000526020600020905b815481529060010190602001808311610ce057829003601f168201915b5050505050905090565b610d19610d12611149565b83836116bc565b5050565b600a60019054906101000a900473ffffffffffffffffffffffffffffffffffffffff1681565b610d54610d4e611149565b836114e3565b610d93576040517f08c379a0000000000000000000000000000000000000000000000000000000008152600401610d8a90613098565b60405180910390fd5b610d9f84848484611829565b50505050565b6060610db0826110fe565b6000600660008481526020019081526020016000208054610dd090612d01565b80601f0160208091040260200160405190810160405280929190818152602001828054610dfc90612d01565b8015610e495780601f10610e1e57610100808354040283529160200191610e49565b820191906000526020600020905b815481529060010190602001808311610e2c57829003601f168201915b505050505090506000610e5a611885565b9050600081511415610e70578192505050610eb3565b600082511115610ea5578082604051602001610e8d9291906131f2565b60405160208183030381529060405292505050610eb3565b610eae8461189c565b925050505b919050565b6000610ec46008611904565b6000610ed0600861191a565b9050610edc8582611928565b610f2a8185858080601f016020809104026020016040519081016040528093929190818152602001838380828437600081840152601f19601f82011690508083019250505050505050611b02565b809150509392505050565b6000600b60003373ffffffffffffffffffffffffffffffffffffffff1673ffffffffffffffffffffffffffffffffffffffff16815260200190815260200160002054905090565b6000600560008473ffffffffffffffffffffffffffffffffffffffff1673ffffffffffffffffffffffffffffffffffffffff16815260200190815260200160002060008373ffffffffffffffffffffffffffffffffffffffff1673ffffffffffffffffffffffffffffffffffffffff16815260200190815260200160002060009054906101000a900460ff16905092915050565b611018611578565b600073ffffffffffffffffffffffffffffffffffffffff168173ffffffffffffffffffffffffffffffffffffffff161415611088576040517f08c379a000000000000000000000000000000000000000000000000000000000815260040161107f90613288565b60405180910390fd5b611091816115f6565b50565b60007f01ffc9a7000000000000000000000000000000000000000000000000000000007bffffffffffffffffffffffffffffffffffffffffffffffffffffffff1916827bffffffffffffffffffffffffffffffffffffffffffffffffffffffff1916149050919050565b61110781611b76565b611146576040517f08c379a000000000000000000000000000000000000000000000000000000000815260040161113d90613104565b60405180910390fd5b50565b600033905090565b816004600083815260200190815260200160002060006101000a81548173ffffffffffffffffffffffffffffffffffffffff021916908373ffffffffffffffffffffffffffffffffffffffff160217905550808273ffffffffffffffffffffffffffffffffffffffff166111c483610acd565b73ffffffffffffffffffffffffffffffffffffffff167f8c5be1e5ebec7d5bd14f71427d1e84f3dd0314c0f7b2291e5b200ac8c7c3b92560405160405180910390a45050565b60008061121683611be2565b90506112748184806060019061122c91906132a8565b8080601f016020809104026020016040519081016040528093929190818152602001838380828437600081840152601f19601f82011690508083019250505050505050611c7b565b915050919050565b8273ffffffffffffffffffffffffffffffffffffffff1661129c82610acd565b73ffffffffffffffffffffffffffffffffffffffff16146112f2576040517f08c379a00000000000000000000000000000000000000000000000000000000081526004016112e99061337d565b60405180910390fd5b600073ffffffffffffffffffffffffffffffffffffffff168273ffffffffffffffffffffffffffffffffffffffff161415611362576040517f08c379a00000000000000000000000000000000000000000000000000000000081526004016113599061340f565b60405180910390fd5b61136d838383611ca2565b611378600082611151565b6001600360008573ffffffffffffffffffffffffffffffffffffffff1673ffffffffffffffffffffffffffffffffffffffff16815260200190815260200160002060008282546113c8919061342f565b925050819055506001600360008473ffffffffffffffffffffffffffffffffffffffff1673ffffffffffffffffffffffffffffffffffffffff168152602001908152602001600020600082825461141f9190612fd0565b92505081905550816002600083815260200190815260200160002060006101000a81548173ffffffffffffffffffffffffffffffffffffffff021916908373ffffffffffffffffffffffffffffffffffffffff160217905550808273ffffffffffffffffffffffffffffffffffffffff168473ffffffffffffffffffffffffffffffffffffffff167fddf252ad1be2c89b69c2b068fc378daa952ba7f163c4a11628f55a4df523b3ef60405160405180910390a46114de838383611ca7565b505050565b6000806114ef83610acd565b90508073ffffffffffffffffffffffffffffffffffffffff168473ffffffffffffffffffffffffffffffffffffffff16148061153157506115308185610f7c565b5b8061156f57508373ffffffffffffffffffffffffffffffffffffffff1661155784610679565b73ffffffffffffffffffffffffffffffffffffffff16145b91505092915050565b611580611149565b73ffffffffffffffffffffffffffffffffffffffff1661159e610c4b565b73ffffffffffffffffffffffffffffffffffffffff16146115f4576040517f08c379a00000000000000000000000000000000000000000000000000000000081526004016115eb906134af565b60405180910390fd5b565b6000600760009054906101000a900473ffffffffffffffffffffffffffffffffffffffff16905081600760006101000a81548173ffffffffffffffffffffffffffffffffffffffff021916908373ffffffffffffffffffffffffffffffffffffffff1602179055508173ffffffffffffffffffffffffffffffffffffffff168173ffffffffffffffffffffffffffffffffffffffff167f8be0079c531659141344cd1fd0a4f28419497f9722a3daafe3b4186f6b6457e060405160405180910390a35050565b8173ffffffffffffffffffffffffffffffffffffffff168373ffffffffffffffffffffffffffffffffffffffff16141561172b576040517f08c379a00000000000000000000000000000000000000000000000000000000081526004016117229061351b565b60405180910390fd5b80600560008573ffffffffffffffffffffffffffffffffffffffff1673ffffffffffffffffffffffffffffffffffffffff16815260200190815260200160002060008473ffffffffffffffffffffffffffffffffffffffff1673ffffffffffffffffffffffffffffffffffffffff16815260200190815260200160002060006101000a81548160ff0219169083151502179055508173ffffffffffffffffffffffffffffffffffffffff168373ffffffffffffffffffffffffffffffffffffffff167f17307eab39ab6107e8899845ad3d59bd9653f200f220920489ca2b5937696c318360405161181c9190612683565b60405180910390a3505050565b61183484848461127c565b61184084848484611cac565b61187f576040517f08c379a0000000000000000000000000000000000000000000000000000000008152600401611876906135ad565b60405180910390fd5b50505050565b606060405180602001604052806000815250905090565b60606118a7826110fe565b60006118b1611885565b905060008151116118d157604051806020016040528060008152506118fc565b806118db84611e43565b6040516020016118ec9291906131f2565b6040516020818303038152906040525b915050919050565b6001816000016000828254019250508190555050565b600081600001549050919050565b600073ffffffffffffffffffffffffffffffffffffffff168273ffffffffffffffffffffffffffffffffffffffff161415611998576040517f08c379a000000000000000000000000000000000000000000000000000000000815260040161198f90613619565b60405180910390fd5b6119a181611b76565b156119e1576040517f08c379a00000000000000000000000000000000000000000000000000000000081526004016119d890613685565b60405180910390fd5b6119ed60008383611ca2565b6001600360008473ffffffffffffffffffffffffffffffffffffffff1673ffffffffffffffffffffffffffffffffffffffff1681526020019081526020016000206000828254611a3d9190612fd0565b92505081905550816002600083815260200190815260200160002060006101000a81548173ffffffffffffffffffffffffffffffffffffffff021916908373ffffffffffffffffffffffffffffffffffffffff160217905550808273ffffffffffffffffffffffffffffffffffffffff16600073ffffffffffffffffffffffffffffffffffffffff167fddf252ad1be2c89b69c2b068fc378daa952ba7f163c4a11628f55a4df523b3ef60405160405180910390a4611afe60008383611ca7565b5050565b611b0b82611b76565b611b4a576040517f08c379a0000000000000000000000000000000000000000000000000000000008152600401611b4190613717565b60405180910390fd5b80600660008481526020019081526020016000209080519060200190611b7192919061252c565b505050565b60008073ffffffffffffffffffffffffffffffffffffffff166002600084815260200190815260200160002060009054906101000a900473ffffffffffffffffffffffffffffffffffffffff1673ffffffffffffffffffffffffffffffffffffffff1614159050919050565b6000611c747fe2c1fe55ff75bc6c0f1e92db9b907c57038a5f95f7c137ff4bf9e10a15bc3d01836000016020810190611c1b9190612981565b8460200135858060400190611c309190612f3e565b604051611c3e929190613767565b6040518091039020604051602001611c599493929190613799565b60405160208183030381529060405280519060200120611fa4565b9050919050565b6000806000611c8a8585611fbe565b91509150611c9781612041565b819250505092915050565b505050565b505050565b6000611ccd8473ffffffffffffffffffffffffffffffffffffffff16612216565b15611e36578373ffffffffffffffffffffffffffffffffffffffff1663150b7a02611cf6611149565b8786866040518563ffffffff1660e01b8152600401611d189493929190613833565b602060405180830381600087803b158015611d3257600080fd5b505af1925050508015611d6357506040513d601f19601f82011682018060405250810190611d609190613894565b60015b611de6573d8060008114611d93576040519150601f19603f3d011682016040523d82523d6000602084013e611d98565b606091505b50600081511415611dde576040517f08c379a0000000000000000000000000000000000000000000000000000000008152600401611dd5906135ad565b60405180910390fd5b805181602001fd5b63150b7a0260e01b7bffffffffffffffffffffffffffffffffffffffffffffffffffffffff1916817bffffffffffffffffffffffffffffffffffffffffffffffffffffffff191614915050611e3b565b600190505b949350505050565b60606000821415611e8b576040518060400160405280600181526020017f30000000000000000000000000000000000000000000000000000000000000008152509050611f9f565b600082905060005b60008214611ebd578080611ea6906138c1565b915050600a82611eb69190613939565b9150611e93565b60008167ffffffffffffffff811115611ed957611ed8612a24565b5b6040519080825280601f01601f191660200182016040528015611f0b5781602001600182028036833780820191505090505b5090505b60008514611f9857600182611f24919061342f565b9150600a85611f33919061396a565b6030611f3f9190612fd0565b60f81b818381518110611f5557611f5461399b565b5b60200101907effffffffffffffffffffffffffffffffffffffffffffffffffffffffffffff1916908160001a905350600a85611f919190613939565b9450611f0f565b8093505050505b919050565b6000611fb7611fb1612239565b83612353565b9050919050565b6000806041835114156120005760008060006020860151925060408601519150606086015160001a9050611ff487828585612386565b9450945050505061203a565b604083511415612031576000806020850151915060408501519050612026868383612493565b93509350505061203a565b60006002915091505b9250929050565b60006004811115612055576120546139ca565b5b816004811115612068576120676139ca565b5b141561207357612213565b60016004811115612087576120866139ca565b5b81600481111561209a576120996139ca565b5b14156120db576040517f08c379a00000000000000000000000000000000000000000000000000000000081526004016120d290613a45565b60405180910390fd5b600260048111156120ef576120ee6139ca565b5b816004811115612102576121016139ca565b5b1415612143576040517f08c379a000000000000000000000000000000000000000000000000000000000815260040161213a90613ab1565b60405180910390fd5b60036004811115612157576121566139ca565b5b81600481111561216a576121696139ca565b5b14156121ab576040517f08c379a00000000000000000000000000000000000000000000000000000000081526004016121a290613b43565b60405180910390fd5b6004808111156121be576121bd6139ca565b5b8160048111156121d1576121d06139ca565b5b1415612212576040517f08c379a000000000000000000000000000000000000000000000000000000000815260040161220990613bd5565b60405180910390fd5b5b50565b6000808273ffffffffffffffffffffffffffffffffffffffff163b119050919050565b60007f000000000000000000000000000000000000000000000000000000000000000073ffffffffffffffffffffffffffffffffffffffff163073ffffffffffffffffffffffffffffffffffffffff161480156122b557507f000000000000000000000000000000000000000000000000000000000000000046145b156122e2577f00000000000000000000000000000000000000000000000000000000000000009050612350565b61234d7f00000000000000000000000000000000000000000000000000000000000000007f00000000000000000000000000000000000000000000000000000000000000007f00000000000000000000000000000000000000000000000000000000000000006124f2565b90505b90565b60008282604051602001612368929190613c62565b60405160208183030381529060405280519060200120905092915050565b6000807f7fffffffffffffffffffffffffffffff5d576e7357a4501ddfe92f46681b20a08360001c11156123c157600060039150915061248a565b601b8560ff16141580156123d95750601c8560ff1614155b156123eb57600060049150915061248a565b6000600187878787604051600081526020016040526040516124109493929190613cb5565b6020604051602081039080840390855afa158015612432573d6000803e3d6000fd5b505050602060405103519050600073ffffffffffffffffffffffffffffffffffffffff168173ffffffffffffffffffffffffffffffffffffffff1614156124815760006001925092505061248a565b80600092509250505b94509492505050565b60008060007f7fffffffffffffffffffffffffffffffffffffffffffffffffffffffffffffff60001b841690506000601b60ff8660001c901c6124d69190612fd0565b90506124e487828885612386565b935093505050935093915050565b6000838383463060405160200161250d959493929190613cfa565b6040516020818303038152906040528051906020012090509392505050565b82805461253890612d01565b90600052602060002090601f01602090048101928261255a57600085556125a1565b82601f1061257357805160ff19168380011785556125a1565b828001600101855582156125a1579182015b828111156125a0578251825591602001919060010190612585565b5b5090506125ae91906125b2565b5090565b5b808211156125cb5760008160009055506001016125b3565b5090565b6000604051905090565b600080fd5b600080fd5b60007fffffffff0000000000000000000000000000000000000000000000000000000082169050919050565b612618816125e3565b811461262357600080fd5b50565b6000813590506126358161260f565b92915050565b600060208284031215612651576126506125d9565b5b600061265f84828501612626565b91505092915050565b60008115159050919050565b61267d81612668565b82525050565b60006020820190506126986000830184612674565b92915050565b600081519050919050565b600082825260208201905092915050565b60005b838110156126d85780820151818401526020810190506126bd565b838111156126e7576000848401525b50505050565b6000601f19601f8301169050919050565b60006127098261269e565b61271381856126a9565b93506127238185602086016126ba565b61272c816126ed565b840191505092915050565b6000602082019050818103600083015261275181846126fe565b905092915050565b6000819050919050565b61276c81612759565b811461277757600080fd5b50565b60008135905061278981612763565b92915050565b6000602082840312156127a5576127a46125d9565b5b60006127b38482850161277a565b91505092915050565b600073ffffffffffffffffffffffffffffffffffffffff82169050919050565b60006127e7826127bc565b9050919050565b6127f7816127dc565b82525050565b600060208201905061281260008301846127ee565b92915050565b612821816127dc565b811461282c57600080fd5b50565b60008135905061283e81612818565b92915050565b6000806040838503121561285b5761285a6125d9565b5b60006128698582860161282f565b925050602061287a8582860161277a565b9150509250929050565b600080fd5b60006080828403121561289f5761289e612884565b5b81905092915050565b600080604083850312156128bf576128be6125d9565b5b60006128cd8582860161282f565b925050602083013567ffffffffffffffff8111156128ee576128ed6125de565b5b6128fa85828601612889565b9150509250929050565b61290d81612759565b82525050565b60006020820190506129286000830184612904565b92915050565b600080600060608486031215612947576129466125d9565b5b60006129558682870161282f565b93505060206129668682870161282f565b92505060406129778682870161277a565b9150509250925092565b600060208284031215612997576129966125d9565b5b60006129a58482850161282f565b91505092915050565b6129b781612668565b81146129c257600080fd5b50565b6000813590506129d4816129ae565b92915050565b600080604083850312156129f1576129f06125d9565b5b60006129ff8582860161282f565b9250506020612a10858286016129c5565b9150509250929050565b600080fd5b600080fd5b7f4e487b7100000000000000000000000000000000000000000000000000000000600052604160045260246000fd5b612a5c826126ed565b810181811067ffffffffffffffff82111715612a7b57612a7a612a24565b5b80604052505050565b6000612a8e6125cf565b9050612a9a8282612a53565b919050565b600067ffffffffffffffff821115612aba57612ab9612a24565b5b612ac3826126ed565b9050602081019050919050565b82818337600083830152505050565b6000612af2612aed84612a9f565b612a84565b905082815260208101848484011115612b0e57612b0d612a1f565b5b612b19848285612ad0565b509392505050565b600082601f830112612b3657612b35612a1a565b5b8135612b46848260208601612adf565b91505092915050565b60008060008060808587031215612b6957612b686125d9565b5b6000612b778782880161282f565b9450506020612b888782880161282f565b9350506040612b998782880161277a565b925050606085013567ffffffffffffffff811115612bba57612bb96125de565b5b612bc687828801612b21565b91505092959194509250565b600080fd5b600080fd5b60008083601f840112612bf257612bf1612a1a565b5b8235905067ffffffffffffffff811115612c0f57612c0e612bd2565b5b602083019150836001820283011115612c2b57612c2a612bd7565b5b9250929050565b600080600060408486031215612c4b57612c4a6125d9565b5b6000612c598682870161282f565b935050602084013567ffffffffffffffff811115612c7a57612c796125de565b5b612c8686828701612bdc565b92509250509250925092565b60008060408385031215612ca957612ca86125d9565b5b6000612cb78582860161282f565b9250506020612cc88582860161282f565b9150509250929050565b7f4e487b7100000000000000000000000000000000000000000000000000000000600052602260045260246000fd5b60006002820490506001821680612d1957607f821691505b60208210811415612d2d57612d2c612cd2565b5b50919050565b7f4552433732313a20617070726f76616c20746f2063757272656e74206f776e6560008201527f7200000000000000000000000000000000000000000000000000000000000000602082015250565b6000612d8f6021836126a9565b9150612d9a82612d33565b604082019050919050565b60006020820190508181036000830152612dbe81612d82565b9050919050565b7f4552433732313a20617070726f76652063616c6c6572206973206e6f7420746f60008201527f6b656e206f776e6572206e6f7220617070726f76656420666f7220616c6c0000602082015250565b6000612e21603e836126a9565b9150612e2c82612dc5565b604082019050919050565b60006020820190508181036000830152612e5081612e14565b9050919050565b7f5369676e617475726520696e76616c6964000000000000000000000000000000600082015250565b6000612e8d6011836126a9565b9150612e9882612e57565b602082019050919050565b60006020820190508181036000830152612ebc81612e80565b9050919050565b7f496e73756666696369656e742066756e647320746f2072656465656d00000000600082015250565b6000612ef9601c836126a9565b9150612f0482612ec3565b602082019050919050565b60006020820190508181036000830152612f2881612eec565b9050919050565b600080fd5b600080fd5b600080fd5b60008083356001602003843603038112612f5b57612f5a612f2f565b5b80840192508235915067ffffffffffffffff821115612f7d57612f7c612f34565b5b602083019250600182023603831315612f9957612f98612f39565b5b509250929050565b7f4e487b7100000000000000000000000000000000000000000000000000000000600052601160045260246000fd5b6000612fdb82612759565b9150612fe683612759565b9250827fffffffffffffffffffffffffffffffffffffffffffffffffffffffffffffffff0382111561301b5761301a612fa1565b5b828201905092915050565b7f4552433732313a2063616c6c6572206973206e6f7420746f6b656e206f776e6560008201527f72206e6f7220617070726f766564000000000000000000000000000000000000602082015250565b6000613082602e836126a9565b915061308d82613026565b604082019050919050565b600060208201905081810360008301526130b181613075565b9050919050565b7f4552433732313a20696e76616c696420746f6b656e2049440000000000000000600082015250565b60006130ee6018836126a9565b91506130f9826130b8565b602082019050919050565b6000602082019050818103600083015261311d816130e1565b9050919050565b7f4552433732313a2061646472657373207a65726f206973206e6f74206120766160008201527f6c6964206f776e65720000000000000000000000000000000000000000000000602082015250565b60006131806029836126a9565b915061318b82613124565b604082019050919050565b600060208201905081810360008301526131af81613173565b9050919050565b600081905092915050565b60006131cc8261269e565b6131d681856131b6565b93506131e68185602086016126ba565b80840191505092915050565b60006131fe82856131c1565b915061320a82846131c1565b91508190509392505050565b7f4f776e61626c653a206e6577206f776e657220697320746865207a65726f206160008201527f6464726573730000000000000000000000000000000000000000000000000000602082015250565b60006132726026836126a9565b915061327d82613216565b604082019050919050565b600060208201905081810360008301526132a181613265565b9050919050565b600080833560016020038436030381126132c5576132c4612f2f565b5b80840192508235915067ffffffffffffffff8211156132e7576132e6612f34565b5b60208301925060018202360383131561330357613302612f39565b5b509250929050565b7f4552433732313a207472616e736665722066726f6d20696e636f72726563742060008201527f6f776e6572000000000000000000000000000000000000000000000000000000602082015250565b60006133676025836126a9565b91506133728261330b565b604082019050919050565b600060208201905081810360008301526133968161335a565b9050919050565b7f4552433732313a207472616e7366657220746f20746865207a65726f2061646460008201527f7265737300000000000000000000000000000000000000000000000000000000602082015250565b60006133f96024836126a9565b91506134048261339d565b604082019050919050565b60006020820190508181036000830152613428816133ec565b9050919050565b600061343a82612759565b915061344583612759565b92508282101561345857613457612fa1565b5b828203905092915050565b7f4f776e61626c653a2063616c6c6572206973206e6f7420746865206f776e6572600082015250565b60006134996020836126a9565b91506134a482613463565b602082019050919050565b600060208201905081810360008301526134c88161348c565b9050919050565b7f4552433732313a20617070726f766520746f2063616c6c657200000000000000600082015250565b60006135056019836126a9565b9150613510826134cf565b602082019050919050565b60006020820190508181036000830152613534816134f8565b9050919050565b7f4552433732313a207472616e7366657220746f206e6f6e20455243373231526560008201527f63656976657220696d706c656d656e7465720000000000000000000000000000602082015250565b60006135976032836126a9565b91506135a28261353b565b604082019050919050565b600060208201905081810360008301526135c68161358a565b9050919050565b7f4552433732313a206d696e7420746f20746865207a65726f2061646472657373600082015250565b60006136036020836126a9565b915061360e826135cd565b602082019050919050565b60006020820190508181036000830152613632816135f6565b9050919050565b7f4552433732313a20746f6b656e20616c7265616479206d696e74656400000000600082015250565b600061366f601c836126a9565b915061367a82613639565b602082019050919050565b6000602082019050818103600083015261369e81613662565b9050919050565b7f45524337323155524953746f726167653a2055524920736574206f66206e6f6e60008201527f6578697374656e7420746f6b656e000000000000000000000000000000000000602082015250565b6000613701602e836126a9565b915061370c826136a5565b604082019050919050565b60006020820190508181036000830152613730816136f4565b9050919050565b600081905092915050565b600061374e8385613737565b935061375b838584612ad0565b82840190509392505050565b6000613774828486613742565b91508190509392505050565b6000819050919050565b61379381613780565b82525050565b60006080820190506137ae600083018761378a565b6137bb60208301866127ee565b6137c86040830185612904565b6137d5606083018461378a565b95945050505050565b600081519050919050565b600082825260208201905092915050565b6000613805826137de565b61380f81856137e9565b935061381f8185602086016126ba565b613828816126ed565b840191505092915050565b600060808201905061384860008301876127ee565b61385560208301866127ee565b6138626040830185612904565b818103606083015261387481846137fa565b905095945050505050565b60008151905061388e8161260f565b92915050565b6000602082840312156138aa576138a96125d9565b5b60006138b88482850161387f565b91505092915050565b60006138cc82612759565b91507fffffffffffffffffffffffffffffffffffffffffffffffffffffffffffffffff8214156138ff576138fe612fa1565b5b600182019050919050565b7f4e487b7100000000000000000000000000000000000000000000000000000000600052601260045260246000fd5b600061394482612759565b915061394f83612759565b92508261395f5761395e61390a565b5b828204905092915050565b600061397582612759565b915061398083612759565b9250826139905761398f61390a565b5b828206905092915050565b7f4e487b7100000000000000000000000000000000000000000000000000000000600052603260045260246000fd5b7f4e487b7100000000000000000000000000000000000000000000000000000000600052602160045260246000fd5b7f45434453413a20696e76616c6964207369676e61747572650000000000000000600082015250565b6000613a2f6018836126a9565b9150613a3a826139f9565b602082019050919050565b60006020820190508181036000830152613a5e81613a22565b9050919050565b7f45434453413a20696e76616c6964207369676e6174757265206c656e67746800600082015250565b6000613a9b601f836126a9565b9150613aa682613a65565b602082019050919050565b60006020820190508181036000830152613aca81613a8e565b9050919050565b7f45434453413a20696e76616c6964207369676e6174757265202773272076616c60008201527f7565000000000000000000000000000000000000000000000000000000000000602082015250565b6000613b2d6022836126a9565b9150613b3882613ad1565b604082019050919050565b60006020820190508181036000830152613b5c81613b20565b9050919050565b7f45434453413a20696e76616c6964207369676e6174757265202776272076616c60008201527f7565000000000000000000000000000000000000000000000000000000000000602082015250565b6000613bbf6022836126a9565b9150613bca82613b63565b604082019050919050565b60006020820190508181036000830152613bee81613bb2565b9050919050565b7f1901000000000000000000000000000000000000000000000000000000000000600082015250565b6000613c2b6002836131b6565b9150613c3682613bf5565b600282019050919050565b6000819050919050565b613c5c613c5782613780565b613c41565b82525050565b6000613c6d82613c1e565b9150613c798285613c4b565b602082019150613c898284613c4b565b6020820191508190509392505050565b600060ff82169050919050565b613caf81613c99565b82525050565b6000608082019050613cca600083018761378a565b613cd76020830186613ca6565b613ce4604083018561378a565b613cf1606083018461378a565b95945050505050565b600060a082019050613d0f600083018861378a565b613d1c602083018761378a565b613d29604083018661378a565b613d366060830185612904565b613d4360808301846127ee565b969550505050505056fea26469706673582212204f2051f960e0b86378f2d759f6416375655b41edf4201046270db203d05ecaf064736f6c63430008090033",
  "linkReferences": {},
  "deployedLinkReferences": {}
}