{
  "_format": "hh-sol-artifact-1",
  "contractName": "ArtongNFT",
  "sourceName": "contracts/ArtongNFT.sol",
  "abi": [
    {
      "inputs": [
        {
          "internalType": "string",
          "name": "_name",
          "type": "string"
        },
        {
          "internalType": "string",
          "name": "_symbol",
          "type": "string"
        },
        {
          "internalType": "address",
          "name": "_marketplace",
          "type": "address"
        },
        {
          "internalType": "uint16",
          "name": "_platformFee",
          "type": "uint16"
        },
        {
          "internalType": "address payable",
          "name": "_feeReceipient",
          "type": "address"
        },
        {
          "internalType": "uint256",
          "name": "_maxAmount",
          "type": "uint256"
        },
        {
          "internalType": "enum Policy",
          "name": "_policy",
          "type": "uint8"
        }
      ],
      "stateMutability": "nonpayable",
      "type": "constructor"
    },
    {
      "anonymous": false,
      "inputs": [
        {
          "indexed": true,
          "internalType": "address",
          "name": "owner",
          "type": "address"
        },
        {
          "indexed": true,
          "internalType": "address",
          "name": "approved",
          "type": "address"
        },
        {
          "indexed": true,
          "internalType": "uint256",
          "name": "tokenId",
          "type": "uint256"
        }
      ],
      "name": "Approval",
      "type": "event"
    },
    {
      "anonymous": false,
      "inputs": [
        {
          "indexed": true,
          "internalType": "address",
          "name": "owner",
          "type": "address"
        },
        {
          "indexed": true,
          "internalType": "address",
          "name": "operator",
          "type": "address"
        },
        {
          "indexed": false,
          "internalType": "bool",
          "name": "approved",
          "type": "bool"
        }
      ],
      "name": "ApprovalForAll",
      "type": "event"
    },
    {
      "anonymous": false,
      "inputs": [
        {
          "indexed": true,
          "internalType": "address",
          "name": "previousOwner",
          "type": "address"
        },
        {
          "indexed": true,
          "internalType": "address",
          "name": "newOwner",
          "type": "address"
        }
      ],
      "name": "OwnershipTransferred",
      "type": "event"
    },
    {
      "anonymous": false,
      "inputs": [
        {
          "indexed": false,
          "internalType": "address",
          "name": "account",
          "type": "address"
        }
      ],
      "name": "Paused",
      "type": "event"
    },
    {
      "anonymous": false,
      "inputs": [
        {
          "indexed": true,
          "internalType": "address",
          "name": "from",
          "type": "address"
        },
        {
          "indexed": true,
          "internalType": "address",
          "name": "to",
          "type": "address"
        },
        {
          "indexed": true,
          "internalType": "uint256",
          "name": "tokenId",
          "type": "uint256"
        }
      ],
      "name": "Transfer",
      "type": "event"
    },
    {
      "anonymous": false,
      "inputs": [
        {
          "indexed": false,
          "internalType": "address",
          "name": "account",
          "type": "address"
        }
      ],
      "name": "Unpaused",
      "type": "event"
    },
    {
      "anonymous": false,
      "inputs": [
        {
          "indexed": false,
          "internalType": "enum Policy",
          "name": "policy",
          "type": "uint8"
        },
        {
          "indexed": false,
          "internalType": "address",
          "name": "updater",
          "type": "address"
        }
      ],
      "name": "UpdatePolicy",
      "type": "event"
    },
    {
      "inputs": [
        {
          "internalType": "address",
          "name": "to",
          "type": "address"
        },
        {
          "internalType": "uint256",
          "name": "tokenId",
          "type": "uint256"
        }
      ],
      "name": "approve",
      "outputs": [],
      "stateMutability": "nonpayable",
      "type": "function"
    },
    {
      "inputs": [
        {
          "internalType": "address",
          "name": "owner",
          "type": "address"
        }
      ],
      "name": "balanceOf",
      "outputs": [
        {
          "internalType": "uint256",
          "name": "",
          "type": "uint256"
        }
      ],
      "stateMutability": "view",
      "type": "function"
    },
    {
      "inputs": [
        {
          "internalType": "uint256",
          "name": "tokenId",
          "type": "uint256"
        }
      ],
      "name": "burn",
      "outputs": [],
      "stateMutability": "nonpayable",
      "type": "function"
    },
    {
      "inputs": [],
      "name": "feeReceipient",
      "outputs": [
        {
          "internalType": "address payable",
          "name": "",
          "type": "address"
        }
      ],
      "stateMutability": "view",
      "type": "function"
    },
    {
      "inputs": [
        {
          "internalType": "uint256",
          "name": "tokenId",
          "type": "uint256"
        }
      ],
      "name": "getApproved",
      "outputs": [
        {
          "internalType": "address",
          "name": "",
          "type": "address"
        }
      ],
      "stateMutability": "view",
      "type": "function"
    },
    {
      "inputs": [],
      "name": "getChainID",
      "outputs": [
        {
          "internalType": "uint256",
          "name": "",
          "type": "uint256"
        }
      ],
      "stateMutability": "view",
      "type": "function"
    },
    {
      "inputs": [
        {
          "internalType": "address",
          "name": "owner",
          "type": "address"
        },
        {
          "internalType": "address",
          "name": "operator",
          "type": "address"
        }
      ],
      "name": "isApprovedForAll",
      "outputs": [
        {
          "internalType": "bool",
          "name": "",
          "type": "bool"
        }
      ],
      "stateMutability": "view",
      "type": "function"
    },
    {
      "inputs": [],
      "name": "marketplace",
      "outputs": [
        {
          "internalType": "address",
          "name": "",
          "type": "address"
        }
      ],
      "stateMutability": "view",
      "type": "function"
    },
    {
      "inputs": [],
      "name": "maxAmount",
      "outputs": [
        {
          "internalType": "uint256",
          "name": "",
          "type": "uint256"
        }
      ],
      "stateMutability": "view",
      "type": "function"
    },
    {
      "inputs": [
        {
          "internalType": "address",
          "name": "_to",
          "type": "address"
        },
        {
          "internalType": "string",
          "name": "_tokenUri",
          "type": "string"
        }
      ],
      "name": "mint",
      "outputs": [
        {
          "internalType": "uint256",
          "name": "",
          "type": "uint256"
        }
      ],
      "stateMutability": "nonpayable",
      "type": "function"
    },
    {
      "inputs": [],
      "name": "name",
      "outputs": [
        {
          "internalType": "string",
          "name": "",
          "type": "string"
        }
      ],
      "stateMutability": "view",
      "type": "function"
    },
    {
      "inputs": [],
      "name": "owner",
      "outputs": [
        {
          "internalType": "address",
          "name": "",
          "type": "address"
        }
      ],
      "stateMutability": "view",
      "type": "function"
    },
    {
      "inputs": [
        {
          "internalType": "uint256",
          "name": "tokenId",
          "type": "uint256"
        }
      ],
      "name": "ownerOf",
      "outputs": [
        {
          "internalType": "address",
          "name": "",
          "type": "address"
        }
      ],
      "stateMutability": "view",
      "type": "function"
    },
    {
      "inputs": [],
      "name": "pause",
      "outputs": [],
      "stateMutability": "nonpayable",
      "type": "function"
    },
    {
      "inputs": [],
      "name": "paused",
      "outputs": [
        {
          "internalType": "bool",
          "name": "",
          "type": "bool"
        }
      ],
      "stateMutability": "view",
      "type": "function"
    },
    {
      "inputs": [],
      "name": "platformFee",
      "outputs": [
        {
          "internalType": "uint16",
          "name": "",
          "type": "uint16"
        }
      ],
      "stateMutability": "view",
      "type": "function"
    },
    {
      "inputs": [],
      "name": "policy",
      "outputs": [
        {
          "internalType": "enum Policy",
          "name": "",
          "type": "uint8"
        }
      ],
      "stateMutability": "view",
      "type": "function"
    },
    {
      "inputs": [
        {
          "internalType": "address",
          "name": "redeemer",
          "type": "address"
        },
        {
          "components": [
            {
              "internalType": "address",
              "name": "creator",
              "type": "address"
            },
            {
              "internalType": "uint256",
              "name": "minPrice",
              "type": "uint256"
            },
            {
              "internalType": "string",
              "name": "uri",
              "type": "string"
            },
            {
              "internalType": "bytes",
              "name": "signature",
              "type": "bytes"
            }
          ],
          "internalType": "struct ArtongNFT.NFTVoucher",
          "name": "voucher",
          "type": "tuple"
        }
      ],
      "name": "redeem",
      "outputs": [
        {
          "internalType": "uint256",
          "name": "",
          "type": "uint256"
        }
      ],
      "stateMutability": "payable",
      "type": "function"
    },
    {
      "inputs": [],
      "name": "renounceOwnership",
      "outputs": [],
      "stateMutability": "nonpayable",
      "type": "function"
    },
    {
      "inputs": [
        {
          "internalType": "address",
          "name": "from",
          "type": "address"
        },
        {
          "internalType": "address",
          "name": "to",
          "type": "address"
        },
        {
          "internalType": "uint256",
          "name": "tokenId",
          "type": "uint256"
        }
      ],
      "name": "safeTransferFrom",
      "outputs": [],
      "stateMutability": "nonpayable",
      "type": "function"
    },
    {
      "inputs": [
        {
          "internalType": "address",
          "name": "from",
          "type": "address"
        },
        {
          "internalType": "address",
          "name": "to",
          "type": "address"
        },
        {
          "internalType": "uint256",
          "name": "tokenId",
          "type": "uint256"
        },
        {
          "internalType": "bytes",
          "name": "data",
          "type": "bytes"
        }
      ],
      "name": "safeTransferFrom",
      "outputs": [],
      "stateMutability": "nonpayable",
      "type": "function"
    },
    {
      "inputs": [
        {
          "internalType": "address",
          "name": "operator",
          "type": "address"
        },
        {
          "internalType": "bool",
          "name": "approved",
          "type": "bool"
        }
      ],
      "name": "setApprovalForAll",
      "outputs": [],
      "stateMutability": "nonpayable",
      "type": "function"
    },
    {
      "inputs": [
        {
          "internalType": "enum Policy",
          "name": "_policy",
          "type": "uint8"
        }
      ],
      "name": "setPolicy",
      "outputs": [],
      "stateMutability": "nonpayable",
      "type": "function"
    },
    {
      "inputs": [
        {
          "internalType": "bytes4",
          "name": "interfaceId",
          "type": "bytes4"
        }
      ],
      "name": "supportsInterface",
      "outputs": [
        {
          "internalType": "bool",
          "name": "",
          "type": "bool"
        }
      ],
      "stateMutability": "view",
      "type": "function"
    },
    {
      "inputs": [],
      "name": "symbol",
      "outputs": [
        {
          "internalType": "string",
          "name": "",
          "type": "string"
        }
      ],
      "stateMutability": "view",
      "type": "function"
    },
    {
      "inputs": [
        {
          "internalType": "uint256",
          "name": "index",
          "type": "uint256"
        }
      ],
      "name": "tokenByIndex",
      "outputs": [
        {
          "internalType": "uint256",
          "name": "",
          "type": "uint256"
        }
      ],
      "stateMutability": "view",
      "type": "function"
    },
    {
      "inputs": [
        {
          "internalType": "address",
          "name": "owner",
          "type": "address"
        },
        {
          "internalType": "uint256",
          "name": "index",
          "type": "uint256"
        }
      ],
      "name": "tokenOfOwnerByIndex",
      "outputs": [
        {
          "internalType": "uint256",
          "name": "",
          "type": "uint256"
        }
      ],
      "stateMutability": "view",
      "type": "function"
    },
    {
      "inputs": [
        {
          "internalType": "uint256",
          "name": "tokenId",
          "type": "uint256"
        }
      ],
      "name": "tokenURI",
      "outputs": [
        {
          "internalType": "string",
          "name": "",
          "type": "string"
        }
      ],
      "stateMutability": "view",
      "type": "function"
    },
    {
      "inputs": [],
      "name": "totalSupply",
      "outputs": [
        {
          "internalType": "uint256",
          "name": "",
          "type": "uint256"
        }
      ],
      "stateMutability": "view",
      "type": "function"
    },
    {
      "inputs": [
        {
          "internalType": "address",
          "name": "from",
          "type": "address"
        },
        {
          "internalType": "address",
          "name": "to",
          "type": "address"
        },
        {
          "internalType": "uint256",
          "name": "tokenId",
          "type": "uint256"
        }
      ],
      "name": "transferFrom",
      "outputs": [],
      "stateMutability": "nonpayable",
      "type": "function"
    },
    {
      "inputs": [
        {
          "internalType": "address",
          "name": "newOwner",
          "type": "address"
        }
      ],
      "name": "transferOwnership",
      "outputs": [],
      "stateMutability": "nonpayable",
      "type": "function"
    },
    {
      "inputs": [],
      "name": "unpause",
      "outputs": [],
      "stateMutability": "nonpayable",
      "type": "function"
    }
  ],
  "bytecode": "0x6101606040523480156200001257600080fd5b506040516200345c3803806200345c8339810160408190526200003591620004d1565b6040518060400160405280601181526020017020b93a37b733a7232a16ab37bab1b432b960791b815250604051806040016040528060018152602001603160f81b815250888881600090805190602001906200009392919062000323565b508051620000a990600190602084019062000323565b5050825160209384012082519284019290922060e08390526101008190524660a0818152604080517f8b73c3c69bb8fe3d512ecc4cf759cc79239f7b179b0ffacaa9a75d522b39400f818901819052818301979097526060810194909452608080850193909352308483018190528151808603909301835260c09485019091528151919096012090529290925261012052506007805460ff191690556200015033620002c9565b60008751116200019a5760405162461bcd60e51b815260206004820152601060248201526f13985b59481a5cc81c995c5d5a5c995960821b60448201526064015b60405180910390fd5b6000865111620001e25760405162461bcd60e51b815260206004820152601260248201527114de5b589bdb081a5cc81c995c5d5a5c995960721b604482015260640162000191565b60008211620002405760405162461bcd60e51b815260206004820152602360248201527f4d6178416d6f756e742068617320746f20626520706f736974697665206e756d6044820152623132b960e91b606482015260840162000191565b600d8054610100600160b81b0319166101006001600160a01b038881169190910261ffff60a81b191691909117600160a81b61ffff88160217808355600e80546001600160a01b0319169287169290921790915561014084905282919060ff191660018381811115620002b757620002b76200059a565b021790555050505050505050620005ed565b600780546001600160a01b03838116610100818102610100600160a81b031985161790945560405193909204169182907f8be0079c531659141344cd1fd0a4f28419497f9722a3daafe3b4186f6b6457e090600090a35050565b8280546200033190620005b0565b90600052602060002090601f016020900481019282620003555760008555620003a0565b82601f106200037057805160ff1916838001178555620003a0565b82800160010185558215620003a0579182015b82811115620003a057825182559160200191906001019062000383565b50620003ae929150620003b2565b5090565b5b80821115620003ae5760008155600101620003b3565b634e487b7160e01b600052604160045260246000fd5b600082601f830112620003f157600080fd5b81516001600160401b03808211156200040e576200040e620003c9565b604051601f8301601f19908116603f01168101908282118183101715620004395762000439620003c9565b816040528381526020925086838588010111156200045657600080fd5b600091505b838210156200047a57858201830151818301840152908201906200045b565b838211156200048c5760008385830101525b9695505050505050565b6001600160a01b0381168114620004ac57600080fd5b50565b8051620004bc8162000496565b919050565b805160028110620004bc57600080fd5b600080600080600080600060e0888a031215620004ed57600080fd5b87516001600160401b03808211156200050557600080fd5b620005138b838c01620003df565b985060208a01519150808211156200052a57600080fd5b50620005398a828b01620003df565b96505060408801516200054c8162000496565b606089015190955061ffff811681146200056557600080fd5b93506200057560808901620004af565b925060a088015191506200058c60c08901620004c1565b905092959891949750929550565b634e487b7160e01b600052602160045260246000fd5b600181811c90821680620005c557607f821691505b60208210811415620005e757634e487b7160e01b600052602260045260246000fd5b50919050565b60805160a05160c05160e051610100516101205161014051612e0d6200064f6000396000818161043d015261113e01526000612302015260006123510152600061232c01526000612285015260006122af015260006122d90152612e0d6000f3fe6080604052600436106101e35760003560e01c80635c975abb1161010257806395d89b4111610095578063c87b56dd11610064578063c87b56dd14610586578063d0def521146105a6578063e985e9c5146105c6578063f2fde38b146105e657600080fd5b806395d89b411461050c578063a22cb46514610521578063abc8c7af14610541578063b88d4fde1461056657600080fd5b8063715018a6116100d1578063715018a61461049f57806374bce0bc146104b45780638456cb59146104d45780638da5cb5b146104e957600080fd5b80635c975abb146104135780635f48f3931461042b5780636352211e1461045f57806370a082311461047f57600080fd5b806326232a2e1161017a57806342842e0e1161014957806342842e0e146103a057806342966c68146103c05780634f6ccce7146103e0578063564b81ef1461040057600080fd5b806326232a2e146103165780632f745c591461034b5780633740ebb31461036b5780633f4ba83a1461038b57600080fd5b8063095ea7b3116101b6578063095ea7b31461029e57806311142552146102c057806318160ddd146102e157806323b872dd146102f657600080fd5b806301ffc9a7146101e85780630505c8c91461021d57806306fdde0314610244578063081812fc14610266575b600080fd5b3480156101f457600080fd5b5061020861020336600461273a565b610606565b60405190151581526020015b60405180910390f35b34801561022957600080fd5b50600d546102379060ff1681565b604051610214919061278f565b34801561025057600080fd5b50610259610617565b60405161021491906127f5565b34801561027257600080fd5b50610286610281366004612808565b6106a9565b6040516001600160a01b039091168152602001610214565b3480156102aa57600080fd5b506102be6102b936600461283d565b6106d0565b005b6102d36102ce366004612867565b6107eb565b604051908152602001610214565b3480156102ed57600080fd5b50600a546102d3565b34801561030257600080fd5b506102be6103113660046128bc565b610a1b565b34801561032257600080fd5b50600d5461033890600160a81b900461ffff1681565b60405161ffff9091168152602001610214565b34801561035757600080fd5b506102d361036636600461283d565b610a4d565b34801561037757600080fd5b50600e54610286906001600160a01b031681565b34801561039757600080fd5b506102be610ae3565b3480156103ac57600080fd5b506102be6103bb3660046128bc565b610b34565b3480156103cc57600080fd5b506102be6103db366004612808565b610b4f565b3480156103ec57600080fd5b506102d36103fb366004612808565b610b80565b34801561040c57600080fd5b50466102d3565b34801561041f57600080fd5b5060075460ff16610208565b34801561043757600080fd5b506102d37f000000000000000000000000000000000000000000000000000000000000000081565b34801561046b57600080fd5b5061028661047a366004612808565b610c13565b34801561048b57600080fd5b506102d361049a3660046128f8565b610c73565b3480156104ab57600080fd5b506102be610cf9565b3480156104c057600080fd5b506102be6104cf366004612913565b610d0b565b3480156104e057600080fd5b506102be610d72565b3480156104f557600080fd5b5060075461010090046001600160a01b0316610286565b34801561051857600080fd5b50610259610dc1565b34801561052d57600080fd5b506102be61053c366004612934565b610dd0565b34801561054d57600080fd5b50600d546102869061010090046001600160a01b031681565b34801561057257600080fd5b506102be61058136600461297b565b610ddf565b34801561059257600080fd5b506102596105a1366004612808565b610e17565b3480156105b257600080fd5b506102d36105c1366004612a57565b610e22565b3480156105d257600080fd5b506102086105e1366004612ada565b610ea5565b3480156105f257600080fd5b506102be6106013660046128f8565b610efc565b600061061182610f72565b92915050565b60606000805461062690612b0d565b80601f016020809104026020016040519081016040528092919081815260200182805461065290612b0d565b801561069f5780601f106106745761010080835404028352916020019161069f565b820191906000526020600020905b81548152906001019060200180831161068257829003601f168201915b5050505050905090565b60006106b482610f97565b506000908152600460205260409020546001600160a01b031690565b60006106db82610c13565b9050806001600160a01b0316836001600160a01b0316141561074e5760405162461bcd60e51b815260206004820152602160248201527f4552433732313a20617070726f76616c20746f2063757272656e74206f776e656044820152603960f91b60648201526084015b60405180910390fd5b336001600160a01b038216148061076a575061076a8133610ea5565b6107dc5760405162461bcd60e51b815260206004820152603e60248201527f4552433732313a20617070726f76652063616c6c6572206973206e6f7420746f60448201527f6b656e206f776e6572206e6f7220617070726f76656420666f7220616c6c00006064820152608401610745565b6107e68383610ff6565b505050565b60006107f5611064565b6000610800836110aa565b905061080f60208401846128f8565b6001600160a01b0316816001600160a01b0316146108635760405162461bcd60e51b815260206004820152601160248201527014da59db985d1d5c99481a5b9d985b1a59607a1b6044820152606401610745565b82602001353410156108b75760405162461bcd60e51b815260206004820152601c60248201527f496e73756666696369656e742066756e647320746f2072656465656d000000006044820152606401610745565b60006108c1611103565b600e546040519192506000916001600160a01b039091169083908381818185875af1925050503d8060008114610913576040519150601f19603f3d011682016040523d82523d6000602084013e610918565b606091505b505090508061095b5760405162461bcd60e51b815260206004820152600f60248201526e151c985b9cd9995c8819985a5b1959608a1b6044820152606401610745565b600061097f61096d60208801886128f8565b61097a6040890189612b48565b611131565b905061099861099160208801886128f8565b8883611282565b600d5461010090046001600160a01b031663e6d07de96109b88534612ba5565b6040516001600160e01b031960e084901b1681526001600160a01b03881660048201526024016000604051808303818588803b1580156109f757600080fd5b505af1158015610a0b573d6000803e3d6000fd5b50939a9950505050505050505050565b610a26335b82611429565b610a425760405162461bcd60e51b815260040161074590612bbc565b6107e6838383611282565b6000610a5883610c73565b8210610aba5760405162461bcd60e51b815260206004820152602b60248201527f455243373231456e756d657261626c653a206f776e657220696e646578206f7560448201526a74206f6620626f756e647360a81b6064820152608401610745565b506001600160a01b03919091166000908152600860209081526040808320938352929052205490565b610aed3333610ea5565b610b2a5760405162461bcd60e51b815260206004820152600e60248201526d139bdd08185d5d1a1bdc9a5e995960921b6044820152606401610745565b610b326114d2565b565b6107e683838360405180602001604052806000815250610ddf565b610b5833610a20565b610b745760405162461bcd60e51b815260040161074590612bbc565b610b7d81611524565b50565b6000610b8b600a5490565b8210610bee5760405162461bcd60e51b815260206004820152602c60248201527f455243373231456e756d657261626c653a20676c6f62616c20696e646578206f60448201526b7574206f6620626f756e647360a01b6064820152608401610745565b600a8281548110610c0157610c01612c0a565b90600052602060002001549050919050565b6000818152600260205260408120546001600160a01b0316806106115760405162461bcd60e51b8152602060048201526018602482015277115490cdcc8c4e881a5b9d985b1a59081d1bdad95b88125160421b6044820152606401610745565b60006001600160a01b038216610cdd5760405162461bcd60e51b815260206004820152602960248201527f4552433732313a2061646472657373207a65726f206973206e6f7420612076616044820152683634b21037bbb732b960b91b6064820152608401610745565b506001600160a01b031660009081526003602052604090205490565b610d0161152d565b610b32600061158d565b610d1361152d565b7f2a84386076f08e18b35c0fd50fee06abe5278e5ef64da9b565736ba7e93726998133604051610d44929190612c20565b60405180910390a1600d805482919060ff191660018381811115610d6a57610d6a612757565b021790555050565b610d7c3333610ea5565b610db95760405162461bcd60e51b815260206004820152600e60248201526d139bdd08185d5d1a1bdc9a5e995960921b6044820152606401610745565b610b326115e7565b60606001805461062690612b0d565b610ddb338383611624565b5050565b610de93383611429565b610e055760405162461bcd60e51b815260040161074590612bbc565b610e11848484846116f3565b50505050565b606061061182611726565b6000610e2c611064565b6000600d5460ff166001811115610e4557610e45612757565b14610e925760405162461bcd60e51b815260206004820152601f60248201527f506f6c696379206f6e6c7920616c6c6f7773206c617a79206d696e74696e67006044820152606401610745565b610e9d848484611131565b949350505050565b600d546000906001600160a01b03838116610100909204161415610ecb57506001610611565b6001600160a01b0380841660009081526005602090815260408083209386168352929052205460ff165b9392505050565b610f0461152d565b6001600160a01b038116610f695760405162461bcd60e51b815260206004820152602660248201527f4f776e61626c653a206e6577206f776e657220697320746865207a65726f206160448201526564647265737360d01b6064820152608401610745565b610b7d8161158d565b60006001600160e01b0319821663780e9d6360e01b148061061157506106118261182f565b6000818152600260205260409020546001600160a01b0316610b7d5760405162461bcd60e51b8152602060048201526018602482015277115490cdcc8c4e881a5b9d985b1a59081d1bdad95b88125160421b6044820152606401610745565b600081815260046020526040902080546001600160a01b0319166001600160a01b038416908117909155819061102b82610c13565b6001600160a01b03167f8c5be1e5ebec7d5bd14f71427d1e84f3dd0314c0f7b2291e5b200ac8c7c3b92560405160405180910390a45050565b60075460ff1615610b325760405162461bcd60e51b815260206004820152601060248201526f14185d5cd8589b194e881c185d5cd95960821b6044820152606401610745565b6000806110b68361187f565b9050610ef5816110c96060860186612b48565b8080601f01602080910402602001604051908101604052809392919081815260200183838082843760009201919091525061192492505050565b600d546000906127109061112290600160a81b900461ffff1634612c46565b61112c9190612c7b565b905090565b600061113c600c5490565b7f0000000000000000000000000000000000000000000000000000000000000000116111aa5760405162461bcd60e51b815260206004820152601e60248201527f4d6178696d756d206e756d626572206f66204e465473207265616368656400006044820152606401610745565b6111b8600c80546001019055565b60006111c3600c5490565b600d546040516313408a3960e21b81526001600160a01b0388811660048301523060248301526044820184905292935061010090910490911690634d0228e490606401600060405180830381600087803b15801561122057600080fd5b505af1158015611234573d6000803e3d6000fd5b505050506112428582611948565b610e9d8185858080601f016020809104026020016040519081016040528093929190818152602001838380828437600092019190915250611a9692505050565b826001600160a01b031661129582610c13565b6001600160a01b0316146112f95760405162461bcd60e51b815260206004820152602560248201527f4552433732313a207472616e736665722066726f6d20696e636f72726563742060448201526437bbb732b960d91b6064820152608401610745565b6001600160a01b03821661135b5760405162461bcd60e51b8152602060048201526024808201527f4552433732313a207472616e7366657220746f20746865207a65726f206164646044820152637265737360e01b6064820152608401610745565b611366838383611b30565b611371600082610ff6565b6001600160a01b038316600090815260036020526040812080546001929061139a908490612ba5565b90915550506001600160a01b03821660009081526003602052604081208054600192906113c8908490612c8f565b909155505060008181526002602052604080822080546001600160a01b0319166001600160a01b0386811691821790925591518493918716917fddf252ad1be2c89b69c2b068fc378daa952ba7f163c4a11628f55a4df523b3ef91a4505050565b6000818152600260205260408120546001600160a01b03166114a25760405162461bcd60e51b815260206004820152602c60248201527f4552433732313a206f70657261746f7220717565727920666f72206e6f6e657860448201526b34b9ba32b73a103a37b5b2b760a11b6064820152608401610745565b60006114ad83610c13565b90506114b98185610ea5565b156114c8576001915050610611565b610e9d8484611b3b565b6114da611b99565b6007805460ff191690557f5db9ee0a495bf2e6ff9c91a7834c1ba4fdd244a5e8aa4e537bd38aeae4b073aa335b6040516001600160a01b03909116815260200160405180910390a1565b610b7d81611be2565b6007546001600160a01b03610100909104163314610b325760405162461bcd60e51b815260206004820181905260248201527f4f776e61626c653a2063616c6c6572206973206e6f7420746865206f776e65726044820152606401610745565b600780546001600160a01b03838116610100818102610100600160a81b031985161790945560405193909204169182907f8be0079c531659141344cd1fd0a4f28419497f9722a3daafe3b4186f6b6457e090600090a35050565b6115ef611064565b6007805460ff191660011790557f62e78cea01bee320cd4e420270b5ea74000d11b0c9f74754ebdbfc544b05a2586115073390565b816001600160a01b0316836001600160a01b031614156116865760405162461bcd60e51b815260206004820152601960248201527f4552433732313a20617070726f766520746f2063616c6c6572000000000000006044820152606401610745565b6001600160a01b03838116600081815260056020908152604080832094871680845294825291829020805460ff191686151590811790915591519182527f17307eab39ab6107e8899845ad3d59bd9653f200f220920489ca2b5937696c31910160405180910390a3505050565b6116fe848484611282565b61170a84848484611c22565b610e115760405162461bcd60e51b815260040161074590612ca7565b606061173182610f97565b6000828152600660205260408120805461174a90612b0d565b80601f016020809104026020016040519081016040528092919081815260200182805461177690612b0d565b80156117c35780601f10611798576101008083540402835291602001916117c3565b820191906000526020600020905b8154815290600101906020018083116117a657829003601f168201915b5050505050905060006117e160408051602081019091526000815290565b90508051600014156117f4575092915050565b81511561182657808260405160200161180e929190612cf9565b60405160208183030381529060405292505050919050565b610e9d84611d2f565b60006001600160e01b031982166380ac58cd60e01b148061186057506001600160e01b03198216635b5e139f60e01b145b8061061157506301ffc9a760e01b6001600160e01b0319831614610611565b60006106117fe2c1fe55ff75bc6c0f1e92db9b907c57038a5f95f7c137ff4bf9e10a15bc3d016118b260208501856128f8565b60208501356118c46040870187612b48565b6040516118d2929190612d28565b604051908190038120611909949392916020019384526001600160a01b039290921660208401526040830152606082015260800190565b60405160208183030381529060405280519060200120611da2565b60008060006119338585611df0565b9150915061194081611e60565b509392505050565b6001600160a01b03821661199e5760405162461bcd60e51b815260206004820181905260248201527f4552433732313a206d696e7420746f20746865207a65726f20616464726573736044820152606401610745565b6000818152600260205260409020546001600160a01b031615611a035760405162461bcd60e51b815260206004820152601c60248201527f4552433732313a20746f6b656e20616c7265616479206d696e746564000000006044820152606401610745565b611a0f60008383611b30565b6001600160a01b0382166000908152600360205260408120805460019290611a38908490612c8f565b909155505060008181526002602052604080822080546001600160a01b0319166001600160a01b03861690811790915590518392907fddf252ad1be2c89b69c2b068fc378daa952ba7f163c4a11628f55a4df523b3ef908290a45050565b6000828152600260205260409020546001600160a01b0316611b115760405162461bcd60e51b815260206004820152602e60248201527f45524337323155524953746f726167653a2055524920736574206f66206e6f6e60448201526d32bc34b9ba32b73a103a37b5b2b760911b6064820152608401610745565b600082815260066020908152604090912082516107e692840190612655565b6107e683838361201b565b600080611b4783610c13565b9050806001600160a01b0316846001600160a01b03161480611b6e5750611b6e8185610ea5565b80610e9d5750836001600160a01b0316611b87846106a9565b6001600160a01b031614949350505050565b60075460ff16610b325760405162461bcd60e51b815260206004820152601460248201527314185d5cd8589b194e881b9bdd081c185d5cd95960621b6044820152606401610745565b611beb816120d3565b60008181526006602052604090208054611c0490612b0d565b159050610b7d576000818152600660205260408120610b7d916126d9565b60006001600160a01b0384163b15611d2457604051630a85bd0160e11b81526001600160a01b0385169063150b7a0290611c66903390899088908890600401612d38565b602060405180830381600087803b158015611c8057600080fd5b505af1925050508015611cb0575060408051601f3d908101601f19168201909252611cad91810190612d75565b60015b611d0a573d808015611cde576040519150601f19603f3d011682016040523d82523d6000602084013e611ce3565b606091505b508051611d025760405162461bcd60e51b815260040161074590612ca7565b805181602001fd5b6001600160e01b031916630a85bd0160e11b149050610e9d565b506001949350505050565b6060611d3a82610f97565b6000611d5160408051602081019091526000815290565b90506000815111611d715760405180602001604052806000815250610ef5565b80611d7b8461217a565b604051602001611d8c929190612cf9565b6040516020818303038152906040529392505050565b6000610611611daf612278565b8360405161190160f01b6020820152602281018390526042810182905260009060620160405160208183030381529060405280519060200120905092915050565b600080825160411415611e275760208301516040840151606085015160001a611e1b8782858561239f565b94509450505050611e59565b825160401415611e515760208301516040840151611e4686838361248c565b935093505050611e59565b506000905060025b9250929050565b6000816004811115611e7457611e74612757565b1415611e7d5750565b6001816004811115611e9157611e91612757565b1415611edf5760405162461bcd60e51b815260206004820152601860248201527f45434453413a20696e76616c6964207369676e617475726500000000000000006044820152606401610745565b6002816004811115611ef357611ef3612757565b1415611f415760405162461bcd60e51b815260206004820152601f60248201527f45434453413a20696e76616c6964207369676e6174757265206c656e677468006044820152606401610745565b6003816004811115611f5557611f55612757565b1415611fae5760405162461bcd60e51b815260206004820152602260248201527f45434453413a20696e76616c6964207369676e6174757265202773272076616c604482015261756560f01b6064820152608401610745565b6004816004811115611fc257611fc2612757565b1415610b7d5760405162461bcd60e51b815260206004820152602260248201527f45434453413a20696e76616c6964207369676e6174757265202776272076616c604482015261756560f01b6064820152608401610745565b6001600160a01b0383166120765761207181600a80546000838152600b60205260408120829055600182018355919091527fc65a7bb8d6351c1cf70c95a316cc6a92839c986682d98bc35f958f4883f9d2a80155565b612099565b816001600160a01b0316836001600160a01b0316146120995761209983826124c5565b6001600160a01b0382166120b0576107e681612562565b826001600160a01b0316826001600160a01b0316146107e6576107e68282612611565b60006120de82610c13565b90506120ec81600084611b30565b6120f7600083610ff6565b6001600160a01b0381166000908152600360205260408120805460019290612120908490612ba5565b909155505060008281526002602052604080822080546001600160a01b0319169055518391906001600160a01b038416907fddf252ad1be2c89b69c2b068fc378daa952ba7f163c4a11628f55a4df523b3ef908390a45050565b60608161219e5750506040805180820190915260018152600360fc1b602082015290565b8160005b81156121c857806121b281612d92565b91506121c19050600a83612c7b565b91506121a2565b60008167ffffffffffffffff8111156121e3576121e3612965565b6040519080825280601f01601f19166020018201604052801561220d576020820181803683370190505b5090505b8415610e9d57612222600183612ba5565b915061222f600a86612dad565b61223a906030612c8f565b60f81b81838151811061224f5761224f612c0a565b60200101906001600160f81b031916908160001a905350612271600a86612c7b565b9450612211565b6000306001600160a01b037f0000000000000000000000000000000000000000000000000000000000000000161480156122d157507f000000000000000000000000000000000000000000000000000000000000000046145b156122fb57507f000000000000000000000000000000000000000000000000000000000000000090565b50604080517f00000000000000000000000000000000000000000000000000000000000000006020808301919091527f0000000000000000000000000000000000000000000000000000000000000000828401527f000000000000000000000000000000000000000000000000000000000000000060608301524660808301523060a0808401919091528351808403909101815260c0909201909252805191012090565b6000807f7fffffffffffffffffffffffffffffff5d576e7357a4501ddfe92f46681b20a08311156123d65750600090506003612483565b8460ff16601b141580156123ee57508460ff16601c14155b156123ff5750600090506004612483565b6040805160008082526020820180845289905260ff881692820192909252606081018690526080810185905260019060a0016020604051602081039080840390855afa158015612453573d6000803e3d6000fd5b5050604051601f1901519150506001600160a01b03811661247c57600060019250925050612483565b9150600090505b94509492505050565b6000806001600160ff1b038316816124a960ff86901c601b612c8f565b90506124b78782888561239f565b935093505050935093915050565b600060016124d284610c73565b6124dc9190612ba5565b60008381526009602052604090205490915080821461252f576001600160a01b03841660009081526008602090815260408083208584528252808320548484528184208190558352600990915290208190555b5060009182526009602090815260408084208490556001600160a01b039094168352600881528383209183525290812055565b600a5460009061257490600190612ba5565b6000838152600b6020526040812054600a805493945090928490811061259c5761259c612c0a565b9060005260206000200154905080600a83815481106125bd576125bd612c0a565b6000918252602080832090910192909255828152600b9091526040808220849055858252812055600a8054806125f5576125f5612dc1565b6001900381819060005260206000200160009055905550505050565b600061261c83610c73565b6001600160a01b039093166000908152600860209081526040808320868452825280832085905593825260099052919091209190915550565b82805461266190612b0d565b90600052602060002090601f01602090048101928261268357600085556126c9565b82601f1061269c57805160ff19168380011785556126c9565b828001600101855582156126c9579182015b828111156126c95782518255916020019190600101906126ae565b506126d592915061270f565b5090565b5080546126e590612b0d565b6000825580601f106126f5575050565b601f016020900490600052602060002090810190610b7d91905b5b808211156126d55760008155600101612710565b6001600160e01b031981168114610b7d57600080fd5b60006020828403121561274c57600080fd5b8135610ef581612724565b634e487b7160e01b600052602160045260246000fd5b6002811061278b57634e487b7160e01b600052602160045260246000fd5b9052565b60208101610611828461276d565b60005b838110156127b85781810151838201526020016127a0565b83811115610e115750506000910152565b600081518084526127e181602086016020860161279d565b601f01601f19169290920160200192915050565b602081526000610ef560208301846127c9565b60006020828403121561281a57600080fd5b5035919050565b80356001600160a01b038116811461283857600080fd5b919050565b6000806040838503121561285057600080fd5b61285983612821565b946020939093013593505050565b6000806040838503121561287a57600080fd5b61288383612821565b9150602083013567ffffffffffffffff81111561289f57600080fd5b8301608081860312156128b157600080fd5b809150509250929050565b6000806000606084860312156128d157600080fd5b6128da84612821565b92506128e860208501612821565b9150604084013590509250925092565b60006020828403121561290a57600080fd5b610ef582612821565b60006020828403121561292557600080fd5b813560028110610ef557600080fd5b6000806040838503121561294757600080fd5b61295083612821565b9150602083013580151581146128b157600080fd5b634e487b7160e01b600052604160045260246000fd5b6000806000806080858703121561299157600080fd5b61299a85612821565b93506129a860208601612821565b925060408501359150606085013567ffffffffffffffff808211156129cc57600080fd5b818701915087601f8301126129e057600080fd5b8135818111156129f2576129f2612965565b604051601f8201601f19908116603f01168101908382118183101715612a1a57612a1a612965565b816040528281528a6020848701011115612a3357600080fd5b82602086016020830137600060208483010152809550505050505092959194509250565b600080600060408486031215612a6c57600080fd5b612a7584612821565b9250602084013567ffffffffffffffff80821115612a9257600080fd5b818601915086601f830112612aa657600080fd5b813581811115612ab557600080fd5b876020828501011115612ac757600080fd5b6020830194508093505050509250925092565b60008060408385031215612aed57600080fd5b612af683612821565b9150612b0460208401612821565b90509250929050565b600181811c90821680612b2157607f821691505b60208210811415612b4257634e487b7160e01b600052602260045260246000fd5b50919050565b6000808335601e19843603018112612b5f57600080fd5b83018035915067ffffffffffffffff821115612b7a57600080fd5b602001915036819003821315611e5957600080fd5b634e487b7160e01b600052601160045260246000fd5b600082821015612bb757612bb7612b8f565b500390565b6020808252602e908201527f4552433732313a2063616c6c6572206973206e6f7420746f6b656e206f776e6560408201526d1c881b9bdc88185c1c1c9bdd995960921b606082015260800190565b634e487b7160e01b600052603260045260246000fd5b60408101612c2e828561276d565b6001600160a01b039290921660209190910152919050565b6000816000190483118215151615612c6057612c60612b8f565b500290565b634e487b7160e01b600052601260045260246000fd5b600082612c8a57612c8a612c65565b500490565b60008219821115612ca257612ca2612b8f565b500190565b60208082526032908201527f4552433732313a207472616e7366657220746f206e6f6e20455243373231526560408201527131b2b4bb32b91034b6b83632b6b2b73a32b960711b606082015260800190565b60008351612d0b81846020880161279d565b835190830190612d1f81836020880161279d565b01949350505050565b8183823760009101908152919050565b6001600160a01b0385811682528416602082015260408101839052608060608201819052600090612d6b908301846127c9565b9695505050505050565b600060208284031215612d8757600080fd5b8151610ef581612724565b6000600019821415612da657612da6612b8f565b5060010190565b600082612dbc57612dbc612c65565b500690565b634e487b7160e01b600052603160045260246000fdfea26469706673582212203b8f11054906e644d9e05051a9084601241da0cccdcb2a1ed915a6c5dcdd1d4064736f6c63430008090033",
  "linkReferences": {},
  "deployedLinkReferences": {}
}