{
  "_format": "hh-sol-artifact-1",
  "contractName": "ArtongNFTFactory",
  "sourceName": "contracts/ArtongNFTFactory.sol",
  "abi": [
    {
      "inputs": [
        {
          "internalType": "address",
          "name": "_marketplace",
          "type": "address"
        },
        {
          "internalType": "address payable",
          "name": "_feeRecipient",
          "type": "address"
        },
        {
          "internalType": "uint16",
          "name": "_platformFee",
          "type": "uint16"
        },
        {
          "internalType": "address",
          "name": "_beacon",
          "type": "address"
        }
      ],
      "stateMutability": "nonpayable",
      "type": "constructor"
    },
    {
      "anonymous": false,
      "inputs": [
        {
          "indexed": false,
          "internalType": "address",
          "name": "creator",
          "type": "address"
        },
        {
          "indexed": false,
          "internalType": "address",
          "name": "nft",
          "type": "address"
        },
        {
          "indexed": false,
          "internalType": "string",
          "name": "name",
          "type": "string"
        },
        {
          "indexed": false,
          "internalType": "string",
          "name": "symbol",
          "type": "string"
        },
        {
          "indexed": false,
          "internalType": "uint256",
          "name": "maxAmount",
          "type": "uint256"
        },
        {
          "indexed": false,
          "internalType": "enum Policy",
          "name": "policy",
          "type": "uint8"
        }
      ],
      "name": "ContractCreated",
      "type": "event"
    },
    {
      "anonymous": false,
      "inputs": [
        {
          "indexed": false,
          "internalType": "address",
          "name": "caller",
          "type": "address"
        },
        {
          "indexed": false,
          "internalType": "address",
          "name": "nft",
          "type": "address"
        }
      ],
      "name": "ContractDisabled",
      "type": "event"
    },
    {
      "anonymous": false,
      "inputs": [
        {
          "indexed": false,
          "internalType": "address",
          "name": "creator",
          "type": "address"
        },
        {
          "indexed": false,
          "internalType": "address",
          "name": "nft",
          "type": "address"
        }
      ],
      "name": "ContractRegistered",
      "type": "event"
    },
    {
      "anonymous": false,
      "inputs": [
        {
          "indexed": true,
          "internalType": "address",
          "name": "previousOwner",
          "type": "address"
        },
        {
          "indexed": true,
          "internalType": "address",
          "name": "newOwner",
          "type": "address"
        }
      ],
      "name": "OwnershipTransferred",
      "type": "event"
    },
    {
      "inputs": [
        {
          "internalType": "uint256",
          "name": "",
          "type": "uint256"
        }
      ],
      "name": "clonedContracts",
      "outputs": [
        {
          "internalType": "address",
          "name": "",
          "type": "address"
        }
      ],
      "stateMutability": "view",
      "type": "function"
    },
    {
      "inputs": [
        {
          "internalType": "string",
          "name": "_name",
          "type": "string"
        },
        {
          "internalType": "string",
          "name": "_symbol",
          "type": "string"
        },
        {
          "internalType": "uint256",
          "name": "_maxAmount",
          "type": "uint256"
        },
        {
          "internalType": "enum Policy",
          "name": "_policy",
          "type": "uint8"
        }
      ],
      "name": "createNFTContract",
      "outputs": [
        {
          "internalType": "address",
          "name": "",
          "type": "address"
        }
      ],
      "stateMutability": "payable",
      "type": "function"
    },
    {
      "inputs": [],
      "name": "feeRecipient",
      "outputs": [
        {
          "internalType": "address payable",
          "name": "",
          "type": "address"
        }
      ],
      "stateMutability": "view",
      "type": "function"
    },
    {
      "inputs": [],
      "name": "getClonedContracts",
      "outputs": [
        {
          "internalType": "address[]",
          "name": "",
          "type": "address[]"
        }
      ],
      "stateMutability": "view",
      "type": "function"
    },
    {
      "inputs": [],
      "name": "marketplace",
      "outputs": [
        {
          "internalType": "address",
          "name": "",
          "type": "address"
        }
      ],
      "stateMutability": "view",
      "type": "function"
    },
    {
      "inputs": [],
      "name": "owner",
      "outputs": [
        {
          "internalType": "address",
          "name": "",
          "type": "address"
        }
      ],
      "stateMutability": "view",
      "type": "function"
    },
    {
      "inputs": [],
      "name": "platformFee",
      "outputs": [
        {
          "internalType": "uint16",
          "name": "",
          "type": "uint16"
        }
      ],
      "stateMutability": "view",
      "type": "function"
    },
    {
      "inputs": [],
      "name": "renounceOwnership",
      "outputs": [],
      "stateMutability": "nonpayable",
      "type": "function"
    },
    {
      "inputs": [
        {
          "internalType": "address",
          "name": "newOwner",
          "type": "address"
        }
      ],
      "name": "transferOwnership",
      "outputs": [],
      "stateMutability": "nonpayable",
      "type": "function"
    },
    {
      "inputs": [
        {
          "internalType": "address payable",
          "name": "_feeRecipient",
          "type": "address"
        }
      ],
      "name": "updateFeeRecipient",
      "outputs": [],
      "stateMutability": "nonpayable",
      "type": "function"
    },
    {
      "inputs": [
        {
          "internalType": "address",
          "name": "_marketplace",
          "type": "address"
        }
      ],
      "name": "updateMarketplace",
      "outputs": [],
      "stateMutability": "nonpayable",
      "type": "function"
    },
    {
      "inputs": [
        {
          "internalType": "uint16",
          "name": "_platformFee",
          "type": "uint16"
        }
      ],
      "name": "updatePlatformFee",
      "outputs": [],
      "stateMutability": "nonpayable",
      "type": "function"
    }
  ],
  "bytecode": "0x60a060405234801561001057600080fd5b506040516114b63803806114b683398101604081905261002f916100f2565b6100383361008a565b60018054600280546001600160a01b039687166001600160a01b03199190911617905561ffff909316600160a01b026001600160b01b0319909316948416949094179190911790925516608052610158565b600080546001600160a01b038381166001600160a01b0319831681178455604051919092169283917f8be0079c531659141344cd1fd0a4f28419497f9722a3daafe3b4186f6b6457e09190a35050565b6001600160a01b03811681146100ef57600080fd5b50565b6000806000806080858703121561010857600080fd5b8451610113816100da565b6020860151909450610124816100da565b604086015190935061ffff8116811461013c57600080fd5b606086015190925061014d816100da565b939692955090935050565b608051611343610173600039600061033c01526113436000f3fe608060405260043610620000b55760003560e01c8063afb06952116200006c578063afb0695214620001b4578063e6411aa514620001d9578063eb63631714620001f0578063f160d3691462000215578063f2fde38b146200023a578063fb82480f146200025f57600080fd5b806326232a2e14620000ba5780634690484014620000f6578063715018a6146200013157806375f7aafe146200014b5780638da5cb5b1462000172578063abc8c7af1462000192575b600080fd5b348015620000c757600080fd5b50600154620000de90600160a01b900461ffff1681565b60405161ffff90911681526020015b60405180910390f35b3480156200010357600080fd5b5060025462000118906001600160a01b031681565b6040516001600160a01b039091168152602001620000ed565b3480156200013e57600080fd5b506200014962000284565b005b3480156200015857600080fd5b50620001636200029c565b604051620000ed91906200065e565b3480156200017f57600080fd5b506000546001600160a01b031662000118565b3480156200019f57600080fd5b5060015462000118906001600160a01b031681565b348015620001c157600080fd5b5062000149620001d3366004620006ad565b62000300565b62000118620001ea36600462000785565b6200032c565b348015620001fd57600080fd5b50620001496200020f36600462000827565b6200049e565b3480156200022257600080fd5b50620001496200023436600462000827565b620004ca565b3480156200024757600080fd5b50620001496200025936600462000827565b620004f6565b3480156200026c57600080fd5b50620001186200027e36600462000847565b62000579565b6200028e620005a4565b6200029a600062000600565b565b60606003805480602002602001604051908101604052809291908181526020018280548015620002f657602002820191906000526020600020905b81546001600160a01b03168152600190910190602001808311620002d7575b5050505050905090565b6200030a620005a4565b6001805461ffff909216600160a01b0261ffff60a01b19909216919091179055565b60015460025460405160009283927f00000000000000000000000000000000000000000000000000000000000000009263022d859360e01b9262000399928b928b926001600160a01b0380821693600160a01b90920461ffff16929116908c908c903390602401620008d4565b60408051601f198184030181529181526020820180516001600160e01b03166001600160e01b0319909416939093179092529051620003d89062000650565b620003e592919062000953565b604051809103906000f08015801562000402573d6000803e3d6000fd5b50600380546001810182556000919091527fc2575a0e9e593c00f959f8c92f12db2869c3395a3b0502d05e2516446f71f85b0180546001600160a01b0319166001600160a01b0383161790556040519091507f3a7b4f8ec4c999d5e111169052be6ed6d3043552a3319cba2c6fb1818e1c13ac906200048d90339084908a908a908a908a9062000981565b60405180910390a195945050505050565b620004a8620005a4565b600180546001600160a01b0319166001600160a01b0392909216919091179055565b620004d4620005a4565b600280546001600160a01b0319166001600160a01b0392909216919091179055565b62000500620005a4565b6001600160a01b0381166200056b5760405162461bcd60e51b815260206004820152602660248201527f4f776e61626c653a206e6577206f776e657220697320746865207a65726f206160448201526564647265737360d01b60648201526084015b60405180910390fd5b620005768162000600565b50565b600381815481106200058a57600080fd5b6000918252602090912001546001600160a01b0316905081565b6000546001600160a01b031633146200029a5760405162461bcd60e51b815260206004820181905260248201527f4f776e61626c653a2063616c6c6572206973206e6f7420746865206f776e6572604482015260640162000562565b600080546001600160a01b038381166001600160a01b0319831681178455604051919092169283917f8be0079c531659141344cd1fd0a4f28419497f9722a3daafe3b4186f6b6457e09190a35050565b61092780620009e783390190565b6020808252825182820181905260009190848201906040850190845b81811015620006a15783516001600160a01b0316835292840192918401916001016200067a565b50909695505050505050565b600060208284031215620006c057600080fd5b813561ffff81168114620006d357600080fd5b9392505050565b634e487b7160e01b600052604160045260246000fd5b600082601f8301126200070257600080fd5b813567ffffffffffffffff80821115620007205762000720620006da565b604051601f8301601f19908116603f011681019082821181831017156200074b576200074b620006da565b816040528381528660208588010111156200076557600080fd5b836020870160208301376000602085830101528094505050505092915050565b600080600080608085870312156200079c57600080fd5b843567ffffffffffffffff80821115620007b557600080fd5b620007c388838901620006f0565b95506020870135915080821115620007da57600080fd5b50620007e987828801620006f0565b935050604085013591506060850135600281106200080657600080fd5b939692955090935050565b6001600160a01b03811681146200057657600080fd5b6000602082840312156200083a57600080fd5b8135620006d38162000811565b6000602082840312156200085a57600080fd5b5035919050565b6000815180845260005b8181101562000889576020818501810151868301820152016200086b565b818111156200089c576000602083870101525b50601f01601f19169290920160200192915050565b60028110620008d057634e487b7160e01b600052602160045260246000fd5b9052565b6000610100808352620008ea8184018c62000861565b9050828103602084015262000900818b62000861565b6001600160a01b038a8116604086015261ffff8a166060860152888116608086015260a0850188905290925090506200093d60c0840186620008b1565b80841660e0840152509998505050505050505050565b6001600160a01b0383168152604060208201819052600090620009799083018462000861565b949350505050565b6001600160a01b0387811682528616602082015260c060408201819052600090620009af9083018762000861565b8281036060840152620009c3818762000861565b915050836080830152620009db60a0830184620008b1565b97965050505050505056fe608060405260405161092738038061092783398101604081905261002291610474565b61002e82826000610035565b505061059e565b61003e8361010f565b6040516001600160a01b038416907f1cf3b03a6cf19fa2baba4df148e9dcabedea7f8a5c07840e207e5c089be95d3e90600090a260008251118061007f5750805b1561010a57610108836001600160a01b0316635c60da1b6040518163ffffffff1660e01b815260040160206040518083038186803b1580156100c057600080fd5b505afa1580156100d4573d6000803e3d6000fd5b505050506040513d601f19601f820116820180604052508101906100f89190610534565b836102c160201b6100291760201c565b505b505050565b610122816102ed60201b6100551760201c565b6101815760405162461bcd60e51b815260206004820152602560248201527f455243313936373a206e657720626561636f6e206973206e6f74206120636f6e6044820152641d1c9858dd60da1b60648201526084015b60405180910390fd5b610204816001600160a01b0316635c60da1b6040518163ffffffff1660e01b815260040160206040518083038186803b1580156101bd57600080fd5b505afa1580156101d1573d6000803e3d6000fd5b505050506040513d601f19601f820116820180604052508101906101f59190610534565b6102ed60201b6100551760201c565b6102695760405162461bcd60e51b815260206004820152603060248201527f455243313936373a20626561636f6e20696d706c656d656e746174696f6e206960448201526f1cc81b9bdd08184818dbdb9d1c9858dd60821b6064820152608401610178565b806102a07fa3f0ad74e5423aebfd80d3ef4346578335a9a72aeaee59ff6cb3582b35133d5060001b6102fc60201b6100641760201c565b80546001600160a01b0319166001600160a01b039290921691909117905550565b60606102e68383604051806060016040528060278152602001610900602791396102ff565b9392505050565b6001600160a01b03163b151590565b90565b60606001600160a01b0384163b6103675760405162461bcd60e51b815260206004820152602660248201527f416464726573733a2064656c65676174652063616c6c20746f206e6f6e2d636f6044820152651b9d1c9858dd60d21b6064820152608401610178565b600080856001600160a01b031685604051610382919061054f565b600060405180830381855af49150503d80600081146103bd576040519150601f19603f3d011682016040523d82523d6000602084013e6103c2565b606091505b5090925090506103d38282866103dd565b9695505050505050565b606083156103ec5750816102e6565b8251156103fc5782518084602001fd5b8160405162461bcd60e51b8152600401610178919061056b565b80516001600160a01b038116811461042d57600080fd5b919050565b634e487b7160e01b600052604160045260246000fd5b60005b8381101561046357818101518382015260200161044b565b838111156101085750506000910152565b6000806040838503121561048757600080fd5b61049083610416565b60208401519092506001600160401b03808211156104ad57600080fd5b818501915085601f8301126104c157600080fd5b8151818111156104d3576104d3610432565b604051601f8201601f19908116603f011681019083821181831017156104fb576104fb610432565b8160405282815288602084870101111561051457600080fd5b610525836020830160208801610448565b80955050505050509250929050565b60006020828403121561054657600080fd5b6102e682610416565b60008251610561818460208701610448565b9190910192915050565b602081526000825180602084015261058a816040850160208701610448565b601f01601f19169190910160400192915050565b610353806105ad6000396000f3fe60806040523661001357610011610017565b005b6100115b610027610022610067565b61010f565b565b606061004e83836040518060600160405280602781526020016102f760279139610133565b9392505050565b6001600160a01b03163b151590565b90565b600061009a7fa3f0ad74e5423aebfd80d3ef4346578335a9a72aeaee59ff6cb3582b35133d50546001600160a01b031690565b6001600160a01b0316635c60da1b6040518163ffffffff1660e01b815260040160206040518083038186803b1580156100d257600080fd5b505afa1580156100e6573d6000803e3d6000fd5b505050506040513d601f19601f8201168201806040525081019061010a919061024e565b905090565b3660008037600080366000845af43d6000803e80801561012e573d6000f35b3d6000fd5b60606001600160a01b0384163b6101a05760405162461bcd60e51b815260206004820152602660248201527f416464726573733a2064656c65676174652063616c6c20746f206e6f6e2d636f6044820152651b9d1c9858dd60d21b60648201526084015b60405180910390fd5b600080856001600160a01b0316856040516101bb91906102a7565b600060405180830381855af49150503d80600081146101f6576040519150601f19603f3d011682016040523d82523d6000602084013e6101fb565b606091505b509150915061020b828286610215565b9695505050505050565b6060831561022457508161004e565b8251156102345782518084602001fd5b8160405162461bcd60e51b815260040161019791906102c3565b60006020828403121561026057600080fd5b81516001600160a01b038116811461004e57600080fd5b60005b8381101561029257818101518382015260200161027a565b838111156102a1576000848401525b50505050565b600082516102b9818460208701610277565b9190910192915050565b60208152600082518060208401526102e2816040850160208701610277565b601f01601f1916919091016040019291505056fe416464726573733a206c6f772d6c6576656c2064656c65676174652063616c6c206661696c6564a264697066735822122018acc2d30d6f04b2a602a8ded4017b070d77505a98128a7f82b62b494c75675b64736f6c63430008090033416464726573733a206c6f772d6c6576656c2064656c65676174652063616c6c206661696c6564a264697066735822122029fc141dfb1d57dcf0126829ea42324c9e7fe5a5e2485dbc0269a70ed19b401d64736f6c63430008090033",
  "linkReferences": {},
  "deployedLinkReferences": {}
}