{
  "_format": "hh-sol-artifact-1",
  "contractName": "ArtongNFTFactory",
  "sourceName": "contracts/ArtongNFTFactory.sol",
  "abi": [
    {
      "inputs": [
        {
          "internalType": "address",
          "name": "_marketplace",
          "type": "address"
        },
        {
          "internalType": "address payable",
          "name": "_feeRecipient",
          "type": "address"
        },
        {
          "internalType": "uint16",
          "name": "_platformFee",
          "type": "uint16"
        }
      ],
      "stateMutability": "nonpayable",
      "type": "constructor"
    },
    {
      "anonymous": false,
      "inputs": [
        {
          "indexed": false,
          "internalType": "address",
          "name": "creator",
          "type": "address"
        },
        {
          "indexed": false,
          "internalType": "address",
          "name": "nft",
          "type": "address"
        }
      ],
      "name": "ContractCreated",
      "type": "event"
    },
    {
      "anonymous": false,
      "inputs": [
        {
          "indexed": false,
          "internalType": "address",
          "name": "caller",
          "type": "address"
        },
        {
          "indexed": false,
          "internalType": "address",
          "name": "nft",
          "type": "address"
        }
      ],
      "name": "ContractDisabled",
      "type": "event"
    },
    {
      "anonymous": false,
      "inputs": [
        {
          "indexed": true,
          "internalType": "address",
          "name": "previousOwner",
          "type": "address"
        },
        {
          "indexed": true,
          "internalType": "address",
          "name": "newOwner",
          "type": "address"
        }
      ],
      "name": "OwnershipTransferred",
      "type": "event"
    },
    {
      "inputs": [
        {
          "internalType": "string",
          "name": "_name",
          "type": "string"
        },
        {
          "internalType": "string",
          "name": "_symbol",
          "type": "string"
        },
        {
          "internalType": "uint256",
          "name": "_maxAmount",
          "type": "uint256"
        },
        {
          "internalType": "enum Policy",
          "name": "_policy",
          "type": "uint8"
        }
      ],
      "name": "createNFTContract",
      "outputs": [
        {
          "internalType": "address",
          "name": "",
          "type": "address"
        }
      ],
      "stateMutability": "payable",
      "type": "function"
    },
    {
      "inputs": [
        {
          "internalType": "address",
          "name": "tokenContractAddress",
          "type": "address"
        }
      ],
      "name": "disableTokenContract",
      "outputs": [],
      "stateMutability": "nonpayable",
      "type": "function"
    },
    {
      "inputs": [
        {
          "internalType": "address",
          "name": "",
          "type": "address"
        }
      ],
      "name": "exists",
      "outputs": [
        {
          "internalType": "bool",
          "name": "",
          "type": "bool"
        }
      ],
      "stateMutability": "view",
      "type": "function"
    },
    {
      "inputs": [],
      "name": "feeRecipient",
      "outputs": [
        {
          "internalType": "address payable",
          "name": "",
          "type": "address"
        }
      ],
      "stateMutability": "view",
      "type": "function"
    },
    {
      "inputs": [],
      "name": "marketplace",
      "outputs": [
        {
          "internalType": "address",
          "name": "",
          "type": "address"
        }
      ],
      "stateMutability": "view",
      "type": "function"
    },
    {
      "inputs": [],
      "name": "maxAmount",
      "outputs": [
        {
          "internalType": "uint256",
          "name": "",
          "type": "uint256"
        }
      ],
      "stateMutability": "view",
      "type": "function"
    },
    {
      "inputs": [],
      "name": "owner",
      "outputs": [
        {
          "internalType": "address",
          "name": "",
          "type": "address"
        }
      ],
      "stateMutability": "view",
      "type": "function"
    },
    {
      "inputs": [],
      "name": "platformFee",
      "outputs": [
        {
          "internalType": "uint16",
          "name": "",
          "type": "uint16"
        }
      ],
      "stateMutability": "view",
      "type": "function"
    },
    {
      "inputs": [],
      "name": "policy",
      "outputs": [
        {
          "internalType": "enum Policy",
          "name": "",
          "type": "uint8"
        }
      ],
      "stateMutability": "view",
      "type": "function"
    },
    {
      "inputs": [
        {
          "internalType": "address",
          "name": "tokenContractAddress",
          "type": "address"
        }
      ],
      "name": "registerTokenContract",
      "outputs": [],
      "stateMutability": "nonpayable",
      "type": "function"
    },
    {
      "inputs": [],
      "name": "renounceOwnership",
      "outputs": [],
      "stateMutability": "nonpayable",
      "type": "function"
    },
    {
      "inputs": [
        {
          "internalType": "address",
          "name": "newOwner",
          "type": "address"
        }
      ],
      "name": "transferOwnership",
      "outputs": [],
      "stateMutability": "nonpayable",
      "type": "function"
    },
    {
      "inputs": [
        {
          "internalType": "address payable",
          "name": "_feeRecipient",
          "type": "address"
        }
      ],
      "name": "updateFeeRecipient",
      "outputs": [],
      "stateMutability": "nonpayable",
      "type": "function"
    },
    {
      "inputs": [
        {
          "internalType": "address",
          "name": "_marketplace",
          "type": "address"
        }
      ],
      "name": "updateMarketplace",
      "outputs": [],
      "stateMutability": "nonpayable",
      "type": "function"
    },
    {
      "inputs": [
        {
          "internalType": "uint16",
          "name": "_platformFee",
          "type": "uint16"
        }
      ],
      "name": "updatePlatformFee",
      "outputs": [],
      "stateMutability": "nonpayable",
      "type": "function"
    }
  ],
  "bytecode": "0x60806040523480156200001157600080fd5b5060405162006f9038038062006f908339818101604052810190620000379190620002b9565b620000576200004b620000ff60201b60201c565b6200010760201b60201c565b82600160006101000a81548173ffffffffffffffffffffffffffffffffffffffff021916908373ffffffffffffffffffffffffffffffffffffffff16021790555081600260006101000a81548173ffffffffffffffffffffffffffffffffffffffff021916908373ffffffffffffffffffffffffffffffffffffffff16021790555080600160146101000a81548161ffff021916908361ffff16021790555050505062000315565b600033905090565b60008060009054906101000a900473ffffffffffffffffffffffffffffffffffffffff169050816000806101000a81548173ffffffffffffffffffffffffffffffffffffffff021916908373ffffffffffffffffffffffffffffffffffffffff1602179055508173ffffffffffffffffffffffffffffffffffffffff168173ffffffffffffffffffffffffffffffffffffffff167f8be0079c531659141344cd1fd0a4f28419497f9722a3daafe3b4186f6b6457e060405160405180910390a35050565b600080fd5b600073ffffffffffffffffffffffffffffffffffffffff82169050919050565b6000620001fd82620001d0565b9050919050565b6200020f81620001f0565b81146200021b57600080fd5b50565b6000815190506200022f8162000204565b92915050565b60006200024282620001d0565b9050919050565b620002548162000235565b81146200026057600080fd5b50565b600081519050620002748162000249565b92915050565b600061ffff82169050919050565b62000293816200027a565b81146200029f57600080fd5b50565b600081519050620002b38162000288565b92915050565b600080600060608486031215620002d557620002d4620001cb565b5b6000620002e5868287016200021e565b9350506020620002f88682870162000263565b92505060406200030b86828701620002a2565b9150509250925092565b616c6b80620003256000396000f3fe608060405260043610620000fe5760003560e01c8063afb069521162000097578063f160d3691162000061578063f160d36914620002fd578063f2fde38b146200032b578063f6a3d24e1462000359578063f7b0770b146200039d57620000fe565b8063afb06952146200023d578063d39bb16a146200026b578063e6411aa51462000299578063eb63631714620002cf57620000fe565b80635f48f39311620000d95780635f48f3931462000193578063715018a614620001c35780638da5cb5b14620001dd578063abc8c7af146200020d57620000fe565b80630505c8c9146200010357806326232a2e1462000133578063469048401462000163575b600080fd5b3480156200011057600080fd5b506200011b620003cb565b6040516200012a919062000ce3565b60405180910390f35b3480156200014057600080fd5b506200014b620003de565b6040516200015a919062000d1f565b60405180910390f35b3480156200017057600080fd5b506200017b620003f2565b6040516200018a919062000d81565b60405180910390f35b348015620001a057600080fd5b50620001ab62000418565b604051620001ba919062000db9565b60405180910390f35b348015620001d057600080fd5b50620001db6200041e565b005b348015620001ea57600080fd5b50620001f562000436565b60405162000204919062000dfb565b60405180910390f35b3480156200021a57600080fd5b50620002256200045f565b60405162000234919062000dfb565b60405180910390f35b3480156200024a57600080fd5b5062000269600480360381019062000263919062000e5d565b62000485565b005b3480156200027857600080fd5b5062000297600480360381019062000291919062000ec0565b620004af565b005b620002b76004803603810190620002b19190620010ad565b620005e7565b604051620002c6919062000dfb565b60405180910390f35b348015620002dc57600080fd5b50620002fb6004803603810190620002f5919062000ec0565b62000793565b005b3480156200030a57600080fd5b506200032960048036038101906200032391906200118e565b620007e1565b005b3480156200033857600080fd5b5062000357600480360381019062000351919062000ec0565b6200082f565b005b3480156200036657600080fd5b506200038560048036038101906200037f919062000ec0565b620008ba565b604051620003949190620011dd565b60405180910390f35b348015620003aa57600080fd5b50620003c96004803603810190620003c3919062000ec0565b620008da565b005b600460009054906101000a900460ff1681565b600160149054906101000a900461ffff1681565b600260009054906101000a900473ffffffffffffffffffffffffffffffffffffffff1681565b60055481565b6200042862000b04565b62000434600062000b89565b565b60008060009054906101000a900473ffffffffffffffffffffffffffffffffffffffff16905090565b600160009054906101000a900473ffffffffffffffffffffffffffffffffffffffff1681565b6200048f62000b04565b80600160146101000a81548161ffff021916908361ffff16021790555050565b620004b962000b04565b600360008273ffffffffffffffffffffffffffffffffffffffff1673ffffffffffffffffffffffffffffffffffffffff16815260200190815260200160002060009054906101000a900460ff1662000548576040517f08c379a00000000000000000000000000000000000000000000000000000000081526004016200053f906200125b565b60405180910390fd5b6000600360008373ffffffffffffffffffffffffffffffffffffffff1673ffffffffffffffffffffffffffffffffffffffff16815260200190815260200160002060006101000a81548160ff0219169083151502179055507f0d60ee093b891105dfb73abfbe0421cc1a07500f5c1776ec7d189e6c7f6d6340620005cb62000c4d565b82604051620005dc9291906200127d565b60405180910390a150565b6000808585600160009054906101000a900473ffffffffffffffffffffffffffffffffffffffff16600160149054906101000a900461ffff16600260009054906101000a900473ffffffffffffffffffffffffffffffffffffffff168888604051620006539062000c55565b6200066597969594939291906200132c565b604051809103906000f08015801562000682573d6000803e3d6000fd5b5090506001600360008373ffffffffffffffffffffffffffffffffffffffff1673ffffffffffffffffffffffffffffffffffffffff16815260200190815260200160002060006101000a81548160ff0219169083151502179055508073ffffffffffffffffffffffffffffffffffffffff1663f2fde38b336040518263ffffffff1660e01b815260040162000718919062000dfb565b600060405180830381600087803b1580156200073357600080fd5b505af115801562000748573d6000803e3d6000fd5b505050507f2d49c67975aadd2d389580b368cfff5b49965b0bd5da33c144922ce01e7a4d7b33826040516200077f9291906200127d565b60405180910390a180915050949350505050565b6200079d62000b04565b80600160006101000a81548173ffffffffffffffffffffffffffffffffffffffff021916908373ffffffffffffffffffffffffffffffffffffffff16021790555050565b620007eb62000b04565b80600260006101000a81548173ffffffffffffffffffffffffffffffffffffffff021916908373ffffffffffffffffffffffffffffffffffffffff16021790555050565b6200083962000b04565b600073ffffffffffffffffffffffffffffffffffffffff168173ffffffffffffffffffffffffffffffffffffffff161415620008ac576040517f08c379a0000000000000000000000000000000000000000000000000000000008152600401620008a3906200142d565b60405180910390fd5b620008b78162000b89565b50565b60036020528060005260406000206000915054906101000a900460ff1681565b620008e462000b04565b600360008273ffffffffffffffffffffffffffffffffffffffff1673ffffffffffffffffffffffffffffffffffffffff16815260200190815260200160002060009054906101000a900460ff161562000974576040517f08c379a00000000000000000000000000000000000000000000000000000000081526004016200096b906200149f565b60405180910390fd5b8073ffffffffffffffffffffffffffffffffffffffff166301ffc9a77f80ac58cd000000000000000000000000000000000000000000000000000000006040518263ffffffff1660e01b8152600401620009cf9190620014fe565b60206040518083038186803b158015620009e857600080fd5b505afa158015620009fd573d6000803e3d6000fd5b505050506040513d601f19601f8201168201806040525081019062000a2391906200154c565b62000a65576040517f08c379a000000000000000000000000000000000000000000000000000000000815260040162000a5c90620015ce565b60405180910390fd5b6001600360008373ffffffffffffffffffffffffffffffffffffffff1673ffffffffffffffffffffffffffffffffffffffff16815260200190815260200160002060006101000a81548160ff0219169083151502179055507f2d49c67975aadd2d389580b368cfff5b49965b0bd5da33c144922ce01e7a4d7b62000ae862000c4d565b8260405162000af99291906200127d565b60405180910390a150565b62000b0e62000c4d565b73ffffffffffffffffffffffffffffffffffffffff1662000b2e62000436565b73ffffffffffffffffffffffffffffffffffffffff161462000b87576040517f08c379a000000000000000000000000000000000000000000000000000000000815260040162000b7e9062001640565b60405180910390fd5b565b60008060009054906101000a900473ffffffffffffffffffffffffffffffffffffffff169050816000806101000a81548173ffffffffffffffffffffffffffffffffffffffff021916908373ffffffffffffffffffffffffffffffffffffffff1602179055508173ffffffffffffffffffffffffffffffffffffffff168173ffffffffffffffffffffffffffffffffffffffff167f8be0079c531659141344cd1fd0a4f28419497f9722a3daafe3b4186f6b6457e060405160405180910390a35050565b600033905090565b6155d3806200166383390190565b7f4e487b7100000000000000000000000000000000000000000000000000000000600052602160045260246000fd5b6002811062000ca65762000ca562000c63565b5b50565b600081905062000cb98262000c92565b919050565b600062000ccb8262000ca9565b9050919050565b62000cdd8162000cbe565b82525050565b600060208201905062000cfa600083018462000cd2565b92915050565b600061ffff82169050919050565b62000d198162000d00565b82525050565b600060208201905062000d36600083018462000d0e565b92915050565b600073ffffffffffffffffffffffffffffffffffffffff82169050919050565b600062000d698262000d3c565b9050919050565b62000d7b8162000d5c565b82525050565b600060208201905062000d98600083018462000d70565b92915050565b6000819050919050565b62000db38162000d9e565b82525050565b600060208201905062000dd0600083018462000da8565b92915050565b600062000de38262000d3c565b9050919050565b62000df58162000dd6565b82525050565b600060208201905062000e12600083018462000dea565b92915050565b6000604051905090565b600080fd5b600080fd5b62000e378162000d00565b811462000e4357600080fd5b50565b60008135905062000e578162000e2c565b92915050565b60006020828403121562000e765762000e7562000e22565b5b600062000e868482850162000e46565b91505092915050565b62000e9a8162000dd6565b811462000ea657600080fd5b50565b60008135905062000eba8162000e8f565b92915050565b60006020828403121562000ed95762000ed862000e22565b5b600062000ee98482850162000ea9565b91505092915050565b600080fd5b600080fd5b6000601f19601f8301169050919050565b7f4e487b7100000000000000000000000000000000000000000000000000000000600052604160045260246000fd5b62000f478262000efc565b810181811067ffffffffffffffff8211171562000f695762000f6862000f0d565b5b80604052505050565b600062000f7e62000e18565b905062000f8c828262000f3c565b919050565b600067ffffffffffffffff82111562000faf5762000fae62000f0d565b5b62000fba8262000efc565b9050602081019050919050565b82818337600083830152505050565b600062000fed62000fe78462000f91565b62000f72565b9050828152602081018484840111156200100c576200100b62000ef7565b5b6200101984828562000fc7565b509392505050565b600082601f83011262001039576200103862000ef2565b5b81356200104b84826020860162000fd6565b91505092915050565b6200105f8162000d9e565b81146200106b57600080fd5b50565b6000813590506200107f8162001054565b92915050565b600281106200109357600080fd5b50565b600081359050620010a78162001085565b92915050565b60008060008060808587031215620010ca57620010c962000e22565b5b600085013567ffffffffffffffff811115620010eb57620010ea62000e27565b5b620010f98782880162001021565b945050602085013567ffffffffffffffff8111156200111d576200111c62000e27565b5b6200112b8782880162001021565b93505060406200113e878288016200106e565b9250506060620011518782880162001096565b91505092959194509250565b620011688162000d5c565b81146200117457600080fd5b50565b60008135905062001188816200115d565b92915050565b600060208284031215620011a757620011a662000e22565b5b6000620011b78482850162001177565b91505092915050565b60008115159050919050565b620011d781620011c0565b82525050565b6000602082019050620011f46000830184620011cc565b92915050565b600082825260208201905092915050565b7f4e465420636f6e7472616374206973206e6f7420726567697374657265640000600082015250565b600062001243601e83620011fa565b915062001250826200120b565b602082019050919050565b60006020820190508181036000830152620012768162001234565b9050919050565b600060408201905062001294600083018562000dea565b620012a3602083018462000dea565b9392505050565b600081519050919050565b60005b83811015620012d5578082015181840152602081019050620012b8565b83811115620012e5576000848401525b50505050565b6000620012f882620012aa565b620013048185620011fa565b935062001316818560208601620012b5565b620013218162000efc565b840191505092915050565b600060e082019050818103600083015262001348818a620012eb565b905081810360208301526200135e8189620012eb565b90506200136f604083018862000dea565b6200137e606083018762000d0e565b6200138d608083018662000d70565b6200139c60a083018562000da8565b620013ab60c083018462000cd2565b98975050505050505050565b7f4f776e61626c653a206e6577206f776e657220697320746865207a65726f206160008201527f6464726573730000000000000000000000000000000000000000000000000000602082015250565b600062001415602683620011fa565b91506200142282620013b7565b604082019050919050565b60006020820190508181036000830152620014488162001406565b9050919050565b7f4e465420636f6e747261637420616c7265616479207265676973746572656400600082015250565b600062001487601f83620011fa565b915062001494826200144f565b602082019050919050565b60006020820190508181036000830152620014ba8162001478565b9050919050565b60007fffffffff0000000000000000000000000000000000000000000000000000000082169050919050565b620014f881620014c1565b82525050565b6000602082019050620015156000830184620014ed565b92915050565b6200152681620011c0565b81146200153257600080fd5b50565b60008151905062001546816200151b565b92915050565b60006020828403121562001565576200156462000e22565b5b6000620015758482850162001535565b91505092915050565b7f4e6f7420616e2045524337323120636f6e747261637400000000000000000000600082015250565b6000620015b6601683620011fa565b9150620015c3826200157e565b602082019050919050565b60006020820190508181036000830152620015e981620015a7565b9050919050565b7f4f776e61626c653a2063616c6c6572206973206e6f7420746865206f776e6572600082015250565b600062001628602083620011fa565b91506200163582620015f0565b602082019050919050565b600060208201905081810360008301526200165b8162001619565b905091905056fe6101606040523480156200001257600080fd5b50604051620055d3380380620055d383398181016040528101906200003891906200074c565b6040518060400160405280601181526020017f4172746f6e674e46542d566f75636865720000000000000000000000000000008152506040518060400160405280600181526020017f310000000000000000000000000000000000000000000000000000000000000081525088888160009080519060200190620000be929190620003b3565b508060019080519060200190620000d7929190620003b3565b50505060008280519060200120905060008280519060200120905060007f8b73c3c69bb8fe3d512ecc4cf759cc79239f7b179b0ffacaa9a75d522b39400f90508260e081815250508161010081815250504660a0818152505062000143818484620002a960201b60201c565b608081815250503073ffffffffffffffffffffffffffffffffffffffff1660c08173ffffffffffffffffffffffffffffffffffffffff168152505080610120818152505050505050506000600760006101000a81548160ff021916908315150217905550620001c7620001bb620002e560201b60201c565b620002ed60201b60201c565b84600960016101000a81548173ffffffffffffffffffffffffffffffffffffffff021916908373ffffffffffffffffffffffffffffffffffffffff16021790555083600960156101000a81548161ffff021916908361ffff16021790555082600a60006101000a81548173ffffffffffffffffffffffffffffffffffffffff021916908373ffffffffffffffffffffffffffffffffffffffff16021790555081610140818152505080600960006101000a81548160ff021916908360018111156200029757620002966200083d565b5b0217905550505050505050506200096b565b60008383834630604051602001620002c6959493929190620008a9565b6040516020818303038152906040528051906020012090509392505050565b600033905090565b6000600760019054906101000a900473ffffffffffffffffffffffffffffffffffffffff16905081600760016101000a81548173ffffffffffffffffffffffffffffffffffffffff021916908373ffffffffffffffffffffffffffffffffffffffff1602179055508173ffffffffffffffffffffffffffffffffffffffff168173ffffffffffffffffffffffffffffffffffffffff167f8be0079c531659141344cd1fd0a4f28419497f9722a3daafe3b4186f6b6457e060405160405180910390a35050565b828054620003c19062000935565b90600052602060002090601f016020900481019282620003e5576000855562000431565b82601f106200040057805160ff191683800117855562000431565b8280016001018555821562000431579182015b828111156200043057825182559160200191906001019062000413565b5b50905062000440919062000444565b5090565b5b808211156200045f57600081600090555060010162000445565b5090565b6000604051905090565b600080fd5b600080fd5b600080fd5b600080fd5b6000601f19601f8301169050919050565b7f4e487b7100000000000000000000000000000000000000000000000000000000600052604160045260246000fd5b620004cc8262000481565b810181811067ffffffffffffffff82111715620004ee57620004ed62000492565b5b80604052505050565b60006200050362000463565b9050620005118282620004c1565b919050565b600067ffffffffffffffff82111562000534576200053362000492565b5b6200053f8262000481565b9050602081019050919050565b60005b838110156200056c5780820151818401526020810190506200054f565b838111156200057c576000848401525b50505050565b600062000599620005938462000516565b620004f7565b905082815260208101848484011115620005b857620005b76200047c565b5b620005c58482856200054c565b509392505050565b600082601f830112620005e557620005e462000477565b5b8151620005f784826020860162000582565b91505092915050565b600073ffffffffffffffffffffffffffffffffffffffff82169050919050565b60006200062d8262000600565b9050919050565b6200063f8162000620565b81146200064b57600080fd5b50565b6000815190506200065f8162000634565b92915050565b600061ffff82169050919050565b6200067e8162000665565b81146200068a57600080fd5b50565b6000815190506200069e8162000673565b92915050565b6000620006b18262000600565b9050919050565b620006c381620006a4565b8114620006cf57600080fd5b50565b600081519050620006e381620006b8565b92915050565b6000819050919050565b620006fe81620006e9565b81146200070a57600080fd5b50565b6000815190506200071e81620006f3565b92915050565b600281106200073257600080fd5b50565b600081519050620007468162000724565b92915050565b600080600080600080600060e0888a0312156200076e576200076d6200046d565b5b600088015167ffffffffffffffff8111156200078f576200078e62000472565b5b6200079d8a828b01620005cd565b975050602088015167ffffffffffffffff811115620007c157620007c062000472565b5b620007cf8a828b01620005cd565b9650506040620007e28a828b016200064e565b9550506060620007f58a828b016200068d565b9450506080620008088a828b01620006d2565b93505060a06200081b8a828b016200070d565b92505060c06200082e8a828b0162000735565b91505092959891949750929550565b7f4e487b7100000000000000000000000000000000000000000000000000000000600052602160045260246000fd5b6000819050919050565b62000881816200086c565b82525050565b6200089281620006e9565b82525050565b620008a38162000620565b82525050565b600060a082019050620008c0600083018862000876565b620008cf602083018762000876565b620008de604083018662000876565b620008ed606083018562000887565b620008fc608083018462000898565b9695505050505050565b7f4e487b7100000000000000000000000000000000000000000000000000000000600052602260045260246000fd5b600060028204905060018216806200094e57607f821691505b6020821081141562000965576200096462000906565b5b50919050565b60805160a05160c05160e051610100516101205161014051614c06620009cd60003960008181610dfb015261158f01526000612c1b01526000612c5d01526000612c3c01526000612b7101526000612bc701526000612bf00152614c066000f3fe6080604052600436106101c25760003560e01c80635f48f393116100f757806395d89b4111610095578063c87b56dd11610064578063c87b56dd146105fd578063d0def5211461063a578063e985e9c514610677578063f2fde38b146106b4576101c2565b806395d89b4114610555578063a22cb46514610580578063abc8c7af146105a9578063b88d4fde146105d4576101c2565b8063715018a6116100d1578063715018a6146104d357806374bce0bc146104ea5780638456cb59146105135780638da5cb5b1461052a576101c2565b80635f48f3931461042e5780636352211e1461045957806370a0823114610496576101c2565b806326232a2e1161016457806342842e0e1161013e57806342842e0e1461038657806342966c68146103af578063564b81ef146103d85780635c975abb14610403576101c2565b806326232a2e146103195780633740ebb3146103445780633f4ba83a1461036f576101c2565b8063081812fc116101a0578063081812fc1461025a578063095ea7b31461029757806311142552146102c057806323b872dd146102f0576101c2565b806301ffc9a7146101c75780630505c8c91461020457806306fdde031461022f575b600080fd5b3480156101d357600080fd5b506101ee60048036038101906101e99190612faf565b6106dd565b6040516101fb9190612ff7565b60405180910390f35b34801561021057600080fd5b506102196107bf565b6040516102269190613089565b60405180910390f35b34801561023b57600080fd5b506102446107d2565b604051610251919061313d565b60405180910390f35b34801561026657600080fd5b50610281600480360381019061027c9190613195565b610864565b60405161028e9190613203565b60405180910390f35b3480156102a357600080fd5b506102be60048036038101906102b9919061324a565b6108aa565b005b6102da60048036038101906102d591906132ae565b6109c2565b6040516102e79190613319565b60405180910390f35b3480156102fc57600080fd5b5061031760048036038101906103129190613334565b610c6c565b005b34801561032557600080fd5b5061032e610ccc565b60405161033b91906133a4565b60405180910390f35b34801561035057600080fd5b50610359610ce0565b60405161036691906133e0565b60405180910390f35b34801561037b57600080fd5b50610384610d06565b005b34801561039257600080fd5b506103ad60048036038101906103a89190613334565b610d59565b005b3480156103bb57600080fd5b506103d660048036038101906103d19190613195565b610d79565b005b3480156103e457600080fd5b506103ed610dd5565b6040516103fa9190613319565b60405180910390f35b34801561040f57600080fd5b50610418610de2565b6040516104259190612ff7565b60405180910390f35b34801561043a57600080fd5b50610443610df9565b6040516104509190613319565b60405180910390f35b34801561046557600080fd5b50610480600480360381019061047b9190613195565b610e1d565b60405161048d9190613203565b60405180910390f35b3480156104a257600080fd5b506104bd60048036038101906104b891906133fb565b610ecf565b6040516104ca9190613319565b60405180910390f35b3480156104df57600080fd5b506104e8610f87565b005b3480156104f657600080fd5b50610511600480360381019061050c919061344d565b610f9b565b005b34801561051f57600080fd5b50610528610fd0565b005b34801561053657600080fd5b5061053f611023565b60405161054c9190613203565b60405180910390f35b34801561056157600080fd5b5061056a61104d565b604051610577919061313d565b60405180910390f35b34801561058c57600080fd5b506105a760048036038101906105a291906134a6565b6110df565b005b3480156105b557600080fd5b506105be6110f5565b6040516105cb9190613203565b60405180910390f35b3480156105e057600080fd5b506105fb60048036038101906105f6919061361b565b61111b565b005b34801561060957600080fd5b50610624600480360381019061061f9190613195565b61117d565b604051610631919061313d565b60405180910390f35b34801561064657600080fd5b50610661600480360381019061065c91906136fe565b61118f565b60405161066e9190613319565b60405180910390f35b34801561068357600080fd5b5061069e6004803603810190610699919061375e565b611223565b6040516106ab9190612ff7565b60405180910390f35b3480156106c057600080fd5b506106db60048036038101906106d691906133fb565b611297565b005b60007f80ac58cd000000000000000000000000000000000000000000000000000000007bffffffffffffffffffffffffffffffffffffffffffffffffffffffff1916827bffffffffffffffffffffffffffffffffffffffffffffffffffffffff191614806107a857507f5b5e139f000000000000000000000000000000000000000000000000000000007bffffffffffffffffffffffffffffffffffffffffffffffffffffffff1916827bffffffffffffffffffffffffffffffffffffffffffffffffffffffff1916145b806107b857506107b78261131b565b5b9050919050565b600960009054906101000a900460ff1681565b6060600080546107e1906137cd565b80601f016020809104026020016040519081016040528092919081815260200182805461080d906137cd565b801561085a5780601f1061082f5761010080835404028352916020019161085a565b820191906000526020600020905b81548152906001019060200180831161083d57829003601f168201915b5050505050905090565b600061086f82611385565b6004600083815260200190815260200160002060009054906101000a900473ffffffffffffffffffffffffffffffffffffffff169050919050565b60006108b582610e1d565b90508073ffffffffffffffffffffffffffffffffffffffff168373ffffffffffffffffffffffffffffffffffffffff161415610926576040517f08c379a000000000000000000000000000000000000000000000000000000000815260040161091d90613871565b60405180910390fd5b8073ffffffffffffffffffffffffffffffffffffffff166109456113d0565b73ffffffffffffffffffffffffffffffffffffffff16148061097457506109738161096e6113d0565b611223565b5b6109b3576040517f08c379a00000000000000000000000000000000000000000000000000000000081526004016109aa90613903565b60405180910390fd5b6109bd83836113d8565b505050565b60006109cc611491565b60006109d7836114db565b90508260000160208101906109ec91906133fb565b73ffffffffffffffffffffffffffffffffffffffff168173ffffffffffffffffffffffffffffffffffffffff1614610a59576040517f08c379a0000000000000000000000000000000000000000000000000000000008152600401610a509061396f565b60405180910390fd5b8260200135341015610aa0576040517f08c379a0000000000000000000000000000000000000000000000000000000008152600401610a97906139db565b60405180910390fd5b6000610aaa61154d565b90506000600a60009054906101000a900473ffffffffffffffffffffffffffffffffffffffff1673ffffffffffffffffffffffffffffffffffffffff1682604051610af490613a2c565b60006040518083038185875af1925050503d8060008114610b31576040519150601f19603f3d011682016040523d82523d6000602084013e610b36565b606091505b5050905080610b7a576040517f08c379a0000000000000000000000000000000000000000000000000000000008152600401610b7190613a8d565b60405180910390fd5b6000610ba7866000016020810190610b9291906133fb565b878060400190610ba29190613abc565b611581565b9050610bc6866000016020810190610bbf91906133fb565b88836116fa565b600960019054906101000a900473ffffffffffffffffffffffffffffffffffffffff1673ffffffffffffffffffffffffffffffffffffffff1663e6d07de98434610c109190613b4e565b866040518363ffffffff1660e01b8152600401610c2d9190613203565b6000604051808303818588803b158015610c4657600080fd5b505af1158015610c5a573d6000803e3d6000fd5b50505050508094505050505092915050565b610c7d610c776113d0565b82611961565b610cbc576040517f08c379a0000000000000000000000000000000000000000000000000000000008152600401610cb390613bf4565b60405180910390fd5b610cc78383836116fa565b505050565b600960159054906101000a900461ffff1681565b600a60009054906101000a900473ffffffffffffffffffffffffffffffffffffffff1681565b610d103333611223565b610d4f576040517f08c379a0000000000000000000000000000000000000000000000000000000008152600401610d4690613c60565b60405180910390fd5b610d576119e5565b565b610d748383836040518060200160405280600081525061111b565b505050565b610d8a610d846113d0565b82611961565b610dc9576040517f08c379a0000000000000000000000000000000000000000000000000000000008152600401610dc090613bf4565b60405180910390fd5b610dd281611a48565b50565b6000804690508091505090565b6000600760009054906101000a900460ff16905090565b7f000000000000000000000000000000000000000000000000000000000000000081565b6000806002600084815260200190815260200160002060009054906101000a900473ffffffffffffffffffffffffffffffffffffffff169050600073ffffffffffffffffffffffffffffffffffffffff168173ffffffffffffffffffffffffffffffffffffffff161415610ec6576040517f08c379a0000000000000000000000000000000000000000000000000000000008152600401610ebd90613ccc565b60405180910390fd5b80915050919050565b60008073ffffffffffffffffffffffffffffffffffffffff168273ffffffffffffffffffffffffffffffffffffffff161415610f40576040517f08c379a0000000000000000000000000000000000000000000000000000000008152600401610f3790613d5e565b60405180910390fd5b600360008373ffffffffffffffffffffffffffffffffffffffff1673ffffffffffffffffffffffffffffffffffffffff168152602001908152602001600020549050919050565b610f8f611a54565b610f996000611ad2565b565b610fa3611a54565b80600960006101000a81548160ff02191690836001811115610fc857610fc7613012565b5b021790555050565b610fda3333611223565b611019576040517f08c379a000000000000000000000000000000000000000000000000000000000815260040161101090613c60565b60405180910390fd5b611021611b98565b565b6000600760019054906101000a900473ffffffffffffffffffffffffffffffffffffffff16905090565b60606001805461105c906137cd565b80601f0160208091040260200160405190810160405280929190818152602001828054611088906137cd565b80156110d55780601f106110aa576101008083540402835291602001916110d5565b820191906000526020600020905b8154815290600101906020018083116110b857829003601f168201915b5050505050905090565b6110f16110ea6113d0565b8383611bfb565b5050565b600960019054906101000a900473ffffffffffffffffffffffffffffffffffffffff1681565b61112c6111266113d0565b83611961565b61116b576040517f08c379a000000000000000000000000000000000000000000000000000000000815260040161116290613bf4565b60405180910390fd5b61117784848484611d68565b50505050565b606061118882611dc4565b9050919050565b6000611199611491565b600060018111156111ad576111ac613012565b5b600960009054906101000a900460ff1660018111156111cf576111ce613012565b5b1461120f576040517f08c379a000000000000000000000000000000000000000000000000000000000815260040161120690613dca565b60405180910390fd5b61121a848484611581565b90509392505050565b60008173ffffffffffffffffffffffffffffffffffffffff16600960019054906101000a900473ffffffffffffffffffffffffffffffffffffffff1673ffffffffffffffffffffffffffffffffffffffff1614156112845760019050611291565b61128e8383611ed7565b90505b92915050565b61129f611a54565b600073ffffffffffffffffffffffffffffffffffffffff168173ffffffffffffffffffffffffffffffffffffffff16141561130f576040517f08c379a000000000000000000000000000000000000000000000000000000000815260040161130690613e5c565b60405180910390fd5b61131881611ad2565b50565b60007f01ffc9a7000000000000000000000000000000000000000000000000000000007bffffffffffffffffffffffffffffffffffffffffffffffffffffffff1916827bffffffffffffffffffffffffffffffffffffffffffffffffffffffff1916149050919050565b61138e81611f6b565b6113cd576040517f08c379a00000000000000000000000000000000000000000000000000000000081526004016113c490613ccc565b60405180910390fd5b50565b600033905090565b816004600083815260200190815260200160002060006101000a81548173ffffffffffffffffffffffffffffffffffffffff021916908373ffffffffffffffffffffffffffffffffffffffff160217905550808273ffffffffffffffffffffffffffffffffffffffff1661144b83610e1d565b73ffffffffffffffffffffffffffffffffffffffff167f8c5be1e5ebec7d5bd14f71427d1e84f3dd0314c0f7b2291e5b200ac8c7c3b92560405160405180910390a45050565b611499610de2565b156114d9576040517f08c379a00000000000000000000000000000000000000000000000000000000081526004016114d090613ec8565b60405180910390fd5b565b6000806114e783611fd7565b9050611545818480606001906114fd9190613ee8565b8080601f016020809104026020016040519081016040528093929190818152602001838380828437600081840152601f19601f82011690508083019250505050505050612070565b915050919050565b6000612710600960159054906101000a900461ffff1661ffff16346115729190613f4b565b61157c9190613fd4565b905090565b600061158d6008612097565b7f0000000000000000000000000000000000000000000000000000000000000000116115ee576040517f08c379a00000000000000000000000000000000000000000000000000000000081526004016115e590614051565b60405180910390fd5b6115f860086120a5565b60006116046008612097565b9050600960019054906101000a900473ffffffffffffffffffffffffffffffffffffffff1673ffffffffffffffffffffffffffffffffffffffff16634d0228e48630846040518463ffffffff1660e01b815260040161166593929190614071565b600060405180830381600087803b15801561167f57600080fd5b505af1158015611693573d6000803e3d6000fd5b505050506116a185826120bb565b6116ef8185858080601f016020809104026020016040519081016040528093929190818152602001838380828437600081840152601f19601f82011690508083019250505050505050612295565b809150509392505050565b8273ffffffffffffffffffffffffffffffffffffffff1661171a82610e1d565b73ffffffffffffffffffffffffffffffffffffffff1614611770576040517f08c379a00000000000000000000000000000000000000000000000000000000081526004016117679061411a565b60405180910390fd5b600073ffffffffffffffffffffffffffffffffffffffff168273ffffffffffffffffffffffffffffffffffffffff1614156117e0576040517f08c379a00000000000000000000000000000000000000000000000000000000081526004016117d7906141ac565b60405180910390fd5b6117eb838383612309565b6117f66000826113d8565b6001600360008573ffffffffffffffffffffffffffffffffffffffff1673ffffffffffffffffffffffffffffffffffffffff16815260200190815260200160002060008282546118469190613b4e565b925050819055506001600360008473ffffffffffffffffffffffffffffffffffffffff1673ffffffffffffffffffffffffffffffffffffffff168152602001908152602001600020600082825461189d91906141cc565b92505081905550816002600083815260200190815260200160002060006101000a81548173ffffffffffffffffffffffffffffffffffffffff021916908373ffffffffffffffffffffffffffffffffffffffff160217905550808273ffffffffffffffffffffffffffffffffffffffff168473ffffffffffffffffffffffffffffffffffffffff167fddf252ad1be2c89b69c2b068fc378daa952ba7f163c4a11628f55a4df523b3ef60405160405180910390a461195c83838361230e565b505050565b600061196c82611f6b565b6119ab576040517f08c379a00000000000000000000000000000000000000000000000000000000081526004016119a290614294565b60405180910390fd5b60006119b683610e1d565b90506119c28185611223565b156119d15760019150506119df565b6119db8484612313565b9150505b92915050565b6119ed6123a8565b6000600760006101000a81548160ff0219169083151502179055507f5db9ee0a495bf2e6ff9c91a7834c1ba4fdd244a5e8aa4e537bd38aeae4b073aa611a316113d0565b604051611a3e9190613203565b60405180910390a1565b611a51816123f1565b50565b611a5c6113d0565b73ffffffffffffffffffffffffffffffffffffffff16611a7a611023565b73ffffffffffffffffffffffffffffffffffffffff1614611ad0576040517f08c379a0000000000000000000000000000000000000000000000000000000008152600401611ac790614300565b60405180910390fd5b565b6000600760019054906101000a900473ffffffffffffffffffffffffffffffffffffffff16905081600760016101000a81548173ffffffffffffffffffffffffffffffffffffffff021916908373ffffffffffffffffffffffffffffffffffffffff1602179055508173ffffffffffffffffffffffffffffffffffffffff168173ffffffffffffffffffffffffffffffffffffffff167f8be0079c531659141344cd1fd0a4f28419497f9722a3daafe3b4186f6b6457e060405160405180910390a35050565b611ba0611491565b6001600760006101000a81548160ff0219169083151502179055507f62e78cea01bee320cd4e420270b5ea74000d11b0c9f74754ebdbfc544b05a258611be46113d0565b604051611bf19190613203565b60405180910390a1565b8173ffffffffffffffffffffffffffffffffffffffff168373ffffffffffffffffffffffffffffffffffffffff161415611c6a576040517f08c379a0000000000000000000000000000000000000000000000000000000008152600401611c619061436c565b60405180910390fd5b80600560008573ffffffffffffffffffffffffffffffffffffffff1673ffffffffffffffffffffffffffffffffffffffff16815260200190815260200160002060008473ffffffffffffffffffffffffffffffffffffffff1673ffffffffffffffffffffffffffffffffffffffff16815260200190815260200160002060006101000a81548160ff0219169083151502179055508173ffffffffffffffffffffffffffffffffffffffff168373ffffffffffffffffffffffffffffffffffffffff167f17307eab39ab6107e8899845ad3d59bd9653f200f220920489ca2b5937696c3183604051611d5b9190612ff7565b60405180910390a3505050565b611d738484846116fa565b611d7f84848484612444565b611dbe576040517f08c379a0000000000000000000000000000000000000000000000000000000008152600401611db5906143fe565b60405180910390fd5b50505050565b6060611dcf82611385565b6000600660008481526020019081526020016000208054611def906137cd565b80601f0160208091040260200160405190810160405280929190818152602001828054611e1b906137cd565b8015611e685780601f10611e3d57610100808354040283529160200191611e68565b820191906000526020600020905b815481529060010190602001808311611e4b57829003601f168201915b505050505090506000611e796125db565b9050600081511415611e8f578192505050611ed2565b600082511115611ec4578082604051602001611eac92919061445a565b60405160208183030381529060405292505050611ed2565b611ecd846125f2565b925050505b919050565b6000600560008473ffffffffffffffffffffffffffffffffffffffff1673ffffffffffffffffffffffffffffffffffffffff16815260200190815260200160002060008373ffffffffffffffffffffffffffffffffffffffff1673ffffffffffffffffffffffffffffffffffffffff16815260200190815260200160002060009054906101000a900460ff16905092915050565b60008073ffffffffffffffffffffffffffffffffffffffff166002600084815260200190815260200160002060009054906101000a900473ffffffffffffffffffffffffffffffffffffffff1673ffffffffffffffffffffffffffffffffffffffff1614159050919050565b60006120697fe2c1fe55ff75bc6c0f1e92db9b907c57038a5f95f7c137ff4bf9e10a15bc3d0183600001602081019061201091906133fb565b84602001358580604001906120259190613abc565b6040516120339291906144a3565b604051809103902060405160200161204e94939291906144d5565b6040516020818303038152906040528051906020012061265a565b9050919050565b600080600061207f8585612674565b9150915061208c816126f7565b819250505092915050565b600081600001549050919050565b6001816000016000828254019250508190555050565b600073ffffffffffffffffffffffffffffffffffffffff168273ffffffffffffffffffffffffffffffffffffffff16141561212b576040517f08c379a000000000000000000000000000000000000000000000000000000000815260040161212290614566565b60405180910390fd5b61213481611f6b565b15612174576040517f08c379a000000000000000000000000000000000000000000000000000000000815260040161216b906145d2565b60405180910390fd5b61218060008383612309565b6001600360008473ffffffffffffffffffffffffffffffffffffffff1673ffffffffffffffffffffffffffffffffffffffff16815260200190815260200160002060008282546121d091906141cc565b92505081905550816002600083815260200190815260200160002060006101000a81548173ffffffffffffffffffffffffffffffffffffffff021916908373ffffffffffffffffffffffffffffffffffffffff160217905550808273ffffffffffffffffffffffffffffffffffffffff16600073ffffffffffffffffffffffffffffffffffffffff167fddf252ad1be2c89b69c2b068fc378daa952ba7f163c4a11628f55a4df523b3ef60405160405180910390a46122916000838361230e565b5050565b61229e82611f6b565b6122dd576040517f08c379a00000000000000000000000000000000000000000000000000000000081526004016122d490614664565b60405180910390fd5b80600660008481526020019081526020016000209080519060200190612304929190612e60565b505050565b505050565b505050565b60008061231f83610e1d565b90508073ffffffffffffffffffffffffffffffffffffffff168473ffffffffffffffffffffffffffffffffffffffff16148061236157506123608185611223565b5b8061239f57508373ffffffffffffffffffffffffffffffffffffffff1661238784610864565b73ffffffffffffffffffffffffffffffffffffffff16145b91505092915050565b6123b0610de2565b6123ef576040517f08c379a00000000000000000000000000000000000000000000000000000000081526004016123e6906146d0565b60405180910390fd5b565b6123fa816128cc565b600060066000838152602001908152602001600020805461241a906137cd565b905014612441576006600082815260200190815260200160002060006124409190612ee6565b5b50565b60006124658473ffffffffffffffffffffffffffffffffffffffff166129e9565b156125ce578373ffffffffffffffffffffffffffffffffffffffff1663150b7a0261248e6113d0565b8786866040518563ffffffff1660e01b81526004016124b09493929190614745565b602060405180830381600087803b1580156124ca57600080fd5b505af19250505080156124fb57506040513d601f19601f820116820180604052508101906124f891906147a6565b60015b61257e573d806000811461252b576040519150601f19603f3d011682016040523d82523d6000602084013e612530565b606091505b50600081511415612576576040517f08c379a000000000000000000000000000000000000000000000000000000000815260040161256d906143fe565b60405180910390fd5b805181602001fd5b63150b7a0260e01b7bffffffffffffffffffffffffffffffffffffffffffffffffffffffff1916817bffffffffffffffffffffffffffffffffffffffffffffffffffffffff1916149150506125d3565b600190505b949350505050565b606060405180602001604052806000815250905090565b60606125fd82611385565b60006126076125db565b905060008151116126275760405180602001604052806000815250612652565b8061263184612a0c565b60405160200161264292919061445a565b6040516020818303038152906040525b915050919050565b600061266d612667612b6d565b83612c87565b9050919050565b6000806041835114156126b65760008060006020860151925060408601519150606086015160001a90506126aa87828585612cba565b945094505050506126f0565b6040835114156126e75760008060208501519150604085015190506126dc868383612dc7565b9350935050506126f0565b60006002915091505b9250929050565b6000600481111561270b5761270a613012565b5b81600481111561271e5761271d613012565b5b1415612729576128c9565b6001600481111561273d5761273c613012565b5b8160048111156127505761274f613012565b5b1415612791576040517f08c379a00000000000000000000000000000000000000000000000000000000081526004016127889061481f565b60405180910390fd5b600260048111156127a5576127a4613012565b5b8160048111156127b8576127b7613012565b5b14156127f9576040517f08c379a00000000000000000000000000000000000000000000000000000000081526004016127f09061488b565b60405180910390fd5b6003600481111561280d5761280c613012565b5b8160048111156128205761281f613012565b5b1415612861576040517f08c379a00000000000000000000000000000000000000000000000000000000081526004016128589061491d565b60405180910390fd5b60048081111561287457612873613012565b5b81600481111561288757612886613012565b5b14156128c8576040517f08c379a00000000000000000000000000000000000000000000000000000000081526004016128bf906149af565b60405180910390fd5b5b50565b60006128d782610e1d565b90506128e581600084612309565b6128f06000836113d8565b6001600360008373ffffffffffffffffffffffffffffffffffffffff1673ffffffffffffffffffffffffffffffffffffffff16815260200190815260200160002060008282546129409190613b4e565b925050819055506002600083815260200190815260200160002060006101000a81549073ffffffffffffffffffffffffffffffffffffffff021916905581600073ffffffffffffffffffffffffffffffffffffffff168273ffffffffffffffffffffffffffffffffffffffff167fddf252ad1be2c89b69c2b068fc378daa952ba7f163c4a11628f55a4df523b3ef60405160405180910390a46129e58160008461230e565b5050565b6000808273ffffffffffffffffffffffffffffffffffffffff163b119050919050565b60606000821415612a54576040518060400160405280600181526020017f30000000000000000000000000000000000000000000000000000000000000008152509050612b68565b600082905060005b60008214612a86578080612a6f906149cf565b915050600a82612a7f9190613fd4565b9150612a5c565b60008167ffffffffffffffff811115612aa257612aa16134f0565b5b6040519080825280601f01601f191660200182016040528015612ad45781602001600182028036833780820191505090505b5090505b60008514612b6157600182612aed9190613b4e565b9150600a85612afc9190614a18565b6030612b0891906141cc565b60f81b818381518110612b1e57612b1d614a49565b5b60200101907effffffffffffffffffffffffffffffffffffffffffffffffffffffffffffff1916908160001a905350600a85612b5a9190613fd4565b9450612ad8565b8093505050505b919050565b60007f000000000000000000000000000000000000000000000000000000000000000073ffffffffffffffffffffffffffffffffffffffff163073ffffffffffffffffffffffffffffffffffffffff16148015612be957507f000000000000000000000000000000000000000000000000000000000000000046145b15612c16577f00000000000000000000000000000000000000000000000000000000000000009050612c84565b612c817f00000000000000000000000000000000000000000000000000000000000000007f00000000000000000000000000000000000000000000000000000000000000007f0000000000000000000000000000000000000000000000000000000000000000612e26565b90505b90565b60008282604051602001612c9c929190614ae5565b60405160208183030381529060405280519060200120905092915050565b6000807f7fffffffffffffffffffffffffffffff5d576e7357a4501ddfe92f46681b20a08360001c1115612cf5576000600391509150612dbe565b601b8560ff1614158015612d0d5750601c8560ff1614155b15612d1f576000600491509150612dbe565b600060018787878760405160008152602001604052604051612d449493929190614b38565b6020604051602081039080840390855afa158015612d66573d6000803e3d6000fd5b505050602060405103519050600073ffffffffffffffffffffffffffffffffffffffff168173ffffffffffffffffffffffffffffffffffffffff161415612db557600060019250925050612dbe565b80600092509250505b94509492505050565b60008060007f7fffffffffffffffffffffffffffffffffffffffffffffffffffffffffffffff60001b841690506000601b60ff8660001c901c612e0a91906141cc565b9050612e1887828885612cba565b935093505050935093915050565b60008383834630604051602001612e41959493929190614b7d565b6040516020818303038152906040528051906020012090509392505050565b828054612e6c906137cd565b90600052602060002090601f016020900481019282612e8e5760008555612ed5565b82601f10612ea757805160ff1916838001178555612ed5565b82800160010185558215612ed5579182015b82811115612ed4578251825591602001919060010190612eb9565b5b509050612ee29190612f26565b5090565b508054612ef2906137cd565b6000825580601f10612f045750612f23565b601f016020900490600052602060002090810190612f229190612f26565b5b50565b5b80821115612f3f576000816000905550600101612f27565b5090565b6000604051905090565b600080fd5b600080fd5b60007fffffffff0000000000000000000000000000000000000000000000000000000082169050919050565b612f8c81612f57565b8114612f9757600080fd5b50565b600081359050612fa981612f83565b92915050565b600060208284031215612fc557612fc4612f4d565b5b6000612fd384828501612f9a565b91505092915050565b60008115159050919050565b612ff181612fdc565b82525050565b600060208201905061300c6000830184612fe8565b92915050565b7f4e487b7100000000000000000000000000000000000000000000000000000000600052602160045260246000fd5b6002811061305257613051613012565b5b50565b600081905061306382613041565b919050565b600061307382613055565b9050919050565b61308381613068565b82525050565b600060208201905061309e600083018461307a565b92915050565b600081519050919050565b600082825260208201905092915050565b60005b838110156130de5780820151818401526020810190506130c3565b838111156130ed576000848401525b50505050565b6000601f19601f8301169050919050565b600061310f826130a4565b61311981856130af565b93506131298185602086016130c0565b613132816130f3565b840191505092915050565b600060208201905081810360008301526131578184613104565b905092915050565b6000819050919050565b6131728161315f565b811461317d57600080fd5b50565b60008135905061318f81613169565b92915050565b6000602082840312156131ab576131aa612f4d565b5b60006131b984828501613180565b91505092915050565b600073ffffffffffffffffffffffffffffffffffffffff82169050919050565b60006131ed826131c2565b9050919050565b6131fd816131e2565b82525050565b600060208201905061321860008301846131f4565b92915050565b613227816131e2565b811461323257600080fd5b50565b6000813590506132448161321e565b92915050565b6000806040838503121561326157613260612f4d565b5b600061326f85828601613235565b925050602061328085828601613180565b9150509250929050565b600080fd5b6000608082840312156132a5576132a461328a565b5b81905092915050565b600080604083850312156132c5576132c4612f4d565b5b60006132d385828601613235565b925050602083013567ffffffffffffffff8111156132f4576132f3612f52565b5b6133008582860161328f565b9150509250929050565b6133138161315f565b82525050565b600060208201905061332e600083018461330a565b92915050565b60008060006060848603121561334d5761334c612f4d565b5b600061335b86828701613235565b935050602061336c86828701613235565b925050604061337d86828701613180565b9150509250925092565b600061ffff82169050919050565b61339e81613387565b82525050565b60006020820190506133b96000830184613395565b92915050565b60006133ca826131c2565b9050919050565b6133da816133bf565b82525050565b60006020820190506133f560008301846133d1565b92915050565b60006020828403121561341157613410612f4d565b5b600061341f84828501613235565b91505092915050565b6002811061343557600080fd5b50565b60008135905061344781613428565b92915050565b60006020828403121561346357613462612f4d565b5b600061347184828501613438565b91505092915050565b61348381612fdc565b811461348e57600080fd5b50565b6000813590506134a08161347a565b92915050565b600080604083850312156134bd576134bc612f4d565b5b60006134cb85828601613235565b92505060206134dc85828601613491565b9150509250929050565b600080fd5b600080fd5b7f4e487b7100000000000000000000000000000000000000000000000000000000600052604160045260246000fd5b613528826130f3565b810181811067ffffffffffffffff82111715613547576135466134f0565b5b80604052505050565b600061355a612f43565b9050613566828261351f565b919050565b600067ffffffffffffffff821115613586576135856134f0565b5b61358f826130f3565b9050602081019050919050565b82818337600083830152505050565b60006135be6135b98461356b565b613550565b9050828152602081018484840111156135da576135d96134eb565b5b6135e584828561359c565b509392505050565b600082601f830112613602576136016134e6565b5b81356136128482602086016135ab565b91505092915050565b6000806000806080858703121561363557613634612f4d565b5b600061364387828801613235565b945050602061365487828801613235565b935050604061366587828801613180565b925050606085013567ffffffffffffffff81111561368657613685612f52565b5b613692878288016135ed565b91505092959194509250565b600080fd5b600080fd5b60008083601f8401126136be576136bd6134e6565b5b8235905067ffffffffffffffff8111156136db576136da61369e565b5b6020830191508360018202830111156136f7576136f66136a3565b5b9250929050565b60008060006040848603121561371757613716612f4d565b5b600061372586828701613235565b935050602084013567ffffffffffffffff81111561374657613745612f52565b5b613752868287016136a8565b92509250509250925092565b6000806040838503121561377557613774612f4d565b5b600061378385828601613235565b925050602061379485828601613235565b9150509250929050565b7f4e487b7100000000000000000000000000000000000000000000000000000000600052602260045260246000fd5b600060028204905060018216806137e557607f821691505b602082108114156137f9576137f861379e565b5b50919050565b7f4552433732313a20617070726f76616c20746f2063757272656e74206f776e6560008201527f7200000000000000000000000000000000000000000000000000000000000000602082015250565b600061385b6021836130af565b9150613866826137ff565b604082019050919050565b6000602082019050818103600083015261388a8161384e565b9050919050565b7f4552433732313a20617070726f76652063616c6c6572206973206e6f7420746f60008201527f6b656e206f776e6572206e6f7220617070726f76656420666f7220616c6c0000602082015250565b60006138ed603e836130af565b91506138f882613891565b604082019050919050565b6000602082019050818103600083015261391c816138e0565b9050919050565b7f5369676e617475726520696e76616c6964000000000000000000000000000000600082015250565b60006139596011836130af565b915061396482613923565b602082019050919050565b600060208201905081810360008301526139888161394c565b9050919050565b7f496e73756666696369656e742066756e647320746f2072656465656d00000000600082015250565b60006139c5601c836130af565b91506139d08261398f565b602082019050919050565b600060208201905081810360008301526139f4816139b8565b9050919050565b600081905092915050565b50565b6000613a166000836139fb565b9150613a2182613a06565b600082019050919050565b6000613a3782613a09565b9150819050919050565b7f5472616e73666572206661696c65640000000000000000000000000000000000600082015250565b6000613a77600f836130af565b9150613a8282613a41565b602082019050919050565b60006020820190508181036000830152613aa681613a6a565b9050919050565b600080fd5b600080fd5b600080fd5b60008083356001602003843603038112613ad957613ad8613aad565b5b80840192508235915067ffffffffffffffff821115613afb57613afa613ab2565b5b602083019250600182023603831315613b1757613b16613ab7565b5b509250929050565b7f4e487b7100000000000000000000000000000000000000000000000000000000600052601160045260246000fd5b6000613b598261315f565b9150613b648361315f565b925082821015613b7757613b76613b1f565b5b828203905092915050565b7f4552433732313a2063616c6c6572206973206e6f7420746f6b656e206f776e6560008201527f72206e6f7220617070726f766564000000000000000000000000000000000000602082015250565b6000613bde602e836130af565b9150613be982613b82565b604082019050919050565b60006020820190508181036000830152613c0d81613bd1565b9050919050565b7f4e6f7420617574686f72697a6564000000000000000000000000000000000000600082015250565b6000613c4a600e836130af565b9150613c5582613c14565b602082019050919050565b60006020820190508181036000830152613c7981613c3d565b9050919050565b7f4552433732313a20696e76616c696420746f6b656e2049440000000000000000600082015250565b6000613cb66018836130af565b9150613cc182613c80565b602082019050919050565b60006020820190508181036000830152613ce581613ca9565b9050919050565b7f4552433732313a2061646472657373207a65726f206973206e6f74206120766160008201527f6c6964206f776e65720000000000000000000000000000000000000000000000602082015250565b6000613d486029836130af565b9150613d5382613cec565b604082019050919050565b60006020820190508181036000830152613d7781613d3b565b9050919050565b7f506f6c696379206f6e6c7920616c6c6f7773206c617a79206d696e74696e6700600082015250565b6000613db4601f836130af565b9150613dbf82613d7e565b602082019050919050565b60006020820190508181036000830152613de381613da7565b9050919050565b7f4f776e61626c653a206e6577206f776e657220697320746865207a65726f206160008201527f6464726573730000000000000000000000000000000000000000000000000000602082015250565b6000613e466026836130af565b9150613e5182613dea565b604082019050919050565b60006020820190508181036000830152613e7581613e39565b9050919050565b7f5061757361626c653a2070617573656400000000000000000000000000000000600082015250565b6000613eb26010836130af565b9150613ebd82613e7c565b602082019050919050565b60006020820190508181036000830152613ee181613ea5565b9050919050565b60008083356001602003843603038112613f0557613f04613aad565b5b80840192508235915067ffffffffffffffff821115613f2757613f26613ab2565b5b602083019250600182023603831315613f4357613f42613ab7565b5b509250929050565b6000613f568261315f565b9150613f618361315f565b9250817fffffffffffffffffffffffffffffffffffffffffffffffffffffffffffffffff0483118215151615613f9a57613f99613b1f565b5b828202905092915050565b7f4e487b7100000000000000000000000000000000000000000000000000000000600052601260045260246000fd5b6000613fdf8261315f565b9150613fea8361315f565b925082613ffa57613ff9613fa5565b5b828204905092915050565b7f4d6178696d756d206e756d626572206f66204e46547320726561636865640000600082015250565b600061403b601e836130af565b915061404682614005565b602082019050919050565b6000602082019050818103600083015261406a8161402e565b9050919050565b600060608201905061408660008301866131f4565b61409360208301856131f4565b6140a0604083018461330a565b949350505050565b7f4552433732313a207472616e736665722066726f6d20696e636f72726563742060008201527f6f776e6572000000000000000000000000000000000000000000000000000000602082015250565b60006141046025836130af565b915061410f826140a8565b604082019050919050565b60006020820190508181036000830152614133816140f7565b9050919050565b7f4552433732313a207472616e7366657220746f20746865207a65726f2061646460008201527f7265737300000000000000000000000000000000000000000000000000000000602082015250565b60006141966024836130af565b91506141a18261413a565b604082019050919050565b600060208201905081810360008301526141c581614189565b9050919050565b60006141d78261315f565b91506141e28361315f565b9250827fffffffffffffffffffffffffffffffffffffffffffffffffffffffffffffffff0382111561421757614216613b1f565b5b828201905092915050565b7f4552433732313a206f70657261746f7220717565727920666f72206e6f6e657860008201527f697374656e7420746f6b656e0000000000000000000000000000000000000000602082015250565b600061427e602c836130af565b915061428982614222565b604082019050919050565b600060208201905081810360008301526142ad81614271565b9050919050565b7f4f776e61626c653a2063616c6c6572206973206e6f7420746865206f776e6572600082015250565b60006142ea6020836130af565b91506142f5826142b4565b602082019050919050565b60006020820190508181036000830152614319816142dd565b9050919050565b7f4552433732313a20617070726f766520746f2063616c6c657200000000000000600082015250565b60006143566019836130af565b915061436182614320565b602082019050919050565b6000602082019050818103600083015261438581614349565b9050919050565b7f4552433732313a207472616e7366657220746f206e6f6e20455243373231526560008201527f63656976657220696d706c656d656e7465720000000000000000000000000000602082015250565b60006143e86032836130af565b91506143f38261438c565b604082019050919050565b60006020820190508181036000830152614417816143db565b9050919050565b600081905092915050565b6000614434826130a4565b61443e818561441e565b935061444e8185602086016130c0565b80840191505092915050565b60006144668285614429565b91506144728284614429565b91508190509392505050565b600061448a83856139fb565b935061449783858461359c565b82840190509392505050565b60006144b082848661447e565b91508190509392505050565b6000819050919050565b6144cf816144bc565b82525050565b60006080820190506144ea60008301876144c6565b6144f760208301866131f4565b614504604083018561330a565b61451160608301846144c6565b95945050505050565b7f4552433732313a206d696e7420746f20746865207a65726f2061646472657373600082015250565b60006145506020836130af565b915061455b8261451a565b602082019050919050565b6000602082019050818103600083015261457f81614543565b9050919050565b7f4552433732313a20746f6b656e20616c7265616479206d696e74656400000000600082015250565b60006145bc601c836130af565b91506145c782614586565b602082019050919050565b600060208201905081810360008301526145eb816145af565b9050919050565b7f45524337323155524953746f726167653a2055524920736574206f66206e6f6e60008201527f6578697374656e7420746f6b656e000000000000000000000000000000000000602082015250565b600061464e602e836130af565b9150614659826145f2565b604082019050919050565b6000602082019050818103600083015261467d81614641565b9050919050565b7f5061757361626c653a206e6f7420706175736564000000000000000000000000600082015250565b60006146ba6014836130af565b91506146c582614684565b602082019050919050565b600060208201905081810360008301526146e9816146ad565b9050919050565b600081519050919050565b600082825260208201905092915050565b6000614717826146f0565b61472181856146fb565b93506147318185602086016130c0565b61473a816130f3565b840191505092915050565b600060808201905061475a60008301876131f4565b61476760208301866131f4565b614774604083018561330a565b8181036060830152614786818461470c565b905095945050505050565b6000815190506147a081612f83565b92915050565b6000602082840312156147bc576147bb612f4d565b5b60006147ca84828501614791565b91505092915050565b7f45434453413a20696e76616c6964207369676e61747572650000000000000000600082015250565b60006148096018836130af565b9150614814826147d3565b602082019050919050565b60006020820190508181036000830152614838816147fc565b9050919050565b7f45434453413a20696e76616c6964207369676e6174757265206c656e67746800600082015250565b6000614875601f836130af565b91506148808261483f565b602082019050919050565b600060208201905081810360008301526148a481614868565b9050919050565b7f45434453413a20696e76616c6964207369676e6174757265202773272076616c60008201527f7565000000000000000000000000000000000000000000000000000000000000602082015250565b60006149076022836130af565b9150614912826148ab565b604082019050919050565b60006020820190508181036000830152614936816148fa565b9050919050565b7f45434453413a20696e76616c6964207369676e6174757265202776272076616c60008201527f7565000000000000000000000000000000000000000000000000000000000000602082015250565b60006149996022836130af565b91506149a48261493d565b604082019050919050565b600060208201905081810360008301526149c88161498c565b9050919050565b60006149da8261315f565b91507fffffffffffffffffffffffffffffffffffffffffffffffffffffffffffffffff821415614a0d57614a0c613b1f565b5b600182019050919050565b6000614a238261315f565b9150614a2e8361315f565b925082614a3e57614a3d613fa5565b5b828206905092915050565b7f4e487b7100000000000000000000000000000000000000000000000000000000600052603260045260246000fd5b7f1901000000000000000000000000000000000000000000000000000000000000600082015250565b6000614aae60028361441e565b9150614ab982614a78565b600282019050919050565b6000819050919050565b614adf614ada826144bc565b614ac4565b82525050565b6000614af082614aa1565b9150614afc8285614ace565b602082019150614b0c8284614ace565b6020820191508190509392505050565b600060ff82169050919050565b614b3281614b1c565b82525050565b6000608082019050614b4d60008301876144c6565b614b5a6020830186614b29565b614b6760408301856144c6565b614b7460608301846144c6565b95945050505050565b600060a082019050614b9260008301886144c6565b614b9f60208301876144c6565b614bac60408301866144c6565b614bb9606083018561330a565b614bc660808301846131f4565b969550505050505056fea2646970667358221220a041a8bcbd3eab5680ae2bb7f26cf74ad532a374156178e555fc55933c98b77064736f6c63430008090033a264697066735822122003bdfa59a5e1eebe94fa89a00060de3b26fbd17485cb7549417378fe6a98d9a164736f6c63430008090033",
  "linkReferences": {},
  "deployedLinkReferences": {}
}