{
  "_format": "hh-sol-artifact-1",
  "contractName": "ArtongNFTFactory",
  "sourceName": "contracts/ArtongNFTFactory.sol",
  "abi": [
    {
      "inputs": [
        {
          "internalType": "address",
          "name": "_marketplace",
          "type": "address"
        },
        {
          "internalType": "address payable",
          "name": "_feeRecipient",
          "type": "address"
        },
        {
          "internalType": "uint16",
          "name": "_platformFee",
          "type": "uint16"
        }
      ],
      "stateMutability": "nonpayable",
      "type": "constructor"
    },
    {
      "anonymous": false,
      "inputs": [
        {
          "indexed": false,
          "internalType": "address",
          "name": "creator",
          "type": "address"
        },
        {
          "indexed": false,
          "internalType": "address",
          "name": "nft",
          "type": "address"
        }
      ],
      "name": "ContractCreated",
      "type": "event"
    },
    {
      "anonymous": false,
      "inputs": [
        {
          "indexed": false,
          "internalType": "address",
          "name": "caller",
          "type": "address"
        },
        {
          "indexed": false,
          "internalType": "address",
          "name": "nft",
          "type": "address"
        }
      ],
      "name": "ContractDisabled",
      "type": "event"
    },
    {
      "anonymous": false,
      "inputs": [
        {
          "indexed": true,
          "internalType": "address",
          "name": "previousOwner",
          "type": "address"
        },
        {
          "indexed": true,
          "internalType": "address",
          "name": "newOwner",
          "type": "address"
        }
      ],
      "name": "OwnershipTransferred",
      "type": "event"
    },
    {
      "inputs": [
        {
          "internalType": "string",
          "name": "_name",
          "type": "string"
        },
        {
          "internalType": "string",
          "name": "_symbol",
          "type": "string"
        },
        {
          "internalType": "uint256",
          "name": "_maxAmount",
          "type": "uint256"
        },
        {
          "internalType": "enum Policy",
          "name": "_policy",
          "type": "uint8"
        }
      ],
      "name": "createNFTContract",
      "outputs": [
        {
          "internalType": "address",
          "name": "",
          "type": "address"
        }
      ],
      "stateMutability": "payable",
      "type": "function"
    },
    {
      "inputs": [
        {
          "internalType": "address",
          "name": "tokenContractAddress",
          "type": "address"
        }
      ],
      "name": "disableTokenContract",
      "outputs": [],
      "stateMutability": "nonpayable",
      "type": "function"
    },
    {
      "inputs": [
        {
          "internalType": "address",
          "name": "",
          "type": "address"
        }
      ],
      "name": "exists",
      "outputs": [
        {
          "internalType": "bool",
          "name": "",
          "type": "bool"
        }
      ],
      "stateMutability": "view",
      "type": "function"
    },
    {
      "inputs": [],
      "name": "feeRecipient",
      "outputs": [
        {
          "internalType": "address payable",
          "name": "",
          "type": "address"
        }
      ],
      "stateMutability": "view",
      "type": "function"
    },
    {
      "inputs": [],
      "name": "marketplace",
      "outputs": [
        {
          "internalType": "address",
          "name": "",
          "type": "address"
        }
      ],
      "stateMutability": "view",
      "type": "function"
    },
    {
      "inputs": [],
      "name": "maxAmount",
      "outputs": [
        {
          "internalType": "uint256",
          "name": "",
          "type": "uint256"
        }
      ],
      "stateMutability": "view",
      "type": "function"
    },
    {
      "inputs": [],
      "name": "owner",
      "outputs": [
        {
          "internalType": "address",
          "name": "",
          "type": "address"
        }
      ],
      "stateMutability": "view",
      "type": "function"
    },
    {
      "inputs": [],
      "name": "platformFee",
      "outputs": [
        {
          "internalType": "uint16",
          "name": "",
          "type": "uint16"
        }
      ],
      "stateMutability": "view",
      "type": "function"
    },
    {
      "inputs": [],
      "name": "policy",
      "outputs": [
        {
          "internalType": "enum Policy",
          "name": "",
          "type": "uint8"
        }
      ],
      "stateMutability": "view",
      "type": "function"
    },
    {
      "inputs": [
        {
          "internalType": "address",
          "name": "tokenContractAddress",
          "type": "address"
        }
      ],
      "name": "registerTokenContract",
      "outputs": [],
      "stateMutability": "nonpayable",
      "type": "function"
    },
    {
      "inputs": [],
      "name": "renounceOwnership",
      "outputs": [],
      "stateMutability": "nonpayable",
      "type": "function"
    },
    {
      "inputs": [
        {
          "internalType": "address",
          "name": "newOwner",
          "type": "address"
        }
      ],
      "name": "transferOwnership",
      "outputs": [],
      "stateMutability": "nonpayable",
      "type": "function"
    },
    {
      "inputs": [
        {
          "internalType": "address payable",
          "name": "_feeRecipient",
          "type": "address"
        }
      ],
      "name": "updateFeeRecipient",
      "outputs": [],
      "stateMutability": "nonpayable",
      "type": "function"
    },
    {
      "inputs": [
        {
          "internalType": "address",
          "name": "_marketplace",
          "type": "address"
        }
      ],
      "name": "updateMarketplace",
      "outputs": [],
      "stateMutability": "nonpayable",
      "type": "function"
    },
    {
      "inputs": [
        {
          "internalType": "uint16",
          "name": "_platformFee",
          "type": "uint16"
        }
      ],
      "name": "updatePlatformFee",
      "outputs": [],
      "stateMutability": "nonpayable",
      "type": "function"
    }
  ],
  "bytecode": "0x608060405234801561001057600080fd5b50604051613d0a380380613d0a83398101604081905261002f916100eb565b61003833610083565b60018054600280546001600160a01b039586166001600160a01b03199190911617905561ffff909216600160a01b026001600160b01b0319909216929093169190911717905561013f565b600080546001600160a01b038381166001600160a01b0319831681178455604051919092169283917f8be0079c531659141344cd1fd0a4f28419497f9722a3daafe3b4186f6b6457e09190a35050565b6001600160a01b03811681146100e857600080fd5b50565b60008060006060848603121561010057600080fd5b835161010b816100d3565b602085015190935061011c816100d3565b604085015190925061ffff8116811461013457600080fd5b809150509250925092565b613bbc8061014e6000396000f3fe608060405260043610620000fb5760003560e01c8063afb069521162000095578063f160d3691162000060578063f160d36914620002b0578063f2fde38b14620002d5578063f6a3d24e14620002fa578063f7b0770b146200033f57600080fd5b8063afb06952146200022a578063d39bb16a146200024f578063e6411aa51462000274578063eb636317146200028b57600080fd5b80635f48f39311620000d65780635f48f39314620001a7578063715018a614620001ce5780638da5cb5b14620001e8578063abc8c7af146200020857600080fd5b80630505c8c9146200010057806326232a2e146200013457806346904840146200016c575b600080fd5b3480156200010d57600080fd5b506004546200011c9060ff1681565b6040516200012b9190620008f5565b60405180910390f35b3480156200014157600080fd5b506001546200015890600160a01b900461ffff1681565b60405161ffff90911681526020016200012b565b3480156200017957600080fd5b506002546200018e906001600160a01b031681565b6040516001600160a01b0390911681526020016200012b565b348015620001b457600080fd5b50620001bf60055481565b6040519081526020016200012b565b348015620001db57600080fd5b50620001e662000364565b005b348015620001f557600080fd5b506000546001600160a01b03166200018e565b3480156200021557600080fd5b506001546200018e906001600160a01b031681565b3480156200023757600080fd5b50620001e6620002493660046200090b565b6200037c565b3480156200025c57600080fd5b50620001e66200026e3660046200094e565b620003a8565b6200018e6200028536600462000a19565b62000488565b3480156200029857600080fd5b50620001e6620002aa3660046200094e565b620005b7565b348015620002bd57600080fd5b50620001e6620002cf3660046200094e565b620005e3565b348015620002e257600080fd5b50620001e6620002f43660046200094e565b6200060f565b3480156200030757600080fd5b506200032e620003193660046200094e565b60036020526000908152604090205460ff1681565b60405190151581526020016200012b565b3480156200034c57600080fd5b50620001e66200035e3660046200094e565b6200068e565b6200036e62000818565b6200037a600062000874565b565b6200038662000818565b6001805461ffff909216600160a01b0261ffff60a01b19909216919091179055565b620003b262000818565b6001600160a01b03811660009081526003602052604090205460ff16620004205760405162461bcd60e51b815260206004820152601e60248201527f4e465420636f6e7472616374206973206e6f742072656769737465726564000060448201526064015b60405180910390fd5b6001600160a01b0381166000908152600360205260409020805460ff191690557f0d60ee093b891105dfb73abfbe0421cc1a07500f5c1776ec7d189e6c7f6d6340335b604080516001600160a01b03928316815291841660208301520160405180910390a150565b6001546002546040516000928392889288926001600160a01b0380821693600160a01b90920461ffff169291169089908990620004c590620008c4565b620004d7979695949392919062000af5565b604051809103906000f080158015620004f4573d6000803e3d6000fd5b506001600160a01b03811660008181526003602052604090819020805460ff191660011790555163f2fde38b60e01b81523360048201529192509063f2fde38b90602401600060405180830381600087803b1580156200055357600080fd5b505af115801562000568573d6000803e3d6000fd5b5050604080513381526001600160a01b03851660208201527f2d49c67975aadd2d389580b368cfff5b49965b0bd5da33c144922ce01e7a4d7b935001905060405180910390a195945050505050565b620005c162000818565b600180546001600160a01b0319166001600160a01b0392909216919091179055565b620005ed62000818565b600280546001600160a01b0319166001600160a01b0392909216919091179055565b6200061962000818565b6001600160a01b038116620006805760405162461bcd60e51b815260206004820152602660248201527f4f776e61626c653a206e6577206f776e657220697320746865207a65726f206160448201526564647265737360d01b606482015260840162000417565b6200068b8162000874565b50565b6200069862000818565b6001600160a01b03811660009081526003602052604090205460ff1615620007035760405162461bcd60e51b815260206004820152601f60248201527f4e465420636f6e747261637420616c7265616479207265676973746572656400604482015260640162000417565b6040516301ffc9a760e01b81526380ac58cd60e01b60048201526001600160a01b038216906301ffc9a79060240160206040518083038186803b1580156200074a57600080fd5b505afa1580156200075f573d6000803e3d6000fd5b505050506040513d601f19601f8201168201806040525081019062000785919062000b65565b620007cc5760405162461bcd60e51b8152602060048201526016602482015275139bdd08185b88115490cdcc8c4818dbdb9d1c9858dd60521b604482015260640162000417565b6001600160a01b0381166000908152600360205260409020805460ff191660011790557f2d49c67975aadd2d389580b368cfff5b49965b0bd5da33c144922ce01e7a4d7b620004633390565b6000546001600160a01b031633146200037a5760405162461bcd60e51b815260206004820181905260248201527f4f776e61626c653a2063616c6c6572206973206e6f7420746865206f776e6572604482015260640162000417565b600080546001600160a01b038381166001600160a01b0319831681178455604051919092169283917f8be0079c531659141344cd1fd0a4f28419497f9722a3daafe3b4186f6b6457e09190a35050565b612ffd8062000b8a83390190565b60028110620008f157634e487b7160e01b600052602160045260246000fd5b9052565b60208101620009058284620008d2565b92915050565b6000602082840312156200091e57600080fd5b813561ffff811681146200093157600080fd5b9392505050565b6001600160a01b03811681146200068b57600080fd5b6000602082840312156200096157600080fd5b8135620009318162000938565b634e487b7160e01b600052604160045260246000fd5b600082601f8301126200099657600080fd5b813567ffffffffffffffff80821115620009b457620009b46200096e565b604051601f8301601f19908116603f01168101908282118183101715620009df57620009df6200096e565b81604052838152866020858801011115620009f957600080fd5b836020870160208301376000602085830101528094505050505092915050565b6000806000806080858703121562000a3057600080fd5b843567ffffffffffffffff8082111562000a4957600080fd5b62000a578883890162000984565b9550602087013591508082111562000a6e57600080fd5b5062000a7d8782880162000984565b9350506040850135915060608501356002811062000a9a57600080fd5b939692955090935050565b6000815180845260005b8181101562000acd5760208185018101518683018201520162000aaf565b8181111562000ae0576000602083870101525b50601f01601f19169290920160200192915050565b60e08152600062000b0a60e083018a62000aa5565b828103602084015262000b1e818a62000aa5565b6001600160a01b03898116604086015261ffff891660608601528716608085015260a08401869052915062000b59905060c0830184620008d2565b98975050505050505050565b60006020828403121562000b7857600080fd5b815180151581146200093157600080fdfe6101606040523480156200001257600080fd5b5060405162002ffd38038062002ffd8339810160408190526200003591620004d1565b6040518060400160405280601181526020017020b93a37b733a7232a16ab37bab1b432b960791b815250604051806040016040528060018152602001603160f81b815250888881600090805190602001906200009392919062000323565b508051620000a990600190602084019062000323565b5050825160209384012082519284019290922060e08390526101008190524660a0818152604080517f8b73c3c69bb8fe3d512ecc4cf759cc79239f7b179b0ffacaa9a75d522b39400f818901819052818301979097526060810194909452608080850193909352308483018190528151808603909301835260c09485019091528151919096012090529290925261012052506007805460ff191690556200015033620002c9565b60008751116200019a5760405162461bcd60e51b815260206004820152601060248201526f13985b59481a5cc81c995c5d5a5c995960821b60448201526064015b60405180910390fd5b6000865111620001e25760405162461bcd60e51b815260206004820152601260248201527114de5b589bdb081a5cc81c995c5d5a5c995960721b604482015260640162000191565b60008211620002405760405162461bcd60e51b815260206004820152602360248201527f4d6178416d6f756e742068617320746f20626520706f736974697665206e756d6044820152623132b960e91b606482015260840162000191565b60098054610100600160b81b0319166101006001600160a01b038881169190910261ffff60a81b191691909117600160a81b61ffff88160217808355600a80546001600160a01b0319169287169290921790915561014084905282919060ff191660018381811115620002b757620002b76200059a565b021790555050505050505050620005ed565b600780546001600160a01b03838116610100818102610100600160a81b031985161790945560405193909204169182907f8be0079c531659141344cd1fd0a4f28419497f9722a3daafe3b4186f6b6457e090600090a35050565b8280546200033190620005b0565b90600052602060002090601f016020900481019282620003555760008555620003a0565b82601f106200037057805160ff1916838001178555620003a0565b82800160010185558215620003a0579182015b82811115620003a057825182559160200191906001019062000383565b50620003ae929150620003b2565b5090565b5b80821115620003ae5760008155600101620003b3565b634e487b7160e01b600052604160045260246000fd5b600082601f830112620003f157600080fd5b81516001600160401b03808211156200040e576200040e620003c9565b604051601f8301601f19908116603f01168101908282118183101715620004395762000439620003c9565b816040528381526020925086838588010111156200045657600080fd5b600091505b838210156200047a57858201830151818301840152908201906200045b565b838211156200048c5760008385830101525b9695505050505050565b6001600160a01b0381168114620004ac57600080fd5b50565b8051620004bc8162000496565b919050565b805160028110620004bc57600080fd5b600080600080600080600060e0888a031215620004ed57600080fd5b87516001600160401b03808211156200050557600080fd5b620005138b838c01620003df565b985060208a01519150808211156200052a57600080fd5b50620005398a828b01620003df565b96505060408801516200054c8162000496565b606089015190955061ffff811681146200056557600080fd5b93506200057560808901620004af565b925060a088015191506200058c60c08901620004c1565b905092959891949750929550565b634e487b7160e01b600052602160045260246000fd5b600181811c90821680620005c557607f821691505b60208210811415620005e757634e487b7160e01b600052602260045260246000fd5b50919050565b60805160a05160c05160e0516101005161012051610140516129ae6200064f600039600081816103c70152610fbb01526000612049015260006120980152600061207301526000611fcc01526000611ff60152600061202001526129ae6000f3fe6080604052600436106101c25760003560e01c80635f48f393116100f757806395d89b4111610095578063c87b56dd11610064578063c87b56dd14610510578063d0def52114610530578063e985e9c514610550578063f2fde38b1461057057600080fd5b806395d89b4114610496578063a22cb465146104ab578063abc8c7af146104cb578063b88d4fde146104f057600080fd5b8063715018a6116100d1578063715018a61461042957806374bce0bc1461043e5780638456cb591461045e5780638da5cb5b1461047357600080fd5b80635f48f393146103b55780636352211e146103e957806370a082311461040957600080fd5b806326232a2e1161016457806342842e0e1161013e57806342842e0e1461034a57806342966c681461036a578063564b81ef1461038a5780635c975abb1461039d57600080fd5b806326232a2e146102e05780633740ebb3146103155780633f4ba83a1461033557600080fd5b8063081812fc116101a0578063081812fc14610245578063095ea7b31461027d578063111425521461029f57806323b872dd146102c057600080fd5b806301ffc9a7146101c75780630505c8c9146101fc57806306fdde0314610223575b600080fd5b3480156101d357600080fd5b506101e76101e23660046122f1565b610590565b60405190151581526020015b60405180910390f35b34801561020857600080fd5b506009546102169060ff1681565b6040516101f39190612346565b34801561022f57600080fd5b506102386105e2565b6040516101f391906123ac565b34801561025157600080fd5b506102656102603660046123bf565b610674565b6040516001600160a01b0390911681526020016101f3565b34801561028957600080fd5b5061029d6102983660046123f4565b61069b565b005b6102b26102ad36600461241e565b6107b6565b6040519081526020016101f3565b3480156102cc57600080fd5b5061029d6102db366004612473565b6109e6565b3480156102ec57600080fd5b5060095461030290600160a81b900461ffff1681565b60405161ffff90911681526020016101f3565b34801561032157600080fd5b50600a54610265906001600160a01b031681565b34801561034157600080fd5b5061029d610a18565b34801561035657600080fd5b5061029d610365366004612473565b610a69565b34801561037657600080fd5b5061029d6103853660046123bf565b610a84565b34801561039657600080fd5b50466102b2565b3480156103a957600080fd5b5060075460ff166101e7565b3480156103c157600080fd5b506102b27f000000000000000000000000000000000000000000000000000000000000000081565b3480156103f557600080fd5b506102656104043660046123bf565b610ab5565b34801561041557600080fd5b506102b26104243660046124af565b610b15565b34801561043557600080fd5b5061029d610b9b565b34801561044a57600080fd5b5061029d6104593660046124ca565b610bad565b34801561046a57600080fd5b5061029d610c14565b34801561047f57600080fd5b5060075461010090046001600160a01b0316610265565b3480156104a257600080fd5b50610238610c63565b3480156104b757600080fd5b5061029d6104c63660046124eb565b610c72565b3480156104d757600080fd5b506009546102659061010090046001600160a01b031681565b3480156104fc57600080fd5b5061029d61050b366004612532565b610c81565b34801561051c57600080fd5b5061023861052b3660046123bf565b610cb9565b34801561053c57600080fd5b506102b261054b36600461260e565b610cc4565b34801561055c57600080fd5b506101e761056b366004612691565b610d47565b34801561057c57600080fd5b5061029d61058b3660046124af565b610d9e565b60006001600160e01b031982166380ac58cd60e01b14806105c157506001600160e01b03198216635b5e139f60e01b145b806105dc57506301ffc9a760e01b6001600160e01b03198316145b92915050565b6060600080546105f1906126c4565b80601f016020809104026020016040519081016040528092919081815260200182805461061d906126c4565b801561066a5780601f1061063f5761010080835404028352916020019161066a565b820191906000526020600020905b81548152906001019060200180831161064d57829003601f168201915b5050505050905090565b600061067f82610e14565b506000908152600460205260409020546001600160a01b031690565b60006106a682610ab5565b9050806001600160a01b0316836001600160a01b031614156107195760405162461bcd60e51b815260206004820152602160248201527f4552433732313a20617070726f76616c20746f2063757272656e74206f776e656044820152603960f91b60648201526084015b60405180910390fd5b336001600160a01b038216148061073557506107358133610d47565b6107a75760405162461bcd60e51b815260206004820152603e60248201527f4552433732313a20617070726f76652063616c6c6572206973206e6f7420746f60448201527f6b656e206f776e6572206e6f7220617070726f76656420666f7220616c6c00006064820152608401610710565b6107b18383610e73565b505050565b60006107c0610ee1565b60006107cb83610f27565b90506107da60208401846124af565b6001600160a01b0316816001600160a01b03161461082e5760405162461bcd60e51b815260206004820152601160248201527014da59db985d1d5c99481a5b9d985b1a59607a1b6044820152606401610710565b82602001353410156108825760405162461bcd60e51b815260206004820152601c60248201527f496e73756666696369656e742066756e647320746f2072656465656d000000006044820152606401610710565b600061088c610f80565b600a546040519192506000916001600160a01b039091169083908381818185875af1925050503d80600081146108de576040519150601f19603f3d011682016040523d82523d6000602084013e6108e3565b606091505b50509050806109265760405162461bcd60e51b815260206004820152600f60248201526e151c985b9cd9995c8819985a5b1959608a1b6044820152606401610710565b600061094a61093860208801886124af565b61094560408901896126ff565b610fae565b905061096361095c60208801886124af565b88836110ff565b60095461010090046001600160a01b031663e6d07de9610983853461275c565b6040516001600160e01b031960e084901b1681526001600160a01b03881660048201526024016000604051808303818588803b1580156109c257600080fd5b505af11580156109d6573d6000803e3d6000fd5b50939a9950505050505050505050565b6109f1335b8261129b565b610a0d5760405162461bcd60e51b815260040161071090612773565b6107b18383836110ff565b610a223333610d47565b610a5f5760405162461bcd60e51b815260206004820152600e60248201526d139bdd08185d5d1a1bdc9a5e995960921b6044820152606401610710565b610a67611344565b565b6107b183838360405180602001604052806000815250610c81565b610a8d336109eb565b610aa95760405162461bcd60e51b815260040161071090612773565b610ab281611396565b50565b6000818152600260205260408120546001600160a01b0316806105dc5760405162461bcd60e51b8152602060048201526018602482015277115490cdcc8c4e881a5b9d985b1a59081d1bdad95b88125160421b6044820152606401610710565b60006001600160a01b038216610b7f5760405162461bcd60e51b815260206004820152602960248201527f4552433732313a2061646472657373207a65726f206973206e6f7420612076616044820152683634b21037bbb732b960b91b6064820152608401610710565b506001600160a01b031660009081526003602052604090205490565b610ba361139f565b610a6760006113ff565b610bb561139f565b7f2a84386076f08e18b35c0fd50fee06abe5278e5ef64da9b565736ba7e93726998133604051610be69291906127c1565b60405180910390a16009805482919060ff191660018381811115610c0c57610c0c61230e565b021790555050565b610c1e3333610d47565b610c5b5760405162461bcd60e51b815260206004820152600e60248201526d139bdd08185d5d1a1bdc9a5e995960921b6044820152606401610710565b610a67611459565b6060600180546105f1906126c4565b610c7d338383611496565b5050565b610c8b338361129b565b610ca75760405162461bcd60e51b815260040161071090612773565b610cb384848484611565565b50505050565b60606105dc82611598565b6000610cce610ee1565b600060095460ff166001811115610ce757610ce761230e565b14610d345760405162461bcd60e51b815260206004820152601f60248201527f506f6c696379206f6e6c7920616c6c6f7773206c617a79206d696e74696e67006044820152606401610710565b610d3f848484610fae565b949350505050565b6009546000906001600160a01b03838116610100909204161415610d6d575060016105dc565b6001600160a01b0380841660009081526005602090815260408083209386168352929052205460ff165b9392505050565b610da661139f565b6001600160a01b038116610e0b5760405162461bcd60e51b815260206004820152602660248201527f4f776e61626c653a206e6577206f776e657220697320746865207a65726f206160448201526564647265737360d01b6064820152608401610710565b610ab2816113ff565b6000818152600260205260409020546001600160a01b0316610ab25760405162461bcd60e51b8152602060048201526018602482015277115490cdcc8c4e881a5b9d985b1a59081d1bdad95b88125160421b6044820152606401610710565b600081815260046020526040902080546001600160a01b0319166001600160a01b0384169081179091558190610ea882610ab5565b6001600160a01b03167f8c5be1e5ebec7d5bd14f71427d1e84f3dd0314c0f7b2291e5b200ac8c7c3b92560405160405180910390a45050565b60075460ff1615610a675760405162461bcd60e51b815260206004820152601060248201526f14185d5cd8589b194e881c185d5cd95960821b6044820152606401610710565b600080610f33836116a1565b9050610d9781610f4660608601866126ff565b8080601f01602080910402602001604051908101604052809392919081815260200183838082843760009201919091525061174692505050565b60095460009061271090610f9f90600160a81b900461ffff16346127e7565b610fa9919061281c565b905090565b6000610fb960085490565b7f0000000000000000000000000000000000000000000000000000000000000000116110275760405162461bcd60e51b815260206004820152601e60248201527f4d6178696d756d206e756d626572206f66204e465473207265616368656400006044820152606401610710565b611035600880546001019055565b600061104060085490565b6009546040516313408a3960e21b81526001600160a01b0388811660048301523060248301526044820184905292935061010090910490911690634d0228e490606401600060405180830381600087803b15801561109d57600080fd5b505af11580156110b1573d6000803e3d6000fd5b505050506110bf858261176a565b610d3f8185858080601f0160208091040260200160405190810160405280939291908181526020018383808284376000920191909152506118ac92505050565b826001600160a01b031661111282610ab5565b6001600160a01b0316146111765760405162461bcd60e51b815260206004820152602560248201527f4552433732313a207472616e736665722066726f6d20696e636f72726563742060448201526437bbb732b960d91b6064820152608401610710565b6001600160a01b0382166111d85760405162461bcd60e51b8152602060048201526024808201527f4552433732313a207472616e7366657220746f20746865207a65726f206164646044820152637265737360e01b6064820152608401610710565b6111e3600082610e73565b6001600160a01b038316600090815260036020526040812080546001929061120c90849061275c565b90915550506001600160a01b038216600090815260036020526040812080546001929061123a908490612830565b909155505060008181526002602052604080822080546001600160a01b0319166001600160a01b0386811691821790925591518493918716917fddf252ad1be2c89b69c2b068fc378daa952ba7f163c4a11628f55a4df523b3ef91a4505050565b6000818152600260205260408120546001600160a01b03166113145760405162461bcd60e51b815260206004820152602c60248201527f4552433732313a206f70657261746f7220717565727920666f72206e6f6e657860448201526b34b9ba32b73a103a37b5b2b760a11b6064820152608401610710565b600061131f83610ab5565b905061132b8185610d47565b1561133a5760019150506105dc565b610d3f8484611946565b61134c6119a4565b6007805460ff191690557f5db9ee0a495bf2e6ff9c91a7834c1ba4fdd244a5e8aa4e537bd38aeae4b073aa335b6040516001600160a01b03909116815260200160405180910390a1565b610ab2816119ed565b6007546001600160a01b03610100909104163314610a675760405162461bcd60e51b815260206004820181905260248201527f4f776e61626c653a2063616c6c6572206973206e6f7420746865206f776e65726044820152606401610710565b600780546001600160a01b03838116610100818102610100600160a81b031985161790945560405193909204169182907f8be0079c531659141344cd1fd0a4f28419497f9722a3daafe3b4186f6b6457e090600090a35050565b611461610ee1565b6007805460ff191660011790557f62e78cea01bee320cd4e420270b5ea74000d11b0c9f74754ebdbfc544b05a2586113793390565b816001600160a01b0316836001600160a01b031614156114f85760405162461bcd60e51b815260206004820152601960248201527f4552433732313a20617070726f766520746f2063616c6c6572000000000000006044820152606401610710565b6001600160a01b03838116600081815260056020908152604080832094871680845294825291829020805460ff191686151590811790915591519182527f17307eab39ab6107e8899845ad3d59bd9653f200f220920489ca2b5937696c31910160405180910390a3505050565b6115708484846110ff565b61157c84848484611a2d565b610cb35760405162461bcd60e51b815260040161071090612848565b60606115a382610e14565b600082815260066020526040812080546115bc906126c4565b80601f01602080910402602001604051908101604052809291908181526020018280546115e8906126c4565b80156116355780601f1061160a57610100808354040283529160200191611635565b820191906000526020600020905b81548152906001019060200180831161161857829003601f168201915b50505050509050600061165360408051602081019091526000815290565b9050805160001415611666575092915050565b81511561169857808260405160200161168092919061289a565b60405160208183030381529060405292505050919050565b610d3f84611b3a565b60006105dc7fe2c1fe55ff75bc6c0f1e92db9b907c57038a5f95f7c137ff4bf9e10a15bc3d016116d460208501856124af565b60208501356116e660408701876126ff565b6040516116f49291906128c9565b60405190819003812061172b949392916020019384526001600160a01b039290921660208401526040830152606082015260800190565b60405160208183030381529060405280519060200120611bad565b60008060006117558585611bfb565b9150915061176281611c6b565b509392505050565b6001600160a01b0382166117c05760405162461bcd60e51b815260206004820181905260248201527f4552433732313a206d696e7420746f20746865207a65726f20616464726573736044820152606401610710565b6000818152600260205260409020546001600160a01b0316156118255760405162461bcd60e51b815260206004820152601c60248201527f4552433732313a20746f6b656e20616c7265616479206d696e746564000000006044820152606401610710565b6001600160a01b038216600090815260036020526040812080546001929061184e908490612830565b909155505060008181526002602052604080822080546001600160a01b0319166001600160a01b03861690811790915590518392907fddf252ad1be2c89b69c2b068fc378daa952ba7f163c4a11628f55a4df523b3ef908290a45050565b6000828152600260205260409020546001600160a01b03166119275760405162461bcd60e51b815260206004820152602e60248201527f45524337323155524953746f726167653a2055524920736574206f66206e6f6e60448201526d32bc34b9ba32b73a103a37b5b2b760911b6064820152608401610710565b600082815260066020908152604090912082516107b19284019061220c565b60008061195283610ab5565b9050806001600160a01b0316846001600160a01b0316148061197957506119798185610d47565b80610d3f5750836001600160a01b031661199284610674565b6001600160a01b031614949350505050565b60075460ff16610a675760405162461bcd60e51b815260206004820152601460248201527314185d5cd8589b194e881b9bdd081c185d5cd95960621b6044820152606401610710565b6119f681611e26565b60008181526006602052604090208054611a0f906126c4565b159050610ab2576000818152600660205260408120610ab291612290565b60006001600160a01b0384163b15611b2f57604051630a85bd0160e11b81526001600160a01b0385169063150b7a0290611a719033908990889088906004016128d9565b602060405180830381600087803b158015611a8b57600080fd5b505af1925050508015611abb575060408051601f3d908101601f19168201909252611ab891810190612916565b60015b611b15573d808015611ae9576040519150601f19603f3d011682016040523d82523d6000602084013e611aee565b606091505b508051611b0d5760405162461bcd60e51b815260040161071090612848565b805181602001fd5b6001600160e01b031916630a85bd0160e11b149050610d3f565b506001949350505050565b6060611b4582610e14565b6000611b5c60408051602081019091526000815290565b90506000815111611b7c5760405180602001604052806000815250610d97565b80611b8684611ec1565b604051602001611b9792919061289a565b6040516020818303038152906040529392505050565b60006105dc611bba611fbf565b8360405161190160f01b6020820152602281018390526042810182905260009060620160405160208183030381529060405280519060200120905092915050565b600080825160411415611c325760208301516040840151606085015160001a611c26878285856120e6565b94509450505050611c64565b825160401415611c5c5760208301516040840151611c518683836121d3565b935093505050611c64565b506000905060025b9250929050565b6000816004811115611c7f57611c7f61230e565b1415611c885750565b6001816004811115611c9c57611c9c61230e565b1415611cea5760405162461bcd60e51b815260206004820152601860248201527f45434453413a20696e76616c6964207369676e617475726500000000000000006044820152606401610710565b6002816004811115611cfe57611cfe61230e565b1415611d4c5760405162461bcd60e51b815260206004820152601f60248201527f45434453413a20696e76616c6964207369676e6174757265206c656e677468006044820152606401610710565b6003816004811115611d6057611d6061230e565b1415611db95760405162461bcd60e51b815260206004820152602260248201527f45434453413a20696e76616c6964207369676e6174757265202773272076616c604482015261756560f01b6064820152608401610710565b6004816004811115611dcd57611dcd61230e565b1415610ab25760405162461bcd60e51b815260206004820152602260248201527f45434453413a20696e76616c6964207369676e6174757265202776272076616c604482015261756560f01b6064820152608401610710565b6000611e3182610ab5565b9050611e3e600083610e73565b6001600160a01b0381166000908152600360205260408120805460019290611e6790849061275c565b909155505060008281526002602052604080822080546001600160a01b0319169055518391906001600160a01b038416907fddf252ad1be2c89b69c2b068fc378daa952ba7f163c4a11628f55a4df523b3ef908390a45050565b606081611ee55750506040805180820190915260018152600360fc1b602082015290565b8160005b8115611f0f5780611ef981612933565b9150611f089050600a8361281c565b9150611ee9565b60008167ffffffffffffffff811115611f2a57611f2a61251c565b6040519080825280601f01601f191660200182016040528015611f54576020820181803683370190505b5090505b8415610d3f57611f6960018361275c565b9150611f76600a8661294e565b611f81906030612830565b60f81b818381518110611f9657611f96612962565b60200101906001600160f81b031916908160001a905350611fb8600a8661281c565b9450611f58565b6000306001600160a01b037f00000000000000000000000000000000000000000000000000000000000000001614801561201857507f000000000000000000000000000000000000000000000000000000000000000046145b1561204257507f000000000000000000000000000000000000000000000000000000000000000090565b50604080517f00000000000000000000000000000000000000000000000000000000000000006020808301919091527f0000000000000000000000000000000000000000000000000000000000000000828401527f000000000000000000000000000000000000000000000000000000000000000060608301524660808301523060a0808401919091528351808403909101815260c0909201909252805191012090565b6000807f7fffffffffffffffffffffffffffffff5d576e7357a4501ddfe92f46681b20a083111561211d57506000905060036121ca565b8460ff16601b1415801561213557508460ff16601c14155b1561214657506000905060046121ca565b6040805160008082526020820180845289905260ff881692820192909252606081018690526080810185905260019060a0016020604051602081039080840390855afa15801561219a573d6000803e3d6000fd5b5050604051601f1901519150506001600160a01b0381166121c3576000600192509250506121ca565b9150600090505b94509492505050565b6000806001600160ff1b038316816121f060ff86901c601b612830565b90506121fe878288856120e6565b935093505050935093915050565b828054612218906126c4565b90600052602060002090601f01602090048101928261223a5760008555612280565b82601f1061225357805160ff1916838001178555612280565b82800160010185558215612280579182015b82811115612280578251825591602001919060010190612265565b5061228c9291506122c6565b5090565b50805461229c906126c4565b6000825580601f106122ac575050565b601f016020900490600052602060002090810190610ab291905b5b8082111561228c57600081556001016122c7565b6001600160e01b031981168114610ab257600080fd5b60006020828403121561230357600080fd5b8135610d97816122db565b634e487b7160e01b600052602160045260246000fd5b6002811061234257634e487b7160e01b600052602160045260246000fd5b9052565b602081016105dc8284612324565b60005b8381101561236f578181015183820152602001612357565b83811115610cb35750506000910152565b60008151808452612398816020860160208601612354565b601f01601f19169290920160200192915050565b602081526000610d976020830184612380565b6000602082840312156123d157600080fd5b5035919050565b80356001600160a01b03811681146123ef57600080fd5b919050565b6000806040838503121561240757600080fd5b612410836123d8565b946020939093013593505050565b6000806040838503121561243157600080fd5b61243a836123d8565b9150602083013567ffffffffffffffff81111561245657600080fd5b83016080818603121561246857600080fd5b809150509250929050565b60008060006060848603121561248857600080fd5b612491846123d8565b925061249f602085016123d8565b9150604084013590509250925092565b6000602082840312156124c157600080fd5b610d97826123d8565b6000602082840312156124dc57600080fd5b813560028110610d9757600080fd5b600080604083850312156124fe57600080fd5b612507836123d8565b91506020830135801515811461246857600080fd5b634e487b7160e01b600052604160045260246000fd5b6000806000806080858703121561254857600080fd5b612551856123d8565b935061255f602086016123d8565b925060408501359150606085013567ffffffffffffffff8082111561258357600080fd5b818701915087601f83011261259757600080fd5b8135818111156125a9576125a961251c565b604051601f8201601f19908116603f011681019083821181831017156125d1576125d161251c565b816040528281528a60208487010111156125ea57600080fd5b82602086016020830137600060208483010152809550505050505092959194509250565b60008060006040848603121561262357600080fd5b61262c846123d8565b9250602084013567ffffffffffffffff8082111561264957600080fd5b818601915086601f83011261265d57600080fd5b81358181111561266c57600080fd5b87602082850101111561267e57600080fd5b6020830194508093505050509250925092565b600080604083850312156126a457600080fd5b6126ad836123d8565b91506126bb602084016123d8565b90509250929050565b600181811c908216806126d857607f821691505b602082108114156126f957634e487b7160e01b600052602260045260246000fd5b50919050565b6000808335601e1984360301811261271657600080fd5b83018035915067ffffffffffffffff82111561273157600080fd5b602001915036819003821315611c6457600080fd5b634e487b7160e01b600052601160045260246000fd5b60008282101561276e5761276e612746565b500390565b6020808252602e908201527f4552433732313a2063616c6c6572206973206e6f7420746f6b656e206f776e6560408201526d1c881b9bdc88185c1c1c9bdd995960921b606082015260800190565b604081016127cf8285612324565b6001600160a01b039290921660209190910152919050565b600081600019048311821515161561280157612801612746565b500290565b634e487b7160e01b600052601260045260246000fd5b60008261282b5761282b612806565b500490565b6000821982111561284357612843612746565b500190565b60208082526032908201527f4552433732313a207472616e7366657220746f206e6f6e20455243373231526560408201527131b2b4bb32b91034b6b83632b6b2b73a32b960711b606082015260800190565b600083516128ac818460208801612354565b8351908301906128c0818360208801612354565b01949350505050565b8183823760009101908152919050565b6001600160a01b038581168252841660208201526040810183905260806060820181905260009061290c90830184612380565b9695505050505050565b60006020828403121561292857600080fd5b8151610d97816122db565b600060001982141561294757612947612746565b5060010190565b60008261295d5761295d612806565b500690565b634e487b7160e01b600052603260045260246000fdfea26469706673582212208d22352c5b515dbab37389fbbbcb7c141df51c92eea6d6acee8c4aa114e80dbf64736f6c63430008090033a264697066735822122077fa3e82cba68d2eccad2ea291776f69ecb0b51a6a1f591e199362fd323e1b2364736f6c63430008090033",
  "linkReferences": {},
  "deployedLinkReferences": {}
}