{
  "_format": "hh-sol-artifact-1",
  "contractName": "ArtongNFTFactory",
  "sourceName": "contracts/ArtongNFTFactory.sol",
  "abi": [
    {
      "inputs": [
        {
          "internalType": "address",
          "name": "_marketplace",
          "type": "address"
        },
        {
          "internalType": "address payable",
          "name": "_feeRecipient",
          "type": "address"
        },
        {
          "internalType": "uint16",
          "name": "_platformFee",
          "type": "uint16"
        }
      ],
      "stateMutability": "nonpayable",
      "type": "constructor"
    },
    {
      "anonymous": false,
      "inputs": [
        {
          "indexed": false,
          "internalType": "address",
          "name": "creator",
          "type": "address"
        },
        {
          "indexed": false,
          "internalType": "address",
          "name": "nft",
          "type": "address"
        },
        {
          "indexed": false,
          "internalType": "string",
          "name": "name",
          "type": "string"
        },
        {
          "indexed": false,
          "internalType": "string",
          "name": "symbol",
          "type": "string"
        },
        {
          "indexed": false,
          "internalType": "uint256",
          "name": "maxAmount",
          "type": "uint256"
        },
        {
          "indexed": false,
          "internalType": "enum Policy",
          "name": "policy",
          "type": "uint8"
        }
      ],
      "name": "ContractCreated",
      "type": "event"
    },
    {
      "anonymous": false,
      "inputs": [
        {
          "indexed": false,
          "internalType": "address",
          "name": "caller",
          "type": "address"
        },
        {
          "indexed": false,
          "internalType": "address",
          "name": "nft",
          "type": "address"
        }
      ],
      "name": "ContractDisabled",
      "type": "event"
    },
    {
      "anonymous": false,
      "inputs": [
        {
          "indexed": false,
          "internalType": "address",
          "name": "creator",
          "type": "address"
        },
        {
          "indexed": false,
          "internalType": "address",
          "name": "nft",
          "type": "address"
        }
      ],
      "name": "ContractRegistered",
      "type": "event"
    },
    {
      "anonymous": false,
      "inputs": [
        {
          "indexed": false,
          "internalType": "address",
          "name": "caller",
          "type": "address"
        }
      ],
      "name": "Destoried",
      "type": "event"
    },
    {
      "anonymous": false,
      "inputs": [
        {
          "indexed": true,
          "internalType": "address",
          "name": "previousOwner",
          "type": "address"
        },
        {
          "indexed": true,
          "internalType": "address",
          "name": "newOwner",
          "type": "address"
        }
      ],
      "name": "OwnershipTransferred",
      "type": "event"
    },
    {
      "inputs": [
        {
          "internalType": "string",
          "name": "_name",
          "type": "string"
        },
        {
          "internalType": "string",
          "name": "_symbol",
          "type": "string"
        },
        {
          "internalType": "uint256",
          "name": "_maxAmount",
          "type": "uint256"
        },
        {
          "internalType": "enum Policy",
          "name": "_policy",
          "type": "uint8"
        }
      ],
      "name": "createNFTContract",
      "outputs": [
        {
          "internalType": "address",
          "name": "",
          "type": "address"
        }
      ],
      "stateMutability": "payable",
      "type": "function"
    },
    {
      "inputs": [
        {
          "internalType": "address",
          "name": "apocalypse",
          "type": "address"
        }
      ],
      "name": "destroy",
      "outputs": [],
      "stateMutability": "nonpayable",
      "type": "function"
    },
    {
      "inputs": [
        {
          "internalType": "address",
          "name": "tokenContractAddress",
          "type": "address"
        }
      ],
      "name": "disableTokenContract",
      "outputs": [],
      "stateMutability": "nonpayable",
      "type": "function"
    },
    {
      "inputs": [
        {
          "internalType": "address",
          "name": "",
          "type": "address"
        }
      ],
      "name": "exists",
      "outputs": [
        {
          "internalType": "bool",
          "name": "",
          "type": "bool"
        }
      ],
      "stateMutability": "view",
      "type": "function"
    },
    {
      "inputs": [],
      "name": "feeRecipient",
      "outputs": [
        {
          "internalType": "address payable",
          "name": "",
          "type": "address"
        }
      ],
      "stateMutability": "view",
      "type": "function"
    },
    {
      "inputs": [],
      "name": "marketplace",
      "outputs": [
        {
          "internalType": "address",
          "name": "",
          "type": "address"
        }
      ],
      "stateMutability": "view",
      "type": "function"
    },
    {
      "inputs": [],
      "name": "maxAmount",
      "outputs": [
        {
          "internalType": "uint256",
          "name": "",
          "type": "uint256"
        }
      ],
      "stateMutability": "view",
      "type": "function"
    },
    {
      "inputs": [],
      "name": "owner",
      "outputs": [
        {
          "internalType": "address",
          "name": "",
          "type": "address"
        }
      ],
      "stateMutability": "view",
      "type": "function"
    },
    {
      "inputs": [],
      "name": "platformFee",
      "outputs": [
        {
          "internalType": "uint16",
          "name": "",
          "type": "uint16"
        }
      ],
      "stateMutability": "view",
      "type": "function"
    },
    {
      "inputs": [],
      "name": "policy",
      "outputs": [
        {
          "internalType": "enum Policy",
          "name": "",
          "type": "uint8"
        }
      ],
      "stateMutability": "view",
      "type": "function"
    },
    {
      "inputs": [
        {
          "internalType": "address",
          "name": "tokenContractAddress",
          "type": "address"
        }
      ],
      "name": "registerTokenContract",
      "outputs": [],
      "stateMutability": "nonpayable",
      "type": "function"
    },
    {
      "inputs": [],
      "name": "renounceOwnership",
      "outputs": [],
      "stateMutability": "nonpayable",
      "type": "function"
    },
    {
      "inputs": [
        {
          "internalType": "address",
          "name": "newOwner",
          "type": "address"
        }
      ],
      "name": "transferOwnership",
      "outputs": [],
      "stateMutability": "nonpayable",
      "type": "function"
    },
    {
      "inputs": [
        {
          "internalType": "address payable",
          "name": "_feeRecipient",
          "type": "address"
        }
      ],
      "name": "updateFeeRecipient",
      "outputs": [],
      "stateMutability": "nonpayable",
      "type": "function"
    },
    {
      "inputs": [
        {
          "internalType": "address",
          "name": "_marketplace",
          "type": "address"
        }
      ],
      "name": "updateMarketplace",
      "outputs": [],
      "stateMutability": "nonpayable",
      "type": "function"
    },
    {
      "inputs": [
        {
          "internalType": "uint16",
          "name": "_platformFee",
          "type": "uint16"
        }
      ],
      "name": "updatePlatformFee",
      "outputs": [],
      "stateMutability": "nonpayable",
      "type": "function"
    }
  ],
  "bytecode": "0x608060405234801561001057600080fd5b5060405161455438038061455483398101604081905261002f916100eb565b61003833610083565b60018054600280546001600160a01b039586166001600160a01b03199190911617905561ffff909216600160a01b026001600160b01b0319909216929093169190911717905561013f565b600080546001600160a01b038381166001600160a01b0319831681178455604051919092169283917f8be0079c531659141344cd1fd0a4f28419497f9722a3daafe3b4186f6b6457e09190a35050565b6001600160a01b03811681146100e857600080fd5b50565b60008060006060848603121561010057600080fd5b835161010b816100d3565b602085015190935061011c816100d3565b604085015190925061ffff8116811461013457600080fd5b809150509250925092565b6144068061014e6000396000f3fe608060405260043610620001065760003560e01c8063afb069521162000095578063f160d3691162000060578063f160d36914620002e0578063f2fde38b1462000305578063f6a3d24e146200032a578063f7b0770b146200036f57600080fd5b8063afb06952146200025a578063d39bb16a146200027f578063e6411aa514620002a4578063eb63631714620002bb57600080fd5b80635f48f39311620000d65780635f48f39314620001d9578063715018a614620002005780638da5cb5b1462000218578063abc8c7af146200023857600080fd5b8062f55d9d146200010b5780630505c8c9146200013257806326232a2e146200016657806346904840146200019e575b600080fd5b3480156200011857600080fd5b50620001306200012a36600462000969565b62000394565b005b3480156200013f57600080fd5b506004546200014e9060ff1681565b6040516200015d9190620009b3565b60405180910390f35b3480156200017357600080fd5b506001546200018a90600160a01b900461ffff1681565b60405161ffff90911681526020016200015d565b348015620001ab57600080fd5b50600254620001c0906001600160a01b031681565b6040516001600160a01b0390911681526020016200015d565b348015620001e657600080fd5b50620001f160055481565b6040519081526020016200015d565b3480156200020d57600080fd5b5062000130620003dd565b3480156200022557600080fd5b506000546001600160a01b0316620001c0565b3480156200024557600080fd5b50600154620001c0906001600160a01b031681565b3480156200026757600080fd5b506200013062000279366004620009c9565b620003f5565b3480156200028c57600080fd5b50620001306200029e36600462000969565b62000421565b620001c0620002b536600462000a9a565b620004f8565b348015620002c857600080fd5b5062000130620002da36600462000969565b62000628565b348015620002ed57600080fd5b5062000130620002ff36600462000969565b62000654565b3480156200031257600080fd5b50620001306200032436600462000969565b62000680565b3480156200033757600080fd5b506200035e6200034936600462000969565b60036020526000908152604090205460ff1681565b60405190151581526020016200015d565b3480156200037c57600080fd5b50620001306200038e36600462000969565b620006ff565b6200039e62000899565b6040513381527f5cadda602999129224da9223897457704f47d5cc51d6fd287bff2ac4436247519060200160405180910390a1806001600160a01b0316ff5b620003e762000899565b620003f36000620008f5565b565b620003ff62000899565b6001805461ffff909216600160a01b0261ffff60a01b19909216919091179055565b6200042b62000899565b6001600160a01b03811660009081526003602052604090205460ff16620004995760405162461bcd60e51b815260206004820152601e60248201527f4e465420636f6e7472616374206973206e6f742072656769737465726564000060448201526064015b60405180910390fd5b6001600160a01b038116600081815260036020908152604091829020805460ff191690558151338152908101929092527f0d60ee093b891105dfb73abfbe0421cc1a07500f5c1776ec7d189e6c7f6d634091015b60405180910390a150565b6001546002546040516000928392889288926001600160a01b0380821693600160a01b90920461ffff169291169089908990620005359062000945565b62000547979695949392919062000b76565b604051809103906000f08015801562000564573d6000803e3d6000fd5b506001600160a01b03811660008181526003602052604090819020805460ff191660011790555163f2fde38b60e01b81523360048201529192509063f2fde38b90602401600060405180830381600087803b158015620005c357600080fd5b505af1158015620005d8573d6000803e3d6000fd5b505050507f3a7b4f8ec4c999d5e111169052be6ed6d3043552a3319cba2c6fb1818e1c13ac338288888888604051620006179695949392919062000be6565b60405180910390a195945050505050565b6200063262000899565b600180546001600160a01b0319166001600160a01b0392909216919091179055565b6200065e62000899565b600280546001600160a01b0319166001600160a01b0392909216919091179055565b6200068a62000899565b6001600160a01b038116620006f15760405162461bcd60e51b815260206004820152602660248201527f4f776e61626c653a206e6577206f776e657220697320746865207a65726f206160448201526564647265737360d01b606482015260840162000490565b620006fc81620008f5565b50565b6200070962000899565b6001600160a01b03811660009081526003602052604090205460ff1615620007745760405162461bcd60e51b815260206004820152601f60248201527f4e465420636f6e747261637420616c7265616479207265676973746572656400604482015260640162000490565b6040516301ffc9a760e01b81526380ac58cd60e01b60048201526001600160a01b038216906301ffc9a79060240160206040518083038186803b158015620007bb57600080fd5b505afa158015620007d0573d6000803e3d6000fd5b505050506040513d601f19601f82011682018060405250810190620007f6919062000c4b565b6200083d5760405162461bcd60e51b8152602060048201526016602482015275139bdd08185b88115490cdcc8c4818dbdb9d1c9858dd60521b604482015260640162000490565b6001600160a01b038116600081815260036020908152604091829020805460ff191660011790558151338152908101929092527f768fb430a0d4b201cb764ab221c316dd14d8babf2e4b2348e05964c6565318b69101620004ed565b6000546001600160a01b03163314620003f35760405162461bcd60e51b815260206004820181905260248201527f4f776e61626c653a2063616c6c6572206973206e6f7420746865206f776e6572604482015260640162000490565b600080546001600160a01b038381166001600160a01b0319831681178455604051919092169283917f8be0079c531659141344cd1fd0a4f28419497f9722a3daafe3b4186f6b6457e09190a35050565b6137618062000c7083390190565b6001600160a01b0381168114620006fc57600080fd5b6000602082840312156200097c57600080fd5b8135620009898162000953565b9392505050565b60028110620009af57634e487b7160e01b600052602160045260246000fd5b9052565b60208101620009c3828462000990565b92915050565b600060208284031215620009dc57600080fd5b813561ffff811681146200098957600080fd5b634e487b7160e01b600052604160045260246000fd5b600082601f83011262000a1757600080fd5b813567ffffffffffffffff8082111562000a355762000a35620009ef565b604051601f8301601f19908116603f0116810190828211818310171562000a605762000a60620009ef565b8160405283815286602085880101111562000a7a57600080fd5b836020870160208301376000602085830101528094505050505092915050565b6000806000806080858703121562000ab157600080fd5b843567ffffffffffffffff8082111562000aca57600080fd5b62000ad88883890162000a05565b9550602087013591508082111562000aef57600080fd5b5062000afe8782880162000a05565b9350506040850135915060608501356002811062000b1b57600080fd5b939692955090935050565b6000815180845260005b8181101562000b4e5760208185018101518683018201520162000b30565b8181111562000b61576000602083870101525b50601f01601f19169290920160200192915050565b60e08152600062000b8b60e083018a62000b26565b828103602084015262000b9f818a62000b26565b6001600160a01b03898116604086015261ffff891660608601528716608085015260a08401869052915062000bda905060c083018462000990565b98975050505050505050565b6001600160a01b0387811682528616602082015260c06040820181905260009062000c149083018762000b26565b828103606084015262000c28818762000b26565b91505083608083015262000c4060a083018462000990565b979650505050505050565b60006020828403121562000c5e57600080fd5b815180151581146200098957600080fdfe6101606040523480156200001257600080fd5b5060405162003761380380620037618339810160408190526200003591620004d1565b6040518060400160405280601181526020017020b93a37b733a7232a16ab37bab1b432b960791b815250604051806040016040528060018152602001603160f81b815250888881600090805190602001906200009392919062000323565b508051620000a990600190602084019062000323565b5050825160209384012082519284019290922060e08390526101008190524660a0818152604080517f8b73c3c69bb8fe3d512ecc4cf759cc79239f7b179b0ffacaa9a75d522b39400f818901819052818301979097526060810194909452608080850193909352308483018190528151808603909301835260c09485019091528151919096012090529290925261012052506007805460ff191690556200015033620002c9565b60008751116200019a5760405162461bcd60e51b815260206004820152601060248201526f13985b59481a5cc81c995c5d5a5c995960821b60448201526064015b60405180910390fd5b6000865111620001e25760405162461bcd60e51b815260206004820152601260248201527114de5b589bdb081a5cc81c995c5d5a5c995960721b604482015260640162000191565b60008211620002405760405162461bcd60e51b815260206004820152602360248201527f4d6178416d6f756e742068617320746f20626520706f736974697665206e756d6044820152623132b960e91b606482015260840162000191565b600d8054610100600160b81b0319166101006001600160a01b038881169190910261ffff60a81b191691909117600160a81b61ffff88160217808355600e80546001600160a01b0319169287169290921790915561014084905282919060ff191660018381811115620002b757620002b76200059a565b021790555050505050505050620005ed565b600780546001600160a01b03838116610100818102610100600160a81b031985161790945560405193909204169182907f8be0079c531659141344cd1fd0a4f28419497f9722a3daafe3b4186f6b6457e090600090a35050565b8280546200033190620005b0565b90600052602060002090601f016020900481019282620003555760008555620003a0565b82601f106200037057805160ff1916838001178555620003a0565b82800160010185558215620003a0579182015b82811115620003a057825182559160200191906001019062000383565b50620003ae929150620003b2565b5090565b5b80821115620003ae5760008155600101620003b3565b634e487b7160e01b600052604160045260246000fd5b600082601f830112620003f157600080fd5b81516001600160401b03808211156200040e576200040e620003c9565b604051601f8301601f19908116603f01168101908282118183101715620004395762000439620003c9565b816040528381526020925086838588010111156200045657600080fd5b600091505b838210156200047a57858201830151818301840152908201906200045b565b838211156200048c5760008385830101525b9695505050505050565b6001600160a01b0381168114620004ac57600080fd5b50565b8051620004bc8162000496565b919050565b805160028110620004bc57600080fd5b600080600080600080600060e0888a031215620004ed57600080fd5b87516001600160401b03808211156200050557600080fd5b620005138b838c01620003df565b985060208a01519150808211156200052a57600080fd5b50620005398a828b01620003df565b96505060408801516200054c8162000496565b606089015190955061ffff811681146200056557600080fd5b93506200057560808901620004af565b925060a088015191506200058c60c08901620004c1565b905092959891949750929550565b634e487b7160e01b600052602160045260246000fd5b600181811c90821680620005c557607f821691505b60208210811415620005e757634e487b7160e01b600052602260045260246000fd5b50919050565b60805160a05160c05160e0516101005161012051610140516131126200064f6000396000818161045001526116240152600061269a015260006126e9015260006126c40152600061261d015260006126470152600061267101526131126000f3fe6080604052600436106101ed5760003560e01c80635c975abb1161010d57806395d89b41116100a0578063b88d4fde1161006f578063b88d4fde14610599578063c87b56dd146105b9578063e985e9c5146105d9578063f2fde38b146105f9578063fd6552e11461061957600080fd5b806395d89b411461051f578063a22cb46514610534578063abc8c7af14610554578063add12d271461057957600080fd5b8063715018a6116100dc578063715018a6146104b257806374bce0bc146104c75780638456cb59146104e75780638da5cb5b146104fc57600080fd5b80635c975abb146104265780635f48f3931461043e5780636352211e1461047257806370a082311461049257600080fd5b806326232a2e1161018557806342842e0e1161015457806342842e0e146103b357806342966c68146103d35780634f6ccce7146103f3578063564b81ef1461041357600080fd5b806326232a2e146103295780632f745c591461035e5780633740ebb31461037e5780633f4ba83a1461039e57600080fd5b8063081812fc116101c1578063081812fc14610292578063095ea7b3146102ca57806318160ddd146102ea57806323b872dd1461030957600080fd5b8062f55d9d146101f257806301ffc9a7146102145780630505c8c91461024957806306fdde0314610270575b600080fd5b3480156101fe57600080fd5b5061021261020d36600461294c565b61062c565b005b34801561022057600080fd5b5061023461022f36600461297d565b610673565b60405190151581526020015b60405180910390f35b34801561025557600080fd5b50600d546102639060ff1681565b60405161024091906129d2565b34801561027c57600080fd5b50610285610684565b6040516102409190612a38565b34801561029e57600080fd5b506102b26102ad366004612a4b565b610716565b6040516001600160a01b039091168152602001610240565b3480156102d657600080fd5b506102126102e5366004612a64565b61073d565b3480156102f657600080fd5b50600a545b604051908152602001610240565b34801561031557600080fd5b50610212610324366004612a8e565b610858565b34801561033557600080fd5b50600d5461034b90600160a81b900461ffff1681565b60405161ffff9091168152602001610240565b34801561036a57600080fd5b506102fb610379366004612a64565b61088a565b34801561038a57600080fd5b50600e546102b2906001600160a01b031681565b3480156103aa57600080fd5b50610212610920565b3480156103bf57600080fd5b506102126103ce366004612a8e565b610971565b3480156103df57600080fd5b506102126103ee366004612a4b565b61098c565b3480156103ff57600080fd5b506102fb61040e366004612a4b565b6109bd565b34801561041f57600080fd5b50466102fb565b34801561043257600080fd5b5060075460ff16610234565b34801561044a57600080fd5b506102fb7f000000000000000000000000000000000000000000000000000000000000000081565b34801561047e57600080fd5b506102b261048d366004612a4b565b610a50565b34801561049e57600080fd5b506102fb6104ad36600461294c565b610ab0565b3480156104be57600080fd5b50610212610b36565b3480156104d357600080fd5b506102126104e2366004612aca565b610b48565b3480156104f357600080fd5b50610212610baf565b34801561050857600080fd5b5060075461010090046001600160a01b03166102b2565b34801561052b57600080fd5b50610285610bfe565b34801561054057600080fd5b5061021261054f366004612aeb565b610c0d565b34801561056057600080fd5b50600d546102b29061010090046001600160a01b031681565b34801561058557600080fd5b506102fb610594366004612b7b565b610c1c565b3480156105a557600080fd5b506102126105b4366004612c21565b610ca5565b3480156105c557600080fd5b506102856105d4366004612a4b565b610cdd565b3480156105e557600080fd5b506102346105f4366004612cfd565b610ce8565b34801561060557600080fd5b5061021261061436600461294c565b610d3f565b6102fb610627366004612d30565b610db5565b610634611066565b6040513381527f5cadda602999129224da9223897457704f47d5cc51d6fd287bff2ac4436247519060200160405180910390a1806001600160a01b0316ff5b600061067e826110c6565b92915050565b60606000805461069390612d7a565b80601f01602080910402602001604051908101604052809291908181526020018280546106bf90612d7a565b801561070c5780601f106106e15761010080835404028352916020019161070c565b820191906000526020600020905b8154815290600101906020018083116106ef57829003601f168201915b5050505050905090565b6000610721826110eb565b506000908152600460205260409020546001600160a01b031690565b600061074882610a50565b9050806001600160a01b0316836001600160a01b031614156107bb5760405162461bcd60e51b815260206004820152602160248201527f4552433732313a20617070726f76616c20746f2063757272656e74206f776e656044820152603960f91b60648201526084015b60405180910390fd5b336001600160a01b03821614806107d757506107d78133610ce8565b6108495760405162461bcd60e51b815260206004820152603e60248201527f4552433732313a20617070726f76652063616c6c6572206973206e6f7420746f60448201527f6b656e206f776e6572206e6f7220617070726f76656420666f7220616c6c000060648201526084016107b2565b610853838361114a565b505050565b610863335b826111b8565b61087f5760405162461bcd60e51b81526004016107b290612db5565b610853838383611269565b600061089583610ab0565b82106108f75760405162461bcd60e51b815260206004820152602b60248201527f455243373231456e756d657261626c653a206f776e657220696e646578206f7560448201526a74206f6620626f756e647360a81b60648201526084016107b2565b506001600160a01b03919091166000908152600860209081526040808320938352929052205490565b61092a3333610ce8565b6109675760405162461bcd60e51b815260206004820152600e60248201526d139bdd08185d5d1a1bdc9a5e995960921b60448201526064016107b2565b61096f611410565b565b61085383838360405180602001604052806000815250610ca5565b6109953361085d565b6109b15760405162461bcd60e51b81526004016107b290612db5565b6109ba81611462565b50565b60006109c8600a5490565b8210610a2b5760405162461bcd60e51b815260206004820152602c60248201527f455243373231456e756d657261626c653a20676c6f62616c20696e646578206f60448201526b7574206f6620626f756e647360a01b60648201526084016107b2565b600a8281548110610a3e57610a3e612e03565b90600052602060002001549050919050565b6000818152600260205260408120546001600160a01b03168061067e5760405162461bcd60e51b8152602060048201526018602482015277115490cdcc8c4e881a5b9d985b1a59081d1bdad95b88125160421b60448201526064016107b2565b60006001600160a01b038216610b1a5760405162461bcd60e51b815260206004820152602960248201527f4552433732313a2061646472657373207a65726f206973206e6f7420612076616044820152683634b21037bbb732b960b91b60648201526084016107b2565b506001600160a01b031660009081526003602052604090205490565b610b3e611066565b61096f600061146b565b610b50611066565b7f2a84386076f08e18b35c0fd50fee06abe5278e5ef64da9b565736ba7e93726998133604051610b81929190612e19565b60405180910390a1600d805482919060ff191660018381811115610ba757610ba761299a565b021790555050565b610bb93333610ce8565b610bf65760405162461bcd60e51b815260206004820152600e60248201526d139bdd08185d5d1a1bdc9a5e995960921b60448201526064016107b2565b61096f6114c5565b60606001805461069390612d7a565b610c18338383611502565b5050565b6000610c266115d1565b6000600d5460ff166001811115610c3f57610c3f61299a565b14610c8c5760405162461bcd60e51b815260206004820152601f60248201527f506f6c696379206f6e6c7920616c6c6f7773206c617a79206d696e74696e670060448201526064016107b2565b610c9a878787878787611617565b979650505050505050565b610caf33836111b8565b610ccb5760405162461bcd60e51b81526004016107b290612db5565b610cd784848484611832565b50505050565b606061067e82611865565b600d546000906001600160a01b03838116610100909204161415610d0e5750600161067e565b6001600160a01b0380841660009081526005602090815260408083209386168352929052205460ff165b9392505050565b610d47611066565b6001600160a01b038116610dac5760405162461bcd60e51b815260206004820152602660248201527f4f776e61626c653a206e6577206f776e657220697320746865207a65726f206160448201526564647265737360d01b60648201526084016107b2565b6109ba8161146b565b6000610dbf6115d1565b6000610dca8361196e565b9050610dd9602084018461294c565b6001600160a01b0316816001600160a01b031614610e2d5760405162461bcd60e51b815260206004820152601160248201527014da59db985d1d5c99481a5b9d985b1a59607a1b60448201526064016107b2565b8260200135341015610e815760405162461bcd60e51b815260206004820152601c60248201527f496e73756666696369656e742066756e647320746f2072656465656d0000000060448201526064016107b2565b6000610e8b6119c7565b600e546040519192506000916001600160a01b039091169083908381818185875af1925050503d8060008114610edd576040519150601f19603f3d011682016040523d82523d6000602084013e610ee2565b606091505b5050905080610f255760405162461bcd60e51b815260206004820152600f60248201526e151c985b9cd9995c8819985a5b1959608a1b60448201526064016107b2565b6000610f66610f37602088018861294c565b610f446040890189612e3f565b610f5160608b018b612e3f565b610f6160a08d0160808e01612e86565b611617565b90507f5cdf07ad0fc222442720b108e3ed4c4640f0fadc2ab2253e66f259a0fea83480610f96602088018861294c565b604080516001600160a01b039283168152918a16602083810191909152908201849052880135606082015260800160405180910390a1610fe3610fdc602088018861294c565b8883611269565b600d5461010090046001600160a01b031663e6d07de96110038534612eb7565b6040516001600160e01b031960e084901b1681526001600160a01b03881660048201526024016000604051808303818588803b15801561104257600080fd5b505af1158015611056573d6000803e3d6000fd5b50939a9950505050505050505050565b6007546001600160a01b0361010090910416331461096f5760405162461bcd60e51b815260206004820181905260248201527f4f776e61626c653a2063616c6c6572206973206e6f7420746865206f776e657260448201526064016107b2565b60006001600160e01b0319821663780e9d6360e01b148061067e575061067e826119f5565b6000818152600260205260409020546001600160a01b03166109ba5760405162461bcd60e51b8152602060048201526018602482015277115490cdcc8c4e881a5b9d985b1a59081d1bdad95b88125160421b60448201526064016107b2565b600081815260046020526040902080546001600160a01b0319166001600160a01b038416908117909155819061117f82610a50565b6001600160a01b03167f8c5be1e5ebec7d5bd14f71427d1e84f3dd0314c0f7b2291e5b200ac8c7c3b92560405160405180910390a45050565b6000818152600260205260408120546001600160a01b03166112315760405162461bcd60e51b815260206004820152602c60248201527f4552433732313a206f70657261746f7220717565727920666f72206e6f6e657860448201526b34b9ba32b73a103a37b5b2b760a11b60648201526084016107b2565b600061123c83610a50565b90506112488185610ce8565b1561125757600191505061067e565b6112618484611a45565b949350505050565b826001600160a01b031661127c82610a50565b6001600160a01b0316146112e05760405162461bcd60e51b815260206004820152602560248201527f4552433732313a207472616e736665722066726f6d20696e636f72726563742060448201526437bbb732b960d91b60648201526084016107b2565b6001600160a01b0382166113425760405162461bcd60e51b8152602060048201526024808201527f4552433732313a207472616e7366657220746f20746865207a65726f206164646044820152637265737360e01b60648201526084016107b2565b61134d838383611aa3565b61135860008261114a565b6001600160a01b0383166000908152600360205260408120805460019290611381908490612eb7565b90915550506001600160a01b03821660009081526003602052604081208054600192906113af908490612ece565b909155505060008181526002602052604080822080546001600160a01b0319166001600160a01b0386811691821790925591518493918716917fddf252ad1be2c89b69c2b068fc378daa952ba7f163c4a11628f55a4df523b3ef91a4505050565b611418611aae565b6007805460ff191690557f5db9ee0a495bf2e6ff9c91a7834c1ba4fdd244a5e8aa4e537bd38aeae4b073aa335b6040516001600160a01b03909116815260200160405180910390a1565b6109ba81611af7565b600780546001600160a01b03838116610100818102610100600160a81b031985161790945560405193909204169182907f8be0079c531659141344cd1fd0a4f28419497f9722a3daafe3b4186f6b6457e090600090a35050565b6114cd6115d1565b6007805460ff191660011790557f62e78cea01bee320cd4e420270b5ea74000d11b0c9f74754ebdbfc544b05a2586114453390565b816001600160a01b0316836001600160a01b031614156115645760405162461bcd60e51b815260206004820152601960248201527f4552433732313a20617070726f766520746f2063616c6c65720000000000000060448201526064016107b2565b6001600160a01b03838116600081815260056020908152604080832094871680845294825291829020805460ff191686151590811790915591519182527f17307eab39ab6107e8899845ad3d59bd9653f200f220920489ca2b5937696c31910160405180910390a3505050565b60075460ff161561096f5760405162461bcd60e51b815260206004820152601060248201526f14185d5cd8589b194e881c185d5cd95960821b60448201526064016107b2565b6000611622600c5490565b7f0000000000000000000000000000000000000000000000000000000000000000116116905760405162461bcd60e51b815260206004820152601e60248201527f4d6178696d756d206e756d626572206f66204e4654732072656163686564000060448201526064016107b2565b61169e600c80546001019055565b60006116a9600c5490565b600d546040516313408a3960e21b81526001600160a01b038b811660048301523060248301526044820184905292935061010090910490911690634d0228e490606401600060405180830381600087803b15801561170657600080fd5b505af115801561171a573d6000803e3d6000fd5b5050600d54604051636f85f09f60e01b81526001600160a01b038c811660048301523060248301526044820186905261ffff881660648301526101009092049091169250636f85f09f9150608401600060405180830381600087803b15801561178257600080fd5b505af1158015611796573d6000803e3d6000fd5b505050506117a48882611b37565b6117e48188888080601f016020809104026020016040519081016040528093929190818152602001838380828437600092019190915250611c8592505050565b7f10581f4dd4d2326b0097177f295132f868f1d3e7c27b92a1461fc208ea393fa98882898989898960405161181f9796959493929190612f0f565b60405180910390a1979650505050505050565b61183d848484611269565b61184984848484611d1f565b610cd75760405162461bcd60e51b81526004016107b290612f63565b6060611870826110eb565b6000828152600660205260408120805461188990612d7a565b80601f01602080910402602001604051908101604052809291908181526020018280546118b590612d7a565b80156119025780601f106118d757610100808354040283529160200191611902565b820191906000526020600020905b8154815290600101906020018083116118e557829003601f168201915b50505050509050600061192060408051602081019091526000815290565b9050805160001415611933575092915050565b81511561196557808260405160200161194d929190612fb5565b60405160208183030381529060405292505050919050565b61126184611e2c565b60008061197a83611e9f565b9050610d388161198d60a0860186612e3f565b8080601f016020809104026020016040519081016040528093929190818152602001838380828437600092019190915250611f8692505050565b600d54600090612710906119e690600160a81b900461ffff1634612fe4565b6119f09190613019565b905090565b60006001600160e01b031982166380ac58cd60e01b1480611a2657506001600160e01b03198216635b5e139f60e01b145b8061067e57506301ffc9a760e01b6001600160e01b031983161461067e565b600080611a5183610a50565b9050806001600160a01b0316846001600160a01b03161480611a785750611a788185610ce8565b806112615750836001600160a01b0316611a9184610716565b6001600160a01b031614949350505050565b610853838383611faa565b60075460ff1661096f5760405162461bcd60e51b815260206004820152601460248201527314185d5cd8589b194e881b9bdd081c185d5cd95960621b60448201526064016107b2565b611b0081612062565b60008181526006602052604090208054611b1990612d7a565b1590506109ba5760008181526006602052604081206109ba9161285d565b6001600160a01b038216611b8d5760405162461bcd60e51b815260206004820181905260248201527f4552433732313a206d696e7420746f20746865207a65726f206164647265737360448201526064016107b2565b6000818152600260205260409020546001600160a01b031615611bf25760405162461bcd60e51b815260206004820152601c60248201527f4552433732313a20746f6b656e20616c7265616479206d696e7465640000000060448201526064016107b2565b611bfe60008383611aa3565b6001600160a01b0382166000908152600360205260408120805460019290611c27908490612ece565b909155505060008181526002602052604080822080546001600160a01b0319166001600160a01b03861690811790915590518392907fddf252ad1be2c89b69c2b068fc378daa952ba7f163c4a11628f55a4df523b3ef908290a45050565b6000828152600260205260409020546001600160a01b0316611d005760405162461bcd60e51b815260206004820152602e60248201527f45524337323155524953746f726167653a2055524920736574206f66206e6f6e60448201526d32bc34b9ba32b73a103a37b5b2b760911b60648201526084016107b2565b6000828152600660209081526040909120825161085392840190612897565b60006001600160a01b0384163b15611e2157604051630a85bd0160e11b81526001600160a01b0385169063150b7a0290611d6390339089908890889060040161302d565b602060405180830381600087803b158015611d7d57600080fd5b505af1925050508015611dad575060408051601f3d908101601f19168201909252611daa9181019061306a565b60015b611e07573d808015611ddb576040519150601f19603f3d011682016040523d82523d6000602084013e611de0565b606091505b508051611dff5760405162461bcd60e51b81526004016107b290612f63565b805181602001fd5b6001600160e01b031916630a85bd0160e11b149050611261565b506001949350505050565b6060611e37826110eb565b6000611e4e60408051602081019091526000815290565b90506000815111611e6e5760405180602001604052806000815250610d38565b80611e7884612109565b604051602001611e89929190612fb5565b6040516020818303038152906040529392505050565b600061067e7f813417fe99aa747cb3b64f77337135438beddc5c90ad64dbaaab5ee0f6a662d0611ed2602085018561294c565b6020850135611ee46040870187612e3f565b604051611ef2929190613087565b604051908190039020611f086060880188612e3f565b604051611f16929190613087565b604051908190039020611f2f60a0890160808a01612e86565b6040805160208101979097526001600160a01b03909516948601949094526060850192909252608084015260a083015261ffff1660c082015260e00160405160208183030381529060405280519060200120612207565b6000806000611f958585612255565b91509150611fa2816122c5565b509392505050565b6001600160a01b0383166120055761200081600a80546000838152600b60205260408120829055600182018355919091527fc65a7bb8d6351c1cf70c95a316cc6a92839c986682d98bc35f958f4883f9d2a80155565b612028565b816001600160a01b0316836001600160a01b031614612028576120288382612480565b6001600160a01b03821661203f576108538161251d565b826001600160a01b0316826001600160a01b0316146108535761085382826125cc565b600061206d82610a50565b905061207b81600084611aa3565b61208660008361114a565b6001600160a01b03811660009081526003602052604081208054600192906120af908490612eb7565b909155505060008281526002602052604080822080546001600160a01b0319169055518391906001600160a01b038416907fddf252ad1be2c89b69c2b068fc378daa952ba7f163c4a11628f55a4df523b3ef908390a45050565b60608161212d5750506040805180820190915260018152600360fc1b602082015290565b8160005b8115612157578061214181613097565b91506121509050600a83613019565b9150612131565b60008167ffffffffffffffff81111561217257612172612c0b565b6040519080825280601f01601f19166020018201604052801561219c576020820181803683370190505b5090505b8415611261576121b1600183612eb7565b91506121be600a866130b2565b6121c9906030612ece565b60f81b8183815181106121de576121de612e03565b60200101906001600160f81b031916908160001a905350612200600a86613019565b94506121a0565b600061067e612214612610565b8360405161190160f01b6020820152602281018390526042810182905260009060620160405160208183030381529060405280519060200120905092915050565b60008082516041141561228c5760208301516040840151606085015160001a61228087828585612737565b945094505050506122be565b8251604014156122b657602083015160408401516122ab868383612824565b9350935050506122be565b506000905060025b9250929050565b60008160048111156122d9576122d961299a565b14156122e25750565b60018160048111156122f6576122f661299a565b14156123445760405162461bcd60e51b815260206004820152601860248201527f45434453413a20696e76616c6964207369676e6174757265000000000000000060448201526064016107b2565b60028160048111156123585761235861299a565b14156123a65760405162461bcd60e51b815260206004820152601f60248201527f45434453413a20696e76616c6964207369676e6174757265206c656e6774680060448201526064016107b2565b60038160048111156123ba576123ba61299a565b14156124135760405162461bcd60e51b815260206004820152602260248201527f45434453413a20696e76616c6964207369676e6174757265202773272076616c604482015261756560f01b60648201526084016107b2565b60048160048111156124275761242761299a565b14156109ba5760405162461bcd60e51b815260206004820152602260248201527f45434453413a20696e76616c6964207369676e6174757265202776272076616c604482015261756560f01b60648201526084016107b2565b6000600161248d84610ab0565b6124979190612eb7565b6000838152600960205260409020549091508082146124ea576001600160a01b03841660009081526008602090815260408083208584528252808320548484528184208190558352600990915290208190555b5060009182526009602090815260408084208490556001600160a01b039094168352600881528383209183525290812055565b600a5460009061252f90600190612eb7565b6000838152600b6020526040812054600a805493945090928490811061255757612557612e03565b9060005260206000200154905080600a838154811061257857612578612e03565b6000918252602080832090910192909255828152600b9091526040808220849055858252812055600a8054806125b0576125b06130c6565b6001900381819060005260206000200160009055905550505050565b60006125d783610ab0565b6001600160a01b039093166000908152600860209081526040808320868452825280832085905593825260099052919091209190915550565b6000306001600160a01b037f00000000000000000000000000000000000000000000000000000000000000001614801561266957507f000000000000000000000000000000000000000000000000000000000000000046145b1561269357507f000000000000000000000000000000000000000000000000000000000000000090565b50604080517f00000000000000000000000000000000000000000000000000000000000000006020808301919091527f0000000000000000000000000000000000000000000000000000000000000000828401527f000000000000000000000000000000000000000000000000000000000000000060608301524660808301523060a0808401919091528351808403909101815260c0909201909252805191012090565b6000807f7fffffffffffffffffffffffffffffff5d576e7357a4501ddfe92f46681b20a083111561276e575060009050600361281b565b8460ff16601b1415801561278657508460ff16601c14155b15612797575060009050600461281b565b6040805160008082526020820180845289905260ff881692820192909252606081018690526080810185905260019060a0016020604051602081039080840390855afa1580156127eb573d6000803e3d6000fd5b5050604051601f1901519150506001600160a01b0381166128145760006001925092505061281b565b9150600090505b94509492505050565b6000806001600160ff1b0383168161284160ff86901c601b612ece565b905061284f87828885612737565b935093505050935093915050565b50805461286990612d7a565b6000825580601f10612879575050565b601f0160209004906000526020600020908101906109ba919061291b565b8280546128a390612d7a565b90600052602060002090601f0160209004810192826128c5576000855561290b565b82601f106128de57805160ff191683800117855561290b565b8280016001018555821561290b579182015b8281111561290b5782518255916020019190600101906128f0565b5061291792915061291b565b5090565b5b80821115612917576000815560010161291c565b80356001600160a01b038116811461294757600080fd5b919050565b60006020828403121561295e57600080fd5b610d3882612930565b6001600160e01b0319811681146109ba57600080fd5b60006020828403121561298f57600080fd5b8135610d3881612967565b634e487b7160e01b600052602160045260246000fd5b600281106129ce57634e487b7160e01b600052602160045260246000fd5b9052565b6020810161067e82846129b0565b60005b838110156129fb5781810151838201526020016129e3565b83811115610cd75750506000910152565b60008151808452612a248160208601602086016129e0565b601f01601f19169290920160200192915050565b602081526000610d386020830184612a0c565b600060208284031215612a5d57600080fd5b5035919050565b60008060408385031215612a7757600080fd5b612a8083612930565b946020939093013593505050565b600080600060608486031215612aa357600080fd5b612aac84612930565b9250612aba60208501612930565b9150604084013590509250925092565b600060208284031215612adc57600080fd5b813560028110610d3857600080fd5b60008060408385031215612afe57600080fd5b612b0783612930565b915060208301358015158114612b1c57600080fd5b809150509250929050565b60008083601f840112612b3957600080fd5b50813567ffffffffffffffff811115612b5157600080fd5b6020830191508360208285010111156122be57600080fd5b803561ffff8116811461294757600080fd5b60008060008060008060808789031215612b9457600080fd5b612b9d87612930565b9550602087013567ffffffffffffffff80821115612bba57600080fd5b612bc68a838b01612b27565b90975095506040890135915080821115612bdf57600080fd5b50612bec89828a01612b27565b9094509250612bff905060608801612b69565b90509295509295509295565b634e487b7160e01b600052604160045260246000fd5b60008060008060808587031215612c3757600080fd5b612c4085612930565b9350612c4e60208601612930565b925060408501359150606085013567ffffffffffffffff80821115612c7257600080fd5b818701915087601f830112612c8657600080fd5b813581811115612c9857612c98612c0b565b604051601f8201601f19908116603f01168101908382118183101715612cc057612cc0612c0b565b816040528281528a6020848701011115612cd957600080fd5b82602086016020830137600060208483010152809550505050505092959194509250565b60008060408385031215612d1057600080fd5b612d1983612930565b9150612d2760208401612930565b90509250929050565b60008060408385031215612d4357600080fd5b612d4c83612930565b9150602083013567ffffffffffffffff811115612d6857600080fd5b830160c08186031215612b1c57600080fd5b600181811c90821680612d8e57607f821691505b60208210811415612daf57634e487b7160e01b600052602260045260246000fd5b50919050565b6020808252602e908201527f4552433732313a2063616c6c6572206973206e6f7420746f6b656e206f776e6560408201526d1c881b9bdc88185c1c1c9bdd995960921b606082015260800190565b634e487b7160e01b600052603260045260246000fd5b60408101612e2782856129b0565b6001600160a01b039290921660209190910152919050565b6000808335601e19843603018112612e5657600080fd5b83018035915067ffffffffffffffff821115612e7157600080fd5b6020019150368190038213156122be57600080fd5b600060208284031215612e9857600080fd5b610d3882612b69565b634e487b7160e01b600052601160045260246000fd5b600082821015612ec957612ec9612ea1565b500390565b60008219821115612ee157612ee1612ea1565b500190565b81835281816020850137506000828201602090810191909152601f909101601f19169091010190565b60018060a01b038816815286602082015260a060408201526000612f3760a083018789612ee6565b8281036060840152612f4a818688612ee6565b91505061ffff8316608083015298975050505050505050565b60208082526032908201527f4552433732313a207472616e7366657220746f206e6f6e20455243373231526560408201527131b2b4bb32b91034b6b83632b6b2b73a32b960711b606082015260800190565b60008351612fc78184602088016129e0565b835190830190612fdb8183602088016129e0565b01949350505050565b6000816000190483118215151615612ffe57612ffe612ea1565b500290565b634e487b7160e01b600052601260045260246000fd5b60008261302857613028613003565b500490565b6001600160a01b038581168252841660208201526040810183905260806060820181905260009061306090830184612a0c565b9695505050505050565b60006020828403121561307c57600080fd5b8151610d3881612967565b8183823760009101908152919050565b60006000198214156130ab576130ab612ea1565b5060010190565b6000826130c1576130c1613003565b500690565b634e487b7160e01b600052603160045260246000fdfea2646970667358221220ded1c754b58e1003c3543b85ba4688a3919b54564d11a6530f6a83df6ef28c3664736f6c63430008090033a2646970667358221220fd6c2d3bdbfdded5c2578a81fc321a5608ae745308f662554f4f6589e367110d64736f6c63430008090033",
  "linkReferences": {},
  "deployedLinkReferences": {}
}