{
  "_format": "hh-sol-artifact-1",
  "contractName": "ArtongNFTFactory",
  "sourceName": "contracts/ArtongNFTFactory.sol",
  "abi": [
    {
      "inputs": [
        {
          "internalType": "address",
          "name": "_marketplace",
          "type": "address"
        },
        {
          "internalType": "address payable",
          "name": "_feeRecipient",
          "type": "address"
        },
        {
          "internalType": "uint16",
          "name": "_platformFee",
          "type": "uint16"
        }
      ],
      "stateMutability": "nonpayable",
      "type": "constructor"
    },
    {
      "anonymous": false,
      "inputs": [
        {
          "indexed": false,
          "internalType": "address",
          "name": "creator",
          "type": "address"
        },
        {
          "indexed": false,
          "internalType": "address",
          "name": "nft",
          "type": "address"
        },
        {
          "indexed": false,
          "internalType": "string",
          "name": "name",
          "type": "string"
        },
        {
          "indexed": false,
          "internalType": "string",
          "name": "symbol",
          "type": "string"
        },
        {
          "indexed": false,
          "internalType": "uint256",
          "name": "maxAmount",
          "type": "uint256"
        },
        {
          "indexed": false,
          "internalType": "enum Policy",
          "name": "policy",
          "type": "uint8"
        }
      ],
      "name": "ContractCreated",
      "type": "event"
    },
    {
      "anonymous": false,
      "inputs": [
        {
          "indexed": false,
          "internalType": "address",
          "name": "caller",
          "type": "address"
        },
        {
          "indexed": false,
          "internalType": "address",
          "name": "nft",
          "type": "address"
        }
      ],
      "name": "ContractDisabled",
      "type": "event"
    },
    {
      "anonymous": false,
      "inputs": [
        {
          "indexed": false,
          "internalType": "address",
          "name": "creator",
          "type": "address"
        },
        {
          "indexed": false,
          "internalType": "address",
          "name": "nft",
          "type": "address"
        }
      ],
      "name": "ContractRegistered",
      "type": "event"
    },
    {
      "anonymous": false,
      "inputs": [
        {
          "indexed": false,
          "internalType": "address",
          "name": "caller",
          "type": "address"
        }
      ],
      "name": "Destoried",
      "type": "event"
    },
    {
      "anonymous": false,
      "inputs": [
        {
          "indexed": true,
          "internalType": "address",
          "name": "previousOwner",
          "type": "address"
        },
        {
          "indexed": true,
          "internalType": "address",
          "name": "newOwner",
          "type": "address"
        }
      ],
      "name": "OwnershipTransferred",
      "type": "event"
    },
    {
      "inputs": [
        {
          "internalType": "string",
          "name": "_name",
          "type": "string"
        },
        {
          "internalType": "string",
          "name": "_symbol",
          "type": "string"
        },
        {
          "internalType": "uint256",
          "name": "_maxAmount",
          "type": "uint256"
        },
        {
          "internalType": "enum Policy",
          "name": "_policy",
          "type": "uint8"
        }
      ],
      "name": "createNFTContract",
      "outputs": [
        {
          "internalType": "address",
          "name": "",
          "type": "address"
        }
      ],
      "stateMutability": "payable",
      "type": "function"
    },
    {
      "inputs": [
        {
          "internalType": "address",
          "name": "apocalypse",
          "type": "address"
        }
      ],
      "name": "destroy",
      "outputs": [],
      "stateMutability": "nonpayable",
      "type": "function"
    },
    {
      "inputs": [
        {
          "internalType": "address",
          "name": "tokenContractAddress",
          "type": "address"
        }
      ],
      "name": "disableTokenContract",
      "outputs": [],
      "stateMutability": "nonpayable",
      "type": "function"
    },
    {
      "inputs": [
        {
          "internalType": "address",
          "name": "",
          "type": "address"
        }
      ],
      "name": "exists",
      "outputs": [
        {
          "internalType": "bool",
          "name": "",
          "type": "bool"
        }
      ],
      "stateMutability": "view",
      "type": "function"
    },
    {
      "inputs": [],
      "name": "feeRecipient",
      "outputs": [
        {
          "internalType": "address payable",
          "name": "",
          "type": "address"
        }
      ],
      "stateMutability": "view",
      "type": "function"
    },
    {
      "inputs": [],
      "name": "marketplace",
      "outputs": [
        {
          "internalType": "address",
          "name": "",
          "type": "address"
        }
      ],
      "stateMutability": "view",
      "type": "function"
    },
    {
      "inputs": [],
      "name": "maxAmount",
      "outputs": [
        {
          "internalType": "uint256",
          "name": "",
          "type": "uint256"
        }
      ],
      "stateMutability": "view",
      "type": "function"
    },
    {
      "inputs": [],
      "name": "owner",
      "outputs": [
        {
          "internalType": "address",
          "name": "",
          "type": "address"
        }
      ],
      "stateMutability": "view",
      "type": "function"
    },
    {
      "inputs": [],
      "name": "platformFee",
      "outputs": [
        {
          "internalType": "uint16",
          "name": "",
          "type": "uint16"
        }
      ],
      "stateMutability": "view",
      "type": "function"
    },
    {
      "inputs": [],
      "name": "policy",
      "outputs": [
        {
          "internalType": "enum Policy",
          "name": "",
          "type": "uint8"
        }
      ],
      "stateMutability": "view",
      "type": "function"
    },
    {
      "inputs": [
        {
          "internalType": "address",
          "name": "tokenContractAddress",
          "type": "address"
        }
      ],
      "name": "registerTokenContract",
      "outputs": [],
      "stateMutability": "nonpayable",
      "type": "function"
    },
    {
      "inputs": [],
      "name": "renounceOwnership",
      "outputs": [],
      "stateMutability": "nonpayable",
      "type": "function"
    },
    {
      "inputs": [
        {
          "internalType": "address",
          "name": "newOwner",
          "type": "address"
        }
      ],
      "name": "transferOwnership",
      "outputs": [],
      "stateMutability": "nonpayable",
      "type": "function"
    },
    {
      "inputs": [
        {
          "internalType": "address payable",
          "name": "_feeRecipient",
          "type": "address"
        }
      ],
      "name": "updateFeeRecipient",
      "outputs": [],
      "stateMutability": "nonpayable",
      "type": "function"
    },
    {
      "inputs": [
        {
          "internalType": "address",
          "name": "_marketplace",
          "type": "address"
        }
      ],
      "name": "updateMarketplace",
      "outputs": [],
      "stateMutability": "nonpayable",
      "type": "function"
    },
    {
      "inputs": [
        {
          "internalType": "uint16",
          "name": "_platformFee",
          "type": "uint16"
        }
      ],
      "name": "updatePlatformFee",
      "outputs": [],
      "stateMutability": "nonpayable",
      "type": "function"
    }
  ],
  "bytecode": "0x608060405234801561001057600080fd5b5060405161449c38038061449c83398101604081905261002f916100eb565b61003833610083565b60018054600280546001600160a01b039586166001600160a01b03199190911617905561ffff909216600160a01b026001600160b01b0319909216929093169190911717905561013f565b600080546001600160a01b038381166001600160a01b0319831681178455604051919092169283917f8be0079c531659141344cd1fd0a4f28419497f9722a3daafe3b4186f6b6457e09190a35050565b6001600160a01b03811681146100e857600080fd5b50565b60008060006060848603121561010057600080fd5b835161010b816100d3565b602085015190935061011c816100d3565b604085015190925061ffff8116811461013457600080fd5b809150509250925092565b61434e8061014e6000396000f3fe608060405260043610620001065760003560e01c8063afb069521162000095578063f160d3691162000060578063f160d36914620002e0578063f2fde38b1462000305578063f6a3d24e146200032a578063f7b0770b146200036f57600080fd5b8063afb06952146200025a578063d39bb16a146200027f578063e6411aa514620002a4578063eb63631714620002bb57600080fd5b80635f48f39311620000d65780635f48f39314620001d9578063715018a614620002005780638da5cb5b1462000218578063abc8c7af146200023857600080fd5b8062f55d9d146200010b5780630505c8c9146200013257806326232a2e146200016657806346904840146200019e575b600080fd5b3480156200011857600080fd5b50620001306200012a36600462000969565b62000394565b005b3480156200013f57600080fd5b506004546200014e9060ff1681565b6040516200015d9190620009b3565b60405180910390f35b3480156200017357600080fd5b506001546200018a90600160a01b900461ffff1681565b60405161ffff90911681526020016200015d565b348015620001ab57600080fd5b50600254620001c0906001600160a01b031681565b6040516001600160a01b0390911681526020016200015d565b348015620001e657600080fd5b50620001f160055481565b6040519081526020016200015d565b3480156200020d57600080fd5b5062000130620003dd565b3480156200022557600080fd5b506000546001600160a01b0316620001c0565b3480156200024557600080fd5b50600154620001c0906001600160a01b031681565b3480156200026757600080fd5b506200013062000279366004620009c9565b620003f5565b3480156200028c57600080fd5b50620001306200029e36600462000969565b62000421565b620001c0620002b536600462000a9a565b620004f8565b348015620002c857600080fd5b5062000130620002da36600462000969565b62000628565b348015620002ed57600080fd5b5062000130620002ff36600462000969565b62000654565b3480156200031257600080fd5b50620001306200032436600462000969565b62000680565b3480156200033757600080fd5b506200035e6200034936600462000969565b60036020526000908152604090205460ff1681565b60405190151581526020016200015d565b3480156200037c57600080fd5b50620001306200038e36600462000969565b620006ff565b6200039e62000899565b6040513381527f5cadda602999129224da9223897457704f47d5cc51d6fd287bff2ac4436247519060200160405180910390a1806001600160a01b0316ff5b620003e762000899565b620003f36000620008f5565b565b620003ff62000899565b6001805461ffff909216600160a01b0261ffff60a01b19909216919091179055565b6200042b62000899565b6001600160a01b03811660009081526003602052604090205460ff16620004995760405162461bcd60e51b815260206004820152601e60248201527f4e465420636f6e7472616374206973206e6f742072656769737465726564000060448201526064015b60405180910390fd5b6001600160a01b038116600081815260036020908152604091829020805460ff191690558151338152908101929092527f0d60ee093b891105dfb73abfbe0421cc1a07500f5c1776ec7d189e6c7f6d634091015b60405180910390a150565b6001546002546040516000928392889288926001600160a01b0380821693600160a01b90920461ffff169291169089908990620005359062000945565b62000547979695949392919062000b76565b604051809103906000f08015801562000564573d6000803e3d6000fd5b506001600160a01b03811660008181526003602052604090819020805460ff191660011790555163f2fde38b60e01b81523360048201529192509063f2fde38b90602401600060405180830381600087803b158015620005c357600080fd5b505af1158015620005d8573d6000803e3d6000fd5b505050507f3a7b4f8ec4c999d5e111169052be6ed6d3043552a3319cba2c6fb1818e1c13ac338288888888604051620006179695949392919062000be6565b60405180910390a195945050505050565b6200063262000899565b600180546001600160a01b0319166001600160a01b0392909216919091179055565b6200065e62000899565b600280546001600160a01b0319166001600160a01b0392909216919091179055565b6200068a62000899565b6001600160a01b038116620006f15760405162461bcd60e51b815260206004820152602660248201527f4f776e61626c653a206e6577206f776e657220697320746865207a65726f206160448201526564647265737360d01b606482015260840162000490565b620006fc81620008f5565b50565b6200070962000899565b6001600160a01b03811660009081526003602052604090205460ff1615620007745760405162461bcd60e51b815260206004820152601f60248201527f4e465420636f6e747261637420616c7265616479207265676973746572656400604482015260640162000490565b6040516301ffc9a760e01b81526380ac58cd60e01b60048201526001600160a01b038216906301ffc9a79060240160206040518083038186803b158015620007bb57600080fd5b505afa158015620007d0573d6000803e3d6000fd5b505050506040513d601f19601f82011682018060405250810190620007f6919062000c4b565b6200083d5760405162461bcd60e51b8152602060048201526016602482015275139bdd08185b88115490cdcc8c4818dbdb9d1c9858dd60521b604482015260640162000490565b6001600160a01b038116600081815260036020908152604091829020805460ff191660011790558151338152908101929092527f768fb430a0d4b201cb764ab221c316dd14d8babf2e4b2348e05964c6565318b69101620004ed565b6000546001600160a01b03163314620003f35760405162461bcd60e51b815260206004820181905260248201527f4f776e61626c653a2063616c6c6572206973206e6f7420746865206f776e6572604482015260640162000490565b600080546001600160a01b038381166001600160a01b0319831681178455604051919092169283917f8be0079c531659141344cd1fd0a4f28419497f9722a3daafe3b4186f6b6457e09190a35050565b6136a98062000c7083390190565b6001600160a01b0381168114620006fc57600080fd5b6000602082840312156200097c57600080fd5b8135620009898162000953565b9392505050565b60028110620009af57634e487b7160e01b600052602160045260246000fd5b9052565b60208101620009c3828462000990565b92915050565b600060208284031215620009dc57600080fd5b813561ffff811681146200098957600080fd5b634e487b7160e01b600052604160045260246000fd5b600082601f83011262000a1757600080fd5b813567ffffffffffffffff8082111562000a355762000a35620009ef565b604051601f8301601f19908116603f0116810190828211818310171562000a605762000a60620009ef565b8160405283815286602085880101111562000a7a57600080fd5b836020870160208301376000602085830101528094505050505092915050565b6000806000806080858703121562000ab157600080fd5b843567ffffffffffffffff8082111562000aca57600080fd5b62000ad88883890162000a05565b9550602087013591508082111562000aef57600080fd5b5062000afe8782880162000a05565b9350506040850135915060608501356002811062000b1b57600080fd5b939692955090935050565b6000815180845260005b8181101562000b4e5760208185018101518683018201520162000b30565b8181111562000b61576000602083870101525b50601f01601f19169290920160200192915050565b60e08152600062000b8b60e083018a62000b26565b828103602084015262000b9f818a62000b26565b6001600160a01b03898116604086015261ffff891660608601528716608085015260a08401869052915062000bda905060c083018462000990565b98975050505050505050565b6001600160a01b0387811682528616602082015260c06040820181905260009062000c149083018762000b26565b828103606084015262000c28818762000b26565b91505083608083015262000c4060a083018462000990565b979650505050505050565b60006020828403121562000c5e57600080fd5b815180151581146200098957600080fdfe6101606040523480156200001257600080fd5b50604051620036a9380380620036a98339810160408190526200003591620004d1565b6040518060400160405280601181526020017020b93a37b733a7232a16ab37bab1b432b960791b815250604051806040016040528060018152602001603160f81b815250888881600090805190602001906200009392919062000323565b508051620000a990600190602084019062000323565b5050825160209384012082519284019290922060e08390526101008190524660a0818152604080517f8b73c3c69bb8fe3d512ecc4cf759cc79239f7b179b0ffacaa9a75d522b39400f818901819052818301979097526060810194909452608080850193909352308483018190528151808603909301835260c09485019091528151919096012090529290925261012052506007805460ff191690556200015033620002c9565b60008751116200019a5760405162461bcd60e51b815260206004820152601060248201526f13985b59481a5cc81c995c5d5a5c995960821b60448201526064015b60405180910390fd5b6000865111620001e25760405162461bcd60e51b815260206004820152601260248201527114de5b589bdb081a5cc81c995c5d5a5c995960721b604482015260640162000191565b60008211620002405760405162461bcd60e51b815260206004820152602360248201527f4d6178416d6f756e742068617320746f20626520706f736974697665206e756d6044820152623132b960e91b606482015260840162000191565b600d8054610100600160b81b0319166101006001600160a01b038881169190910261ffff60a81b191691909117600160a81b61ffff88160217808355600e80546001600160a01b0319169287169290921790915561014084905282919060ff191660018381811115620002b757620002b76200059a565b021790555050505050505050620005ed565b600780546001600160a01b03838116610100818102610100600160a81b031985161790945560405193909204169182907f8be0079c531659141344cd1fd0a4f28419497f9722a3daafe3b4186f6b6457e090600090a35050565b8280546200033190620005b0565b90600052602060002090601f016020900481019282620003555760008555620003a0565b82601f106200037057805160ff1916838001178555620003a0565b82800160010185558215620003a0579182015b82811115620003a057825182559160200191906001019062000383565b50620003ae929150620003b2565b5090565b5b80821115620003ae5760008155600101620003b3565b634e487b7160e01b600052604160045260246000fd5b600082601f830112620003f157600080fd5b81516001600160401b03808211156200040e576200040e620003c9565b604051601f8301601f19908116603f01168101908282118183101715620004395762000439620003c9565b816040528381526020925086838588010111156200045657600080fd5b600091505b838210156200047a57858201830151818301840152908201906200045b565b838211156200048c5760008385830101525b9695505050505050565b6001600160a01b0381168114620004ac57600080fd5b50565b8051620004bc8162000496565b919050565b805160028110620004bc57600080fd5b600080600080600080600060e0888a031215620004ed57600080fd5b87516001600160401b03808211156200050557600080fd5b620005138b838c01620003df565b985060208a01519150808211156200052a57600080fd5b50620005398a828b01620003df565b96505060408801516200054c8162000496565b606089015190955061ffff811681146200056557600080fd5b93506200057560808901620004af565b925060a088015191506200058c60c08901620004c1565b905092959891949750929550565b634e487b7160e01b600052602160045260246000fd5b600181811c90821680620005c557607f821691505b60208210811415620005e757634e487b7160e01b600052602260045260246000fd5b50919050565b60805160a05160c05160e05161010051610120516101405161305a6200064f6000396000818161045001526115b201526000612611015260006126600152600061263b01526000612594015260006125be015260006125e8015261305a6000f3fe6080604052600436106101ed5760003560e01c80635c975abb1161010d57806395d89b41116100a0578063b88d4fde1161006f578063b88d4fde14610599578063c87b56dd146105b9578063d9393029146105d9578063e985e9c5146105ec578063f2fde38b1461060c57600080fd5b806395d89b411461051f578063a22cb46514610534578063abc8c7af14610554578063add12d271461057957600080fd5b8063715018a6116100dc578063715018a6146104b257806374bce0bc146104c75780638456cb59146104e75780638da5cb5b146104fc57600080fd5b80635c975abb146104265780635f48f3931461043e5780636352211e1461047257806370a082311461049257600080fd5b806326232a2e1161018557806342842e0e1161015457806342842e0e146103b357806342966c68146103d35780634f6ccce7146103f3578063564b81ef1461041357600080fd5b806326232a2e146103295780632f745c591461035e5780633740ebb31461037e5780633f4ba83a1461039e57600080fd5b8063081812fc116101c1578063081812fc14610292578063095ea7b3146102ca57806318160ddd146102ea57806323b872dd1461030957600080fd5b8062f55d9d146101f257806301ffc9a7146102145780630505c8c91461024957806306fdde0314610270575b600080fd5b3480156101fe57600080fd5b5061021261020d3660046128c3565b61062c565b005b34801561022057600080fd5b5061023461022f3660046128f4565b610673565b60405190151581526020015b60405180910390f35b34801561025557600080fd5b50600d546102639060ff1681565b6040516102409190612949565b34801561027c57600080fd5b50610285610684565b60405161024091906129af565b34801561029e57600080fd5b506102b26102ad3660046129c2565b610716565b6040516001600160a01b039091168152602001610240565b3480156102d657600080fd5b506102126102e53660046129db565b61073d565b3480156102f657600080fd5b50600a545b604051908152602001610240565b34801561031557600080fd5b50610212610324366004612a05565b610858565b34801561033557600080fd5b50600d5461034b90600160a81b900461ffff1681565b60405161ffff9091168152602001610240565b34801561036a57600080fd5b506102fb6103793660046129db565b61088a565b34801561038a57600080fd5b50600e546102b2906001600160a01b031681565b3480156103aa57600080fd5b50610212610920565b3480156103bf57600080fd5b506102126103ce366004612a05565b610971565b3480156103df57600080fd5b506102126103ee3660046129c2565b61098c565b3480156103ff57600080fd5b506102fb61040e3660046129c2565b6109bd565b34801561041f57600080fd5b50466102fb565b34801561043257600080fd5b5060075460ff16610234565b34801561044a57600080fd5b506102fb7f000000000000000000000000000000000000000000000000000000000000000081565b34801561047e57600080fd5b506102b261048d3660046129c2565b610a50565b34801561049e57600080fd5b506102fb6104ad3660046128c3565b610ab0565b3480156104be57600080fd5b50610212610b36565b3480156104d357600080fd5b506102126104e2366004612a41565b610b48565b3480156104f357600080fd5b50610212610baf565b34801561050857600080fd5b5060075461010090046001600160a01b03166102b2565b34801561052b57600080fd5b50610285610bfe565b34801561054057600080fd5b5061021261054f366004612a62565b610c0d565b34801561056057600080fd5b50600d546102b29061010090046001600160a01b031681565b34801561058557600080fd5b506102fb610594366004612ae0565b610c1c565b3480156105a557600080fd5b506102126105b4366004612b90565b610ca5565b3480156105c557600080fd5b506102856105d43660046129c2565b610cdd565b6102fb6105e7366004612c6c565b610ce8565b3480156105f857600080fd5b50610234610607366004612cb6565b610f27565b34801561061857600080fd5b506102126106273660046128c3565b610f7e565b610634610ff4565b6040513381527f5cadda602999129224da9223897457704f47d5cc51d6fd287bff2ac4436247519060200160405180910390a1806001600160a01b0316ff5b600061067e82611054565b92915050565b60606000805461069390612ce9565b80601f01602080910402602001604051908101604052809291908181526020018280546106bf90612ce9565b801561070c5780601f106106e15761010080835404028352916020019161070c565b820191906000526020600020905b8154815290600101906020018083116106ef57829003601f168201915b5050505050905090565b600061072182611079565b506000908152600460205260409020546001600160a01b031690565b600061074882610a50565b9050806001600160a01b0316836001600160a01b031614156107bb5760405162461bcd60e51b815260206004820152602160248201527f4552433732313a20617070726f76616c20746f2063757272656e74206f776e656044820152603960f91b60648201526084015b60405180910390fd5b336001600160a01b03821614806107d757506107d78133610f27565b6108495760405162461bcd60e51b815260206004820152603e60248201527f4552433732313a20617070726f76652063616c6c6572206973206e6f7420746f60448201527f6b656e206f776e6572206e6f7220617070726f76656420666f7220616c6c000060648201526084016107b2565b61085383836110d8565b505050565b610863335b82611146565b61087f5760405162461bcd60e51b81526004016107b290612d24565b6108538383836111f7565b600061089583610ab0565b82106108f75760405162461bcd60e51b815260206004820152602b60248201527f455243373231456e756d657261626c653a206f776e657220696e646578206f7560448201526a74206f6620626f756e647360a81b60648201526084016107b2565b506001600160a01b03919091166000908152600860209081526040808320938352929052205490565b61092a3333610f27565b6109675760405162461bcd60e51b815260206004820152600e60248201526d139bdd08185d5d1a1bdc9a5e995960921b60448201526064016107b2565b61096f61139e565b565b61085383838360405180602001604052806000815250610ca5565b6109953361085d565b6109b15760405162461bcd60e51b81526004016107b290612d24565b6109ba816113f0565b50565b60006109c8600a5490565b8210610a2b5760405162461bcd60e51b815260206004820152602c60248201527f455243373231456e756d657261626c653a20676c6f62616c20696e646578206f60448201526b7574206f6620626f756e647360a01b60648201526084016107b2565b600a8281548110610a3e57610a3e612d72565b90600052602060002001549050919050565b6000818152600260205260408120546001600160a01b03168061067e5760405162461bcd60e51b8152602060048201526018602482015277115490cdcc8c4e881a5b9d985b1a59081d1bdad95b88125160421b60448201526064016107b2565b60006001600160a01b038216610b1a5760405162461bcd60e51b815260206004820152602960248201527f4552433732313a2061646472657373207a65726f206973206e6f7420612076616044820152683634b21037bbb732b960b91b60648201526084016107b2565b506001600160a01b031660009081526003602052604090205490565b610b3e610ff4565b61096f60006113f9565b610b50610ff4565b7f2a84386076f08e18b35c0fd50fee06abe5278e5ef64da9b565736ba7e93726998133604051610b81929190612d88565b60405180910390a1600d805482919060ff191660018381811115610ba757610ba7612911565b021790555050565b610bb93333610f27565b610bf65760405162461bcd60e51b815260206004820152600e60248201526d139bdd08185d5d1a1bdc9a5e995960921b60448201526064016107b2565b61096f611453565b60606001805461069390612ce9565b610c18338383611490565b5050565b6000610c2661155f565b6000600d5460ff166001811115610c3f57610c3f612911565b14610c8c5760405162461bcd60e51b815260206004820152601f60248201527f506f6c696379206f6e6c7920616c6c6f7773206c617a79206d696e74696e670060448201526064016107b2565b610c9a8787878787876115a5565b979650505050505050565b610caf3383611146565b610ccb5760405162461bcd60e51b81526004016107b290612d24565b610cd7848484846117be565b50505050565b606061067e826117f1565b6000610cf261155f565b6000610cfd836118fa565b9050610d0c60208401846128c3565b6001600160a01b0316816001600160a01b031614610d605760405162461bcd60e51b815260206004820152601160248201527014da59db985d1d5c99481a5b9d985b1a59607a1b60448201526064016107b2565b8260200135341015610db45760405162461bcd60e51b815260206004820152601c60248201527f496e73756666696369656e742066756e647320746f2072656465656d0000000060448201526064016107b2565b6000610dbe611953565b600e546040519192506000916001600160a01b039091169083908381818185875af1925050503d8060008114610e10576040519150601f19603f3d011682016040523d82523d6000602084013e610e15565b606091505b5050905080610e585760405162461bcd60e51b815260206004820152600f60248201526e151c985b9cd9995c8819985a5b1959608a1b60448201526064016107b2565b6000610e8b610e6a60208801886128c3565b610e776040890189612dae565b610e8460608b018b612dae565b60006115a5565b9050610ea4610e9d60208801886128c3565b88836111f7565b600d5461010090046001600160a01b031663e6d07de9610ec48534612e0b565b6040516001600160e01b031960e084901b1681526001600160a01b03881660048201526024016000604051808303818588803b158015610f0357600080fd5b505af1158015610f17573d6000803e3d6000fd5b50939a9950505050505050505050565b600d546000906001600160a01b03838116610100909204161415610f4d5750600161067e565b6001600160a01b0380841660009081526005602090815260408083209386168352929052205460ff165b9392505050565b610f86610ff4565b6001600160a01b038116610feb5760405162461bcd60e51b815260206004820152602660248201527f4f776e61626c653a206e6577206f776e657220697320746865207a65726f206160448201526564647265737360d01b60648201526084016107b2565b6109ba816113f9565b6007546001600160a01b0361010090910416331461096f5760405162461bcd60e51b815260206004820181905260248201527f4f776e61626c653a2063616c6c6572206973206e6f7420746865206f776e657260448201526064016107b2565b60006001600160e01b0319821663780e9d6360e01b148061067e575061067e82611981565b6000818152600260205260409020546001600160a01b03166109ba5760405162461bcd60e51b8152602060048201526018602482015277115490cdcc8c4e881a5b9d985b1a59081d1bdad95b88125160421b60448201526064016107b2565b600081815260046020526040902080546001600160a01b0319166001600160a01b038416908117909155819061110d82610a50565b6001600160a01b03167f8c5be1e5ebec7d5bd14f71427d1e84f3dd0314c0f7b2291e5b200ac8c7c3b92560405160405180910390a45050565b6000818152600260205260408120546001600160a01b03166111bf5760405162461bcd60e51b815260206004820152602c60248201527f4552433732313a206f70657261746f7220717565727920666f72206e6f6e657860448201526b34b9ba32b73a103a37b5b2b760a11b60648201526084016107b2565b60006111ca83610a50565b90506111d68185610f27565b156111e557600191505061067e565b6111ef84846119d1565b949350505050565b826001600160a01b031661120a82610a50565b6001600160a01b03161461126e5760405162461bcd60e51b815260206004820152602560248201527f4552433732313a207472616e736665722066726f6d20696e636f72726563742060448201526437bbb732b960d91b60648201526084016107b2565b6001600160a01b0382166112d05760405162461bcd60e51b8152602060048201526024808201527f4552433732313a207472616e7366657220746f20746865207a65726f206164646044820152637265737360e01b60648201526084016107b2565b6112db838383611a2f565b6112e66000826110d8565b6001600160a01b038316600090815260036020526040812080546001929061130f908490612e0b565b90915550506001600160a01b038216600090815260036020526040812080546001929061133d908490612e22565b909155505060008181526002602052604080822080546001600160a01b0319166001600160a01b0386811691821790925591518493918716917fddf252ad1be2c89b69c2b068fc378daa952ba7f163c4a11628f55a4df523b3ef91a4505050565b6113a6611a3a565b6007805460ff191690557f5db9ee0a495bf2e6ff9c91a7834c1ba4fdd244a5e8aa4e537bd38aeae4b073aa335b6040516001600160a01b03909116815260200160405180910390a1565b6109ba81611a83565b600780546001600160a01b03838116610100818102610100600160a81b031985161790945560405193909204169182907f8be0079c531659141344cd1fd0a4f28419497f9722a3daafe3b4186f6b6457e090600090a35050565b61145b61155f565b6007805460ff191660011790557f62e78cea01bee320cd4e420270b5ea74000d11b0c9f74754ebdbfc544b05a2586113d33390565b816001600160a01b0316836001600160a01b031614156114f25760405162461bcd60e51b815260206004820152601960248201527f4552433732313a20617070726f766520746f2063616c6c65720000000000000060448201526064016107b2565b6001600160a01b03838116600081815260056020908152604080832094871680845294825291829020805460ff191686151590811790915591519182527f17307eab39ab6107e8899845ad3d59bd9653f200f220920489ca2b5937696c31910160405180910390a3505050565b60075460ff161561096f5760405162461bcd60e51b815260206004820152601060248201526f14185d5cd8589b194e881c185d5cd95960821b60448201526064016107b2565b60006115b0600c5490565b7f00000000000000000000000000000000000000000000000000000000000000001161161e5760405162461bcd60e51b815260206004820152601e60248201527f4d6178696d756d206e756d626572206f66204e4654732072656163686564000060448201526064016107b2565b61162c600c80546001019055565b6000611637600c5490565b600d546040516313408a3960e21b81526001600160a01b038b811660048301523060248301526044820184905292935061010090910490911690634d0228e490606401600060405180830381600087803b15801561169457600080fd5b505af11580156116a8573d6000803e3d6000fd5b5050600d54604051636f85f09f60e01b81526001600160a01b038c811660048301523060248301526044820186905261ffff881660648301526101009092049091169250636f85f09f9150608401600060405180830381600087803b15801561171057600080fd5b505af1158015611724573d6000803e3d6000fd5b505050506117328882611ac3565b6117728188888080601f016020809104026020016040519081016040528093929190818152602001838380828437600092019190915250611c1192505050565b7f4e501b7ed20ed00ab45bf6bdfe315ee8cea82218c0680b05b465207dafd47d018882898989896040516117ab96959493929190612e63565b60405180910390a1979650505050505050565b6117c98484846111f7565b6117d584848484611cab565b610cd75760405162461bcd60e51b81526004016107b290612eab565b60606117fc82611079565b6000828152600660205260408120805461181590612ce9565b80601f016020809104026020016040519081016040528092919081815260200182805461184190612ce9565b801561188e5780601f106118635761010080835404028352916020019161188e565b820191906000526020600020905b81548152906001019060200180831161187157829003601f168201915b5050505050905060006118ac60408051602081019091526000815290565b90508051600014156118bf575092915050565b8151156118f15780826040516020016118d9929190612efd565b60405160208183030381529060405292505050919050565b6111ef84611db8565b60008061190683611e2b565b9050610f77816119196080860186612dae565b8080601f016020809104026020016040519081016040528093929190818152602001838380828437600092019190915250611efd92505050565b600d546000906127109061197290600160a81b900461ffff1634612f2c565b61197c9190612f61565b905090565b60006001600160e01b031982166380ac58cd60e01b14806119b257506001600160e01b03198216635b5e139f60e01b145b8061067e57506301ffc9a760e01b6001600160e01b031983161461067e565b6000806119dd83610a50565b9050806001600160a01b0316846001600160a01b03161480611a045750611a048185610f27565b806111ef5750836001600160a01b0316611a1d84610716565b6001600160a01b031614949350505050565b610853838383611f21565b60075460ff1661096f5760405162461bcd60e51b815260206004820152601460248201527314185d5cd8589b194e881b9bdd081c185d5cd95960621b60448201526064016107b2565b611a8c81611fd9565b60008181526006602052604090208054611aa590612ce9565b1590506109ba5760008181526006602052604081206109ba916127d4565b6001600160a01b038216611b195760405162461bcd60e51b815260206004820181905260248201527f4552433732313a206d696e7420746f20746865207a65726f206164647265737360448201526064016107b2565b6000818152600260205260409020546001600160a01b031615611b7e5760405162461bcd60e51b815260206004820152601c60248201527f4552433732313a20746f6b656e20616c7265616479206d696e7465640000000060448201526064016107b2565b611b8a60008383611a2f565b6001600160a01b0382166000908152600360205260408120805460019290611bb3908490612e22565b909155505060008181526002602052604080822080546001600160a01b0319166001600160a01b03861690811790915590518392907fddf252ad1be2c89b69c2b068fc378daa952ba7f163c4a11628f55a4df523b3ef908290a45050565b6000828152600260205260409020546001600160a01b0316611c8c5760405162461bcd60e51b815260206004820152602e60248201527f45524337323155524953746f726167653a2055524920736574206f66206e6f6e60448201526d32bc34b9ba32b73a103a37b5b2b760911b60648201526084016107b2565b600082815260066020908152604090912082516108539284019061280e565b60006001600160a01b0384163b15611dad57604051630a85bd0160e11b81526001600160a01b0385169063150b7a0290611cef903390899088908890600401612f75565b602060405180830381600087803b158015611d0957600080fd5b505af1925050508015611d39575060408051601f3d908101601f19168201909252611d3691810190612fb2565b60015b611d93573d808015611d67576040519150601f19603f3d011682016040523d82523d6000602084013e611d6c565b606091505b508051611d8b5760405162461bcd60e51b81526004016107b290612eab565b805181602001fd5b6001600160e01b031916630a85bd0160e11b1490506111ef565b506001949350505050565b6060611dc382611079565b6000611dda60408051602081019091526000815290565b90506000815111611dfa5760405180602001604052806000815250610f77565b80611e0484612080565b604051602001611e15929190612efd565b6040516020818303038152906040529392505050565b600061067e7f89b875cfe3337c5849875f6d0252c29697e43c2fef0f9105b00e27e048573ea0611e5e60208501856128c3565b6020850135611e706040870187612dae565b604051611e7e929190612fcf565b604051908190039020611e946060880188612dae565b604051611ea2929190612fcf565b604051908190038120611ee295949392916020019485526001600160a01b0393909316602085015260408401919091526060830152608082015260a00190565b6040516020818303038152906040528051906020012061217e565b6000806000611f0c85856121cc565b91509150611f198161223c565b509392505050565b6001600160a01b038316611f7c57611f7781600a80546000838152600b60205260408120829055600182018355919091527fc65a7bb8d6351c1cf70c95a316cc6a92839c986682d98bc35f958f4883f9d2a80155565b611f9f565b816001600160a01b0316836001600160a01b031614611f9f57611f9f83826123f7565b6001600160a01b038216611fb65761085381612494565b826001600160a01b0316826001600160a01b031614610853576108538282612543565b6000611fe482610a50565b9050611ff281600084611a2f565b611ffd6000836110d8565b6001600160a01b0381166000908152600360205260408120805460019290612026908490612e0b565b909155505060008281526002602052604080822080546001600160a01b0319169055518391906001600160a01b038416907fddf252ad1be2c89b69c2b068fc378daa952ba7f163c4a11628f55a4df523b3ef908390a45050565b6060816120a45750506040805180820190915260018152600360fc1b602082015290565b8160005b81156120ce57806120b881612fdf565b91506120c79050600a83612f61565b91506120a8565b60008167ffffffffffffffff8111156120e9576120e9612b7a565b6040519080825280601f01601f191660200182016040528015612113576020820181803683370190505b5090505b84156111ef57612128600183612e0b565b9150612135600a86612ffa565b612140906030612e22565b60f81b81838151811061215557612155612d72565b60200101906001600160f81b031916908160001a905350612177600a86612f61565b9450612117565b600061067e61218b612587565b8360405161190160f01b6020820152602281018390526042810182905260009060620160405160208183030381529060405280519060200120905092915050565b6000808251604114156122035760208301516040840151606085015160001a6121f7878285856126ae565b94509450505050612235565b82516040141561222d576020830151604084015161222286838361279b565b935093505050612235565b506000905060025b9250929050565b600081600481111561225057612250612911565b14156122595750565b600181600481111561226d5761226d612911565b14156122bb5760405162461bcd60e51b815260206004820152601860248201527f45434453413a20696e76616c6964207369676e6174757265000000000000000060448201526064016107b2565b60028160048111156122cf576122cf612911565b141561231d5760405162461bcd60e51b815260206004820152601f60248201527f45434453413a20696e76616c6964207369676e6174757265206c656e6774680060448201526064016107b2565b600381600481111561233157612331612911565b141561238a5760405162461bcd60e51b815260206004820152602260248201527f45434453413a20696e76616c6964207369676e6174757265202773272076616c604482015261756560f01b60648201526084016107b2565b600481600481111561239e5761239e612911565b14156109ba5760405162461bcd60e51b815260206004820152602260248201527f45434453413a20696e76616c6964207369676e6174757265202776272076616c604482015261756560f01b60648201526084016107b2565b6000600161240484610ab0565b61240e9190612e0b565b600083815260096020526040902054909150808214612461576001600160a01b03841660009081526008602090815260408083208584528252808320548484528184208190558352600990915290208190555b5060009182526009602090815260408084208490556001600160a01b039094168352600881528383209183525290812055565b600a546000906124a690600190612e0b565b6000838152600b6020526040812054600a80549394509092849081106124ce576124ce612d72565b9060005260206000200154905080600a83815481106124ef576124ef612d72565b6000918252602080832090910192909255828152600b9091526040808220849055858252812055600a8054806125275761252761300e565b6001900381819060005260206000200160009055905550505050565b600061254e83610ab0565b6001600160a01b039093166000908152600860209081526040808320868452825280832085905593825260099052919091209190915550565b6000306001600160a01b037f0000000000000000000000000000000000000000000000000000000000000000161480156125e057507f000000000000000000000000000000000000000000000000000000000000000046145b1561260a57507f000000000000000000000000000000000000000000000000000000000000000090565b50604080517f00000000000000000000000000000000000000000000000000000000000000006020808301919091527f0000000000000000000000000000000000000000000000000000000000000000828401527f000000000000000000000000000000000000000000000000000000000000000060608301524660808301523060a0808401919091528351808403909101815260c0909201909252805191012090565b6000807f7fffffffffffffffffffffffffffffff5d576e7357a4501ddfe92f46681b20a08311156126e55750600090506003612792565b8460ff16601b141580156126fd57508460ff16601c14155b1561270e5750600090506004612792565b6040805160008082526020820180845289905260ff881692820192909252606081018690526080810185905260019060a0016020604051602081039080840390855afa158015612762573d6000803e3d6000fd5b5050604051601f1901519150506001600160a01b03811661278b57600060019250925050612792565b9150600090505b94509492505050565b6000806001600160ff1b038316816127b860ff86901c601b612e22565b90506127c6878288856126ae565b935093505050935093915050565b5080546127e090612ce9565b6000825580601f106127f0575050565b601f0160209004906000526020600020908101906109ba9190612892565b82805461281a90612ce9565b90600052602060002090601f01602090048101928261283c5760008555612882565b82601f1061285557805160ff1916838001178555612882565b82800160010185558215612882579182015b82811115612882578251825591602001919060010190612867565b5061288e929150612892565b5090565b5b8082111561288e5760008155600101612893565b80356001600160a01b03811681146128be57600080fd5b919050565b6000602082840312156128d557600080fd5b610f77826128a7565b6001600160e01b0319811681146109ba57600080fd5b60006020828403121561290657600080fd5b8135610f77816128de565b634e487b7160e01b600052602160045260246000fd5b6002811061294557634e487b7160e01b600052602160045260246000fd5b9052565b6020810161067e8284612927565b60005b8381101561297257818101518382015260200161295a565b83811115610cd75750506000910152565b6000815180845261299b816020860160208601612957565b601f01601f19169290920160200192915050565b602081526000610f776020830184612983565b6000602082840312156129d457600080fd5b5035919050565b600080604083850312156129ee57600080fd5b6129f7836128a7565b946020939093013593505050565b600080600060608486031215612a1a57600080fd5b612a23846128a7565b9250612a31602085016128a7565b9150604084013590509250925092565b600060208284031215612a5357600080fd5b813560028110610f7757600080fd5b60008060408385031215612a7557600080fd5b612a7e836128a7565b915060208301358015158114612a9357600080fd5b809150509250929050565b60008083601f840112612ab057600080fd5b50813567ffffffffffffffff811115612ac857600080fd5b60208301915083602082850101111561223557600080fd5b60008060008060008060808789031215612af957600080fd5b612b02876128a7565b9550602087013567ffffffffffffffff80821115612b1f57600080fd5b612b2b8a838b01612a9e565b90975095506040890135915080821115612b4457600080fd5b50612b5189828a01612a9e565b909450925050606087013561ffff81168114612b6c57600080fd5b809150509295509295509295565b634e487b7160e01b600052604160045260246000fd5b60008060008060808587031215612ba657600080fd5b612baf856128a7565b9350612bbd602086016128a7565b925060408501359150606085013567ffffffffffffffff80821115612be157600080fd5b818701915087601f830112612bf557600080fd5b813581811115612c0757612c07612b7a565b604051601f8201601f19908116603f01168101908382118183101715612c2f57612c2f612b7a565b816040528281528a6020848701011115612c4857600080fd5b82602086016020830137600060208483010152809550505050505092959194509250565b60008060408385031215612c7f57600080fd5b612c88836128a7565b9150602083013567ffffffffffffffff811115612ca457600080fd5b830160a08186031215612a9357600080fd5b60008060408385031215612cc957600080fd5b612cd2836128a7565b9150612ce0602084016128a7565b90509250929050565b600181811c90821680612cfd57607f821691505b60208210811415612d1e57634e487b7160e01b600052602260045260246000fd5b50919050565b6020808252602e908201527f4552433732313a2063616c6c6572206973206e6f7420746f6b656e206f776e6560408201526d1c881b9bdc88185c1c1c9bdd995960921b606082015260800190565b634e487b7160e01b600052603260045260246000fd5b60408101612d968285612927565b6001600160a01b039290921660209190910152919050565b6000808335601e19843603018112612dc557600080fd5b83018035915067ffffffffffffffff821115612de057600080fd5b60200191503681900382131561223557600080fd5b634e487b7160e01b600052601160045260246000fd5b600082821015612e1d57612e1d612df5565b500390565b60008219821115612e3557612e35612df5565b500190565b81835281816020850137506000828201602090810191909152601f909101601f19169091010190565b60018060a01b0387168152856020820152608060408201526000612e8b608083018688612e3a565b8281036060840152612e9e818587612e3a565b9998505050505050505050565b60208082526032908201527f4552433732313a207472616e7366657220746f206e6f6e20455243373231526560408201527131b2b4bb32b91034b6b83632b6b2b73a32b960711b606082015260800190565b60008351612f0f818460208801612957565b835190830190612f23818360208801612957565b01949350505050565b6000816000190483118215151615612f4657612f46612df5565b500290565b634e487b7160e01b600052601260045260246000fd5b600082612f7057612f70612f4b565b500490565b6001600160a01b0385811682528416602082015260408101839052608060608201819052600090612fa890830184612983565b9695505050505050565b600060208284031215612fc457600080fd5b8151610f77816128de565b8183823760009101908152919050565b6000600019821415612ff357612ff3612df5565b5060010190565b60008261300957613009612f4b565b500690565b634e487b7160e01b600052603160045260246000fdfea2646970667358221220797dc2895bf593703ce53cd90ee1de941273d104e92d57fd7d8776366afda71064736f6c63430008090033a26469706673582212207b59896298f5e45b44f6923936a35e100e62ca7e9e5c68dac05f9ae55513a46064736f6c63430008090033",
  "linkReferences": {},
  "deployedLinkReferences": {}
}