{
  "_format": "hh-sol-artifact-1",
  "contractName": "ArtongMarketplace",
  "sourceName": "contracts/ArtongMarketplace.sol",
  "abi": [
    {
      "anonymous": false,
      "inputs": [
        {
          "indexed": false,
          "internalType": "uint8",
          "name": "version",
          "type": "uint8"
        }
      ],
      "name": "Initialized",
      "type": "event"
    },
    {
      "anonymous": false,
      "inputs": [
        {
          "indexed": true,
          "internalType": "address",
          "name": "owner",
          "type": "address"
        },
        {
          "indexed": true,
          "internalType": "address",
          "name": "nft",
          "type": "address"
        },
        {
          "indexed": false,
          "internalType": "uint256",
          "name": "tokenId",
          "type": "uint256"
        }
      ],
      "name": "ItemCanceled",
      "type": "event"
    },
    {
      "anonymous": false,
      "inputs": [
        {
          "indexed": true,
          "internalType": "address",
          "name": "owner",
          "type": "address"
        },
        {
          "indexed": true,
          "internalType": "address",
          "name": "nft",
          "type": "address"
        },
        {
          "indexed": false,
          "internalType": "uint256",
          "name": "tokenId",
          "type": "uint256"
        },
        {
          "indexed": false,
          "internalType": "uint256",
          "name": "price",
          "type": "uint256"
        }
      ],
      "name": "ItemListed",
      "type": "event"
    },
    {
      "anonymous": false,
      "inputs": [
        {
          "indexed": true,
          "internalType": "address",
          "name": "seller",
          "type": "address"
        },
        {
          "indexed": true,
          "internalType": "address",
          "name": "buyer",
          "type": "address"
        },
        {
          "indexed": true,
          "internalType": "address",
          "name": "nft",
          "type": "address"
        },
        {
          "indexed": false,
          "internalType": "uint256",
          "name": "tokenId",
          "type": "uint256"
        },
        {
          "indexed": false,
          "internalType": "uint256",
          "name": "price",
          "type": "uint256"
        }
      ],
      "name": "ItemSold",
      "type": "event"
    },
    {
      "anonymous": false,
      "inputs": [
        {
          "indexed": true,
          "internalType": "address",
          "name": "owner",
          "type": "address"
        },
        {
          "indexed": true,
          "internalType": "address",
          "name": "nft",
          "type": "address"
        },
        {
          "indexed": false,
          "internalType": "uint256",
          "name": "tokenId",
          "type": "uint256"
        },
        {
          "indexed": false,
          "internalType": "uint256",
          "name": "newPrice",
          "type": "uint256"
        }
      ],
      "name": "ItemUpdated",
      "type": "event"
    },
    {
      "anonymous": false,
      "inputs": [
        {
          "indexed": true,
          "internalType": "address",
          "name": "nft",
          "type": "address"
        },
        {
          "indexed": false,
          "internalType": "uint256",
          "name": "tokenId",
          "type": "uint256"
        },
        {
          "indexed": true,
          "internalType": "address",
          "name": "creator",
          "type": "address"
        }
      ],
      "name": "OfferAccepted",
      "type": "event"
    },
    {
      "anonymous": false,
      "inputs": [
        {
          "indexed": true,
          "internalType": "address",
          "name": "creator",
          "type": "address"
        },
        {
          "indexed": true,
          "internalType": "address",
          "name": "nft",
          "type": "address"
        },
        {
          "indexed": false,
          "internalType": "uint256",
          "name": "tokenId",
          "type": "uint256"
        },
        {
          "indexed": false,
          "internalType": "uint256",
          "name": "price",
          "type": "uint256"
        },
        {
          "indexed": false,
          "internalType": "uint256",
          "name": "deadline",
          "type": "uint256"
        }
      ],
      "name": "OfferCreated",
      "type": "event"
    },
    {
      "anonymous": false,
      "inputs": [
        {
          "indexed": true,
          "internalType": "address",
          "name": "previousOwner",
          "type": "address"
        },
        {
          "indexed": true,
          "internalType": "address",
          "name": "newOwner",
          "type": "address"
        }
      ],
      "name": "OwnershipTransferred",
      "type": "event"
    },
    {
      "anonymous": false,
      "inputs": [
        {
          "indexed": true,
          "internalType": "address",
          "name": "collectionOwner",
          "type": "address"
        },
        {
          "indexed": true,
          "internalType": "address",
          "name": "nft",
          "type": "address"
        },
        {
          "indexed": false,
          "internalType": "uint16",
          "name": "royalty",
          "type": "uint16"
        }
      ],
      "name": "UpdateCollectionRoyalty",
      "type": "event"
    },
    {
      "anonymous": false,
      "inputs": [
        {
          "indexed": false,
          "internalType": "uint16",
          "name": "platformFee",
          "type": "uint16"
        }
      ],
      "name": "UpdatePlatformFee",
      "type": "event"
    },
    {
      "anonymous": false,
      "inputs": [
        {
          "indexed": false,
          "internalType": "address payable",
          "name": "platformFeeRecipient",
          "type": "address"
        }
      ],
      "name": "UpdatePlatformFeeRecipient",
      "type": "event"
    },
    {
      "anonymous": false,
      "inputs": [
        {
          "indexed": true,
          "internalType": "address",
          "name": "tokenOwner",
          "type": "address"
        },
        {
          "indexed": false,
          "internalType": "uint16",
          "name": "royalty",
          "type": "uint16"
        }
      ],
      "name": "UpdateTokenRoyalty",
      "type": "event"
    },
    {
      "inputs": [
        {
          "internalType": "address",
          "name": "_nftAddress",
          "type": "address"
        },
        {
          "internalType": "uint256",
          "name": "_tokenId",
          "type": "uint256"
        },
        {
          "internalType": "address",
          "name": "_creator",
          "type": "address"
        }
      ],
      "name": "acceptOffer",
      "outputs": [],
      "stateMutability": "nonpayable",
      "type": "function"
    },
    {
      "inputs": [
        {
          "internalType": "address",
          "name": "_nftAddress",
          "type": "address"
        },
        {
          "internalType": "uint256",
          "name": "_tokenId",
          "type": "uint256"
        },
        {
          "internalType": "address",
          "name": "_owner",
          "type": "address"
        }
      ],
      "name": "buyItem",
      "outputs": [],
      "stateMutability": "payable",
      "type": "function"
    },
    {
      "inputs": [
        {
          "internalType": "address",
          "name": "_nftAddress",
          "type": "address"
        },
        {
          "internalType": "uint256",
          "name": "_tokenId",
          "type": "uint256"
        }
      ],
      "name": "cancelListing",
      "outputs": [],
      "stateMutability": "nonpayable",
      "type": "function"
    },
    {
      "inputs": [
        {
          "internalType": "address",
          "name": "_nftAddress",
          "type": "address"
        },
        {
          "internalType": "uint256",
          "name": "_tokenId",
          "type": "uint256"
        },
        {
          "internalType": "uint256",
          "name": "_deadline",
          "type": "uint256"
        }
      ],
      "name": "createOffer",
      "outputs": [],
      "stateMutability": "payable",
      "type": "function"
    },
    {
      "inputs": [],
      "name": "feeReceipient",
      "outputs": [
        {
          "internalType": "address payable",
          "name": "",
          "type": "address"
        }
      ],
      "stateMutability": "view",
      "type": "function"
    },
    {
      "inputs": [
        {
          "internalType": "uint256",
          "name": "_moment",
          "type": "uint256"
        }
      ],
      "name": "getArtongBalance",
      "outputs": [
        {
          "internalType": "uint256",
          "name": "",
          "type": "uint256"
        }
      ],
      "stateMutability": "view",
      "type": "function"
    },
    {
      "inputs": [
        {
          "internalType": "address",
          "name": "_nftAddress",
          "type": "address"
        }
      ],
      "name": "getCollectionRoyalty",
      "outputs": [
        {
          "components": [
            {
              "internalType": "uint16",
              "name": "royalty",
              "type": "uint16"
            },
            {
              "internalType": "uint256",
              "name": "royaltyBalance",
              "type": "uint256"
            }
          ],
          "internalType": "struct ArtongMarketplace.CollectionRoyalty",
          "name": "",
          "type": "tuple"
        }
      ],
      "stateMutability": "view",
      "type": "function"
    },
    {
      "inputs": [],
      "name": "getEtcBalance",
      "outputs": [
        {
          "internalType": "uint256",
          "name": "",
          "type": "uint256"
        }
      ],
      "stateMutability": "view",
      "type": "function"
    },
    {
      "inputs": [
        {
          "internalType": "uint256",
          "name": "_moment",
          "type": "uint256"
        },
        {
          "internalType": "address",
          "name": "user",
          "type": "address"
        }
      ],
      "name": "getOfferBalance",
      "outputs": [
        {
          "internalType": "uint256",
          "name": "",
          "type": "uint256"
        }
      ],
      "stateMutability": "view",
      "type": "function"
    },
    {
      "inputs": [],
      "name": "getRoyaltyBalance",
      "outputs": [
        {
          "internalType": "uint256",
          "name": "",
          "type": "uint256"
        }
      ],
      "stateMutability": "view",
      "type": "function"
    },
    {
      "inputs": [
        {
          "internalType": "uint16",
          "name": "_platformFee",
          "type": "uint16"
        },
        {
          "internalType": "address payable",
          "name": "_feeRecipient",
          "type": "address"
        }
      ],
      "name": "initialize",
      "outputs": [],
      "stateMutability": "nonpayable",
      "type": "function"
    },
    {
      "inputs": [
        {
          "internalType": "address",
          "name": "_nftAddress",
          "type": "address"
        },
        {
          "internalType": "uint256",
          "name": "_tokenId",
          "type": "uint256"
        },
        {
          "internalType": "uint256",
          "name": "_price",
          "type": "uint256"
        }
      ],
      "name": "listItem",
      "outputs": [],
      "stateMutability": "nonpayable",
      "type": "function"
    },
    {
      "inputs": [
        {
          "internalType": "address",
          "name": "",
          "type": "address"
        },
        {
          "internalType": "uint256",
          "name": "",
          "type": "uint256"
        },
        {
          "internalType": "address",
          "name": "",
          "type": "address"
        }
      ],
      "name": "offers",
      "outputs": [
        {
          "internalType": "uint256",
          "name": "price",
          "type": "uint256"
        },
        {
          "internalType": "uint256",
          "name": "deadline",
          "type": "uint256"
        }
      ],
      "stateMutability": "view",
      "type": "function"
    },
    {
      "inputs": [],
      "name": "owner",
      "outputs": [
        {
          "internalType": "address",
          "name": "",
          "type": "address"
        }
      ],
      "stateMutability": "view",
      "type": "function"
    },
    {
      "inputs": [],
      "name": "platformFee",
      "outputs": [
        {
          "internalType": "uint16",
          "name": "",
          "type": "uint16"
        }
      ],
      "stateMutability": "view",
      "type": "function"
    },
    {
      "inputs": [
        {
          "internalType": "address",
          "name": "_minter",
          "type": "address"
        },
        {
          "internalType": "address",
          "name": "_nftAddress",
          "type": "address"
        },
        {
          "internalType": "uint256",
          "name": "_tokenId",
          "type": "uint256"
        }
      ],
      "name": "registerMinter",
      "outputs": [],
      "stateMutability": "nonpayable",
      "type": "function"
    },
    {
      "inputs": [],
      "name": "renounceOwnership",
      "outputs": [],
      "stateMutability": "nonpayable",
      "type": "function"
    },
    {
      "inputs": [
        {
          "internalType": "address",
          "name": "newOwner",
          "type": "address"
        }
      ],
      "name": "transferOwnership",
      "outputs": [],
      "stateMutability": "nonpayable",
      "type": "function"
    },
    {
      "inputs": [
        {
          "internalType": "address",
          "name": "_nftAddress",
          "type": "address"
        },
        {
          "internalType": "uint16",
          "name": "_royalty",
          "type": "uint16"
        }
      ],
      "name": "updateCollectionRoyalty",
      "outputs": [],
      "stateMutability": "nonpayable",
      "type": "function"
    },
    {
      "inputs": [
        {
          "internalType": "address",
          "name": "_nftAddress",
          "type": "address"
        },
        {
          "internalType": "uint256",
          "name": "_tokenId",
          "type": "uint256"
        },
        {
          "internalType": "uint256",
          "name": "_newPrice",
          "type": "uint256"
        }
      ],
      "name": "updateListing",
      "outputs": [],
      "stateMutability": "nonpayable",
      "type": "function"
    },
    {
      "inputs": [
        {
          "internalType": "uint16",
          "name": "_platformFee",
          "type": "uint16"
        }
      ],
      "name": "updatePlatformFee",
      "outputs": [],
      "stateMutability": "nonpayable",
      "type": "function"
    },
    {
      "inputs": [
        {
          "internalType": "address payable",
          "name": "_platformFeeRecipient",
          "type": "address"
        }
      ],
      "name": "updatePlatformFeeRecipient",
      "outputs": [],
      "stateMutability": "nonpayable",
      "type": "function"
    },
    {
      "inputs": [
        {
          "internalType": "uint16",
          "name": "_royalty",
          "type": "uint16"
        }
      ],
      "name": "updateTokenRoyalty",
      "outputs": [],
      "stateMutability": "nonpayable",
      "type": "function"
    },
    {
      "inputs": [
        {
          "internalType": "address",
          "name": "",
          "type": "address"
        },
        {
          "internalType": "uint256",
          "name": "",
          "type": "uint256"
        }
      ],
      "name": "userOffers",
      "outputs": [
        {
          "internalType": "uint256",
          "name": "price",
          "type": "uint256"
        },
        {
          "internalType": "uint256",
          "name": "deadline",
          "type": "uint256"
        }
      ],
      "stateMutability": "view",
      "type": "function"
    },
    {
      "inputs": [],
      "name": "withdraw",
      "outputs": [],
      "stateMutability": "nonpayable",
      "type": "function"
    }
  ],
  "bytecode": "0x608060405234801561001057600080fd5b50614617806100206000396000f3fe6080604052600436106101655760003560e01c806374a5ea91116100d1578063b876d9d01161008a578063e0dbcde511610064578063e0dbcde5146104f9578063f2fde38b14610522578063f5fe7f711461054b578063f772adf11461057457610165565b8063b876d9d014610440578063bd5fec651461047d578063d3f494cc146104bb57610165565b806374a5ea9114610332578063843aad3e1461036f57806389bfd38f1461039a5780638da5cb5b146103c3578063afb06952146103ee578063b2ddee061461041757610165565b80633bbb2806116101235780633bbb28061461025e5780633ccfd60b146102875780634d0228e41461029e57806353ab8e58146102c75780636b852288146102f2578063715018a61461031b57610165565b8062e56c6d1461016a5780631c6c712814610193578063259ca365146101af57806326232a2e146101cb57806333ff9422146101f65780633740ebb314610233575b600080fd5b34801561017657600080fd5b50610191600480360381019061018c91906131d9565b61059d565b005b6101ad60048036038101906101a8919061329a565b610691565b005b6101c960048036038101906101c491906132ed565b610b85565b005b3480156101d757600080fd5b506101e0610d00565b6040516101ed919061334f565b60405180910390f35b34801561020257600080fd5b5061021d6004803603810190610218919061336a565b610d14565b60405161022a91906133e4565b60405180910390f35b34801561023f57600080fd5b50610248610d97565b6040516102559190613420565b60405180910390f35b34801561026a57600080fd5b50610285600480360381019061028091906132ed565b610dbd565b005b34801561029357600080fd5b5061029c611172565b005b3480156102aa57600080fd5b506102c560048036038101906102c0919061343b565b611377565b005b3480156102d357600080fd5b506102dc6114ea565b6040516102e9919061349d565b60405180910390f35b3480156102fe57600080fd5b50610319600480360381019061031491906134b8565b611534565b005b34801561032757600080fd5b50610330611824565b005b34801561033e57600080fd5b50610359600480360381019061035491906134f8565b611838565b604051610366919061349d565b60405180910390f35b34801561037b57600080fd5b50610384611965565b604051610391919061349d565b60405180910390f35b3480156103a657600080fd5b506103c160048036038101906103bc919061329a565b6119af565b005b3480156103cf57600080fd5b506103d8611d23565b6040516103e59190613547565b60405180910390f35b3480156103fa57600080fd5b50610415600480360381019061041091906131d9565b611d4d565b005b34801561042357600080fd5b5061043e60048036038101906104399190613562565b611dac565b005b34801561044c57600080fd5b50610467600480360381019061046291906135a2565b611ebb565b604051610474919061349d565b60405180910390f35b34801561048957600080fd5b506104a4600480360381019061049f9190613562565b611ef2565b6040516104b29291906135cf565b60405180910390f35b3480156104c757600080fd5b506104e260048036038101906104dd91906132ed565b611f33565b6040516104f09291906135cf565b60405180910390f35b34801561050557600080fd5b50610520600480360381019061051b9190613624565b611f71565b005b34801561052e57600080fd5b506105496004803603810190610544919061336a565b612117565b005b34801561055757600080fd5b50610572600480360381019061056d9190613664565b61219b565b005b34801561058057600080fd5b5061059b6004803603810190610596919061329a565b61221e565b005b6127108161ffff1611156105e6576040517f08c379a00000000000000000000000000000000000000000000000000000000081526004016105dd906136ee565b60405180910390fd5b80609c60003373ffffffffffffffffffffffffffffffffffffffff1673ffffffffffffffffffffffffffffffffffffffff16815260200190815260200160002060006101000a81548161ffff021916908361ffff1602179055503373ffffffffffffffffffffffffffffffffffffffff167ff4eaba062863d26f46b81ed47ea2f6458cfd0c72a2686ec3dcd31177d240aab582604051610686919061334f565b60405180910390a250565b8282336000609960008573ffffffffffffffffffffffffffffffffffffffff1673ffffffffffffffffffffffffffffffffffffffff168152602001908152602001600020600084815260200190815260200160002060008373ffffffffffffffffffffffffffffffffffffffff1673ffffffffffffffffffffffffffffffffffffffff168152602001908152602001600020604051806040016040529081600082015481526020016001820154815250509050600081600001511480610762575061075a6123df565b816020015111155b6107a1576040517f08c379a00000000000000000000000000000000000000000000000000000000081526004016107989061375a565b60405180910390fd5b66038d7ea4c6800034116107ea576040517f08c379a00000000000000000000000000000000000000000000000000000000081526004016107e1906137c6565b60405180910390fd5b6107f3876123e7565b610832576040517f08c379a000000000000000000000000000000000000000000000000000000000815260040161082990613832565b60405180910390fd5b60008790508073ffffffffffffffffffffffffffffffffffffffff16636352211e886040518263ffffffff1660e01b8152600401610870919061349d565b60206040518083038186803b15801561088857600080fd5b505afa15801561089c573d6000803e3d6000fd5b505050506040513d601f19601f820116820180604052508101906108c09190613867565b73ffffffffffffffffffffffffffffffffffffffff163373ffffffffffffffffffffffffffffffffffffffff16141561092e576040517f08c379a0000000000000000000000000000000000000000000000000000000008152600401610925906138e0565b60405180910390fd5b600086141561095457620151806109436123df565b61094d919061392f565b955061096d565b620151806109606123df565b61096a9190613963565b95505b604051806040016040528034815260200187815250609960008a73ffffffffffffffffffffffffffffffffffffffff1673ffffffffffffffffffffffffffffffffffffffff168152602001908152602001600020600089815260200190815260200160002060003373ffffffffffffffffffffffffffffffffffffffff1673ffffffffffffffffffffffffffffffffffffffff1681526020019081526020016000206000820151816000015560208201518160010155905050609a60003373ffffffffffffffffffffffffffffffffffffffff1673ffffffffffffffffffffffffffffffffffffffff16815260200190815260200160002060405180604001604052803481526020018881525090806001815401808255809150506001900390600052602060002090600202016000909190919091506000820151816000015560208201518160010155505034609e60003373ffffffffffffffffffffffffffffffffffffffff1673ffffffffffffffffffffffffffffffffffffffff1681526020019081526020016000206000016000828254610b0b9190613963565b925050819055508773ffffffffffffffffffffffffffffffffffffffff163373ffffffffffffffffffffffffffffffffffffffff167f0c2598f084a085d4d27e8638b4306b07c633b1e724b3d27fc0af68714fe5402889348a604051610b73939291906139b9565b60405180910390a35050505050505050565b60026065541415610bcb576040517f08c379a0000000000000000000000000000000000000000000000000000000008152600401610bc290613a3c565b60405180910390fd5b60026065819055508282826000609860008573ffffffffffffffffffffffffffffffffffffffff1673ffffffffffffffffffffffffffffffffffffffff168152602001908152602001600020600084815260200190815260200160002054905060008111610c6e576040517f08c379a0000000000000000000000000000000000000000000000000000000008152600401610c6590613aa8565b60405180910390fd5b610c79878787612499565b6000609860008973ffffffffffffffffffffffffffffffffffffffff1673ffffffffffffffffffffffffffffffffffffffff1681526020019081526020016000206000888152602001908152602001600020549050600086905060003390506000349050610ceb8b8b858588866125e8565b50505050505050506001606581905550505050565b609760009054906101000a900461ffff1681565b610d1c61317c565b609b60008373ffffffffffffffffffffffffffffffffffffffff1673ffffffffffffffffffffffffffffffffffffffff1681526020019081526020016000206040518060400160405290816000820160009054906101000a900461ffff1661ffff1661ffff1681526020016001820154815250509050919050565b609760029054906101000a900473ffffffffffffffffffffffffffffffffffffffff1681565b60026065541415610e03576040517f08c379a0000000000000000000000000000000000000000000000000000000008152600401610dfa90613a3c565b60405180910390fd5b60026065819055508282826000609960008573ffffffffffffffffffffffffffffffffffffffff1673ffffffffffffffffffffffffffffffffffffffff168152602001908152602001600020600084815260200190815260200160002060008373ffffffffffffffffffffffffffffffffffffffff1673ffffffffffffffffffffffffffffffffffffffff16815260200190815260200160002060405180604001604052908160008201548152602001600182015481525050905060008160000151118015610edc5750610ed56123df565b8160200151115b610f1b576040517f08c379a0000000000000000000000000000000000000000000000000000000008152600401610f1290613b14565b60405180910390fd5b610f26878733612499565b6000609960008973ffffffffffffffffffffffffffffffffffffffff1673ffffffffffffffffffffffffffffffffffffffff168152602001908152602001600020600088815260200190815260200160002060008773ffffffffffffffffffffffffffffffffffffffff1673ffffffffffffffffffffffffffffffffffffffff1681526020019081526020016000206040518060400160405290816000820154815260200160018201548152505090506000610fe06123df565b90506000610fee8289611838565b90508260000151811015611037576040517f08c379a000000000000000000000000000000000000000000000000000000000815260040161102e90613ba6565b60405180910390fd5b600033905060008990506110578c8c848489600001518a600001516125e8565b8973ffffffffffffffffffffffffffffffffffffffff168c73ffffffffffffffffffffffffffffffffffffffff167f1911131efc06f8b35ef19454a244416c23f0cffd91e74ec4d1656a64ec363afe8d6040516110b4919061349d565b60405180910390a3609960008d73ffffffffffffffffffffffffffffffffffffffff1673ffffffffffffffffffffffffffffffffffffffff16815260200190815260200160002060008c815260200190815260200160002060008b73ffffffffffffffffffffffffffffffffffffffff1673ffffffffffffffffffffffffffffffffffffffff168152602001908152602001600020600080820160009055600182016000905550505050505050505050506001606581905550505050565b600061117c6123df565b9050600061118982611ebb565b905060008114156111cf576040517f08c379a00000000000000000000000000000000000000000000000000000000081526004016111c690613c12565b60405180910390fd5b80471015611212576040517f08c379a000000000000000000000000000000000000000000000000000000000815260040161120990613c7e565b60405180910390fd5b6000609e60003373ffffffffffffffffffffffffffffffffffffffff1673ffffffffffffffffffffffffffffffffffffffff168152602001908152602001600020604051806060016040529081600082015481526020016001820154815260200160028201548152505090506112888333611838565b8160000151611297919061392f565b816000018181525050600081602001818152505060008160400181815250506112bf83612c82565b600033905060008173ffffffffffffffffffffffffffffffffffffffff16846040516112ea90613ccf565b60006040518083038185875af1925050503d8060008114611327576040519150601f19603f3d011682016040523d82523d6000602084013e61132c565b606091505b5050905080611370576040517f08c379a000000000000000000000000000000000000000000000000000000000815260040161136790613d30565b60405180910390fd5b5050505050565b600073ffffffffffffffffffffffffffffffffffffffff16609d60008473ffffffffffffffffffffffffffffffffffffffff1673ffffffffffffffffffffffffffffffffffffffff168152602001908152602001600020600083815260200190815260200160002060009054906101000a900473ffffffffffffffffffffffffffffffffffffffff1673ffffffffffffffffffffffffffffffffffffffff1614611456576040517f08c379a000000000000000000000000000000000000000000000000000000000815260040161144d90613d9c565b60405180910390fd5b82609d60008473ffffffffffffffffffffffffffffffffffffffff1673ffffffffffffffffffffffffffffffffffffffff168152602001908152602001600020600083815260200190815260200160002060006101000a81548173ffffffffffffffffffffffffffffffffffffffff021916908373ffffffffffffffffffffffffffffffffffffffff160217905550505050565b6000609e60003373ffffffffffffffffffffffffffffffffffffffff1673ffffffffffffffffffffffffffffffffffffffff16815260200190815260200160002060020154905090565b6127108161ffff16111561157d576040517f08c379a0000000000000000000000000000000000000000000000000000000008152600401611574906136ee565b60405180910390fd5b611586826123e7565b6115c5576040517f08c379a00000000000000000000000000000000000000000000000000000000081526004016115bc90613832565b60405180910390fd5b60008290508073ffffffffffffffffffffffffffffffffffffffff16638da5cb5b6040518163ffffffff1660e01b815260040160206040518083038186803b15801561161057600080fd5b505afa158015611624573d6000803e3d6000fd5b505050506040513d601f19601f820116820180604052508101906116489190613867565b73ffffffffffffffffffffffffffffffffffffffff163373ffffffffffffffffffffffffffffffffffffffff16146116b5576040517f08c379a00000000000000000000000000000000000000000000000000000000081526004016116ac90613e08565b60405180910390fd5b6000609b60008573ffffffffffffffffffffffffffffffffffffffff1673ffffffffffffffffffffffffffffffffffffffff1681526020019081526020016000206040518060400160405290816000820160009054906101000a900461ffff1661ffff1661ffff168152602001600182015481525050905060405180604001604052808461ffff1681526020018260200151815250609b60008673ffffffffffffffffffffffffffffffffffffffff1673ffffffffffffffffffffffffffffffffffffffff16815260200190815260200160002060008201518160000160006101000a81548161ffff021916908361ffff160217905550602082015181600101559050508373ffffffffffffffffffffffffffffffffffffffff163373ffffffffffffffffffffffffffffffffffffffff167f3d01e4a63a15c293fb21704a30354cf8fbf55355606eca15bce5602e409f3ad785604051611816919061334f565b60405180910390a350505050565b61182c612dbc565b6118366000612e3a565b565b600080609a60008473ffffffffffffffffffffffffffffffffffffffff1673ffffffffffffffffffffffffffffffffffffffff168152602001908152602001600020805480602002602001604051908101604052809291908181526020016000905b828210156118e05783829060005260206000209060020201604051806040016040529081600082015481526020016001820154815250508152602001906001019061189a565b5050505090506000805b8251811015611959578583828151811061190757611906613e28565b5b60200260200101516020015111156119465782818151811061192c5761192b613e28565b5b602002602001015160000151826119439190613963565b91505b808061195190613e57565b9150506118ea565b50809250505092915050565b6000609e60003373ffffffffffffffffffffffffffffffffffffffff1673ffffffffffffffffffffffffffffffffffffffff16815260200190815260200160002060010154905090565b8282336000609860008573ffffffffffffffffffffffffffffffffffffffff1673ffffffffffffffffffffffffffffffffffffffff168152602001908152602001600020600084815260200190815260200160002054905060008114611a4a576040517f08c379a0000000000000000000000000000000000000000000000000000000008152600401611a4190613eec565b60405180910390fd5b611a53876123e7565b15611c235760008790503373ffffffffffffffffffffffffffffffffffffffff168173ffffffffffffffffffffffffffffffffffffffff16636352211e896040518263ffffffff1660e01b8152600401611aad919061349d565b60206040518083038186803b158015611ac557600080fd5b505afa158015611ad9573d6000803e3d6000fd5b505050506040513d601f19601f82011682018060405250810190611afd9190613867565b73ffffffffffffffffffffffffffffffffffffffff1614611b53576040517f08c379a0000000000000000000000000000000000000000000000000000000008152600401611b4a90613f58565b60405180910390fd5b8073ffffffffffffffffffffffffffffffffffffffff1663e985e9c533306040518363ffffffff1660e01b8152600401611b8e929190613f78565b60206040518083038186803b158015611ba657600080fd5b505afa158015611bba573d6000803e3d6000fd5b505050506040513d601f19601f82011682018060405250810190611bde9190613fd9565b611c1d576040517f08c379a0000000000000000000000000000000000000000000000000000000008152600401611c1490614078565b60405180910390fd5b50611c5e565b6040517f08c379a0000000000000000000000000000000000000000000000000000000008152600401611c5590613832565b60405180910390fd5b84609860008973ffffffffffffffffffffffffffffffffffffffff1673ffffffffffffffffffffffffffffffffffffffff1681526020019081526020016000206000888152602001908152602001600020819055508673ffffffffffffffffffffffffffffffffffffffff163373ffffffffffffffffffffffffffffffffffffffff167fd547e933094f12a9159076970143ebe73234e64480317844b0dcb36117116de48888604051611d129291906135cf565b60405180910390a350505050505050565b6000603360009054906101000a900473ffffffffffffffffffffffffffffffffffffffff16905090565b611d55612dbc565b80609760006101000a81548161ffff021916908361ffff1602179055507fcabead39256298cdf7d1228eee68b47bc54a2192283d8d93574da08d2d7ac30381604051611da1919061334f565b60405180910390a150565b60026065541415611df2576040517f08c379a0000000000000000000000000000000000000000000000000000000008152600401611de990613a3c565b60405180910390fd5b60026065819055508181336000609860008573ffffffffffffffffffffffffffffffffffffffff1673ffffffffffffffffffffffffffffffffffffffff168152602001908152602001600020600084815260200190815260200160002054905060008111611e95576040517f08c379a0000000000000000000000000000000000000000000000000000000008152600401611e8c90613aa8565b60405180910390fd5b611ea0868633612499565b611eab868633612f00565b5050505060016065819055505050565b6000611ec56114ea565b611ecd611965565b611ed78433611838565b611ee19190613963565b611eeb9190613963565b9050919050565b609a6020528160005260406000208181548110611f0e57600080fd5b9060005260206000209060020201600091509150508060000154908060010154905082565b609960205282600052604060002060205281600052604060002060205280600052604060002060009250925050508060000154908060010154905082565b60008060019054906101000a900460ff16159050808015611fa25750600160008054906101000a900460ff1660ff16105b80611fcf5750611fb130612fbe565b158015611fce5750600160008054906101000a900460ff1660ff16145b5b61200e576040517f08c379a00000000000000000000000000000000000000000000000000000000081526004016120059061410a565b60405180910390fd5b60016000806101000a81548160ff021916908360ff160217905550801561204b576001600060016101000a81548160ff0219169083151502179055505b82609760006101000a81548161ffff021916908361ffff16021790555081609760026101000a81548173ffffffffffffffffffffffffffffffffffffffff021916908373ffffffffffffffffffffffffffffffffffffffff1602179055506120b1612fe1565b6120b961303a565b80156121125760008060016101000a81548160ff0219169083151502179055507f7f26b83ff96e1f2b6a682f133852f6798a09c465da95921460cefb38474024986001604051612109919061417c565b60405180910390a15b505050565b61211f612dbc565b600073ffffffffffffffffffffffffffffffffffffffff168173ffffffffffffffffffffffffffffffffffffffff16141561218f576040517f08c379a000000000000000000000000000000000000000000000000000000000815260040161218690614209565b60405180910390fd5b61219881612e3a565b50565b6121a3612dbc565b80609760026101000a81548173ffffffffffffffffffffffffffffffffffffffff021916908373ffffffffffffffffffffffffffffffffffffffff1602179055507fe57e7c1f36cc83fade34e32351e6eee7eb9da532662b1b5da10c631e8222aca7816040516122139190613420565b60405180910390a150565b60026065541415612264576040517f08c379a000000000000000000000000000000000000000000000000000000000815260040161225b90613a3c565b60405180910390fd5b60026065819055508282336000609860008573ffffffffffffffffffffffffffffffffffffffff1673ffffffffffffffffffffffffffffffffffffffff168152602001908152602001600020600084815260200190815260200160002054905060008111612307576040517f08c379a00000000000000000000000000000000000000000000000000000000081526004016122fe90613aa8565b60405180910390fd5b612312878733612499565b84609860008973ffffffffffffffffffffffffffffffffffffffff1673ffffffffffffffffffffffffffffffffffffffff1681526020019081526020016000206000888152602001908152602001600020819055508673ffffffffffffffffffffffffffffffffffffffff163373ffffffffffffffffffffffffffffffffffffffff167f3c33e65e8698294810b631d476d60b44425303828da0b1f8b635231bfda12be288886040516123c69291906135cf565b60405180910390a3505050506001606581905550505050565b600042905090565b60008173ffffffffffffffffffffffffffffffffffffffff166301ffc9a77f80ac58cd000000000000000000000000000000000000000000000000000000006040518263ffffffff1660e01b81526004016124429190614264565b60206040518083038186803b15801561245a57600080fd5b505afa15801561246e573d6000803e3d6000fd5b505050506040513d601f19601f820116820180604052508101906124929190613fd9565b9050919050565b6124a2836123e7565b156125a85760008390508073ffffffffffffffffffffffffffffffffffffffff16636352211e846040518263ffffffff1660e01b81526004016124e5919061349d565b60206040518083038186803b1580156124fd57600080fd5b505afa158015612511573d6000803e3d6000fd5b505050506040513d601f19601f820116820180604052508101906125359190613867565b73ffffffffffffffffffffffffffffffffffffffff168273ffffffffffffffffffffffffffffffffffffffff16146125a2576040517f08c379a000000000000000000000000000000000000000000000000000000000815260040161259990613f58565b60405180910390fd5b506125e3565b6040517f08c379a00000000000000000000000000000000000000000000000000000000081526004016125da90613832565b60405180910390fd5b505050565b8181101561262b576040517f08c379a0000000000000000000000000000000000000000000000000000000008152600401612622906142cb565b60405180910390fd5b612634866123e7565b612673576040517f08c379a000000000000000000000000000000000000000000000000000000000815260040161266a90613832565b60405180910390fd5b818111156127345760008373ffffffffffffffffffffffffffffffffffffffff1683836126a0919061392f565b6040516126ac90613ccf565b60006040518083038185875af1925050503d80600081146126e9576040519150601f19603f3d011682016040523d82523d6000602084013e6126ee565b606091505b5050905080612732576040517f08c379a000000000000000000000000000000000000000000000000000000000815260040161272990614337565b60405180910390fd5b505b600061275083609760009054906101000a900461ffff16613093565b90506000609760029054906101000a900473ffffffffffffffffffffffffffffffffffffffff1673ffffffffffffffffffffffffffffffffffffffff168260405161279a90613ccf565b60006040518083038185875af1925050503d80600081146127d7576040519150601f19603f3d011682016040523d82523d6000602084013e6127dc565b606091505b5050905080612820576040517f08c379a0000000000000000000000000000000000000000000000000000000008152600401612817906143a3565b60405180910390fd5b6000609d60008a73ffffffffffffffffffffffffffffffffffffffff1673ffffffffffffffffffffffffffffffffffffffff168152602001908152602001600020600089815260200190815260200160002060009054906101000a900473ffffffffffffffffffffffffffffffffffffffff1690506000609c60008373ffffffffffffffffffffffffffffffffffffffff1673ffffffffffffffffffffffffffffffffffffffff16815260200190815260200160002060009054906101000a900461ffff16905060008161ffff161461296a5760006128ff8783613093565b905080609e60008573ffffffffffffffffffffffffffffffffffffffff1673ffffffffffffffffffffffffffffffffffffffff16815260200190815260200160002060010160008282546129539190613963565b9250508190555080856129669190613963565b9450505b6000609b60008c73ffffffffffffffffffffffffffffffffffffffff1673ffffffffffffffffffffffffffffffffffffffff1681526020019081526020016000206040518060400160405290816000820160009054906101000a900461ffff1661ffff1661ffff16815260200160018201548152505090506000816000015161ffff1614612abd576000612a02888360000151613093565b90508082602001818151612a169190613963565b915081815250506040518060400160405280836000015161ffff1681526020018360200151815250609b60008e73ffffffffffffffffffffffffffffffffffffffff1673ffffffffffffffffffffffffffffffffffffffff16815260200190815260200160002060008201518160000160006101000a81548161ffff021916908361ffff160217905550602082015181600101559050508086612ab99190613963565b9550505b8a73ffffffffffffffffffffffffffffffffffffffff1663da9657788689612ae5919061392f565b8b6040518363ffffffff1660e01b8152600401612b029190613547565b6000604051808303818588803b158015612b1b57600080fd5b505af1158015612b2f573d6000803e3d6000fd5b50505050508a73ffffffffffffffffffffffffffffffffffffffff166342842e0e8a8a8d6040518463ffffffff1660e01b8152600401612b71939291906143c3565b600060405180830381600087803b158015612b8b57600080fd5b505af1158015612b9f573d6000803e3d6000fd5b505050508a73ffffffffffffffffffffffffffffffffffffffff168873ffffffffffffffffffffffffffffffffffffffff168a73ffffffffffffffffffffffffffffffffffffffff167fee0ddd6454e05c1b33a8dfcb6cc52418d28020e96e21228bb601f5dbb6790cd08d8b604051612c199291906135cf565b60405180910390a4609860008c73ffffffffffffffffffffffffffffffffffffffff1673ffffffffffffffffffffffffffffffffffffffff16815260200190815260200160002060008b8152602001908152602001600020600090555050505050505050505050565b6000609a60003373ffffffffffffffffffffffffffffffffffffffff1673ffffffffffffffffffffffffffffffffffffffff168152602001908152602001600020905060005b8180549050811015612db75782828281548110612ce857612ce7613e28565b5b9060005260206000209060020201600101541015612da4578160018380549050612d12919061392f565b81548110612d2357612d22613e28565b5b9060005260206000209060020201828281548110612d4457612d43613e28565b5b9060005260206000209060020201600082015481600001556001820154816001015590505081805480612d7a57612d796143fa565b5b60019003818190600052602060002090600202016000808201600090556001820160009055505090555b8080612daf90613e57565b915050612cc8565b505050565b612dc46130ba565b73ffffffffffffffffffffffffffffffffffffffff16612de2611d23565b73ffffffffffffffffffffffffffffffffffffffff1614612e38576040517f08c379a0000000000000000000000000000000000000000000000000000000008152600401612e2f90614475565b60405180910390fd5b565b6000603360009054906101000a900473ffffffffffffffffffffffffffffffffffffffff16905081603360006101000a81548173ffffffffffffffffffffffffffffffffffffffff021916908373ffffffffffffffffffffffffffffffffffffffff1602179055508173ffffffffffffffffffffffffffffffffffffffff168173ffffffffffffffffffffffffffffffffffffffff167f8be0079c531659141344cd1fd0a4f28419497f9722a3daafe3b4186f6b6457e060405160405180910390a35050565b609860008473ffffffffffffffffffffffffffffffffffffffff1673ffffffffffffffffffffffffffffffffffffffff1681526020019081526020016000206000838152602001908152602001600020600090558273ffffffffffffffffffffffffffffffffffffffff168173ffffffffffffffffffffffffffffffffffffffff167f9ba1a3cb55ce8d63d072a886f94d2a744f50cddf82128e897d0661f5ec62315884604051612fb1919061349d565b60405180910390a3505050565b6000808273ffffffffffffffffffffffffffffffffffffffff163b119050919050565b600060019054906101000a900460ff16613030576040517f08c379a000000000000000000000000000000000000000000000000000000000815260040161302790614507565b60405180910390fd5b6130386130c2565b565b600060019054906101000a900460ff16613089576040517f08c379a000000000000000000000000000000000000000000000000000000000815260040161308090614507565b60405180910390fd5b613091613123565b565b60006127108261ffff16846130a89190614527565b6130b291906145b0565b905092915050565b600033905090565b600060019054906101000a900460ff16613111576040517f08c379a000000000000000000000000000000000000000000000000000000000815260040161310890614507565b60405180910390fd5b61312161311c6130ba565b612e3a565b565b600060019054906101000a900460ff16613172576040517f08c379a000000000000000000000000000000000000000000000000000000000815260040161316990614507565b60405180910390fd5b6001606581905550565b6040518060400160405280600061ffff168152602001600081525090565b600080fd5b600061ffff82169050919050565b6131b68161319f565b81146131c157600080fd5b50565b6000813590506131d3816131ad565b92915050565b6000602082840312156131ef576131ee61319a565b5b60006131fd848285016131c4565b91505092915050565b600073ffffffffffffffffffffffffffffffffffffffff82169050919050565b600061323182613206565b9050919050565b61324181613226565b811461324c57600080fd5b50565b60008135905061325e81613238565b92915050565b6000819050919050565b61327781613264565b811461328257600080fd5b50565b6000813590506132948161326e565b92915050565b6000806000606084860312156132b3576132b261319a565b5b60006132c18682870161324f565b93505060206132d286828701613285565b92505060406132e386828701613285565b9150509250925092565b6000806000606084860312156133065761330561319a565b5b60006133148682870161324f565b935050602061332586828701613285565b92505060406133368682870161324f565b9150509250925092565b6133498161319f565b82525050565b60006020820190506133646000830184613340565b92915050565b6000602082840312156133805761337f61319a565b5b600061338e8482850161324f565b91505092915050565b6133a08161319f565b82525050565b6133af81613264565b82525050565b6040820160008201516133cb6000850182613397565b5060208201516133de60208501826133a6565b50505050565b60006040820190506133f960008301846133b5565b92915050565b600061340a82613206565b9050919050565b61341a816133ff565b82525050565b60006020820190506134356000830184613411565b92915050565b6000806000606084860312156134545761345361319a565b5b60006134628682870161324f565b93505060206134738682870161324f565b925050604061348486828701613285565b9150509250925092565b61349781613264565b82525050565b60006020820190506134b2600083018461348e565b92915050565b600080604083850312156134cf576134ce61319a565b5b60006134dd8582860161324f565b92505060206134ee858286016131c4565b9150509250929050565b6000806040838503121561350f5761350e61319a565b5b600061351d85828601613285565b925050602061352e8582860161324f565b9150509250929050565b61354181613226565b82525050565b600060208201905061355c6000830184613538565b92915050565b600080604083850312156135795761357861319a565b5b60006135878582860161324f565b925050602061359885828601613285565b9150509250929050565b6000602082840312156135b8576135b761319a565b5b60006135c684828501613285565b91505092915050565b60006040820190506135e4600083018561348e565b6135f1602083018461348e565b9392505050565b613601816133ff565b811461360c57600080fd5b50565b60008135905061361e816135f8565b92915050565b6000806040838503121561363b5761363a61319a565b5b6000613649858286016131c4565b925050602061365a8582860161360f565b9150509250929050565b60006020828403121561367a5761367961319a565b5b60006136888482850161360f565b91505092915050565b600082825260208201905092915050565b7f696e76616c696420726f79616c74790000000000000000000000000000000000600082015250565b60006136d8600f83613691565b91506136e3826136a2565b602082019050919050565b60006020820190508181036000830152613707816136cb565b9050919050565b7f6f6666657220616c726561647920637265617465640000000000000000000000600082015250565b6000613744601583613691565b915061374f8261370e565b602082019050919050565b6000602082019050818103600083015261377381613737565b9050919050565b7f6f6666657220616d6f756e7420746f6f20736d616c6c00000000000000000000600082015250565b60006137b0601683613691565b91506137bb8261377a565b602082019050919050565b600060208201905081810360008301526137df816137a3565b9050919050565b7f696e76616c6964206e6674206164647265737300000000000000000000000000600082015250565b600061381c601383613691565b9150613827826137e6565b602082019050919050565b6000602082019050818103600083015261384b8161380f565b9050919050565b60008151905061386181613238565b92915050565b60006020828403121561387d5761387c61319a565b5b600061388b84828501613852565b91505092915050565b7f63616e6e6f742073656c66206f66666572000000000000000000000000000000600082015250565b60006138ca601183613691565b91506138d582613894565b602082019050919050565b600060208201905081810360008301526138f9816138bd565b9050919050565b7f4e487b7100000000000000000000000000000000000000000000000000000000600052601160045260246000fd5b600061393a82613264565b915061394583613264565b92508282101561395857613957613900565b5b828203905092915050565b600061396e82613264565b915061397983613264565b9250827fffffffffffffffffffffffffffffffffffffffffffffffffffffffffffffffff038211156139ae576139ad613900565b5b828201905092915050565b60006060820190506139ce600083018661348e565b6139db602083018561348e565b6139e8604083018461348e565b949350505050565b7f5265656e7472616e637947756172643a207265656e7472616e742063616c6c00600082015250565b6000613a26601f83613691565b9150613a31826139f0565b602082019050919050565b60006020820190508181036000830152613a5581613a19565b9050919050565b7f6e6f74206c6973746564206974656d0000000000000000000000000000000000600082015250565b6000613a92600f83613691565b9150613a9d82613a5c565b602082019050919050565b60006020820190508181036000830152613ac181613a85565b9050919050565b7f6f66666572206e6f7420657869737473206f7220657870697265640000000000600082015250565b6000613afe601b83613691565b9150613b0982613ac8565b602082019050919050565b60006020820190508181036000830152613b2d81613af1565b9050919050565b7f6f666665722062616c616e6365206e6f7420656e6f75676820746f206275792060008201527f6974656d00000000000000000000000000000000000000000000000000000000602082015250565b6000613b90602483613691565b9150613b9b82613b34565b604082019050919050565b60006020820190508181036000830152613bbf81613b83565b9050919050565b7f6e6f7468696e6720746f20776974686472617700000000000000000000000000600082015250565b6000613bfc601383613691565b9150613c0782613bc6565b602082019050919050565b60006020820190508181036000830152613c2b81613bef565b9050919050565b7f62616c616e6365206e6f7420656e6f75676820746f2077697468647261770000600082015250565b6000613c68601e83613691565b9150613c7382613c32565b602082019050919050565b60006020820190508181036000830152613c9781613c5b565b9050919050565b600081905092915050565b50565b6000613cb9600083613c9e565b9150613cc482613ca9565b600082019050919050565b6000613cda82613cac565b9150819050919050565b7f4172746f6e672062616c616e6365207472616e73666572206661696c65640000600082015250565b6000613d1a601e83613691565b9150613d2582613ce4565b602082019050919050565b60006020820190508181036000830152613d4981613d0d565b9050919050565b7f6d696e74657220616c7265616479207265676973746572656400000000000000600082015250565b6000613d86601983613691565b9150613d9182613d50565b602082019050919050565b60006020820190508181036000830152613db581613d79565b9050919050565b7f75736572206e6f7420617070726f76656420666f722074686973206974656d00600082015250565b6000613df2601f83613691565b9150613dfd82613dbc565b602082019050919050565b60006020820190508181036000830152613e2181613de5565b9050919050565b7f4e487b7100000000000000000000000000000000000000000000000000000000600052603260045260246000fd5b6000613e6282613264565b91507fffffffffffffffffffffffffffffffffffffffffffffffffffffffffffffffff821415613e9557613e94613900565b5b600182019050919050565b7f616c7265616479206c6973746564000000000000000000000000000000000000600082015250565b6000613ed6600e83613691565b9150613ee182613ea0565b602082019050919050565b60006020820190508181036000830152613f0581613ec9565b9050919050565b7f6e6f74206f776e696e67206974656d0000000000000000000000000000000000600082015250565b6000613f42600f83613691565b9150613f4d82613f0c565b602082019050919050565b60006020820190508181036000830152613f7181613f35565b9050919050565b6000604082019050613f8d6000830185613538565b613f9a6020830184613538565b9392505050565b60008115159050919050565b613fb681613fa1565b8114613fc157600080fd5b50565b600081519050613fd381613fad565b92915050565b600060208284031215613fef57613fee61319a565b5b6000613ffd84828501613fc4565b91505092915050565b7f6172746f6e67206e6f7420617070726f76656420666f7220746869732069746560008201527f6d00000000000000000000000000000000000000000000000000000000000000602082015250565b6000614062602183613691565b915061406d82614006565b604082019050919050565b6000602082019050818103600083015261409181614055565b9050919050565b7f496e697469616c697a61626c653a20636f6e747261637420697320616c72656160008201527f647920696e697469616c697a6564000000000000000000000000000000000000602082015250565b60006140f4602e83613691565b91506140ff82614098565b604082019050919050565b60006020820190508181036000830152614123816140e7565b9050919050565b6000819050919050565b600060ff82169050919050565b6000819050919050565b600061416661416161415c8461412a565b614141565b614134565b9050919050565b6141768161414b565b82525050565b6000602082019050614191600083018461416d565b92915050565b7f4f776e61626c653a206e6577206f776e657220697320746865207a65726f206160008201527f6464726573730000000000000000000000000000000000000000000000000000602082015250565b60006141f3602683613691565b91506141fe82614197565b604082019050919050565b60006020820190508181036000830152614222816141e6565b9050919050565b60007fffffffff0000000000000000000000000000000000000000000000000000000082169050919050565b61425e81614229565b82525050565b60006020820190506142796000830184614255565b92915050565b7f7061796d656e7420616d6f756e74206e6f7420656e6f75676800000000000000600082015250565b60006142b5601983613691565b91506142c08261427f565b602082019050919050565b600060208201905081810360008301526142e4816142a8565b9050919050565b7f4f766572207061696420616d6f756e74207472616e73666572206661696c6564600082015250565b6000614321602083613691565b915061432c826142eb565b602082019050919050565b6000602082019050818103600083015261435081614314565b9050919050565b7f466565207472616e73666572206661696c656400000000000000000000000000600082015250565b600061438d601383613691565b915061439882614357565b602082019050919050565b600060208201905081810360008301526143bc81614380565b9050919050565b60006060820190506143d86000830186613538565b6143e56020830185613538565b6143f2604083018461348e565b949350505050565b7f4e487b7100000000000000000000000000000000000000000000000000000000600052603160045260246000fd5b7f4f776e61626c653a2063616c6c6572206973206e6f7420746865206f776e6572600082015250565b600061445f602083613691565b915061446a82614429565b602082019050919050565b6000602082019050818103600083015261448e81614452565b9050919050565b7f496e697469616c697a61626c653a20636f6e7472616374206973206e6f74206960008201527f6e697469616c697a696e67000000000000000000000000000000000000000000602082015250565b60006144f1602b83613691565b91506144fc82614495565b604082019050919050565b60006020820190508181036000830152614520816144e4565b9050919050565b600061453282613264565b915061453d83613264565b9250817fffffffffffffffffffffffffffffffffffffffffffffffffffffffffffffffff048311821515161561457657614575613900565b5b828202905092915050565b7f4e487b7100000000000000000000000000000000000000000000000000000000600052601260045260246000fd5b60006145bb82613264565b91506145c683613264565b9250826145d6576145d5614581565b5b82820490509291505056fea2646970667358221220080c8dad3c1489223fcf0ec9330ae8d970dfa268844c3a42ed42d6482211cae364736f6c63430008090033",
  "linkReferences": {},
  "deployedLinkReferences": {}
}