{
  "_format": "hh-sol-artifact-1",
  "contractName": "ArtongMarketplace",
  "sourceName": "contracts/ArtongMarketplace.sol",
  "abi": [
    {
      "anonymous": false,
      "inputs": [
        {
          "indexed": true,
          "internalType": "address",
          "name": "user",
          "type": "address"
        },
        {
          "indexed": false,
          "internalType": "int256",
          "name": "amount",
          "type": "int256"
        },
        {
          "indexed": false,
          "internalType": "uint256",
          "name": "balance",
          "type": "uint256"
        },
        {
          "indexed": false,
          "internalType": "string",
          "name": "reason",
          "type": "string"
        }
      ],
      "name": "ArtongBalanceUpdated",
      "type": "event"
    },
    {
      "anonymous": false,
      "inputs": [
        {
          "indexed": false,
          "internalType": "uint8",
          "name": "version",
          "type": "uint8"
        }
      ],
      "name": "Initialized",
      "type": "event"
    },
    {
      "anonymous": false,
      "inputs": [
        {
          "indexed": true,
          "internalType": "address",
          "name": "owner",
          "type": "address"
        },
        {
          "indexed": true,
          "internalType": "address",
          "name": "nft",
          "type": "address"
        },
        {
          "indexed": false,
          "internalType": "uint256",
          "name": "tokenId",
          "type": "uint256"
        }
      ],
      "name": "ItemCanceled",
      "type": "event"
    },
    {
      "anonymous": false,
      "inputs": [
        {
          "indexed": true,
          "internalType": "address",
          "name": "owner",
          "type": "address"
        },
        {
          "indexed": true,
          "internalType": "address",
          "name": "nft",
          "type": "address"
        },
        {
          "indexed": false,
          "internalType": "uint256",
          "name": "tokenId",
          "type": "uint256"
        },
        {
          "indexed": false,
          "internalType": "uint256",
          "name": "price",
          "type": "uint256"
        }
      ],
      "name": "ItemListed",
      "type": "event"
    },
    {
      "anonymous": false,
      "inputs": [
        {
          "indexed": true,
          "internalType": "address",
          "name": "seller",
          "type": "address"
        },
        {
          "indexed": true,
          "internalType": "address",
          "name": "buyer",
          "type": "address"
        },
        {
          "indexed": true,
          "internalType": "address",
          "name": "nft",
          "type": "address"
        },
        {
          "indexed": false,
          "internalType": "uint256",
          "name": "tokenId",
          "type": "uint256"
        },
        {
          "indexed": false,
          "internalType": "uint256",
          "name": "price",
          "type": "uint256"
        }
      ],
      "name": "ItemSold",
      "type": "event"
    },
    {
      "anonymous": false,
      "inputs": [
        {
          "indexed": true,
          "internalType": "address",
          "name": "owner",
          "type": "address"
        },
        {
          "indexed": true,
          "internalType": "address",
          "name": "nft",
          "type": "address"
        },
        {
          "indexed": false,
          "internalType": "uint256",
          "name": "tokenId",
          "type": "uint256"
        },
        {
          "indexed": false,
          "internalType": "uint256",
          "name": "newPrice",
          "type": "uint256"
        }
      ],
      "name": "ItemUpdated",
      "type": "event"
    },
    {
      "anonymous": false,
      "inputs": [
        {
          "indexed": true,
          "internalType": "address",
          "name": "owner",
          "type": "address"
        },
        {
          "indexed": true,
          "internalType": "address",
          "name": "nft",
          "type": "address"
        },
        {
          "indexed": false,
          "internalType": "uint256",
          "name": "tokenId",
          "type": "uint256"
        },
        {
          "indexed": false,
          "internalType": "uint256",
          "name": "price",
          "type": "uint256"
        }
      ],
      "name": "ListedItemSold",
      "type": "event"
    },
    {
      "anonymous": false,
      "inputs": [
        {
          "indexed": false,
          "internalType": "uint256",
          "name": "offerId",
          "type": "uint256"
        },
        {
          "indexed": true,
          "internalType": "address",
          "name": "nft",
          "type": "address"
        },
        {
          "indexed": false,
          "internalType": "uint256",
          "name": "tokenId",
          "type": "uint256"
        },
        {
          "indexed": true,
          "internalType": "address",
          "name": "creator",
          "type": "address"
        }
      ],
      "name": "OfferAccepted",
      "type": "event"
    },
    {
      "anonymous": false,
      "inputs": [
        {
          "indexed": false,
          "internalType": "uint256",
          "name": "offerId",
          "type": "uint256"
        },
        {
          "indexed": true,
          "internalType": "address",
          "name": "creator",
          "type": "address"
        },
        {
          "indexed": true,
          "internalType": "address",
          "name": "nft",
          "type": "address"
        },
        {
          "indexed": false,
          "internalType": "uint256",
          "name": "tokenId",
          "type": "uint256"
        },
        {
          "indexed": false,
          "internalType": "uint256",
          "name": "price",
          "type": "uint256"
        },
        {
          "indexed": false,
          "internalType": "uint256",
          "name": "deadline",
          "type": "uint256"
        }
      ],
      "name": "OfferCreated",
      "type": "event"
    },
    {
      "anonymous": false,
      "inputs": [
        {
          "indexed": true,
          "internalType": "address",
          "name": "previousOwner",
          "type": "address"
        },
        {
          "indexed": true,
          "internalType": "address",
          "name": "newOwner",
          "type": "address"
        }
      ],
      "name": "OwnershipTransferred",
      "type": "event"
    },
    {
      "anonymous": false,
      "inputs": [
        {
          "indexed": true,
          "internalType": "address",
          "name": "sender",
          "type": "address"
        },
        {
          "indexed": false,
          "internalType": "uint256",
          "name": "amount",
          "type": "uint256"
        }
      ],
      "name": "Received",
      "type": "event"
    },
    {
      "anonymous": false,
      "inputs": [
        {
          "indexed": true,
          "internalType": "address",
          "name": "collectionOwner",
          "type": "address"
        },
        {
          "indexed": true,
          "internalType": "address",
          "name": "nft",
          "type": "address"
        },
        {
          "indexed": false,
          "internalType": "uint16",
          "name": "royalty",
          "type": "uint16"
        }
      ],
      "name": "UpdateCollectionRoyalty",
      "type": "event"
    },
    {
      "anonymous": false,
      "inputs": [
        {
          "indexed": false,
          "internalType": "uint16",
          "name": "platformFee",
          "type": "uint16"
        }
      ],
      "name": "UpdatePlatformFee",
      "type": "event"
    },
    {
      "anonymous": false,
      "inputs": [
        {
          "indexed": false,
          "internalType": "address payable",
          "name": "platformFeeRecipient",
          "type": "address"
        }
      ],
      "name": "UpdatePlatformFeeRecipient",
      "type": "event"
    },
    {
      "anonymous": false,
      "inputs": [
        {
          "indexed": true,
          "internalType": "address",
          "name": "minter",
          "type": "address"
        },
        {
          "indexed": true,
          "internalType": "address",
          "name": "nft",
          "type": "address"
        },
        {
          "indexed": false,
          "internalType": "uint256",
          "name": "tokenId",
          "type": "uint256"
        },
        {
          "indexed": false,
          "internalType": "uint16",
          "name": "royalty",
          "type": "uint16"
        }
      ],
      "name": "UpdateTokenRoyalty",
      "type": "event"
    },
    {
      "inputs": [
        {
          "internalType": "address",
          "name": "_nftAddress",
          "type": "address"
        },
        {
          "internalType": "uint256",
          "name": "_tokenId",
          "type": "uint256"
        },
        {
          "internalType": "address",
          "name": "_creator",
          "type": "address"
        }
      ],
      "name": "acceptOffer",
      "outputs": [],
      "stateMutability": "nonpayable",
      "type": "function"
    },
    {
      "inputs": [
        {
          "internalType": "address",
          "name": "_nftAddress",
          "type": "address"
        },
        {
          "internalType": "uint256",
          "name": "_tokenId",
          "type": "uint256"
        },
        {
          "internalType": "address",
          "name": "_owner",
          "type": "address"
        }
      ],
      "name": "buyItem",
      "outputs": [],
      "stateMutability": "payable",
      "type": "function"
    },
    {
      "inputs": [
        {
          "internalType": "address",
          "name": "_nftAddress",
          "type": "address"
        },
        {
          "internalType": "uint256",
          "name": "_tokenId",
          "type": "uint256"
        }
      ],
      "name": "cancelListing",
      "outputs": [],
      "stateMutability": "nonpayable",
      "type": "function"
    },
    {
      "inputs": [
        {
          "internalType": "address",
          "name": "_nftAddress",
          "type": "address"
        },
        {
          "internalType": "uint256",
          "name": "_tokenId",
          "type": "uint256"
        },
        {
          "internalType": "uint256",
          "name": "_deadline",
          "type": "uint256"
        }
      ],
      "name": "createOffer",
      "outputs": [],
      "stateMutability": "payable",
      "type": "function"
    },
    {
      "inputs": [],
      "name": "feeReceipient",
      "outputs": [
        {
          "internalType": "address payable",
          "name": "",
          "type": "address"
        }
      ],
      "stateMutability": "view",
      "type": "function"
    },
    {
      "inputs": [
        {
          "internalType": "address",
          "name": "user",
          "type": "address"
        }
      ],
      "name": "getArtongBalance",
      "outputs": [
        {
          "internalType": "uint256",
          "name": "",
          "type": "uint256"
        }
      ],
      "stateMutability": "view",
      "type": "function"
    },
    {
      "inputs": [
        {
          "internalType": "address",
          "name": "_nftAddress",
          "type": "address"
        }
      ],
      "name": "getCollectionRoyalty",
      "outputs": [
        {
          "components": [
            {
              "internalType": "uint16",
              "name": "royalty",
              "type": "uint16"
            },
            {
              "internalType": "uint256",
              "name": "royaltyBalance",
              "type": "uint256"
            }
          ],
          "internalType": "struct ArtongMarketplace.CollectionRoyalty",
          "name": "",
          "type": "tuple"
        }
      ],
      "stateMutability": "view",
      "type": "function"
    },
    {
      "inputs": [
        {
          "internalType": "uint256",
          "name": "_moment",
          "type": "uint256"
        },
        {
          "internalType": "address",
          "name": "user",
          "type": "address"
        }
      ],
      "name": "getOfferBalance",
      "outputs": [
        {
          "internalType": "uint256",
          "name": "",
          "type": "uint256"
        }
      ],
      "stateMutability": "view",
      "type": "function"
    },
    {
      "inputs": [
        {
          "internalType": "uint256",
          "name": "_moment",
          "type": "uint256"
        },
        {
          "internalType": "address",
          "name": "user",
          "type": "address"
        }
      ],
      "name": "getWithdrawableBalance",
      "outputs": [
        {
          "internalType": "uint256",
          "name": "",
          "type": "uint256"
        }
      ],
      "stateMutability": "view",
      "type": "function"
    },
    {
      "inputs": [
        {
          "internalType": "uint16",
          "name": "_platformFee",
          "type": "uint16"
        },
        {
          "internalType": "address payable",
          "name": "_feeRecipient",
          "type": "address"
        }
      ],
      "name": "initialize",
      "outputs": [],
      "stateMutability": "nonpayable",
      "type": "function"
    },
    {
      "inputs": [
        {
          "internalType": "address",
          "name": "_nftAddress",
          "type": "address"
        },
        {
          "internalType": "uint256",
          "name": "_tokenId",
          "type": "uint256"
        },
        {
          "internalType": "uint256",
          "name": "_price",
          "type": "uint256"
        }
      ],
      "name": "listItem",
      "outputs": [],
      "stateMutability": "nonpayable",
      "type": "function"
    },
    {
      "inputs": [],
      "name": "offerId",
      "outputs": [
        {
          "internalType": "uint256",
          "name": "",
          "type": "uint256"
        }
      ],
      "stateMutability": "view",
      "type": "function"
    },
    {
      "inputs": [
        {
          "internalType": "address",
          "name": "",
          "type": "address"
        },
        {
          "internalType": "uint256",
          "name": "",
          "type": "uint256"
        },
        {
          "internalType": "address",
          "name": "",
          "type": "address"
        }
      ],
      "name": "offers",
      "outputs": [
        {
          "internalType": "uint256",
          "name": "offerId",
          "type": "uint256"
        },
        {
          "internalType": "uint256",
          "name": "price",
          "type": "uint256"
        },
        {
          "internalType": "uint256",
          "name": "deadline",
          "type": "uint256"
        }
      ],
      "stateMutability": "view",
      "type": "function"
    },
    {
      "inputs": [],
      "name": "owner",
      "outputs": [
        {
          "internalType": "address",
          "name": "",
          "type": "address"
        }
      ],
      "stateMutability": "view",
      "type": "function"
    },
    {
      "inputs": [],
      "name": "platformFee",
      "outputs": [
        {
          "internalType": "uint16",
          "name": "",
          "type": "uint16"
        }
      ],
      "stateMutability": "view",
      "type": "function"
    },
    {
      "inputs": [
        {
          "internalType": "address",
          "name": "_minter",
          "type": "address"
        },
        {
          "internalType": "address",
          "name": "_nftAddress",
          "type": "address"
        },
        {
          "internalType": "uint256",
          "name": "_tokenId",
          "type": "uint256"
        }
      ],
      "name": "registerMinter",
      "outputs": [],
      "stateMutability": "nonpayable",
      "type": "function"
    },
    {
      "inputs": [],
      "name": "renounceOwnership",
      "outputs": [],
      "stateMutability": "nonpayable",
      "type": "function"
    },
    {
      "inputs": [
        {
          "internalType": "address",
          "name": "user",
          "type": "address"
        }
      ],
      "name": "sendArtongBalance",
      "outputs": [],
      "stateMutability": "payable",
      "type": "function"
    },
    {
      "inputs": [
        {
          "internalType": "address",
          "name": "newOwner",
          "type": "address"
        }
      ],
      "name": "transferOwnership",
      "outputs": [],
      "stateMutability": "nonpayable",
      "type": "function"
    },
    {
      "inputs": [
        {
          "internalType": "address",
          "name": "_nftAddress",
          "type": "address"
        },
        {
          "internalType": "uint16",
          "name": "_royalty",
          "type": "uint16"
        }
      ],
      "name": "updateCollectionRoyalty",
      "outputs": [],
      "stateMutability": "nonpayable",
      "type": "function"
    },
    {
      "inputs": [
        {
          "internalType": "address",
          "name": "_nftAddress",
          "type": "address"
        },
        {
          "internalType": "uint256",
          "name": "_tokenId",
          "type": "uint256"
        },
        {
          "internalType": "uint256",
          "name": "_newPrice",
          "type": "uint256"
        }
      ],
      "name": "updateListing",
      "outputs": [],
      "stateMutability": "nonpayable",
      "type": "function"
    },
    {
      "inputs": [
        {
          "internalType": "uint16",
          "name": "_platformFee",
          "type": "uint16"
        }
      ],
      "name": "updatePlatformFee",
      "outputs": [],
      "stateMutability": "nonpayable",
      "type": "function"
    },
    {
      "inputs": [
        {
          "internalType": "address payable",
          "name": "_platformFeeRecipient",
          "type": "address"
        }
      ],
      "name": "updatePlatformFeeRecipient",
      "outputs": [],
      "stateMutability": "nonpayable",
      "type": "function"
    },
    {
      "inputs": [
        {
          "internalType": "address",
          "name": "_minter",
          "type": "address"
        },
        {
          "internalType": "address",
          "name": "_nftAddress",
          "type": "address"
        },
        {
          "internalType": "uint256",
          "name": "_tokenId",
          "type": "uint256"
        },
        {
          "internalType": "uint16",
          "name": "_royalty",
          "type": "uint16"
        }
      ],
      "name": "updateTokenRoyalty",
      "outputs": [],
      "stateMutability": "nonpayable",
      "type": "function"
    },
    {
      "inputs": [
        {
          "internalType": "address",
          "name": "",
          "type": "address"
        },
        {
          "internalType": "uint256",
          "name": "",
          "type": "uint256"
        }
      ],
      "name": "userOffers",
      "outputs": [
        {
          "internalType": "uint256",
          "name": "offerId",
          "type": "uint256"
        },
        {
          "internalType": "uint256",
          "name": "price",
          "type": "uint256"
        },
        {
          "internalType": "uint256",
          "name": "deadline",
          "type": "uint256"
        }
      ],
      "stateMutability": "view",
      "type": "function"
    },
    {
      "inputs": [],
      "name": "withdraw",
      "outputs": [],
      "stateMutability": "nonpayable",
      "type": "function"
    },
    {
      "stateMutability": "payable",
      "type": "receive"
    }
  ],
  "bytecode": "0x608060405234801561001057600080fd5b50612a7a806100206000396000f3fe6080604052600436106101855760003560e01c806389bfd38f116100d1578063d3f494cc1161008a578063f19eeca211610064578063f19eeca214610541578063f2fde38b14610561578063f5fe7f7114610581578063f772adf1146105a157600080fd5b8063d3f494cc146104c1578063e0dbcde51461050e578063e6d07de91461052e57600080fd5b806389bfd38f146103d25780638da5cb5b146103f2578063a078c25e14610410578063afb0695214610446578063b2ddee0614610466578063bd5fec651461048657600080fd5b80633bbb28061161013e5780636b852288116101185780636b8522881461035d5780636f85f09f1461037d578063715018a61461039d57806374a5ea91146103b257600080fd5b80633bbb2806146103085780633ccfd60b146103285780634d0228e41461033d57600080fd5b80631c6c7128146101c657806321ce9f91146101db578063259ca3651461020457806326232a2e1461021757806333ff9422146102455780633740ebb3146102ca57600080fd5b366101c15760405134815233907f88a5966d370b9919b20f3e2c13ff65706f196a4e32cc2c12bf57088f885258749060200160405180910390a2005b600080fd5b6101d96101d43660046125c1565b6105c1565b005b3480156101e757600080fd5b506101f160985481565b6040519081526020015b60405180910390f35b6101d96102123660046125f6565b6109ce565b34801561022357600080fd5b506097546102329061ffff1681565b60405161ffff90911681526020016101fb565b34801561025157600080fd5b506102ab610260366004612638565b6040805180820190915260008082526020820152506001600160a01b03166000908152609c60209081526040918290208251808401909352805461ffff168352600101549082015290565b60408051825161ffff16815260209283015192810192909252016101fb565b3480156102d657600080fd5b506097546102f0906201000090046001600160a01b031681565b6040516001600160a01b0390911681526020016101fb565b34801561031457600080fd5b506101d96103233660046125f6565b610ae2565b34801561033457600080fd5b506101d9610d71565b34801561034957600080fd5b506101d9610358366004612655565b610f39565b34801561036957600080fd5b506101d96103783660046126ad565b610fe6565b34801561038957600080fd5b506101d96103983660046126e2565b6111cf565b3480156103a957600080fd5b506101d9611312565b3480156103be57600080fd5b506101f16103cd366004612733565b611326565b3480156103de57600080fd5b506101d96103ed3660046125c1565b611428565b3480156103fe57600080fd5b506033546001600160a01b03166102f0565b34801561041c57600080fd5b506101f161042b366004612638565b6001600160a01b03166000908152609f602052604090205490565b34801561045257600080fd5b506101d9610461366004612763565b6116e7565b34801561047257600080fd5b506101d961048136600461277e565b61173a565b34801561049257600080fd5b506104a66104a136600461277e565b6117c9565b604080519384526020840192909252908201526060016101fb565b3480156104cd57600080fd5b506104a66104dc3660046125f6565b609a60209081526000938452604080852082529284528284209052825290208054600182015460029092015490919083565b34801561051a57600080fd5b506101d96105293660046127aa565b61180b565b6101d961053c366004612638565b61194e565b34801561054d57600080fd5b506101f161055c366004612733565b6119aa565b34801561056d57600080fd5b506101d961057c366004612638565b6119e0565b34801561058d57600080fd5b506101d961059c366004612638565b611a59565b3480156105ad57600080fd5b506101d96105bc3660046125c1565b611ab9565b600260655414156105ed5760405162461bcd60e51b81526004016105e4906127d6565b60405180910390fd5b600260658190556001600160a01b0384166000908152609a602090815260408083208684528252808320338085529083529281902081516060810183528154815260018201549381018490529401549084015285928592911580610655575042816040015111155b6106995760405162461bcd60e51b81526020600482015260156024820152741bd999995c88185b1c9958591e4818dc99585d1959605a1b60448201526064016105e4565b66038d7ea4c680003410156106e95760405162461bcd60e51b81526020600482015260166024820152751bd999995c88185b5bdd5b9d081d1bdbc81cdb585b1b60521b60448201526064016105e4565b6106f287611b8d565b61070e5760405162461bcd60e51b81526004016105e49061280d565b6040516331a9108f60e11b81526004810187905287906001600160a01b03821690636352211e9060240160206040518083038186803b15801561075057600080fd5b505afa158015610764573d6000803e3d6000fd5b505050506040513d601f19601f82011682018060405250810190610788919061283a565b6001600160a01b0316336001600160a01b031614156107dd5760405162461bcd60e51b815260206004820152601160248201527031b0b73737ba1039b2b6331037b33332b960791b60448201526064016105e4565b856107f6576107ef620151804261286d565b9550610806565b6108034262015180612884565b95505b6001609860008282546108199190612884565b925050819055506040518060600160405280609854815260200134815260200187815250609a60008a6001600160a01b03166001600160a01b0316815260200190815260200160002060008981526020019081526020016000206000336001600160a01b03166001600160a01b03168152602001908152602001600020600082015181600001556020820151816001015560408201518160020155905050609b6000336001600160a01b03166001600160a01b0316815260200190815260200160002060405180606001604052806098548152602001348152602001888152509080600181540180825580915050600190039060005260206000209060030201600090919091909150600082015181600001556020820151816001015560408201518160020155505061096a33346040518060400160405280600581526020016437b33332b960d91b815250611c14565b6098546040805191825260208201899052348282015260608201889052516001600160a01b038a169133917fa5b221016d244158f755de9c5739283f750d2f7285cde6af0a9e11aafa1d60229181900360800190a350506001606555505050505050565b600260655414156109f15760405162461bcd60e51b81526004016105e4906127d6565b60026065556001600160a01b03831660009081526099602090815260408083208584529091529020548390839080610a3b5760405162461bcd60e51b81526004016105e49061289c565b610a46868686611c9b565b6001600160a01b0386166000908152609960209081526040808320888452909152902054843334610a7b8a8a85858886611d7b565b896001600160a01b0316836001600160a01b03167f15c7b51ce366ab742c37d88fa542ad517859c32b76df70b7234e0e96f5f801c48b87604051610ac9929190918252602082015260400190565b60405180910390a3505060016065555050505050505050565b60026065541415610b055760405162461bcd60e51b81526004016105e4906127d6565b600260658190556001600160a01b038085166000908152609a6020908152604080832087845282528083209386168352928152908290208251606081018452815481526001820154928101839052930154918301919091528491849184919015801590610b755750428160400151115b610bc15760405162461bcd60e51b815260206004820152601b60248201527f6f66666572206e6f7420657869737473206f722065787069726564000000000060448201526064016105e4565b610bcc878733611c9b565b6001600160a01b038781166000908152609a602090815260408083208a8452825280832093891683529281528282208351606081018552815481526001820154928101929092526002015492810192909252610c284288611326565b90508160200151811015610c7e5760405162461bcd60e51b815260206004820152601e60248201527f62616c616e6365206e6f7420656e6f75676820746f20627579206974656d000060448201526064016105e4565b602082015133908890610c99908c908c908590859080611d7b565b835160408051918252602082018c90526001600160a01b03808c1692908e16917f55b7d87f50df42aab01a782c0f678035ee284155051f20b56dca2de85791bbac910160405180910390a36001600160a01b03808c166000908152609a602090815260408083208e84528252808320938d1683529290529081208181556001810182905560020155610d2b848a612215565b610d5f8985602001516040518060400160405280600d81526020016c1bd999995c9058d8d95c1d1959609a1b8152506122a7565b50506001606555505050505050505050565b60026065541415610d945760405162461bcd60e51b81526004016105e4906127d6565b6002606555426000610da682336119aa565b9050662386f26fc10000811015610e105760405162461bcd60e51b815260206004820152602860248201527f6d696e696d756d20776974686472617761626c652076616c756520697320302e60448201526718189032ba3432b960c11b60648201526084016105e4565b80471015610e605760405162461bcd60e51b815260206004820152601e60248201527f62616c616e6365206e6f7420656e6f75676820746f207769746864726177000060448201526064016105e4565b610e8b338260405180604001604052806008815260200167776974686472617760c01b8152506122a7565b610e94826122cf565b6040513390600090829084908381818185875af1925050503d8060008114610ed8576040519150601f19603f3d011682016040523d82523d6000602084013e610edd565b606091505b5050905080610f2e5760405162461bcd60e51b815260206004820152601e60248201527f4172746f6e672062616c616e6365207472616e73666572206661696c6564000060448201526064016105e4565b505060016065555050565b6001600160a01b038281166000908152609e602090815260408083208584529091529020541615610fac5760405162461bcd60e51b815260206004820152601960248201527f6d696e74657220616c726561647920726567697374657265640000000000000060448201526064016105e4565b6001600160a01b039182166000908152609e60209081526040808320938352929052208054919092166001600160a01b0319909116179055565b6127108161ffff16111561102e5760405162461bcd60e51b815260206004820152600f60248201526e696e76616c696420726f79616c747960881b60448201526064016105e4565b61103782611b8d565b6110535760405162461bcd60e51b81526004016105e49061280d565b6000829050806001600160a01b0316638da5cb5b6040518163ffffffff1660e01b815260040160206040518083038186803b15801561109157600080fd5b505afa1580156110a5573d6000803e3d6000fd5b505050506040513d601f19601f820116820180604052508101906110c9919061283a565b6001600160a01b0316336001600160a01b0316146111295760405162461bcd60e51b815260206004820152601f60248201527f75736572206e6f7420617070726f76656420666f722074686973206974656d0060448201526064016105e4565b6001600160a01b0383166000818152609c6020818152604080842081518083018352815461ffff8082168352600184018054848801908152865180880188528d84168082529151818a019081529a8c9052988852975190911661ffff1990921691909117909255945190555191825291929133917f3d01e4a63a15c293fb21704a30354cf8fbf55355606eca15bce5602e409f3ad791015b60405180910390a350505050565b6127108161ffff1611156112175760405162461bcd60e51b815260206004820152600f60248201526e696e76616c696420726f79616c747960881b60448201526064016105e4565b336001600160a01b038416148061125257506001600160a01b038381166000908152609e602090815260408083208684529091529020541633145b61129e5760405162461bcd60e51b815260206004820152601a60248201527f6e6f7420617070726f76656420666f722074686973206974656d00000000000060448201526064016105e4565b6001600160a01b038481166000818152609d60209081526040808320948816808452948252808320878452825291829020805461ffff191661ffff87169081179091558251878152918201527f5005dbe7222d664cda7ff8f0eb132c5f5ca7d1c78e56ceee58895a89b3f19f7b91016111c1565b61131a6123c5565b611324600061241f565b565b6001600160a01b0381166000908152609b6020908152604080832080548251818502810185019093528083528493849084015b828210156113a95783829060005260206000209060030201604051806060016040529081600082015481526020016001820154815260200160028201548152505081526020019060010190611359565b5050505090506000805b825181101561141f57858382815181106113cf576113cf6128c5565b602002602001015160400151111561140d578281815181106113f3576113f36128c5565b6020026020010151602001518261140a9190612884565b91505b80611417816128db565b9150506113b3565b50949350505050565b6002606554141561144b5760405162461bcd60e51b81526004016105e4906127d6565b60026065556001600160a01b03831660009081526099602090815260408083208584529091529020548390839080156114b75760405162461bcd60e51b815260206004820152600e60248201526d185b1c9958591e481b1a5cdd195960921b60448201526064016105e4565b6114c086611b8d565b15611662576040516331a9108f60e11b815260048101869052869033906001600160a01b03831690636352211e9060240160206040518083038186803b15801561150957600080fd5b505afa15801561151d573d6000803e3d6000fd5b505050506040513d601f19601f82011682018060405250810190611541919061283a565b6001600160a01b0316146115895760405162461bcd60e51b815260206004820152600f60248201526e6e6f74206f776e696e67206974656d60881b60448201526064016105e4565b60405163e985e9c560e01b81523360048201523060248201526001600160a01b0382169063e985e9c59060440160206040518083038186803b1580156115ce57600080fd5b505afa1580156115e2573d6000803e3d6000fd5b505050506040513d601f19601f8201168201806040525081019061160691906128f6565b61165c5760405162461bcd60e51b815260206004820152602160248201527f6172746f6e67206e6f7420617070726f76656420666f722074686973206974656044820152606d60f81b60648201526084016105e4565b5061167a565b60405162461bcd60e51b81526004016105e49061280d565b6001600160a01b0386166000818152609960209081526040808320898452825291829020879055815188815290810187905233917fd547e933094f12a9159076970143ebe73234e64480317844b0dcb36117116de491015b60405180910390a35050600160655550505050565b6116ef6123c5565b6097805461ffff191661ffff83169081179091556040519081527fcabead39256298cdf7d1228eee68b47bc54a2192283d8d93574da08d2d7ac303906020015b60405180910390a150565b6002606554141561175d5760405162461bcd60e51b81526004016105e4906127d6565b60026065556001600160a01b038216600090815260996020908152604080832084845290915290205482908290806117a75760405162461bcd60e51b81526004016105e49061289c565b6117b2858533611c9b565b6117bd858533612471565b50506001606555505050565b609b60205281600052604060002081815481106117e557600080fd5b600091825260209091206003909102018054600182015460029092015490935090915083565b600054610100900460ff161580801561182b5750600054600160ff909116105b806118455750303b158015611845575060005460ff166001145b6118a85760405162461bcd60e51b815260206004820152602e60248201527f496e697469616c697a61626c653a20636f6e747261637420697320616c72656160448201526d191e481a5b9a5d1a585b1a5e995960921b60648201526084016105e4565b6000805460ff1916600117905580156118cb576000805461ff0019166101001790555b609780546001600160a01b03841662010000026001600160b01b031990911661ffff8616171790556118fb6124d3565b611903612502565b8015611949576000805461ff0019169055604051600181527f7f26b83ff96e1f2b6a682f133852f6798a09c465da95921460cefb38474024989060200160405180910390a15b505050565b600260655414156119715760405162461bcd60e51b81526004016105e4906127d6565b60026065819055506119a281346040518060400160405280600681526020016572656465656d60d01b815250611c14565b506001606555565b60006119b68383611326565b6001600160a01b0383166000908152609f60205260409020546119d9919061286d565b9392505050565b6119e86123c5565b6001600160a01b038116611a4d5760405162461bcd60e51b815260206004820152602660248201527f4f776e61626c653a206e6577206f776e657220697320746865207a65726f206160448201526564647265737360d01b60648201526084016105e4565b611a568161241f565b50565b611a616123c5565b6097805462010000600160b01b031916620100006001600160a01b038416908102919091179091556040519081527fe57e7c1f36cc83fade34e32351e6eee7eb9da532662b1b5da10c631e8222aca79060200161172f565b60026065541415611adc5760405162461bcd60e51b81526004016105e4906127d6565b60026065556001600160a01b03831660009081526099602090815260408083208584529091529020548390839080611b265760405162461bcd60e51b81526004016105e49061289c565b611b31868633611c9b565b6001600160a01b0386166000818152609960209081526040808320898452825291829020879055815188815290810187905233917f3c33e65e8698294810b631d476d60b44425303828da0b1f8b635231bfda12be291016116d2565b6040516301ffc9a760e01b81526380ac58cd60e01b60048201526000906001600160a01b038316906301ffc9a79060240160206040518083038186803b158015611bd657600080fd5b505afa158015611bea573d6000803e3d6000fd5b505050506040513d601f19601f82011682018060405250810190611c0e91906128f6565b92915050565b6001600160a01b0383166000908152609f602052604081208054849290611c3c908490612884565b90915550506001600160a01b0383166000818152609f6020526040908190205490517ffdc3c0915ebb2c83e022c592183e35e31b761bcad805086cccd956d189f729d591611c8e918691908690612918565b60405180910390a2505050565b611ca483611b8d565b15611662576040516331a9108f60e11b81526004810183905283906001600160a01b03821690636352211e9060240160206040518083038186803b158015611ceb57600080fd5b505afa158015611cff573d6000803e3d6000fd5b505050506040513d601f19601f82011682018060405250810190611d23919061283a565b6001600160a01b0316826001600160a01b031614611d755760405162461bcd60e51b815260206004820152600f60248201526e6e6f74206f776e696e67206974656d60881b60448201526064016105e4565b50505050565b81811015611dcb5760405162461bcd60e51b815260206004820152601960248201527f7061796d656e7420616d6f756e74206e6f7420656e6f7567680000000000000060448201526064016105e4565b611dd486611b8d565b611df05760405162461bcd60e51b81526004016105e49061280d565b6001600160a01b038681166000818152609e602090815260408083208a8452825280832054909416808352609d825284832084845282528483208a8452825284832054938352609c8252918490208451808601909552805461ffff908116808752600190920154928601929092526097549294938216939261271092611e789186911661297c565b611e82919061297c565b61ffff161115611ee25760405162461bcd60e51b815260206004820152602560248201527f53756d206f6620666565732061726520626967676572207468616e2074686520604482015264707269636560d81b60648201526084016105e4565b609754600090611ef790879061ffff16612531565b609754604051919250600091620100009091046001600160a01b03169083908381818185875af1925050503d8060008114611f4e576040519150601f19603f3d011682016040523d82523d6000602084013e611f53565b606091505b5050905080611f9a5760405162461bcd60e51b8152602060048201526013602482015272119959481d1c985b9cd9995c8819985a5b1959606a1b60448201526064016105e4565b86861115611fd657611fd688611fb0898961286d565b604051806040016040528060088152602001671bdd995c9c185a5960c21b815250611c14565b61ffff84161561202b576000611fec8886612531565b905061201d86826040518060400160405280600c81526020016b746f6b656e526f79616c747960a01b815250611c14565b6120278184612884565b9250505b825161ffff16156120e7576000612046888560000151612531565b9050808460200181815161205a9190612884565b915081815250506040518060400160405280856000015161ffff1681526020018560200151815250609c60008e6001600160a01b03166001600160a01b0316815260200190815260200160002060008201518160000160006101000a81548161ffff021916908361ffff1602179055506020820151816001015590505080836120e39190612884565b9250505b612117896120f5848a61286d565b6040518060400160405280600481526020016373616c6560e01b815250611c14565b604051632142170760e11b81526001600160a01b038a811660048301528981166024830152604482018c90528c16906342842e0e90606401600060405180830381600087803b15801561216957600080fd5b505af115801561217d573d6000803e3d6000fd5b505050508a6001600160a01b0316886001600160a01b03168a6001600160a01b03167fee0ddd6454e05c1b33a8dfcb6cc52418d28020e96e21228bb601f5dbb6790cd08d8b6040516121d9929190918252602082015260400190565b60405180910390a45050506001600160a01b03909716600090815260996020908152604080832098835297905295862095909555505050505050565b6001600160a01b0381166000908152609b60205260408120905b8154811015611d7557836000015182828154811061224f5761224f6128c5565b906000526020600020906003020160000154141561229557600082828154811061227b5761227b6128c5565b906000526020600020906003020160020181905550611d75565b8061229f816128db565b91505061222f565b6001600160a01b0383166000908152609f602052604081208054849290611c3c90849061286d565b336000908152609b60205260408120905b815481101561194957828282815481106122fc576122fc6128c5565b90600052602060002090600302016002015410156123b357815482906123249060019061286d565b81548110612334576123346128c5565b9060005260206000209060030201828281548110612354576123546128c5565b60009182526020909120825460039092020190815560018083015490820155600291820154910155815482908061238d5761238d6129a2565b600082815260208120600360001990930192830201818155600181018290556002015590555b806123bd816128db565b9150506122e0565b6033546001600160a01b031633146113245760405162461bcd60e51b815260206004820181905260248201527f4f776e61626c653a2063616c6c6572206973206e6f7420746865206f776e657260448201526064016105e4565b603380546001600160a01b038381166001600160a01b0319831681179093556040519116919082907f8be0079c531659141344cd1fd0a4f28419497f9722a3daafe3b4186f6b6457e090600090a35050565b6001600160a01b038381166000818152609960209081526040808320878452825280832092909255905185815291928416917f9ba1a3cb55ce8d63d072a886f94d2a744f50cddf82128e897d0661f5ec623158910160405180910390a3505050565b600054610100900460ff166124fa5760405162461bcd60e51b81526004016105e4906129b8565b61132461254e565b600054610100900460ff166125295760405162461bcd60e51b81526004016105e4906129b8565b61132461257e565b600061271061254461ffff841685612a03565b6119d99190612a22565b600054610100900460ff166125755760405162461bcd60e51b81526004016105e4906129b8565b6113243361241f565b600054610100900460ff166125a55760405162461bcd60e51b81526004016105e4906129b8565b6001606555565b6001600160a01b0381168114611a5657600080fd5b6000806000606084860312156125d657600080fd5b83356125e1816125ac565b95602085013595506040909401359392505050565b60008060006060848603121561260b57600080fd5b8335612616816125ac565b925060208401359150604084013561262d816125ac565b809150509250925092565b60006020828403121561264a57600080fd5b81356119d9816125ac565b60008060006060848603121561266a57600080fd5b8335612675816125ac565b92506020840135612685816125ac565b929592945050506040919091013590565b803561ffff811681146126a857600080fd5b919050565b600080604083850312156126c057600080fd5b82356126cb816125ac565b91506126d960208401612696565b90509250929050565b600080600080608085870312156126f857600080fd5b8435612703816125ac565b93506020850135612713816125ac565b92506040850135915061272860608601612696565b905092959194509250565b6000806040838503121561274657600080fd5b823591506020830135612758816125ac565b809150509250929050565b60006020828403121561277557600080fd5b6119d982612696565b6000806040838503121561279157600080fd5b823561279c816125ac565b946020939093013593505050565b600080604083850312156127bd57600080fd5b6127c683612696565b91506020830135612758816125ac565b6020808252601f908201527f5265656e7472616e637947756172643a207265656e7472616e742063616c6c00604082015260600190565b602080825260139082015272696e76616c6964206e6674206164647265737360681b604082015260600190565b60006020828403121561284c57600080fd5b81516119d9816125ac565b634e487b7160e01b600052601160045260246000fd5b60008282101561287f5761287f612857565b500390565b6000821982111561289757612897612857565b500190565b6020808252600f908201526e6e6f74206c6973746564206974656d60881b604082015260600190565b634e487b7160e01b600052603260045260246000fd5b60006000198214156128ef576128ef612857565b5060010190565b60006020828403121561290857600080fd5b815180151581146119d957600080fd5b83815260006020848184015260606040840152835180606085015260005b8181101561295257858101830151858201608001528201612936565b81811115612964576000608083870101525b50601f01601f19169290920160800195945050505050565b600061ffff80831681851680830382111561299957612999612857565b01949350505050565b634e487b7160e01b600052603160045260246000fd5b6020808252602b908201527f496e697469616c697a61626c653a20636f6e7472616374206973206e6f74206960408201526a6e697469616c697a696e6760a81b606082015260800190565b6000816000190483118215151615612a1d57612a1d612857565b500290565b600082612a3f57634e487b7160e01b600052601260045260246000fd5b50049056fea26469706673582212209e23aa58d4d4dc9d98c8a06bfa81b4548e3f0dafe2c968a2d6739f936e41c73c64736f6c63430008090033",
  "linkReferences": {},
  "deployedLinkReferences": {}
}