{
  "_format": "hh-sol-artifact-1",
  "contractName": "ArtongMarketplace",
  "sourceName": "contracts/ArtongMarketplace.sol",
  "abi": [
    {
      "anonymous": false,
      "inputs": [
        {
          "indexed": false,
          "internalType": "uint8",
          "name": "version",
          "type": "uint8"
        }
      ],
      "name": "Initialized",
      "type": "event"
    },
    {
      "anonymous": false,
      "inputs": [
        {
          "indexed": true,
          "internalType": "address",
          "name": "owner",
          "type": "address"
        },
        {
          "indexed": true,
          "internalType": "address",
          "name": "nft",
          "type": "address"
        },
        {
          "indexed": false,
          "internalType": "uint256",
          "name": "tokenId",
          "type": "uint256"
        }
      ],
      "name": "ItemCanceled",
      "type": "event"
    },
    {
      "anonymous": false,
      "inputs": [
        {
          "indexed": true,
          "internalType": "address",
          "name": "owner",
          "type": "address"
        },
        {
          "indexed": true,
          "internalType": "address",
          "name": "nft",
          "type": "address"
        },
        {
          "indexed": false,
          "internalType": "uint256",
          "name": "tokenId",
          "type": "uint256"
        },
        {
          "indexed": false,
          "internalType": "uint256",
          "name": "price",
          "type": "uint256"
        }
      ],
      "name": "ItemListed",
      "type": "event"
    },
    {
      "anonymous": false,
      "inputs": [
        {
          "indexed": true,
          "internalType": "address",
          "name": "seller",
          "type": "address"
        },
        {
          "indexed": true,
          "internalType": "address",
          "name": "buyer",
          "type": "address"
        },
        {
          "indexed": true,
          "internalType": "address",
          "name": "nft",
          "type": "address"
        },
        {
          "indexed": false,
          "internalType": "uint256",
          "name": "tokenId",
          "type": "uint256"
        },
        {
          "indexed": false,
          "internalType": "uint256",
          "name": "price",
          "type": "uint256"
        }
      ],
      "name": "ItemSold",
      "type": "event"
    },
    {
      "anonymous": false,
      "inputs": [
        {
          "indexed": true,
          "internalType": "address",
          "name": "owner",
          "type": "address"
        },
        {
          "indexed": true,
          "internalType": "address",
          "name": "nft",
          "type": "address"
        },
        {
          "indexed": false,
          "internalType": "uint256",
          "name": "tokenId",
          "type": "uint256"
        },
        {
          "indexed": false,
          "internalType": "uint256",
          "name": "newPrice",
          "type": "uint256"
        }
      ],
      "name": "ItemUpdated",
      "type": "event"
    },
    {
      "anonymous": false,
      "inputs": [
        {
          "indexed": true,
          "internalType": "address",
          "name": "nft",
          "type": "address"
        },
        {
          "indexed": false,
          "internalType": "uint256",
          "name": "tokenId",
          "type": "uint256"
        },
        {
          "indexed": true,
          "internalType": "address",
          "name": "creator",
          "type": "address"
        }
      ],
      "name": "OfferAccepted",
      "type": "event"
    },
    {
      "anonymous": false,
      "inputs": [
        {
          "indexed": true,
          "internalType": "address",
          "name": "creator",
          "type": "address"
        },
        {
          "indexed": true,
          "internalType": "address",
          "name": "nft",
          "type": "address"
        },
        {
          "indexed": false,
          "internalType": "uint256",
          "name": "tokenId",
          "type": "uint256"
        },
        {
          "indexed": false,
          "internalType": "uint256",
          "name": "price",
          "type": "uint256"
        },
        {
          "indexed": false,
          "internalType": "uint256",
          "name": "deadline",
          "type": "uint256"
        }
      ],
      "name": "OfferCreated",
      "type": "event"
    },
    {
      "anonymous": false,
      "inputs": [
        {
          "indexed": true,
          "internalType": "address",
          "name": "previousOwner",
          "type": "address"
        },
        {
          "indexed": true,
          "internalType": "address",
          "name": "newOwner",
          "type": "address"
        }
      ],
      "name": "OwnershipTransferred",
      "type": "event"
    },
    {
      "anonymous": false,
      "inputs": [
        {
          "indexed": false,
          "internalType": "uint16",
          "name": "platformFee",
          "type": "uint16"
        }
      ],
      "name": "UpdatePlatformFee",
      "type": "event"
    },
    {
      "anonymous": false,
      "inputs": [
        {
          "indexed": false,
          "internalType": "address payable",
          "name": "platformFeeRecipient",
          "type": "address"
        }
      ],
      "name": "UpdatePlatformFeeRecipient",
      "type": "event"
    },
    {
      "inputs": [
        {
          "internalType": "address",
          "name": "_nftAddress",
          "type": "address"
        },
        {
          "internalType": "uint256",
          "name": "_tokenId",
          "type": "uint256"
        },
        {
          "internalType": "address",
          "name": "_creator",
          "type": "address"
        }
      ],
      "name": "acceptOffer",
      "outputs": [],
      "stateMutability": "nonpayable",
      "type": "function"
    },
    {
      "inputs": [
        {
          "internalType": "address",
          "name": "_nftAddress",
          "type": "address"
        },
        {
          "internalType": "uint256",
          "name": "_tokenId",
          "type": "uint256"
        },
        {
          "internalType": "address",
          "name": "_owner",
          "type": "address"
        }
      ],
      "name": "buyItem",
      "outputs": [],
      "stateMutability": "payable",
      "type": "function"
    },
    {
      "inputs": [
        {
          "internalType": "address",
          "name": "_nftAddress",
          "type": "address"
        },
        {
          "internalType": "uint256",
          "name": "_tokenId",
          "type": "uint256"
        }
      ],
      "name": "cancelListing",
      "outputs": [],
      "stateMutability": "nonpayable",
      "type": "function"
    },
    {
      "inputs": [
        {
          "internalType": "address",
          "name": "",
          "type": "address"
        }
      ],
      "name": "collectionRoyalties",
      "outputs": [
        {
          "internalType": "uint16",
          "name": "royalty",
          "type": "uint16"
        },
        {
          "internalType": "uint256",
          "name": "royaltyBalance",
          "type": "uint256"
        }
      ],
      "stateMutability": "view",
      "type": "function"
    },
    {
      "inputs": [
        {
          "internalType": "address",
          "name": "_nftAddress",
          "type": "address"
        },
        {
          "internalType": "uint256",
          "name": "_tokenId",
          "type": "uint256"
        },
        {
          "internalType": "uint256",
          "name": "_deadline",
          "type": "uint256"
        }
      ],
      "name": "createOffer",
      "outputs": [],
      "stateMutability": "payable",
      "type": "function"
    },
    {
      "inputs": [],
      "name": "feeReceipient",
      "outputs": [
        {
          "internalType": "address payable",
          "name": "",
          "type": "address"
        }
      ],
      "stateMutability": "view",
      "type": "function"
    },
    {
      "inputs": [
        {
          "internalType": "uint256",
          "name": "moment",
          "type": "uint256"
        }
      ],
      "name": "getArtongBalance",
      "outputs": [
        {
          "internalType": "uint256",
          "name": "",
          "type": "uint256"
        }
      ],
      "stateMutability": "view",
      "type": "function"
    },
    {
      "inputs": [
        {
          "internalType": "uint16",
          "name": "_platformFee",
          "type": "uint16"
        },
        {
          "internalType": "address payable",
          "name": "_feeRecipient",
          "type": "address"
        }
      ],
      "name": "initialize",
      "outputs": [],
      "stateMutability": "nonpayable",
      "type": "function"
    },
    {
      "inputs": [
        {
          "internalType": "address",
          "name": "_nftAddress",
          "type": "address"
        },
        {
          "internalType": "uint256",
          "name": "_tokenId",
          "type": "uint256"
        },
        {
          "internalType": "uint256",
          "name": "_price",
          "type": "uint256"
        }
      ],
      "name": "listItem",
      "outputs": [],
      "stateMutability": "nonpayable",
      "type": "function"
    },
    {
      "inputs": [
        {
          "internalType": "address",
          "name": "",
          "type": "address"
        },
        {
          "internalType": "uint256",
          "name": "",
          "type": "uint256"
        }
      ],
      "name": "listingPrices",
      "outputs": [
        {
          "internalType": "uint256",
          "name": "",
          "type": "uint256"
        }
      ],
      "stateMutability": "view",
      "type": "function"
    },
    {
      "inputs": [
        {
          "internalType": "address",
          "name": "",
          "type": "address"
        },
        {
          "internalType": "uint256",
          "name": "",
          "type": "uint256"
        }
      ],
      "name": "minters",
      "outputs": [
        {
          "internalType": "address",
          "name": "",
          "type": "address"
        }
      ],
      "stateMutability": "view",
      "type": "function"
    },
    {
      "inputs": [
        {
          "internalType": "address",
          "name": "",
          "type": "address"
        },
        {
          "internalType": "uint256",
          "name": "",
          "type": "uint256"
        },
        {
          "internalType": "address",
          "name": "",
          "type": "address"
        }
      ],
      "name": "offers",
      "outputs": [
        {
          "internalType": "uint256",
          "name": "price",
          "type": "uint256"
        },
        {
          "internalType": "uint256",
          "name": "deadline",
          "type": "uint256"
        }
      ],
      "stateMutability": "view",
      "type": "function"
    },
    {
      "inputs": [],
      "name": "owner",
      "outputs": [
        {
          "internalType": "address",
          "name": "",
          "type": "address"
        }
      ],
      "stateMutability": "view",
      "type": "function"
    },
    {
      "inputs": [],
      "name": "platformFee",
      "outputs": [
        {
          "internalType": "uint16",
          "name": "",
          "type": "uint16"
        }
      ],
      "stateMutability": "view",
      "type": "function"
    },
    {
      "inputs": [],
      "name": "renounceOwnership",
      "outputs": [],
      "stateMutability": "nonpayable",
      "type": "function"
    },
    {
      "inputs": [
        {
          "internalType": "address",
          "name": "",
          "type": "address"
        }
      ],
      "name": "tokenRoyalties",
      "outputs": [
        {
          "internalType": "uint16",
          "name": "",
          "type": "uint16"
        }
      ],
      "stateMutability": "view",
      "type": "function"
    },
    {
      "inputs": [
        {
          "internalType": "address",
          "name": "newOwner",
          "type": "address"
        }
      ],
      "name": "transferOwnership",
      "outputs": [],
      "stateMutability": "nonpayable",
      "type": "function"
    },
    {
      "inputs": [
        {
          "internalType": "address",
          "name": "_nftAddress",
          "type": "address"
        },
        {
          "internalType": "uint256",
          "name": "_tokenId",
          "type": "uint256"
        },
        {
          "internalType": "uint256",
          "name": "_newPrice",
          "type": "uint256"
        }
      ],
      "name": "updateListing",
      "outputs": [],
      "stateMutability": "nonpayable",
      "type": "function"
    },
    {
      "inputs": [
        {
          "internalType": "address",
          "name": "",
          "type": "address"
        },
        {
          "internalType": "uint256",
          "name": "",
          "type": "uint256"
        }
      ],
      "name": "userOffers",
      "outputs": [
        {
          "internalType": "uint256",
          "name": "price",
          "type": "uint256"
        },
        {
          "internalType": "uint256",
          "name": "deadline",
          "type": "uint256"
        }
      ],
      "stateMutability": "view",
      "type": "function"
    },
    {
      "inputs": [],
      "name": "withdraw",
      "outputs": [],
      "stateMutability": "nonpayable",
      "type": "function"
    }
  ],
  "bytecode": "0x608060405234801561001057600080fd5b50613b28806100206000396000f3fe60806040526004361061011f5760003560e01c80638da5cb5b116100a0578063c3c3b2a411610064578063c3c3b2a4146103b9578063d3f494cc146103f6578063e0dbcde514610434578063f2fde38b1461045d578063f772adf1146104865761011f565b80638da5cb5b146102ad578063ac43e890146102d8578063b2ddee0614610315578063b876d9d01461033e578063bd5fec651461037b5761011f565b80633ccfd60b116100e75780633ccfd60b146101db57806357b275b4146101f2578063715018a61461023057806378746d0d1461024757806389bfd38f146102845761011f565b80631c6c712814610124578063259ca3651461014057806326232a2e1461015c5780633740ebb3146101875780633bbb2806146101b2575b600080fd5b61013e60048036038101906101399190612af2565b6104af565b005b61015a60048036038101906101559190612b45565b6109a3565b005b34801561016857600080fd5b50610171610b1e565b60405161017e9190612bb5565b60405180910390f35b34801561019357600080fd5b5061019c610b32565b6040516101a99190612bf1565b60405180910390f35b3480156101be57600080fd5b506101d960048036038101906101d49190612b45565b610b58565b005b3480156101e757600080fd5b506101f0610f0d565b005b3480156101fe57600080fd5b5061021960048036038101906102149190612c0c565b6110ac565b604051610227929190612c48565b60405180910390f35b34801561023c57600080fd5b506102456110de565b005b34801561025357600080fd5b5061026e60048036038101906102699190612c71565b6110f2565b60405161027b9190612cc0565b60405180910390f35b34801561029057600080fd5b506102ab60048036038101906102a69190612af2565b611134565b005b3480156102b957600080fd5b506102c26114a8565b6040516102cf9190612cc0565b60405180910390f35b3480156102e457600080fd5b506102ff60048036038101906102fa9190612c71565b6114d2565b60405161030c9190612cdb565b60405180910390f35b34801561032157600080fd5b5061033c60048036038101906103379190612c71565b6114f7565b005b34801561034a57600080fd5b5061036560048036038101906103609190612cf6565b611606565b6040516103729190612cdb565b60405180910390f35b34801561038757600080fd5b506103a2600480360381019061039d9190612c71565b61163d565b6040516103b0929190612d23565b60405180910390f35b3480156103c557600080fd5b506103e060048036038101906103db9190612c0c565b61167e565b6040516103ed9190612bb5565b60405180910390f35b34801561040257600080fd5b5061041d60048036038101906104189190612b45565b61169f565b60405161042b929190612d23565b60405180910390f35b34801561044057600080fd5b5061045b60048036038101906104569190612da4565b6116dd565b005b34801561046957600080fd5b50610484600480360381019061047f9190612c0c565b611883565b005b34801561049257600080fd5b506104ad60048036038101906104a89190612af2565b611907565b005b8282336000609a60008573ffffffffffffffffffffffffffffffffffffffff1673ffffffffffffffffffffffffffffffffffffffff168152602001908152602001600020600084815260200190815260200160002060008373ffffffffffffffffffffffffffffffffffffffff1673ffffffffffffffffffffffffffffffffffffffff1681526020019081526020016000206040518060400160405290816000820154815260200160018201548152505090506000816000015114806105805750610578611ac8565b816020015111155b6105bf576040517f08c379a00000000000000000000000000000000000000000000000000000000081526004016105b690612e41565b60405180910390fd5b66038d7ea4c680003411610608576040517f08c379a00000000000000000000000000000000000000000000000000000000081526004016105ff90612ead565b60405180910390fd5b61061187611ad0565b610650576040517f08c379a000000000000000000000000000000000000000000000000000000000815260040161064790612f19565b60405180910390fd5b60008790508073ffffffffffffffffffffffffffffffffffffffff16636352211e886040518263ffffffff1660e01b815260040161068e9190612cdb565b60206040518083038186803b1580156106a657600080fd5b505afa1580156106ba573d6000803e3d6000fd5b505050506040513d601f19601f820116820180604052508101906106de9190612f4e565b73ffffffffffffffffffffffffffffffffffffffff163373ffffffffffffffffffffffffffffffffffffffff16141561074c576040517f08c379a000000000000000000000000000000000000000000000000000000000815260040161074390612fc7565b60405180910390fd5b60008614156107725762015180610761611ac8565b61076b9190613016565b955061078b565b6201518061077e611ac8565b610788919061304a565b95505b604051806040016040528034815260200187815250609a60008a73ffffffffffffffffffffffffffffffffffffffff1673ffffffffffffffffffffffffffffffffffffffff168152602001908152602001600020600089815260200190815260200160002060003373ffffffffffffffffffffffffffffffffffffffff1673ffffffffffffffffffffffffffffffffffffffff1681526020019081526020016000206000820151816000015560208201518160010155905050609b60003373ffffffffffffffffffffffffffffffffffffffff1673ffffffffffffffffffffffffffffffffffffffff16815260200190815260200160002060405180604001604052803481526020018881525090806001815401808255809150506001900390600052602060002090600202016000909190919091506000820151816000015560208201518160010155505034609e60003373ffffffffffffffffffffffffffffffffffffffff1673ffffffffffffffffffffffffffffffffffffffff1681526020019081526020016000206000016000828254610929919061304a565b925050819055508773ffffffffffffffffffffffffffffffffffffffff163373ffffffffffffffffffffffffffffffffffffffff167f0c2598f084a085d4d27e8638b4306b07c633b1e724b3d27fc0af68714fe5402889348a604051610991939291906130a0565b60405180910390a35050505050505050565b600260655414156109e9576040517f08c379a00000000000000000000000000000000000000000000000000000000081526004016109e090613123565b60405180910390fd5b60026065819055508282826000609960008573ffffffffffffffffffffffffffffffffffffffff1673ffffffffffffffffffffffffffffffffffffffff168152602001908152602001600020600084815260200190815260200160002054905060008111610a8c576040517f08c379a0000000000000000000000000000000000000000000000000000000008152600401610a839061318f565b60405180910390fd5b610a97878787611b82565b6000609960008973ffffffffffffffffffffffffffffffffffffffff1673ffffffffffffffffffffffffffffffffffffffff1681526020019081526020016000206000888152602001908152602001600020549050600086905060003390506000349050610b098b8b85858886611cd1565b50505050505050506001606581905550505050565b609760009054906101000a900461ffff1681565b609760029054906101000a900473ffffffffffffffffffffffffffffffffffffffff1681565b60026065541415610b9e576040517f08c379a0000000000000000000000000000000000000000000000000000000008152600401610b9590613123565b60405180910390fd5b60026065819055508282826000609a60008573ffffffffffffffffffffffffffffffffffffffff1673ffffffffffffffffffffffffffffffffffffffff168152602001908152602001600020600084815260200190815260200160002060008373ffffffffffffffffffffffffffffffffffffffff1673ffffffffffffffffffffffffffffffffffffffff16815260200190815260200160002060405180604001604052908160008201548152602001600182015481525050905060008160000151118015610c775750610c70611ac8565b8160200151115b610cb6576040517f08c379a0000000000000000000000000000000000000000000000000000000008152600401610cad906131fb565b60405180910390fd5b610cc1878733611b82565b6000609a60008973ffffffffffffffffffffffffffffffffffffffff1673ffffffffffffffffffffffffffffffffffffffff168152602001908152602001600020600088815260200190815260200160002060008773ffffffffffffffffffffffffffffffffffffffff1673ffffffffffffffffffffffffffffffffffffffff1681526020019081526020016000206040518060400160405290816000820154815260200160018201548152505090506000610d7b611ac8565b90506000610d898289612342565b90508260000151811015610dd2576040517f08c379a0000000000000000000000000000000000000000000000000000000008152600401610dc990613267565b60405180910390fd5b60003390506000899050610df28c8c848489600001518a60000151611cd1565b8973ffffffffffffffffffffffffffffffffffffffff168c73ffffffffffffffffffffffffffffffffffffffff167f1911131efc06f8b35ef19454a244416c23f0cffd91e74ec4d1656a64ec363afe8d604051610e4f9190612cdb565b60405180910390a3609a60008d73ffffffffffffffffffffffffffffffffffffffff1673ffffffffffffffffffffffffffffffffffffffff16815260200190815260200160002060008c815260200190815260200160002060008b73ffffffffffffffffffffffffffffffffffffffff1673ffffffffffffffffffffffffffffffffffffffff168152602001908152602001600020600080820160009055600182016000905550505050505050505050506001606581905550505050565b6000610f17611ac8565b90506000610f2482611606565b90506000811415610f6a576040517f08c379a0000000000000000000000000000000000000000000000000000000008152600401610f61906132d3565b60405180910390fd5b80471015610fad576040517f08c379a0000000000000000000000000000000000000000000000000000000008152600401610fa49061333f565b60405180910390fd5b6000609e60003373ffffffffffffffffffffffffffffffffffffffff1673ffffffffffffffffffffffffffffffffffffffff168152602001908152602001600020604051806060016040529081600082015481526020016001820154815260200160028201548152505090506110238333612342565b81600001516110329190613016565b8160000181815250506000816020018181525050600081604001818152505061105a8361246f565b60003390508073ffffffffffffffffffffffffffffffffffffffff166108fc849081150290604051600060405180830381858888f193505050501580156110a5573d6000803e3d6000fd5b5050505050565b609c6020528060005260406000206000915090508060000160009054906101000a900461ffff16908060010154905082565b6110e66125a9565b6110f06000612627565b565b60986020528160005260406000206020528060005260406000206000915091509054906101000a900473ffffffffffffffffffffffffffffffffffffffff1681565b8282336000609960008573ffffffffffffffffffffffffffffffffffffffff1673ffffffffffffffffffffffffffffffffffffffff1681526020019081526020016000206000848152602001908152602001600020549050600081146111cf576040517f08c379a00000000000000000000000000000000000000000000000000000000081526004016111c6906133ab565b60405180910390fd5b6111d887611ad0565b156113a85760008790503373ffffffffffffffffffffffffffffffffffffffff168173ffffffffffffffffffffffffffffffffffffffff16636352211e896040518263ffffffff1660e01b81526004016112329190612cdb565b60206040518083038186803b15801561124a57600080fd5b505afa15801561125e573d6000803e3d6000fd5b505050506040513d601f19601f820116820180604052508101906112829190612f4e565b73ffffffffffffffffffffffffffffffffffffffff16146112d8576040517f08c379a00000000000000000000000000000000000000000000000000000000081526004016112cf90613417565b60405180910390fd5b8073ffffffffffffffffffffffffffffffffffffffff1663e985e9c533306040518363ffffffff1660e01b8152600401611313929190613437565b60206040518083038186803b15801561132b57600080fd5b505afa15801561133f573d6000803e3d6000fd5b505050506040513d601f19601f820116820180604052508101906113639190613498565b6113a2576040517f08c379a000000000000000000000000000000000000000000000000000000000815260040161139990613537565b60405180910390fd5b506113e3565b6040517f08c379a00000000000000000000000000000000000000000000000000000000081526004016113da90612f19565b60405180910390fd5b84609960008973ffffffffffffffffffffffffffffffffffffffff1673ffffffffffffffffffffffffffffffffffffffff1681526020019081526020016000206000888152602001908152602001600020819055508673ffffffffffffffffffffffffffffffffffffffff163373ffffffffffffffffffffffffffffffffffffffff167fd547e933094f12a9159076970143ebe73234e64480317844b0dcb36117116de48888604051611497929190612d23565b60405180910390a350505050505050565b6000603360009054906101000a900473ffffffffffffffffffffffffffffffffffffffff16905090565b6099602052816000526040600020602052806000526040600020600091509150505481565b6002606554141561153d576040517f08c379a000000000000000000000000000000000000000000000000000000000815260040161153490613123565b60405180910390fd5b60026065819055508181336000609960008573ffffffffffffffffffffffffffffffffffffffff1673ffffffffffffffffffffffffffffffffffffffff1681526020019081526020016000206000848152602001908152602001600020549050600081116115e0576040517f08c379a00000000000000000000000000000000000000000000000000000000081526004016115d79061318f565b60405180910390fd5b6115eb868633611b82565b6115f68686336126ed565b5050505060016065819055505050565b60006116106127ab565b611618612823565b6116228433612342565b61162c919061304a565b611636919061304a565b9050919050565b609b602052816000526040600020818154811061165957600080fd5b9060005260206000209060020201600091509150508060000154908060010154905082565b609d6020528060005260406000206000915054906101000a900461ffff1681565b609a60205282600052604060002060205281600052604060002060205280600052604060002060009250925050508060000154908060010154905082565b60008060019054906101000a900460ff1615905080801561170e5750600160008054906101000a900460ff1660ff16105b8061173b575061171d3061289b565b15801561173a5750600160008054906101000a900460ff1660ff16145b5b61177a576040517f08c379a0000000000000000000000000000000000000000000000000000000008152600401611771906135c9565b60405180910390fd5b60016000806101000a81548160ff021916908360ff16021790555080156117b7576001600060016101000a81548160ff0219169083151502179055505b82609760006101000a81548161ffff021916908361ffff16021790555081609760026101000a81548173ffffffffffffffffffffffffffffffffffffffff021916908373ffffffffffffffffffffffffffffffffffffffff16021790555061181d6128be565b611825612917565b801561187e5760008060016101000a81548160ff0219169083151502179055507f7f26b83ff96e1f2b6a682f133852f6798a09c465da95921460cefb38474024986001604051611875919061363b565b60405180910390a15b505050565b61188b6125a9565b600073ffffffffffffffffffffffffffffffffffffffff168173ffffffffffffffffffffffffffffffffffffffff1614156118fb576040517f08c379a00000000000000000000000000000000000000000000000000000000081526004016118f2906136c8565b60405180910390fd5b61190481612627565b50565b6002606554141561194d576040517f08c379a000000000000000000000000000000000000000000000000000000000815260040161194490613123565b60405180910390fd5b60026065819055508282336000609960008573ffffffffffffffffffffffffffffffffffffffff1673ffffffffffffffffffffffffffffffffffffffff1681526020019081526020016000206000848152602001908152602001600020549050600081116119f0576040517f08c379a00000000000000000000000000000000000000000000000000000000081526004016119e79061318f565b60405180910390fd5b6119fb878733611b82565b84609960008973ffffffffffffffffffffffffffffffffffffffff1673ffffffffffffffffffffffffffffffffffffffff1681526020019081526020016000206000888152602001908152602001600020819055508673ffffffffffffffffffffffffffffffffffffffff163373ffffffffffffffffffffffffffffffffffffffff167f3c33e65e8698294810b631d476d60b44425303828da0b1f8b635231bfda12be28888604051611aaf929190612d23565b60405180910390a3505050506001606581905550505050565b600042905090565b60008173ffffffffffffffffffffffffffffffffffffffff166301ffc9a77f80ac58cd000000000000000000000000000000000000000000000000000000006040518263ffffffff1660e01b8152600401611b2b9190613723565b60206040518083038186803b158015611b4357600080fd5b505afa158015611b57573d6000803e3d6000fd5b505050506040513d601f19601f82011682018060405250810190611b7b9190613498565b9050919050565b611b8b83611ad0565b15611c915760008390508073ffffffffffffffffffffffffffffffffffffffff16636352211e846040518263ffffffff1660e01b8152600401611bce9190612cdb565b60206040518083038186803b158015611be657600080fd5b505afa158015611bfa573d6000803e3d6000fd5b505050506040513d601f19601f82011682018060405250810190611c1e9190612f4e565b73ffffffffffffffffffffffffffffffffffffffff168273ffffffffffffffffffffffffffffffffffffffff1614611c8b576040517f08c379a0000000000000000000000000000000000000000000000000000000008152600401611c8290613417565b60405180910390fd5b50611ccc565b6040517f08c379a0000000000000000000000000000000000000000000000000000000008152600401611cc390612f19565b60405180910390fd5b505050565b81811015611d14576040517f08c379a0000000000000000000000000000000000000000000000000000000008152600401611d0b9061378a565b60405180910390fd5b6000611d3083609760009054906101000a900461ffff16612970565b90506000609760029054906101000a900473ffffffffffffffffffffffffffffffffffffffff1673ffffffffffffffffffffffffffffffffffffffff1682604051611d7a906137db565b60006040518083038185875af1925050503d8060008114611db7576040519150601f19603f3d011682016040523d82523d6000602084013e611dbc565b606091505b5050905080611e00576040517f08c379a0000000000000000000000000000000000000000000000000000000008152600401611df79061383c565b60405180910390fd5b6000609860008a73ffffffffffffffffffffffffffffffffffffffff1673ffffffffffffffffffffffffffffffffffffffff168152602001908152602001600020600089815260200190815260200160002060009054906101000a900473ffffffffffffffffffffffffffffffffffffffff1690506000609d60008973ffffffffffffffffffffffffffffffffffffffff1673ffffffffffffffffffffffffffffffffffffffff16815260200190815260200160002060009054906101000a900461ffff169050600073ffffffffffffffffffffffffffffffffffffffff168273ffffffffffffffffffffffffffffffffffffffff1614158015611f09575060008161ffff1614155b15611f85576000611f1a8783612970565b905080609e60008b73ffffffffffffffffffffffffffffffffffffffff1673ffffffffffffffffffffffffffffffffffffffff1681526020019081526020016000206001016000828254611f6e919061304a565b925050819055508085611f81919061304a565b9450505b6000609c60008c73ffffffffffffffffffffffffffffffffffffffff1673ffffffffffffffffffffffffffffffffffffffff1681526020019081526020016000206040518060400160405290816000820160009054906101000a900461ffff1661ffff1661ffff1681526020016001820154815250509050600073ffffffffffffffffffffffffffffffffffffffff168373ffffffffffffffffffffffffffffffffffffffff161415801561204357506000816000015161ffff1614155b15612083576000612058888360000151612970565b9050808260200181815161206c919061304a565b91508181525050808661207f919061304a565b9550505b8a73ffffffffffffffffffffffffffffffffffffffff1663da96577886896120ab9190613016565b8b6040518363ffffffff1660e01b81526004016120c89190612cc0565b6000604051808303818588803b1580156120e157600080fd5b505af11580156120f5573d6000803e3d6000fd5b50505050506121038b611ad0565b15612178578a73ffffffffffffffffffffffffffffffffffffffff166342842e0e8a8a8d6040518463ffffffff1660e01b81526004016121459392919061385c565b600060405180830381600087803b15801561215f57600080fd5b505af1158015612173573d6000803e3d6000fd5b505050505b868611156122635760008873ffffffffffffffffffffffffffffffffffffffff1688886121a59190613016565b6040516121b1906137db565b60006040518083038185875af1925050503d80600081146121ee576040519150601f19603f3d011682016040523d82523d6000602084013e6121f3565b606091505b50509050806122615787876122089190613016565b609e60008b73ffffffffffffffffffffffffffffffffffffffff1673ffffffffffffffffffffffffffffffffffffffff1681526020019081526020016000206002016000828254612259919061304a565b925050819055505b505b8a73ffffffffffffffffffffffffffffffffffffffff168873ffffffffffffffffffffffffffffffffffffffff168a73ffffffffffffffffffffffffffffffffffffffff167fee0ddd6454e05c1b33a8dfcb6cc52418d28020e96e21228bb601f5dbb6790cd08d8b6040516122d9929190612d23565b60405180910390a4609960008c73ffffffffffffffffffffffffffffffffffffffff1673ffffffffffffffffffffffffffffffffffffffff16815260200190815260200160002060008b8152602001908152602001600020600090555050505050505050505050565b600080609b60008473ffffffffffffffffffffffffffffffffffffffff1673ffffffffffffffffffffffffffffffffffffffff168152602001908152602001600020805480602002602001604051908101604052809291908181526020016000905b828210156123ea578382906000526020600020906002020160405180604001604052908160008201548152602001600182015481525050815260200190600101906123a4565b5050505090506000805b8251811015612463578583828151811061241157612410613893565b5b60200260200101516020015111156124505782818151811061243657612435613893565b5b6020026020010151600001518261244d919061304a565b91505b808061245b906138c2565b9150506123f4565b50809250505092915050565b6000609b60003373ffffffffffffffffffffffffffffffffffffffff1673ffffffffffffffffffffffffffffffffffffffff168152602001908152602001600020905060005b81805490508110156125a457828282815481106124d5576124d4613893565b5b90600052602060002090600202016001015410156125915781600183805490506124ff9190613016565b815481106125105761250f613893565b5b906000526020600020906002020182828154811061253157612530613893565b5b90600052602060002090600202016000820154816000015560018201548160010155905050818054806125675761256661390b565b5b60019003818190600052602060002090600202016000808201600090556001820160009055505090555b808061259c906138c2565b9150506124b5565b505050565b6125b1612997565b73ffffffffffffffffffffffffffffffffffffffff166125cf6114a8565b73ffffffffffffffffffffffffffffffffffffffff1614612625576040517f08c379a000000000000000000000000000000000000000000000000000000000815260040161261c90613986565b60405180910390fd5b565b6000603360009054906101000a900473ffffffffffffffffffffffffffffffffffffffff16905081603360006101000a81548173ffffffffffffffffffffffffffffffffffffffff021916908373ffffffffffffffffffffffffffffffffffffffff1602179055508173ffffffffffffffffffffffffffffffffffffffff168173ffffffffffffffffffffffffffffffffffffffff167f8be0079c531659141344cd1fd0a4f28419497f9722a3daafe3b4186f6b6457e060405160405180910390a35050565b609960008473ffffffffffffffffffffffffffffffffffffffff1673ffffffffffffffffffffffffffffffffffffffff1681526020019081526020016000206000838152602001908152602001600020600090558273ffffffffffffffffffffffffffffffffffffffff168173ffffffffffffffffffffffffffffffffffffffff167f9ba1a3cb55ce8d63d072a886f94d2a744f50cddf82128e897d0661f5ec6231588460405161279e9190612cdb565b60405180910390a3505050565b600080609e60003373ffffffffffffffffffffffffffffffffffffffff1673ffffffffffffffffffffffffffffffffffffffff16815260200190815260200160002060405180606001604052908160008201548152602001600182015481526020016002820154815250509050806040015191505090565b600080609e60003373ffffffffffffffffffffffffffffffffffffffff1673ffffffffffffffffffffffffffffffffffffffff16815260200190815260200160002060405180606001604052908160008201548152602001600182015481526020016002820154815250509050806020015191505090565b6000808273ffffffffffffffffffffffffffffffffffffffff163b119050919050565b600060019054906101000a900460ff1661290d576040517f08c379a000000000000000000000000000000000000000000000000000000000815260040161290490613a18565b60405180910390fd5b61291561299f565b565b600060019054906101000a900460ff16612966576040517f08c379a000000000000000000000000000000000000000000000000000000000815260040161295d90613a18565b60405180910390fd5b61296e612a00565b565b60006127108261ffff16846129859190613a38565b61298f9190613ac1565b905092915050565b600033905090565b600060019054906101000a900460ff166129ee576040517f08c379a00000000000000000000000000000000000000000000000000000000081526004016129e590613a18565b60405180910390fd5b6129fe6129f9612997565b612627565b565b600060019054906101000a900460ff16612a4f576040517f08c379a0000000000000000000000000000000000000000000000000000000008152600401612a4690613a18565b60405180910390fd5b6001606581905550565b600080fd5b600073ffffffffffffffffffffffffffffffffffffffff82169050919050565b6000612a8982612a5e565b9050919050565b612a9981612a7e565b8114612aa457600080fd5b50565b600081359050612ab681612a90565b92915050565b6000819050919050565b612acf81612abc565b8114612ada57600080fd5b50565b600081359050612aec81612ac6565b92915050565b600080600060608486031215612b0b57612b0a612a59565b5b6000612b1986828701612aa7565b9350506020612b2a86828701612add565b9250506040612b3b86828701612add565b9150509250925092565b600080600060608486031215612b5e57612b5d612a59565b5b6000612b6c86828701612aa7565b9350506020612b7d86828701612add565b9250506040612b8e86828701612aa7565b9150509250925092565b600061ffff82169050919050565b612baf81612b98565b82525050565b6000602082019050612bca6000830184612ba6565b92915050565b6000612bdb82612a5e565b9050919050565b612beb81612bd0565b82525050565b6000602082019050612c066000830184612be2565b92915050565b600060208284031215612c2257612c21612a59565b5b6000612c3084828501612aa7565b91505092915050565b612c4281612abc565b82525050565b6000604082019050612c5d6000830185612ba6565b612c6a6020830184612c39565b9392505050565b60008060408385031215612c8857612c87612a59565b5b6000612c9685828601612aa7565b9250506020612ca785828601612add565b9150509250929050565b612cba81612a7e565b82525050565b6000602082019050612cd56000830184612cb1565b92915050565b6000602082019050612cf06000830184612c39565b92915050565b600060208284031215612d0c57612d0b612a59565b5b6000612d1a84828501612add565b91505092915050565b6000604082019050612d386000830185612c39565b612d456020830184612c39565b9392505050565b612d5581612b98565b8114612d6057600080fd5b50565b600081359050612d7281612d4c565b92915050565b612d8181612bd0565b8114612d8c57600080fd5b50565b600081359050612d9e81612d78565b92915050565b60008060408385031215612dbb57612dba612a59565b5b6000612dc985828601612d63565b9250506020612dda85828601612d8f565b9150509250929050565b600082825260208201905092915050565b7f6f6666657220616c726561647920637265617465640000000000000000000000600082015250565b6000612e2b601583612de4565b9150612e3682612df5565b602082019050919050565b60006020820190508181036000830152612e5a81612e1e565b9050919050565b7f6f6666657220616d6f756e7420746f6f20736d616c6c00000000000000000000600082015250565b6000612e97601683612de4565b9150612ea282612e61565b602082019050919050565b60006020820190508181036000830152612ec681612e8a565b9050919050565b7f696e76616c6964206e6674206164647265737300000000000000000000000000600082015250565b6000612f03601383612de4565b9150612f0e82612ecd565b602082019050919050565b60006020820190508181036000830152612f3281612ef6565b9050919050565b600081519050612f4881612a90565b92915050565b600060208284031215612f6457612f63612a59565b5b6000612f7284828501612f39565b91505092915050565b7f63616e6e6f742073656c66206f66666572000000000000000000000000000000600082015250565b6000612fb1601183612de4565b9150612fbc82612f7b565b602082019050919050565b60006020820190508181036000830152612fe081612fa4565b9050919050565b7f4e487b7100000000000000000000000000000000000000000000000000000000600052601160045260246000fd5b600061302182612abc565b915061302c83612abc565b92508282101561303f5761303e612fe7565b5b828203905092915050565b600061305582612abc565b915061306083612abc565b9250827fffffffffffffffffffffffffffffffffffffffffffffffffffffffffffffffff0382111561309557613094612fe7565b5b828201905092915050565b60006060820190506130b56000830186612c39565b6130c26020830185612c39565b6130cf6040830184612c39565b949350505050565b7f5265656e7472616e637947756172643a207265656e7472616e742063616c6c00600082015250565b600061310d601f83612de4565b9150613118826130d7565b602082019050919050565b6000602082019050818103600083015261313c81613100565b9050919050565b7f6e6f74206c6973746564206974656d0000000000000000000000000000000000600082015250565b6000613179600f83612de4565b915061318482613143565b602082019050919050565b600060208201905081810360008301526131a88161316c565b9050919050565b7f6f66666572206e6f7420657869737473206f7220657870697265640000000000600082015250565b60006131e5601b83612de4565b91506131f0826131af565b602082019050919050565b60006020820190508181036000830152613214816131d8565b9050919050565b7f62616c616e6365206e6f7420656e6f75676820746f20627579206974656d0000600082015250565b6000613251601e83612de4565b915061325c8261321b565b602082019050919050565b6000602082019050818103600083015261328081613244565b9050919050565b7f6e6f7468696e6720746f20776974686472617700000000000000000000000000600082015250565b60006132bd601383612de4565b91506132c882613287565b602082019050919050565b600060208201905081810360008301526132ec816132b0565b9050919050565b7f62616c616e6365206e6f7420656e6f75676820746f2077697468647261770000600082015250565b6000613329601e83612de4565b9150613334826132f3565b602082019050919050565b600060208201905081810360008301526133588161331c565b9050919050565b7f616c7265616479206c6973746564000000000000000000000000000000000000600082015250565b6000613395600e83612de4565b91506133a08261335f565b602082019050919050565b600060208201905081810360008301526133c481613388565b9050919050565b7f6e6f74206f776e696e67206974656d0000000000000000000000000000000000600082015250565b6000613401600f83612de4565b915061340c826133cb565b602082019050919050565b60006020820190508181036000830152613430816133f4565b9050919050565b600060408201905061344c6000830185612cb1565b6134596020830184612cb1565b9392505050565b60008115159050919050565b61347581613460565b811461348057600080fd5b50565b6000815190506134928161346c565b92915050565b6000602082840312156134ae576134ad612a59565b5b60006134bc84828501613483565b91505092915050565b7f6172746f6e67206e6f7420617070726f76656420666f7220746869732069746560008201527f6d00000000000000000000000000000000000000000000000000000000000000602082015250565b6000613521602183612de4565b915061352c826134c5565b604082019050919050565b6000602082019050818103600083015261355081613514565b9050919050565b7f496e697469616c697a61626c653a20636f6e747261637420697320616c72656160008201527f647920696e697469616c697a6564000000000000000000000000000000000000602082015250565b60006135b3602e83612de4565b91506135be82613557565b604082019050919050565b600060208201905081810360008301526135e2816135a6565b9050919050565b6000819050919050565b600060ff82169050919050565b6000819050919050565b600061362561362061361b846135e9565b613600565b6135f3565b9050919050565b6136358161360a565b82525050565b6000602082019050613650600083018461362c565b92915050565b7f4f776e61626c653a206e6577206f776e657220697320746865207a65726f206160008201527f6464726573730000000000000000000000000000000000000000000000000000602082015250565b60006136b2602683612de4565b91506136bd82613656565b604082019050919050565b600060208201905081810360008301526136e1816136a5565b9050919050565b60007fffffffff0000000000000000000000000000000000000000000000000000000082169050919050565b61371d816136e8565b82525050565b60006020820190506137386000830184613714565b92915050565b7f7061796d656e7420616d6f756e74206e6f7420656e6f75676800000000000000600082015250565b6000613774601983612de4565b915061377f8261373e565b602082019050919050565b600060208201905081810360008301526137a381613767565b9050919050565b600081905092915050565b50565b60006137c56000836137aa565b91506137d0826137b5565b600082019050919050565b60006137e6826137b8565b9150819050919050565b7f466565207472616e73666572206661696c656400000000000000000000000000600082015250565b6000613826601383612de4565b9150613831826137f0565b602082019050919050565b6000602082019050818103600083015261385581613819565b9050919050565b60006060820190506138716000830186612cb1565b61387e6020830185612cb1565b61388b6040830184612c39565b949350505050565b7f4e487b7100000000000000000000000000000000000000000000000000000000600052603260045260246000fd5b60006138cd82612abc565b91507fffffffffffffffffffffffffffffffffffffffffffffffffffffffffffffffff821415613900576138ff612fe7565b5b600182019050919050565b7f4e487b7100000000000000000000000000000000000000000000000000000000600052603160045260246000fd5b7f4f776e61626c653a2063616c6c6572206973206e6f7420746865206f776e6572600082015250565b6000613970602083612de4565b915061397b8261393a565b602082019050919050565b6000602082019050818103600083015261399f81613963565b9050919050565b7f496e697469616c697a61626c653a20636f6e7472616374206973206e6f74206960008201527f6e697469616c697a696e67000000000000000000000000000000000000000000602082015250565b6000613a02602b83612de4565b9150613a0d826139a6565b604082019050919050565b60006020820190508181036000830152613a31816139f5565b9050919050565b6000613a4382612abc565b9150613a4e83612abc565b9250817fffffffffffffffffffffffffffffffffffffffffffffffffffffffffffffffff0483118215151615613a8757613a86612fe7565b5b828202905092915050565b7f4e487b7100000000000000000000000000000000000000000000000000000000600052601260045260246000fd5b6000613acc82612abc565b9150613ad783612abc565b925082613ae757613ae6613a92565b5b82820490509291505056fea2646970667358221220a8f5d16b98aa5773be304d3a1762fe6d32f5b9f1e78189255c0bbc48c137486364736f6c63430008090033",
  "linkReferences": {},
  "deployedLinkReferences": {}
}