{
  "_format": "hh-sol-artifact-1",
  "contractName": "ArtongMarketplace",
  "sourceName": "contracts/ArtongMarketplace.sol",
  "abi": [
    {
      "anonymous": false,
      "inputs": [
        {
          "indexed": false,
          "internalType": "uint8",
          "name": "version",
          "type": "uint8"
        }
      ],
      "name": "Initialized",
      "type": "event"
    },
    {
      "anonymous": false,
      "inputs": [
        {
          "indexed": true,
          "internalType": "address",
          "name": "owner",
          "type": "address"
        },
        {
          "indexed": true,
          "internalType": "address",
          "name": "nft",
          "type": "address"
        },
        {
          "indexed": false,
          "internalType": "uint256",
          "name": "tokenId",
          "type": "uint256"
        }
      ],
      "name": "ItemCanceled",
      "type": "event"
    },
    {
      "anonymous": false,
      "inputs": [
        {
          "indexed": true,
          "internalType": "address",
          "name": "owner",
          "type": "address"
        },
        {
          "indexed": true,
          "internalType": "address",
          "name": "nft",
          "type": "address"
        },
        {
          "indexed": false,
          "internalType": "uint256",
          "name": "tokenId",
          "type": "uint256"
        },
        {
          "indexed": false,
          "internalType": "uint256",
          "name": "price",
          "type": "uint256"
        }
      ],
      "name": "ItemListed",
      "type": "event"
    },
    {
      "anonymous": false,
      "inputs": [
        {
          "indexed": true,
          "internalType": "address",
          "name": "seller",
          "type": "address"
        },
        {
          "indexed": true,
          "internalType": "address",
          "name": "buyer",
          "type": "address"
        },
        {
          "indexed": true,
          "internalType": "address",
          "name": "nft",
          "type": "address"
        },
        {
          "indexed": false,
          "internalType": "uint256",
          "name": "tokenId",
          "type": "uint256"
        },
        {
          "indexed": false,
          "internalType": "uint256",
          "name": "price",
          "type": "uint256"
        }
      ],
      "name": "ItemSold",
      "type": "event"
    },
    {
      "anonymous": false,
      "inputs": [
        {
          "indexed": true,
          "internalType": "address",
          "name": "owner",
          "type": "address"
        },
        {
          "indexed": true,
          "internalType": "address",
          "name": "nft",
          "type": "address"
        },
        {
          "indexed": false,
          "internalType": "uint256",
          "name": "tokenId",
          "type": "uint256"
        },
        {
          "indexed": false,
          "internalType": "uint256",
          "name": "newPrice",
          "type": "uint256"
        }
      ],
      "name": "ItemUpdated",
      "type": "event"
    },
    {
      "anonymous": false,
      "inputs": [
        {
          "indexed": true,
          "internalType": "address",
          "name": "creator",
          "type": "address"
        },
        {
          "indexed": true,
          "internalType": "address",
          "name": "nft",
          "type": "address"
        },
        {
          "indexed": false,
          "internalType": "uint256",
          "name": "tokenId",
          "type": "uint256"
        }
      ],
      "name": "OfferCanceled",
      "type": "event"
    },
    {
      "anonymous": false,
      "inputs": [
        {
          "indexed": true,
          "internalType": "address",
          "name": "creator",
          "type": "address"
        },
        {
          "indexed": true,
          "internalType": "address",
          "name": "nft",
          "type": "address"
        },
        {
          "indexed": false,
          "internalType": "uint256",
          "name": "tokenId",
          "type": "uint256"
        },
        {
          "indexed": false,
          "internalType": "uint256",
          "name": "price",
          "type": "uint256"
        },
        {
          "indexed": false,
          "internalType": "uint256",
          "name": "deadline",
          "type": "uint256"
        }
      ],
      "name": "OfferCreated",
      "type": "event"
    },
    {
      "anonymous": false,
      "inputs": [
        {
          "indexed": true,
          "internalType": "address",
          "name": "previousOwner",
          "type": "address"
        },
        {
          "indexed": true,
          "internalType": "address",
          "name": "newOwner",
          "type": "address"
        }
      ],
      "name": "OwnershipTransferred",
      "type": "event"
    },
    {
      "anonymous": false,
      "inputs": [
        {
          "indexed": false,
          "internalType": "uint16",
          "name": "platformFee",
          "type": "uint16"
        }
      ],
      "name": "UpdatePlatformFee",
      "type": "event"
    },
    {
      "anonymous": false,
      "inputs": [
        {
          "indexed": false,
          "internalType": "address payable",
          "name": "platformFeeRecipient",
          "type": "address"
        }
      ],
      "name": "UpdatePlatformFeeRecipient",
      "type": "event"
    },
    {
      "inputs": [
        {
          "internalType": "address",
          "name": "_nftAddress",
          "type": "address"
        },
        {
          "internalType": "uint256",
          "name": "_tokenId",
          "type": "uint256"
        },
        {
          "internalType": "address",
          "name": "_owner",
          "type": "address"
        }
      ],
      "name": "buyItem",
      "outputs": [],
      "stateMutability": "payable",
      "type": "function"
    },
    {
      "inputs": [
        {
          "internalType": "address",
          "name": "_nftAddress",
          "type": "address"
        },
        {
          "internalType": "uint256",
          "name": "_tokenId",
          "type": "uint256"
        }
      ],
      "name": "cancelListing",
      "outputs": [],
      "stateMutability": "nonpayable",
      "type": "function"
    },
    {
      "inputs": [
        {
          "internalType": "address",
          "name": "",
          "type": "address"
        }
      ],
      "name": "collectionRoyalties",
      "outputs": [
        {
          "internalType": "uint16",
          "name": "royalty",
          "type": "uint16"
        },
        {
          "internalType": "uint256",
          "name": "royaltyBalance",
          "type": "uint256"
        }
      ],
      "stateMutability": "view",
      "type": "function"
    },
    {
      "inputs": [],
      "name": "feeReceipient",
      "outputs": [
        {
          "internalType": "address payable",
          "name": "",
          "type": "address"
        }
      ],
      "stateMutability": "view",
      "type": "function"
    },
    {
      "inputs": [
        {
          "internalType": "uint16",
          "name": "_platformFee",
          "type": "uint16"
        },
        {
          "internalType": "address payable",
          "name": "_feeRecipient",
          "type": "address"
        }
      ],
      "name": "initialize",
      "outputs": [],
      "stateMutability": "nonpayable",
      "type": "function"
    },
    {
      "inputs": [
        {
          "internalType": "address",
          "name": "_nftAddress",
          "type": "address"
        },
        {
          "internalType": "uint256",
          "name": "_tokenId",
          "type": "uint256"
        },
        {
          "internalType": "uint256",
          "name": "_price",
          "type": "uint256"
        }
      ],
      "name": "listItem",
      "outputs": [],
      "stateMutability": "nonpayable",
      "type": "function"
    },
    {
      "inputs": [
        {
          "internalType": "address",
          "name": "",
          "type": "address"
        },
        {
          "internalType": "uint256",
          "name": "",
          "type": "uint256"
        },
        {
          "internalType": "address",
          "name": "",
          "type": "address"
        }
      ],
      "name": "listingPrices",
      "outputs": [
        {
          "internalType": "uint256",
          "name": "",
          "type": "uint256"
        }
      ],
      "stateMutability": "view",
      "type": "function"
    },
    {
      "inputs": [
        {
          "internalType": "address",
          "name": "",
          "type": "address"
        },
        {
          "internalType": "uint256",
          "name": "",
          "type": "uint256"
        }
      ],
      "name": "minters",
      "outputs": [
        {
          "internalType": "address",
          "name": "",
          "type": "address"
        }
      ],
      "stateMutability": "view",
      "type": "function"
    },
    {
      "inputs": [
        {
          "internalType": "address",
          "name": "",
          "type": "address"
        },
        {
          "internalType": "uint256",
          "name": "",
          "type": "uint256"
        },
        {
          "internalType": "address",
          "name": "",
          "type": "address"
        }
      ],
      "name": "offers",
      "outputs": [
        {
          "internalType": "uint256",
          "name": "price",
          "type": "uint256"
        },
        {
          "internalType": "uint256",
          "name": "deadline",
          "type": "uint256"
        }
      ],
      "stateMutability": "view",
      "type": "function"
    },
    {
      "inputs": [],
      "name": "owner",
      "outputs": [
        {
          "internalType": "address",
          "name": "",
          "type": "address"
        }
      ],
      "stateMutability": "view",
      "type": "function"
    },
    {
      "inputs": [],
      "name": "platformFee",
      "outputs": [
        {
          "internalType": "uint16",
          "name": "",
          "type": "uint16"
        }
      ],
      "stateMutability": "view",
      "type": "function"
    },
    {
      "inputs": [],
      "name": "renounceOwnership",
      "outputs": [],
      "stateMutability": "nonpayable",
      "type": "function"
    },
    {
      "inputs": [
        {
          "internalType": "address",
          "name": "",
          "type": "address"
        }
      ],
      "name": "tokenRoyalties",
      "outputs": [
        {
          "internalType": "uint16",
          "name": "royalty",
          "type": "uint16"
        },
        {
          "internalType": "uint256",
          "name": "royaltyBalance",
          "type": "uint256"
        }
      ],
      "stateMutability": "view",
      "type": "function"
    },
    {
      "inputs": [
        {
          "internalType": "address",
          "name": "newOwner",
          "type": "address"
        }
      ],
      "name": "transferOwnership",
      "outputs": [],
      "stateMutability": "nonpayable",
      "type": "function"
    },
    {
      "inputs": [
        {
          "internalType": "address",
          "name": "_nftAddress",
          "type": "address"
        },
        {
          "internalType": "uint256",
          "name": "_tokenId",
          "type": "uint256"
        },
        {
          "internalType": "uint256",
          "name": "_newPrice",
          "type": "uint256"
        }
      ],
      "name": "updateListing",
      "outputs": [],
      "stateMutability": "nonpayable",
      "type": "function"
    },
    {
      "inputs": [],
      "name": "withdraw",
      "outputs": [],
      "stateMutability": "nonpayable",
      "type": "function"
    }
  ],
  "bytecode": "0x608060405234801561001057600080fd5b50612d8b806100206000396000f3fe6080604052600436106100f35760003560e01c806389bfd38f1161008a578063d3f494cc11610059578063d3f494cc1461030b578063e0dbcde514610349578063f2fde38b14610372578063f772adf11461039b576100f3565b806389bfd38f146102505780638da5cb5b14610279578063b2ddee06146102a4578063c3c3b2a4146102cd576100f3565b80633ccfd60b116100c65780633ccfd60b146101a757806357b275b4146101be578063715018a6146101fc57806378746d0d14610213576100f3565b806309736b8a146100f8578063259ca3651461013557806326232a2e146101515780633740ebb31461017c575b600080fd5b34801561010457600080fd5b5061011f600480360381019061011a919061207c565b6103c4565b60405161012c91906120de565b60405180910390f35b61014f600480360381019061014a919061207c565b6103f6565b005b34801561015d57600080fd5b50610166610cfc565b6040516101739190612116565b60405180910390f35b34801561018857600080fd5b50610191610d10565b60405161019e9190612152565b60405180910390f35b3480156101b357600080fd5b506101bc610d36565b005b3480156101ca57600080fd5b506101e560048036038101906101e0919061216d565b610e96565b6040516101f392919061219a565b60405180910390f35b34801561020857600080fd5b50610211610ec8565b005b34801561021f57600080fd5b5061023a600480360381019061023591906121c3565b610edc565b6040516102479190612212565b60405180910390f35b34801561025c57600080fd5b506102776004803603810190610272919061222d565b610f1e565b005b34801561028557600080fd5b5061028e6113ac565b60405161029b9190612212565b60405180910390f35b3480156102b057600080fd5b506102cb60048036038101906102c691906121c3565b6113d6565b005b3480156102d957600080fd5b506102f460048036038101906102ef919061216d565b611522565b60405161030292919061219a565b60405180910390f35b34801561031757600080fd5b50610332600480360381019061032d919061207c565b611554565b604051610340929190612280565b60405180910390f35b34801561035557600080fd5b50610370600480360381019061036b9190612301565b611592565b005b34801561037e57600080fd5b506103996004803603810190610394919061216d565b611738565b005b3480156103a757600080fd5b506103c260048036038101906103bd919061222d565b6117bc565b005b609960205282600052604060002060205281600052604060002060205280600052604060002060009250925050505481565b6002606554141561043c576040517f08c379a00000000000000000000000000000000000000000000000000000000081526004016104339061239e565b60405180910390fd5b60026065819055508282826000609960008573ffffffffffffffffffffffffffffffffffffffff1673ffffffffffffffffffffffffffffffffffffffff168152602001908152602001600020600084815260200190815260200160002060008373ffffffffffffffffffffffffffffffffffffffff1673ffffffffffffffffffffffffffffffffffffffff1681526020019081526020016000205490506000811161051c576040517f08c379a00000000000000000000000000000000000000000000000000000000081526004016105139061240a565b60405180910390fd5b6105278787876119f7565b6000609960008973ffffffffffffffffffffffffffffffffffffffff1673ffffffffffffffffffffffffffffffffffffffff168152602001908152602001600020600088815260200190815260200160002060008773ffffffffffffffffffffffffffffffffffffffff1673ffffffffffffffffffffffffffffffffffffffff168152602001908152602001600020549050803410156105fc576040517f08c379a00000000000000000000000000000000000000000000000000000000081526004016105f390612476565b60405180910390fd5b600061061882609760009054906101000a900461ffff16611be6565b90506000609760029054906101000a900473ffffffffffffffffffffffffffffffffffffffff1673ffffffffffffffffffffffffffffffffffffffff1682604051610662906124c7565b60006040518083038185875af1925050503d806000811461069f576040519150601f19603f3d011682016040523d82523d6000602084013e6106a4565b606091505b50509050806106e8576040517f08c379a00000000000000000000000000000000000000000000000000000000081526004016106df90612528565b60405180910390fd5b6000609860008c73ffffffffffffffffffffffffffffffffffffffff1673ffffffffffffffffffffffffffffffffffffffff16815260200190815260200160002060008b815260200190815260200160002060009054906101000a900473ffffffffffffffffffffffffffffffffffffffff1690506000609c60008b73ffffffffffffffffffffffffffffffffffffffff1673ffffffffffffffffffffffffffffffffffffffff1681526020019081526020016000206040518060400160405290816000820160009054906101000a900461ffff1661ffff1661ffff1681526020016001820154815250509050600073ffffffffffffffffffffffffffffffffffffffff168273ffffffffffffffffffffffffffffffffffffffff161415801561081b57506000816000015161ffff1614155b1561085b576000610830868360000151611be6565b905080826020018181516108449190612577565b9150818152505080856108579190612577565b9450505b6000609b60008e73ffffffffffffffffffffffffffffffffffffffff1673ffffffffffffffffffffffffffffffffffffffff1681526020019081526020016000206040518060400160405290816000820160009054906101000a900461ffff1661ffff1661ffff1681526020016001820154815250509050600073ffffffffffffffffffffffffffffffffffffffff168373ffffffffffffffffffffffffffffffffffffffff161415801561091957506000816000015161ffff1614155b1561095957600061092e878360000151611be6565b905080826020018181516109429190612577565b9150818152505080866109559190612577565b9550505b8c73ffffffffffffffffffffffffffffffffffffffff1663da965778868861098191906125cd565b8d6040518363ffffffff1660e01b815260040161099e9190612212565b6000604051808303818588803b1580156109b757600080fd5b505af11580156109cb573d6000803e3d6000fd5b50505050508c73ffffffffffffffffffffffffffffffffffffffff166301ffc9a77f80ac58cd000000000000000000000000000000000000000000000000000000006040518263ffffffff1660e01b8152600401610a29919061263c565b60206040518083038186803b158015610a4157600080fd5b505afa158015610a55573d6000803e3d6000fd5b505050506040513d601f19601f82011682018060405250810190610a79919061268f565b15610aee578c73ffffffffffffffffffffffffffffffffffffffff166342842e0e8c338f6040518463ffffffff1660e01b8152600401610abb939291906126bc565b600060405180830381600087803b158015610ad557600080fd5b505af1158015610ae9573d6000803e3d6000fd5b505050505b85341115610bd65760003373ffffffffffffffffffffffffffffffffffffffff168734610b1b91906125cd565b604051610b27906124c7565b60006040518083038185875af1925050503d8060008114610b64576040519150601f19603f3d011682016040523d82523d6000602084013e610b69565b606091505b5050905080610bd4578634610b7e91906125cd565b609d60003373ffffffffffffffffffffffffffffffffffffffff1673ffffffffffffffffffffffffffffffffffffffff1681526020019081526020016000206000828254610bcc9190612577565b925050819055505b505b8c73ffffffffffffffffffffffffffffffffffffffff163373ffffffffffffffffffffffffffffffffffffffff168c73ffffffffffffffffffffffffffffffffffffffff167fee0ddd6454e05c1b33a8dfcb6cc52418d28020e96e21228bb601f5dbb6790cd08f8a604051610c4c929190612280565b60405180910390a4609960008e73ffffffffffffffffffffffffffffffffffffffff1673ffffffffffffffffffffffffffffffffffffffff16815260200190815260200160002060008d815260200190815260200160002060008c73ffffffffffffffffffffffffffffffffffffffff1673ffffffffffffffffffffffffffffffffffffffff16815260200190815260200160002060009055505050505050505050506001606581905550505050565b609760009054906101000a900461ffff1681565b609760029054906101000a900473ffffffffffffffffffffffffffffffffffffffff1681565b6000609d60003373ffffffffffffffffffffffffffffffffffffffff1673ffffffffffffffffffffffffffffffffffffffff1681526020019081526020016000205490506000811415610dbe576040517f08c379a0000000000000000000000000000000000000000000000000000000008152600401610db59061273f565b60405180910390fd5b80471015610e01576040517f08c379a0000000000000000000000000000000000000000000000000000000008152600401610df8906127ab565b60405180910390fd5b60003390506000609d60003373ffffffffffffffffffffffffffffffffffffffff1673ffffffffffffffffffffffffffffffffffffffff168152602001908152602001600020819055508073ffffffffffffffffffffffffffffffffffffffff166108fc839081150290604051600060405180830381858888f19350505050158015610e91573d6000803e3d6000fd5b505050565b609b6020528060005260406000206000915090508060000160009054906101000a900461ffff16908060010154905082565b610ed0611c0d565b610eda6000611c8b565b565b60986020528160005260406000206020528060005260406000206000915091509054906101000a900473ffffffffffffffffffffffffffffffffffffffff1681565b8282336000609960008573ffffffffffffffffffffffffffffffffffffffff1673ffffffffffffffffffffffffffffffffffffffff168152602001908152602001600020600084815260200190815260200160002060008373ffffffffffffffffffffffffffffffffffffffff1673ffffffffffffffffffffffffffffffffffffffff16815260200190815260200160002054905060008114610ff6576040517f08c379a0000000000000000000000000000000000000000000000000000000008152600401610fed90612817565b60405180910390fd5b8673ffffffffffffffffffffffffffffffffffffffff166301ffc9a77f80ac58cd000000000000000000000000000000000000000000000000000000006040518263ffffffff1660e01b815260040161104f919061263c565b60206040518083038186803b15801561106757600080fd5b505afa15801561107b573d6000803e3d6000fd5b505050506040513d601f19601f8201168201806040525081019061109f919061268f565b1561126f5760008790503373ffffffffffffffffffffffffffffffffffffffff168173ffffffffffffffffffffffffffffffffffffffff16636352211e896040518263ffffffff1660e01b81526004016110f991906120de565b60206040518083038186803b15801561111157600080fd5b505afa158015611125573d6000803e3d6000fd5b505050506040513d601f19601f82011682018060405250810190611149919061284c565b73ffffffffffffffffffffffffffffffffffffffff161461119f576040517f08c379a0000000000000000000000000000000000000000000000000000000008152600401611196906128c5565b60405180910390fd5b8073ffffffffffffffffffffffffffffffffffffffff1663e985e9c533306040518363ffffffff1660e01b81526004016111da9291906128e5565b60206040518083038186803b1580156111f257600080fd5b505afa158015611206573d6000803e3d6000fd5b505050506040513d601f19601f8201168201806040525081019061122a919061268f565b611269576040517f08c379a000000000000000000000000000000000000000000000000000000000815260040161126090612980565b60405180910390fd5b506112aa565b6040517f08c379a00000000000000000000000000000000000000000000000000000000081526004016112a1906129ec565b60405180910390fd5b84609960008973ffffffffffffffffffffffffffffffffffffffff1673ffffffffffffffffffffffffffffffffffffffff168152602001908152602001600020600088815260200190815260200160002060003373ffffffffffffffffffffffffffffffffffffffff1673ffffffffffffffffffffffffffffffffffffffff168152602001908152602001600020819055508673ffffffffffffffffffffffffffffffffffffffff163373ffffffffffffffffffffffffffffffffffffffff167fd547e933094f12a9159076970143ebe73234e64480317844b0dcb36117116de4888860405161139b929190612280565b60405180910390a350505050505050565b6000603360009054906101000a900473ffffffffffffffffffffffffffffffffffffffff16905090565b6002606554141561141c576040517f08c379a00000000000000000000000000000000000000000000000000000000081526004016114139061239e565b60405180910390fd5b60026065819055508181336000609960008573ffffffffffffffffffffffffffffffffffffffff1673ffffffffffffffffffffffffffffffffffffffff168152602001908152602001600020600084815260200190815260200160002060008373ffffffffffffffffffffffffffffffffffffffff1673ffffffffffffffffffffffffffffffffffffffff168152602001908152602001600020549050600081116114fc576040517f08c379a00000000000000000000000000000000000000000000000000000000081526004016114f39061240a565b60405180910390fd5b6115078686336119f7565b611512868633611d51565b5050505060016065819055505050565b609c6020528060005260406000206000915090508060000160009054906101000a900461ffff16908060010154905082565b609a60205282600052604060002060205281600052604060002060205280600052604060002060009250925050508060000154908060010154905082565b60008060019054906101000a900460ff161590508080156115c35750600160008054906101000a900460ff1660ff16105b806115f057506115d230611e4c565b1580156115ef5750600160008054906101000a900460ff1660ff16145b5b61162f576040517f08c379a000000000000000000000000000000000000000000000000000000000815260040161162690612a7e565b60405180910390fd5b60016000806101000a81548160ff021916908360ff160217905550801561166c576001600060016101000a81548160ff0219169083151502179055505b82609760006101000a81548161ffff021916908361ffff16021790555081609760026101000a81548173ffffffffffffffffffffffffffffffffffffffff021916908373ffffffffffffffffffffffffffffffffffffffff1602179055506116d2611e6f565b6116da611ec8565b80156117335760008060016101000a81548160ff0219169083151502179055507f7f26b83ff96e1f2b6a682f133852f6798a09c465da95921460cefb3847402498600160405161172a9190612af0565b60405180910390a15b505050565b611740611c0d565b600073ffffffffffffffffffffffffffffffffffffffff168173ffffffffffffffffffffffffffffffffffffffff1614156117b0576040517f08c379a00000000000000000000000000000000000000000000000000000000081526004016117a790612b7d565b60405180910390fd5b6117b981611c8b565b50565b60026065541415611802576040517f08c379a00000000000000000000000000000000000000000000000000000000081526004016117f99061239e565b60405180910390fd5b60026065819055508282336000609960008573ffffffffffffffffffffffffffffffffffffffff1673ffffffffffffffffffffffffffffffffffffffff168152602001908152602001600020600084815260200190815260200160002060008373ffffffffffffffffffffffffffffffffffffffff1673ffffffffffffffffffffffffffffffffffffffff168152602001908152602001600020549050600081116118e2576040517f08c379a00000000000000000000000000000000000000000000000000000000081526004016118d99061240a565b60405180910390fd5b6118ed8787336119f7565b84609960008973ffffffffffffffffffffffffffffffffffffffff1673ffffffffffffffffffffffffffffffffffffffff168152602001908152602001600020600088815260200190815260200160002060003373ffffffffffffffffffffffffffffffffffffffff1673ffffffffffffffffffffffffffffffffffffffff168152602001908152602001600020819055508673ffffffffffffffffffffffffffffffffffffffff163373ffffffffffffffffffffffffffffffffffffffff167f3c33e65e8698294810b631d476d60b44425303828da0b1f8b635231bfda12be288886040516119de929190612280565b60405180910390a3505050506001606581905550505050565b8273ffffffffffffffffffffffffffffffffffffffff166301ffc9a77f80ac58cd000000000000000000000000000000000000000000000000000000006040518263ffffffff1660e01b8152600401611a50919061263c565b60206040518083038186803b158015611a6857600080fd5b505afa158015611a7c573d6000803e3d6000fd5b505050506040513d601f19601f82011682018060405250810190611aa0919061268f565b15611ba65760008390508173ffffffffffffffffffffffffffffffffffffffff168173ffffffffffffffffffffffffffffffffffffffff16636352211e856040518263ffffffff1660e01b8152600401611afa91906120de565b60206040518083038186803b158015611b1257600080fd5b505afa158015611b26573d6000803e3d6000fd5b505050506040513d601f19601f82011682018060405250810190611b4a919061284c565b73ffffffffffffffffffffffffffffffffffffffff1614611ba0576040517f08c379a0000000000000000000000000000000000000000000000000000000008152600401611b97906128c5565b60405180910390fd5b50611be1565b6040517f08c379a0000000000000000000000000000000000000000000000000000000008152600401611bd8906129ec565b60405180910390fd5b505050565b60006127108261ffff1684611bfb9190612b9d565b611c059190612c26565b905092915050565b611c15611f21565b73ffffffffffffffffffffffffffffffffffffffff16611c336113ac565b73ffffffffffffffffffffffffffffffffffffffff1614611c89576040517f08c379a0000000000000000000000000000000000000000000000000000000008152600401611c8090612ca3565b60405180910390fd5b565b6000603360009054906101000a900473ffffffffffffffffffffffffffffffffffffffff16905081603360006101000a81548173ffffffffffffffffffffffffffffffffffffffff021916908373ffffffffffffffffffffffffffffffffffffffff1602179055508173ffffffffffffffffffffffffffffffffffffffff168173ffffffffffffffffffffffffffffffffffffffff167f8be0079c531659141344cd1fd0a4f28419497f9722a3daafe3b4186f6b6457e060405160405180910390a35050565b609960008473ffffffffffffffffffffffffffffffffffffffff1673ffffffffffffffffffffffffffffffffffffffff168152602001908152602001600020600083815260200190815260200160002060008273ffffffffffffffffffffffffffffffffffffffff1673ffffffffffffffffffffffffffffffffffffffff168152602001908152602001600020600090558273ffffffffffffffffffffffffffffffffffffffff168173ffffffffffffffffffffffffffffffffffffffff167f9ba1a3cb55ce8d63d072a886f94d2a744f50cddf82128e897d0661f5ec62315884604051611e3f91906120de565b60405180910390a3505050565b6000808273ffffffffffffffffffffffffffffffffffffffff163b119050919050565b600060019054906101000a900460ff16611ebe576040517f08c379a0000000000000000000000000000000000000000000000000000000008152600401611eb590612d35565b60405180910390fd5b611ec6611f29565b565b600060019054906101000a900460ff16611f17576040517f08c379a0000000000000000000000000000000000000000000000000000000008152600401611f0e90612d35565b60405180910390fd5b611f1f611f8a565b565b600033905090565b600060019054906101000a900460ff16611f78576040517f08c379a0000000000000000000000000000000000000000000000000000000008152600401611f6f90612d35565b60405180910390fd5b611f88611f83611f21565b611c8b565b565b600060019054906101000a900460ff16611fd9576040517f08c379a0000000000000000000000000000000000000000000000000000000008152600401611fd090612d35565b60405180910390fd5b6001606581905550565b600080fd5b600073ffffffffffffffffffffffffffffffffffffffff82169050919050565b600061201382611fe8565b9050919050565b61202381612008565b811461202e57600080fd5b50565b6000813590506120408161201a565b92915050565b6000819050919050565b61205981612046565b811461206457600080fd5b50565b60008135905061207681612050565b92915050565b60008060006060848603121561209557612094611fe3565b5b60006120a386828701612031565b93505060206120b486828701612067565b92505060406120c586828701612031565b9150509250925092565b6120d881612046565b82525050565b60006020820190506120f360008301846120cf565b92915050565b600061ffff82169050919050565b612110816120f9565b82525050565b600060208201905061212b6000830184612107565b92915050565b600061213c82611fe8565b9050919050565b61214c81612131565b82525050565b60006020820190506121676000830184612143565b92915050565b60006020828403121561218357612182611fe3565b5b600061219184828501612031565b91505092915050565b60006040820190506121af6000830185612107565b6121bc60208301846120cf565b9392505050565b600080604083850312156121da576121d9611fe3565b5b60006121e885828601612031565b92505060206121f985828601612067565b9150509250929050565b61220c81612008565b82525050565b60006020820190506122276000830184612203565b92915050565b60008060006060848603121561224657612245611fe3565b5b600061225486828701612031565b935050602061226586828701612067565b925050604061227686828701612067565b9150509250925092565b600060408201905061229560008301856120cf565b6122a260208301846120cf565b9392505050565b6122b2816120f9565b81146122bd57600080fd5b50565b6000813590506122cf816122a9565b92915050565b6122de81612131565b81146122e957600080fd5b50565b6000813590506122fb816122d5565b92915050565b6000806040838503121561231857612317611fe3565b5b6000612326858286016122c0565b9250506020612337858286016122ec565b9150509250929050565b600082825260208201905092915050565b7f5265656e7472616e637947756172643a207265656e7472616e742063616c6c00600082015250565b6000612388601f83612341565b915061239382612352565b602082019050919050565b600060208201905081810360008301526123b78161237b565b9050919050565b7f6e6f74206c6973746564206974656d0000000000000000000000000000000000600082015250565b60006123f4600f83612341565b91506123ff826123be565b602082019050919050565b60006020820190508181036000830152612423816123e7565b9050919050565b7f7061796d656e7420616d6f756e74206e6f7420656e6f75676800000000000000600082015250565b6000612460601983612341565b915061246b8261242a565b602082019050919050565b6000602082019050818103600083015261248f81612453565b9050919050565b600081905092915050565b50565b60006124b1600083612496565b91506124bc826124a1565b600082019050919050565b60006124d2826124a4565b9150819050919050565b7f466565207472616e73666572206661696c656400000000000000000000000000600082015250565b6000612512601383612341565b915061251d826124dc565b602082019050919050565b6000602082019050818103600083015261254181612505565b9050919050565b7f4e487b7100000000000000000000000000000000000000000000000000000000600052601160045260246000fd5b600061258282612046565b915061258d83612046565b9250827fffffffffffffffffffffffffffffffffffffffffffffffffffffffffffffffff038211156125c2576125c1612548565b5b828201905092915050565b60006125d882612046565b91506125e383612046565b9250828210156125f6576125f5612548565b5b828203905092915050565b60007fffffffff0000000000000000000000000000000000000000000000000000000082169050919050565b61263681612601565b82525050565b6000602082019050612651600083018461262d565b92915050565b60008115159050919050565b61266c81612657565b811461267757600080fd5b50565b60008151905061268981612663565b92915050565b6000602082840312156126a5576126a4611fe3565b5b60006126b38482850161267a565b91505092915050565b60006060820190506126d16000830186612203565b6126de6020830185612203565b6126eb60408301846120cf565b949350505050565b7f6e6f7468696e6720746f20776974686472617700000000000000000000000000600082015250565b6000612729601383612341565b9150612734826126f3565b602082019050919050565b600060208201905081810360008301526127588161271c565b9050919050565b7f62616c616e6365206e6f7420656e6f75676820746f2077697468647261770000600082015250565b6000612795601e83612341565b91506127a08261275f565b602082019050919050565b600060208201905081810360008301526127c481612788565b9050919050565b7f616c7265616479206c6973746564000000000000000000000000000000000000600082015250565b6000612801600e83612341565b915061280c826127cb565b602082019050919050565b60006020820190508181036000830152612830816127f4565b9050919050565b6000815190506128468161201a565b92915050565b60006020828403121561286257612861611fe3565b5b600061287084828501612837565b91505092915050565b7f6e6f74206f776e696e67206974656d0000000000000000000000000000000000600082015250565b60006128af600f83612341565b91506128ba82612879565b602082019050919050565b600060208201905081810360008301526128de816128a2565b9050919050565b60006040820190506128fa6000830185612203565b6129076020830184612203565b9392505050565b7f6172746f6e67206e6f7420617070726f76656420666f7220746869732069746560008201527f6d00000000000000000000000000000000000000000000000000000000000000602082015250565b600061296a602183612341565b91506129758261290e565b604082019050919050565b600060208201905081810360008301526129998161295d565b9050919050565b7f696e76616c6964206e6674206164647265737300000000000000000000000000600082015250565b60006129d6601383612341565b91506129e1826129a0565b602082019050919050565b60006020820190508181036000830152612a05816129c9565b9050919050565b7f496e697469616c697a61626c653a20636f6e747261637420697320616c72656160008201527f647920696e697469616c697a6564000000000000000000000000000000000000602082015250565b6000612a68602e83612341565b9150612a7382612a0c565b604082019050919050565b60006020820190508181036000830152612a9781612a5b565b9050919050565b6000819050919050565b600060ff82169050919050565b6000819050919050565b6000612ada612ad5612ad084612a9e565b612ab5565b612aa8565b9050919050565b612aea81612abf565b82525050565b6000602082019050612b056000830184612ae1565b92915050565b7f4f776e61626c653a206e6577206f776e657220697320746865207a65726f206160008201527f6464726573730000000000000000000000000000000000000000000000000000602082015250565b6000612b67602683612341565b9150612b7282612b0b565b604082019050919050565b60006020820190508181036000830152612b9681612b5a565b9050919050565b6000612ba882612046565b9150612bb383612046565b9250817fffffffffffffffffffffffffffffffffffffffffffffffffffffffffffffffff0483118215151615612bec57612beb612548565b5b828202905092915050565b7f4e487b7100000000000000000000000000000000000000000000000000000000600052601260045260246000fd5b6000612c3182612046565b9150612c3c83612046565b925082612c4c57612c4b612bf7565b5b828204905092915050565b7f4f776e61626c653a2063616c6c6572206973206e6f7420746865206f776e6572600082015250565b6000612c8d602083612341565b9150612c9882612c57565b602082019050919050565b60006020820190508181036000830152612cbc81612c80565b9050919050565b7f496e697469616c697a61626c653a20636f6e7472616374206973206e6f74206960008201527f6e697469616c697a696e67000000000000000000000000000000000000000000602082015250565b6000612d1f602b83612341565b9150612d2a82612cc3565b604082019050919050565b60006020820190508181036000830152612d4e81612d12565b905091905056fea2646970667358221220bbc20c85c2ab5b2b33250b1dac54da7108ddb901b708d9398bdc638855f164bb64736f6c63430008090033",
  "linkReferences": {},
  "deployedLinkReferences": {}
}