{
  "_format": "hh-sol-artifact-1",
  "contractName": "ArtongMarketplace",
  "sourceName": "contracts/ArtongMarketplace.sol",
  "abi": [
    {
      "anonymous": false,
      "inputs": [
        {
          "indexed": false,
          "internalType": "uint8",
          "name": "version",
          "type": "uint8"
        }
      ],
      "name": "Initialized",
      "type": "event"
    },
    {
      "anonymous": false,
      "inputs": [
        {
          "indexed": true,
          "internalType": "address",
          "name": "owner",
          "type": "address"
        },
        {
          "indexed": true,
          "internalType": "address",
          "name": "nft",
          "type": "address"
        },
        {
          "indexed": false,
          "internalType": "uint256",
          "name": "tokenId",
          "type": "uint256"
        }
      ],
      "name": "ItemCanceled",
      "type": "event"
    },
    {
      "anonymous": false,
      "inputs": [
        {
          "indexed": true,
          "internalType": "address",
          "name": "owner",
          "type": "address"
        },
        {
          "indexed": true,
          "internalType": "address",
          "name": "nft",
          "type": "address"
        },
        {
          "indexed": false,
          "internalType": "uint256",
          "name": "tokenId",
          "type": "uint256"
        },
        {
          "indexed": false,
          "internalType": "uint256",
          "name": "price",
          "type": "uint256"
        }
      ],
      "name": "ItemListed",
      "type": "event"
    },
    {
      "anonymous": false,
      "inputs": [
        {
          "indexed": true,
          "internalType": "address",
          "name": "seller",
          "type": "address"
        },
        {
          "indexed": true,
          "internalType": "address",
          "name": "buyer",
          "type": "address"
        },
        {
          "indexed": true,
          "internalType": "address",
          "name": "nft",
          "type": "address"
        },
        {
          "indexed": false,
          "internalType": "uint256",
          "name": "tokenId",
          "type": "uint256"
        },
        {
          "indexed": false,
          "internalType": "uint256",
          "name": "price",
          "type": "uint256"
        }
      ],
      "name": "ItemSold",
      "type": "event"
    },
    {
      "anonymous": false,
      "inputs": [
        {
          "indexed": true,
          "internalType": "address",
          "name": "owner",
          "type": "address"
        },
        {
          "indexed": true,
          "internalType": "address",
          "name": "nft",
          "type": "address"
        },
        {
          "indexed": false,
          "internalType": "uint256",
          "name": "tokenId",
          "type": "uint256"
        },
        {
          "indexed": false,
          "internalType": "uint256",
          "name": "newPrice",
          "type": "uint256"
        }
      ],
      "name": "ItemUpdated",
      "type": "event"
    },
    {
      "anonymous": false,
      "inputs": [
        {
          "indexed": true,
          "internalType": "address",
          "name": "nft",
          "type": "address"
        },
        {
          "indexed": false,
          "internalType": "uint256",
          "name": "tokenId",
          "type": "uint256"
        },
        {
          "indexed": true,
          "internalType": "address",
          "name": "creator",
          "type": "address"
        }
      ],
      "name": "OfferAccepted",
      "type": "event"
    },
    {
      "anonymous": false,
      "inputs": [
        {
          "indexed": true,
          "internalType": "address",
          "name": "creator",
          "type": "address"
        },
        {
          "indexed": true,
          "internalType": "address",
          "name": "nft",
          "type": "address"
        },
        {
          "indexed": false,
          "internalType": "uint256",
          "name": "tokenId",
          "type": "uint256"
        },
        {
          "indexed": false,
          "internalType": "uint256",
          "name": "price",
          "type": "uint256"
        },
        {
          "indexed": false,
          "internalType": "uint256",
          "name": "deadline",
          "type": "uint256"
        }
      ],
      "name": "OfferCreated",
      "type": "event"
    },
    {
      "anonymous": false,
      "inputs": [
        {
          "indexed": true,
          "internalType": "address",
          "name": "previousOwner",
          "type": "address"
        },
        {
          "indexed": true,
          "internalType": "address",
          "name": "newOwner",
          "type": "address"
        }
      ],
      "name": "OwnershipTransferred",
      "type": "event"
    },
    {
      "anonymous": false,
      "inputs": [
        {
          "indexed": false,
          "internalType": "uint16",
          "name": "platformFee",
          "type": "uint16"
        }
      ],
      "name": "UpdatePlatformFee",
      "type": "event"
    },
    {
      "anonymous": false,
      "inputs": [
        {
          "indexed": false,
          "internalType": "address payable",
          "name": "platformFeeRecipient",
          "type": "address"
        }
      ],
      "name": "UpdatePlatformFeeRecipient",
      "type": "event"
    },
    {
      "inputs": [
        {
          "internalType": "address",
          "name": "_nftAddress",
          "type": "address"
        },
        {
          "internalType": "uint256",
          "name": "_tokenId",
          "type": "uint256"
        },
        {
          "internalType": "address",
          "name": "_creator",
          "type": "address"
        }
      ],
      "name": "acceptOffer",
      "outputs": [],
      "stateMutability": "nonpayable",
      "type": "function"
    },
    {
      "inputs": [
        {
          "internalType": "address",
          "name": "_nftAddress",
          "type": "address"
        },
        {
          "internalType": "uint256",
          "name": "_tokenId",
          "type": "uint256"
        },
        {
          "internalType": "address",
          "name": "_owner",
          "type": "address"
        }
      ],
      "name": "buyItem",
      "outputs": [],
      "stateMutability": "payable",
      "type": "function"
    },
    {
      "inputs": [
        {
          "internalType": "address",
          "name": "_nftAddress",
          "type": "address"
        },
        {
          "internalType": "uint256",
          "name": "_tokenId",
          "type": "uint256"
        }
      ],
      "name": "cancelListing",
      "outputs": [],
      "stateMutability": "nonpayable",
      "type": "function"
    },
    {
      "inputs": [
        {
          "internalType": "address",
          "name": "",
          "type": "address"
        }
      ],
      "name": "collectionRoyalties",
      "outputs": [
        {
          "internalType": "uint16",
          "name": "royalty",
          "type": "uint16"
        },
        {
          "internalType": "uint256",
          "name": "royaltyBalance",
          "type": "uint256"
        }
      ],
      "stateMutability": "view",
      "type": "function"
    },
    {
      "inputs": [
        {
          "internalType": "address",
          "name": "_nftAddress",
          "type": "address"
        },
        {
          "internalType": "uint256",
          "name": "_tokenId",
          "type": "uint256"
        },
        {
          "internalType": "uint256",
          "name": "_deadline",
          "type": "uint256"
        }
      ],
      "name": "createOffer",
      "outputs": [],
      "stateMutability": "payable",
      "type": "function"
    },
    {
      "inputs": [],
      "name": "feeReceipient",
      "outputs": [
        {
          "internalType": "address payable",
          "name": "",
          "type": "address"
        }
      ],
      "stateMutability": "view",
      "type": "function"
    },
    {
      "inputs": [
        {
          "internalType": "uint256",
          "name": "moment",
          "type": "uint256"
        }
      ],
      "name": "getArtongBalance",
      "outputs": [
        {
          "internalType": "uint256",
          "name": "",
          "type": "uint256"
        }
      ],
      "stateMutability": "view",
      "type": "function"
    },
    {
      "inputs": [
        {
          "internalType": "uint16",
          "name": "_platformFee",
          "type": "uint16"
        },
        {
          "internalType": "address payable",
          "name": "_feeRecipient",
          "type": "address"
        }
      ],
      "name": "initialize",
      "outputs": [],
      "stateMutability": "nonpayable",
      "type": "function"
    },
    {
      "inputs": [
        {
          "internalType": "address",
          "name": "_nftAddress",
          "type": "address"
        },
        {
          "internalType": "uint256",
          "name": "_tokenId",
          "type": "uint256"
        },
        {
          "internalType": "uint256",
          "name": "_price",
          "type": "uint256"
        }
      ],
      "name": "listItem",
      "outputs": [],
      "stateMutability": "nonpayable",
      "type": "function"
    },
    {
      "inputs": [
        {
          "internalType": "address",
          "name": "",
          "type": "address"
        },
        {
          "internalType": "uint256",
          "name": "",
          "type": "uint256"
        }
      ],
      "name": "listingPrices",
      "outputs": [
        {
          "internalType": "uint256",
          "name": "",
          "type": "uint256"
        }
      ],
      "stateMutability": "view",
      "type": "function"
    },
    {
      "inputs": [
        {
          "internalType": "address",
          "name": "",
          "type": "address"
        },
        {
          "internalType": "uint256",
          "name": "",
          "type": "uint256"
        },
        {
          "internalType": "address",
          "name": "",
          "type": "address"
        }
      ],
      "name": "offers",
      "outputs": [
        {
          "internalType": "uint256",
          "name": "price",
          "type": "uint256"
        },
        {
          "internalType": "uint256",
          "name": "deadline",
          "type": "uint256"
        }
      ],
      "stateMutability": "view",
      "type": "function"
    },
    {
      "inputs": [],
      "name": "owner",
      "outputs": [
        {
          "internalType": "address",
          "name": "",
          "type": "address"
        }
      ],
      "stateMutability": "view",
      "type": "function"
    },
    {
      "inputs": [],
      "name": "platformFee",
      "outputs": [
        {
          "internalType": "uint16",
          "name": "",
          "type": "uint16"
        }
      ],
      "stateMutability": "view",
      "type": "function"
    },
    {
      "inputs": [],
      "name": "renounceOwnership",
      "outputs": [],
      "stateMutability": "nonpayable",
      "type": "function"
    },
    {
      "inputs": [
        {
          "internalType": "address",
          "name": "",
          "type": "address"
        }
      ],
      "name": "tokenRoyalties",
      "outputs": [
        {
          "internalType": "uint16",
          "name": "",
          "type": "uint16"
        }
      ],
      "stateMutability": "view",
      "type": "function"
    },
    {
      "inputs": [
        {
          "internalType": "address",
          "name": "newOwner",
          "type": "address"
        }
      ],
      "name": "transferOwnership",
      "outputs": [],
      "stateMutability": "nonpayable",
      "type": "function"
    },
    {
      "inputs": [
        {
          "internalType": "address",
          "name": "_nftAddress",
          "type": "address"
        },
        {
          "internalType": "uint256",
          "name": "_tokenId",
          "type": "uint256"
        },
        {
          "internalType": "uint256",
          "name": "_newPrice",
          "type": "uint256"
        }
      ],
      "name": "updateListing",
      "outputs": [],
      "stateMutability": "nonpayable",
      "type": "function"
    },
    {
      "inputs": [
        {
          "internalType": "uint16",
          "name": "_platformFee",
          "type": "uint16"
        }
      ],
      "name": "updatePlatformFee",
      "outputs": [],
      "stateMutability": "nonpayable",
      "type": "function"
    },
    {
      "inputs": [
        {
          "internalType": "address payable",
          "name": "_platformFeeRecipient",
          "type": "address"
        }
      ],
      "name": "updatePlatformFeeRecipient",
      "outputs": [],
      "stateMutability": "nonpayable",
      "type": "function"
    },
    {
      "inputs": [
        {
          "internalType": "address",
          "name": "",
          "type": "address"
        },
        {
          "internalType": "uint256",
          "name": "",
          "type": "uint256"
        }
      ],
      "name": "userOffers",
      "outputs": [
        {
          "internalType": "uint256",
          "name": "price",
          "type": "uint256"
        },
        {
          "internalType": "uint256",
          "name": "deadline",
          "type": "uint256"
        }
      ],
      "stateMutability": "view",
      "type": "function"
    },
    {
      "inputs": [],
      "name": "withdraw",
      "outputs": [],
      "stateMutability": "nonpayable",
      "type": "function"
    }
  ],
  "bytecode": "0x608060405234801561001057600080fd5b50613b56806100206000396000f3fe60806040526004361061012a5760003560e01c8063ac43e890116100ab578063c3c3b2a41161006f578063c3c3b2a4146103b0578063d3f494cc146103ed578063e0dbcde51461042b578063f2fde38b14610454578063f5fe7f711461047d578063f772adf1146104a65761012a565b8063ac43e890146102a6578063afb06952146102e3578063b2ddee061461030c578063b876d9d014610335578063bd5fec65146103725761012a565b80633ccfd60b116100f25780633ccfd60b146101e657806357b275b4146101fd578063715018a61461023b57806389bfd38f146102525780638da5cb5b1461027b5761012a565b80631c6c71281461012f578063259ca3651461014b57806326232a2e146101675780633740ebb3146101925780633bbb2806146101bd575b600080fd5b61014960048036038101906101449190612ac6565b6104cf565b005b61016560048036038101906101609190612b19565b6109c3565b005b34801561017357600080fd5b5061017c610b3e565b6040516101899190612b89565b60405180910390f35b34801561019e57600080fd5b506101a7610b52565b6040516101b49190612bc5565b60405180910390f35b3480156101c957600080fd5b506101e460048036038101906101df9190612b19565b610b78565b005b3480156101f257600080fd5b506101fb610f2d565b005b34801561020957600080fd5b50610224600480360381019061021f9190612be0565b6110cc565b604051610232929190612c1c565b60405180910390f35b34801561024757600080fd5b506102506110fe565b005b34801561025e57600080fd5b5061027960048036038101906102749190612ac6565b611112565b005b34801561028757600080fd5b50610290611486565b60405161029d9190612c54565b60405180910390f35b3480156102b257600080fd5b506102cd60048036038101906102c89190612c6f565b6114b0565b6040516102da9190612caf565b60405180910390f35b3480156102ef57600080fd5b5061030a60048036038101906103059190612cf6565b6114d5565b005b34801561031857600080fd5b50610333600480360381019061032e9190612c6f565b611534565b005b34801561034157600080fd5b5061035c60048036038101906103579190612d23565b611643565b6040516103699190612caf565b60405180910390f35b34801561037e57600080fd5b5061039960048036038101906103949190612c6f565b61167a565b6040516103a7929190612d50565b60405180910390f35b3480156103bc57600080fd5b506103d760048036038101906103d29190612be0565b6116bb565b6040516103e49190612b89565b60405180910390f35b3480156103f957600080fd5b50610414600480360381019061040f9190612b19565b6116dc565b604051610422929190612d50565b60405180910390f35b34801561043757600080fd5b50610452600480360381019061044d9190612da5565b61171a565b005b34801561046057600080fd5b5061047b60048036038101906104769190612be0565b6118c0565b005b34801561048957600080fd5b506104a4600480360381019061049f9190612de5565b611944565b005b3480156104b257600080fd5b506104cd60048036038101906104c89190612ac6565b6119c7565b005b8282336000609960008573ffffffffffffffffffffffffffffffffffffffff1673ffffffffffffffffffffffffffffffffffffffff168152602001908152602001600020600084815260200190815260200160002060008373ffffffffffffffffffffffffffffffffffffffff1673ffffffffffffffffffffffffffffffffffffffff1681526020019081526020016000206040518060400160405290816000820154815260200160018201548152505090506000816000015114806105a05750610598611b88565b816020015111155b6105df576040517f08c379a00000000000000000000000000000000000000000000000000000000081526004016105d690612e6f565b60405180910390fd5b66038d7ea4c680003411610628576040517f08c379a000000000000000000000000000000000000000000000000000000000815260040161061f90612edb565b60405180910390fd5b61063187611b90565b610670576040517f08c379a000000000000000000000000000000000000000000000000000000000815260040161066790612f47565b60405180910390fd5b60008790508073ffffffffffffffffffffffffffffffffffffffff16636352211e886040518263ffffffff1660e01b81526004016106ae9190612caf565b60206040518083038186803b1580156106c657600080fd5b505afa1580156106da573d6000803e3d6000fd5b505050506040513d601f19601f820116820180604052508101906106fe9190612f7c565b73ffffffffffffffffffffffffffffffffffffffff163373ffffffffffffffffffffffffffffffffffffffff16141561076c576040517f08c379a000000000000000000000000000000000000000000000000000000000815260040161076390612ff5565b60405180910390fd5b60008614156107925762015180610781611b88565b61078b9190613044565b95506107ab565b6201518061079e611b88565b6107a89190613078565b95505b604051806040016040528034815260200187815250609960008a73ffffffffffffffffffffffffffffffffffffffff1673ffffffffffffffffffffffffffffffffffffffff168152602001908152602001600020600089815260200190815260200160002060003373ffffffffffffffffffffffffffffffffffffffff1673ffffffffffffffffffffffffffffffffffffffff1681526020019081526020016000206000820151816000015560208201518160010155905050609a60003373ffffffffffffffffffffffffffffffffffffffff1673ffffffffffffffffffffffffffffffffffffffff16815260200190815260200160002060405180604001604052803481526020018881525090806001815401808255809150506001900390600052602060002090600202016000909190919091506000820151816000015560208201518160010155505034609d60003373ffffffffffffffffffffffffffffffffffffffff1673ffffffffffffffffffffffffffffffffffffffff16815260200190815260200160002060000160008282546109499190613078565b925050819055508773ffffffffffffffffffffffffffffffffffffffff163373ffffffffffffffffffffffffffffffffffffffff167f0c2598f084a085d4d27e8638b4306b07c633b1e724b3d27fc0af68714fe5402889348a6040516109b1939291906130ce565b60405180910390a35050505050505050565b60026065541415610a09576040517f08c379a0000000000000000000000000000000000000000000000000000000008152600401610a0090613151565b60405180910390fd5b60026065819055508282826000609860008573ffffffffffffffffffffffffffffffffffffffff1673ffffffffffffffffffffffffffffffffffffffff168152602001908152602001600020600084815260200190815260200160002054905060008111610aac576040517f08c379a0000000000000000000000000000000000000000000000000000000008152600401610aa3906131bd565b60405180910390fd5b610ab7878787611c42565b6000609860008973ffffffffffffffffffffffffffffffffffffffff1673ffffffffffffffffffffffffffffffffffffffff1681526020019081526020016000206000888152602001908152602001600020549050600086905060003390506000349050610b298b8b85858886611d91565b50505050505050506001606581905550505050565b609760009054906101000a900461ffff1681565b609760029054906101000a900473ffffffffffffffffffffffffffffffffffffffff1681565b60026065541415610bbe576040517f08c379a0000000000000000000000000000000000000000000000000000000008152600401610bb590613151565b60405180910390fd5b60026065819055508282826000609960008573ffffffffffffffffffffffffffffffffffffffff1673ffffffffffffffffffffffffffffffffffffffff168152602001908152602001600020600084815260200190815260200160002060008373ffffffffffffffffffffffffffffffffffffffff1673ffffffffffffffffffffffffffffffffffffffff16815260200190815260200160002060405180604001604052908160008201548152602001600182015481525050905060008160000151118015610c975750610c90611b88565b8160200151115b610cd6576040517f08c379a0000000000000000000000000000000000000000000000000000000008152600401610ccd90613229565b60405180910390fd5b610ce1878733611c42565b6000609960008973ffffffffffffffffffffffffffffffffffffffff1673ffffffffffffffffffffffffffffffffffffffff168152602001908152602001600020600088815260200190815260200160002060008773ffffffffffffffffffffffffffffffffffffffff1673ffffffffffffffffffffffffffffffffffffffff1681526020019081526020016000206040518060400160405290816000820154815260200160018201548152505090506000610d9b611b88565b90506000610da98289612316565b90508260000151811015610df2576040517f08c379a0000000000000000000000000000000000000000000000000000000008152600401610de990613295565b60405180910390fd5b60003390506000899050610e128c8c848489600001518a60000151611d91565b8973ffffffffffffffffffffffffffffffffffffffff168c73ffffffffffffffffffffffffffffffffffffffff167f1911131efc06f8b35ef19454a244416c23f0cffd91e74ec4d1656a64ec363afe8d604051610e6f9190612caf565b60405180910390a3609960008d73ffffffffffffffffffffffffffffffffffffffff1673ffffffffffffffffffffffffffffffffffffffff16815260200190815260200160002060008c815260200190815260200160002060008b73ffffffffffffffffffffffffffffffffffffffff1673ffffffffffffffffffffffffffffffffffffffff168152602001908152602001600020600080820160009055600182016000905550505050505050505050506001606581905550505050565b6000610f37611b88565b90506000610f4482611643565b90506000811415610f8a576040517f08c379a0000000000000000000000000000000000000000000000000000000008152600401610f8190613301565b60405180910390fd5b80471015610fcd576040517f08c379a0000000000000000000000000000000000000000000000000000000008152600401610fc49061336d565b60405180910390fd5b6000609d60003373ffffffffffffffffffffffffffffffffffffffff1673ffffffffffffffffffffffffffffffffffffffff168152602001908152602001600020604051806060016040529081600082015481526020016001820154815260200160028201548152505090506110438333612316565b81600001516110529190613044565b8160000181815250506000816020018181525050600081604001818152505061107a83612443565b60003390508073ffffffffffffffffffffffffffffffffffffffff166108fc849081150290604051600060405180830381858888f193505050501580156110c5573d6000803e3d6000fd5b5050505050565b609b6020528060005260406000206000915090508060000160009054906101000a900461ffff16908060010154905082565b61110661257d565b61111060006125fb565b565b8282336000609860008573ffffffffffffffffffffffffffffffffffffffff1673ffffffffffffffffffffffffffffffffffffffff1681526020019081526020016000206000848152602001908152602001600020549050600081146111ad576040517f08c379a00000000000000000000000000000000000000000000000000000000081526004016111a4906133d9565b60405180910390fd5b6111b687611b90565b156113865760008790503373ffffffffffffffffffffffffffffffffffffffff168173ffffffffffffffffffffffffffffffffffffffff16636352211e896040518263ffffffff1660e01b81526004016112109190612caf565b60206040518083038186803b15801561122857600080fd5b505afa15801561123c573d6000803e3d6000fd5b505050506040513d601f19601f820116820180604052508101906112609190612f7c565b73ffffffffffffffffffffffffffffffffffffffff16146112b6576040517f08c379a00000000000000000000000000000000000000000000000000000000081526004016112ad90613445565b60405180910390fd5b8073ffffffffffffffffffffffffffffffffffffffff1663e985e9c533306040518363ffffffff1660e01b81526004016112f1929190613465565b60206040518083038186803b15801561130957600080fd5b505afa15801561131d573d6000803e3d6000fd5b505050506040513d601f19601f8201168201806040525081019061134191906134c6565b611380576040517f08c379a000000000000000000000000000000000000000000000000000000000815260040161137790613565565b60405180910390fd5b506113c1565b6040517f08c379a00000000000000000000000000000000000000000000000000000000081526004016113b890612f47565b60405180910390fd5b84609860008973ffffffffffffffffffffffffffffffffffffffff1673ffffffffffffffffffffffffffffffffffffffff1681526020019081526020016000206000888152602001908152602001600020819055508673ffffffffffffffffffffffffffffffffffffffff163373ffffffffffffffffffffffffffffffffffffffff167fd547e933094f12a9159076970143ebe73234e64480317844b0dcb36117116de48888604051611475929190612d50565b60405180910390a350505050505050565b6000603360009054906101000a900473ffffffffffffffffffffffffffffffffffffffff16905090565b6098602052816000526040600020602052806000526040600020600091509150505481565b6114dd61257d565b80609760006101000a81548161ffff021916908361ffff1602179055507fcabead39256298cdf7d1228eee68b47bc54a2192283d8d93574da08d2d7ac303816040516115299190612b89565b60405180910390a150565b6002606554141561157a576040517f08c379a000000000000000000000000000000000000000000000000000000000815260040161157190613151565b60405180910390fd5b60026065819055508181336000609860008573ffffffffffffffffffffffffffffffffffffffff1673ffffffffffffffffffffffffffffffffffffffff16815260200190815260200160002060008481526020019081526020016000205490506000811161161d576040517f08c379a0000000000000000000000000000000000000000000000000000000008152600401611614906131bd565b60405180910390fd5b611628868633611c42565b6116338686336126c1565b5050505060016065819055505050565b600061164d61277f565b6116556127f7565b61165f8433612316565b6116699190613078565b6116739190613078565b9050919050565b609a602052816000526040600020818154811061169657600080fd5b9060005260206000209060020201600091509150508060000154908060010154905082565b609c6020528060005260406000206000915054906101000a900461ffff1681565b609960205282600052604060002060205281600052604060002060205280600052604060002060009250925050508060000154908060010154905082565b60008060019054906101000a900460ff1615905080801561174b5750600160008054906101000a900460ff1660ff16105b80611778575061175a3061286f565b1580156117775750600160008054906101000a900460ff1660ff16145b5b6117b7576040517f08c379a00000000000000000000000000000000000000000000000000000000081526004016117ae906135f7565b60405180910390fd5b60016000806101000a81548160ff021916908360ff16021790555080156117f4576001600060016101000a81548160ff0219169083151502179055505b82609760006101000a81548161ffff021916908361ffff16021790555081609760026101000a81548173ffffffffffffffffffffffffffffffffffffffff021916908373ffffffffffffffffffffffffffffffffffffffff16021790555061185a612892565b6118626128eb565b80156118bb5760008060016101000a81548160ff0219169083151502179055507f7f26b83ff96e1f2b6a682f133852f6798a09c465da95921460cefb384740249860016040516118b29190613669565b60405180910390a15b505050565b6118c861257d565b600073ffffffffffffffffffffffffffffffffffffffff168173ffffffffffffffffffffffffffffffffffffffff161415611938576040517f08c379a000000000000000000000000000000000000000000000000000000000815260040161192f906136f6565b60405180910390fd5b611941816125fb565b50565b61194c61257d565b80609760026101000a81548173ffffffffffffffffffffffffffffffffffffffff021916908373ffffffffffffffffffffffffffffffffffffffff1602179055507fe57e7c1f36cc83fade34e32351e6eee7eb9da532662b1b5da10c631e8222aca7816040516119bc9190612bc5565b60405180910390a150565b60026065541415611a0d576040517f08c379a0000000000000000000000000000000000000000000000000000000008152600401611a0490613151565b60405180910390fd5b60026065819055508282336000609860008573ffffffffffffffffffffffffffffffffffffffff1673ffffffffffffffffffffffffffffffffffffffff168152602001908152602001600020600084815260200190815260200160002054905060008111611ab0576040517f08c379a0000000000000000000000000000000000000000000000000000000008152600401611aa7906131bd565b60405180910390fd5b611abb878733611c42565b84609860008973ffffffffffffffffffffffffffffffffffffffff1673ffffffffffffffffffffffffffffffffffffffff1681526020019081526020016000206000888152602001908152602001600020819055508673ffffffffffffffffffffffffffffffffffffffff163373ffffffffffffffffffffffffffffffffffffffff167f3c33e65e8698294810b631d476d60b44425303828da0b1f8b635231bfda12be28888604051611b6f929190612d50565b60405180910390a3505050506001606581905550505050565b600042905090565b60008173ffffffffffffffffffffffffffffffffffffffff166301ffc9a77f80ac58cd000000000000000000000000000000000000000000000000000000006040518263ffffffff1660e01b8152600401611beb9190613751565b60206040518083038186803b158015611c0357600080fd5b505afa158015611c17573d6000803e3d6000fd5b505050506040513d601f19601f82011682018060405250810190611c3b91906134c6565b9050919050565b611c4b83611b90565b15611d515760008390508073ffffffffffffffffffffffffffffffffffffffff16636352211e846040518263ffffffff1660e01b8152600401611c8e9190612caf565b60206040518083038186803b158015611ca657600080fd5b505afa158015611cba573d6000803e3d6000fd5b505050506040513d601f19601f82011682018060405250810190611cde9190612f7c565b73ffffffffffffffffffffffffffffffffffffffff168273ffffffffffffffffffffffffffffffffffffffff1614611d4b576040517f08c379a0000000000000000000000000000000000000000000000000000000008152600401611d4290613445565b60405180910390fd5b50611d8c565b6040517f08c379a0000000000000000000000000000000000000000000000000000000008152600401611d8390612f47565b60405180910390fd5b505050565b81811015611dd4576040517f08c379a0000000000000000000000000000000000000000000000000000000008152600401611dcb906137b8565b60405180910390fd5b6000611df083609760009054906101000a900461ffff16612944565b90506000609760029054906101000a900473ffffffffffffffffffffffffffffffffffffffff1673ffffffffffffffffffffffffffffffffffffffff1682604051611e3a90613809565b60006040518083038185875af1925050503d8060008114611e77576040519150601f19603f3d011682016040523d82523d6000602084013e611e7c565b606091505b5050905080611ec0576040517f08c379a0000000000000000000000000000000000000000000000000000000008152600401611eb79061386a565b60405180910390fd5b6000609c60008873ffffffffffffffffffffffffffffffffffffffff1673ffffffffffffffffffffffffffffffffffffffff16815260200190815260200160002060009054906101000a900461ffff16905060008161ffff1614611f95576000611f2a8683612944565b905080609d60008a73ffffffffffffffffffffffffffffffffffffffff1673ffffffffffffffffffffffffffffffffffffffff1681526020019081526020016000206001016000828254611f7e9190613078565b925050819055508084611f919190613078565b9350505b6000609b60008b73ffffffffffffffffffffffffffffffffffffffff1673ffffffffffffffffffffffffffffffffffffffff1681526020019081526020016000206040518060400160405290816000820160009054906101000a900461ffff1661ffff1661ffff16815260200160018201548152505090506000816000015161ffff161461205857600061202d878360000151612944565b905080826020018181516120419190613078565b9150818152505080856120549190613078565b9450505b8973ffffffffffffffffffffffffffffffffffffffff1663da96577885886120809190613044565b8a6040518363ffffffff1660e01b815260040161209d9190612c54565b6000604051808303818588803b1580156120b657600080fd5b505af11580156120ca573d6000803e3d6000fd5b50505050506120d88a611b90565b1561214d578973ffffffffffffffffffffffffffffffffffffffff166342842e0e89898c6040518463ffffffff1660e01b815260040161211a9392919061388a565b600060405180830381600087803b15801561213457600080fd5b505af1158015612148573d6000803e3d6000fd5b505050505b858511156122385760008773ffffffffffffffffffffffffffffffffffffffff16878761217a9190613044565b60405161218690613809565b60006040518083038185875af1925050503d80600081146121c3576040519150601f19603f3d011682016040523d82523d6000602084013e6121c8565b606091505b50509050806122365786866121dd9190613044565b609d60008a73ffffffffffffffffffffffffffffffffffffffff1673ffffffffffffffffffffffffffffffffffffffff168152602001908152602001600020600201600082825461222e9190613078565b925050819055505b505b8973ffffffffffffffffffffffffffffffffffffffff168773ffffffffffffffffffffffffffffffffffffffff168973ffffffffffffffffffffffffffffffffffffffff167fee0ddd6454e05c1b33a8dfcb6cc52418d28020e96e21228bb601f5dbb6790cd08c8a6040516122ae929190612d50565b60405180910390a4609860008b73ffffffffffffffffffffffffffffffffffffffff1673ffffffffffffffffffffffffffffffffffffffff16815260200190815260200160002060008a81526020019081526020016000206000905550505050505050505050565b600080609a60008473ffffffffffffffffffffffffffffffffffffffff1673ffffffffffffffffffffffffffffffffffffffff168152602001908152602001600020805480602002602001604051908101604052809291908181526020016000905b828210156123be57838290600052602060002090600202016040518060400160405290816000820154815260200160018201548152505081526020019060010190612378565b5050505090506000805b825181101561243757858382815181106123e5576123e46138c1565b5b60200260200101516020015111156124245782818151811061240a576124096138c1565b5b602002602001015160000151826124219190613078565b91505b808061242f906138f0565b9150506123c8565b50809250505092915050565b6000609a60003373ffffffffffffffffffffffffffffffffffffffff1673ffffffffffffffffffffffffffffffffffffffff168152602001908152602001600020905060005b818054905081101561257857828282815481106124a9576124a86138c1565b5b90600052602060002090600202016001015410156125655781600183805490506124d39190613044565b815481106124e4576124e36138c1565b5b9060005260206000209060020201828281548110612505576125046138c1565b5b906000526020600020906002020160008201548160000155600182015481600101559050508180548061253b5761253a613939565b5b60019003818190600052602060002090600202016000808201600090556001820160009055505090555b8080612570906138f0565b915050612489565b505050565b61258561296b565b73ffffffffffffffffffffffffffffffffffffffff166125a3611486565b73ffffffffffffffffffffffffffffffffffffffff16146125f9576040517f08c379a00000000000000000000000000000000000000000000000000000000081526004016125f0906139b4565b60405180910390fd5b565b6000603360009054906101000a900473ffffffffffffffffffffffffffffffffffffffff16905081603360006101000a81548173ffffffffffffffffffffffffffffffffffffffff021916908373ffffffffffffffffffffffffffffffffffffffff1602179055508173ffffffffffffffffffffffffffffffffffffffff168173ffffffffffffffffffffffffffffffffffffffff167f8be0079c531659141344cd1fd0a4f28419497f9722a3daafe3b4186f6b6457e060405160405180910390a35050565b609860008473ffffffffffffffffffffffffffffffffffffffff1673ffffffffffffffffffffffffffffffffffffffff1681526020019081526020016000206000838152602001908152602001600020600090558273ffffffffffffffffffffffffffffffffffffffff168173ffffffffffffffffffffffffffffffffffffffff167f9ba1a3cb55ce8d63d072a886f94d2a744f50cddf82128e897d0661f5ec623158846040516127729190612caf565b60405180910390a3505050565b600080609d60003373ffffffffffffffffffffffffffffffffffffffff1673ffffffffffffffffffffffffffffffffffffffff16815260200190815260200160002060405180606001604052908160008201548152602001600182015481526020016002820154815250509050806040015191505090565b600080609d60003373ffffffffffffffffffffffffffffffffffffffff1673ffffffffffffffffffffffffffffffffffffffff16815260200190815260200160002060405180606001604052908160008201548152602001600182015481526020016002820154815250509050806020015191505090565b6000808273ffffffffffffffffffffffffffffffffffffffff163b119050919050565b600060019054906101000a900460ff166128e1576040517f08c379a00000000000000000000000000000000000000000000000000000000081526004016128d890613a46565b60405180910390fd5b6128e9612973565b565b600060019054906101000a900460ff1661293a576040517f08c379a000000000000000000000000000000000000000000000000000000000815260040161293190613a46565b60405180910390fd5b6129426129d4565b565b60006127108261ffff16846129599190613a66565b6129639190613aef565b905092915050565b600033905090565b600060019054906101000a900460ff166129c2576040517f08c379a00000000000000000000000000000000000000000000000000000000081526004016129b990613a46565b60405180910390fd5b6129d26129cd61296b565b6125fb565b565b600060019054906101000a900460ff16612a23576040517f08c379a0000000000000000000000000000000000000000000000000000000008152600401612a1a90613a46565b60405180910390fd5b6001606581905550565b600080fd5b600073ffffffffffffffffffffffffffffffffffffffff82169050919050565b6000612a5d82612a32565b9050919050565b612a6d81612a52565b8114612a7857600080fd5b50565b600081359050612a8a81612a64565b92915050565b6000819050919050565b612aa381612a90565b8114612aae57600080fd5b50565b600081359050612ac081612a9a565b92915050565b600080600060608486031215612adf57612ade612a2d565b5b6000612aed86828701612a7b565b9350506020612afe86828701612ab1565b9250506040612b0f86828701612ab1565b9150509250925092565b600080600060608486031215612b3257612b31612a2d565b5b6000612b4086828701612a7b565b9350506020612b5186828701612ab1565b9250506040612b6286828701612a7b565b9150509250925092565b600061ffff82169050919050565b612b8381612b6c565b82525050565b6000602082019050612b9e6000830184612b7a565b92915050565b6000612baf82612a32565b9050919050565b612bbf81612ba4565b82525050565b6000602082019050612bda6000830184612bb6565b92915050565b600060208284031215612bf657612bf5612a2d565b5b6000612c0484828501612a7b565b91505092915050565b612c1681612a90565b82525050565b6000604082019050612c316000830185612b7a565b612c3e6020830184612c0d565b9392505050565b612c4e81612a52565b82525050565b6000602082019050612c696000830184612c45565b92915050565b60008060408385031215612c8657612c85612a2d565b5b6000612c9485828601612a7b565b9250506020612ca585828601612ab1565b9150509250929050565b6000602082019050612cc46000830184612c0d565b92915050565b612cd381612b6c565b8114612cde57600080fd5b50565b600081359050612cf081612cca565b92915050565b600060208284031215612d0c57612d0b612a2d565b5b6000612d1a84828501612ce1565b91505092915050565b600060208284031215612d3957612d38612a2d565b5b6000612d4784828501612ab1565b91505092915050565b6000604082019050612d656000830185612c0d565b612d726020830184612c0d565b9392505050565b612d8281612ba4565b8114612d8d57600080fd5b50565b600081359050612d9f81612d79565b92915050565b60008060408385031215612dbc57612dbb612a2d565b5b6000612dca85828601612ce1565b9250506020612ddb85828601612d90565b9150509250929050565b600060208284031215612dfb57612dfa612a2d565b5b6000612e0984828501612d90565b91505092915050565b600082825260208201905092915050565b7f6f6666657220616c726561647920637265617465640000000000000000000000600082015250565b6000612e59601583612e12565b9150612e6482612e23565b602082019050919050565b60006020820190508181036000830152612e8881612e4c565b9050919050565b7f6f6666657220616d6f756e7420746f6f20736d616c6c00000000000000000000600082015250565b6000612ec5601683612e12565b9150612ed082612e8f565b602082019050919050565b60006020820190508181036000830152612ef481612eb8565b9050919050565b7f696e76616c6964206e6674206164647265737300000000000000000000000000600082015250565b6000612f31601383612e12565b9150612f3c82612efb565b602082019050919050565b60006020820190508181036000830152612f6081612f24565b9050919050565b600081519050612f7681612a64565b92915050565b600060208284031215612f9257612f91612a2d565b5b6000612fa084828501612f67565b91505092915050565b7f63616e6e6f742073656c66206f66666572000000000000000000000000000000600082015250565b6000612fdf601183612e12565b9150612fea82612fa9565b602082019050919050565b6000602082019050818103600083015261300e81612fd2565b9050919050565b7f4e487b7100000000000000000000000000000000000000000000000000000000600052601160045260246000fd5b600061304f82612a90565b915061305a83612a90565b92508282101561306d5761306c613015565b5b828203905092915050565b600061308382612a90565b915061308e83612a90565b9250827fffffffffffffffffffffffffffffffffffffffffffffffffffffffffffffffff038211156130c3576130c2613015565b5b828201905092915050565b60006060820190506130e36000830186612c0d565b6130f06020830185612c0d565b6130fd6040830184612c0d565b949350505050565b7f5265656e7472616e637947756172643a207265656e7472616e742063616c6c00600082015250565b600061313b601f83612e12565b915061314682613105565b602082019050919050565b6000602082019050818103600083015261316a8161312e565b9050919050565b7f6e6f74206c6973746564206974656d0000000000000000000000000000000000600082015250565b60006131a7600f83612e12565b91506131b282613171565b602082019050919050565b600060208201905081810360008301526131d68161319a565b9050919050565b7f6f66666572206e6f7420657869737473206f7220657870697265640000000000600082015250565b6000613213601b83612e12565b915061321e826131dd565b602082019050919050565b6000602082019050818103600083015261324281613206565b9050919050565b7f62616c616e6365206e6f7420656e6f75676820746f20627579206974656d0000600082015250565b600061327f601e83612e12565b915061328a82613249565b602082019050919050565b600060208201905081810360008301526132ae81613272565b9050919050565b7f6e6f7468696e6720746f20776974686472617700000000000000000000000000600082015250565b60006132eb601383612e12565b91506132f6826132b5565b602082019050919050565b6000602082019050818103600083015261331a816132de565b9050919050565b7f62616c616e6365206e6f7420656e6f75676820746f2077697468647261770000600082015250565b6000613357601e83612e12565b915061336282613321565b602082019050919050565b600060208201905081810360008301526133868161334a565b9050919050565b7f616c7265616479206c6973746564000000000000000000000000000000000000600082015250565b60006133c3600e83612e12565b91506133ce8261338d565b602082019050919050565b600060208201905081810360008301526133f2816133b6565b9050919050565b7f6e6f74206f776e696e67206974656d0000000000000000000000000000000000600082015250565b600061342f600f83612e12565b915061343a826133f9565b602082019050919050565b6000602082019050818103600083015261345e81613422565b9050919050565b600060408201905061347a6000830185612c45565b6134876020830184612c45565b9392505050565b60008115159050919050565b6134a38161348e565b81146134ae57600080fd5b50565b6000815190506134c08161349a565b92915050565b6000602082840312156134dc576134db612a2d565b5b60006134ea848285016134b1565b91505092915050565b7f6172746f6e67206e6f7420617070726f76656420666f7220746869732069746560008201527f6d00000000000000000000000000000000000000000000000000000000000000602082015250565b600061354f602183612e12565b915061355a826134f3565b604082019050919050565b6000602082019050818103600083015261357e81613542565b9050919050565b7f496e697469616c697a61626c653a20636f6e747261637420697320616c72656160008201527f647920696e697469616c697a6564000000000000000000000000000000000000602082015250565b60006135e1602e83612e12565b91506135ec82613585565b604082019050919050565b60006020820190508181036000830152613610816135d4565b9050919050565b6000819050919050565b600060ff82169050919050565b6000819050919050565b600061365361364e61364984613617565b61362e565b613621565b9050919050565b61366381613638565b82525050565b600060208201905061367e600083018461365a565b92915050565b7f4f776e61626c653a206e6577206f776e657220697320746865207a65726f206160008201527f6464726573730000000000000000000000000000000000000000000000000000602082015250565b60006136e0602683612e12565b91506136eb82613684565b604082019050919050565b6000602082019050818103600083015261370f816136d3565b9050919050565b60007fffffffff0000000000000000000000000000000000000000000000000000000082169050919050565b61374b81613716565b82525050565b60006020820190506137666000830184613742565b92915050565b7f7061796d656e7420616d6f756e74206e6f7420656e6f75676800000000000000600082015250565b60006137a2601983612e12565b91506137ad8261376c565b602082019050919050565b600060208201905081810360008301526137d181613795565b9050919050565b600081905092915050565b50565b60006137f36000836137d8565b91506137fe826137e3565b600082019050919050565b6000613814826137e6565b9150819050919050565b7f466565207472616e73666572206661696c656400000000000000000000000000600082015250565b6000613854601383612e12565b915061385f8261381e565b602082019050919050565b6000602082019050818103600083015261388381613847565b9050919050565b600060608201905061389f6000830186612c45565b6138ac6020830185612c45565b6138b96040830184612c0d565b949350505050565b7f4e487b7100000000000000000000000000000000000000000000000000000000600052603260045260246000fd5b60006138fb82612a90565b91507fffffffffffffffffffffffffffffffffffffffffffffffffffffffffffffffff82141561392e5761392d613015565b5b600182019050919050565b7f4e487b7100000000000000000000000000000000000000000000000000000000600052603160045260246000fd5b7f4f776e61626c653a2063616c6c6572206973206e6f7420746865206f776e6572600082015250565b600061399e602083612e12565b91506139a982613968565b602082019050919050565b600060208201905081810360008301526139cd81613991565b9050919050565b7f496e697469616c697a61626c653a20636f6e7472616374206973206e6f74206960008201527f6e697469616c697a696e67000000000000000000000000000000000000000000602082015250565b6000613a30602b83612e12565b9150613a3b826139d4565b604082019050919050565b60006020820190508181036000830152613a5f81613a23565b9050919050565b6000613a7182612a90565b9150613a7c83612a90565b9250817fffffffffffffffffffffffffffffffffffffffffffffffffffffffffffffffff0483118215151615613ab557613ab4613015565b5b828202905092915050565b7f4e487b7100000000000000000000000000000000000000000000000000000000600052601260045260246000fd5b6000613afa82612a90565b9150613b0583612a90565b925082613b1557613b14613ac0565b5b82820490509291505056fea2646970667358221220905c7e02212204ad61c6e2a8a7eb9d76abef48fa02e0d8c86af3614bb62c19c164736f6c63430008090033",
  "linkReferences": {},
  "deployedLinkReferences": {}
}