{
  "_format": "hh-sol-artifact-1",
  "contractName": "ArtongMarketplace",
  "sourceName": "contracts/ArtongMarketplace.sol",
  "abi": [
    {
      "anonymous": false,
      "inputs": [
        {
          "indexed": false,
          "internalType": "uint8",
          "name": "version",
          "type": "uint8"
        }
      ],
      "name": "Initialized",
      "type": "event"
    },
    {
      "anonymous": false,
      "inputs": [
        {
          "indexed": true,
          "internalType": "address",
          "name": "owner",
          "type": "address"
        },
        {
          "indexed": true,
          "internalType": "address",
          "name": "nft",
          "type": "address"
        },
        {
          "indexed": false,
          "internalType": "uint256",
          "name": "tokenId",
          "type": "uint256"
        }
      ],
      "name": "ItemCanceled",
      "type": "event"
    },
    {
      "anonymous": false,
      "inputs": [
        {
          "indexed": true,
          "internalType": "address",
          "name": "owner",
          "type": "address"
        },
        {
          "indexed": true,
          "internalType": "address",
          "name": "nft",
          "type": "address"
        },
        {
          "indexed": false,
          "internalType": "uint256",
          "name": "tokenId",
          "type": "uint256"
        },
        {
          "indexed": false,
          "internalType": "uint256",
          "name": "price",
          "type": "uint256"
        }
      ],
      "name": "ItemListed",
      "type": "event"
    },
    {
      "anonymous": false,
      "inputs": [
        {
          "indexed": true,
          "internalType": "address",
          "name": "seller",
          "type": "address"
        },
        {
          "indexed": true,
          "internalType": "address",
          "name": "buyer",
          "type": "address"
        },
        {
          "indexed": true,
          "internalType": "address",
          "name": "nft",
          "type": "address"
        },
        {
          "indexed": false,
          "internalType": "uint256",
          "name": "tokenId",
          "type": "uint256"
        },
        {
          "indexed": false,
          "internalType": "uint256",
          "name": "price",
          "type": "uint256"
        }
      ],
      "name": "ItemSold",
      "type": "event"
    },
    {
      "anonymous": false,
      "inputs": [
        {
          "indexed": true,
          "internalType": "address",
          "name": "owner",
          "type": "address"
        },
        {
          "indexed": true,
          "internalType": "address",
          "name": "nft",
          "type": "address"
        },
        {
          "indexed": false,
          "internalType": "uint256",
          "name": "tokenId",
          "type": "uint256"
        },
        {
          "indexed": false,
          "internalType": "uint256",
          "name": "newPrice",
          "type": "uint256"
        }
      ],
      "name": "ItemUpdated",
      "type": "event"
    },
    {
      "anonymous": false,
      "inputs": [
        {
          "indexed": true,
          "internalType": "address",
          "name": "nft",
          "type": "address"
        },
        {
          "indexed": false,
          "internalType": "uint256",
          "name": "tokenId",
          "type": "uint256"
        },
        {
          "indexed": true,
          "internalType": "address",
          "name": "creator",
          "type": "address"
        }
      ],
      "name": "OfferAccepted",
      "type": "event"
    },
    {
      "anonymous": false,
      "inputs": [
        {
          "indexed": true,
          "internalType": "address",
          "name": "creator",
          "type": "address"
        },
        {
          "indexed": true,
          "internalType": "address",
          "name": "nft",
          "type": "address"
        },
        {
          "indexed": false,
          "internalType": "uint256",
          "name": "tokenId",
          "type": "uint256"
        },
        {
          "indexed": false,
          "internalType": "uint256",
          "name": "price",
          "type": "uint256"
        },
        {
          "indexed": false,
          "internalType": "uint256",
          "name": "deadline",
          "type": "uint256"
        }
      ],
      "name": "OfferCreated",
      "type": "event"
    },
    {
      "anonymous": false,
      "inputs": [
        {
          "indexed": true,
          "internalType": "address",
          "name": "previousOwner",
          "type": "address"
        },
        {
          "indexed": true,
          "internalType": "address",
          "name": "newOwner",
          "type": "address"
        }
      ],
      "name": "OwnershipTransferred",
      "type": "event"
    },
    {
      "anonymous": false,
      "inputs": [
        {
          "indexed": true,
          "internalType": "address",
          "name": "collectionOwner",
          "type": "address"
        },
        {
          "indexed": true,
          "internalType": "address",
          "name": "nft",
          "type": "address"
        },
        {
          "indexed": false,
          "internalType": "uint16",
          "name": "royalty",
          "type": "uint16"
        }
      ],
      "name": "UpdateCollectionRoyalty",
      "type": "event"
    },
    {
      "anonymous": false,
      "inputs": [
        {
          "indexed": false,
          "internalType": "uint16",
          "name": "platformFee",
          "type": "uint16"
        }
      ],
      "name": "UpdatePlatformFee",
      "type": "event"
    },
    {
      "anonymous": false,
      "inputs": [
        {
          "indexed": false,
          "internalType": "address payable",
          "name": "platformFeeRecipient",
          "type": "address"
        }
      ],
      "name": "UpdatePlatformFeeRecipient",
      "type": "event"
    },
    {
      "anonymous": false,
      "inputs": [
        {
          "indexed": true,
          "internalType": "address",
          "name": "tokenOwner",
          "type": "address"
        },
        {
          "indexed": false,
          "internalType": "uint16",
          "name": "royalty",
          "type": "uint16"
        }
      ],
      "name": "UpdateTokenRoyalty",
      "type": "event"
    },
    {
      "inputs": [
        {
          "internalType": "address",
          "name": "_nftAddress",
          "type": "address"
        },
        {
          "internalType": "uint256",
          "name": "_tokenId",
          "type": "uint256"
        },
        {
          "internalType": "address",
          "name": "_creator",
          "type": "address"
        }
      ],
      "name": "acceptOffer",
      "outputs": [],
      "stateMutability": "nonpayable",
      "type": "function"
    },
    {
      "inputs": [
        {
          "internalType": "address",
          "name": "_nftAddress",
          "type": "address"
        },
        {
          "internalType": "uint256",
          "name": "_tokenId",
          "type": "uint256"
        },
        {
          "internalType": "address",
          "name": "_owner",
          "type": "address"
        }
      ],
      "name": "buyItem",
      "outputs": [],
      "stateMutability": "payable",
      "type": "function"
    },
    {
      "inputs": [
        {
          "internalType": "address",
          "name": "_nftAddress",
          "type": "address"
        },
        {
          "internalType": "uint256",
          "name": "_tokenId",
          "type": "uint256"
        }
      ],
      "name": "cancelListing",
      "outputs": [],
      "stateMutability": "nonpayable",
      "type": "function"
    },
    {
      "inputs": [
        {
          "internalType": "address",
          "name": "",
          "type": "address"
        }
      ],
      "name": "collectionRoyalties",
      "outputs": [
        {
          "internalType": "uint16",
          "name": "royalty",
          "type": "uint16"
        },
        {
          "internalType": "uint256",
          "name": "royaltyBalance",
          "type": "uint256"
        }
      ],
      "stateMutability": "view",
      "type": "function"
    },
    {
      "inputs": [
        {
          "internalType": "address",
          "name": "_nftAddress",
          "type": "address"
        },
        {
          "internalType": "uint256",
          "name": "_tokenId",
          "type": "uint256"
        },
        {
          "internalType": "uint256",
          "name": "_deadline",
          "type": "uint256"
        }
      ],
      "name": "createOffer",
      "outputs": [],
      "stateMutability": "payable",
      "type": "function"
    },
    {
      "inputs": [],
      "name": "feeReceipient",
      "outputs": [
        {
          "internalType": "address payable",
          "name": "",
          "type": "address"
        }
      ],
      "stateMutability": "view",
      "type": "function"
    },
    {
      "inputs": [
        {
          "internalType": "uint256",
          "name": "moment",
          "type": "uint256"
        }
      ],
      "name": "getArtongBalance",
      "outputs": [
        {
          "internalType": "uint256",
          "name": "",
          "type": "uint256"
        }
      ],
      "stateMutability": "view",
      "type": "function"
    },
    {
      "inputs": [
        {
          "internalType": "uint16",
          "name": "_platformFee",
          "type": "uint16"
        },
        {
          "internalType": "address payable",
          "name": "_feeRecipient",
          "type": "address"
        }
      ],
      "name": "initialize",
      "outputs": [],
      "stateMutability": "nonpayable",
      "type": "function"
    },
    {
      "inputs": [
        {
          "internalType": "address",
          "name": "_nftAddress",
          "type": "address"
        },
        {
          "internalType": "uint256",
          "name": "_tokenId",
          "type": "uint256"
        },
        {
          "internalType": "uint256",
          "name": "_price",
          "type": "uint256"
        }
      ],
      "name": "listItem",
      "outputs": [],
      "stateMutability": "nonpayable",
      "type": "function"
    },
    {
      "inputs": [
        {
          "internalType": "address",
          "name": "",
          "type": "address"
        },
        {
          "internalType": "uint256",
          "name": "",
          "type": "uint256"
        }
      ],
      "name": "listingPrices",
      "outputs": [
        {
          "internalType": "uint256",
          "name": "",
          "type": "uint256"
        }
      ],
      "stateMutability": "view",
      "type": "function"
    },
    {
      "inputs": [
        {
          "internalType": "address",
          "name": "",
          "type": "address"
        },
        {
          "internalType": "uint256",
          "name": "",
          "type": "uint256"
        },
        {
          "internalType": "address",
          "name": "",
          "type": "address"
        }
      ],
      "name": "offers",
      "outputs": [
        {
          "internalType": "uint256",
          "name": "price",
          "type": "uint256"
        },
        {
          "internalType": "uint256",
          "name": "deadline",
          "type": "uint256"
        }
      ],
      "stateMutability": "view",
      "type": "function"
    },
    {
      "inputs": [],
      "name": "owner",
      "outputs": [
        {
          "internalType": "address",
          "name": "",
          "type": "address"
        }
      ],
      "stateMutability": "view",
      "type": "function"
    },
    {
      "inputs": [],
      "name": "platformFee",
      "outputs": [
        {
          "internalType": "uint16",
          "name": "",
          "type": "uint16"
        }
      ],
      "stateMutability": "view",
      "type": "function"
    },
    {
      "inputs": [],
      "name": "renounceOwnership",
      "outputs": [],
      "stateMutability": "nonpayable",
      "type": "function"
    },
    {
      "inputs": [
        {
          "internalType": "address",
          "name": "",
          "type": "address"
        }
      ],
      "name": "tokenRoyalties",
      "outputs": [
        {
          "internalType": "uint16",
          "name": "",
          "type": "uint16"
        }
      ],
      "stateMutability": "view",
      "type": "function"
    },
    {
      "inputs": [
        {
          "internalType": "address",
          "name": "newOwner",
          "type": "address"
        }
      ],
      "name": "transferOwnership",
      "outputs": [],
      "stateMutability": "nonpayable",
      "type": "function"
    },
    {
      "inputs": [
        {
          "internalType": "address",
          "name": "_nftAddress",
          "type": "address"
        },
        {
          "internalType": "uint16",
          "name": "_royalty",
          "type": "uint16"
        }
      ],
      "name": "updateCollectionRoyalty",
      "outputs": [],
      "stateMutability": "nonpayable",
      "type": "function"
    },
    {
      "inputs": [
        {
          "internalType": "address",
          "name": "_nftAddress",
          "type": "address"
        },
        {
          "internalType": "uint256",
          "name": "_tokenId",
          "type": "uint256"
        },
        {
          "internalType": "uint256",
          "name": "_newPrice",
          "type": "uint256"
        }
      ],
      "name": "updateListing",
      "outputs": [],
      "stateMutability": "nonpayable",
      "type": "function"
    },
    {
      "inputs": [
        {
          "internalType": "uint16",
          "name": "_platformFee",
          "type": "uint16"
        }
      ],
      "name": "updatePlatformFee",
      "outputs": [],
      "stateMutability": "nonpayable",
      "type": "function"
    },
    {
      "inputs": [
        {
          "internalType": "address payable",
          "name": "_platformFeeRecipient",
          "type": "address"
        }
      ],
      "name": "updatePlatformFeeRecipient",
      "outputs": [],
      "stateMutability": "nonpayable",
      "type": "function"
    },
    {
      "inputs": [
        {
          "internalType": "uint16",
          "name": "_royalty",
          "type": "uint16"
        }
      ],
      "name": "updateTokenRoyalty",
      "outputs": [],
      "stateMutability": "nonpayable",
      "type": "function"
    },
    {
      "inputs": [
        {
          "internalType": "address",
          "name": "",
          "type": "address"
        },
        {
          "internalType": "uint256",
          "name": "",
          "type": "uint256"
        }
      ],
      "name": "userOffers",
      "outputs": [
        {
          "internalType": "uint256",
          "name": "price",
          "type": "uint256"
        },
        {
          "internalType": "uint256",
          "name": "deadline",
          "type": "uint256"
        }
      ],
      "stateMutability": "view",
      "type": "function"
    },
    {
      "inputs": [],
      "name": "withdraw",
      "outputs": [],
      "stateMutability": "nonpayable",
      "type": "function"
    }
  ],
  "bytecode": "0x608060405234801561001057600080fd5b506140f2806100206000396000f3fe60806040526004361061013f5760003560e01c80638da5cb5b116100b6578063c3c3b2a41161006f578063c3c3b2a414610417578063d3f494cc14610454578063e0dbcde514610492578063f2fde38b146104bb578063f5fe7f71146104e4578063f772adf11461050d5761013f565b80638da5cb5b146102e2578063ac43e8901461030d578063afb069521461034a578063b2ddee0614610373578063b876d9d01461039c578063bd5fec65146103d95761013f565b80633bbb2806116101085780633bbb2806146101fb5780633ccfd60b1461022457806357b275b41461023b5780636b85228814610279578063715018a6146102a257806389bfd38f146102b95761013f565b8062e56c6d146101445780631c6c71281461016d578063259ca3651461018957806326232a2e146101a55780633740ebb3146101d0575b600080fd5b34801561015057600080fd5b5061016b60048036038101906101669190612ef0565b610536565b005b61018760048036038101906101829190612fb1565b61062a565b005b6101a3600480360381019061019e9190613004565b610b1e565b005b3480156101b157600080fd5b506101ba610c99565b6040516101c79190613066565b60405180910390f35b3480156101dc57600080fd5b506101e5610cad565b6040516101f291906130a2565b60405180910390f35b34801561020757600080fd5b50610222600480360381019061021d9190613004565b610cd3565b005b34801561023057600080fd5b50610239611088565b005b34801561024757600080fd5b50610262600480360381019061025d91906130bd565b611227565b6040516102709291906130f9565b60405180910390f35b34801561028557600080fd5b506102a0600480360381019061029b9190613122565b611259565b005b3480156102ae57600080fd5b506102b7611549565b005b3480156102c557600080fd5b506102e060048036038101906102db9190612fb1565b61155d565b005b3480156102ee57600080fd5b506102f76118d1565b6040516103049190613171565b60405180910390f35b34801561031957600080fd5b50610334600480360381019061032f919061318c565b6118fb565b60405161034191906131cc565b60405180910390f35b34801561035657600080fd5b50610371600480360381019061036c9190612ef0565b611920565b005b34801561037f57600080fd5b5061039a6004803603810190610395919061318c565b61197f565b005b3480156103a857600080fd5b506103c360048036038101906103be91906131e7565b611a8e565b6040516103d091906131cc565b60405180910390f35b3480156103e557600080fd5b5061040060048036038101906103fb919061318c565b611ac5565b60405161040e929190613214565b60405180910390f35b34801561042357600080fd5b5061043e600480360381019061043991906130bd565b611b06565b60405161044b9190613066565b60405180910390f35b34801561046057600080fd5b5061047b60048036038101906104769190613004565b611b27565b604051610489929190613214565b60405180910390f35b34801561049e57600080fd5b506104b960048036038101906104b49190613269565b611b65565b005b3480156104c757600080fd5b506104e260048036038101906104dd91906130bd565b611d0b565b005b3480156104f057600080fd5b5061050b600480360381019061050691906132a9565b611d8f565b005b34801561051957600080fd5b50610534600480360381019061052f9190612fb1565b611e12565b005b6127108161ffff16111561057f576040517f08c379a000000000000000000000000000000000000000000000000000000000815260040161057690613333565b60405180910390fd5b80609c60003373ffffffffffffffffffffffffffffffffffffffff1673ffffffffffffffffffffffffffffffffffffffff16815260200190815260200160002060006101000a81548161ffff021916908361ffff1602179055503373ffffffffffffffffffffffffffffffffffffffff167ff4eaba062863d26f46b81ed47ea2f6458cfd0c72a2686ec3dcd31177d240aab58260405161061f9190613066565b60405180910390a250565b8282336000609960008573ffffffffffffffffffffffffffffffffffffffff1673ffffffffffffffffffffffffffffffffffffffff168152602001908152602001600020600084815260200190815260200160002060008373ffffffffffffffffffffffffffffffffffffffff1673ffffffffffffffffffffffffffffffffffffffff1681526020019081526020016000206040518060400160405290816000820154815260200160018201548152505090506000816000015114806106fb57506106f3611fd3565b816020015111155b61073a576040517f08c379a00000000000000000000000000000000000000000000000000000000081526004016107319061339f565b60405180910390fd5b66038d7ea4c680003411610783576040517f08c379a000000000000000000000000000000000000000000000000000000000815260040161077a9061340b565b60405180910390fd5b61078c87611fdb565b6107cb576040517f08c379a00000000000000000000000000000000000000000000000000000000081526004016107c290613477565b60405180910390fd5b60008790508073ffffffffffffffffffffffffffffffffffffffff16636352211e886040518263ffffffff1660e01b815260040161080991906131cc565b60206040518083038186803b15801561082157600080fd5b505afa158015610835573d6000803e3d6000fd5b505050506040513d601f19601f8201168201806040525081019061085991906134ac565b73ffffffffffffffffffffffffffffffffffffffff163373ffffffffffffffffffffffffffffffffffffffff1614156108c7576040517f08c379a00000000000000000000000000000000000000000000000000000000081526004016108be90613525565b60405180910390fd5b60008614156108ed57620151806108dc611fd3565b6108e69190613574565b9550610906565b620151806108f9611fd3565b61090391906135a8565b95505b604051806040016040528034815260200187815250609960008a73ffffffffffffffffffffffffffffffffffffffff1673ffffffffffffffffffffffffffffffffffffffff168152602001908152602001600020600089815260200190815260200160002060003373ffffffffffffffffffffffffffffffffffffffff1673ffffffffffffffffffffffffffffffffffffffff1681526020019081526020016000206000820151816000015560208201518160010155905050609a60003373ffffffffffffffffffffffffffffffffffffffff1673ffffffffffffffffffffffffffffffffffffffff16815260200190815260200160002060405180604001604052803481526020018881525090806001815401808255809150506001900390600052602060002090600202016000909190919091506000820151816000015560208201518160010155505034609d60003373ffffffffffffffffffffffffffffffffffffffff1673ffffffffffffffffffffffffffffffffffffffff1681526020019081526020016000206000016000828254610aa491906135a8565b925050819055508773ffffffffffffffffffffffffffffffffffffffff163373ffffffffffffffffffffffffffffffffffffffff167f0c2598f084a085d4d27e8638b4306b07c633b1e724b3d27fc0af68714fe5402889348a604051610b0c939291906135fe565b60405180910390a35050505050505050565b60026065541415610b64576040517f08c379a0000000000000000000000000000000000000000000000000000000008152600401610b5b90613681565b60405180910390fd5b60026065819055508282826000609860008573ffffffffffffffffffffffffffffffffffffffff1673ffffffffffffffffffffffffffffffffffffffff168152602001908152602001600020600084815260200190815260200160002054905060008111610c07576040517f08c379a0000000000000000000000000000000000000000000000000000000008152600401610bfe906136ed565b60405180910390fd5b610c1287878761208d565b6000609860008973ffffffffffffffffffffffffffffffffffffffff1673ffffffffffffffffffffffffffffffffffffffff1681526020019081526020016000206000888152602001908152602001600020549050600086905060003390506000349050610c848b8b858588866121dc565b50505050505050506001606581905550505050565b609760009054906101000a900461ffff1681565b609760029054906101000a900473ffffffffffffffffffffffffffffffffffffffff1681565b60026065541415610d19576040517f08c379a0000000000000000000000000000000000000000000000000000000008152600401610d1090613681565b60405180910390fd5b60026065819055508282826000609960008573ffffffffffffffffffffffffffffffffffffffff1673ffffffffffffffffffffffffffffffffffffffff168152602001908152602001600020600084815260200190815260200160002060008373ffffffffffffffffffffffffffffffffffffffff1673ffffffffffffffffffffffffffffffffffffffff16815260200190815260200160002060405180604001604052908160008201548152602001600182015481525050905060008160000151118015610df25750610deb611fd3565b8160200151115b610e31576040517f08c379a0000000000000000000000000000000000000000000000000000000008152600401610e2890613759565b60405180910390fd5b610e3c87873361208d565b6000609960008973ffffffffffffffffffffffffffffffffffffffff1673ffffffffffffffffffffffffffffffffffffffff168152602001908152602001600020600088815260200190815260200160002060008773ffffffffffffffffffffffffffffffffffffffff1673ffffffffffffffffffffffffffffffffffffffff1681526020019081526020016000206040518060400160405290816000820154815260200160018201548152505090506000610ef6611fd3565b90506000610f04828961279a565b90508260000151811015610f4d576040517f08c379a0000000000000000000000000000000000000000000000000000000008152600401610f44906137c5565b60405180910390fd5b60003390506000899050610f6d8c8c848489600001518a600001516121dc565b8973ffffffffffffffffffffffffffffffffffffffff168c73ffffffffffffffffffffffffffffffffffffffff167f1911131efc06f8b35ef19454a244416c23f0cffd91e74ec4d1656a64ec363afe8d604051610fca91906131cc565b60405180910390a3609960008d73ffffffffffffffffffffffffffffffffffffffff1673ffffffffffffffffffffffffffffffffffffffff16815260200190815260200160002060008c815260200190815260200160002060008b73ffffffffffffffffffffffffffffffffffffffff1673ffffffffffffffffffffffffffffffffffffffff168152602001908152602001600020600080820160009055600182016000905550505050505050505050506001606581905550505050565b6000611092611fd3565b9050600061109f82611a8e565b905060008114156110e5576040517f08c379a00000000000000000000000000000000000000000000000000000000081526004016110dc90613831565b60405180910390fd5b80471015611128576040517f08c379a000000000000000000000000000000000000000000000000000000000815260040161111f9061389d565b60405180910390fd5b6000609d60003373ffffffffffffffffffffffffffffffffffffffff1673ffffffffffffffffffffffffffffffffffffffff1681526020019081526020016000206040518060600160405290816000820154815260200160018201548152602001600282015481525050905061119e833361279a565b81600001516111ad9190613574565b816000018181525050600081602001818152505060008160400181815250506111d5836128c7565b60003390508073ffffffffffffffffffffffffffffffffffffffff166108fc849081150290604051600060405180830381858888f19350505050158015611220573d6000803e3d6000fd5b5050505050565b609b6020528060005260406000206000915090508060000160009054906101000a900461ffff16908060010154905082565b6127108161ffff1611156112a2576040517f08c379a000000000000000000000000000000000000000000000000000000000815260040161129990613333565b60405180910390fd5b6112ab82611fdb565b6112ea576040517f08c379a00000000000000000000000000000000000000000000000000000000081526004016112e190613477565b60405180910390fd5b60008290508073ffffffffffffffffffffffffffffffffffffffff16638da5cb5b6040518163ffffffff1660e01b815260040160206040518083038186803b15801561133557600080fd5b505afa158015611349573d6000803e3d6000fd5b505050506040513d601f19601f8201168201806040525081019061136d91906134ac565b73ffffffffffffffffffffffffffffffffffffffff163373ffffffffffffffffffffffffffffffffffffffff16146113da576040517f08c379a00000000000000000000000000000000000000000000000000000000081526004016113d190613909565b60405180910390fd5b6000609b60008573ffffffffffffffffffffffffffffffffffffffff1673ffffffffffffffffffffffffffffffffffffffff1681526020019081526020016000206040518060400160405290816000820160009054906101000a900461ffff1661ffff1661ffff168152602001600182015481525050905060405180604001604052808461ffff1681526020018260200151815250609b60008673ffffffffffffffffffffffffffffffffffffffff1673ffffffffffffffffffffffffffffffffffffffff16815260200190815260200160002060008201518160000160006101000a81548161ffff021916908361ffff160217905550602082015181600101559050508373ffffffffffffffffffffffffffffffffffffffff163373ffffffffffffffffffffffffffffffffffffffff167f3d01e4a63a15c293fb21704a30354cf8fbf55355606eca15bce5602e409f3ad78560405161153b9190613066565b60405180910390a350505050565b611551612a01565b61155b6000612a7f565b565b8282336000609860008573ffffffffffffffffffffffffffffffffffffffff1673ffffffffffffffffffffffffffffffffffffffff1681526020019081526020016000206000848152602001908152602001600020549050600081146115f8576040517f08c379a00000000000000000000000000000000000000000000000000000000081526004016115ef90613975565b60405180910390fd5b61160187611fdb565b156117d15760008790503373ffffffffffffffffffffffffffffffffffffffff168173ffffffffffffffffffffffffffffffffffffffff16636352211e896040518263ffffffff1660e01b815260040161165b91906131cc565b60206040518083038186803b15801561167357600080fd5b505afa158015611687573d6000803e3d6000fd5b505050506040513d601f19601f820116820180604052508101906116ab91906134ac565b73ffffffffffffffffffffffffffffffffffffffff1614611701576040517f08c379a00000000000000000000000000000000000000000000000000000000081526004016116f8906139e1565b60405180910390fd5b8073ffffffffffffffffffffffffffffffffffffffff1663e985e9c533306040518363ffffffff1660e01b815260040161173c929190613a01565b60206040518083038186803b15801561175457600080fd5b505afa158015611768573d6000803e3d6000fd5b505050506040513d601f19601f8201168201806040525081019061178c9190613a62565b6117cb576040517f08c379a00000000000000000000000000000000000000000000000000000000081526004016117c290613b01565b60405180910390fd5b5061180c565b6040517f08c379a000000000000000000000000000000000000000000000000000000000815260040161180390613477565b60405180910390fd5b84609860008973ffffffffffffffffffffffffffffffffffffffff1673ffffffffffffffffffffffffffffffffffffffff1681526020019081526020016000206000888152602001908152602001600020819055508673ffffffffffffffffffffffffffffffffffffffff163373ffffffffffffffffffffffffffffffffffffffff167fd547e933094f12a9159076970143ebe73234e64480317844b0dcb36117116de488886040516118c0929190613214565b60405180910390a350505050505050565b6000603360009054906101000a900473ffffffffffffffffffffffffffffffffffffffff16905090565b6098602052816000526040600020602052806000526040600020600091509150505481565b611928612a01565b80609760006101000a81548161ffff021916908361ffff1602179055507fcabead39256298cdf7d1228eee68b47bc54a2192283d8d93574da08d2d7ac303816040516119749190613066565b60405180910390a150565b600260655414156119c5576040517f08c379a00000000000000000000000000000000000000000000000000000000081526004016119bc90613681565b60405180910390fd5b60026065819055508181336000609860008573ffffffffffffffffffffffffffffffffffffffff1673ffffffffffffffffffffffffffffffffffffffff168152602001908152602001600020600084815260200190815260200160002054905060008111611a68576040517f08c379a0000000000000000000000000000000000000000000000000000000008152600401611a5f906136ed565b60405180910390fd5b611a7386863361208d565b611a7e868633612b45565b5050505060016065819055505050565b6000611a98612c03565b611aa0612c7b565b611aaa843361279a565b611ab491906135a8565b611abe91906135a8565b9050919050565b609a6020528160005260406000208181548110611ae157600080fd5b9060005260206000209060020201600091509150508060000154908060010154905082565b609c6020528060005260406000206000915054906101000a900461ffff1681565b609960205282600052604060002060205281600052604060002060205280600052604060002060009250925050508060000154908060010154905082565b60008060019054906101000a900460ff16159050808015611b965750600160008054906101000a900460ff1660ff16105b80611bc35750611ba530612cf3565b158015611bc25750600160008054906101000a900460ff1660ff16145b5b611c02576040517f08c379a0000000000000000000000000000000000000000000000000000000008152600401611bf990613b93565b60405180910390fd5b60016000806101000a81548160ff021916908360ff1602179055508015611c3f576001600060016101000a81548160ff0219169083151502179055505b82609760006101000a81548161ffff021916908361ffff16021790555081609760026101000a81548173ffffffffffffffffffffffffffffffffffffffff021916908373ffffffffffffffffffffffffffffffffffffffff160217905550611ca5612d16565b611cad612d6f565b8015611d065760008060016101000a81548160ff0219169083151502179055507f7f26b83ff96e1f2b6a682f133852f6798a09c465da95921460cefb38474024986001604051611cfd9190613c05565b60405180910390a15b505050565b611d13612a01565b600073ffffffffffffffffffffffffffffffffffffffff168173ffffffffffffffffffffffffffffffffffffffff161415611d83576040517f08c379a0000000000000000000000000000000000000000000000000000000008152600401611d7a90613c92565b60405180910390fd5b611d8c81612a7f565b50565b611d97612a01565b80609760026101000a81548173ffffffffffffffffffffffffffffffffffffffff021916908373ffffffffffffffffffffffffffffffffffffffff1602179055507fe57e7c1f36cc83fade34e32351e6eee7eb9da532662b1b5da10c631e8222aca781604051611e0791906130a2565b60405180910390a150565b60026065541415611e58576040517f08c379a0000000000000000000000000000000000000000000000000000000008152600401611e4f90613681565b60405180910390fd5b60026065819055508282336000609860008573ffffffffffffffffffffffffffffffffffffffff1673ffffffffffffffffffffffffffffffffffffffff168152602001908152602001600020600084815260200190815260200160002054905060008111611efb576040517f08c379a0000000000000000000000000000000000000000000000000000000008152600401611ef2906136ed565b60405180910390fd5b611f0687873361208d565b84609860008973ffffffffffffffffffffffffffffffffffffffff1673ffffffffffffffffffffffffffffffffffffffff1681526020019081526020016000206000888152602001908152602001600020819055508673ffffffffffffffffffffffffffffffffffffffff163373ffffffffffffffffffffffffffffffffffffffff167f3c33e65e8698294810b631d476d60b44425303828da0b1f8b635231bfda12be28888604051611fba929190613214565b60405180910390a3505050506001606581905550505050565b600042905090565b60008173ffffffffffffffffffffffffffffffffffffffff166301ffc9a77f80ac58cd000000000000000000000000000000000000000000000000000000006040518263ffffffff1660e01b81526004016120369190613ced565b60206040518083038186803b15801561204e57600080fd5b505afa158015612062573d6000803e3d6000fd5b505050506040513d601f19601f820116820180604052508101906120869190613a62565b9050919050565b61209683611fdb565b1561219c5760008390508073ffffffffffffffffffffffffffffffffffffffff16636352211e846040518263ffffffff1660e01b81526004016120d991906131cc565b60206040518083038186803b1580156120f157600080fd5b505afa158015612105573d6000803e3d6000fd5b505050506040513d601f19601f8201168201806040525081019061212991906134ac565b73ffffffffffffffffffffffffffffffffffffffff168273ffffffffffffffffffffffffffffffffffffffff1614612196576040517f08c379a000000000000000000000000000000000000000000000000000000000815260040161218d906139e1565b60405180910390fd5b506121d7565b6040517f08c379a00000000000000000000000000000000000000000000000000000000081526004016121ce90613477565b60405180910390fd5b505050565b8181101561221f576040517f08c379a000000000000000000000000000000000000000000000000000000000815260040161221690613d54565b60405180910390fd5b61222886611fdb565b612267576040517f08c379a000000000000000000000000000000000000000000000000000000000815260040161225e90613477565b60405180910390fd5b600061228383609760009054906101000a900461ffff16612dc8565b90506000609760029054906101000a900473ffffffffffffffffffffffffffffffffffffffff1673ffffffffffffffffffffffffffffffffffffffff16826040516122cd90613da5565b60006040518083038185875af1925050503d806000811461230a576040519150601f19603f3d011682016040523d82523d6000602084013e61230f565b606091505b5050905080612353576040517f08c379a000000000000000000000000000000000000000000000000000000000815260040161234a90613e06565b60405180910390fd5b6000609c60008873ffffffffffffffffffffffffffffffffffffffff1673ffffffffffffffffffffffffffffffffffffffff16815260200190815260200160002060009054906101000a900461ffff16905060008161ffff16146124285760006123bd8683612dc8565b905080609d60008a73ffffffffffffffffffffffffffffffffffffffff1673ffffffffffffffffffffffffffffffffffffffff168152602001908152602001600020600101600082825461241191906135a8565b92505081905550808461242491906135a8565b9350505b6000609b60008b73ffffffffffffffffffffffffffffffffffffffff1673ffffffffffffffffffffffffffffffffffffffff1681526020019081526020016000206040518060400160405290816000820160009054906101000a900461ffff1661ffff1661ffff16815260200160018201548152505090506000816000015161ffff16146124eb5760006124c0878360000151612dc8565b905080826020018181516124d491906135a8565b9150818152505080856124e791906135a8565b9450505b8973ffffffffffffffffffffffffffffffffffffffff1663da96577885886125139190613574565b8a6040518363ffffffff1660e01b81526004016125309190613171565b6000604051808303818588803b15801561254957600080fd5b505af115801561255d573d6000803e3d6000fd5b50505050508973ffffffffffffffffffffffffffffffffffffffff166342842e0e89898c6040518463ffffffff1660e01b815260040161259f93929190613e26565b600060405180830381600087803b1580156125b957600080fd5b505af11580156125cd573d6000803e3d6000fd5b50505050858511156126bc5760008773ffffffffffffffffffffffffffffffffffffffff1687876125fe9190613574565b60405161260a90613da5565b60006040518083038185875af1925050503d8060008114612647576040519150601f19603f3d011682016040523d82523d6000602084013e61264c565b606091505b50509050806126ba5786866126619190613574565b609d60008a73ffffffffffffffffffffffffffffffffffffffff1673ffffffffffffffffffffffffffffffffffffffff16815260200190815260200160002060020160008282546126b291906135a8565b925050819055505b505b8973ffffffffffffffffffffffffffffffffffffffff168773ffffffffffffffffffffffffffffffffffffffff168973ffffffffffffffffffffffffffffffffffffffff167fee0ddd6454e05c1b33a8dfcb6cc52418d28020e96e21228bb601f5dbb6790cd08c8a604051612732929190613214565b60405180910390a4609860008b73ffffffffffffffffffffffffffffffffffffffff1673ffffffffffffffffffffffffffffffffffffffff16815260200190815260200160002060008a81526020019081526020016000206000905550505050505050505050565b600080609a60008473ffffffffffffffffffffffffffffffffffffffff1673ffffffffffffffffffffffffffffffffffffffff168152602001908152602001600020805480602002602001604051908101604052809291908181526020016000905b82821015612842578382906000526020600020906002020160405180604001604052908160008201548152602001600182015481525050815260200190600101906127fc565b5050505090506000805b82518110156128bb578583828151811061286957612868613e5d565b5b60200260200101516020015111156128a85782818151811061288e5761288d613e5d565b5b602002602001015160000151826128a591906135a8565b91505b80806128b390613e8c565b91505061284c565b50809250505092915050565b6000609a60003373ffffffffffffffffffffffffffffffffffffffff1673ffffffffffffffffffffffffffffffffffffffff168152602001908152602001600020905060005b81805490508110156129fc578282828154811061292d5761292c613e5d565b5b90600052602060002090600202016001015410156129e95781600183805490506129579190613574565b8154811061296857612967613e5d565b5b906000526020600020906002020182828154811061298957612988613e5d565b5b90600052602060002090600202016000820154816000015560018201548160010155905050818054806129bf576129be613ed5565b5b60019003818190600052602060002090600202016000808201600090556001820160009055505090555b80806129f490613e8c565b91505061290d565b505050565b612a09612def565b73ffffffffffffffffffffffffffffffffffffffff16612a276118d1565b73ffffffffffffffffffffffffffffffffffffffff1614612a7d576040517f08c379a0000000000000000000000000000000000000000000000000000000008152600401612a7490613f50565b60405180910390fd5b565b6000603360009054906101000a900473ffffffffffffffffffffffffffffffffffffffff16905081603360006101000a81548173ffffffffffffffffffffffffffffffffffffffff021916908373ffffffffffffffffffffffffffffffffffffffff1602179055508173ffffffffffffffffffffffffffffffffffffffff168173ffffffffffffffffffffffffffffffffffffffff167f8be0079c531659141344cd1fd0a4f28419497f9722a3daafe3b4186f6b6457e060405160405180910390a35050565b609860008473ffffffffffffffffffffffffffffffffffffffff1673ffffffffffffffffffffffffffffffffffffffff1681526020019081526020016000206000838152602001908152602001600020600090558273ffffffffffffffffffffffffffffffffffffffff168173ffffffffffffffffffffffffffffffffffffffff167f9ba1a3cb55ce8d63d072a886f94d2a744f50cddf82128e897d0661f5ec62315884604051612bf691906131cc565b60405180910390a3505050565b600080609d60003373ffffffffffffffffffffffffffffffffffffffff1673ffffffffffffffffffffffffffffffffffffffff16815260200190815260200160002060405180606001604052908160008201548152602001600182015481526020016002820154815250509050806040015191505090565b600080609d60003373ffffffffffffffffffffffffffffffffffffffff1673ffffffffffffffffffffffffffffffffffffffff16815260200190815260200160002060405180606001604052908160008201548152602001600182015481526020016002820154815250509050806020015191505090565b6000808273ffffffffffffffffffffffffffffffffffffffff163b119050919050565b600060019054906101000a900460ff16612d65576040517f08c379a0000000000000000000000000000000000000000000000000000000008152600401612d5c90613fe2565b60405180910390fd5b612d6d612df7565b565b600060019054906101000a900460ff16612dbe576040517f08c379a0000000000000000000000000000000000000000000000000000000008152600401612db590613fe2565b60405180910390fd5b612dc6612e58565b565b60006127108261ffff1684612ddd9190614002565b612de7919061408b565b905092915050565b600033905090565b600060019054906101000a900460ff16612e46576040517f08c379a0000000000000000000000000000000000000000000000000000000008152600401612e3d90613fe2565b60405180910390fd5b612e56612e51612def565b612a7f565b565b600060019054906101000a900460ff16612ea7576040517f08c379a0000000000000000000000000000000000000000000000000000000008152600401612e9e90613fe2565b60405180910390fd5b6001606581905550565b600080fd5b600061ffff82169050919050565b612ecd81612eb6565b8114612ed857600080fd5b50565b600081359050612eea81612ec4565b92915050565b600060208284031215612f0657612f05612eb1565b5b6000612f1484828501612edb565b91505092915050565b600073ffffffffffffffffffffffffffffffffffffffff82169050919050565b6000612f4882612f1d565b9050919050565b612f5881612f3d565b8114612f6357600080fd5b50565b600081359050612f7581612f4f565b92915050565b6000819050919050565b612f8e81612f7b565b8114612f9957600080fd5b50565b600081359050612fab81612f85565b92915050565b600080600060608486031215612fca57612fc9612eb1565b5b6000612fd886828701612f66565b9350506020612fe986828701612f9c565b9250506040612ffa86828701612f9c565b9150509250925092565b60008060006060848603121561301d5761301c612eb1565b5b600061302b86828701612f66565b935050602061303c86828701612f9c565b925050604061304d86828701612f66565b9150509250925092565b61306081612eb6565b82525050565b600060208201905061307b6000830184613057565b92915050565b600061308c82612f1d565b9050919050565b61309c81613081565b82525050565b60006020820190506130b76000830184613093565b92915050565b6000602082840312156130d3576130d2612eb1565b5b60006130e184828501612f66565b91505092915050565b6130f381612f7b565b82525050565b600060408201905061310e6000830185613057565b61311b60208301846130ea565b9392505050565b6000806040838503121561313957613138612eb1565b5b600061314785828601612f66565b925050602061315885828601612edb565b9150509250929050565b61316b81612f3d565b82525050565b60006020820190506131866000830184613162565b92915050565b600080604083850312156131a3576131a2612eb1565b5b60006131b185828601612f66565b92505060206131c285828601612f9c565b9150509250929050565b60006020820190506131e160008301846130ea565b92915050565b6000602082840312156131fd576131fc612eb1565b5b600061320b84828501612f9c565b91505092915050565b600060408201905061322960008301856130ea565b61323660208301846130ea565b9392505050565b61324681613081565b811461325157600080fd5b50565b6000813590506132638161323d565b92915050565b600080604083850312156132805761327f612eb1565b5b600061328e85828601612edb565b925050602061329f85828601613254565b9150509250929050565b6000602082840312156132bf576132be612eb1565b5b60006132cd84828501613254565b91505092915050565b600082825260208201905092915050565b7f696e76616c696420726f79616c74790000000000000000000000000000000000600082015250565b600061331d600f836132d6565b9150613328826132e7565b602082019050919050565b6000602082019050818103600083015261334c81613310565b9050919050565b7f6f6666657220616c726561647920637265617465640000000000000000000000600082015250565b60006133896015836132d6565b915061339482613353565b602082019050919050565b600060208201905081810360008301526133b88161337c565b9050919050565b7f6f6666657220616d6f756e7420746f6f20736d616c6c00000000000000000000600082015250565b60006133f56016836132d6565b9150613400826133bf565b602082019050919050565b60006020820190508181036000830152613424816133e8565b9050919050565b7f696e76616c6964206e6674206164647265737300000000000000000000000000600082015250565b60006134616013836132d6565b915061346c8261342b565b602082019050919050565b6000602082019050818103600083015261349081613454565b9050919050565b6000815190506134a681612f4f565b92915050565b6000602082840312156134c2576134c1612eb1565b5b60006134d084828501613497565b91505092915050565b7f63616e6e6f742073656c66206f66666572000000000000000000000000000000600082015250565b600061350f6011836132d6565b915061351a826134d9565b602082019050919050565b6000602082019050818103600083015261353e81613502565b9050919050565b7f4e487b7100000000000000000000000000000000000000000000000000000000600052601160045260246000fd5b600061357f82612f7b565b915061358a83612f7b565b92508282101561359d5761359c613545565b5b828203905092915050565b60006135b382612f7b565b91506135be83612f7b565b9250827fffffffffffffffffffffffffffffffffffffffffffffffffffffffffffffffff038211156135f3576135f2613545565b5b828201905092915050565b600060608201905061361360008301866130ea565b61362060208301856130ea565b61362d60408301846130ea565b949350505050565b7f5265656e7472616e637947756172643a207265656e7472616e742063616c6c00600082015250565b600061366b601f836132d6565b915061367682613635565b602082019050919050565b6000602082019050818103600083015261369a8161365e565b9050919050565b7f6e6f74206c6973746564206974656d0000000000000000000000000000000000600082015250565b60006136d7600f836132d6565b91506136e2826136a1565b602082019050919050565b60006020820190508181036000830152613706816136ca565b9050919050565b7f6f66666572206e6f7420657869737473206f7220657870697265640000000000600082015250565b6000613743601b836132d6565b915061374e8261370d565b602082019050919050565b6000602082019050818103600083015261377281613736565b9050919050565b7f62616c616e6365206e6f7420656e6f75676820746f20627579206974656d0000600082015250565b60006137af601e836132d6565b91506137ba82613779565b602082019050919050565b600060208201905081810360008301526137de816137a2565b9050919050565b7f6e6f7468696e6720746f20776974686472617700000000000000000000000000600082015250565b600061381b6013836132d6565b9150613826826137e5565b602082019050919050565b6000602082019050818103600083015261384a8161380e565b9050919050565b7f62616c616e6365206e6f7420656e6f75676820746f2077697468647261770000600082015250565b6000613887601e836132d6565b915061389282613851565b602082019050919050565b600060208201905081810360008301526138b68161387a565b9050919050565b7f75736572206e6f7420617070726f76656420666f722074686973206974656d00600082015250565b60006138f3601f836132d6565b91506138fe826138bd565b602082019050919050565b60006020820190508181036000830152613922816138e6565b9050919050565b7f616c7265616479206c6973746564000000000000000000000000000000000000600082015250565b600061395f600e836132d6565b915061396a82613929565b602082019050919050565b6000602082019050818103600083015261398e81613952565b9050919050565b7f6e6f74206f776e696e67206974656d0000000000000000000000000000000000600082015250565b60006139cb600f836132d6565b91506139d682613995565b602082019050919050565b600060208201905081810360008301526139fa816139be565b9050919050565b6000604082019050613a166000830185613162565b613a236020830184613162565b9392505050565b60008115159050919050565b613a3f81613a2a565b8114613a4a57600080fd5b50565b600081519050613a5c81613a36565b92915050565b600060208284031215613a7857613a77612eb1565b5b6000613a8684828501613a4d565b91505092915050565b7f6172746f6e67206e6f7420617070726f76656420666f7220746869732069746560008201527f6d00000000000000000000000000000000000000000000000000000000000000602082015250565b6000613aeb6021836132d6565b9150613af682613a8f565b604082019050919050565b60006020820190508181036000830152613b1a81613ade565b9050919050565b7f496e697469616c697a61626c653a20636f6e747261637420697320616c72656160008201527f647920696e697469616c697a6564000000000000000000000000000000000000602082015250565b6000613b7d602e836132d6565b9150613b8882613b21565b604082019050919050565b60006020820190508181036000830152613bac81613b70565b9050919050565b6000819050919050565b600060ff82169050919050565b6000819050919050565b6000613bef613bea613be584613bb3565b613bca565b613bbd565b9050919050565b613bff81613bd4565b82525050565b6000602082019050613c1a6000830184613bf6565b92915050565b7f4f776e61626c653a206e6577206f776e657220697320746865207a65726f206160008201527f6464726573730000000000000000000000000000000000000000000000000000602082015250565b6000613c7c6026836132d6565b9150613c8782613c20565b604082019050919050565b60006020820190508181036000830152613cab81613c6f565b9050919050565b60007fffffffff0000000000000000000000000000000000000000000000000000000082169050919050565b613ce781613cb2565b82525050565b6000602082019050613d026000830184613cde565b92915050565b7f7061796d656e7420616d6f756e74206e6f7420656e6f75676800000000000000600082015250565b6000613d3e6019836132d6565b9150613d4982613d08565b602082019050919050565b60006020820190508181036000830152613d6d81613d31565b9050919050565b600081905092915050565b50565b6000613d8f600083613d74565b9150613d9a82613d7f565b600082019050919050565b6000613db082613d82565b9150819050919050565b7f466565207472616e73666572206661696c656400000000000000000000000000600082015250565b6000613df06013836132d6565b9150613dfb82613dba565b602082019050919050565b60006020820190508181036000830152613e1f81613de3565b9050919050565b6000606082019050613e3b6000830186613162565b613e486020830185613162565b613e5560408301846130ea565b949350505050565b7f4e487b7100000000000000000000000000000000000000000000000000000000600052603260045260246000fd5b6000613e9782612f7b565b91507fffffffffffffffffffffffffffffffffffffffffffffffffffffffffffffffff821415613eca57613ec9613545565b5b600182019050919050565b7f4e487b7100000000000000000000000000000000000000000000000000000000600052603160045260246000fd5b7f4f776e61626c653a2063616c6c6572206973206e6f7420746865206f776e6572600082015250565b6000613f3a6020836132d6565b9150613f4582613f04565b602082019050919050565b60006020820190508181036000830152613f6981613f2d565b9050919050565b7f496e697469616c697a61626c653a20636f6e7472616374206973206e6f74206960008201527f6e697469616c697a696e67000000000000000000000000000000000000000000602082015250565b6000613fcc602b836132d6565b9150613fd782613f70565b604082019050919050565b60006020820190508181036000830152613ffb81613fbf565b9050919050565b600061400d82612f7b565b915061401883612f7b565b9250817fffffffffffffffffffffffffffffffffffffffffffffffffffffffffffffffff048311821515161561405157614050613545565b5b828202905092915050565b7f4e487b7100000000000000000000000000000000000000000000000000000000600052601260045260246000fd5b600061409682612f7b565b91506140a183612f7b565b9250826140b1576140b061405c565b5b82820490509291505056fea26469706673582212206be84a27147f4cb4b722f7a5f90f589a37059d73ea0ae0ce0f043462b8d63f2b64736f6c63430008090033",
  "linkReferences": {},
  "deployedLinkReferences": {}
}