{
  "_format": "hh-sol-artifact-1",
  "contractName": "ArtongMarketplace",
  "sourceName": "contracts/ArtongMarketplace.sol",
  "abi": [
    {
      "anonymous": false,
      "inputs": [
        {
          "indexed": true,
          "internalType": "address",
          "name": "user",
          "type": "address"
        },
        {
          "indexed": false,
          "internalType": "int256",
          "name": "amount",
          "type": "int256"
        },
        {
          "indexed": false,
          "internalType": "uint256",
          "name": "balance",
          "type": "uint256"
        }
      ],
      "name": "ArtongBalanceUpdated",
      "type": "event"
    },
    {
      "anonymous": false,
      "inputs": [
        {
          "indexed": false,
          "internalType": "uint8",
          "name": "version",
          "type": "uint8"
        }
      ],
      "name": "Initialized",
      "type": "event"
    },
    {
      "anonymous": false,
      "inputs": [
        {
          "indexed": true,
          "internalType": "address",
          "name": "owner",
          "type": "address"
        },
        {
          "indexed": true,
          "internalType": "address",
          "name": "nft",
          "type": "address"
        },
        {
          "indexed": false,
          "internalType": "uint256",
          "name": "tokenId",
          "type": "uint256"
        }
      ],
      "name": "ItemCanceled",
      "type": "event"
    },
    {
      "anonymous": false,
      "inputs": [
        {
          "indexed": true,
          "internalType": "address",
          "name": "owner",
          "type": "address"
        },
        {
          "indexed": true,
          "internalType": "address",
          "name": "nft",
          "type": "address"
        },
        {
          "indexed": false,
          "internalType": "uint256",
          "name": "tokenId",
          "type": "uint256"
        },
        {
          "indexed": false,
          "internalType": "uint256",
          "name": "price",
          "type": "uint256"
        }
      ],
      "name": "ItemListed",
      "type": "event"
    },
    {
      "anonymous": false,
      "inputs": [
        {
          "indexed": true,
          "internalType": "address",
          "name": "seller",
          "type": "address"
        },
        {
          "indexed": true,
          "internalType": "address",
          "name": "buyer",
          "type": "address"
        },
        {
          "indexed": true,
          "internalType": "address",
          "name": "nft",
          "type": "address"
        },
        {
          "indexed": false,
          "internalType": "uint256",
          "name": "tokenId",
          "type": "uint256"
        },
        {
          "indexed": false,
          "internalType": "uint256",
          "name": "price",
          "type": "uint256"
        }
      ],
      "name": "ItemSold",
      "type": "event"
    },
    {
      "anonymous": false,
      "inputs": [
        {
          "indexed": true,
          "internalType": "address",
          "name": "owner",
          "type": "address"
        },
        {
          "indexed": true,
          "internalType": "address",
          "name": "nft",
          "type": "address"
        },
        {
          "indexed": false,
          "internalType": "uint256",
          "name": "tokenId",
          "type": "uint256"
        },
        {
          "indexed": false,
          "internalType": "uint256",
          "name": "newPrice",
          "type": "uint256"
        }
      ],
      "name": "ItemUpdated",
      "type": "event"
    },
    {
      "anonymous": false,
      "inputs": [
        {
          "indexed": true,
          "internalType": "address",
          "name": "owner",
          "type": "address"
        },
        {
          "indexed": true,
          "internalType": "address",
          "name": "nft",
          "type": "address"
        },
        {
          "indexed": false,
          "internalType": "uint256",
          "name": "tokenId",
          "type": "uint256"
        },
        {
          "indexed": false,
          "internalType": "uint256",
          "name": "price",
          "type": "uint256"
        }
      ],
      "name": "ListedItemSold",
      "type": "event"
    },
    {
      "anonymous": false,
      "inputs": [
        {
          "indexed": false,
          "internalType": "uint256",
          "name": "offerId",
          "type": "uint256"
        },
        {
          "indexed": true,
          "internalType": "address",
          "name": "nft",
          "type": "address"
        },
        {
          "indexed": false,
          "internalType": "uint256",
          "name": "tokenId",
          "type": "uint256"
        },
        {
          "indexed": true,
          "internalType": "address",
          "name": "creator",
          "type": "address"
        }
      ],
      "name": "OfferAccepted",
      "type": "event"
    },
    {
      "anonymous": false,
      "inputs": [
        {
          "indexed": false,
          "internalType": "uint256",
          "name": "offerId",
          "type": "uint256"
        },
        {
          "indexed": true,
          "internalType": "address",
          "name": "creator",
          "type": "address"
        },
        {
          "indexed": true,
          "internalType": "address",
          "name": "nft",
          "type": "address"
        },
        {
          "indexed": false,
          "internalType": "uint256",
          "name": "tokenId",
          "type": "uint256"
        },
        {
          "indexed": false,
          "internalType": "uint256",
          "name": "price",
          "type": "uint256"
        },
        {
          "indexed": false,
          "internalType": "uint256",
          "name": "deadline",
          "type": "uint256"
        }
      ],
      "name": "OfferCreated",
      "type": "event"
    },
    {
      "anonymous": false,
      "inputs": [
        {
          "indexed": true,
          "internalType": "address",
          "name": "previousOwner",
          "type": "address"
        },
        {
          "indexed": true,
          "internalType": "address",
          "name": "newOwner",
          "type": "address"
        }
      ],
      "name": "OwnershipTransferred",
      "type": "event"
    },
    {
      "anonymous": false,
      "inputs": [
        {
          "indexed": true,
          "internalType": "address",
          "name": "sender",
          "type": "address"
        },
        {
          "indexed": false,
          "internalType": "uint256",
          "name": "amount",
          "type": "uint256"
        }
      ],
      "name": "Received",
      "type": "event"
    },
    {
      "anonymous": false,
      "inputs": [
        {
          "indexed": true,
          "internalType": "address",
          "name": "collectionOwner",
          "type": "address"
        },
        {
          "indexed": true,
          "internalType": "address",
          "name": "nft",
          "type": "address"
        },
        {
          "indexed": false,
          "internalType": "uint16",
          "name": "royalty",
          "type": "uint16"
        }
      ],
      "name": "UpdateCollectionRoyalty",
      "type": "event"
    },
    {
      "anonymous": false,
      "inputs": [
        {
          "indexed": false,
          "internalType": "uint16",
          "name": "platformFee",
          "type": "uint16"
        }
      ],
      "name": "UpdatePlatformFee",
      "type": "event"
    },
    {
      "anonymous": false,
      "inputs": [
        {
          "indexed": false,
          "internalType": "address payable",
          "name": "platformFeeRecipient",
          "type": "address"
        }
      ],
      "name": "UpdatePlatformFeeRecipient",
      "type": "event"
    },
    {
      "anonymous": false,
      "inputs": [
        {
          "indexed": true,
          "internalType": "address",
          "name": "minter",
          "type": "address"
        },
        {
          "indexed": true,
          "internalType": "address",
          "name": "nft",
          "type": "address"
        },
        {
          "indexed": false,
          "internalType": "uint256",
          "name": "tokenId",
          "type": "uint256"
        },
        {
          "indexed": false,
          "internalType": "uint16",
          "name": "royalty",
          "type": "uint16"
        }
      ],
      "name": "UpdateTokenRoyalty",
      "type": "event"
    },
    {
      "inputs": [
        {
          "internalType": "address",
          "name": "_nftAddress",
          "type": "address"
        },
        {
          "internalType": "uint256",
          "name": "_tokenId",
          "type": "uint256"
        },
        {
          "internalType": "address",
          "name": "_creator",
          "type": "address"
        }
      ],
      "name": "acceptOffer",
      "outputs": [],
      "stateMutability": "nonpayable",
      "type": "function"
    },
    {
      "inputs": [
        {
          "internalType": "address",
          "name": "_nftAddress",
          "type": "address"
        },
        {
          "internalType": "uint256",
          "name": "_tokenId",
          "type": "uint256"
        },
        {
          "internalType": "address",
          "name": "_owner",
          "type": "address"
        }
      ],
      "name": "buyItem",
      "outputs": [],
      "stateMutability": "payable",
      "type": "function"
    },
    {
      "inputs": [
        {
          "internalType": "address",
          "name": "_nftAddress",
          "type": "address"
        },
        {
          "internalType": "uint256",
          "name": "_tokenId",
          "type": "uint256"
        }
      ],
      "name": "cancelListing",
      "outputs": [],
      "stateMutability": "nonpayable",
      "type": "function"
    },
    {
      "inputs": [
        {
          "internalType": "address",
          "name": "_nftAddress",
          "type": "address"
        },
        {
          "internalType": "uint256",
          "name": "_tokenId",
          "type": "uint256"
        },
        {
          "internalType": "uint256",
          "name": "_deadline",
          "type": "uint256"
        }
      ],
      "name": "createOffer",
      "outputs": [],
      "stateMutability": "payable",
      "type": "function"
    },
    {
      "inputs": [],
      "name": "feeReceipient",
      "outputs": [
        {
          "internalType": "address payable",
          "name": "",
          "type": "address"
        }
      ],
      "stateMutability": "view",
      "type": "function"
    },
    {
      "inputs": [
        {
          "internalType": "uint256",
          "name": "_moment",
          "type": "uint256"
        },
        {
          "internalType": "address",
          "name": "user",
          "type": "address"
        }
      ],
      "name": "getArtongBalance",
      "outputs": [
        {
          "internalType": "uint256",
          "name": "",
          "type": "uint256"
        }
      ],
      "stateMutability": "view",
      "type": "function"
    },
    {
      "inputs": [
        {
          "internalType": "address",
          "name": "_nftAddress",
          "type": "address"
        }
      ],
      "name": "getCollectionRoyalty",
      "outputs": [
        {
          "components": [
            {
              "internalType": "uint16",
              "name": "royalty",
              "type": "uint16"
            },
            {
              "internalType": "uint256",
              "name": "royaltyBalance",
              "type": "uint256"
            }
          ],
          "internalType": "struct ArtongMarketplace.CollectionRoyalty",
          "name": "",
          "type": "tuple"
        }
      ],
      "stateMutability": "view",
      "type": "function"
    },
    {
      "inputs": [
        {
          "internalType": "uint256",
          "name": "_moment",
          "type": "uint256"
        },
        {
          "internalType": "address",
          "name": "user",
          "type": "address"
        }
      ],
      "name": "getOfferBalance",
      "outputs": [
        {
          "internalType": "uint256",
          "name": "",
          "type": "uint256"
        }
      ],
      "stateMutability": "view",
      "type": "function"
    },
    {
      "inputs": [
        {
          "internalType": "uint16",
          "name": "_platformFee",
          "type": "uint16"
        },
        {
          "internalType": "address payable",
          "name": "_feeRecipient",
          "type": "address"
        }
      ],
      "name": "initialize",
      "outputs": [],
      "stateMutability": "nonpayable",
      "type": "function"
    },
    {
      "inputs": [
        {
          "internalType": "address",
          "name": "_nftAddress",
          "type": "address"
        },
        {
          "internalType": "uint256",
          "name": "_tokenId",
          "type": "uint256"
        },
        {
          "internalType": "uint256",
          "name": "_price",
          "type": "uint256"
        }
      ],
      "name": "listItem",
      "outputs": [],
      "stateMutability": "nonpayable",
      "type": "function"
    },
    {
      "inputs": [],
      "name": "offerId",
      "outputs": [
        {
          "internalType": "uint256",
          "name": "",
          "type": "uint256"
        }
      ],
      "stateMutability": "view",
      "type": "function"
    },
    {
      "inputs": [
        {
          "internalType": "address",
          "name": "",
          "type": "address"
        },
        {
          "internalType": "uint256",
          "name": "",
          "type": "uint256"
        },
        {
          "internalType": "address",
          "name": "",
          "type": "address"
        }
      ],
      "name": "offers",
      "outputs": [
        {
          "internalType": "uint256",
          "name": "offerId",
          "type": "uint256"
        },
        {
          "internalType": "uint256",
          "name": "price",
          "type": "uint256"
        },
        {
          "internalType": "uint256",
          "name": "deadline",
          "type": "uint256"
        }
      ],
      "stateMutability": "view",
      "type": "function"
    },
    {
      "inputs": [],
      "name": "owner",
      "outputs": [
        {
          "internalType": "address",
          "name": "",
          "type": "address"
        }
      ],
      "stateMutability": "view",
      "type": "function"
    },
    {
      "inputs": [],
      "name": "platformFee",
      "outputs": [
        {
          "internalType": "uint16",
          "name": "",
          "type": "uint16"
        }
      ],
      "stateMutability": "view",
      "type": "function"
    },
    {
      "inputs": [
        {
          "internalType": "address",
          "name": "_minter",
          "type": "address"
        },
        {
          "internalType": "address",
          "name": "_nftAddress",
          "type": "address"
        },
        {
          "internalType": "uint256",
          "name": "_tokenId",
          "type": "uint256"
        }
      ],
      "name": "registerMinter",
      "outputs": [],
      "stateMutability": "nonpayable",
      "type": "function"
    },
    {
      "inputs": [],
      "name": "renounceOwnership",
      "outputs": [],
      "stateMutability": "nonpayable",
      "type": "function"
    },
    {
      "inputs": [
        {
          "internalType": "address",
          "name": "user",
          "type": "address"
        }
      ],
      "name": "sendArtongBalance",
      "outputs": [],
      "stateMutability": "payable",
      "type": "function"
    },
    {
      "inputs": [
        {
          "internalType": "address",
          "name": "newOwner",
          "type": "address"
        }
      ],
      "name": "transferOwnership",
      "outputs": [],
      "stateMutability": "nonpayable",
      "type": "function"
    },
    {
      "inputs": [
        {
          "internalType": "address",
          "name": "_nftAddress",
          "type": "address"
        },
        {
          "internalType": "uint16",
          "name": "_royalty",
          "type": "uint16"
        }
      ],
      "name": "updateCollectionRoyalty",
      "outputs": [],
      "stateMutability": "nonpayable",
      "type": "function"
    },
    {
      "inputs": [
        {
          "internalType": "address",
          "name": "_nftAddress",
          "type": "address"
        },
        {
          "internalType": "uint256",
          "name": "_tokenId",
          "type": "uint256"
        },
        {
          "internalType": "uint256",
          "name": "_newPrice",
          "type": "uint256"
        }
      ],
      "name": "updateListing",
      "outputs": [],
      "stateMutability": "nonpayable",
      "type": "function"
    },
    {
      "inputs": [
        {
          "internalType": "uint16",
          "name": "_platformFee",
          "type": "uint16"
        }
      ],
      "name": "updatePlatformFee",
      "outputs": [],
      "stateMutability": "nonpayable",
      "type": "function"
    },
    {
      "inputs": [
        {
          "internalType": "address payable",
          "name": "_platformFeeRecipient",
          "type": "address"
        }
      ],
      "name": "updatePlatformFeeRecipient",
      "outputs": [],
      "stateMutability": "nonpayable",
      "type": "function"
    },
    {
      "inputs": [
        {
          "internalType": "address",
          "name": "_minter",
          "type": "address"
        },
        {
          "internalType": "address",
          "name": "_nftAddress",
          "type": "address"
        },
        {
          "internalType": "uint256",
          "name": "_tokenId",
          "type": "uint256"
        },
        {
          "internalType": "uint16",
          "name": "_royalty",
          "type": "uint16"
        }
      ],
      "name": "updateTokenRoyalty",
      "outputs": [],
      "stateMutability": "nonpayable",
      "type": "function"
    },
    {
      "inputs": [
        {
          "internalType": "address",
          "name": "",
          "type": "address"
        },
        {
          "internalType": "uint256",
          "name": "",
          "type": "uint256"
        }
      ],
      "name": "userOffers",
      "outputs": [
        {
          "internalType": "uint256",
          "name": "offerId",
          "type": "uint256"
        },
        {
          "internalType": "uint256",
          "name": "price",
          "type": "uint256"
        },
        {
          "internalType": "uint256",
          "name": "deadline",
          "type": "uint256"
        }
      ],
      "stateMutability": "view",
      "type": "function"
    },
    {
      "inputs": [],
      "name": "withdraw",
      "outputs": [],
      "stateMutability": "nonpayable",
      "type": "function"
    },
    {
      "stateMutability": "payable",
      "type": "receive"
    }
  ],
  "bytecode": "0x608060405234801561001057600080fd5b50612760806100206000396000f3fe60806040526004361061016a5760003560e01c8063715018a6116100d1578063bd5fec651161008a578063e6d07de911610064578063e6d07de9146104fd578063f2fde38b14610510578063f5fe7f7114610530578063f772adf11461055057600080fd5b8063bd5fec6514610455578063d3f494cc14610490578063e0dbcde5146104dd57600080fd5b8063715018a6146103a257806374a5ea91146103b757806389bfd38f146103d75780638da5cb5b146103f7578063afb0695214610415578063b2ddee061461043557600080fd5b80633bbb2806116101235780633bbb2806146102ed5780633ccfd60b1461030d5780634d0228e4146103225780635e6c00f5146103425780636b852288146103625780636f85f09f1461038257600080fd5b80631c6c7128146101ab57806321ce9f91146101c0578063259ca365146101e957806326232a2e146101fc57806333ff94221461022a5780633740ebb3146102af57600080fd5b366101a65760405134815233907f88a5966d370b9919b20f3e2c13ff65706f196a4e32cc2c12bf57088f885258749060200160405180910390a2005b600080fd5b6101be6101b936600461230b565b610570565b005b3480156101cc57600080fd5b506101d660985481565b6040519081526020015b60405180910390f35b6101be6101f7366004612340565b610933565b34801561020857600080fd5b506097546102179061ffff1681565b60405161ffff90911681526020016101e0565b34801561023657600080fd5b50610290610245366004612382565b6040805180820190915260008082526020820152506001600160a01b03166000908152609c60209081526040918290208251808401909352805461ffff168352600101549082015290565b60408051825161ffff16815260209283015192810192909252016101e0565b3480156102bb57600080fd5b506097546102d5906201000090046001600160a01b031681565b6040516001600160a01b0390911681526020016101e0565b3480156102f957600080fd5b506101be610308366004612340565b610a47565b34801561031957600080fd5b506101be610ca1565b34801561032e57600080fd5b506101be61033d36600461239f565b610df6565b34801561034e57600080fd5b506101d661035d3660046123e0565b610ea3565b34801561036e57600080fd5b506101be61037d366004612427565b610ed9565b34801561038e57600080fd5b506101be61039d36600461245c565b6110c2565b3480156103ae57600080fd5b506101be61117e565b3480156103c357600080fd5b506101d66103d23660046123e0565b611192565b3480156103e357600080fd5b506101be6103f236600461230b565b611294565b34801561040357600080fd5b506033546001600160a01b03166102d5565b34801561042157600080fd5b506101be6104303660046124ad565b611525565b34801561044157600080fd5b506101be6104503660046124c8565b611578565b34801561046157600080fd5b506104756104703660046124c8565b611607565b604080519384526020840192909252908201526060016101e0565b34801561049c57600080fd5b506104756104ab366004612340565b609a60209081526000938452604080852082529284528284209052825290208054600182015460029092015490919083565b3480156104e957600080fd5b506101be6104f83660046124f4565b611649565b6101be61050b366004612382565b61178c565b34801561051c57600080fd5b506101be61052b366004612382565b611799565b34801561053c57600080fd5b506101be61054b366004612382565b61180f565b34801561055c57600080fd5b506101be61056b36600461230b565b61186f565b6001600160a01b0383166000908152609a60209081526040808320858452825280832033808552908352928190208151606081018352815481526001820154938101849052600290910154918101919091528592859290919015806105d9575042816040015111155b6106225760405162461bcd60e51b81526020600482015260156024820152741bd999995c88185b1c9958591e4818dc99585d1959605a1b60448201526064015b60405180910390fd5b66038d7ea4c6800034116106715760405162461bcd60e51b81526020600482015260166024820152751bd999995c88185b5bdd5b9d081d1bdbc81cdb585b1b60521b6044820152606401610619565b61067a87611953565b6106965760405162461bcd60e51b815260040161061990612520565b6040516331a9108f60e11b81526004810187905287906001600160a01b03821690636352211e9060240160206040518083038186803b1580156106d857600080fd5b505afa1580156106ec573d6000803e3d6000fd5b505050506040513d601f19601f82011682018060405250810190610710919061254d565b6001600160a01b0316336001600160a01b031614156107655760405162461bcd60e51b815260206004820152601160248201527031b0b73737ba1039b2b6331037b33332b960791b6044820152606401610619565b8561077e576107776201518042612580565b955061078e565b61078b4262015180612597565b95505b6001609860008282546107a19190612597565b925050819055506040518060600160405280609854815260200134815260200187815250609a60008a6001600160a01b03166001600160a01b0316815260200190815260200160002060008981526020019081526020016000206000336001600160a01b03166001600160a01b03168152602001908152602001600020600082015181600001556020820151816001015560408201518160020155905050609b6000336001600160a01b03166001600160a01b031681526020019081526020016000206040518060600160405280609854815260200134815260200188815250908060018154018082558091505060019003906000526020600020906003020160009091909190915060008201518160000155602082015181600101556040820151816002015550506108d433346119da565b6098546040805191825260208201899052348282015260608201889052516001600160a01b038a169133917fa5b221016d244158f755de9c5739283f750d2f7285cde6af0a9e11aafa1d60229181900360800190a35050505050505050565b600260655414156109565760405162461bcd60e51b8152600401610619906125af565b60026065556001600160a01b038316600090815260996020908152604080832085845290915290205483908390806109a05760405162461bcd60e51b8152600401610619906125e6565b6109ab868686611a5c565b6001600160a01b03861660009081526099602090815260408083208884529091529020548433346109e08a8a85858886611b36565b896001600160a01b0316836001600160a01b03167f15c7b51ce366ab742c37d88fa542ad517859c32b76df70b7234e0e96f5f801c48b87604051610a2e929190918252602082015260400190565b60405180910390a3505060016065555050505050505050565b60026065541415610a6a5760405162461bcd60e51b8152600401610619906125af565b600260658190556001600160a01b038085166000908152609a6020908152604080832087845282528083209386168352928152908290208251606081018452815481526001820154928101839052930154918301919091528491849184919015801590610ada5750428160400151115b610b265760405162461bcd60e51b815260206004820152601b60248201527f6f66666572206e6f7420657869737473206f72206578706972656400000000006044820152606401610619565b610b31878733611a5c565b6001600160a01b038781166000908152609a602090815260408083208a8452825280832093891683529281528282208351606081018552815481526001820154928101929092526002015492810192909252610b8d4288611192565b90508160200151811015610be35760405162461bcd60e51b815260206004820152601e60248201527f62616c616e6365206e6f7420656e6f75676820746f20627579206974656d00006044820152606401610619565b602082015133908890610bfe908c908c908590859080611b36565b835160408051918252602082018c90526001600160a01b03808c1692908e16917f55b7d87f50df42aab01a782c0f678035ee284155051f20b56dca2de85791bbac910160405180910390a36001600160a01b03808c166000908152609a602090815260408083208e84528252808320938d1683529290529081208181556001810182905560020155610c8f84611f68565b50506001606555505050505050505050565b426000610cae8233610ea3565b905080610cf35760405162461bcd60e51b81526020600482015260136024820152726e6f7468696e6720746f20776974686472617760681b6044820152606401610619565b80471015610d435760405162461bcd60e51b815260206004820152601e60248201527f62616c616e6365206e6f7420656e6f75676820746f20776974686472617700006044820152606401610619565b610d4d3382611ff1565b610d5682612019565b6040513390600090829084908381818185875af1925050503d8060008114610d9a576040519150601f19603f3d011682016040523d82523d6000602084013e610d9f565b606091505b5050905080610df05760405162461bcd60e51b815260206004820152601e60248201527f4172746f6e672062616c616e6365207472616e73666572206661696c656400006044820152606401610619565b50505050565b6001600160a01b038281166000908152609e602090815260408083208584529091529020541615610e695760405162461bcd60e51b815260206004820152601960248201527f6d696e74657220616c72656164792072656769737465726564000000000000006044820152606401610619565b6001600160a01b039182166000908152609e60209081526040808320938352929052208054919092166001600160a01b0319909116179055565b6000610eaf8383611192565b6001600160a01b0383166000908152609f6020526040902054610ed29190612580565b9392505050565b6127108161ffff161115610f215760405162461bcd60e51b815260206004820152600f60248201526e696e76616c696420726f79616c747960881b6044820152606401610619565b610f2a82611953565b610f465760405162461bcd60e51b815260040161061990612520565b6000829050806001600160a01b0316638da5cb5b6040518163ffffffff1660e01b815260040160206040518083038186803b158015610f8457600080fd5b505afa158015610f98573d6000803e3d6000fd5b505050506040513d601f19601f82011682018060405250810190610fbc919061254d565b6001600160a01b0316336001600160a01b03161461101c5760405162461bcd60e51b815260206004820152601f60248201527f75736572206e6f7420617070726f76656420666f722074686973206974656d006044820152606401610619565b6001600160a01b0383166000818152609c6020818152604080842081518083018352815461ffff8082168352600184018054848801908152865180880188528d84168082529151818a019081529a8c9052988852975190911661ffff1990921691909117909255945190555191825291929133917f3d01e4a63a15c293fb21704a30354cf8fbf55355606eca15bce5602e409f3ad791015b60405180910390a350505050565b6127108161ffff16111561110a5760405162461bcd60e51b815260206004820152600f60248201526e696e76616c696420726f79616c747960881b6044820152606401610619565b6001600160a01b038481166000818152609d60209081526040808320948816808452948252808320878452825291829020805461ffff191661ffff87169081179091558251878152918201527f5005dbe7222d664cda7ff8f0eb132c5f5ca7d1c78e56ceee58895a89b3f19f7b91016110b4565b61118661210f565b6111906000612169565b565b6001600160a01b0381166000908152609b6020908152604080832080548251818502810185019093528083528493849084015b8282101561121557838290600052602060002090600302016040518060600160405290816000820154815260200160018201548152602001600282015481525050815260200190600101906111c5565b5050505090506000805b825181101561128b578583828151811061123b5761123b61260f565b60200260200101516040015111156112795782818151811061125f5761125f61260f565b602002602001015160200151826112769190612597565b91505b8061128381612625565b91505061121f565b50949350505050565b6001600160a01b03831660009081526099602090815260408083208584529091529020548390839080156112fb5760405162461bcd60e51b815260206004820152600e60248201526d185b1c9958591e481b1a5cdd195960921b6044820152606401610619565b61130486611953565b156114a6576040516331a9108f60e11b815260048101869052869033906001600160a01b03831690636352211e9060240160206040518083038186803b15801561134d57600080fd5b505afa158015611361573d6000803e3d6000fd5b505050506040513d601f19601f82011682018060405250810190611385919061254d565b6001600160a01b0316146113cd5760405162461bcd60e51b815260206004820152600f60248201526e6e6f74206f776e696e67206974656d60881b6044820152606401610619565b60405163e985e9c560e01b81523360048201523060248201526001600160a01b0382169063e985e9c59060440160206040518083038186803b15801561141257600080fd5b505afa158015611426573d6000803e3d6000fd5b505050506040513d601f19601f8201168201806040525081019061144a9190612640565b6114a05760405162461bcd60e51b815260206004820152602160248201527f6172746f6e67206e6f7420617070726f76656420666f722074686973206974656044820152606d60f81b6064820152608401610619565b506114be565b60405162461bcd60e51b815260040161061990612520565b6001600160a01b0386166000818152609960209081526040808320898452825291829020879055815188815290810187905233917fd547e933094f12a9159076970143ebe73234e64480317844b0dcb36117116de4910160405180910390a3505050505050565b61152d61210f565b6097805461ffff191661ffff83169081179091556040519081527fcabead39256298cdf7d1228eee68b47bc54a2192283d8d93574da08d2d7ac303906020015b60405180910390a150565b6002606554141561159b5760405162461bcd60e51b8152600401610619906125af565b60026065556001600160a01b038216600090815260996020908152604080832084845290915290205482908290806115e55760405162461bcd60e51b8152600401610619906125e6565b6115f0858533611a5c565b6115fb8585336121bb565b50506001606555505050565b609b602052816000526040600020818154811061162357600080fd5b600091825260209091206003909102018054600182015460029092015490935090915083565b600054610100900460ff16158080156116695750600054600160ff909116105b806116835750303b158015611683575060005460ff166001145b6116e65760405162461bcd60e51b815260206004820152602e60248201527f496e697469616c697a61626c653a20636f6e747261637420697320616c72656160448201526d191e481a5b9a5d1a585b1a5e995960921b6064820152608401610619565b6000805460ff191660011790558015611709576000805461ff0019166101001790555b609780546001600160a01b03841662010000026001600160b01b031990911661ffff86161717905561173961221d565b61174161224c565b8015611787576000805461ff0019169055604051600181527f7f26b83ff96e1f2b6a682f133852f6798a09c465da95921460cefb38474024989060200160405180910390a15b505050565b61179681346119da565b50565b6117a161210f565b6001600160a01b0381166118065760405162461bcd60e51b815260206004820152602660248201527f4f776e61626c653a206e6577206f776e657220697320746865207a65726f206160448201526564647265737360d01b6064820152608401610619565b61179681612169565b61181761210f565b6097805462010000600160b01b031916620100006001600160a01b038416908102919091179091556040519081527fe57e7c1f36cc83fade34e32351e6eee7eb9da532662b1b5da10c631e8222aca79060200161156d565b600260655414156118925760405162461bcd60e51b8152600401610619906125af565b60026065556001600160a01b038316600090815260996020908152604080832085845290915290205483908390806118dc5760405162461bcd60e51b8152600401610619906125e6565b6118e7868633611a5c565b6001600160a01b0386166000818152609960209081526040808320898452825291829020879055815188815290810187905233917f3c33e65e8698294810b631d476d60b44425303828da0b1f8b635231bfda12be2910160405180910390a35050600160655550505050565b6040516301ffc9a760e01b81526380ac58cd60e01b60048201526000906001600160a01b038316906301ffc9a79060240160206040518083038186803b15801561199c57600080fd5b505afa1580156119b0573d6000803e3d6000fd5b505050506040513d601f19601f820116820180604052508101906119d49190612640565b92915050565b6001600160a01b0382166000908152609f602052604081208054839290611a02908490612597565b90915550506001600160a01b0382166000818152609f6020908152604091829020548251858152918201527f6074305455d06928d9399751a3f2b73f36be74b498f8c8adff20fcb87a7892e6910160405180910390a25050565b611a6583611953565b156114a6576040516331a9108f60e11b81526004810183905283906001600160a01b03821690636352211e9060240160206040518083038186803b158015611aac57600080fd5b505afa158015611ac0573d6000803e3d6000fd5b505050506040513d601f19601f82011682018060405250810190611ae4919061254d565b6001600160a01b0316826001600160a01b031614610df05760405162461bcd60e51b815260206004820152600f60248201526e6e6f74206f776e696e67206974656d60881b6044820152606401610619565b81811015611b865760405162461bcd60e51b815260206004820152601960248201527f7061796d656e7420616d6f756e74206e6f7420656e6f756768000000000000006044820152606401610619565b611b8f86611953565b611bab5760405162461bcd60e51b815260040161061990612520565b6001600160a01b038681166000818152609e602090815260408083208a8452825280832054909416808352609d825284832084845282528483208a8452825284832054938352609c8252918490208451808601909552805461ffff908116808752600190920154928601929092526097549294938216939261271092611c3391869116612662565b611c3d9190612662565b61ffff161115611c9d5760405162461bcd60e51b815260206004820152602560248201527f53756d206f6620666565732061726520626967676572207468616e2074686520604482015264707269636560d81b6064820152608401610619565b609754600090611cb290879061ffff1661227b565b609754604051919250600091620100009091046001600160a01b03169083908381818185875af1925050503d8060008114611d09576040519150601f19603f3d011682016040523d82523d6000602084013e611d0e565b606091505b5050905080611d555760405162461bcd60e51b8152602060048201526013602482015272119959481d1c985b9cd9995c8819985a5b1959606a1b6044820152606401610619565b86861115611d7057611d7088611d6b8989612580565b6119da565b61ffff841615611da0576000611d86888661227b565b9050611d9286826119da565b611d9c8184612597565b9250505b825161ffff1615611e5c576000611dbb88856000015161227b565b90508084602001818151611dcf9190612597565b915081815250506040518060400160405280856000015161ffff1681526020018560200151815250609c60008e6001600160a01b03166001600160a01b0316815260200190815260200160002060008201518160000160006101000a81548161ffff021916908361ffff160217905550602082015181600101559050508083611e589190612597565b9250505b611e6a89611d6b848a612580565b604051632142170760e11b81526001600160a01b038a811660048301528981166024830152604482018c90528c16906342842e0e90606401600060405180830381600087803b158015611ebc57600080fd5b505af1158015611ed0573d6000803e3d6000fd5b505050508a6001600160a01b0316886001600160a01b03168a6001600160a01b03167fee0ddd6454e05c1b33a8dfcb6cc52418d28020e96e21228bb601f5dbb6790cd08d8b604051611f2c929190918252602082015260400190565b60405180910390a45050506001600160a01b03909716600090815260996020908152604080832098835297905295862095909555505050505050565b336000908152609b60205260408120905b8154811015611787578260000151828281548110611f9957611f9961260f565b9060005260206000209060030201600001541415611fdf576000828281548110611fc557611fc561260f565b906000526020600020906003020160020181905550505050565b80611fe981612625565b915050611f79565b6001600160a01b0382166000908152609f602052604081208054839290611a02908490612580565b336000908152609b60205260408120905b815481101561178757828282815481106120465761204661260f565b90600052602060002090600302016002015410156120fd578154829061206e90600190612580565b8154811061207e5761207e61260f565b906000526020600020906003020182828154811061209e5761209e61260f565b6000918252602090912082546003909202019081556001808301549082015560029182015491015581548290806120d7576120d7612688565b600082815260208120600360001990930192830201818155600181018290556002015590555b8061210781612625565b91505061202a565b6033546001600160a01b031633146111905760405162461bcd60e51b815260206004820181905260248201527f4f776e61626c653a2063616c6c6572206973206e6f7420746865206f776e65726044820152606401610619565b603380546001600160a01b038381166001600160a01b0319831681179093556040519116919082907f8be0079c531659141344cd1fd0a4f28419497f9722a3daafe3b4186f6b6457e090600090a35050565b6001600160a01b038381166000818152609960209081526040808320878452825280832092909255905185815291928416917f9ba1a3cb55ce8d63d072a886f94d2a744f50cddf82128e897d0661f5ec623158910160405180910390a3505050565b600054610100900460ff166122445760405162461bcd60e51b81526004016106199061269e565b611190612298565b600054610100900460ff166122735760405162461bcd60e51b81526004016106199061269e565b6111906122c8565b600061271061228e61ffff8416856126e9565b610ed29190612708565b600054610100900460ff166122bf5760405162461bcd60e51b81526004016106199061269e565b61119033612169565b600054610100900460ff166122ef5760405162461bcd60e51b81526004016106199061269e565b6001606555565b6001600160a01b038116811461179657600080fd5b60008060006060848603121561232057600080fd5b833561232b816122f6565b95602085013595506040909401359392505050565b60008060006060848603121561235557600080fd5b8335612360816122f6565b9250602084013591506040840135612377816122f6565b809150509250925092565b60006020828403121561239457600080fd5b8135610ed2816122f6565b6000806000606084860312156123b457600080fd5b83356123bf816122f6565b925060208401356123cf816122f6565b929592945050506040919091013590565b600080604083850312156123f357600080fd5b823591506020830135612405816122f6565b809150509250929050565b803561ffff8116811461242257600080fd5b919050565b6000806040838503121561243a57600080fd5b8235612445816122f6565b915061245360208401612410565b90509250929050565b6000806000806080858703121561247257600080fd5b843561247d816122f6565b9350602085013561248d816122f6565b9250604085013591506124a260608601612410565b905092959194509250565b6000602082840312156124bf57600080fd5b610ed282612410565b600080604083850312156124db57600080fd5b82356124e6816122f6565b946020939093013593505050565b6000806040838503121561250757600080fd5b61251083612410565b91506020830135612405816122f6565b602080825260139082015272696e76616c6964206e6674206164647265737360681b604082015260600190565b60006020828403121561255f57600080fd5b8151610ed2816122f6565b634e487b7160e01b600052601160045260246000fd5b6000828210156125925761259261256a565b500390565b600082198211156125aa576125aa61256a565b500190565b6020808252601f908201527f5265656e7472616e637947756172643a207265656e7472616e742063616c6c00604082015260600190565b6020808252600f908201526e6e6f74206c6973746564206974656d60881b604082015260600190565b634e487b7160e01b600052603260045260246000fd5b60006000198214156126395761263961256a565b5060010190565b60006020828403121561265257600080fd5b81518015158114610ed257600080fd5b600061ffff80831681851680830382111561267f5761267f61256a565b01949350505050565b634e487b7160e01b600052603160045260246000fd5b6020808252602b908201527f496e697469616c697a61626c653a20636f6e7472616374206973206e6f74206960408201526a6e697469616c697a696e6760a81b606082015260800190565b60008160001904831182151516156127035761270361256a565b500290565b60008261272557634e487b7160e01b600052601260045260246000fd5b50049056fea26469706673582212207692b35b181e1562cb7ac8e6e9adcf48c706c3bc58415f385b80ce82b3a5550464736f6c63430008090033",
  "linkReferences": {},
  "deployedLinkReferences": {}
}