{
  "_format": "hh-sol-artifact-1",
  "contractName": "ArtongMarketplace",
  "sourceName": "contracts/ArtongMarketplace.sol",
  "abi": [
    {
      "anonymous": false,
      "inputs": [
        {
          "indexed": false,
          "internalType": "uint8",
          "name": "version",
          "type": "uint8"
        }
      ],
      "name": "Initialized",
      "type": "event"
    },
    {
      "anonymous": false,
      "inputs": [
        {
          "indexed": true,
          "internalType": "address",
          "name": "owner",
          "type": "address"
        },
        {
          "indexed": true,
          "internalType": "address",
          "name": "nft",
          "type": "address"
        },
        {
          "indexed": false,
          "internalType": "uint256",
          "name": "tokenId",
          "type": "uint256"
        }
      ],
      "name": "ItemCanceled",
      "type": "event"
    },
    {
      "anonymous": false,
      "inputs": [
        {
          "indexed": true,
          "internalType": "address",
          "name": "owner",
          "type": "address"
        },
        {
          "indexed": true,
          "internalType": "address",
          "name": "nft",
          "type": "address"
        },
        {
          "indexed": false,
          "internalType": "uint256",
          "name": "tokenId",
          "type": "uint256"
        },
        {
          "indexed": false,
          "internalType": "uint256",
          "name": "price",
          "type": "uint256"
        }
      ],
      "name": "ItemListed",
      "type": "event"
    },
    {
      "anonymous": false,
      "inputs": [
        {
          "indexed": true,
          "internalType": "address",
          "name": "seller",
          "type": "address"
        },
        {
          "indexed": true,
          "internalType": "address",
          "name": "buyer",
          "type": "address"
        },
        {
          "indexed": true,
          "internalType": "address",
          "name": "nft",
          "type": "address"
        },
        {
          "indexed": false,
          "internalType": "uint256",
          "name": "tokenId",
          "type": "uint256"
        },
        {
          "indexed": false,
          "internalType": "uint256",
          "name": "price",
          "type": "uint256"
        }
      ],
      "name": "ItemSold",
      "type": "event"
    },
    {
      "anonymous": false,
      "inputs": [
        {
          "indexed": true,
          "internalType": "address",
          "name": "owner",
          "type": "address"
        },
        {
          "indexed": true,
          "internalType": "address",
          "name": "nft",
          "type": "address"
        },
        {
          "indexed": false,
          "internalType": "uint256",
          "name": "tokenId",
          "type": "uint256"
        },
        {
          "indexed": false,
          "internalType": "uint256",
          "name": "newPrice",
          "type": "uint256"
        }
      ],
      "name": "ItemUpdated",
      "type": "event"
    },
    {
      "anonymous": false,
      "inputs": [
        {
          "indexed": true,
          "internalType": "address",
          "name": "creator",
          "type": "address"
        },
        {
          "indexed": true,
          "internalType": "address",
          "name": "nft",
          "type": "address"
        },
        {
          "indexed": false,
          "internalType": "uint256",
          "name": "tokenId",
          "type": "uint256"
        }
      ],
      "name": "OfferCanceled",
      "type": "event"
    },
    {
      "anonymous": false,
      "inputs": [
        {
          "indexed": true,
          "internalType": "address",
          "name": "creator",
          "type": "address"
        },
        {
          "indexed": true,
          "internalType": "address",
          "name": "nft",
          "type": "address"
        },
        {
          "indexed": false,
          "internalType": "uint256",
          "name": "tokenId",
          "type": "uint256"
        },
        {
          "indexed": false,
          "internalType": "uint256",
          "name": "price",
          "type": "uint256"
        },
        {
          "indexed": false,
          "internalType": "uint256",
          "name": "deadline",
          "type": "uint256"
        }
      ],
      "name": "OfferCreated",
      "type": "event"
    },
    {
      "anonymous": false,
      "inputs": [
        {
          "indexed": true,
          "internalType": "address",
          "name": "previousOwner",
          "type": "address"
        },
        {
          "indexed": true,
          "internalType": "address",
          "name": "newOwner",
          "type": "address"
        }
      ],
      "name": "OwnershipTransferred",
      "type": "event"
    },
    {
      "anonymous": false,
      "inputs": [
        {
          "indexed": false,
          "internalType": "uint16",
          "name": "platformFee",
          "type": "uint16"
        }
      ],
      "name": "UpdatePlatformFee",
      "type": "event"
    },
    {
      "anonymous": false,
      "inputs": [
        {
          "indexed": false,
          "internalType": "address payable",
          "name": "platformFeeRecipient",
          "type": "address"
        }
      ],
      "name": "UpdatePlatformFeeRecipient",
      "type": "event"
    },
    {
      "inputs": [
        {
          "internalType": "address",
          "name": "_nftAddress",
          "type": "address"
        },
        {
          "internalType": "uint256",
          "name": "_tokenId",
          "type": "uint256"
        }
      ],
      "name": "cancelListing",
      "outputs": [],
      "stateMutability": "nonpayable",
      "type": "function"
    },
    {
      "inputs": [
        {
          "internalType": "address",
          "name": "",
          "type": "address"
        }
      ],
      "name": "collectionRoyalties",
      "outputs": [
        {
          "internalType": "uint16",
          "name": "royalty",
          "type": "uint16"
        },
        {
          "internalType": "uint256",
          "name": "royaltyBalance",
          "type": "uint256"
        },
        {
          "internalType": "address",
          "name": "creator",
          "type": "address"
        }
      ],
      "stateMutability": "view",
      "type": "function"
    },
    {
      "inputs": [],
      "name": "feeReceipient",
      "outputs": [
        {
          "internalType": "address payable",
          "name": "",
          "type": "address"
        }
      ],
      "stateMutability": "view",
      "type": "function"
    },
    {
      "inputs": [
        {
          "internalType": "uint16",
          "name": "_platformFee",
          "type": "uint16"
        },
        {
          "internalType": "address payable",
          "name": "_feeRecipient",
          "type": "address"
        }
      ],
      "name": "initialize",
      "outputs": [],
      "stateMutability": "nonpayable",
      "type": "function"
    },
    {
      "inputs": [
        {
          "internalType": "address",
          "name": "_nftAddress",
          "type": "address"
        },
        {
          "internalType": "uint256",
          "name": "_tokenId",
          "type": "uint256"
        },
        {
          "internalType": "uint256",
          "name": "_price",
          "type": "uint256"
        }
      ],
      "name": "listItem",
      "outputs": [],
      "stateMutability": "nonpayable",
      "type": "function"
    },
    {
      "inputs": [
        {
          "internalType": "address",
          "name": "",
          "type": "address"
        },
        {
          "internalType": "uint256",
          "name": "",
          "type": "uint256"
        },
        {
          "internalType": "address",
          "name": "",
          "type": "address"
        }
      ],
      "name": "listingPrices",
      "outputs": [
        {
          "internalType": "uint256",
          "name": "",
          "type": "uint256"
        }
      ],
      "stateMutability": "view",
      "type": "function"
    },
    {
      "inputs": [
        {
          "internalType": "address",
          "name": "",
          "type": "address"
        },
        {
          "internalType": "uint256",
          "name": "",
          "type": "uint256"
        }
      ],
      "name": "minters",
      "outputs": [
        {
          "internalType": "address",
          "name": "minter",
          "type": "address"
        },
        {
          "internalType": "uint16",
          "name": "royalty",
          "type": "uint16"
        }
      ],
      "stateMutability": "view",
      "type": "function"
    },
    {
      "inputs": [
        {
          "internalType": "address",
          "name": "",
          "type": "address"
        },
        {
          "internalType": "uint256",
          "name": "",
          "type": "uint256"
        },
        {
          "internalType": "address",
          "name": "",
          "type": "address"
        }
      ],
      "name": "offers",
      "outputs": [
        {
          "internalType": "uint256",
          "name": "price",
          "type": "uint256"
        },
        {
          "internalType": "uint256",
          "name": "deadline",
          "type": "uint256"
        }
      ],
      "stateMutability": "view",
      "type": "function"
    },
    {
      "inputs": [],
      "name": "owner",
      "outputs": [
        {
          "internalType": "address",
          "name": "",
          "type": "address"
        }
      ],
      "stateMutability": "view",
      "type": "function"
    },
    {
      "inputs": [],
      "name": "platformFee",
      "outputs": [
        {
          "internalType": "uint16",
          "name": "",
          "type": "uint16"
        }
      ],
      "stateMutability": "view",
      "type": "function"
    },
    {
      "inputs": [],
      "name": "renounceOwnership",
      "outputs": [],
      "stateMutability": "nonpayable",
      "type": "function"
    },
    {
      "inputs": [
        {
          "internalType": "address",
          "name": "newOwner",
          "type": "address"
        }
      ],
      "name": "transferOwnership",
      "outputs": [],
      "stateMutability": "nonpayable",
      "type": "function"
    }
  ],
  "bytecode": "0x608060405234801561001057600080fd5b50611bf8806100206000396000f3fe608060405234801561001057600080fd5b50600436106100b45760003560e01c806389bfd38f1161007157806389bfd38f146101925780638da5cb5b146101ae578063b2ddee06146101cc578063d3f494cc146101e8578063e0dbcde514610219578063f2fde38b14610235576100b4565b806309736b8a146100b957806326232a2e146100e95780633740ebb31461010757806357b275b414610125578063715018a61461015757806378746d0d14610161575b600080fd5b6100d360048036038101906100ce9190611252565b610251565b6040516100e091906112b4565b60405180910390f35b6100f1610283565b6040516100fe91906112ec565b60405180910390f35b61010f610297565b60405161011c9190611328565b60405180910390f35b61013f600480360381019061013a9190611343565b6102bd565b60405161014e9392919061137f565b60405180910390f35b61015f610315565b005b61017b600480360381019061017691906113b6565b610329565b6040516101899291906113f6565b60405180910390f35b6101ac60048036038101906101a7919061141f565b610388565b005b6101b6610816565b6040516101c39190611472565b60405180910390f35b6101e660048036038101906101e191906113b6565b610840565b005b61020260048036038101906101fd9190611252565b61098c565b60405161021092919061148d565b60405180910390f35b610233600480360381019061022e919061150e565b6109ca565b005b61024f600480360381019061024a9190611343565b610b70565b005b609960205282600052604060002060205281600052604060002060205280600052604060002060009250925050505481565b609760009054906101000a900461ffff1681565b609760029054906101000a900473ffffffffffffffffffffffffffffffffffffffff1681565b609b6020528060005260406000206000915090508060000160009054906101000a900461ffff16908060010154908060020160009054906101000a900473ffffffffffffffffffffffffffffffffffffffff16905083565b61031d610bf4565b6103276000610c72565b565b6098602052816000526040600020602052806000526040600020600091509150508060000160009054906101000a900473ffffffffffffffffffffffffffffffffffffffff16908060000160149054906101000a900461ffff16905082565b8282336000609960008573ffffffffffffffffffffffffffffffffffffffff1673ffffffffffffffffffffffffffffffffffffffff168152602001908152602001600020600084815260200190815260200160002060008373ffffffffffffffffffffffffffffffffffffffff1673ffffffffffffffffffffffffffffffffffffffff16815260200190815260200160002054905060008114610460576040517f08c379a0000000000000000000000000000000000000000000000000000000008152600401610457906115ab565b60405180910390fd5b8673ffffffffffffffffffffffffffffffffffffffff166301ffc9a77f80ac58cd000000000000000000000000000000000000000000000000000000006040518263ffffffff1660e01b81526004016104b99190611606565b60206040518083038186803b1580156104d157600080fd5b505afa1580156104e5573d6000803e3d6000fd5b505050506040513d601f19601f820116820180604052508101906105099190611659565b156106d95760008790503373ffffffffffffffffffffffffffffffffffffffff168173ffffffffffffffffffffffffffffffffffffffff16636352211e896040518263ffffffff1660e01b815260040161056391906112b4565b60206040518083038186803b15801561057b57600080fd5b505afa15801561058f573d6000803e3d6000fd5b505050506040513d601f19601f820116820180604052508101906105b3919061169b565b73ffffffffffffffffffffffffffffffffffffffff1614610609576040517f08c379a000000000000000000000000000000000000000000000000000000000815260040161060090611714565b60405180910390fd5b8073ffffffffffffffffffffffffffffffffffffffff1663e985e9c533306040518363ffffffff1660e01b8152600401610644929190611734565b60206040518083038186803b15801561065c57600080fd5b505afa158015610670573d6000803e3d6000fd5b505050506040513d601f19601f820116820180604052508101906106949190611659565b6106d3576040517f08c379a00000000000000000000000000000000000000000000000000000000081526004016106ca906117cf565b60405180910390fd5b50610714565b6040517f08c379a000000000000000000000000000000000000000000000000000000000815260040161070b9061183b565b60405180910390fd5b84609960008973ffffffffffffffffffffffffffffffffffffffff1673ffffffffffffffffffffffffffffffffffffffff168152602001908152602001600020600088815260200190815260200160002060003373ffffffffffffffffffffffffffffffffffffffff1673ffffffffffffffffffffffffffffffffffffffff168152602001908152602001600020819055508673ffffffffffffffffffffffffffffffffffffffff163373ffffffffffffffffffffffffffffffffffffffff167fd547e933094f12a9159076970143ebe73234e64480317844b0dcb36117116de4888860405161080592919061148d565b60405180910390a350505050505050565b6000603360009054906101000a900473ffffffffffffffffffffffffffffffffffffffff16905090565b60026065541415610886576040517f08c379a000000000000000000000000000000000000000000000000000000000815260040161087d906118a7565b60405180910390fd5b60026065819055508181336000609960008573ffffffffffffffffffffffffffffffffffffffff1673ffffffffffffffffffffffffffffffffffffffff168152602001908152602001600020600084815260200190815260200160002060008373ffffffffffffffffffffffffffffffffffffffff1673ffffffffffffffffffffffffffffffffffffffff16815260200190815260200160002054905060008111610966576040517f08c379a000000000000000000000000000000000000000000000000000000000815260040161095d90611913565b60405180910390fd5b610971868633610d38565b61097c868633610f27565b5050505060016065819055505050565b609a60205282600052604060002060205281600052604060002060205280600052604060002060009250925050508060000154908060010154905082565b60008060019054906101000a900460ff161590508080156109fb5750600160008054906101000a900460ff1660ff16105b80610a285750610a0a30611022565b158015610a275750600160008054906101000a900460ff1660ff16145b5b610a67576040517f08c379a0000000000000000000000000000000000000000000000000000000008152600401610a5e906119a5565b60405180910390fd5b60016000806101000a81548160ff021916908360ff1602179055508015610aa4576001600060016101000a81548160ff0219169083151502179055505b82609760006101000a81548161ffff021916908361ffff16021790555081609760026101000a81548173ffffffffffffffffffffffffffffffffffffffff021916908373ffffffffffffffffffffffffffffffffffffffff160217905550610b0a611045565b610b1261109e565b8015610b6b5760008060016101000a81548160ff0219169083151502179055507f7f26b83ff96e1f2b6a682f133852f6798a09c465da95921460cefb38474024986001604051610b629190611a17565b60405180910390a15b505050565b610b78610bf4565b600073ffffffffffffffffffffffffffffffffffffffff168173ffffffffffffffffffffffffffffffffffffffff161415610be8576040517f08c379a0000000000000000000000000000000000000000000000000000000008152600401610bdf90611aa4565b60405180910390fd5b610bf181610c72565b50565b610bfc6110f7565b73ffffffffffffffffffffffffffffffffffffffff16610c1a610816565b73ffffffffffffffffffffffffffffffffffffffff1614610c70576040517f08c379a0000000000000000000000000000000000000000000000000000000008152600401610c6790611b10565b60405180910390fd5b565b6000603360009054906101000a900473ffffffffffffffffffffffffffffffffffffffff16905081603360006101000a81548173ffffffffffffffffffffffffffffffffffffffff021916908373ffffffffffffffffffffffffffffffffffffffff1602179055508173ffffffffffffffffffffffffffffffffffffffff168173ffffffffffffffffffffffffffffffffffffffff167f8be0079c531659141344cd1fd0a4f28419497f9722a3daafe3b4186f6b6457e060405160405180910390a35050565b8273ffffffffffffffffffffffffffffffffffffffff166301ffc9a77f80ac58cd000000000000000000000000000000000000000000000000000000006040518263ffffffff1660e01b8152600401610d919190611606565b60206040518083038186803b158015610da957600080fd5b505afa158015610dbd573d6000803e3d6000fd5b505050506040513d601f19601f82011682018060405250810190610de19190611659565b15610ee75760008390508173ffffffffffffffffffffffffffffffffffffffff168173ffffffffffffffffffffffffffffffffffffffff16636352211e856040518263ffffffff1660e01b8152600401610e3b91906112b4565b60206040518083038186803b158015610e5357600080fd5b505afa158015610e67573d6000803e3d6000fd5b505050506040513d601f19601f82011682018060405250810190610e8b919061169b565b73ffffffffffffffffffffffffffffffffffffffff1614610ee1576040517f08c379a0000000000000000000000000000000000000000000000000000000008152600401610ed890611714565b60405180910390fd5b50610f22565b6040517f08c379a0000000000000000000000000000000000000000000000000000000008152600401610f199061183b565b60405180910390fd5b505050565b609960008473ffffffffffffffffffffffffffffffffffffffff1673ffffffffffffffffffffffffffffffffffffffff168152602001908152602001600020600083815260200190815260200160002060008273ffffffffffffffffffffffffffffffffffffffff1673ffffffffffffffffffffffffffffffffffffffff168152602001908152602001600020600090558273ffffffffffffffffffffffffffffffffffffffff168173ffffffffffffffffffffffffffffffffffffffff167f9ba1a3cb55ce8d63d072a886f94d2a744f50cddf82128e897d0661f5ec6231588460405161101591906112b4565b60405180910390a3505050565b6000808273ffffffffffffffffffffffffffffffffffffffff163b119050919050565b600060019054906101000a900460ff16611094576040517f08c379a000000000000000000000000000000000000000000000000000000000815260040161108b90611ba2565b60405180910390fd5b61109c6110ff565b565b600060019054906101000a900460ff166110ed576040517f08c379a00000000000000000000000000000000000000000000000000000000081526004016110e490611ba2565b60405180910390fd5b6110f5611160565b565b600033905090565b600060019054906101000a900460ff1661114e576040517f08c379a000000000000000000000000000000000000000000000000000000000815260040161114590611ba2565b60405180910390fd5b61115e6111596110f7565b610c72565b565b600060019054906101000a900460ff166111af576040517f08c379a00000000000000000000000000000000000000000000000000000000081526004016111a690611ba2565b60405180910390fd5b6001606581905550565b600080fd5b600073ffffffffffffffffffffffffffffffffffffffff82169050919050565b60006111e9826111be565b9050919050565b6111f9816111de565b811461120457600080fd5b50565b600081359050611216816111f0565b92915050565b6000819050919050565b61122f8161121c565b811461123a57600080fd5b50565b60008135905061124c81611226565b92915050565b60008060006060848603121561126b5761126a6111b9565b5b600061127986828701611207565b935050602061128a8682870161123d565b925050604061129b86828701611207565b9150509250925092565b6112ae8161121c565b82525050565b60006020820190506112c960008301846112a5565b92915050565b600061ffff82169050919050565b6112e6816112cf565b82525050565b600060208201905061130160008301846112dd565b92915050565b6000611312826111be565b9050919050565b61132281611307565b82525050565b600060208201905061133d6000830184611319565b92915050565b600060208284031215611359576113586111b9565b5b600061136784828501611207565b91505092915050565b611379816111de565b82525050565b600060608201905061139460008301866112dd565b6113a160208301856112a5565b6113ae6040830184611370565b949350505050565b600080604083850312156113cd576113cc6111b9565b5b60006113db85828601611207565b92505060206113ec8582860161123d565b9150509250929050565b600060408201905061140b6000830185611370565b61141860208301846112dd565b9392505050565b600080600060608486031215611438576114376111b9565b5b600061144686828701611207565b93505060206114578682870161123d565b92505060406114688682870161123d565b9150509250925092565b60006020820190506114876000830184611370565b92915050565b60006040820190506114a260008301856112a5565b6114af60208301846112a5565b9392505050565b6114bf816112cf565b81146114ca57600080fd5b50565b6000813590506114dc816114b6565b92915050565b6114eb81611307565b81146114f657600080fd5b50565b600081359050611508816114e2565b92915050565b60008060408385031215611525576115246111b9565b5b6000611533858286016114cd565b9250506020611544858286016114f9565b9150509250929050565b600082825260208201905092915050565b7f616c7265616479206c6973746564000000000000000000000000000000000000600082015250565b6000611595600e8361154e565b91506115a08261155f565b602082019050919050565b600060208201905081810360008301526115c481611588565b9050919050565b60007fffffffff0000000000000000000000000000000000000000000000000000000082169050919050565b611600816115cb565b82525050565b600060208201905061161b60008301846115f7565b92915050565b60008115159050919050565b61163681611621565b811461164157600080fd5b50565b6000815190506116538161162d565b92915050565b60006020828403121561166f5761166e6111b9565b5b600061167d84828501611644565b91505092915050565b600081519050611695816111f0565b92915050565b6000602082840312156116b1576116b06111b9565b5b60006116bf84828501611686565b91505092915050565b7f6e6f74206f776e696e67206974656d0000000000000000000000000000000000600082015250565b60006116fe600f8361154e565b9150611709826116c8565b602082019050919050565b6000602082019050818103600083015261172d816116f1565b9050919050565b60006040820190506117496000830185611370565b6117566020830184611370565b9392505050565b7f6172746f6e67206e6f7420617070726f76656420666f7220746869732069746560008201527f6d00000000000000000000000000000000000000000000000000000000000000602082015250565b60006117b960218361154e565b91506117c48261175d565b604082019050919050565b600060208201905081810360008301526117e8816117ac565b9050919050565b7f696e76616c6964206e6674206164647265737300000000000000000000000000600082015250565b600061182560138361154e565b9150611830826117ef565b602082019050919050565b6000602082019050818103600083015261185481611818565b9050919050565b7f5265656e7472616e637947756172643a207265656e7472616e742063616c6c00600082015250565b6000611891601f8361154e565b915061189c8261185b565b602082019050919050565b600060208201905081810360008301526118c081611884565b9050919050565b7f6e6f74206c6973746564206974656d0000000000000000000000000000000000600082015250565b60006118fd600f8361154e565b9150611908826118c7565b602082019050919050565b6000602082019050818103600083015261192c816118f0565b9050919050565b7f496e697469616c697a61626c653a20636f6e747261637420697320616c72656160008201527f647920696e697469616c697a6564000000000000000000000000000000000000602082015250565b600061198f602e8361154e565b915061199a82611933565b604082019050919050565b600060208201905081810360008301526119be81611982565b9050919050565b6000819050919050565b600060ff82169050919050565b6000819050919050565b6000611a016119fc6119f7846119c5565b6119dc565b6119cf565b9050919050565b611a11816119e6565b82525050565b6000602082019050611a2c6000830184611a08565b92915050565b7f4f776e61626c653a206e6577206f776e657220697320746865207a65726f206160008201527f6464726573730000000000000000000000000000000000000000000000000000602082015250565b6000611a8e60268361154e565b9150611a9982611a32565b604082019050919050565b60006020820190508181036000830152611abd81611a81565b9050919050565b7f4f776e61626c653a2063616c6c6572206973206e6f7420746865206f776e6572600082015250565b6000611afa60208361154e565b9150611b0582611ac4565b602082019050919050565b60006020820190508181036000830152611b2981611aed565b9050919050565b7f496e697469616c697a61626c653a20636f6e7472616374206973206e6f74206960008201527f6e697469616c697a696e67000000000000000000000000000000000000000000602082015250565b6000611b8c602b8361154e565b9150611b9782611b30565b604082019050919050565b60006020820190508181036000830152611bbb81611b7f565b905091905056fea2646970667358221220eaf65266cee372e656a3a74d298e6a4aa71071535cc934c993ce8976734060e364736f6c63430008090033",
  "linkReferences": {},
  "deployedLinkReferences": {}
}