{
  "_format": "hh-sol-artifact-1",
  "contractName": "ArtongMarketplace",
  "sourceName": "contracts/ArtongMarketplace.sol",
  "abi": [
    {
      "anonymous": false,
      "inputs": [
        {
          "indexed": false,
          "internalType": "uint8",
          "name": "version",
          "type": "uint8"
        }
      ],
      "name": "Initialized",
      "type": "event"
    },
    {
      "anonymous": false,
      "inputs": [
        {
          "indexed": true,
          "internalType": "address",
          "name": "owner",
          "type": "address"
        },
        {
          "indexed": true,
          "internalType": "address",
          "name": "nft",
          "type": "address"
        },
        {
          "indexed": false,
          "internalType": "uint256",
          "name": "tokenId",
          "type": "uint256"
        }
      ],
      "name": "ItemCanceled",
      "type": "event"
    },
    {
      "anonymous": false,
      "inputs": [
        {
          "indexed": true,
          "internalType": "address",
          "name": "owner",
          "type": "address"
        },
        {
          "indexed": true,
          "internalType": "address",
          "name": "nft",
          "type": "address"
        },
        {
          "indexed": false,
          "internalType": "uint256",
          "name": "tokenId",
          "type": "uint256"
        },
        {
          "indexed": false,
          "internalType": "uint256",
          "name": "price",
          "type": "uint256"
        }
      ],
      "name": "ItemListed",
      "type": "event"
    },
    {
      "anonymous": false,
      "inputs": [
        {
          "indexed": true,
          "internalType": "address",
          "name": "seller",
          "type": "address"
        },
        {
          "indexed": true,
          "internalType": "address",
          "name": "buyer",
          "type": "address"
        },
        {
          "indexed": true,
          "internalType": "address",
          "name": "nft",
          "type": "address"
        },
        {
          "indexed": false,
          "internalType": "uint256",
          "name": "tokenId",
          "type": "uint256"
        },
        {
          "indexed": false,
          "internalType": "uint256",
          "name": "price",
          "type": "uint256"
        }
      ],
      "name": "ItemSold",
      "type": "event"
    },
    {
      "anonymous": false,
      "inputs": [
        {
          "indexed": true,
          "internalType": "address",
          "name": "owner",
          "type": "address"
        },
        {
          "indexed": true,
          "internalType": "address",
          "name": "nft",
          "type": "address"
        },
        {
          "indexed": false,
          "internalType": "uint256",
          "name": "tokenId",
          "type": "uint256"
        },
        {
          "indexed": false,
          "internalType": "uint256",
          "name": "newPrice",
          "type": "uint256"
        }
      ],
      "name": "ItemUpdated",
      "type": "event"
    },
    {
      "anonymous": false,
      "inputs": [
        {
          "indexed": true,
          "internalType": "address",
          "name": "creator",
          "type": "address"
        },
        {
          "indexed": true,
          "internalType": "address",
          "name": "nft",
          "type": "address"
        },
        {
          "indexed": false,
          "internalType": "uint256",
          "name": "tokenId",
          "type": "uint256"
        }
      ],
      "name": "OfferCanceled",
      "type": "event"
    },
    {
      "anonymous": false,
      "inputs": [
        {
          "indexed": true,
          "internalType": "address",
          "name": "creator",
          "type": "address"
        },
        {
          "indexed": true,
          "internalType": "address",
          "name": "nft",
          "type": "address"
        },
        {
          "indexed": false,
          "internalType": "uint256",
          "name": "tokenId",
          "type": "uint256"
        },
        {
          "indexed": false,
          "internalType": "uint256",
          "name": "price",
          "type": "uint256"
        },
        {
          "indexed": false,
          "internalType": "uint256",
          "name": "deadline",
          "type": "uint256"
        }
      ],
      "name": "OfferCreated",
      "type": "event"
    },
    {
      "anonymous": false,
      "inputs": [
        {
          "indexed": true,
          "internalType": "address",
          "name": "previousOwner",
          "type": "address"
        },
        {
          "indexed": true,
          "internalType": "address",
          "name": "newOwner",
          "type": "address"
        }
      ],
      "name": "OwnershipTransferred",
      "type": "event"
    },
    {
      "anonymous": false,
      "inputs": [
        {
          "indexed": false,
          "internalType": "uint16",
          "name": "platformFee",
          "type": "uint16"
        }
      ],
      "name": "UpdatePlatformFee",
      "type": "event"
    },
    {
      "anonymous": false,
      "inputs": [
        {
          "indexed": false,
          "internalType": "address payable",
          "name": "platformFeeRecipient",
          "type": "address"
        }
      ],
      "name": "UpdatePlatformFeeRecipient",
      "type": "event"
    },
    {
      "inputs": [
        {
          "internalType": "address",
          "name": "_nftAddress",
          "type": "address"
        },
        {
          "internalType": "uint256",
          "name": "_tokenId",
          "type": "uint256"
        },
        {
          "internalType": "address",
          "name": "_owner",
          "type": "address"
        }
      ],
      "name": "buyItem",
      "outputs": [],
      "stateMutability": "payable",
      "type": "function"
    },
    {
      "inputs": [
        {
          "internalType": "address",
          "name": "_nftAddress",
          "type": "address"
        },
        {
          "internalType": "uint256",
          "name": "_tokenId",
          "type": "uint256"
        }
      ],
      "name": "cancelListing",
      "outputs": [],
      "stateMutability": "nonpayable",
      "type": "function"
    },
    {
      "inputs": [
        {
          "internalType": "address",
          "name": "",
          "type": "address"
        }
      ],
      "name": "collectionRoyalties",
      "outputs": [
        {
          "internalType": "uint16",
          "name": "royalty",
          "type": "uint16"
        },
        {
          "internalType": "uint256",
          "name": "royaltyBalance",
          "type": "uint256"
        }
      ],
      "stateMutability": "view",
      "type": "function"
    },
    {
      "inputs": [],
      "name": "feeReceipient",
      "outputs": [
        {
          "internalType": "address payable",
          "name": "",
          "type": "address"
        }
      ],
      "stateMutability": "view",
      "type": "function"
    },
    {
      "inputs": [
        {
          "internalType": "uint16",
          "name": "_platformFee",
          "type": "uint16"
        },
        {
          "internalType": "address payable",
          "name": "_feeRecipient",
          "type": "address"
        }
      ],
      "name": "initialize",
      "outputs": [],
      "stateMutability": "nonpayable",
      "type": "function"
    },
    {
      "inputs": [
        {
          "internalType": "address",
          "name": "_nftAddress",
          "type": "address"
        },
        {
          "internalType": "uint256",
          "name": "_tokenId",
          "type": "uint256"
        },
        {
          "internalType": "uint256",
          "name": "_price",
          "type": "uint256"
        }
      ],
      "name": "listItem",
      "outputs": [],
      "stateMutability": "nonpayable",
      "type": "function"
    },
    {
      "inputs": [
        {
          "internalType": "address",
          "name": "",
          "type": "address"
        },
        {
          "internalType": "uint256",
          "name": "",
          "type": "uint256"
        },
        {
          "internalType": "address",
          "name": "",
          "type": "address"
        }
      ],
      "name": "listingPrices",
      "outputs": [
        {
          "internalType": "uint256",
          "name": "",
          "type": "uint256"
        }
      ],
      "stateMutability": "view",
      "type": "function"
    },
    {
      "inputs": [
        {
          "internalType": "address",
          "name": "",
          "type": "address"
        },
        {
          "internalType": "uint256",
          "name": "",
          "type": "uint256"
        }
      ],
      "name": "minters",
      "outputs": [
        {
          "internalType": "address",
          "name": "",
          "type": "address"
        }
      ],
      "stateMutability": "view",
      "type": "function"
    },
    {
      "inputs": [
        {
          "internalType": "address",
          "name": "",
          "type": "address"
        },
        {
          "internalType": "uint256",
          "name": "",
          "type": "uint256"
        },
        {
          "internalType": "address",
          "name": "",
          "type": "address"
        }
      ],
      "name": "offers",
      "outputs": [
        {
          "internalType": "uint256",
          "name": "price",
          "type": "uint256"
        },
        {
          "internalType": "uint256",
          "name": "deadline",
          "type": "uint256"
        }
      ],
      "stateMutability": "view",
      "type": "function"
    },
    {
      "inputs": [],
      "name": "owner",
      "outputs": [
        {
          "internalType": "address",
          "name": "",
          "type": "address"
        }
      ],
      "stateMutability": "view",
      "type": "function"
    },
    {
      "inputs": [],
      "name": "platformFee",
      "outputs": [
        {
          "internalType": "uint16",
          "name": "",
          "type": "uint16"
        }
      ],
      "stateMutability": "view",
      "type": "function"
    },
    {
      "inputs": [],
      "name": "renounceOwnership",
      "outputs": [],
      "stateMutability": "nonpayable",
      "type": "function"
    },
    {
      "inputs": [
        {
          "internalType": "address",
          "name": "",
          "type": "address"
        }
      ],
      "name": "tokenRoyalties",
      "outputs": [
        {
          "internalType": "uint16",
          "name": "royalty",
          "type": "uint16"
        },
        {
          "internalType": "uint256",
          "name": "royaltyBalance",
          "type": "uint256"
        }
      ],
      "stateMutability": "view",
      "type": "function"
    },
    {
      "inputs": [
        {
          "internalType": "address",
          "name": "newOwner",
          "type": "address"
        }
      ],
      "name": "transferOwnership",
      "outputs": [],
      "stateMutability": "nonpayable",
      "type": "function"
    },
    {
      "inputs": [
        {
          "internalType": "address",
          "name": "_nftAddress",
          "type": "address"
        },
        {
          "internalType": "uint256",
          "name": "_tokenId",
          "type": "uint256"
        },
        {
          "internalType": "uint256",
          "name": "_newPrice",
          "type": "uint256"
        }
      ],
      "name": "updateListing",
      "outputs": [],
      "stateMutability": "nonpayable",
      "type": "function"
    },
    {
      "inputs": [],
      "name": "withdraw",
      "outputs": [],
      "stateMutability": "nonpayable",
      "type": "function"
    }
  ],
  "bytecode": "0x608060405234801561001057600080fd5b50612d92806100206000396000f3fe6080604052600436106100f35760003560e01c806389bfd38f1161008a578063d3f494cc11610059578063d3f494cc1461030b578063e0dbcde514610349578063f2fde38b14610372578063f772adf11461039b576100f3565b806389bfd38f146102505780638da5cb5b14610279578063b2ddee06146102a4578063c3c3b2a4146102cd576100f3565b80633ccfd60b116100c65780633ccfd60b146101a757806357b275b4146101be578063715018a6146101fc57806378746d0d14610213576100f3565b806309736b8a146100f8578063259ca3651461013557806326232a2e146101515780633740ebb31461017c575b600080fd5b34801561010457600080fd5b5061011f600480360381019061011a9190612083565b6103c4565b60405161012c91906120e5565b60405180910390f35b61014f600480360381019061014a9190612083565b6103f6565b005b34801561015d57600080fd5b50610166610cfc565b604051610173919061211d565b60405180910390f35b34801561018857600080fd5b50610191610d10565b60405161019e9190612159565b60405180910390f35b3480156101b357600080fd5b506101bc610d36565b005b3480156101ca57600080fd5b506101e560048036038101906101e09190612174565b610e96565b6040516101f39291906121a1565b60405180910390f35b34801561020857600080fd5b50610211610ec8565b005b34801561021f57600080fd5b5061023a600480360381019061023591906121ca565b610edc565b6040516102479190612219565b60405180910390f35b34801561025c57600080fd5b5061027760048036038101906102729190612234565b610f1e565b005b34801561028557600080fd5b5061028e6113ac565b60405161029b9190612219565b60405180910390f35b3480156102b057600080fd5b506102cb60048036038101906102c691906121ca565b6113d6565b005b3480156102d957600080fd5b506102f460048036038101906102ef9190612174565b611522565b6040516103029291906121a1565b60405180910390f35b34801561031757600080fd5b50610332600480360381019061032d9190612083565b611554565b604051610340929190612287565b60405180910390f35b34801561035557600080fd5b50610370600480360381019061036b9190612308565b611592565b005b34801561037e57600080fd5b5061039960048036038101906103949190612174565b611738565b005b3480156103a757600080fd5b506103c260048036038101906103bd9190612234565b6117bc565b005b609960205282600052604060002060205281600052604060002060205280600052604060002060009250925050505481565b6002606554141561043c576040517f08c379a0000000000000000000000000000000000000000000000000000000008152600401610433906123a5565b60405180910390fd5b60026065819055508282826000609960008573ffffffffffffffffffffffffffffffffffffffff1673ffffffffffffffffffffffffffffffffffffffff168152602001908152602001600020600084815260200190815260200160002060008373ffffffffffffffffffffffffffffffffffffffff1673ffffffffffffffffffffffffffffffffffffffff1681526020019081526020016000205490506000811161051c576040517f08c379a000000000000000000000000000000000000000000000000000000000815260040161051390612411565b60405180910390fd5b6105278787876119fe565b6000609960008973ffffffffffffffffffffffffffffffffffffffff1673ffffffffffffffffffffffffffffffffffffffff168152602001908152602001600020600088815260200190815260200160002060008773ffffffffffffffffffffffffffffffffffffffff1673ffffffffffffffffffffffffffffffffffffffff168152602001908152602001600020549050803410156105fc576040517f08c379a00000000000000000000000000000000000000000000000000000000081526004016105f39061247d565b60405180910390fd5b600061061882609760009054906101000a900461ffff16611bed565b90506000609760029054906101000a900473ffffffffffffffffffffffffffffffffffffffff1673ffffffffffffffffffffffffffffffffffffffff1682604051610662906124ce565b60006040518083038185875af1925050503d806000811461069f576040519150601f19603f3d011682016040523d82523d6000602084013e6106a4565b606091505b50509050806106e8576040517f08c379a00000000000000000000000000000000000000000000000000000000081526004016106df9061252f565b60405180910390fd5b6000609860008c73ffffffffffffffffffffffffffffffffffffffff1673ffffffffffffffffffffffffffffffffffffffff16815260200190815260200160002060008b815260200190815260200160002060009054906101000a900473ffffffffffffffffffffffffffffffffffffffff1690506000609c60008b73ffffffffffffffffffffffffffffffffffffffff1673ffffffffffffffffffffffffffffffffffffffff1681526020019081526020016000206040518060400160405290816000820160009054906101000a900461ffff1661ffff1661ffff1681526020016001820154815250509050600073ffffffffffffffffffffffffffffffffffffffff168273ffffffffffffffffffffffffffffffffffffffff161415801561081b57506000816000015161ffff1614155b1561085b576000610830868360000151611bed565b90508082602001818151610844919061257e565b915081815250508085610857919061257e565b9450505b6000609b60008e73ffffffffffffffffffffffffffffffffffffffff1673ffffffffffffffffffffffffffffffffffffffff1681526020019081526020016000206040518060400160405290816000820160009054906101000a900461ffff1661ffff1661ffff1681526020016001820154815250509050600073ffffffffffffffffffffffffffffffffffffffff168373ffffffffffffffffffffffffffffffffffffffff161415801561091957506000816000015161ffff1614155b1561095957600061092e878360000151611bed565b90508082602001818151610942919061257e565b915081815250508086610955919061257e565b9550505b8c73ffffffffffffffffffffffffffffffffffffffff1663da965778868861098191906125d4565b8d6040518363ffffffff1660e01b815260040161099e9190612219565b6000604051808303818588803b1580156109b757600080fd5b505af11580156109cb573d6000803e3d6000fd5b50505050508c73ffffffffffffffffffffffffffffffffffffffff166301ffc9a77f80ac58cd000000000000000000000000000000000000000000000000000000006040518263ffffffff1660e01b8152600401610a299190612643565b60206040518083038186803b158015610a4157600080fd5b505afa158015610a55573d6000803e3d6000fd5b505050506040513d601f19601f82011682018060405250810190610a799190612696565b15610aee578c73ffffffffffffffffffffffffffffffffffffffff166342842e0e8c338f6040518463ffffffff1660e01b8152600401610abb939291906126c3565b600060405180830381600087803b158015610ad557600080fd5b505af1158015610ae9573d6000803e3d6000fd5b505050505b85341115610bd65760003373ffffffffffffffffffffffffffffffffffffffff168734610b1b91906125d4565b604051610b27906124ce565b60006040518083038185875af1925050503d8060008114610b64576040519150601f19603f3d011682016040523d82523d6000602084013e610b69565b606091505b5050905080610bd4578634610b7e91906125d4565b609d60003373ffffffffffffffffffffffffffffffffffffffff1673ffffffffffffffffffffffffffffffffffffffff1681526020019081526020016000206000828254610bcc919061257e565b925050819055505b505b8c73ffffffffffffffffffffffffffffffffffffffff163373ffffffffffffffffffffffffffffffffffffffff168c73ffffffffffffffffffffffffffffffffffffffff167fee0ddd6454e05c1b33a8dfcb6cc52418d28020e96e21228bb601f5dbb6790cd08f8a604051610c4c929190612287565b60405180910390a4609960008e73ffffffffffffffffffffffffffffffffffffffff1673ffffffffffffffffffffffffffffffffffffffff16815260200190815260200160002060008d815260200190815260200160002060008c73ffffffffffffffffffffffffffffffffffffffff1673ffffffffffffffffffffffffffffffffffffffff16815260200190815260200160002060009055505050505050505050506001606581905550505050565b609760009054906101000a900461ffff1681565b609760029054906101000a900473ffffffffffffffffffffffffffffffffffffffff1681565b6000609d60003373ffffffffffffffffffffffffffffffffffffffff1673ffffffffffffffffffffffffffffffffffffffff1681526020019081526020016000205490506000811415610dbe576040517f08c379a0000000000000000000000000000000000000000000000000000000008152600401610db590612746565b60405180910390fd5b80471015610e01576040517f08c379a0000000000000000000000000000000000000000000000000000000008152600401610df8906127b2565b60405180910390fd5b60003390506000609d60003373ffffffffffffffffffffffffffffffffffffffff1673ffffffffffffffffffffffffffffffffffffffff168152602001908152602001600020819055508073ffffffffffffffffffffffffffffffffffffffff166108fc839081150290604051600060405180830381858888f19350505050158015610e91573d6000803e3d6000fd5b505050565b609b6020528060005260406000206000915090508060000160009054906101000a900461ffff16908060010154905082565b610ed0611c14565b610eda6000611c92565b565b60986020528160005260406000206020528060005260406000206000915091509054906101000a900473ffffffffffffffffffffffffffffffffffffffff1681565b8282336000609960008573ffffffffffffffffffffffffffffffffffffffff1673ffffffffffffffffffffffffffffffffffffffff168152602001908152602001600020600084815260200190815260200160002060008373ffffffffffffffffffffffffffffffffffffffff1673ffffffffffffffffffffffffffffffffffffffff16815260200190815260200160002054905060008114610ff6576040517f08c379a0000000000000000000000000000000000000000000000000000000008152600401610fed9061281e565b60405180910390fd5b8673ffffffffffffffffffffffffffffffffffffffff166301ffc9a77f80ac58cd000000000000000000000000000000000000000000000000000000006040518263ffffffff1660e01b815260040161104f9190612643565b60206040518083038186803b15801561106757600080fd5b505afa15801561107b573d6000803e3d6000fd5b505050506040513d601f19601f8201168201806040525081019061109f9190612696565b1561126f5760008790503373ffffffffffffffffffffffffffffffffffffffff168173ffffffffffffffffffffffffffffffffffffffff16636352211e896040518263ffffffff1660e01b81526004016110f991906120e5565b60206040518083038186803b15801561111157600080fd5b505afa158015611125573d6000803e3d6000fd5b505050506040513d601f19601f820116820180604052508101906111499190612853565b73ffffffffffffffffffffffffffffffffffffffff161461119f576040517f08c379a0000000000000000000000000000000000000000000000000000000008152600401611196906128cc565b60405180910390fd5b8073ffffffffffffffffffffffffffffffffffffffff1663e985e9c533306040518363ffffffff1660e01b81526004016111da9291906128ec565b60206040518083038186803b1580156111f257600080fd5b505afa158015611206573d6000803e3d6000fd5b505050506040513d601f19601f8201168201806040525081019061122a9190612696565b611269576040517f08c379a000000000000000000000000000000000000000000000000000000000815260040161126090612987565b60405180910390fd5b506112aa565b6040517f08c379a00000000000000000000000000000000000000000000000000000000081526004016112a1906129f3565b60405180910390fd5b84609960008973ffffffffffffffffffffffffffffffffffffffff1673ffffffffffffffffffffffffffffffffffffffff168152602001908152602001600020600088815260200190815260200160002060003373ffffffffffffffffffffffffffffffffffffffff1673ffffffffffffffffffffffffffffffffffffffff168152602001908152602001600020819055508673ffffffffffffffffffffffffffffffffffffffff163373ffffffffffffffffffffffffffffffffffffffff167fd547e933094f12a9159076970143ebe73234e64480317844b0dcb36117116de4888860405161139b929190612287565b60405180910390a350505050505050565b6000603360009054906101000a900473ffffffffffffffffffffffffffffffffffffffff16905090565b6002606554141561141c576040517f08c379a0000000000000000000000000000000000000000000000000000000008152600401611413906123a5565b60405180910390fd5b60026065819055508181336000609960008573ffffffffffffffffffffffffffffffffffffffff1673ffffffffffffffffffffffffffffffffffffffff168152602001908152602001600020600084815260200190815260200160002060008373ffffffffffffffffffffffffffffffffffffffff1673ffffffffffffffffffffffffffffffffffffffff168152602001908152602001600020549050600081116114fc576040517f08c379a00000000000000000000000000000000000000000000000000000000081526004016114f390612411565b60405180910390fd5b6115078686336119fe565b611512868633611d58565b5050505060016065819055505050565b609c6020528060005260406000206000915090508060000160009054906101000a900461ffff16908060010154905082565b609a60205282600052604060002060205281600052604060002060205280600052604060002060009250925050508060000154908060010154905082565b60008060019054906101000a900460ff161590508080156115c35750600160008054906101000a900460ff1660ff16105b806115f057506115d230611e53565b1580156115ef5750600160008054906101000a900460ff1660ff16145b5b61162f576040517f08c379a000000000000000000000000000000000000000000000000000000000815260040161162690612a85565b60405180910390fd5b60016000806101000a81548160ff021916908360ff160217905550801561166c576001600060016101000a81548160ff0219169083151502179055505b82609760006101000a81548161ffff021916908361ffff16021790555081609760026101000a81548173ffffffffffffffffffffffffffffffffffffffff021916908373ffffffffffffffffffffffffffffffffffffffff1602179055506116d2611e76565b6116da611ecf565b80156117335760008060016101000a81548160ff0219169083151502179055507f7f26b83ff96e1f2b6a682f133852f6798a09c465da95921460cefb3847402498600160405161172a9190612af7565b60405180910390a15b505050565b611740611c14565b600073ffffffffffffffffffffffffffffffffffffffff168173ffffffffffffffffffffffffffffffffffffffff1614156117b0576040517f08c379a00000000000000000000000000000000000000000000000000000000081526004016117a790612b84565b60405180910390fd5b6117b981611c92565b50565b60026065541415611802576040517f08c379a00000000000000000000000000000000000000000000000000000000081526004016117f9906123a5565b60405180910390fd5b60026065819055508282611814611f28565b6000609960008573ffffffffffffffffffffffffffffffffffffffff1673ffffffffffffffffffffffffffffffffffffffff168152602001908152602001600020600084815260200190815260200160002060008373ffffffffffffffffffffffffffffffffffffffff1673ffffffffffffffffffffffffffffffffffffffff168152602001908152602001600020549050600081116118e9576040517f08c379a00000000000000000000000000000000000000000000000000000000081526004016118e090612411565b60405180910390fd5b6118f48787336119fe565b84609960008973ffffffffffffffffffffffffffffffffffffffff1673ffffffffffffffffffffffffffffffffffffffff168152602001908152602001600020600088815260200190815260200160002060003373ffffffffffffffffffffffffffffffffffffffff1673ffffffffffffffffffffffffffffffffffffffff168152602001908152602001600020819055508673ffffffffffffffffffffffffffffffffffffffff163373ffffffffffffffffffffffffffffffffffffffff167f3c33e65e8698294810b631d476d60b44425303828da0b1f8b635231bfda12be288886040516119e5929190612287565b60405180910390a3505050506001606581905550505050565b8273ffffffffffffffffffffffffffffffffffffffff166301ffc9a77f80ac58cd000000000000000000000000000000000000000000000000000000006040518263ffffffff1660e01b8152600401611a579190612643565b60206040518083038186803b158015611a6f57600080fd5b505afa158015611a83573d6000803e3d6000fd5b505050506040513d601f19601f82011682018060405250810190611aa79190612696565b15611bad5760008390508173ffffffffffffffffffffffffffffffffffffffff168173ffffffffffffffffffffffffffffffffffffffff16636352211e856040518263ffffffff1660e01b8152600401611b0191906120e5565b60206040518083038186803b158015611b1957600080fd5b505afa158015611b2d573d6000803e3d6000fd5b505050506040513d601f19601f82011682018060405250810190611b519190612853565b73ffffffffffffffffffffffffffffffffffffffff1614611ba7576040517f08c379a0000000000000000000000000000000000000000000000000000000008152600401611b9e906128cc565b60405180910390fd5b50611be8565b6040517f08c379a0000000000000000000000000000000000000000000000000000000008152600401611bdf906129f3565b60405180910390fd5b505050565b60006127108261ffff1684611c029190612ba4565b611c0c9190612c2d565b905092915050565b611c1c611f28565b73ffffffffffffffffffffffffffffffffffffffff16611c3a6113ac565b73ffffffffffffffffffffffffffffffffffffffff1614611c90576040517f08c379a0000000000000000000000000000000000000000000000000000000008152600401611c8790612caa565b60405180910390fd5b565b6000603360009054906101000a900473ffffffffffffffffffffffffffffffffffffffff16905081603360006101000a81548173ffffffffffffffffffffffffffffffffffffffff021916908373ffffffffffffffffffffffffffffffffffffffff1602179055508173ffffffffffffffffffffffffffffffffffffffff168173ffffffffffffffffffffffffffffffffffffffff167f8be0079c531659141344cd1fd0a4f28419497f9722a3daafe3b4186f6b6457e060405160405180910390a35050565b609960008473ffffffffffffffffffffffffffffffffffffffff1673ffffffffffffffffffffffffffffffffffffffff168152602001908152602001600020600083815260200190815260200160002060008273ffffffffffffffffffffffffffffffffffffffff1673ffffffffffffffffffffffffffffffffffffffff168152602001908152602001600020600090558273ffffffffffffffffffffffffffffffffffffffff168173ffffffffffffffffffffffffffffffffffffffff167f9ba1a3cb55ce8d63d072a886f94d2a744f50cddf82128e897d0661f5ec62315884604051611e4691906120e5565b60405180910390a3505050565b6000808273ffffffffffffffffffffffffffffffffffffffff163b119050919050565b600060019054906101000a900460ff16611ec5576040517f08c379a0000000000000000000000000000000000000000000000000000000008152600401611ebc90612d3c565b60405180910390fd5b611ecd611f30565b565b600060019054906101000a900460ff16611f1e576040517f08c379a0000000000000000000000000000000000000000000000000000000008152600401611f1590612d3c565b60405180910390fd5b611f26611f91565b565b600033905090565b600060019054906101000a900460ff16611f7f576040517f08c379a0000000000000000000000000000000000000000000000000000000008152600401611f7690612d3c565b60405180910390fd5b611f8f611f8a611f28565b611c92565b565b600060019054906101000a900460ff16611fe0576040517f08c379a0000000000000000000000000000000000000000000000000000000008152600401611fd790612d3c565b60405180910390fd5b6001606581905550565b600080fd5b600073ffffffffffffffffffffffffffffffffffffffff82169050919050565b600061201a82611fef565b9050919050565b61202a8161200f565b811461203557600080fd5b50565b60008135905061204781612021565b92915050565b6000819050919050565b6120608161204d565b811461206b57600080fd5b50565b60008135905061207d81612057565b92915050565b60008060006060848603121561209c5761209b611fea565b5b60006120aa86828701612038565b93505060206120bb8682870161206e565b92505060406120cc86828701612038565b9150509250925092565b6120df8161204d565b82525050565b60006020820190506120fa60008301846120d6565b92915050565b600061ffff82169050919050565b61211781612100565b82525050565b6000602082019050612132600083018461210e565b92915050565b600061214382611fef565b9050919050565b61215381612138565b82525050565b600060208201905061216e600083018461214a565b92915050565b60006020828403121561218a57612189611fea565b5b600061219884828501612038565b91505092915050565b60006040820190506121b6600083018561210e565b6121c360208301846120d6565b9392505050565b600080604083850312156121e1576121e0611fea565b5b60006121ef85828601612038565b92505060206122008582860161206e565b9150509250929050565b6122138161200f565b82525050565b600060208201905061222e600083018461220a565b92915050565b60008060006060848603121561224d5761224c611fea565b5b600061225b86828701612038565b935050602061226c8682870161206e565b925050604061227d8682870161206e565b9150509250925092565b600060408201905061229c60008301856120d6565b6122a960208301846120d6565b9392505050565b6122b981612100565b81146122c457600080fd5b50565b6000813590506122d6816122b0565b92915050565b6122e581612138565b81146122f057600080fd5b50565b600081359050612302816122dc565b92915050565b6000806040838503121561231f5761231e611fea565b5b600061232d858286016122c7565b925050602061233e858286016122f3565b9150509250929050565b600082825260208201905092915050565b7f5265656e7472616e637947756172643a207265656e7472616e742063616c6c00600082015250565b600061238f601f83612348565b915061239a82612359565b602082019050919050565b600060208201905081810360008301526123be81612382565b9050919050565b7f6e6f74206c6973746564206974656d0000000000000000000000000000000000600082015250565b60006123fb600f83612348565b9150612406826123c5565b602082019050919050565b6000602082019050818103600083015261242a816123ee565b9050919050565b7f7061796d656e7420616d6f756e74206e6f7420656e6f75676800000000000000600082015250565b6000612467601983612348565b915061247282612431565b602082019050919050565b600060208201905081810360008301526124968161245a565b9050919050565b600081905092915050565b50565b60006124b860008361249d565b91506124c3826124a8565b600082019050919050565b60006124d9826124ab565b9150819050919050565b7f466565207472616e73666572206661696c656400000000000000000000000000600082015250565b6000612519601383612348565b9150612524826124e3565b602082019050919050565b600060208201905081810360008301526125488161250c565b9050919050565b7f4e487b7100000000000000000000000000000000000000000000000000000000600052601160045260246000fd5b60006125898261204d565b91506125948361204d565b9250827fffffffffffffffffffffffffffffffffffffffffffffffffffffffffffffffff038211156125c9576125c861254f565b5b828201905092915050565b60006125df8261204d565b91506125ea8361204d565b9250828210156125fd576125fc61254f565b5b828203905092915050565b60007fffffffff0000000000000000000000000000000000000000000000000000000082169050919050565b61263d81612608565b82525050565b60006020820190506126586000830184612634565b92915050565b60008115159050919050565b6126738161265e565b811461267e57600080fd5b50565b6000815190506126908161266a565b92915050565b6000602082840312156126ac576126ab611fea565b5b60006126ba84828501612681565b91505092915050565b60006060820190506126d8600083018661220a565b6126e5602083018561220a565b6126f260408301846120d6565b949350505050565b7f6e6f7468696e6720746f20776974686472617700000000000000000000000000600082015250565b6000612730601383612348565b915061273b826126fa565b602082019050919050565b6000602082019050818103600083015261275f81612723565b9050919050565b7f62616c616e6365206e6f7420656e6f75676820746f2077697468647261770000600082015250565b600061279c601e83612348565b91506127a782612766565b602082019050919050565b600060208201905081810360008301526127cb8161278f565b9050919050565b7f616c7265616479206c6973746564000000000000000000000000000000000000600082015250565b6000612808600e83612348565b9150612813826127d2565b602082019050919050565b60006020820190508181036000830152612837816127fb565b9050919050565b60008151905061284d81612021565b92915050565b60006020828403121561286957612868611fea565b5b60006128778482850161283e565b91505092915050565b7f6e6f74206f776e696e67206974656d0000000000000000000000000000000000600082015250565b60006128b6600f83612348565b91506128c182612880565b602082019050919050565b600060208201905081810360008301526128e5816128a9565b9050919050565b6000604082019050612901600083018561220a565b61290e602083018461220a565b9392505050565b7f6172746f6e67206e6f7420617070726f76656420666f7220746869732069746560008201527f6d00000000000000000000000000000000000000000000000000000000000000602082015250565b6000612971602183612348565b915061297c82612915565b604082019050919050565b600060208201905081810360008301526129a081612964565b9050919050565b7f696e76616c6964206e6674206164647265737300000000000000000000000000600082015250565b60006129dd601383612348565b91506129e8826129a7565b602082019050919050565b60006020820190508181036000830152612a0c816129d0565b9050919050565b7f496e697469616c697a61626c653a20636f6e747261637420697320616c72656160008201527f647920696e697469616c697a6564000000000000000000000000000000000000602082015250565b6000612a6f602e83612348565b9150612a7a82612a13565b604082019050919050565b60006020820190508181036000830152612a9e81612a62565b9050919050565b6000819050919050565b600060ff82169050919050565b6000819050919050565b6000612ae1612adc612ad784612aa5565b612abc565b612aaf565b9050919050565b612af181612ac6565b82525050565b6000602082019050612b0c6000830184612ae8565b92915050565b7f4f776e61626c653a206e6577206f776e657220697320746865207a65726f206160008201527f6464726573730000000000000000000000000000000000000000000000000000602082015250565b6000612b6e602683612348565b9150612b7982612b12565b604082019050919050565b60006020820190508181036000830152612b9d81612b61565b9050919050565b6000612baf8261204d565b9150612bba8361204d565b9250817fffffffffffffffffffffffffffffffffffffffffffffffffffffffffffffffff0483118215151615612bf357612bf261254f565b5b828202905092915050565b7f4e487b7100000000000000000000000000000000000000000000000000000000600052601260045260246000fd5b6000612c388261204d565b9150612c438361204d565b925082612c5357612c52612bfe565b5b828204905092915050565b7f4f776e61626c653a2063616c6c6572206973206e6f7420746865206f776e6572600082015250565b6000612c94602083612348565b9150612c9f82612c5e565b602082019050919050565b60006020820190508181036000830152612cc381612c87565b9050919050565b7f496e697469616c697a61626c653a20636f6e7472616374206973206e6f74206960008201527f6e697469616c697a696e67000000000000000000000000000000000000000000602082015250565b6000612d26602b83612348565b9150612d3182612cca565b604082019050919050565b60006020820190508181036000830152612d5581612d19565b905091905056fea26469706673582212201ae17f0cc440e12d94a37fd6ab244fbb0bf4157d37a2e87a2d99cacc53461e8064736f6c63430008090033",
  "linkReferences": {},
  "deployedLinkReferences": {}
}