{
  "_format": "hh-sol-artifact-1",
  "contractName": "ArtongMarketplace",
  "sourceName": "contracts/ArtongMarketplace.sol",
  "abi": [
    {
      "anonymous": false,
      "inputs": [
        {
          "indexed": false,
          "internalType": "uint8",
          "name": "version",
          "type": "uint8"
        }
      ],
      "name": "Initialized",
      "type": "event"
    },
    {
      "anonymous": false,
      "inputs": [
        {
          "indexed": true,
          "internalType": "address",
          "name": "owner",
          "type": "address"
        },
        {
          "indexed": true,
          "internalType": "address",
          "name": "nft",
          "type": "address"
        },
        {
          "indexed": false,
          "internalType": "uint256",
          "name": "tokenId",
          "type": "uint256"
        }
      ],
      "name": "ItemCanceled",
      "type": "event"
    },
    {
      "anonymous": false,
      "inputs": [
        {
          "indexed": true,
          "internalType": "address",
          "name": "owner",
          "type": "address"
        },
        {
          "indexed": true,
          "internalType": "address",
          "name": "nft",
          "type": "address"
        },
        {
          "indexed": false,
          "internalType": "uint256",
          "name": "tokenId",
          "type": "uint256"
        },
        {
          "indexed": false,
          "internalType": "uint256",
          "name": "price",
          "type": "uint256"
        }
      ],
      "name": "ItemListed",
      "type": "event"
    },
    {
      "anonymous": false,
      "inputs": [
        {
          "indexed": true,
          "internalType": "address",
          "name": "seller",
          "type": "address"
        },
        {
          "indexed": true,
          "internalType": "address",
          "name": "buyer",
          "type": "address"
        },
        {
          "indexed": true,
          "internalType": "address",
          "name": "nft",
          "type": "address"
        },
        {
          "indexed": false,
          "internalType": "uint256",
          "name": "tokenId",
          "type": "uint256"
        },
        {
          "indexed": false,
          "internalType": "uint256",
          "name": "price",
          "type": "uint256"
        }
      ],
      "name": "ItemSold",
      "type": "event"
    },
    {
      "anonymous": false,
      "inputs": [
        {
          "indexed": true,
          "internalType": "address",
          "name": "owner",
          "type": "address"
        },
        {
          "indexed": true,
          "internalType": "address",
          "name": "nft",
          "type": "address"
        },
        {
          "indexed": false,
          "internalType": "uint256",
          "name": "tokenId",
          "type": "uint256"
        },
        {
          "indexed": false,
          "internalType": "uint256",
          "name": "newPrice",
          "type": "uint256"
        }
      ],
      "name": "ItemUpdated",
      "type": "event"
    },
    {
      "anonymous": false,
      "inputs": [
        {
          "indexed": true,
          "internalType": "address",
          "name": "nft",
          "type": "address"
        },
        {
          "indexed": false,
          "internalType": "uint256",
          "name": "tokenId",
          "type": "uint256"
        },
        {
          "indexed": true,
          "internalType": "address",
          "name": "creator",
          "type": "address"
        }
      ],
      "name": "OfferAccepted",
      "type": "event"
    },
    {
      "anonymous": false,
      "inputs": [
        {
          "indexed": true,
          "internalType": "address",
          "name": "creator",
          "type": "address"
        },
        {
          "indexed": true,
          "internalType": "address",
          "name": "nft",
          "type": "address"
        },
        {
          "indexed": false,
          "internalType": "uint256",
          "name": "tokenId",
          "type": "uint256"
        },
        {
          "indexed": false,
          "internalType": "uint256",
          "name": "price",
          "type": "uint256"
        },
        {
          "indexed": false,
          "internalType": "uint256",
          "name": "deadline",
          "type": "uint256"
        }
      ],
      "name": "OfferCreated",
      "type": "event"
    },
    {
      "anonymous": false,
      "inputs": [
        {
          "indexed": true,
          "internalType": "address",
          "name": "previousOwner",
          "type": "address"
        },
        {
          "indexed": true,
          "internalType": "address",
          "name": "newOwner",
          "type": "address"
        }
      ],
      "name": "OwnershipTransferred",
      "type": "event"
    },
    {
      "anonymous": false,
      "inputs": [
        {
          "indexed": true,
          "internalType": "address",
          "name": "collectionOwner",
          "type": "address"
        },
        {
          "indexed": true,
          "internalType": "address",
          "name": "nft",
          "type": "address"
        },
        {
          "indexed": false,
          "internalType": "uint16",
          "name": "royalty",
          "type": "uint16"
        }
      ],
      "name": "UpdateCollectionRoyalty",
      "type": "event"
    },
    {
      "anonymous": false,
      "inputs": [
        {
          "indexed": false,
          "internalType": "uint16",
          "name": "platformFee",
          "type": "uint16"
        }
      ],
      "name": "UpdatePlatformFee",
      "type": "event"
    },
    {
      "anonymous": false,
      "inputs": [
        {
          "indexed": false,
          "internalType": "address payable",
          "name": "platformFeeRecipient",
          "type": "address"
        }
      ],
      "name": "UpdatePlatformFeeRecipient",
      "type": "event"
    },
    {
      "anonymous": false,
      "inputs": [
        {
          "indexed": true,
          "internalType": "address",
          "name": "tokenOwner",
          "type": "address"
        },
        {
          "indexed": false,
          "internalType": "uint16",
          "name": "royalty",
          "type": "uint16"
        }
      ],
      "name": "UpdateTokenRoyalty",
      "type": "event"
    },
    {
      "inputs": [
        {
          "internalType": "address",
          "name": "_nftAddress",
          "type": "address"
        },
        {
          "internalType": "uint256",
          "name": "_tokenId",
          "type": "uint256"
        },
        {
          "internalType": "address",
          "name": "_creator",
          "type": "address"
        }
      ],
      "name": "acceptOffer",
      "outputs": [],
      "stateMutability": "nonpayable",
      "type": "function"
    },
    {
      "inputs": [
        {
          "internalType": "address",
          "name": "_nftAddress",
          "type": "address"
        },
        {
          "internalType": "uint256",
          "name": "_tokenId",
          "type": "uint256"
        },
        {
          "internalType": "address",
          "name": "_owner",
          "type": "address"
        }
      ],
      "name": "buyItem",
      "outputs": [],
      "stateMutability": "payable",
      "type": "function"
    },
    {
      "inputs": [
        {
          "internalType": "address",
          "name": "_nftAddress",
          "type": "address"
        },
        {
          "internalType": "uint256",
          "name": "_tokenId",
          "type": "uint256"
        }
      ],
      "name": "cancelListing",
      "outputs": [],
      "stateMutability": "nonpayable",
      "type": "function"
    },
    {
      "inputs": [
        {
          "internalType": "address",
          "name": "_nftAddress",
          "type": "address"
        },
        {
          "internalType": "uint256",
          "name": "_tokenId",
          "type": "uint256"
        },
        {
          "internalType": "uint256",
          "name": "_deadline",
          "type": "uint256"
        }
      ],
      "name": "createOffer",
      "outputs": [],
      "stateMutability": "payable",
      "type": "function"
    },
    {
      "inputs": [],
      "name": "feeReceipient",
      "outputs": [
        {
          "internalType": "address payable",
          "name": "",
          "type": "address"
        }
      ],
      "stateMutability": "view",
      "type": "function"
    },
    {
      "inputs": [
        {
          "internalType": "uint256",
          "name": "_moment",
          "type": "uint256"
        },
        {
          "internalType": "address",
          "name": "user",
          "type": "address"
        }
      ],
      "name": "getArtongBalance",
      "outputs": [
        {
          "internalType": "uint256",
          "name": "",
          "type": "uint256"
        }
      ],
      "stateMutability": "view",
      "type": "function"
    },
    {
      "inputs": [
        {
          "internalType": "address",
          "name": "_nftAddress",
          "type": "address"
        }
      ],
      "name": "getCollectionRoyalty",
      "outputs": [
        {
          "components": [
            {
              "internalType": "uint16",
              "name": "royalty",
              "type": "uint16"
            },
            {
              "internalType": "uint256",
              "name": "royaltyBalance",
              "type": "uint256"
            }
          ],
          "internalType": "struct ArtongMarketplace.CollectionRoyalty",
          "name": "",
          "type": "tuple"
        }
      ],
      "stateMutability": "view",
      "type": "function"
    },
    {
      "inputs": [
        {
          "internalType": "uint256",
          "name": "_moment",
          "type": "uint256"
        },
        {
          "internalType": "address",
          "name": "user",
          "type": "address"
        }
      ],
      "name": "getOfferBalance",
      "outputs": [
        {
          "internalType": "uint256",
          "name": "",
          "type": "uint256"
        }
      ],
      "stateMutability": "view",
      "type": "function"
    },
    {
      "inputs": [
        {
          "internalType": "uint16",
          "name": "_platformFee",
          "type": "uint16"
        },
        {
          "internalType": "address payable",
          "name": "_feeRecipient",
          "type": "address"
        }
      ],
      "name": "initialize",
      "outputs": [],
      "stateMutability": "nonpayable",
      "type": "function"
    },
    {
      "inputs": [
        {
          "internalType": "address",
          "name": "_nftAddress",
          "type": "address"
        },
        {
          "internalType": "uint256",
          "name": "_tokenId",
          "type": "uint256"
        },
        {
          "internalType": "uint256",
          "name": "_price",
          "type": "uint256"
        }
      ],
      "name": "listItem",
      "outputs": [],
      "stateMutability": "nonpayable",
      "type": "function"
    },
    {
      "inputs": [
        {
          "internalType": "address",
          "name": "",
          "type": "address"
        },
        {
          "internalType": "uint256",
          "name": "",
          "type": "uint256"
        },
        {
          "internalType": "address",
          "name": "",
          "type": "address"
        }
      ],
      "name": "offers",
      "outputs": [
        {
          "internalType": "uint256",
          "name": "price",
          "type": "uint256"
        },
        {
          "internalType": "uint256",
          "name": "deadline",
          "type": "uint256"
        }
      ],
      "stateMutability": "view",
      "type": "function"
    },
    {
      "inputs": [],
      "name": "owner",
      "outputs": [
        {
          "internalType": "address",
          "name": "",
          "type": "address"
        }
      ],
      "stateMutability": "view",
      "type": "function"
    },
    {
      "inputs": [],
      "name": "platformFee",
      "outputs": [
        {
          "internalType": "uint16",
          "name": "",
          "type": "uint16"
        }
      ],
      "stateMutability": "view",
      "type": "function"
    },
    {
      "inputs": [
        {
          "internalType": "address",
          "name": "_minter",
          "type": "address"
        },
        {
          "internalType": "address",
          "name": "_nftAddress",
          "type": "address"
        },
        {
          "internalType": "uint256",
          "name": "_tokenId",
          "type": "uint256"
        }
      ],
      "name": "registerMinter",
      "outputs": [],
      "stateMutability": "nonpayable",
      "type": "function"
    },
    {
      "inputs": [],
      "name": "renounceOwnership",
      "outputs": [],
      "stateMutability": "nonpayable",
      "type": "function"
    },
    {
      "inputs": [
        {
          "internalType": "address",
          "name": "user",
          "type": "address"
        }
      ],
      "name": "sendArtongBalance",
      "outputs": [],
      "stateMutability": "payable",
      "type": "function"
    },
    {
      "inputs": [
        {
          "internalType": "address",
          "name": "newOwner",
          "type": "address"
        }
      ],
      "name": "transferOwnership",
      "outputs": [],
      "stateMutability": "nonpayable",
      "type": "function"
    },
    {
      "inputs": [
        {
          "internalType": "address",
          "name": "_nftAddress",
          "type": "address"
        },
        {
          "internalType": "uint16",
          "name": "_royalty",
          "type": "uint16"
        }
      ],
      "name": "updateCollectionRoyalty",
      "outputs": [],
      "stateMutability": "nonpayable",
      "type": "function"
    },
    {
      "inputs": [
        {
          "internalType": "address",
          "name": "_nftAddress",
          "type": "address"
        },
        {
          "internalType": "uint256",
          "name": "_tokenId",
          "type": "uint256"
        },
        {
          "internalType": "uint256",
          "name": "_newPrice",
          "type": "uint256"
        }
      ],
      "name": "updateListing",
      "outputs": [],
      "stateMutability": "nonpayable",
      "type": "function"
    },
    {
      "inputs": [
        {
          "internalType": "uint16",
          "name": "_platformFee",
          "type": "uint16"
        }
      ],
      "name": "updatePlatformFee",
      "outputs": [],
      "stateMutability": "nonpayable",
      "type": "function"
    },
    {
      "inputs": [
        {
          "internalType": "address payable",
          "name": "_platformFeeRecipient",
          "type": "address"
        }
      ],
      "name": "updatePlatformFeeRecipient",
      "outputs": [],
      "stateMutability": "nonpayable",
      "type": "function"
    },
    {
      "inputs": [
        {
          "internalType": "uint16",
          "name": "_royalty",
          "type": "uint16"
        }
      ],
      "name": "updateTokenRoyalty",
      "outputs": [],
      "stateMutability": "nonpayable",
      "type": "function"
    },
    {
      "inputs": [
        {
          "internalType": "address",
          "name": "",
          "type": "address"
        },
        {
          "internalType": "uint256",
          "name": "",
          "type": "uint256"
        }
      ],
      "name": "userOffers",
      "outputs": [
        {
          "internalType": "uint256",
          "name": "price",
          "type": "uint256"
        },
        {
          "internalType": "uint256",
          "name": "deadline",
          "type": "uint256"
        }
      ],
      "stateMutability": "view",
      "type": "function"
    },
    {
      "inputs": [],
      "name": "withdraw",
      "outputs": [],
      "stateMutability": "nonpayable",
      "type": "function"
    }
  ],
  "bytecode": "0x608060405234801561001057600080fd5b5061254e806100206000396000f3fe60806040526004361061014a5760003560e01c806374a5ea91116100b6578063d3f494cc1161006f578063d3f494cc14610418578063e0dbcde51461045d578063e6d07de91461047d578063f2fde38b14610490578063f5fe7f71146104b0578063f772adf1146104d057600080fd5b806374a5ea911461034557806389bfd38f146103655780638da5cb5b14610385578063afb06952146103a3578063b2ddee06146103c3578063bd5fec65146103e357600080fd5b80633bbb2806116101085780633bbb28061461028d5780633ccfd60b146102ad5780634d0228e4146102c25780635e6c00f5146102e25780636b85228814610310578063715018a61461033057600080fd5b8062e56c6d1461014f5780631c6c712814610171578063259ca3651461018457806326232a2e1461019757806333ff9422146101ca5780633740ebb31461024f575b600080fd5b34801561015b57600080fd5b5061016f61016a36600461214c565b6104f0565b005b61016f61017f36600461217c565b610595565b61016f6101923660046121b1565b61089a565b3480156101a357600080fd5b506097546101b29061ffff1681565b60405161ffff90911681526020015b60405180910390f35b3480156101d657600080fd5b506102306101e53660046121f3565b6040805180820190915260008082526020820152506001600160a01b03166000908152609b60209081526040918290208251808401909352805461ffff168352600101549082015290565b60408051825161ffff16815260209283015192810192909252016101c1565b34801561025b57600080fd5b50609754610275906201000090046001600160a01b031681565b6040516001600160a01b0390911681526020016101c1565b34801561029957600080fd5b5061016f6102a83660046121b1565b610958565b3480156102b957600080fd5b5061016f610b90565b3480156102ce57600080fd5b5061016f6102dd366004612210565b610d00565b3480156102ee57600080fd5b506103026102fd366004612251565b610dad565b6040519081526020016101c1565b34801561031c57600080fd5b5061016f61032b366004612281565b610de3565b34801561033c57600080fd5b5061016f610fcb565b34801561035157600080fd5b50610302610360366004612251565b610fdf565b34801561037157600080fd5b5061016f61038036600461217c565b6110d7565b34801561039157600080fd5b506033546001600160a01b0316610275565b3480156103af57600080fd5b5061016f6103be36600461214c565b611368565b3480156103cf57600080fd5b5061016f6103de3660046122b6565b6113bb565b3480156103ef57600080fd5b506104036103fe3660046122b6565b61144a565b604080519283526020830191909152016101c1565b34801561042457600080fd5b506104036104333660046121b1565b60996020908152600093845260408085208252928452828420905282529020805460019091015482565b34801561046957600080fd5b5061016f6104783660046122e2565b611486565b61016f61048b3660046121f3565b6115c9565b34801561049c57600080fd5b5061016f6104ab3660046121f3565b6115f9565b3480156104bc57600080fd5b5061016f6104cb3660046121f3565b611672565b3480156104dc57600080fd5b5061016f6104eb36600461217c565b6116d2565b6127108161ffff16111561053d5760405162461bcd60e51b815260206004820152600f60248201526e696e76616c696420726f79616c747960881b60448201526064015b60405180910390fd5b336000818152609c6020908152604091829020805461ffff191661ffff861690811790915591519182527ff4eaba062863d26f46b81ed47ea2f6458cfd0c72a2686ec3dcd31177d240aab5910160405180910390a250565b6001600160a01b03831660009081526099602090815260408083208584528252808320338085529083529281902081518083019092528054808352600190910154928201929092528592859290919015806105f4575042816020015111155b6106385760405162461bcd60e51b81526020600482015260156024820152741bd999995c88185b1c9958591e4818dc99585d1959605a1b6044820152606401610534565b66038d7ea4c6800034116106875760405162461bcd60e51b81526020600482015260166024820152751bd999995c88185b5bdd5b9d081d1bdbc81cdb585b1b60521b6044820152606401610534565b610690876117b6565b6106ac5760405162461bcd60e51b81526004016105349061230e565b6040516331a9108f60e11b81526004810187905287906001600160a01b03821690636352211e9060240160206040518083038186803b1580156106ee57600080fd5b505afa158015610702573d6000803e3d6000fd5b505050506040513d601f19601f82011682018060405250810190610726919061233b565b6001600160a01b0316336001600160a01b0316141561077b5760405162461bcd60e51b815260206004820152601160248201527031b0b73737ba1039b2b6331037b33332b960791b6044820152606401610534565b856107945761078d620151804261236e565b95506107a4565b6107a14262015180612385565b95505b6040805180820182523480825260208083018a81526001600160a01b038d166000908152609983528581208d8252835285812033808352908452868220955186559151600195860155609a8352858120865180880188528581528085018e81528254808901845592845285842091516002909302909101918255519501949094558352609e9052918120805490919061083e908490612385565b9091555050604080518881523460208201529081018790526001600160a01b0389169033907f0c2598f084a085d4d27e8638b4306b07c633b1e724b3d27fc0af68714fe540289060600160405180910390a35050505050505050565b600260655414156108bd5760405162461bcd60e51b81526004016105349061239d565b60026065556001600160a01b038316600090815260986020908152604080832085845290915290205483908390806109075760405162461bcd60e51b8152600401610534906123d4565b61091286868661183d565b6001600160a01b03861660009081526098602090815260408083208884529091529020548433346109478a8a85858886611917565b505060016065555050505050505050565b6002606554141561097b5760405162461bcd60e51b81526004016105349061239d565b60026065556001600160a01b0380841660009081526099602090815260408083208684528252808320938516835292815290829020825180840190935280548084526001909101549183019190915284918491849190158015906109e25750428160200151115b610a2e5760405162461bcd60e51b815260206004820152601b60248201527f6f66666572206e6f7420657869737473206f72206578706972656400000000006044820152606401610534565b610a3987873361183d565b6001600160a01b0387811660009081526099602090815260408083208a8452825280832093891683529281528282208351808501909452805484526001015490830152610a864288610fdf565b8251909150811015610ada5760405162461bcd60e51b815260206004820152601e60248201527f62616c616e6365206e6f7420656e6f75676820746f20627579206974656d00006044820152606401610534565b815133908890610af2908c908c908590859080611917565b886001600160a01b03168b6001600160a01b03167f1911131efc06f8b35ef19454a244416c23f0cffd91e74ec4d1656a64ec363afe8c604051610b3791815260200190565b60405180910390a36001600160a01b03808c1660009081526099602090815260408083208e84528252808320938d16835292905290812081815560010155610b7e84611dae565b50506001606555505050505050505050565b426000610b9d8233610dad565b905080610be25760405162461bcd60e51b81526020600482015260136024820152726e6f7468696e6720746f20776974686472617760681b6044820152606401610534565b80471015610c325760405162461bcd60e51b815260206004820152601e60248201527f62616c616e6365206e6f7420656e6f75676820746f20776974686472617700006044820152606401610534565b336000908152609e602052604081208054839290610c5190849061236e565b90915550610c60905082611e69565b6040513390600090829084908381818185875af1925050503d8060008114610ca4576040519150601f19603f3d011682016040523d82523d6000602084013e610ca9565b606091505b5050905080610cfa5760405162461bcd60e51b815260206004820152601e60248201527f4172746f6e672062616c616e6365207472616e73666572206661696c656400006044820152606401610534565b50505050565b6001600160a01b038281166000908152609d602090815260408083208584529091529020541615610d735760405162461bcd60e51b815260206004820152601960248201527f6d696e74657220616c72656164792072656769737465726564000000000000006044820152606401610534565b6001600160a01b039182166000908152609d60209081526040808320938352929052208054919092166001600160a01b0319909116179055565b6000610db98383610fdf565b6001600160a01b0383166000908152609e6020526040902054610ddc919061236e565b9392505050565b6127108161ffff161115610e2b5760405162461bcd60e51b815260206004820152600f60248201526e696e76616c696420726f79616c747960881b6044820152606401610534565b610e34826117b6565b610e505760405162461bcd60e51b81526004016105349061230e565b6000829050806001600160a01b0316638da5cb5b6040518163ffffffff1660e01b815260040160206040518083038186803b158015610e8e57600080fd5b505afa158015610ea2573d6000803e3d6000fd5b505050506040513d601f19601f82011682018060405250810190610ec6919061233b565b6001600160a01b0316336001600160a01b031614610f265760405162461bcd60e51b815260206004820152601f60248201527f75736572206e6f7420617070726f76656420666f722074686973206974656d006044820152606401610534565b6001600160a01b0383166000818152609b6020818152604080842081518083018352815461ffff8082168352600184018054848801908152865180880188528d84168082529151818a019081529a8c9052988852975190911661ffff1990921691909117909255945190555191825291929133917f3d01e4a63a15c293fb21704a30354cf8fbf55355606eca15bce5602e409f3ad7910160405180910390a350505050565b610fd3611f4e565b610fdd6000611fa8565b565b6001600160a01b0381166000908152609a6020908152604080832080548251818502810185019093528083528493849084015b8282101561105857838290600052602060002090600202016040518060400160405290816000820154815260200160018201548152505081526020019060010190611012565b5050505090506000805b82518110156110ce578583828151811061107e5761107e6123fd565b60200260200101516020015111156110bc578281815181106110a2576110a26123fd565b602002602001015160000151826110b99190612385565b91505b806110c681612413565b915050611062565b50949350505050565b6001600160a01b038316600090815260986020908152604080832085845290915290205483908390801561113e5760405162461bcd60e51b815260206004820152600e60248201526d185b1c9958591e481b1a5cdd195960921b6044820152606401610534565b611147866117b6565b156112e9576040516331a9108f60e11b815260048101869052869033906001600160a01b03831690636352211e9060240160206040518083038186803b15801561119057600080fd5b505afa1580156111a4573d6000803e3d6000fd5b505050506040513d601f19601f820116820180604052508101906111c8919061233b565b6001600160a01b0316146112105760405162461bcd60e51b815260206004820152600f60248201526e6e6f74206f776e696e67206974656d60881b6044820152606401610534565b60405163e985e9c560e01b81523360048201523060248201526001600160a01b0382169063e985e9c59060440160206040518083038186803b15801561125557600080fd5b505afa158015611269573d6000803e3d6000fd5b505050506040513d601f19601f8201168201806040525081019061128d919061242e565b6112e35760405162461bcd60e51b815260206004820152602160248201527f6172746f6e67206e6f7420617070726f76656420666f722074686973206974656044820152606d60f81b6064820152608401610534565b50611301565b60405162461bcd60e51b81526004016105349061230e565b6001600160a01b0386166000818152609860209081526040808320898452825291829020879055815188815290810187905233917fd547e933094f12a9159076970143ebe73234e64480317844b0dcb36117116de4910160405180910390a3505050505050565b611370611f4e565b6097805461ffff191661ffff83169081179091556040519081527fcabead39256298cdf7d1228eee68b47bc54a2192283d8d93574da08d2d7ac303906020015b60405180910390a150565b600260655414156113de5760405162461bcd60e51b81526004016105349061239d565b60026065556001600160a01b038216600090815260986020908152604080832084845290915290205482908290806114285760405162461bcd60e51b8152600401610534906123d4565b61143385853361183d565b61143e858533611ffa565b50506001606555505050565b609a602052816000526040600020818154811061146657600080fd5b600091825260209091206002909102018054600190910154909250905082565b600054610100900460ff16158080156114a65750600054600160ff909116105b806114c05750303b1580156114c0575060005460ff166001145b6115235760405162461bcd60e51b815260206004820152602e60248201527f496e697469616c697a61626c653a20636f6e747261637420697320616c72656160448201526d191e481a5b9a5d1a585b1a5e995960921b6064820152608401610534565b6000805460ff191660011790558015611546576000805461ff0019166101001790555b609780546001600160a01b03841662010000026001600160b01b031990911661ffff86161717905561157661205c565b61157e61208b565b80156115c4576000805461ff0019169055604051600181527f7f26b83ff96e1f2b6a682f133852f6798a09c465da95921460cefb38474024989060200160405180910390a15b505050565b6001600160a01b0381166000908152609e6020526040812080543492906115f1908490612385565b909155505050565b611601611f4e565b6001600160a01b0381166116665760405162461bcd60e51b815260206004820152602660248201527f4f776e61626c653a206e6577206f776e657220697320746865207a65726f206160448201526564647265737360d01b6064820152608401610534565b61166f81611fa8565b50565b61167a611f4e565b6097805462010000600160b01b031916620100006001600160a01b038416908102919091179091556040519081527fe57e7c1f36cc83fade34e32351e6eee7eb9da532662b1b5da10c631e8222aca7906020016113b0565b600260655414156116f55760405162461bcd60e51b81526004016105349061239d565b60026065556001600160a01b0383166000908152609860209081526040808320858452909152902054839083908061173f5760405162461bcd60e51b8152600401610534906123d4565b61174a86863361183d565b6001600160a01b0386166000818152609860209081526040808320898452825291829020879055815188815290810187905233917f3c33e65e8698294810b631d476d60b44425303828da0b1f8b635231bfda12be2910160405180910390a35050600160655550505050565b6040516301ffc9a760e01b81526380ac58cd60e01b60048201526000906001600160a01b038316906301ffc9a79060240160206040518083038186803b1580156117ff57600080fd5b505afa158015611813573d6000803e3d6000fd5b505050506040513d601f19601f82011682018060405250810190611837919061242e565b92915050565b611846836117b6565b156112e9576040516331a9108f60e11b81526004810183905283906001600160a01b03821690636352211e9060240160206040518083038186803b15801561188d57600080fd5b505afa1580156118a1573d6000803e3d6000fd5b505050506040513d601f19601f820116820180604052508101906118c5919061233b565b6001600160a01b0316826001600160a01b031614610cfa5760405162461bcd60e51b815260206004820152600f60248201526e6e6f74206f776e696e67206974656d60881b6044820152606401610534565b818110156119675760405162461bcd60e51b815260206004820152601960248201527f7061796d656e7420616d6f756e74206e6f7420656e6f756768000000000000006044820152606401610534565b611970866117b6565b61198c5760405162461bcd60e51b81526004016105349061230e565b6001600160a01b038681166000818152609d602090815260408083208a8452825280832054909416808352609c825284832054938352609b8252918490208451808601909552805461ffff908116808752600190920154928601929092526097549294938216939261271092611a0491869116612450565b611a0e9190612450565b61ffff161115611a6e5760405162461bcd60e51b815260206004820152602560248201527f53756d206f6620666565732061726520626967676572207468616e2074686520604482015264707269636560d81b6064820152608401610534565b609754600090611a8390879061ffff166120ba565b609754604051919250600091620100009091046001600160a01b03169083908381818185875af1925050503d8060008114611ada576040519150601f19603f3d011682016040523d82523d6000602084013e611adf565b606091505b5050905080611b265760405162461bcd60e51b8152602060048201526013602482015272119959481d1c985b9cd9995c8819985a5b1959606a1b6044820152606401610534565b86861115611b6657611b38878761236e565b6001600160a01b0389166000908152609e602052604081208054909190611b60908490612385565b90915550505b61ffff841615611bbd576000611b7c88866120ba565b6001600160a01b0387166000908152609e6020526040812080549293508392909190611ba9908490612385565b90915550611bb990508184612385565b9250505b825161ffff1615611c79576000611bd88885600001516120ba565b90508084602001818151611bec9190612385565b915081815250506040518060400160405280856000015161ffff1681526020018560200151815250609b60008e6001600160a01b03166001600160a01b0316815260200190815260200160002060008201518160000160006101000a81548161ffff021916908361ffff160217905550602082015181600101559050508083611c759190612385565b9250505b611c83828861236e565b6001600160a01b038a166000908152609e602052604081208054909190611cab908490612385565b9091555050604051632142170760e11b81526001600160a01b038a811660048301528981166024830152604482018c90528c16906342842e0e90606401600060405180830381600087803b158015611d0257600080fd5b505af1158015611d16573d6000803e3d6000fd5b505050508a6001600160a01b0316886001600160a01b03168a6001600160a01b03167fee0ddd6454e05c1b33a8dfcb6cc52418d28020e96e21228bb601f5dbb6790cd08d8b604051611d72929190918252602082015260400190565b60405180910390a45050506001600160a01b03909716600090815260986020908152604080832098835297905295862095909555505050505050565b336000908152609a60205260408120905b81548110156115c4578260200151828281548110611ddf57611ddf6123fd565b906000526020600020906002020160010154148015611e2457508260000151828281548110611e1057611e106123fd565b906000526020600020906002020160000154145b15611e57576000828281548110611e3d57611e3d6123fd565b906000526020600020906002020160010181905550505050565b80611e6181612413565b915050611dbf565b336000908152609a60205260408120905b81548110156115c45782828281548110611e9657611e966123fd565b9060005260206000209060020201600101541015611f3c5781548290611ebe9060019061236e565b81548110611ece57611ece6123fd565b9060005260206000209060020201828281548110611eee57611eee6123fd565b6000918252602090912082546002909202019081556001918201549101558154829080611f1d57611f1d612476565b6000828152602081206002600019909301928302018181556001015590555b80611f4681612413565b915050611e7a565b6033546001600160a01b03163314610fdd5760405162461bcd60e51b815260206004820181905260248201527f4f776e61626c653a2063616c6c6572206973206e6f7420746865206f776e65726044820152606401610534565b603380546001600160a01b038381166001600160a01b0319831681179093556040519116919082907f8be0079c531659141344cd1fd0a4f28419497f9722a3daafe3b4186f6b6457e090600090a35050565b6001600160a01b038381166000818152609860209081526040808320878452825280832092909255905185815291928416917f9ba1a3cb55ce8d63d072a886f94d2a744f50cddf82128e897d0661f5ec623158910160405180910390a3505050565b600054610100900460ff166120835760405162461bcd60e51b81526004016105349061248c565b610fdd6120d7565b600054610100900460ff166120b25760405162461bcd60e51b81526004016105349061248c565b610fdd612107565b60006127106120cd61ffff8416856124d7565b610ddc91906124f6565b600054610100900460ff166120fe5760405162461bcd60e51b81526004016105349061248c565b610fdd33611fa8565b600054610100900460ff1661212e5760405162461bcd60e51b81526004016105349061248c565b6001606555565b803561ffff8116811461214757600080fd5b919050565b60006020828403121561215e57600080fd5b610ddc82612135565b6001600160a01b038116811461166f57600080fd5b60008060006060848603121561219157600080fd5b833561219c81612167565b95602085013595506040909401359392505050565b6000806000606084860312156121c657600080fd5b83356121d181612167565b92506020840135915060408401356121e881612167565b809150509250925092565b60006020828403121561220557600080fd5b8135610ddc81612167565b60008060006060848603121561222557600080fd5b833561223081612167565b9250602084013561224081612167565b929592945050506040919091013590565b6000806040838503121561226457600080fd5b82359150602083013561227681612167565b809150509250929050565b6000806040838503121561229457600080fd5b823561229f81612167565b91506122ad60208401612135565b90509250929050565b600080604083850312156122c957600080fd5b82356122d481612167565b946020939093013593505050565b600080604083850312156122f557600080fd5b6122fe83612135565b9150602083013561227681612167565b602080825260139082015272696e76616c6964206e6674206164647265737360681b604082015260600190565b60006020828403121561234d57600080fd5b8151610ddc81612167565b634e487b7160e01b600052601160045260246000fd5b60008282101561238057612380612358565b500390565b6000821982111561239857612398612358565b500190565b6020808252601f908201527f5265656e7472616e637947756172643a207265656e7472616e742063616c6c00604082015260600190565b6020808252600f908201526e6e6f74206c6973746564206974656d60881b604082015260600190565b634e487b7160e01b600052603260045260246000fd5b600060001982141561242757612427612358565b5060010190565b60006020828403121561244057600080fd5b81518015158114610ddc57600080fd5b600061ffff80831681851680830382111561246d5761246d612358565b01949350505050565b634e487b7160e01b600052603160045260246000fd5b6020808252602b908201527f496e697469616c697a61626c653a20636f6e7472616374206973206e6f74206960408201526a6e697469616c697a696e6760a81b606082015260800190565b60008160001904831182151516156124f1576124f1612358565b500290565b60008261251357634e487b7160e01b600052601260045260246000fd5b50049056fea26469706673582212205a3b7bd2737aac5958925295bc915cdf50fd6f0157b8fd063c404eff270f03b864736f6c63430008090033",
  "linkReferences": {},
  "deployedLinkReferences": {}
}