{
  "_format": "hh-sol-artifact-1",
  "contractName": "ArtongMarketplace",
  "sourceName": "contracts/ArtongMarketplace.sol",
  "abi": [
    {
      "anonymous": false,
      "inputs": [
        {
          "indexed": true,
          "internalType": "address",
          "name": "user",
          "type": "address"
        },
        {
          "indexed": false,
          "internalType": "int256",
          "name": "amount",
          "type": "int256"
        },
        {
          "indexed": false,
          "internalType": "uint256",
          "name": "balance",
          "type": "uint256"
        },
        {
          "indexed": false,
          "internalType": "string",
          "name": "reason",
          "type": "string"
        }
      ],
      "name": "ArtongBalanceUpdated",
      "type": "event"
    },
    {
      "anonymous": false,
      "inputs": [
        {
          "indexed": false,
          "internalType": "uint8",
          "name": "version",
          "type": "uint8"
        }
      ],
      "name": "Initialized",
      "type": "event"
    },
    {
      "anonymous": false,
      "inputs": [
        {
          "indexed": true,
          "internalType": "address",
          "name": "owner",
          "type": "address"
        },
        {
          "indexed": true,
          "internalType": "address",
          "name": "nft",
          "type": "address"
        },
        {
          "indexed": false,
          "internalType": "uint256",
          "name": "tokenId",
          "type": "uint256"
        }
      ],
      "name": "ItemCanceled",
      "type": "event"
    },
    {
      "anonymous": false,
      "inputs": [
        {
          "indexed": true,
          "internalType": "address",
          "name": "owner",
          "type": "address"
        },
        {
          "indexed": true,
          "internalType": "address",
          "name": "nft",
          "type": "address"
        },
        {
          "indexed": false,
          "internalType": "uint256",
          "name": "tokenId",
          "type": "uint256"
        },
        {
          "indexed": false,
          "internalType": "uint256",
          "name": "price",
          "type": "uint256"
        }
      ],
      "name": "ItemListed",
      "type": "event"
    },
    {
      "anonymous": false,
      "inputs": [
        {
          "indexed": true,
          "internalType": "address",
          "name": "seller",
          "type": "address"
        },
        {
          "indexed": true,
          "internalType": "address",
          "name": "buyer",
          "type": "address"
        },
        {
          "indexed": true,
          "internalType": "address",
          "name": "nft",
          "type": "address"
        },
        {
          "indexed": false,
          "internalType": "uint256",
          "name": "tokenId",
          "type": "uint256"
        },
        {
          "indexed": false,
          "internalType": "uint256",
          "name": "price",
          "type": "uint256"
        }
      ],
      "name": "ItemSold",
      "type": "event"
    },
    {
      "anonymous": false,
      "inputs": [
        {
          "indexed": true,
          "internalType": "address",
          "name": "owner",
          "type": "address"
        },
        {
          "indexed": true,
          "internalType": "address",
          "name": "nft",
          "type": "address"
        },
        {
          "indexed": false,
          "internalType": "uint256",
          "name": "tokenId",
          "type": "uint256"
        },
        {
          "indexed": false,
          "internalType": "uint256",
          "name": "newPrice",
          "type": "uint256"
        }
      ],
      "name": "ItemUpdated",
      "type": "event"
    },
    {
      "anonymous": false,
      "inputs": [
        {
          "indexed": true,
          "internalType": "address",
          "name": "owner",
          "type": "address"
        },
        {
          "indexed": true,
          "internalType": "address",
          "name": "nft",
          "type": "address"
        },
        {
          "indexed": false,
          "internalType": "uint256",
          "name": "tokenId",
          "type": "uint256"
        },
        {
          "indexed": false,
          "internalType": "uint256",
          "name": "price",
          "type": "uint256"
        }
      ],
      "name": "ListedItemSold",
      "type": "event"
    },
    {
      "anonymous": false,
      "inputs": [
        {
          "indexed": false,
          "internalType": "uint256",
          "name": "offerId",
          "type": "uint256"
        },
        {
          "indexed": true,
          "internalType": "address",
          "name": "nft",
          "type": "address"
        },
        {
          "indexed": false,
          "internalType": "uint256",
          "name": "tokenId",
          "type": "uint256"
        },
        {
          "indexed": true,
          "internalType": "address",
          "name": "creator",
          "type": "address"
        }
      ],
      "name": "OfferAccepted",
      "type": "event"
    },
    {
      "anonymous": false,
      "inputs": [
        {
          "indexed": false,
          "internalType": "uint256",
          "name": "offerId",
          "type": "uint256"
        },
        {
          "indexed": true,
          "internalType": "address",
          "name": "creator",
          "type": "address"
        },
        {
          "indexed": true,
          "internalType": "address",
          "name": "nft",
          "type": "address"
        },
        {
          "indexed": false,
          "internalType": "uint256",
          "name": "tokenId",
          "type": "uint256"
        },
        {
          "indexed": false,
          "internalType": "uint256",
          "name": "price",
          "type": "uint256"
        },
        {
          "indexed": false,
          "internalType": "uint256",
          "name": "deadline",
          "type": "uint256"
        }
      ],
      "name": "OfferCreated",
      "type": "event"
    },
    {
      "anonymous": false,
      "inputs": [
        {
          "indexed": true,
          "internalType": "address",
          "name": "previousOwner",
          "type": "address"
        },
        {
          "indexed": true,
          "internalType": "address",
          "name": "newOwner",
          "type": "address"
        }
      ],
      "name": "OwnershipTransferred",
      "type": "event"
    },
    {
      "anonymous": false,
      "inputs": [
        {
          "indexed": true,
          "internalType": "address",
          "name": "sender",
          "type": "address"
        },
        {
          "indexed": false,
          "internalType": "uint256",
          "name": "amount",
          "type": "uint256"
        }
      ],
      "name": "Received",
      "type": "event"
    },
    {
      "anonymous": false,
      "inputs": [
        {
          "indexed": true,
          "internalType": "address",
          "name": "collectionOwner",
          "type": "address"
        },
        {
          "indexed": true,
          "internalType": "address",
          "name": "nft",
          "type": "address"
        },
        {
          "indexed": false,
          "internalType": "uint16",
          "name": "royalty",
          "type": "uint16"
        }
      ],
      "name": "UpdateCollectionRoyalty",
      "type": "event"
    },
    {
      "anonymous": false,
      "inputs": [
        {
          "indexed": false,
          "internalType": "uint16",
          "name": "platformFee",
          "type": "uint16"
        }
      ],
      "name": "UpdatePlatformFee",
      "type": "event"
    },
    {
      "anonymous": false,
      "inputs": [
        {
          "indexed": false,
          "internalType": "address payable",
          "name": "platformFeeRecipient",
          "type": "address"
        }
      ],
      "name": "UpdatePlatformFeeRecipient",
      "type": "event"
    },
    {
      "anonymous": false,
      "inputs": [
        {
          "indexed": true,
          "internalType": "address",
          "name": "minter",
          "type": "address"
        },
        {
          "indexed": true,
          "internalType": "address",
          "name": "nft",
          "type": "address"
        },
        {
          "indexed": false,
          "internalType": "uint256",
          "name": "tokenId",
          "type": "uint256"
        },
        {
          "indexed": false,
          "internalType": "uint16",
          "name": "royalty",
          "type": "uint16"
        }
      ],
      "name": "UpdateTokenRoyalty",
      "type": "event"
    },
    {
      "inputs": [
        {
          "internalType": "address",
          "name": "_nftAddress",
          "type": "address"
        },
        {
          "internalType": "uint256",
          "name": "_tokenId",
          "type": "uint256"
        },
        {
          "internalType": "address",
          "name": "_creator",
          "type": "address"
        }
      ],
      "name": "acceptOffer",
      "outputs": [],
      "stateMutability": "nonpayable",
      "type": "function"
    },
    {
      "inputs": [
        {
          "internalType": "address",
          "name": "_nftAddress",
          "type": "address"
        },
        {
          "internalType": "uint256",
          "name": "_tokenId",
          "type": "uint256"
        },
        {
          "internalType": "address",
          "name": "_owner",
          "type": "address"
        }
      ],
      "name": "buyItem",
      "outputs": [],
      "stateMutability": "payable",
      "type": "function"
    },
    {
      "inputs": [
        {
          "internalType": "address",
          "name": "_nftAddress",
          "type": "address"
        },
        {
          "internalType": "uint256",
          "name": "_tokenId",
          "type": "uint256"
        }
      ],
      "name": "cancelListing",
      "outputs": [],
      "stateMutability": "nonpayable",
      "type": "function"
    },
    {
      "inputs": [
        {
          "internalType": "address",
          "name": "_nftAddress",
          "type": "address"
        },
        {
          "internalType": "uint256",
          "name": "_tokenId",
          "type": "uint256"
        },
        {
          "internalType": "uint256",
          "name": "_deadline",
          "type": "uint256"
        }
      ],
      "name": "createOffer",
      "outputs": [],
      "stateMutability": "payable",
      "type": "function"
    },
    {
      "inputs": [],
      "name": "feeReceipient",
      "outputs": [
        {
          "internalType": "address payable",
          "name": "",
          "type": "address"
        }
      ],
      "stateMutability": "view",
      "type": "function"
    },
    {
      "inputs": [
        {
          "internalType": "address",
          "name": "user",
          "type": "address"
        }
      ],
      "name": "getArtongBalance",
      "outputs": [
        {
          "internalType": "uint256",
          "name": "",
          "type": "uint256"
        }
      ],
      "stateMutability": "view",
      "type": "function"
    },
    {
      "inputs": [
        {
          "internalType": "address",
          "name": "_nftAddress",
          "type": "address"
        }
      ],
      "name": "getCollectionRoyalty",
      "outputs": [
        {
          "components": [
            {
              "internalType": "uint16",
              "name": "royalty",
              "type": "uint16"
            },
            {
              "internalType": "uint256",
              "name": "royaltyBalance",
              "type": "uint256"
            }
          ],
          "internalType": "struct ArtongMarketplace.CollectionRoyalty",
          "name": "",
          "type": "tuple"
        }
      ],
      "stateMutability": "view",
      "type": "function"
    },
    {
      "inputs": [
        {
          "internalType": "uint256",
          "name": "_moment",
          "type": "uint256"
        },
        {
          "internalType": "address",
          "name": "user",
          "type": "address"
        }
      ],
      "name": "getOfferBalance",
      "outputs": [
        {
          "internalType": "uint256",
          "name": "",
          "type": "uint256"
        }
      ],
      "stateMutability": "view",
      "type": "function"
    },
    {
      "inputs": [
        {
          "internalType": "uint256",
          "name": "_moment",
          "type": "uint256"
        },
        {
          "internalType": "address",
          "name": "user",
          "type": "address"
        }
      ],
      "name": "getWithdrawableBalance",
      "outputs": [
        {
          "internalType": "uint256",
          "name": "",
          "type": "uint256"
        }
      ],
      "stateMutability": "view",
      "type": "function"
    },
    {
      "inputs": [
        {
          "internalType": "uint16",
          "name": "_platformFee",
          "type": "uint16"
        },
        {
          "internalType": "address payable",
          "name": "_feeRecipient",
          "type": "address"
        }
      ],
      "name": "initialize",
      "outputs": [],
      "stateMutability": "nonpayable",
      "type": "function"
    },
    {
      "inputs": [
        {
          "internalType": "address",
          "name": "_nftAddress",
          "type": "address"
        },
        {
          "internalType": "uint256",
          "name": "_tokenId",
          "type": "uint256"
        },
        {
          "internalType": "uint256",
          "name": "_price",
          "type": "uint256"
        }
      ],
      "name": "listItem",
      "outputs": [],
      "stateMutability": "nonpayable",
      "type": "function"
    },
    {
      "inputs": [],
      "name": "offerId",
      "outputs": [
        {
          "internalType": "uint256",
          "name": "",
          "type": "uint256"
        }
      ],
      "stateMutability": "view",
      "type": "function"
    },
    {
      "inputs": [
        {
          "internalType": "address",
          "name": "",
          "type": "address"
        },
        {
          "internalType": "uint256",
          "name": "",
          "type": "uint256"
        },
        {
          "internalType": "address",
          "name": "",
          "type": "address"
        }
      ],
      "name": "offers",
      "outputs": [
        {
          "internalType": "uint256",
          "name": "offerId",
          "type": "uint256"
        },
        {
          "internalType": "uint256",
          "name": "price",
          "type": "uint256"
        },
        {
          "internalType": "uint256",
          "name": "deadline",
          "type": "uint256"
        }
      ],
      "stateMutability": "view",
      "type": "function"
    },
    {
      "inputs": [],
      "name": "owner",
      "outputs": [
        {
          "internalType": "address",
          "name": "",
          "type": "address"
        }
      ],
      "stateMutability": "view",
      "type": "function"
    },
    {
      "inputs": [],
      "name": "platformFee",
      "outputs": [
        {
          "internalType": "uint16",
          "name": "",
          "type": "uint16"
        }
      ],
      "stateMutability": "view",
      "type": "function"
    },
    {
      "inputs": [
        {
          "internalType": "address",
          "name": "_minter",
          "type": "address"
        },
        {
          "internalType": "address",
          "name": "_nftAddress",
          "type": "address"
        },
        {
          "internalType": "uint256",
          "name": "_tokenId",
          "type": "uint256"
        }
      ],
      "name": "registerMinter",
      "outputs": [],
      "stateMutability": "nonpayable",
      "type": "function"
    },
    {
      "inputs": [],
      "name": "renounceOwnership",
      "outputs": [],
      "stateMutability": "nonpayable",
      "type": "function"
    },
    {
      "inputs": [
        {
          "internalType": "address",
          "name": "user",
          "type": "address"
        }
      ],
      "name": "sendArtongBalance",
      "outputs": [],
      "stateMutability": "payable",
      "type": "function"
    },
    {
      "inputs": [
        {
          "internalType": "address",
          "name": "newOwner",
          "type": "address"
        }
      ],
      "name": "transferOwnership",
      "outputs": [],
      "stateMutability": "nonpayable",
      "type": "function"
    },
    {
      "inputs": [
        {
          "internalType": "address",
          "name": "_nftAddress",
          "type": "address"
        },
        {
          "internalType": "uint16",
          "name": "_royalty",
          "type": "uint16"
        }
      ],
      "name": "updateCollectionRoyalty",
      "outputs": [],
      "stateMutability": "nonpayable",
      "type": "function"
    },
    {
      "inputs": [
        {
          "internalType": "address",
          "name": "_nftAddress",
          "type": "address"
        },
        {
          "internalType": "uint256",
          "name": "_tokenId",
          "type": "uint256"
        },
        {
          "internalType": "uint256",
          "name": "_newPrice",
          "type": "uint256"
        }
      ],
      "name": "updateListing",
      "outputs": [],
      "stateMutability": "nonpayable",
      "type": "function"
    },
    {
      "inputs": [
        {
          "internalType": "uint16",
          "name": "_platformFee",
          "type": "uint16"
        }
      ],
      "name": "updatePlatformFee",
      "outputs": [],
      "stateMutability": "nonpayable",
      "type": "function"
    },
    {
      "inputs": [
        {
          "internalType": "address payable",
          "name": "_platformFeeRecipient",
          "type": "address"
        }
      ],
      "name": "updatePlatformFeeRecipient",
      "outputs": [],
      "stateMutability": "nonpayable",
      "type": "function"
    },
    {
      "inputs": [
        {
          "internalType": "address",
          "name": "_minter",
          "type": "address"
        },
        {
          "internalType": "address",
          "name": "_nftAddress",
          "type": "address"
        },
        {
          "internalType": "uint256",
          "name": "_tokenId",
          "type": "uint256"
        },
        {
          "internalType": "uint16",
          "name": "_royalty",
          "type": "uint16"
        }
      ],
      "name": "updateTokenRoyalty",
      "outputs": [],
      "stateMutability": "nonpayable",
      "type": "function"
    },
    {
      "inputs": [
        {
          "internalType": "address",
          "name": "",
          "type": "address"
        },
        {
          "internalType": "uint256",
          "name": "",
          "type": "uint256"
        }
      ],
      "name": "userOffers",
      "outputs": [
        {
          "internalType": "uint256",
          "name": "offerId",
          "type": "uint256"
        },
        {
          "internalType": "uint256",
          "name": "price",
          "type": "uint256"
        },
        {
          "internalType": "uint256",
          "name": "deadline",
          "type": "uint256"
        }
      ],
      "stateMutability": "view",
      "type": "function"
    },
    {
      "inputs": [],
      "name": "withdraw",
      "outputs": [],
      "stateMutability": "nonpayable",
      "type": "function"
    },
    {
      "stateMutability": "payable",
      "type": "receive"
    }
  ],
  "bytecode": "0x608060405234801561001057600080fd5b506129d3806100206000396000f3fe6080604052600436106101855760003560e01c806389bfd38f116100d1578063d3f494cc1161008a578063f19eeca211610064578063f19eeca214610541578063f2fde38b14610561578063f5fe7f7114610581578063f772adf1146105a157600080fd5b8063d3f494cc146104c1578063e0dbcde51461050e578063e6d07de91461052e57600080fd5b806389bfd38f146103d25780638da5cb5b146103f2578063a078c25e14610410578063afb0695214610446578063b2ddee0614610466578063bd5fec651461048657600080fd5b80633bbb28061161013e5780636b852288116101185780636b8522881461035d5780636f85f09f1461037d578063715018a61461039d57806374a5ea91146103b257600080fd5b80633bbb2806146103085780633ccfd60b146103285780634d0228e41461033d57600080fd5b80631c6c7128146101c657806321ce9f91146101db578063259ca3651461020457806326232a2e1461021757806333ff9422146102455780633740ebb3146102ca57600080fd5b366101c15760405134815233907f88a5966d370b9919b20f3e2c13ff65706f196a4e32cc2c12bf57088f885258749060200160405180910390a2005b600080fd5b6101d96101d4366004612551565b6105c1565b005b3480156101e757600080fd5b506101f160985481565b6040519081526020015b60405180910390f35b6101d9610212366004612586565b6109b5565b34801561022357600080fd5b506097546102329061ffff1681565b60405161ffff90911681526020016101fb565b34801561025157600080fd5b506102ab6102603660046125c8565b6040805180820190915260008082526020820152506001600160a01b03166000908152609c60209081526040918290208251808401909352805461ffff168352600101549082015290565b60408051825161ffff16815260209283015192810192909252016101fb565b3480156102d657600080fd5b506097546102f0906201000090046001600160a01b031681565b6040516001600160a01b0390911681526020016101fb565b34801561031457600080fd5b506101d9610323366004612586565b610aa9565b34801561033457600080fd5b506101d9610d19565b34801561034957600080fd5b506101d96103583660046125e5565b610ec6565b34801561036957600080fd5b506101d961037836600461263d565b610f73565b34801561038957600080fd5b506101d9610398366004612672565b611176565b3480156103a957600080fd5b506101d96112c7565b3480156103be57600080fd5b506101f16103cd3660046126c3565b6112d9565b3480156103de57600080fd5b506101d96103ed366004612551565b6113db565b3480156103fe57600080fd5b506033546001600160a01b03166102f0565b34801561041c57600080fd5b506101f161042b3660046125c8565b6001600160a01b03166000908152609f602052604090205490565b34801561045257600080fd5b506101d96104613660046126f3565b61167a565b34801561047257600080fd5b506101d961048136600461270e565b6116cd565b34801561049257600080fd5b506104a66104a136600461270e565b611741565b604080519384526020840192909252908201526060016101fb565b3480156104cd57600080fd5b506104a66104dc366004612586565b609a60209081526000938452604080852082529284528284209052825290208054600182015460029092015490919083565b34801561051a57600080fd5b506101d961052936600461273a565b611783565b6101d961053c3660046125c8565b6118c5565b34801561054d57600080fd5b506101f161055c3660046126c3565b611903565b34801561056d57600080fd5b506101d961057c3660046125c8565b611939565b34801561058d57600080fd5b506101d961059c3660046125c8565b6119af565b3480156105ad57600080fd5b506101d96105bc366004612551565b611a0f565b6105c9611ac3565b6001600160a01b0383166000908152609a6020908152604080832085845282528083203380855290835292819020815160608101835281548152600182015493810184905260029091015491810191909152859285929091901580610632575042816040015111155b61067b5760405162461bcd60e51b81526020600482015260156024820152741bd999995c88185b1c9958591e4818dc99585d1959605a1b60448201526064015b60405180910390fd5b66038d7ea4c680003410156106cb5760405162461bcd60e51b81526020600482015260166024820152751bd999995c88185b5bdd5b9d081d1bdbc81cdb585b1b60521b6044820152606401610672565b6106d487611b1d565b6106f05760405162461bcd60e51b815260040161067290612766565b6040516331a9108f60e11b81526004810187905287906001600160a01b03821690636352211e9060240160206040518083038186803b15801561073257600080fd5b505afa158015610746573d6000803e3d6000fd5b505050506040513d601f19601f8201168201806040525081019061076a9190612793565b6001600160a01b0316336001600160a01b031614156107bf5760405162461bcd60e51b815260206004820152601160248201527031b0b73737ba1039b2b6331037b33332b960791b6044820152606401610672565b856107d8576107d162015180426127c6565b95506107e8565b6107e542620151806127dd565b95505b6001609860008282546107fb91906127dd565b925050819055506040518060600160405280609854815260200134815260200187815250609a60008a6001600160a01b03166001600160a01b0316815260200190815260200160002060008981526020019081526020016000206000336001600160a01b03166001600160a01b03168152602001908152602001600020600082015181600001556020820151816001015560408201518160020155905050609b6000336001600160a01b03166001600160a01b0316815260200190815260200160002060405180606001604052806098548152602001348152602001888152509080600181540180825580915050600190039060005260206000209060030201600090919091909150600082015181600001556020820151816001015560408201518160020155505061094c33346040518060400160405280600581526020016437b33332b960d91b815250611ba4565b6098546040805191825260208201899052348282015260608201889052516001600160a01b038a169133917fa5b221016d244158f755de9c5739283f750d2f7285cde6af0a9e11aafa1d60229181900360800190a350505050506109b06001606555565b505050565b6109bd611ac3565b6001600160a01b03831660009081526099602090815260408083208584529091529020548390839080610a025760405162461bcd60e51b8152600401610672906127f5565b610a0d868686611c32565b6001600160a01b0386166000908152609960209081526040808320888452909152902054843334610a428a8a85858886611d12565b896001600160a01b0316836001600160a01b03167f15c7b51ce366ab742c37d88fa542ad517859c32b76df70b7234e0e96f5f801c48b87604051610a90929190918252602082015260400190565b60405180910390a3505050505050506109b06001606555565b610ab1611ac3565b6001600160a01b038084166000908152609a6020908152604080832086845282528083209385168352928152908290208251606081018452815481526001820154928101839052600290910154928101929092528491849184919015801590610b1d5750428160400151115b610b695760405162461bcd60e51b815260206004820152601b60248201527f6f66666572206e6f7420657869737473206f72206578706972656400000000006044820152606401610672565b610b74878733611c32565b6001600160a01b038781166000908152609a602090815260408083208a8452825280832093891683529281528282208351606081018552815481526001820154928101929092526002015492810192909252610bd042886112d9565b90508160200151811015610c265760405162461bcd60e51b815260206004820152601e60248201527f62616c616e6365206e6f7420656e6f75676820746f20627579206974656d00006044820152606401610672565b602082015133908890610c41908c908c908590859080611d12565b835160408051918252602082018c90526001600160a01b03808c1692908e16917f55b7d87f50df42aab01a782c0f678035ee284155051f20b56dca2de85791bbac910160405180910390a36001600160a01b03808c166000908152609a602090815260408083208e84528252808320938d1683529290529081208181556001810182905560020155610cd3848a6121ac565b610d078985602001516040518060400160405280600d81526020016c1bd999995c9058d8d95c1d1959609a1b81525061223e565b50505050505050506109b06001606555565b610d21611ac3565b426000610d2e8233611903565b9050662386f26fc10000811015610d985760405162461bcd60e51b815260206004820152602860248201527f6d696e696d756d20776974686472617761626c652076616c756520697320302e60448201526718189032ba3432b960c11b6064820152608401610672565b80471015610de85760405162461bcd60e51b815260206004820152601e60248201527f62616c616e6365206e6f7420656e6f75676820746f20776974686472617700006044820152606401610672565b610e13338260405180604001604052806008815260200167776974686472617760c01b81525061223e565b610e1c82612266565b6040513390600090829084908381818185875af1925050503d8060008114610e60576040519150601f19603f3d011682016040523d82523d6000602084013e610e65565b606091505b5050905080610eb65760405162461bcd60e51b815260206004820152601e60248201527f4172746f6e672062616c616e6365207472616e73666572206661696c656400006044820152606401610672565b50505050610ec46001606555565b565b6001600160a01b038281166000908152609e602090815260408083208584529091529020541615610f395760405162461bcd60e51b815260206004820152601960248201527f6d696e74657220616c72656164792072656769737465726564000000000000006044820152606401610672565b6001600160a01b039182166000908152609e60209081526040808320938352929052208054919092166001600160a01b0319909116179055565b610bb88161ffff161115610fd55760405162461bcd60e51b8152602060048201526024808201527f70726f6a65637420726f79616c7479206973206c696d6974656420757020746f6044820152632033302560e01b6064820152608401610672565b610fde82611b1d565b610ffa5760405162461bcd60e51b815260040161067290612766565b6000829050806001600160a01b0316638da5cb5b6040518163ffffffff1660e01b815260040160206040518083038186803b15801561103857600080fd5b505afa15801561104c573d6000803e3d6000fd5b505050506040513d601f19601f820116820180604052508101906110709190612793565b6001600160a01b0316336001600160a01b0316146110d05760405162461bcd60e51b815260206004820152601f60248201527f75736572206e6f7420617070726f76656420666f722074686973206974656d006044820152606401610672565b6001600160a01b0383166000818152609c6020818152604080842081518083018352815461ffff8082168352600184018054848801908152865180880188528d84168082529151818a019081529a8c9052988852975190911661ffff1990921691909117909255945190555191825291929133917f3d01e4a63a15c293fb21704a30354cf8fbf55355606eca15bce5602e409f3ad791015b60405180910390a350505050565b6113888161ffff1611156111cc5760405162461bcd60e51b815260206004820152601f60248201527f746f6b656e20726f79616c7479206973206c696d6974656420746f20353025006044820152606401610672565b336001600160a01b038416148061120757506001600160a01b038381166000908152609e602090815260408083208684529091529020541633145b6112535760405162461bcd60e51b815260206004820152601a60248201527f6e6f7420617070726f76656420666f722074686973206974656d0000000000006044820152606401610672565b6001600160a01b038481166000818152609d60209081526040808320948816808452948252808320878452825291829020805461ffff191661ffff87169081179091558251878152918201527f5005dbe7222d664cda7ff8f0eb132c5f5ca7d1c78e56ceee58895a89b3f19f7b9101611168565b6112cf61235c565b610ec460006123b6565b6001600160a01b0381166000908152609b6020908152604080832080548251818502810185019093528083528493849084015b8282101561135c578382906000526020600020906003020160405180606001604052908160008201548152602001600182015481526020016002820154815250508152602001906001019061130c565b5050505090506000805b82518110156113d257858382815181106113825761138261281e565b60200260200101516040015111156113c0578281815181106113a6576113a661281e565b602002602001015160200151826113bd91906127dd565b91505b806113ca81612834565b915050611366565b50949350505050565b6113e3611ac3565b6001600160a01b038316600090815260996020908152604080832085845290915290205483908390801561144a5760405162461bcd60e51b815260206004820152600e60248201526d185b1c9958591e481b1a5cdd195960921b6044820152606401610672565b61145386611b1d565b156115f5576040516331a9108f60e11b815260048101869052869033906001600160a01b03831690636352211e9060240160206040518083038186803b15801561149c57600080fd5b505afa1580156114b0573d6000803e3d6000fd5b505050506040513d601f19601f820116820180604052508101906114d49190612793565b6001600160a01b03161461151c5760405162461bcd60e51b815260206004820152600f60248201526e6e6f74206f776e696e67206974656d60881b6044820152606401610672565b60405163e985e9c560e01b81523360048201523060248201526001600160a01b0382169063e985e9c59060440160206040518083038186803b15801561156157600080fd5b505afa158015611575573d6000803e3d6000fd5b505050506040513d601f19601f82011682018060405250810190611599919061284f565b6115ef5760405162461bcd60e51b815260206004820152602160248201527f6172746f6e67206e6f7420617070726f76656420666f722074686973206974656044820152606d60f81b6064820152608401610672565b5061160d565b60405162461bcd60e51b815260040161067290612766565b6001600160a01b0386166000818152609960209081526040808320898452825291829020879055815188815290810187905233917fd547e933094f12a9159076970143ebe73234e64480317844b0dcb36117116de491015b60405180910390a35050506109b06001606555565b61168261235c565b6097805461ffff191661ffff83169081179091556040519081527fcabead39256298cdf7d1228eee68b47bc54a2192283d8d93574da08d2d7ac303906020015b60405180910390a150565b6116d5611ac3565b6001600160a01b0382166000908152609960209081526040808320848452909152902054829082908061171a5760405162461bcd60e51b8152600401610672906127f5565b611725858533611c32565b611730858533612408565b50505061173d6001606555565b5050565b609b602052816000526040600020818154811061175d57600080fd5b600091825260209091206003909102018054600182015460029092015490935090915083565b600054610100900460ff16158080156117a35750600054600160ff909116105b806117bd5750303b1580156117bd575060005460ff166001145b6118205760405162461bcd60e51b815260206004820152602e60248201527f496e697469616c697a61626c653a20636f6e747261637420697320616c72656160448201526d191e481a5b9a5d1a585b1a5e995960921b6064820152608401610672565b6000805460ff191660011790558015611843576000805461ff0019166101001790555b609780546001600160a01b03841662010000026001600160b01b031990911661ffff86161717905561187361246a565b61187b612499565b80156109b0576000805461ff0019169055604051600181527f7f26b83ff96e1f2b6a682f133852f6798a09c465da95921460cefb38474024989060200160405180910390a1505050565b6118cd611ac3565b6118f681346040518060400160405280600681526020016572656465656d60d01b815250611ba4565b6119006001606555565b50565b600061190f83836112d9565b6001600160a01b0383166000908152609f602052604090205461193291906127c6565b9392505050565b61194161235c565b6001600160a01b0381166119a65760405162461bcd60e51b815260206004820152602660248201527f4f776e61626c653a206e6577206f776e657220697320746865207a65726f206160448201526564647265737360d01b6064820152608401610672565b611900816123b6565b6119b761235c565b6097805462010000600160b01b031916620100006001600160a01b038416908102919091179091556040519081527fe57e7c1f36cc83fade34e32351e6eee7eb9da532662b1b5da10c631e8222aca7906020016116c2565b611a17611ac3565b6001600160a01b03831660009081526099602090815260408083208584529091529020548390839080611a5c5760405162461bcd60e51b8152600401610672906127f5565b611a67868633611c32565b6001600160a01b0386166000818152609960209081526040808320898452825291829020879055815188815290810187905233917f3c33e65e8698294810b631d476d60b44425303828da0b1f8b635231bfda12be29101611665565b60026065541415611b165760405162461bcd60e51b815260206004820152601f60248201527f5265656e7472616e637947756172643a207265656e7472616e742063616c6c006044820152606401610672565b6002606555565b6040516301ffc9a760e01b81526380ac58cd60e01b60048201526000906001600160a01b038316906301ffc9a79060240160206040518083038186803b158015611b6657600080fd5b505afa158015611b7a573d6000803e3d6000fd5b505050506040513d601f19601f82011682018060405250810190611b9e919061284f565b92915050565b6001600160a01b0383166000908152609f602052604081208054849290611bcc9084906127dd565b90915550506001600160a01b0383166000818152609f6020526040908190205490517ffdc3c0915ebb2c83e022c592183e35e31b761bcad805086cccd956d189f729d591611c1e918691908690612871565b60405180910390a2505050565b6001606555565b611c3b83611b1d565b156115f5576040516331a9108f60e11b81526004810183905283906001600160a01b03821690636352211e9060240160206040518083038186803b158015611c8257600080fd5b505afa158015611c96573d6000803e3d6000fd5b505050506040513d601f19601f82011682018060405250810190611cba9190612793565b6001600160a01b0316826001600160a01b031614611d0c5760405162461bcd60e51b815260206004820152600f60248201526e6e6f74206f776e696e67206974656d60881b6044820152606401610672565b50505050565b81811015611d625760405162461bcd60e51b815260206004820152601960248201527f7061796d656e7420616d6f756e74206e6f7420656e6f756768000000000000006044820152606401610672565b611d6b86611b1d565b611d875760405162461bcd60e51b815260040161067290612766565b6001600160a01b038681166000818152609e602090815260408083208a8452825280832054909416808352609d825284832084845282528483208a8452825284832054938352609c8252918490208451808601909552805461ffff908116808752600190920154928601929092526097549294938216939261271092611e0f918691166128d5565b611e1991906128d5565b61ffff161115611e795760405162461bcd60e51b815260206004820152602560248201527f53756d206f6620666565732061726520626967676572207468616e2074686520604482015264707269636560d81b6064820152608401610672565b609754600090611e8e90879061ffff166124c8565b609754604051919250600091620100009091046001600160a01b03169083908381818185875af1925050503d8060008114611ee5576040519150601f19603f3d011682016040523d82523d6000602084013e611eea565b606091505b5050905080611f315760405162461bcd60e51b8152602060048201526013602482015272119959481d1c985b9cd9995c8819985a5b1959606a1b6044820152606401610672565b86861115611f6d57611f6d88611f4789896127c6565b604051806040016040528060088152602001671bdd995c9c185a5960c21b815250611ba4565b61ffff841615611fc2576000611f8388866124c8565b9050611fb486826040518060400160405280600c81526020016b746f6b656e526f79616c747960a01b815250611ba4565b611fbe81846127dd565b9250505b825161ffff161561207e576000611fdd8885600001516124c8565b90508084602001818151611ff191906127dd565b915081815250506040518060400160405280856000015161ffff1681526020018560200151815250609c60008e6001600160a01b03166001600160a01b0316815260200190815260200160002060008201518160000160006101000a81548161ffff021916908361ffff16021790555060208201518160010155905050808361207a91906127dd565b9250505b6120ae8961208c848a6127c6565b6040518060400160405280600481526020016373616c6560e01b815250611ba4565b604051632142170760e11b81526001600160a01b038a811660048301528981166024830152604482018c90528c16906342842e0e90606401600060405180830381600087803b15801561210057600080fd5b505af1158015612114573d6000803e3d6000fd5b505050508a6001600160a01b0316886001600160a01b03168a6001600160a01b03167fee0ddd6454e05c1b33a8dfcb6cc52418d28020e96e21228bb601f5dbb6790cd08d8b604051612170929190918252602082015260400190565b60405180910390a45050506001600160a01b03909716600090815260996020908152604080832098835297905295862095909555505050505050565b6001600160a01b0381166000908152609b60205260408120905b8154811015611d0c5783600001518282815481106121e6576121e661281e565b906000526020600020906003020160000154141561222c5760008282815481106122125761221261281e565b906000526020600020906003020160020181905550611d0c565b8061223681612834565b9150506121c6565b6001600160a01b0383166000908152609f602052604081208054849290611bcc9084906127c6565b336000908152609b60205260408120905b81548110156109b057828282815481106122935761229361281e565b906000526020600020906003020160020154101561234a57815482906122bb906001906127c6565b815481106122cb576122cb61281e565b90600052602060002090600302018282815481106122eb576122eb61281e565b600091825260209091208254600390920201908155600180830154908201556002918201549101558154829080612324576123246128fb565b600082815260208120600360001990930192830201818155600181018290556002015590555b8061235481612834565b915050612277565b6033546001600160a01b03163314610ec45760405162461bcd60e51b815260206004820181905260248201527f4f776e61626c653a2063616c6c6572206973206e6f7420746865206f776e65726044820152606401610672565b603380546001600160a01b038381166001600160a01b0319831681179093556040519116919082907f8be0079c531659141344cd1fd0a4f28419497f9722a3daafe3b4186f6b6457e090600090a35050565b6001600160a01b038381166000818152609960209081526040808320878452825280832092909255905185815291928416917f9ba1a3cb55ce8d63d072a886f94d2a744f50cddf82128e897d0661f5ec623158910160405180910390a3505050565b600054610100900460ff166124915760405162461bcd60e51b815260040161067290612911565b610ec46124e5565b600054610100900460ff166124c05760405162461bcd60e51b815260040161067290612911565b610ec4612515565b60006127106124db61ffff84168561295c565b611932919061297b565b600054610100900460ff1661250c5760405162461bcd60e51b815260040161067290612911565b610ec4336123b6565b600054610100900460ff16611c2b5760405162461bcd60e51b815260040161067290612911565b6001600160a01b038116811461190057600080fd5b60008060006060848603121561256657600080fd5b83356125718161253c565b95602085013595506040909401359392505050565b60008060006060848603121561259b57600080fd5b83356125a68161253c565b92506020840135915060408401356125bd8161253c565b809150509250925092565b6000602082840312156125da57600080fd5b81356119328161253c565b6000806000606084860312156125fa57600080fd5b83356126058161253c565b925060208401356126158161253c565b929592945050506040919091013590565b803561ffff8116811461263857600080fd5b919050565b6000806040838503121561265057600080fd5b823561265b8161253c565b915061266960208401612626565b90509250929050565b6000806000806080858703121561268857600080fd5b84356126938161253c565b935060208501356126a38161253c565b9250604085013591506126b860608601612626565b905092959194509250565b600080604083850312156126d657600080fd5b8235915060208301356126e88161253c565b809150509250929050565b60006020828403121561270557600080fd5b61193282612626565b6000806040838503121561272157600080fd5b823561272c8161253c565b946020939093013593505050565b6000806040838503121561274d57600080fd5b61275683612626565b915060208301356126e88161253c565b602080825260139082015272696e76616c6964206e6674206164647265737360681b604082015260600190565b6000602082840312156127a557600080fd5b81516119328161253c565b634e487b7160e01b600052601160045260246000fd5b6000828210156127d8576127d86127b0565b500390565b600082198211156127f0576127f06127b0565b500190565b6020808252600f908201526e6e6f74206c6973746564206974656d60881b604082015260600190565b634e487b7160e01b600052603260045260246000fd5b6000600019821415612848576128486127b0565b5060010190565b60006020828403121561286157600080fd5b8151801515811461193257600080fd5b83815260006020848184015260606040840152835180606085015260005b818110156128ab5785810183015185820160800152820161288f565b818111156128bd576000608083870101525b50601f01601f19169290920160800195945050505050565b600061ffff8083168185168083038211156128f2576128f26127b0565b01949350505050565b634e487b7160e01b600052603160045260246000fd5b6020808252602b908201527f496e697469616c697a61626c653a20636f6e7472616374206973206e6f74206960408201526a6e697469616c697a696e6760a81b606082015260800190565b6000816000190483118215151615612976576129766127b0565b500290565b60008261299857634e487b7160e01b600052601260045260246000fd5b50049056fea26469706673582212207110b1510fda3d09e847c2404e9ea9794d45b0ce1cb73210e0de98dedb400dc064736f6c63430008090033",
  "linkReferences": {},
  "deployedLinkReferences": {}
}