{
  "_format": "hh-sol-artifact-1",
  "contractName": "ArtongMarketplace",
  "sourceName": "contracts/ArtongMarketplace.sol",
  "abi": [
    {
      "anonymous": false,
      "inputs": [
        {
          "indexed": false,
          "internalType": "uint8",
          "name": "version",
          "type": "uint8"
        }
      ],
      "name": "Initialized",
      "type": "event"
    },
    {
      "anonymous": false,
      "inputs": [
        {
          "indexed": true,
          "internalType": "address",
          "name": "owner",
          "type": "address"
        },
        {
          "indexed": true,
          "internalType": "address",
          "name": "nft",
          "type": "address"
        },
        {
          "indexed": false,
          "internalType": "uint256",
          "name": "tokenId",
          "type": "uint256"
        }
      ],
      "name": "ItemCanceled",
      "type": "event"
    },
    {
      "anonymous": false,
      "inputs": [
        {
          "indexed": true,
          "internalType": "address",
          "name": "owner",
          "type": "address"
        },
        {
          "indexed": true,
          "internalType": "address",
          "name": "nft",
          "type": "address"
        },
        {
          "indexed": false,
          "internalType": "uint256",
          "name": "tokenId",
          "type": "uint256"
        },
        {
          "indexed": false,
          "internalType": "uint256",
          "name": "price",
          "type": "uint256"
        }
      ],
      "name": "ItemListed",
      "type": "event"
    },
    {
      "anonymous": false,
      "inputs": [
        {
          "indexed": true,
          "internalType": "address",
          "name": "seller",
          "type": "address"
        },
        {
          "indexed": true,
          "internalType": "address",
          "name": "buyer",
          "type": "address"
        },
        {
          "indexed": true,
          "internalType": "address",
          "name": "nft",
          "type": "address"
        },
        {
          "indexed": false,
          "internalType": "uint256",
          "name": "tokenId",
          "type": "uint256"
        },
        {
          "indexed": false,
          "internalType": "uint256",
          "name": "price",
          "type": "uint256"
        }
      ],
      "name": "ItemSold",
      "type": "event"
    },
    {
      "anonymous": false,
      "inputs": [
        {
          "indexed": true,
          "internalType": "address",
          "name": "owner",
          "type": "address"
        },
        {
          "indexed": true,
          "internalType": "address",
          "name": "nft",
          "type": "address"
        },
        {
          "indexed": false,
          "internalType": "uint256",
          "name": "tokenId",
          "type": "uint256"
        },
        {
          "indexed": false,
          "internalType": "uint256",
          "name": "newPrice",
          "type": "uint256"
        }
      ],
      "name": "ItemUpdated",
      "type": "event"
    },
    {
      "anonymous": false,
      "inputs": [
        {
          "indexed": true,
          "internalType": "address",
          "name": "nft",
          "type": "address"
        },
        {
          "indexed": false,
          "internalType": "uint256",
          "name": "tokenId",
          "type": "uint256"
        },
        {
          "indexed": true,
          "internalType": "address",
          "name": "creator",
          "type": "address"
        }
      ],
      "name": "OfferAccepted",
      "type": "event"
    },
    {
      "anonymous": false,
      "inputs": [
        {
          "indexed": true,
          "internalType": "address",
          "name": "creator",
          "type": "address"
        },
        {
          "indexed": true,
          "internalType": "address",
          "name": "nft",
          "type": "address"
        },
        {
          "indexed": false,
          "internalType": "uint256",
          "name": "tokenId",
          "type": "uint256"
        },
        {
          "indexed": false,
          "internalType": "uint256",
          "name": "price",
          "type": "uint256"
        },
        {
          "indexed": false,
          "internalType": "uint256",
          "name": "deadline",
          "type": "uint256"
        }
      ],
      "name": "OfferCreated",
      "type": "event"
    },
    {
      "anonymous": false,
      "inputs": [
        {
          "indexed": true,
          "internalType": "address",
          "name": "previousOwner",
          "type": "address"
        },
        {
          "indexed": true,
          "internalType": "address",
          "name": "newOwner",
          "type": "address"
        }
      ],
      "name": "OwnershipTransferred",
      "type": "event"
    },
    {
      "anonymous": false,
      "inputs": [
        {
          "indexed": true,
          "internalType": "address",
          "name": "sender",
          "type": "address"
        },
        {
          "indexed": false,
          "internalType": "uint256",
          "name": "amount",
          "type": "uint256"
        }
      ],
      "name": "Received",
      "type": "event"
    },
    {
      "anonymous": false,
      "inputs": [
        {
          "indexed": true,
          "internalType": "address",
          "name": "collectionOwner",
          "type": "address"
        },
        {
          "indexed": true,
          "internalType": "address",
          "name": "nft",
          "type": "address"
        },
        {
          "indexed": false,
          "internalType": "uint16",
          "name": "royalty",
          "type": "uint16"
        }
      ],
      "name": "UpdateCollectionRoyalty",
      "type": "event"
    },
    {
      "anonymous": false,
      "inputs": [
        {
          "indexed": false,
          "internalType": "uint16",
          "name": "platformFee",
          "type": "uint16"
        }
      ],
      "name": "UpdatePlatformFee",
      "type": "event"
    },
    {
      "anonymous": false,
      "inputs": [
        {
          "indexed": false,
          "internalType": "address payable",
          "name": "platformFeeRecipient",
          "type": "address"
        }
      ],
      "name": "UpdatePlatformFeeRecipient",
      "type": "event"
    },
    {
      "anonymous": false,
      "inputs": [
        {
          "indexed": true,
          "internalType": "address",
          "name": "tokenOwner",
          "type": "address"
        },
        {
          "indexed": false,
          "internalType": "uint16",
          "name": "royalty",
          "type": "uint16"
        }
      ],
      "name": "UpdateTokenRoyalty",
      "type": "event"
    },
    {
      "inputs": [
        {
          "internalType": "address",
          "name": "_nftAddress",
          "type": "address"
        },
        {
          "internalType": "uint256",
          "name": "_tokenId",
          "type": "uint256"
        },
        {
          "internalType": "address",
          "name": "_creator",
          "type": "address"
        }
      ],
      "name": "acceptOffer",
      "outputs": [],
      "stateMutability": "nonpayable",
      "type": "function"
    },
    {
      "inputs": [
        {
          "internalType": "address",
          "name": "_nftAddress",
          "type": "address"
        },
        {
          "internalType": "uint256",
          "name": "_tokenId",
          "type": "uint256"
        },
        {
          "internalType": "address",
          "name": "_owner",
          "type": "address"
        }
      ],
      "name": "buyItem",
      "outputs": [],
      "stateMutability": "payable",
      "type": "function"
    },
    {
      "inputs": [
        {
          "internalType": "address",
          "name": "_nftAddress",
          "type": "address"
        },
        {
          "internalType": "uint256",
          "name": "_tokenId",
          "type": "uint256"
        }
      ],
      "name": "cancelListing",
      "outputs": [],
      "stateMutability": "nonpayable",
      "type": "function"
    },
    {
      "inputs": [
        {
          "internalType": "address",
          "name": "_nftAddress",
          "type": "address"
        },
        {
          "internalType": "uint256",
          "name": "_tokenId",
          "type": "uint256"
        },
        {
          "internalType": "uint256",
          "name": "_deadline",
          "type": "uint256"
        }
      ],
      "name": "createOffer",
      "outputs": [],
      "stateMutability": "payable",
      "type": "function"
    },
    {
      "inputs": [],
      "name": "feeReceipient",
      "outputs": [
        {
          "internalType": "address payable",
          "name": "",
          "type": "address"
        }
      ],
      "stateMutability": "view",
      "type": "function"
    },
    {
      "inputs": [
        {
          "internalType": "uint256",
          "name": "_moment",
          "type": "uint256"
        },
        {
          "internalType": "address",
          "name": "user",
          "type": "address"
        }
      ],
      "name": "getArtongBalance",
      "outputs": [
        {
          "internalType": "uint256",
          "name": "",
          "type": "uint256"
        }
      ],
      "stateMutability": "view",
      "type": "function"
    },
    {
      "inputs": [
        {
          "internalType": "address",
          "name": "_nftAddress",
          "type": "address"
        }
      ],
      "name": "getCollectionRoyalty",
      "outputs": [
        {
          "components": [
            {
              "internalType": "uint16",
              "name": "royalty",
              "type": "uint16"
            },
            {
              "internalType": "uint256",
              "name": "royaltyBalance",
              "type": "uint256"
            }
          ],
          "internalType": "struct ArtongMarketplace.CollectionRoyalty",
          "name": "",
          "type": "tuple"
        }
      ],
      "stateMutability": "view",
      "type": "function"
    },
    {
      "inputs": [
        {
          "internalType": "uint256",
          "name": "_moment",
          "type": "uint256"
        },
        {
          "internalType": "address",
          "name": "user",
          "type": "address"
        }
      ],
      "name": "getOfferBalance",
      "outputs": [
        {
          "internalType": "uint256",
          "name": "",
          "type": "uint256"
        }
      ],
      "stateMutability": "view",
      "type": "function"
    },
    {
      "inputs": [
        {
          "internalType": "uint16",
          "name": "_platformFee",
          "type": "uint16"
        },
        {
          "internalType": "address payable",
          "name": "_feeRecipient",
          "type": "address"
        }
      ],
      "name": "initialize",
      "outputs": [],
      "stateMutability": "nonpayable",
      "type": "function"
    },
    {
      "inputs": [
        {
          "internalType": "address",
          "name": "_nftAddress",
          "type": "address"
        },
        {
          "internalType": "uint256",
          "name": "_tokenId",
          "type": "uint256"
        },
        {
          "internalType": "uint256",
          "name": "_price",
          "type": "uint256"
        }
      ],
      "name": "listItem",
      "outputs": [],
      "stateMutability": "nonpayable",
      "type": "function"
    },
    {
      "inputs": [
        {
          "internalType": "address",
          "name": "",
          "type": "address"
        },
        {
          "internalType": "uint256",
          "name": "",
          "type": "uint256"
        },
        {
          "internalType": "address",
          "name": "",
          "type": "address"
        }
      ],
      "name": "offers",
      "outputs": [
        {
          "internalType": "uint256",
          "name": "price",
          "type": "uint256"
        },
        {
          "internalType": "uint256",
          "name": "deadline",
          "type": "uint256"
        }
      ],
      "stateMutability": "view",
      "type": "function"
    },
    {
      "inputs": [],
      "name": "owner",
      "outputs": [
        {
          "internalType": "address",
          "name": "",
          "type": "address"
        }
      ],
      "stateMutability": "view",
      "type": "function"
    },
    {
      "inputs": [],
      "name": "platformFee",
      "outputs": [
        {
          "internalType": "uint16",
          "name": "",
          "type": "uint16"
        }
      ],
      "stateMutability": "view",
      "type": "function"
    },
    {
      "inputs": [
        {
          "internalType": "address",
          "name": "_minter",
          "type": "address"
        },
        {
          "internalType": "address",
          "name": "_nftAddress",
          "type": "address"
        },
        {
          "internalType": "uint256",
          "name": "_tokenId",
          "type": "uint256"
        }
      ],
      "name": "registerMinter",
      "outputs": [],
      "stateMutability": "nonpayable",
      "type": "function"
    },
    {
      "inputs": [],
      "name": "renounceOwnership",
      "outputs": [],
      "stateMutability": "nonpayable",
      "type": "function"
    },
    {
      "inputs": [
        {
          "internalType": "address",
          "name": "user",
          "type": "address"
        }
      ],
      "name": "sendArtongBalance",
      "outputs": [],
      "stateMutability": "payable",
      "type": "function"
    },
    {
      "inputs": [
        {
          "internalType": "address",
          "name": "newOwner",
          "type": "address"
        }
      ],
      "name": "transferOwnership",
      "outputs": [],
      "stateMutability": "nonpayable",
      "type": "function"
    },
    {
      "inputs": [
        {
          "internalType": "address",
          "name": "_nftAddress",
          "type": "address"
        },
        {
          "internalType": "uint16",
          "name": "_royalty",
          "type": "uint16"
        }
      ],
      "name": "updateCollectionRoyalty",
      "outputs": [],
      "stateMutability": "nonpayable",
      "type": "function"
    },
    {
      "inputs": [
        {
          "internalType": "address",
          "name": "_nftAddress",
          "type": "address"
        },
        {
          "internalType": "uint256",
          "name": "_tokenId",
          "type": "uint256"
        },
        {
          "internalType": "uint256",
          "name": "_newPrice",
          "type": "uint256"
        }
      ],
      "name": "updateListing",
      "outputs": [],
      "stateMutability": "nonpayable",
      "type": "function"
    },
    {
      "inputs": [
        {
          "internalType": "uint16",
          "name": "_platformFee",
          "type": "uint16"
        }
      ],
      "name": "updatePlatformFee",
      "outputs": [],
      "stateMutability": "nonpayable",
      "type": "function"
    },
    {
      "inputs": [
        {
          "internalType": "address payable",
          "name": "_platformFeeRecipient",
          "type": "address"
        }
      ],
      "name": "updatePlatformFeeRecipient",
      "outputs": [],
      "stateMutability": "nonpayable",
      "type": "function"
    },
    {
      "inputs": [
        {
          "internalType": "uint16",
          "name": "_royalty",
          "type": "uint16"
        }
      ],
      "name": "updateTokenRoyalty",
      "outputs": [],
      "stateMutability": "nonpayable",
      "type": "function"
    },
    {
      "inputs": [
        {
          "internalType": "address",
          "name": "",
          "type": "address"
        },
        {
          "internalType": "uint256",
          "name": "",
          "type": "uint256"
        }
      ],
      "name": "userOffers",
      "outputs": [
        {
          "internalType": "uint256",
          "name": "price",
          "type": "uint256"
        },
        {
          "internalType": "uint256",
          "name": "deadline",
          "type": "uint256"
        }
      ],
      "stateMutability": "view",
      "type": "function"
    },
    {
      "inputs": [],
      "name": "withdraw",
      "outputs": [],
      "stateMutability": "nonpayable",
      "type": "function"
    },
    {
      "stateMutability": "payable",
      "type": "receive"
    }
  ],
  "bytecode": "0x608060405234801561001057600080fd5b5061258e806100206000396000f3fe60806040526004361061014e5760003560e01c806374a5ea91116100b6578063d3f494cc1161006f578063d3f494cc14610458578063e0dbcde51461049d578063e6d07de9146104bd578063f2fde38b146104d0578063f5fe7f71146104f0578063f772adf11461051057600080fd5b806374a5ea911461038557806389bfd38f146103a55780638da5cb5b146103c5578063afb06952146103e3578063b2ddee0614610403578063bd5fec651461042357600080fd5b80633bbb2806116101085780633bbb2806146102cd5780633ccfd60b146102ed5780634d0228e4146103025780635e6c00f5146103225780636b85228814610350578063715018a61461037057600080fd5b8062e56c6d1461018f5780631c6c7128146101b1578063259ca365146101c457806326232a2e146101d757806333ff94221461020a5780633740ebb31461028f57600080fd5b3661018a5760405134815233907f88a5966d370b9919b20f3e2c13ff65706f196a4e32cc2c12bf57088f885258749060200160405180910390a2005b600080fd5b34801561019b57600080fd5b506101af6101aa36600461218c565b610530565b005b6101af6101bf3660046121bc565b6105d5565b6101af6101d23660046121f1565b6108da565b3480156101e357600080fd5b506097546101f29061ffff1681565b60405161ffff90911681526020015b60405180910390f35b34801561021657600080fd5b50610270610225366004612233565b6040805180820190915260008082526020820152506001600160a01b03166000908152609b60209081526040918290208251808401909352805461ffff168352600101549082015290565b60408051825161ffff1681526020928301519281019290925201610201565b34801561029b57600080fd5b506097546102b5906201000090046001600160a01b031681565b6040516001600160a01b039091168152602001610201565b3480156102d957600080fd5b506101af6102e83660046121f1565b610998565b3480156102f957600080fd5b506101af610bd0565b34801561030e57600080fd5b506101af61031d366004612250565b610d40565b34801561032e57600080fd5b5061034261033d366004612291565b610ded565b604051908152602001610201565b34801561035c57600080fd5b506101af61036b3660046122c1565b610e23565b34801561037c57600080fd5b506101af61100b565b34801561039157600080fd5b506103426103a0366004612291565b61101f565b3480156103b157600080fd5b506101af6103c03660046121bc565b611117565b3480156103d157600080fd5b506033546001600160a01b03166102b5565b3480156103ef57600080fd5b506101af6103fe36600461218c565b6113a8565b34801561040f57600080fd5b506101af61041e3660046122f6565b6113fb565b34801561042f57600080fd5b5061044361043e3660046122f6565b61148a565b60408051928352602083019190915201610201565b34801561046457600080fd5b506104436104733660046121f1565b60996020908152600093845260408085208252928452828420905282529020805460019091015482565b3480156104a957600080fd5b506101af6104b8366004612322565b6114c6565b6101af6104cb366004612233565b611609565b3480156104dc57600080fd5b506101af6104eb366004612233565b611639565b3480156104fc57600080fd5b506101af61050b366004612233565b6116b2565b34801561051c57600080fd5b506101af61052b3660046121bc565b611712565b6127108161ffff16111561057d5760405162461bcd60e51b815260206004820152600f60248201526e696e76616c696420726f79616c747960881b60448201526064015b60405180910390fd5b336000818152609c6020908152604091829020805461ffff191661ffff861690811790915591519182527ff4eaba062863d26f46b81ed47ea2f6458cfd0c72a2686ec3dcd31177d240aab5910160405180910390a250565b6001600160a01b0383166000908152609960209081526040808320858452825280832033808552908352928190208151808301909252805480835260019091015492820192909252859285929091901580610634575042816020015111155b6106785760405162461bcd60e51b81526020600482015260156024820152741bd999995c88185b1c9958591e4818dc99585d1959605a1b6044820152606401610574565b66038d7ea4c6800034116106c75760405162461bcd60e51b81526020600482015260166024820152751bd999995c88185b5bdd5b9d081d1bdbc81cdb585b1b60521b6044820152606401610574565b6106d0876117f6565b6106ec5760405162461bcd60e51b81526004016105749061234e565b6040516331a9108f60e11b81526004810187905287906001600160a01b03821690636352211e9060240160206040518083038186803b15801561072e57600080fd5b505afa158015610742573d6000803e3d6000fd5b505050506040513d601f19601f82011682018060405250810190610766919061237b565b6001600160a01b0316336001600160a01b031614156107bb5760405162461bcd60e51b815260206004820152601160248201527031b0b73737ba1039b2b6331037b33332b960791b6044820152606401610574565b856107d4576107cd62015180426123ae565b95506107e4565b6107e142620151806123c5565b95505b6040805180820182523480825260208083018a81526001600160a01b038d166000908152609983528581208d8252835285812033808352908452868220955186559151600195860155609a8352858120865180880188528581528085018e81528254808901845592845285842091516002909302909101918255519501949094558352609e9052918120805490919061087e9084906123c5565b9091555050604080518881523460208201529081018790526001600160a01b0389169033907f0c2598f084a085d4d27e8638b4306b07c633b1e724b3d27fc0af68714fe540289060600160405180910390a35050505050505050565b600260655414156108fd5760405162461bcd60e51b8152600401610574906123dd565b60026065556001600160a01b038316600090815260986020908152604080832085845290915290205483908390806109475760405162461bcd60e51b815260040161057490612414565b61095286868661187d565b6001600160a01b03861660009081526098602090815260408083208884529091529020548433346109878a8a85858886611957565b505060016065555050505050505050565b600260655414156109bb5760405162461bcd60e51b8152600401610574906123dd565b60026065556001600160a01b038084166000908152609960209081526040808320868452825280832093851683529281529082902082518084019093528054808452600190910154918301919091528491849184919015801590610a225750428160200151115b610a6e5760405162461bcd60e51b815260206004820152601b60248201527f6f66666572206e6f7420657869737473206f72206578706972656400000000006044820152606401610574565b610a7987873361187d565b6001600160a01b0387811660009081526099602090815260408083208a8452825280832093891683529281528282208351808501909452805484526001015490830152610ac6428861101f565b8251909150811015610b1a5760405162461bcd60e51b815260206004820152601e60248201527f62616c616e6365206e6f7420656e6f75676820746f20627579206974656d00006044820152606401610574565b815133908890610b32908c908c908590859080611957565b886001600160a01b03168b6001600160a01b03167f1911131efc06f8b35ef19454a244416c23f0cffd91e74ec4d1656a64ec363afe8c604051610b7791815260200190565b60405180910390a36001600160a01b03808c1660009081526099602090815260408083208e84528252808320938d16835292905290812081815560010155610bbe84611dee565b50506001606555505050505050505050565b426000610bdd8233610ded565b905080610c225760405162461bcd60e51b81526020600482015260136024820152726e6f7468696e6720746f20776974686472617760681b6044820152606401610574565b80471015610c725760405162461bcd60e51b815260206004820152601e60248201527f62616c616e6365206e6f7420656e6f75676820746f20776974686472617700006044820152606401610574565b336000908152609e602052604081208054839290610c919084906123ae565b90915550610ca0905082611ea9565b6040513390600090829084908381818185875af1925050503d8060008114610ce4576040519150601f19603f3d011682016040523d82523d6000602084013e610ce9565b606091505b5050905080610d3a5760405162461bcd60e51b815260206004820152601e60248201527f4172746f6e672062616c616e6365207472616e73666572206661696c656400006044820152606401610574565b50505050565b6001600160a01b038281166000908152609d602090815260408083208584529091529020541615610db35760405162461bcd60e51b815260206004820152601960248201527f6d696e74657220616c72656164792072656769737465726564000000000000006044820152606401610574565b6001600160a01b039182166000908152609d60209081526040808320938352929052208054919092166001600160a01b0319909116179055565b6000610df9838361101f565b6001600160a01b0383166000908152609e6020526040902054610e1c91906123ae565b9392505050565b6127108161ffff161115610e6b5760405162461bcd60e51b815260206004820152600f60248201526e696e76616c696420726f79616c747960881b6044820152606401610574565b610e74826117f6565b610e905760405162461bcd60e51b81526004016105749061234e565b6000829050806001600160a01b0316638da5cb5b6040518163ffffffff1660e01b815260040160206040518083038186803b158015610ece57600080fd5b505afa158015610ee2573d6000803e3d6000fd5b505050506040513d601f19601f82011682018060405250810190610f06919061237b565b6001600160a01b0316336001600160a01b031614610f665760405162461bcd60e51b815260206004820152601f60248201527f75736572206e6f7420617070726f76656420666f722074686973206974656d006044820152606401610574565b6001600160a01b0383166000818152609b6020818152604080842081518083018352815461ffff8082168352600184018054848801908152865180880188528d84168082529151818a019081529a8c9052988852975190911661ffff1990921691909117909255945190555191825291929133917f3d01e4a63a15c293fb21704a30354cf8fbf55355606eca15bce5602e409f3ad7910160405180910390a350505050565b611013611f8e565b61101d6000611fe8565b565b6001600160a01b0381166000908152609a6020908152604080832080548251818502810185019093528083528493849084015b8282101561109857838290600052602060002090600202016040518060400160405290816000820154815260200160018201548152505081526020019060010190611052565b5050505090506000805b825181101561110e57858382815181106110be576110be61243d565b60200260200101516020015111156110fc578281815181106110e2576110e261243d565b602002602001015160000151826110f991906123c5565b91505b8061110681612453565b9150506110a2565b50949350505050565b6001600160a01b038316600090815260986020908152604080832085845290915290205483908390801561117e5760405162461bcd60e51b815260206004820152600e60248201526d185b1c9958591e481b1a5cdd195960921b6044820152606401610574565b611187866117f6565b15611329576040516331a9108f60e11b815260048101869052869033906001600160a01b03831690636352211e9060240160206040518083038186803b1580156111d057600080fd5b505afa1580156111e4573d6000803e3d6000fd5b505050506040513d601f19601f82011682018060405250810190611208919061237b565b6001600160a01b0316146112505760405162461bcd60e51b815260206004820152600f60248201526e6e6f74206f776e696e67206974656d60881b6044820152606401610574565b60405163e985e9c560e01b81523360048201523060248201526001600160a01b0382169063e985e9c59060440160206040518083038186803b15801561129557600080fd5b505afa1580156112a9573d6000803e3d6000fd5b505050506040513d601f19601f820116820180604052508101906112cd919061246e565b6113235760405162461bcd60e51b815260206004820152602160248201527f6172746f6e67206e6f7420617070726f76656420666f722074686973206974656044820152606d60f81b6064820152608401610574565b50611341565b60405162461bcd60e51b81526004016105749061234e565b6001600160a01b0386166000818152609860209081526040808320898452825291829020879055815188815290810187905233917fd547e933094f12a9159076970143ebe73234e64480317844b0dcb36117116de4910160405180910390a3505050505050565b6113b0611f8e565b6097805461ffff191661ffff83169081179091556040519081527fcabead39256298cdf7d1228eee68b47bc54a2192283d8d93574da08d2d7ac303906020015b60405180910390a150565b6002606554141561141e5760405162461bcd60e51b8152600401610574906123dd565b60026065556001600160a01b038216600090815260986020908152604080832084845290915290205482908290806114685760405162461bcd60e51b815260040161057490612414565b61147385853361187d565b61147e85853361203a565b50506001606555505050565b609a60205281600052604060002081815481106114a657600080fd5b600091825260209091206002909102018054600190910154909250905082565b600054610100900460ff16158080156114e65750600054600160ff909116105b806115005750303b158015611500575060005460ff166001145b6115635760405162461bcd60e51b815260206004820152602e60248201527f496e697469616c697a61626c653a20636f6e747261637420697320616c72656160448201526d191e481a5b9a5d1a585b1a5e995960921b6064820152608401610574565b6000805460ff191660011790558015611586576000805461ff0019166101001790555b609780546001600160a01b03841662010000026001600160b01b031990911661ffff8616171790556115b661209c565b6115be6120cb565b8015611604576000805461ff0019169055604051600181527f7f26b83ff96e1f2b6a682f133852f6798a09c465da95921460cefb38474024989060200160405180910390a15b505050565b6001600160a01b0381166000908152609e6020526040812080543492906116319084906123c5565b909155505050565b611641611f8e565b6001600160a01b0381166116a65760405162461bcd60e51b815260206004820152602660248201527f4f776e61626c653a206e6577206f776e657220697320746865207a65726f206160448201526564647265737360d01b6064820152608401610574565b6116af81611fe8565b50565b6116ba611f8e565b6097805462010000600160b01b031916620100006001600160a01b038416908102919091179091556040519081527fe57e7c1f36cc83fade34e32351e6eee7eb9da532662b1b5da10c631e8222aca7906020016113f0565b600260655414156117355760405162461bcd60e51b8152600401610574906123dd565b60026065556001600160a01b0383166000908152609860209081526040808320858452909152902054839083908061177f5760405162461bcd60e51b815260040161057490612414565b61178a86863361187d565b6001600160a01b0386166000818152609860209081526040808320898452825291829020879055815188815290810187905233917f3c33e65e8698294810b631d476d60b44425303828da0b1f8b635231bfda12be2910160405180910390a35050600160655550505050565b6040516301ffc9a760e01b81526380ac58cd60e01b60048201526000906001600160a01b038316906301ffc9a79060240160206040518083038186803b15801561183f57600080fd5b505afa158015611853573d6000803e3d6000fd5b505050506040513d601f19601f82011682018060405250810190611877919061246e565b92915050565b611886836117f6565b15611329576040516331a9108f60e11b81526004810183905283906001600160a01b03821690636352211e9060240160206040518083038186803b1580156118cd57600080fd5b505afa1580156118e1573d6000803e3d6000fd5b505050506040513d601f19601f82011682018060405250810190611905919061237b565b6001600160a01b0316826001600160a01b031614610d3a5760405162461bcd60e51b815260206004820152600f60248201526e6e6f74206f776e696e67206974656d60881b6044820152606401610574565b818110156119a75760405162461bcd60e51b815260206004820152601960248201527f7061796d656e7420616d6f756e74206e6f7420656e6f756768000000000000006044820152606401610574565b6119b0866117f6565b6119cc5760405162461bcd60e51b81526004016105749061234e565b6001600160a01b038681166000818152609d602090815260408083208a8452825280832054909416808352609c825284832054938352609b8252918490208451808601909552805461ffff908116808752600190920154928601929092526097549294938216939261271092611a4491869116612490565b611a4e9190612490565b61ffff161115611aae5760405162461bcd60e51b815260206004820152602560248201527f53756d206f6620666565732061726520626967676572207468616e2074686520604482015264707269636560d81b6064820152608401610574565b609754600090611ac390879061ffff166120fa565b609754604051919250600091620100009091046001600160a01b03169083908381818185875af1925050503d8060008114611b1a576040519150601f19603f3d011682016040523d82523d6000602084013e611b1f565b606091505b5050905080611b665760405162461bcd60e51b8152602060048201526013602482015272119959481d1c985b9cd9995c8819985a5b1959606a1b6044820152606401610574565b86861115611ba657611b7887876123ae565b6001600160a01b0389166000908152609e602052604081208054909190611ba09084906123c5565b90915550505b61ffff841615611bfd576000611bbc88866120fa565b6001600160a01b0387166000908152609e6020526040812080549293508392909190611be99084906123c5565b90915550611bf9905081846123c5565b9250505b825161ffff1615611cb9576000611c188885600001516120fa565b90508084602001818151611c2c91906123c5565b915081815250506040518060400160405280856000015161ffff1681526020018560200151815250609b60008e6001600160a01b03166001600160a01b0316815260200190815260200160002060008201518160000160006101000a81548161ffff021916908361ffff160217905550602082015181600101559050508083611cb591906123c5565b9250505b611cc382886123ae565b6001600160a01b038a166000908152609e602052604081208054909190611ceb9084906123c5565b9091555050604051632142170760e11b81526001600160a01b038a811660048301528981166024830152604482018c90528c16906342842e0e90606401600060405180830381600087803b158015611d4257600080fd5b505af1158015611d56573d6000803e3d6000fd5b505050508a6001600160a01b0316886001600160a01b03168a6001600160a01b03167fee0ddd6454e05c1b33a8dfcb6cc52418d28020e96e21228bb601f5dbb6790cd08d8b604051611db2929190918252602082015260400190565b60405180910390a45050506001600160a01b03909716600090815260986020908152604080832098835297905295862095909555505050505050565b336000908152609a60205260408120905b8154811015611604578260200151828281548110611e1f57611e1f61243d565b906000526020600020906002020160010154148015611e6457508260000151828281548110611e5057611e5061243d565b906000526020600020906002020160000154145b15611e97576000828281548110611e7d57611e7d61243d565b906000526020600020906002020160010181905550505050565b80611ea181612453565b915050611dff565b336000908152609a60205260408120905b81548110156116045782828281548110611ed657611ed661243d565b9060005260206000209060020201600101541015611f7c5781548290611efe906001906123ae565b81548110611f0e57611f0e61243d565b9060005260206000209060020201828281548110611f2e57611f2e61243d565b6000918252602090912082546002909202019081556001918201549101558154829080611f5d57611f5d6124b6565b6000828152602081206002600019909301928302018181556001015590555b80611f8681612453565b915050611eba565b6033546001600160a01b0316331461101d5760405162461bcd60e51b815260206004820181905260248201527f4f776e61626c653a2063616c6c6572206973206e6f7420746865206f776e65726044820152606401610574565b603380546001600160a01b038381166001600160a01b0319831681179093556040519116919082907f8be0079c531659141344cd1fd0a4f28419497f9722a3daafe3b4186f6b6457e090600090a35050565b6001600160a01b038381166000818152609860209081526040808320878452825280832092909255905185815291928416917f9ba1a3cb55ce8d63d072a886f94d2a744f50cddf82128e897d0661f5ec623158910160405180910390a3505050565b600054610100900460ff166120c35760405162461bcd60e51b8152600401610574906124cc565b61101d612117565b600054610100900460ff166120f25760405162461bcd60e51b8152600401610574906124cc565b61101d612147565b600061271061210d61ffff841685612517565b610e1c9190612536565b600054610100900460ff1661213e5760405162461bcd60e51b8152600401610574906124cc565b61101d33611fe8565b600054610100900460ff1661216e5760405162461bcd60e51b8152600401610574906124cc565b6001606555565b803561ffff8116811461218757600080fd5b919050565b60006020828403121561219e57600080fd5b610e1c82612175565b6001600160a01b03811681146116af57600080fd5b6000806000606084860312156121d157600080fd5b83356121dc816121a7565b95602085013595506040909401359392505050565b60008060006060848603121561220657600080fd5b8335612211816121a7565b9250602084013591506040840135612228816121a7565b809150509250925092565b60006020828403121561224557600080fd5b8135610e1c816121a7565b60008060006060848603121561226557600080fd5b8335612270816121a7565b92506020840135612280816121a7565b929592945050506040919091013590565b600080604083850312156122a457600080fd5b8235915060208301356122b6816121a7565b809150509250929050565b600080604083850312156122d457600080fd5b82356122df816121a7565b91506122ed60208401612175565b90509250929050565b6000806040838503121561230957600080fd5b8235612314816121a7565b946020939093013593505050565b6000806040838503121561233557600080fd5b61233e83612175565b915060208301356122b6816121a7565b602080825260139082015272696e76616c6964206e6674206164647265737360681b604082015260600190565b60006020828403121561238d57600080fd5b8151610e1c816121a7565b634e487b7160e01b600052601160045260246000fd5b6000828210156123c0576123c0612398565b500390565b600082198211156123d8576123d8612398565b500190565b6020808252601f908201527f5265656e7472616e637947756172643a207265656e7472616e742063616c6c00604082015260600190565b6020808252600f908201526e6e6f74206c6973746564206974656d60881b604082015260600190565b634e487b7160e01b600052603260045260246000fd5b600060001982141561246757612467612398565b5060010190565b60006020828403121561248057600080fd5b81518015158114610e1c57600080fd5b600061ffff8083168185168083038211156124ad576124ad612398565b01949350505050565b634e487b7160e01b600052603160045260246000fd5b6020808252602b908201527f496e697469616c697a61626c653a20636f6e7472616374206973206e6f74206960408201526a6e697469616c697a696e6760a81b606082015260800190565b600081600019048311821515161561253157612531612398565b500290565b60008261255357634e487b7160e01b600052601260045260246000fd5b50049056fea2646970667358221220d24d8c1948298a435c88ba1f39883e99733939c4b61ee66196b33f4345d17b3764736f6c63430008090033",
  "linkReferences": {},
  "deployedLinkReferences": {}
}