{
  "_format": "hh-sol-artifact-1",
  "contractName": "ArtongMarketplace",
  "sourceName": "contracts/ArtongMarketplace.sol",
  "abi": [
    {
      "anonymous": false,
      "inputs": [
        {
          "indexed": false,
          "internalType": "uint8",
          "name": "version",
          "type": "uint8"
        }
      ],
      "name": "Initialized",
      "type": "event"
    },
    {
      "anonymous": false,
      "inputs": [
        {
          "indexed": true,
          "internalType": "address",
          "name": "owner",
          "type": "address"
        },
        {
          "indexed": true,
          "internalType": "address",
          "name": "nft",
          "type": "address"
        },
        {
          "indexed": false,
          "internalType": "uint256",
          "name": "tokenId",
          "type": "uint256"
        }
      ],
      "name": "ItemCanceled",
      "type": "event"
    },
    {
      "anonymous": false,
      "inputs": [
        {
          "indexed": true,
          "internalType": "address",
          "name": "owner",
          "type": "address"
        },
        {
          "indexed": true,
          "internalType": "address",
          "name": "nft",
          "type": "address"
        },
        {
          "indexed": false,
          "internalType": "uint256",
          "name": "tokenId",
          "type": "uint256"
        },
        {
          "indexed": false,
          "internalType": "uint256",
          "name": "price",
          "type": "uint256"
        }
      ],
      "name": "ItemListed",
      "type": "event"
    },
    {
      "anonymous": false,
      "inputs": [
        {
          "indexed": true,
          "internalType": "address",
          "name": "seller",
          "type": "address"
        },
        {
          "indexed": true,
          "internalType": "address",
          "name": "buyer",
          "type": "address"
        },
        {
          "indexed": true,
          "internalType": "address",
          "name": "nft",
          "type": "address"
        },
        {
          "indexed": false,
          "internalType": "uint256",
          "name": "tokenId",
          "type": "uint256"
        },
        {
          "indexed": false,
          "internalType": "uint256",
          "name": "price",
          "type": "uint256"
        }
      ],
      "name": "ItemSold",
      "type": "event"
    },
    {
      "anonymous": false,
      "inputs": [
        {
          "indexed": true,
          "internalType": "address",
          "name": "owner",
          "type": "address"
        },
        {
          "indexed": true,
          "internalType": "address",
          "name": "nft",
          "type": "address"
        },
        {
          "indexed": false,
          "internalType": "uint256",
          "name": "tokenId",
          "type": "uint256"
        },
        {
          "indexed": false,
          "internalType": "uint256",
          "name": "newPrice",
          "type": "uint256"
        }
      ],
      "name": "ItemUpdated",
      "type": "event"
    },
    {
      "anonymous": false,
      "inputs": [
        {
          "indexed": true,
          "internalType": "address",
          "name": "nft",
          "type": "address"
        },
        {
          "indexed": false,
          "internalType": "uint256",
          "name": "tokenId",
          "type": "uint256"
        },
        {
          "indexed": true,
          "internalType": "address",
          "name": "creator",
          "type": "address"
        }
      ],
      "name": "OfferAccepted",
      "type": "event"
    },
    {
      "anonymous": false,
      "inputs": [
        {
          "indexed": true,
          "internalType": "address",
          "name": "creator",
          "type": "address"
        },
        {
          "indexed": true,
          "internalType": "address",
          "name": "nft",
          "type": "address"
        },
        {
          "indexed": false,
          "internalType": "uint256",
          "name": "tokenId",
          "type": "uint256"
        },
        {
          "indexed": false,
          "internalType": "uint256",
          "name": "price",
          "type": "uint256"
        },
        {
          "indexed": false,
          "internalType": "uint256",
          "name": "deadline",
          "type": "uint256"
        }
      ],
      "name": "OfferCreated",
      "type": "event"
    },
    {
      "anonymous": false,
      "inputs": [
        {
          "indexed": true,
          "internalType": "address",
          "name": "previousOwner",
          "type": "address"
        },
        {
          "indexed": true,
          "internalType": "address",
          "name": "newOwner",
          "type": "address"
        }
      ],
      "name": "OwnershipTransferred",
      "type": "event"
    },
    {
      "anonymous": false,
      "inputs": [
        {
          "indexed": true,
          "internalType": "address",
          "name": "collectionOwner",
          "type": "address"
        },
        {
          "indexed": true,
          "internalType": "address",
          "name": "nft",
          "type": "address"
        },
        {
          "indexed": false,
          "internalType": "uint16",
          "name": "royalty",
          "type": "uint16"
        }
      ],
      "name": "UpdateCollectionRoyalty",
      "type": "event"
    },
    {
      "anonymous": false,
      "inputs": [
        {
          "indexed": false,
          "internalType": "uint16",
          "name": "platformFee",
          "type": "uint16"
        }
      ],
      "name": "UpdatePlatformFee",
      "type": "event"
    },
    {
      "anonymous": false,
      "inputs": [
        {
          "indexed": false,
          "internalType": "address payable",
          "name": "platformFeeRecipient",
          "type": "address"
        }
      ],
      "name": "UpdatePlatformFeeRecipient",
      "type": "event"
    },
    {
      "anonymous": false,
      "inputs": [
        {
          "indexed": true,
          "internalType": "address",
          "name": "tokenOwner",
          "type": "address"
        },
        {
          "indexed": false,
          "internalType": "uint16",
          "name": "royalty",
          "type": "uint16"
        }
      ],
      "name": "UpdateTokenRoyalty",
      "type": "event"
    },
    {
      "inputs": [
        {
          "internalType": "address",
          "name": "_nftAddress",
          "type": "address"
        },
        {
          "internalType": "uint256",
          "name": "_tokenId",
          "type": "uint256"
        },
        {
          "internalType": "address",
          "name": "_creator",
          "type": "address"
        }
      ],
      "name": "acceptOffer",
      "outputs": [],
      "stateMutability": "nonpayable",
      "type": "function"
    },
    {
      "inputs": [
        {
          "internalType": "address",
          "name": "_nftAddress",
          "type": "address"
        },
        {
          "internalType": "uint256",
          "name": "_tokenId",
          "type": "uint256"
        },
        {
          "internalType": "address",
          "name": "_owner",
          "type": "address"
        }
      ],
      "name": "buyItem",
      "outputs": [],
      "stateMutability": "payable",
      "type": "function"
    },
    {
      "inputs": [
        {
          "internalType": "address",
          "name": "_nftAddress",
          "type": "address"
        },
        {
          "internalType": "uint256",
          "name": "_tokenId",
          "type": "uint256"
        }
      ],
      "name": "cancelListing",
      "outputs": [],
      "stateMutability": "nonpayable",
      "type": "function"
    },
    {
      "inputs": [
        {
          "internalType": "address",
          "name": "_nftAddress",
          "type": "address"
        },
        {
          "internalType": "uint256",
          "name": "_tokenId",
          "type": "uint256"
        },
        {
          "internalType": "uint256",
          "name": "_deadline",
          "type": "uint256"
        }
      ],
      "name": "createOffer",
      "outputs": [],
      "stateMutability": "payable",
      "type": "function"
    },
    {
      "inputs": [],
      "name": "feeReceipient",
      "outputs": [
        {
          "internalType": "address payable",
          "name": "",
          "type": "address"
        }
      ],
      "stateMutability": "view",
      "type": "function"
    },
    {
      "inputs": [
        {
          "internalType": "uint256",
          "name": "_moment",
          "type": "uint256"
        }
      ],
      "name": "getArtongBalance",
      "outputs": [
        {
          "internalType": "uint256",
          "name": "",
          "type": "uint256"
        }
      ],
      "stateMutability": "view",
      "type": "function"
    },
    {
      "inputs": [
        {
          "internalType": "address",
          "name": "_nftAddress",
          "type": "address"
        }
      ],
      "name": "getCollectionRoyalty",
      "outputs": [
        {
          "components": [
            {
              "internalType": "uint16",
              "name": "royalty",
              "type": "uint16"
            },
            {
              "internalType": "uint256",
              "name": "royaltyBalance",
              "type": "uint256"
            }
          ],
          "internalType": "struct ArtongMarketplace.CollectionRoyalty",
          "name": "",
          "type": "tuple"
        }
      ],
      "stateMutability": "view",
      "type": "function"
    },
    {
      "inputs": [],
      "name": "getEtcBalance",
      "outputs": [
        {
          "internalType": "uint256",
          "name": "",
          "type": "uint256"
        }
      ],
      "stateMutability": "view",
      "type": "function"
    },
    {
      "inputs": [
        {
          "internalType": "uint256",
          "name": "_moment",
          "type": "uint256"
        },
        {
          "internalType": "address",
          "name": "user",
          "type": "address"
        }
      ],
      "name": "getOfferBalance",
      "outputs": [
        {
          "internalType": "uint256",
          "name": "",
          "type": "uint256"
        }
      ],
      "stateMutability": "view",
      "type": "function"
    },
    {
      "inputs": [],
      "name": "getRoyaltyBalance",
      "outputs": [
        {
          "internalType": "uint256",
          "name": "",
          "type": "uint256"
        }
      ],
      "stateMutability": "view",
      "type": "function"
    },
    {
      "inputs": [
        {
          "internalType": "uint16",
          "name": "_platformFee",
          "type": "uint16"
        },
        {
          "internalType": "address payable",
          "name": "_feeRecipient",
          "type": "address"
        }
      ],
      "name": "initialize",
      "outputs": [],
      "stateMutability": "nonpayable",
      "type": "function"
    },
    {
      "inputs": [
        {
          "internalType": "address",
          "name": "_nftAddress",
          "type": "address"
        },
        {
          "internalType": "uint256",
          "name": "_tokenId",
          "type": "uint256"
        },
        {
          "internalType": "uint256",
          "name": "_price",
          "type": "uint256"
        }
      ],
      "name": "listItem",
      "outputs": [],
      "stateMutability": "nonpayable",
      "type": "function"
    },
    {
      "inputs": [
        {
          "internalType": "address",
          "name": "",
          "type": "address"
        },
        {
          "internalType": "uint256",
          "name": "",
          "type": "uint256"
        },
        {
          "internalType": "address",
          "name": "",
          "type": "address"
        }
      ],
      "name": "offers",
      "outputs": [
        {
          "internalType": "uint256",
          "name": "price",
          "type": "uint256"
        },
        {
          "internalType": "uint256",
          "name": "deadline",
          "type": "uint256"
        }
      ],
      "stateMutability": "view",
      "type": "function"
    },
    {
      "inputs": [],
      "name": "owner",
      "outputs": [
        {
          "internalType": "address",
          "name": "",
          "type": "address"
        }
      ],
      "stateMutability": "view",
      "type": "function"
    },
    {
      "inputs": [],
      "name": "platformFee",
      "outputs": [
        {
          "internalType": "uint16",
          "name": "",
          "type": "uint16"
        }
      ],
      "stateMutability": "view",
      "type": "function"
    },
    {
      "inputs": [
        {
          "internalType": "address",
          "name": "_minter",
          "type": "address"
        },
        {
          "internalType": "address",
          "name": "_nftAddress",
          "type": "address"
        },
        {
          "internalType": "uint256",
          "name": "_tokenId",
          "type": "uint256"
        }
      ],
      "name": "registerMinter",
      "outputs": [],
      "stateMutability": "nonpayable",
      "type": "function"
    },
    {
      "inputs": [],
      "name": "renounceOwnership",
      "outputs": [],
      "stateMutability": "nonpayable",
      "type": "function"
    },
    {
      "inputs": [
        {
          "internalType": "address",
          "name": "newOwner",
          "type": "address"
        }
      ],
      "name": "transferOwnership",
      "outputs": [],
      "stateMutability": "nonpayable",
      "type": "function"
    },
    {
      "inputs": [
        {
          "internalType": "address",
          "name": "_nftAddress",
          "type": "address"
        },
        {
          "internalType": "uint16",
          "name": "_royalty",
          "type": "uint16"
        }
      ],
      "name": "updateCollectionRoyalty",
      "outputs": [],
      "stateMutability": "nonpayable",
      "type": "function"
    },
    {
      "inputs": [
        {
          "internalType": "address",
          "name": "_nftAddress",
          "type": "address"
        },
        {
          "internalType": "uint256",
          "name": "_tokenId",
          "type": "uint256"
        },
        {
          "internalType": "uint256",
          "name": "_newPrice",
          "type": "uint256"
        }
      ],
      "name": "updateListing",
      "outputs": [],
      "stateMutability": "nonpayable",
      "type": "function"
    },
    {
      "inputs": [
        {
          "internalType": "uint16",
          "name": "_platformFee",
          "type": "uint16"
        }
      ],
      "name": "updatePlatformFee",
      "outputs": [],
      "stateMutability": "nonpayable",
      "type": "function"
    },
    {
      "inputs": [
        {
          "internalType": "address payable",
          "name": "_platformFeeRecipient",
          "type": "address"
        }
      ],
      "name": "updatePlatformFeeRecipient",
      "outputs": [],
      "stateMutability": "nonpayable",
      "type": "function"
    },
    {
      "inputs": [
        {
          "internalType": "uint16",
          "name": "_royalty",
          "type": "uint16"
        }
      ],
      "name": "updateTokenRoyalty",
      "outputs": [],
      "stateMutability": "nonpayable",
      "type": "function"
    },
    {
      "inputs": [
        {
          "internalType": "address",
          "name": "",
          "type": "address"
        },
        {
          "internalType": "uint256",
          "name": "",
          "type": "uint256"
        }
      ],
      "name": "userOffers",
      "outputs": [
        {
          "internalType": "uint256",
          "name": "price",
          "type": "uint256"
        },
        {
          "internalType": "uint256",
          "name": "deadline",
          "type": "uint256"
        }
      ],
      "stateMutability": "view",
      "type": "function"
    },
    {
      "inputs": [],
      "name": "withdraw",
      "outputs": [],
      "stateMutability": "nonpayable",
      "type": "function"
    }
  ],
  "bytecode": "0x608060405234801561001057600080fd5b5061451f806100206000396000f3fe6080604052600436106101655760003560e01c806374a5ea91116100d1578063b876d9d01161008a578063e0dbcde511610064578063e0dbcde5146104f9578063f2fde38b14610522578063f5fe7f711461054b578063f772adf11461057457610165565b8063b876d9d014610440578063bd5fec651461047d578063d3f494cc146104bb57610165565b806374a5ea9114610332578063843aad3e1461036f57806389bfd38f1461039a5780638da5cb5b146103c3578063afb06952146103ee578063b2ddee061461041757610165565b80633bbb2806116101235780633bbb28061461025e5780633ccfd60b146102875780634d0228e41461029e57806353ab8e58146102c75780636b852288146102f2578063715018a61461031b57610165565b8062e56c6d1461016a5780631c6c712814610193578063259ca365146101af57806326232a2e146101cb57806333ff9422146101f65780633740ebb314610233575b600080fd5b34801561017657600080fd5b50610191600480360381019061018c9190613173565b61059d565b005b6101ad60048036038101906101a89190613234565b610691565b005b6101c960048036038101906101c49190613287565b610b85565b005b3480156101d757600080fd5b506101e0610d00565b6040516101ed91906132e9565b60405180910390f35b34801561020257600080fd5b5061021d60048036038101906102189190613304565b610d14565b60405161022a919061337e565b60405180910390f35b34801561023f57600080fd5b50610248610d97565b60405161025591906133ba565b60405180910390f35b34801561026a57600080fd5b5061028560048036038101906102809190613287565b610dbd565b005b34801561029357600080fd5b5061029c611172565b005b3480156102aa57600080fd5b506102c560048036038101906102c091906133d5565b611311565b005b3480156102d357600080fd5b506102dc611484565b6040516102e99190613437565b60405180910390f35b3480156102fe57600080fd5b5061031960048036038101906103149190613452565b6114ce565b005b34801561032757600080fd5b506103306117be565b005b34801561033e57600080fd5b5061035960048036038101906103549190613492565b6117d2565b6040516103669190613437565b60405180910390f35b34801561037b57600080fd5b506103846118ff565b6040516103919190613437565b60405180910390f35b3480156103a657600080fd5b506103c160048036038101906103bc9190613234565b611949565b005b3480156103cf57600080fd5b506103d8611cbd565b6040516103e591906134e1565b60405180910390f35b3480156103fa57600080fd5b5061041560048036038101906104109190613173565b611ce7565b005b34801561042357600080fd5b5061043e600480360381019061043991906134fc565b611d46565b005b34801561044c57600080fd5b506104676004803603810190610462919061353c565b611e55565b6040516104749190613437565b60405180910390f35b34801561048957600080fd5b506104a4600480360381019061049f91906134fc565b611e8c565b6040516104b2929190613569565b60405180910390f35b3480156104c757600080fd5b506104e260048036038101906104dd9190613287565b611ecd565b6040516104f0929190613569565b60405180910390f35b34801561050557600080fd5b50610520600480360381019061051b91906135be565b611f0b565b005b34801561052e57600080fd5b5061054960048036038101906105449190613304565b6120b1565b005b34801561055757600080fd5b50610572600480360381019061056d91906135fe565b612135565b005b34801561058057600080fd5b5061059b60048036038101906105969190613234565b6121b8565b005b6127108161ffff1611156105e6576040517f08c379a00000000000000000000000000000000000000000000000000000000081526004016105dd90613688565b60405180910390fd5b80609c60003373ffffffffffffffffffffffffffffffffffffffff1673ffffffffffffffffffffffffffffffffffffffff16815260200190815260200160002060006101000a81548161ffff021916908361ffff1602179055503373ffffffffffffffffffffffffffffffffffffffff167ff4eaba062863d26f46b81ed47ea2f6458cfd0c72a2686ec3dcd31177d240aab58260405161068691906132e9565b60405180910390a250565b8282336000609960008573ffffffffffffffffffffffffffffffffffffffff1673ffffffffffffffffffffffffffffffffffffffff168152602001908152602001600020600084815260200190815260200160002060008373ffffffffffffffffffffffffffffffffffffffff1673ffffffffffffffffffffffffffffffffffffffff168152602001908152602001600020604051806040016040529081600082015481526020016001820154815250509050600081600001511480610762575061075a612379565b816020015111155b6107a1576040517f08c379a0000000000000000000000000000000000000000000000000000000008152600401610798906136f4565b60405180910390fd5b66038d7ea4c6800034116107ea576040517f08c379a00000000000000000000000000000000000000000000000000000000081526004016107e190613760565b60405180910390fd5b6107f387612381565b610832576040517f08c379a0000000000000000000000000000000000000000000000000000000008152600401610829906137cc565b60405180910390fd5b60008790508073ffffffffffffffffffffffffffffffffffffffff16636352211e886040518263ffffffff1660e01b81526004016108709190613437565b60206040518083038186803b15801561088857600080fd5b505afa15801561089c573d6000803e3d6000fd5b505050506040513d601f19601f820116820180604052508101906108c09190613801565b73ffffffffffffffffffffffffffffffffffffffff163373ffffffffffffffffffffffffffffffffffffffff16141561092e576040517f08c379a00000000000000000000000000000000000000000000000000000000081526004016109259061387a565b60405180910390fd5b60008614156109545762015180610943612379565b61094d91906138c9565b955061096d565b62015180610960612379565b61096a91906138fd565b95505b604051806040016040528034815260200187815250609960008a73ffffffffffffffffffffffffffffffffffffffff1673ffffffffffffffffffffffffffffffffffffffff168152602001908152602001600020600089815260200190815260200160002060003373ffffffffffffffffffffffffffffffffffffffff1673ffffffffffffffffffffffffffffffffffffffff1681526020019081526020016000206000820151816000015560208201518160010155905050609a60003373ffffffffffffffffffffffffffffffffffffffff1673ffffffffffffffffffffffffffffffffffffffff16815260200190815260200160002060405180604001604052803481526020018881525090806001815401808255809150506001900390600052602060002090600202016000909190919091506000820151816000015560208201518160010155505034609e60003373ffffffffffffffffffffffffffffffffffffffff1673ffffffffffffffffffffffffffffffffffffffff1681526020019081526020016000206000016000828254610b0b91906138fd565b925050819055508773ffffffffffffffffffffffffffffffffffffffff163373ffffffffffffffffffffffffffffffffffffffff167f0c2598f084a085d4d27e8638b4306b07c633b1e724b3d27fc0af68714fe5402889348a604051610b7393929190613953565b60405180910390a35050505050505050565b60026065541415610bcb576040517f08c379a0000000000000000000000000000000000000000000000000000000008152600401610bc2906139d6565b60405180910390fd5b60026065819055508282826000609860008573ffffffffffffffffffffffffffffffffffffffff1673ffffffffffffffffffffffffffffffffffffffff168152602001908152602001600020600084815260200190815260200160002054905060008111610c6e576040517f08c379a0000000000000000000000000000000000000000000000000000000008152600401610c6590613a42565b60405180910390fd5b610c79878787612433565b6000609860008973ffffffffffffffffffffffffffffffffffffffff1673ffffffffffffffffffffffffffffffffffffffff1681526020019081526020016000206000888152602001908152602001600020549050600086905060003390506000349050610ceb8b8b85858886612582565b50505050505050506001606581905550505050565b609760009054906101000a900461ffff1681565b610d1c613116565b609b60008373ffffffffffffffffffffffffffffffffffffffff1673ffffffffffffffffffffffffffffffffffffffff1681526020019081526020016000206040518060400160405290816000820160009054906101000a900461ffff1661ffff1661ffff1681526020016001820154815250509050919050565b609760029054906101000a900473ffffffffffffffffffffffffffffffffffffffff1681565b60026065541415610e03576040517f08c379a0000000000000000000000000000000000000000000000000000000008152600401610dfa906139d6565b60405180910390fd5b60026065819055508282826000609960008573ffffffffffffffffffffffffffffffffffffffff1673ffffffffffffffffffffffffffffffffffffffff168152602001908152602001600020600084815260200190815260200160002060008373ffffffffffffffffffffffffffffffffffffffff1673ffffffffffffffffffffffffffffffffffffffff16815260200190815260200160002060405180604001604052908160008201548152602001600182015481525050905060008160000151118015610edc5750610ed5612379565b8160200151115b610f1b576040517f08c379a0000000000000000000000000000000000000000000000000000000008152600401610f1290613aae565b60405180910390fd5b610f26878733612433565b6000609960008973ffffffffffffffffffffffffffffffffffffffff1673ffffffffffffffffffffffffffffffffffffffff168152602001908152602001600020600088815260200190815260200160002060008773ffffffffffffffffffffffffffffffffffffffff1673ffffffffffffffffffffffffffffffffffffffff1681526020019081526020016000206040518060400160405290816000820154815260200160018201548152505090506000610fe0612379565b90506000610fee82896117d2565b90508260000151811015611037576040517f08c379a000000000000000000000000000000000000000000000000000000000815260040161102e90613b1a565b60405180910390fd5b600033905060008990506110578c8c848489600001518a60000151612582565b8973ffffffffffffffffffffffffffffffffffffffff168c73ffffffffffffffffffffffffffffffffffffffff167f1911131efc06f8b35ef19454a244416c23f0cffd91e74ec4d1656a64ec363afe8d6040516110b49190613437565b60405180910390a3609960008d73ffffffffffffffffffffffffffffffffffffffff1673ffffffffffffffffffffffffffffffffffffffff16815260200190815260200160002060008c815260200190815260200160002060008b73ffffffffffffffffffffffffffffffffffffffff1673ffffffffffffffffffffffffffffffffffffffff168152602001908152602001600020600080820160009055600182016000905550505050505050505050506001606581905550505050565b600061117c612379565b9050600061118982611e55565b905060008114156111cf576040517f08c379a00000000000000000000000000000000000000000000000000000000081526004016111c690613b86565b60405180910390fd5b80471015611212576040517f08c379a000000000000000000000000000000000000000000000000000000000815260040161120990613bf2565b60405180910390fd5b6000609e60003373ffffffffffffffffffffffffffffffffffffffff1673ffffffffffffffffffffffffffffffffffffffff1681526020019081526020016000206040518060600160405290816000820154815260200160018201548152602001600282015481525050905061128883336117d2565b816000015161129791906138c9565b816000018181525050600081602001818152505060008160400181815250506112bf83612c1c565b60003390508073ffffffffffffffffffffffffffffffffffffffff166108fc849081150290604051600060405180830381858888f1935050505015801561130a573d6000803e3d6000fd5b5050505050565b600073ffffffffffffffffffffffffffffffffffffffff16609d60008473ffffffffffffffffffffffffffffffffffffffff1673ffffffffffffffffffffffffffffffffffffffff168152602001908152602001600020600083815260200190815260200160002060009054906101000a900473ffffffffffffffffffffffffffffffffffffffff1673ffffffffffffffffffffffffffffffffffffffff16146113f0576040517f08c379a00000000000000000000000000000000000000000000000000000000081526004016113e790613c5e565b60405180910390fd5b82609d60008473ffffffffffffffffffffffffffffffffffffffff1673ffffffffffffffffffffffffffffffffffffffff168152602001908152602001600020600083815260200190815260200160002060006101000a81548173ffffffffffffffffffffffffffffffffffffffff021916908373ffffffffffffffffffffffffffffffffffffffff160217905550505050565b6000609e60003373ffffffffffffffffffffffffffffffffffffffff1673ffffffffffffffffffffffffffffffffffffffff16815260200190815260200160002060020154905090565b6127108161ffff161115611517576040517f08c379a000000000000000000000000000000000000000000000000000000000815260040161150e90613688565b60405180910390fd5b61152082612381565b61155f576040517f08c379a0000000000000000000000000000000000000000000000000000000008152600401611556906137cc565b60405180910390fd5b60008290508073ffffffffffffffffffffffffffffffffffffffff16638da5cb5b6040518163ffffffff1660e01b815260040160206040518083038186803b1580156115aa57600080fd5b505afa1580156115be573d6000803e3d6000fd5b505050506040513d601f19601f820116820180604052508101906115e29190613801565b73ffffffffffffffffffffffffffffffffffffffff163373ffffffffffffffffffffffffffffffffffffffff161461164f576040517f08c379a000000000000000000000000000000000000000000000000000000000815260040161164690613cca565b60405180910390fd5b6000609b60008573ffffffffffffffffffffffffffffffffffffffff1673ffffffffffffffffffffffffffffffffffffffff1681526020019081526020016000206040518060400160405290816000820160009054906101000a900461ffff1661ffff1661ffff168152602001600182015481525050905060405180604001604052808461ffff1681526020018260200151815250609b60008673ffffffffffffffffffffffffffffffffffffffff1673ffffffffffffffffffffffffffffffffffffffff16815260200190815260200160002060008201518160000160006101000a81548161ffff021916908361ffff160217905550602082015181600101559050508373ffffffffffffffffffffffffffffffffffffffff163373ffffffffffffffffffffffffffffffffffffffff167f3d01e4a63a15c293fb21704a30354cf8fbf55355606eca15bce5602e409f3ad7856040516117b091906132e9565b60405180910390a350505050565b6117c6612d56565b6117d06000612dd4565b565b600080609a60008473ffffffffffffffffffffffffffffffffffffffff1673ffffffffffffffffffffffffffffffffffffffff168152602001908152602001600020805480602002602001604051908101604052809291908181526020016000905b8282101561187a57838290600052602060002090600202016040518060400160405290816000820154815260200160018201548152505081526020019060010190611834565b5050505090506000805b82518110156118f357858382815181106118a1576118a0613cea565b5b60200260200101516020015111156118e0578281815181106118c6576118c5613cea565b5b602002602001015160000151826118dd91906138fd565b91505b80806118eb90613d19565b915050611884565b50809250505092915050565b6000609e60003373ffffffffffffffffffffffffffffffffffffffff1673ffffffffffffffffffffffffffffffffffffffff16815260200190815260200160002060010154905090565b8282336000609860008573ffffffffffffffffffffffffffffffffffffffff1673ffffffffffffffffffffffffffffffffffffffff1681526020019081526020016000206000848152602001908152602001600020549050600081146119e4576040517f08c379a00000000000000000000000000000000000000000000000000000000081526004016119db90613dae565b60405180910390fd5b6119ed87612381565b15611bbd5760008790503373ffffffffffffffffffffffffffffffffffffffff168173ffffffffffffffffffffffffffffffffffffffff16636352211e896040518263ffffffff1660e01b8152600401611a479190613437565b60206040518083038186803b158015611a5f57600080fd5b505afa158015611a73573d6000803e3d6000fd5b505050506040513d601f19601f82011682018060405250810190611a979190613801565b73ffffffffffffffffffffffffffffffffffffffff1614611aed576040517f08c379a0000000000000000000000000000000000000000000000000000000008152600401611ae490613e1a565b60405180910390fd5b8073ffffffffffffffffffffffffffffffffffffffff1663e985e9c533306040518363ffffffff1660e01b8152600401611b28929190613e3a565b60206040518083038186803b158015611b4057600080fd5b505afa158015611b54573d6000803e3d6000fd5b505050506040513d601f19601f82011682018060405250810190611b789190613e9b565b611bb7576040517f08c379a0000000000000000000000000000000000000000000000000000000008152600401611bae90613f3a565b60405180910390fd5b50611bf8565b6040517f08c379a0000000000000000000000000000000000000000000000000000000008152600401611bef906137cc565b60405180910390fd5b84609860008973ffffffffffffffffffffffffffffffffffffffff1673ffffffffffffffffffffffffffffffffffffffff1681526020019081526020016000206000888152602001908152602001600020819055508673ffffffffffffffffffffffffffffffffffffffff163373ffffffffffffffffffffffffffffffffffffffff167fd547e933094f12a9159076970143ebe73234e64480317844b0dcb36117116de48888604051611cac929190613569565b60405180910390a350505050505050565b6000603360009054906101000a900473ffffffffffffffffffffffffffffffffffffffff16905090565b611cef612d56565b80609760006101000a81548161ffff021916908361ffff1602179055507fcabead39256298cdf7d1228eee68b47bc54a2192283d8d93574da08d2d7ac30381604051611d3b91906132e9565b60405180910390a150565b60026065541415611d8c576040517f08c379a0000000000000000000000000000000000000000000000000000000008152600401611d83906139d6565b60405180910390fd5b60026065819055508181336000609860008573ffffffffffffffffffffffffffffffffffffffff1673ffffffffffffffffffffffffffffffffffffffff168152602001908152602001600020600084815260200190815260200160002054905060008111611e2f576040517f08c379a0000000000000000000000000000000000000000000000000000000008152600401611e2690613a42565b60405180910390fd5b611e3a868633612433565b611e45868633612e9a565b5050505060016065819055505050565b6000611e5f611484565b611e676118ff565b611e7184336117d2565b611e7b91906138fd565b611e8591906138fd565b9050919050565b609a6020528160005260406000208181548110611ea857600080fd5b9060005260206000209060020201600091509150508060000154908060010154905082565b609960205282600052604060002060205281600052604060002060205280600052604060002060009250925050508060000154908060010154905082565b60008060019054906101000a900460ff16159050808015611f3c5750600160008054906101000a900460ff1660ff16105b80611f695750611f4b30612f58565b158015611f685750600160008054906101000a900460ff1660ff16145b5b611fa8576040517f08c379a0000000000000000000000000000000000000000000000000000000008152600401611f9f90613fcc565b60405180910390fd5b60016000806101000a81548160ff021916908360ff1602179055508015611fe5576001600060016101000a81548160ff0219169083151502179055505b82609760006101000a81548161ffff021916908361ffff16021790555081609760026101000a81548173ffffffffffffffffffffffffffffffffffffffff021916908373ffffffffffffffffffffffffffffffffffffffff16021790555061204b612f7b565b612053612fd4565b80156120ac5760008060016101000a81548160ff0219169083151502179055507f7f26b83ff96e1f2b6a682f133852f6798a09c465da95921460cefb384740249860016040516120a3919061403e565b60405180910390a15b505050565b6120b9612d56565b600073ffffffffffffffffffffffffffffffffffffffff168173ffffffffffffffffffffffffffffffffffffffff161415612129576040517f08c379a0000000000000000000000000000000000000000000000000000000008152600401612120906140cb565b60405180910390fd5b61213281612dd4565b50565b61213d612d56565b80609760026101000a81548173ffffffffffffffffffffffffffffffffffffffff021916908373ffffffffffffffffffffffffffffffffffffffff1602179055507fe57e7c1f36cc83fade34e32351e6eee7eb9da532662b1b5da10c631e8222aca7816040516121ad91906133ba565b60405180910390a150565b600260655414156121fe576040517f08c379a00000000000000000000000000000000000000000000000000000000081526004016121f5906139d6565b60405180910390fd5b60026065819055508282336000609860008573ffffffffffffffffffffffffffffffffffffffff1673ffffffffffffffffffffffffffffffffffffffff1681526020019081526020016000206000848152602001908152602001600020549050600081116122a1576040517f08c379a000000000000000000000000000000000000000000000000000000000815260040161229890613a42565b60405180910390fd5b6122ac878733612433565b84609860008973ffffffffffffffffffffffffffffffffffffffff1673ffffffffffffffffffffffffffffffffffffffff1681526020019081526020016000206000888152602001908152602001600020819055508673ffffffffffffffffffffffffffffffffffffffff163373ffffffffffffffffffffffffffffffffffffffff167f3c33e65e8698294810b631d476d60b44425303828da0b1f8b635231bfda12be28888604051612360929190613569565b60405180910390a3505050506001606581905550505050565b600042905090565b60008173ffffffffffffffffffffffffffffffffffffffff166301ffc9a77f80ac58cd000000000000000000000000000000000000000000000000000000006040518263ffffffff1660e01b81526004016123dc9190614126565b60206040518083038186803b1580156123f457600080fd5b505afa158015612408573d6000803e3d6000fd5b505050506040513d601f19601f8201168201806040525081019061242c9190613e9b565b9050919050565b61243c83612381565b156125425760008390508073ffffffffffffffffffffffffffffffffffffffff16636352211e846040518263ffffffff1660e01b815260040161247f9190613437565b60206040518083038186803b15801561249757600080fd5b505afa1580156124ab573d6000803e3d6000fd5b505050506040513d601f19601f820116820180604052508101906124cf9190613801565b73ffffffffffffffffffffffffffffffffffffffff168273ffffffffffffffffffffffffffffffffffffffff161461253c576040517f08c379a000000000000000000000000000000000000000000000000000000000815260040161253390613e1a565b60405180910390fd5b5061257d565b6040517f08c379a0000000000000000000000000000000000000000000000000000000008152600401612574906137cc565b60405180910390fd5b505050565b818110156125c5576040517f08c379a00000000000000000000000000000000000000000000000000000000081526004016125bc9061418d565b60405180910390fd5b6125ce86612381565b61260d576040517f08c379a0000000000000000000000000000000000000000000000000000000008152600401612604906137cc565b60405180910390fd5b818111156126ce5760008373ffffffffffffffffffffffffffffffffffffffff16838361263a91906138c9565b604051612646906141de565b60006040518083038185875af1925050503d8060008114612683576040519150601f19603f3d011682016040523d82523d6000602084013e612688565b606091505b50509050806126cc576040517f08c379a00000000000000000000000000000000000000000000000000000000081526004016126c39061423f565b60405180910390fd5b505b60006126ea83609760009054906101000a900461ffff1661302d565b90506000609760029054906101000a900473ffffffffffffffffffffffffffffffffffffffff1673ffffffffffffffffffffffffffffffffffffffff1682604051612734906141de565b60006040518083038185875af1925050503d8060008114612771576040519150601f19603f3d011682016040523d82523d6000602084013e612776565b606091505b50509050806127ba576040517f08c379a00000000000000000000000000000000000000000000000000000000081526004016127b1906142ab565b60405180910390fd5b6000609d60008a73ffffffffffffffffffffffffffffffffffffffff1673ffffffffffffffffffffffffffffffffffffffff168152602001908152602001600020600089815260200190815260200160002060009054906101000a900473ffffffffffffffffffffffffffffffffffffffff1690506000609c60008373ffffffffffffffffffffffffffffffffffffffff1673ffffffffffffffffffffffffffffffffffffffff16815260200190815260200160002060009054906101000a900461ffff16905060008161ffff1614612904576000612899878361302d565b905080609e60008573ffffffffffffffffffffffffffffffffffffffff1673ffffffffffffffffffffffffffffffffffffffff16815260200190815260200160002060010160008282546128ed91906138fd565b92505081905550808561290091906138fd565b9450505b6000609b60008c73ffffffffffffffffffffffffffffffffffffffff1673ffffffffffffffffffffffffffffffffffffffff1681526020019081526020016000206040518060400160405290816000820160009054906101000a900461ffff1661ffff1661ffff16815260200160018201548152505090506000816000015161ffff1614612a5757600061299c88836000015161302d565b905080826020018181516129b091906138fd565b915081815250506040518060400160405280836000015161ffff1681526020018360200151815250609b60008e73ffffffffffffffffffffffffffffffffffffffff1673ffffffffffffffffffffffffffffffffffffffff16815260200190815260200160002060008201518160000160006101000a81548161ffff021916908361ffff160217905550602082015181600101559050508086612a5391906138fd565b9550505b8a73ffffffffffffffffffffffffffffffffffffffff1663da9657788689612a7f91906138c9565b8b6040518363ffffffff1660e01b8152600401612a9c91906134e1565b6000604051808303818588803b158015612ab557600080fd5b505af1158015612ac9573d6000803e3d6000fd5b50505050508a73ffffffffffffffffffffffffffffffffffffffff166342842e0e8a8a8d6040518463ffffffff1660e01b8152600401612b0b939291906142cb565b600060405180830381600087803b158015612b2557600080fd5b505af1158015612b39573d6000803e3d6000fd5b505050508a73ffffffffffffffffffffffffffffffffffffffff168873ffffffffffffffffffffffffffffffffffffffff168a73ffffffffffffffffffffffffffffffffffffffff167fee0ddd6454e05c1b33a8dfcb6cc52418d28020e96e21228bb601f5dbb6790cd08d8b604051612bb3929190613569565b60405180910390a4609860008c73ffffffffffffffffffffffffffffffffffffffff1673ffffffffffffffffffffffffffffffffffffffff16815260200190815260200160002060008b8152602001908152602001600020600090555050505050505050505050565b6000609a60003373ffffffffffffffffffffffffffffffffffffffff1673ffffffffffffffffffffffffffffffffffffffff168152602001908152602001600020905060005b8180549050811015612d515782828281548110612c8257612c81613cea565b5b9060005260206000209060020201600101541015612d3e578160018380549050612cac91906138c9565b81548110612cbd57612cbc613cea565b5b9060005260206000209060020201828281548110612cde57612cdd613cea565b5b9060005260206000209060020201600082015481600001556001820154816001015590505081805480612d1457612d13614302565b5b60019003818190600052602060002090600202016000808201600090556001820160009055505090555b8080612d4990613d19565b915050612c62565b505050565b612d5e613054565b73ffffffffffffffffffffffffffffffffffffffff16612d7c611cbd565b73ffffffffffffffffffffffffffffffffffffffff1614612dd2576040517f08c379a0000000000000000000000000000000000000000000000000000000008152600401612dc99061437d565b60405180910390fd5b565b6000603360009054906101000a900473ffffffffffffffffffffffffffffffffffffffff16905081603360006101000a81548173ffffffffffffffffffffffffffffffffffffffff021916908373ffffffffffffffffffffffffffffffffffffffff1602179055508173ffffffffffffffffffffffffffffffffffffffff168173ffffffffffffffffffffffffffffffffffffffff167f8be0079c531659141344cd1fd0a4f28419497f9722a3daafe3b4186f6b6457e060405160405180910390a35050565b609860008473ffffffffffffffffffffffffffffffffffffffff1673ffffffffffffffffffffffffffffffffffffffff1681526020019081526020016000206000838152602001908152602001600020600090558273ffffffffffffffffffffffffffffffffffffffff168173ffffffffffffffffffffffffffffffffffffffff167f9ba1a3cb55ce8d63d072a886f94d2a744f50cddf82128e897d0661f5ec62315884604051612f4b9190613437565b60405180910390a3505050565b6000808273ffffffffffffffffffffffffffffffffffffffff163b119050919050565b600060019054906101000a900460ff16612fca576040517f08c379a0000000000000000000000000000000000000000000000000000000008152600401612fc19061440f565b60405180910390fd5b612fd261305c565b565b600060019054906101000a900460ff16613023576040517f08c379a000000000000000000000000000000000000000000000000000000000815260040161301a9061440f565b60405180910390fd5b61302b6130bd565b565b60006127108261ffff1684613042919061442f565b61304c91906144b8565b905092915050565b600033905090565b600060019054906101000a900460ff166130ab576040517f08c379a00000000000000000000000000000000000000000000000000000000081526004016130a29061440f565b60405180910390fd5b6130bb6130b6613054565b612dd4565b565b600060019054906101000a900460ff1661310c576040517f08c379a00000000000000000000000000000000000000000000000000000000081526004016131039061440f565b60405180910390fd5b6001606581905550565b6040518060400160405280600061ffff168152602001600081525090565b600080fd5b600061ffff82169050919050565b61315081613139565b811461315b57600080fd5b50565b60008135905061316d81613147565b92915050565b60006020828403121561318957613188613134565b5b60006131978482850161315e565b91505092915050565b600073ffffffffffffffffffffffffffffffffffffffff82169050919050565b60006131cb826131a0565b9050919050565b6131db816131c0565b81146131e657600080fd5b50565b6000813590506131f8816131d2565b92915050565b6000819050919050565b613211816131fe565b811461321c57600080fd5b50565b60008135905061322e81613208565b92915050565b60008060006060848603121561324d5761324c613134565b5b600061325b868287016131e9565b935050602061326c8682870161321f565b925050604061327d8682870161321f565b9150509250925092565b6000806000606084860312156132a05761329f613134565b5b60006132ae868287016131e9565b93505060206132bf8682870161321f565b92505060406132d0868287016131e9565b9150509250925092565b6132e381613139565b82525050565b60006020820190506132fe60008301846132da565b92915050565b60006020828403121561331a57613319613134565b5b6000613328848285016131e9565b91505092915050565b61333a81613139565b82525050565b613349816131fe565b82525050565b6040820160008201516133656000850182613331565b5060208201516133786020850182613340565b50505050565b6000604082019050613393600083018461334f565b92915050565b60006133a4826131a0565b9050919050565b6133b481613399565b82525050565b60006020820190506133cf60008301846133ab565b92915050565b6000806000606084860312156133ee576133ed613134565b5b60006133fc868287016131e9565b935050602061340d868287016131e9565b925050604061341e8682870161321f565b9150509250925092565b613431816131fe565b82525050565b600060208201905061344c6000830184613428565b92915050565b6000806040838503121561346957613468613134565b5b6000613477858286016131e9565b92505060206134888582860161315e565b9150509250929050565b600080604083850312156134a9576134a8613134565b5b60006134b78582860161321f565b92505060206134c8858286016131e9565b9150509250929050565b6134db816131c0565b82525050565b60006020820190506134f660008301846134d2565b92915050565b6000806040838503121561351357613512613134565b5b6000613521858286016131e9565b92505060206135328582860161321f565b9150509250929050565b60006020828403121561355257613551613134565b5b60006135608482850161321f565b91505092915050565b600060408201905061357e6000830185613428565b61358b6020830184613428565b9392505050565b61359b81613399565b81146135a657600080fd5b50565b6000813590506135b881613592565b92915050565b600080604083850312156135d5576135d4613134565b5b60006135e38582860161315e565b92505060206135f4858286016135a9565b9150509250929050565b60006020828403121561361457613613613134565b5b6000613622848285016135a9565b91505092915050565b600082825260208201905092915050565b7f696e76616c696420726f79616c74790000000000000000000000000000000000600082015250565b6000613672600f8361362b565b915061367d8261363c565b602082019050919050565b600060208201905081810360008301526136a181613665565b9050919050565b7f6f6666657220616c726561647920637265617465640000000000000000000000600082015250565b60006136de60158361362b565b91506136e9826136a8565b602082019050919050565b6000602082019050818103600083015261370d816136d1565b9050919050565b7f6f6666657220616d6f756e7420746f6f20736d616c6c00000000000000000000600082015250565b600061374a60168361362b565b915061375582613714565b602082019050919050565b600060208201905081810360008301526137798161373d565b9050919050565b7f696e76616c6964206e6674206164647265737300000000000000000000000000600082015250565b60006137b660138361362b565b91506137c182613780565b602082019050919050565b600060208201905081810360008301526137e5816137a9565b9050919050565b6000815190506137fb816131d2565b92915050565b60006020828403121561381757613816613134565b5b6000613825848285016137ec565b91505092915050565b7f63616e6e6f742073656c66206f66666572000000000000000000000000000000600082015250565b600061386460118361362b565b915061386f8261382e565b602082019050919050565b6000602082019050818103600083015261389381613857565b9050919050565b7f4e487b7100000000000000000000000000000000000000000000000000000000600052601160045260246000fd5b60006138d4826131fe565b91506138df836131fe565b9250828210156138f2576138f161389a565b5b828203905092915050565b6000613908826131fe565b9150613913836131fe565b9250827fffffffffffffffffffffffffffffffffffffffffffffffffffffffffffffffff038211156139485761394761389a565b5b828201905092915050565b60006060820190506139686000830186613428565b6139756020830185613428565b6139826040830184613428565b949350505050565b7f5265656e7472616e637947756172643a207265656e7472616e742063616c6c00600082015250565b60006139c0601f8361362b565b91506139cb8261398a565b602082019050919050565b600060208201905081810360008301526139ef816139b3565b9050919050565b7f6e6f74206c6973746564206974656d0000000000000000000000000000000000600082015250565b6000613a2c600f8361362b565b9150613a37826139f6565b602082019050919050565b60006020820190508181036000830152613a5b81613a1f565b9050919050565b7f6f66666572206e6f7420657869737473206f7220657870697265640000000000600082015250565b6000613a98601b8361362b565b9150613aa382613a62565b602082019050919050565b60006020820190508181036000830152613ac781613a8b565b9050919050565b7f62616c616e6365206e6f7420656e6f75676820746f20627579206974656d0000600082015250565b6000613b04601e8361362b565b9150613b0f82613ace565b602082019050919050565b60006020820190508181036000830152613b3381613af7565b9050919050565b7f6e6f7468696e6720746f20776974686472617700000000000000000000000000600082015250565b6000613b7060138361362b565b9150613b7b82613b3a565b602082019050919050565b60006020820190508181036000830152613b9f81613b63565b9050919050565b7f62616c616e6365206e6f7420656e6f75676820746f2077697468647261770000600082015250565b6000613bdc601e8361362b565b9150613be782613ba6565b602082019050919050565b60006020820190508181036000830152613c0b81613bcf565b9050919050565b7f6d696e74657220616c7265616479207265676973746572656400000000000000600082015250565b6000613c4860198361362b565b9150613c5382613c12565b602082019050919050565b60006020820190508181036000830152613c7781613c3b565b9050919050565b7f75736572206e6f7420617070726f76656420666f722074686973206974656d00600082015250565b6000613cb4601f8361362b565b9150613cbf82613c7e565b602082019050919050565b60006020820190508181036000830152613ce381613ca7565b9050919050565b7f4e487b7100000000000000000000000000000000000000000000000000000000600052603260045260246000fd5b6000613d24826131fe565b91507fffffffffffffffffffffffffffffffffffffffffffffffffffffffffffffffff821415613d5757613d5661389a565b5b600182019050919050565b7f616c7265616479206c6973746564000000000000000000000000000000000000600082015250565b6000613d98600e8361362b565b9150613da382613d62565b602082019050919050565b60006020820190508181036000830152613dc781613d8b565b9050919050565b7f6e6f74206f776e696e67206974656d0000000000000000000000000000000000600082015250565b6000613e04600f8361362b565b9150613e0f82613dce565b602082019050919050565b60006020820190508181036000830152613e3381613df7565b9050919050565b6000604082019050613e4f60008301856134d2565b613e5c60208301846134d2565b9392505050565b60008115159050919050565b613e7881613e63565b8114613e8357600080fd5b50565b600081519050613e9581613e6f565b92915050565b600060208284031215613eb157613eb0613134565b5b6000613ebf84828501613e86565b91505092915050565b7f6172746f6e67206e6f7420617070726f76656420666f7220746869732069746560008201527f6d00000000000000000000000000000000000000000000000000000000000000602082015250565b6000613f2460218361362b565b9150613f2f82613ec8565b604082019050919050565b60006020820190508181036000830152613f5381613f17565b9050919050565b7f496e697469616c697a61626c653a20636f6e747261637420697320616c72656160008201527f647920696e697469616c697a6564000000000000000000000000000000000000602082015250565b6000613fb6602e8361362b565b9150613fc182613f5a565b604082019050919050565b60006020820190508181036000830152613fe581613fa9565b9050919050565b6000819050919050565b600060ff82169050919050565b6000819050919050565b600061402861402361401e84613fec565b614003565b613ff6565b9050919050565b6140388161400d565b82525050565b6000602082019050614053600083018461402f565b92915050565b7f4f776e61626c653a206e6577206f776e657220697320746865207a65726f206160008201527f6464726573730000000000000000000000000000000000000000000000000000602082015250565b60006140b560268361362b565b91506140c082614059565b604082019050919050565b600060208201905081810360008301526140e4816140a8565b9050919050565b60007fffffffff0000000000000000000000000000000000000000000000000000000082169050919050565b614120816140eb565b82525050565b600060208201905061413b6000830184614117565b92915050565b7f7061796d656e7420616d6f756e74206e6f7420656e6f75676800000000000000600082015250565b600061417760198361362b565b915061418282614141565b602082019050919050565b600060208201905081810360008301526141a68161416a565b9050919050565b600081905092915050565b50565b60006141c86000836141ad565b91506141d3826141b8565b600082019050919050565b60006141e9826141bb565b9150819050919050565b7f4f766572207061696420616d6f756e74207472616e73666572206661696c6564600082015250565b600061422960208361362b565b9150614234826141f3565b602082019050919050565b600060208201905081810360008301526142588161421c565b9050919050565b7f466565207472616e73666572206661696c656400000000000000000000000000600082015250565b600061429560138361362b565b91506142a08261425f565b602082019050919050565b600060208201905081810360008301526142c481614288565b9050919050565b60006060820190506142e060008301866134d2565b6142ed60208301856134d2565b6142fa6040830184613428565b949350505050565b7f4e487b7100000000000000000000000000000000000000000000000000000000600052603160045260246000fd5b7f4f776e61626c653a2063616c6c6572206973206e6f7420746865206f776e6572600082015250565b600061436760208361362b565b915061437282614331565b602082019050919050565b600060208201905081810360008301526143968161435a565b9050919050565b7f496e697469616c697a61626c653a20636f6e7472616374206973206e6f74206960008201527f6e697469616c697a696e67000000000000000000000000000000000000000000602082015250565b60006143f9602b8361362b565b91506144048261439d565b604082019050919050565b60006020820190508181036000830152614428816143ec565b9050919050565b600061443a826131fe565b9150614445836131fe565b9250817fffffffffffffffffffffffffffffffffffffffffffffffffffffffffffffffff048311821515161561447e5761447d61389a565b5b828202905092915050565b7f4e487b7100000000000000000000000000000000000000000000000000000000600052601260045260246000fd5b60006144c3826131fe565b91506144ce836131fe565b9250826144de576144dd614489565b5b82820490509291505056fea2646970667358221220c21c755baa3a09bf51272c2df8aa6a501c8e5a633818408028fd4f544afdff1364736f6c63430008090033",
  "linkReferences": {},
  "deployedLinkReferences": {}
}