{
  "_format": "hh-sol-artifact-1",
  "contractName": "ArtongMarketplace",
  "sourceName": "contracts/ArtongMarketplace.sol",
  "abi": [
    {
      "anonymous": false,
      "inputs": [
        {
          "indexed": false,
          "internalType": "uint8",
          "name": "version",
          "type": "uint8"
        }
      ],
      "name": "Initialized",
      "type": "event"
    },
    {
      "anonymous": false,
      "inputs": [
        {
          "indexed": true,
          "internalType": "address",
          "name": "owner",
          "type": "address"
        },
        {
          "indexed": true,
          "internalType": "address",
          "name": "nft",
          "type": "address"
        },
        {
          "indexed": false,
          "internalType": "uint256",
          "name": "tokenId",
          "type": "uint256"
        }
      ],
      "name": "ItemCanceled",
      "type": "event"
    },
    {
      "anonymous": false,
      "inputs": [
        {
          "indexed": true,
          "internalType": "address",
          "name": "owner",
          "type": "address"
        },
        {
          "indexed": true,
          "internalType": "address",
          "name": "nft",
          "type": "address"
        },
        {
          "indexed": false,
          "internalType": "uint256",
          "name": "tokenId",
          "type": "uint256"
        },
        {
          "indexed": false,
          "internalType": "uint256",
          "name": "price",
          "type": "uint256"
        }
      ],
      "name": "ItemListed",
      "type": "event"
    },
    {
      "anonymous": false,
      "inputs": [
        {
          "indexed": true,
          "internalType": "address",
          "name": "seller",
          "type": "address"
        },
        {
          "indexed": true,
          "internalType": "address",
          "name": "buyer",
          "type": "address"
        },
        {
          "indexed": true,
          "internalType": "address",
          "name": "nft",
          "type": "address"
        },
        {
          "indexed": false,
          "internalType": "uint256",
          "name": "tokenId",
          "type": "uint256"
        },
        {
          "indexed": false,
          "internalType": "uint256",
          "name": "price",
          "type": "uint256"
        }
      ],
      "name": "ItemSold",
      "type": "event"
    },
    {
      "anonymous": false,
      "inputs": [
        {
          "indexed": true,
          "internalType": "address",
          "name": "owner",
          "type": "address"
        },
        {
          "indexed": true,
          "internalType": "address",
          "name": "nft",
          "type": "address"
        },
        {
          "indexed": false,
          "internalType": "uint256",
          "name": "tokenId",
          "type": "uint256"
        },
        {
          "indexed": false,
          "internalType": "uint256",
          "name": "newPrice",
          "type": "uint256"
        }
      ],
      "name": "ItemUpdated",
      "type": "event"
    },
    {
      "anonymous": false,
      "inputs": [
        {
          "indexed": true,
          "internalType": "address",
          "name": "creator",
          "type": "address"
        },
        {
          "indexed": true,
          "internalType": "address",
          "name": "nft",
          "type": "address"
        },
        {
          "indexed": false,
          "internalType": "uint256",
          "name": "tokenId",
          "type": "uint256"
        }
      ],
      "name": "OfferCanceled",
      "type": "event"
    },
    {
      "anonymous": false,
      "inputs": [
        {
          "indexed": true,
          "internalType": "address",
          "name": "creator",
          "type": "address"
        },
        {
          "indexed": true,
          "internalType": "address",
          "name": "nft",
          "type": "address"
        },
        {
          "indexed": false,
          "internalType": "uint256",
          "name": "tokenId",
          "type": "uint256"
        },
        {
          "indexed": false,
          "internalType": "uint256",
          "name": "price",
          "type": "uint256"
        },
        {
          "indexed": false,
          "internalType": "uint256",
          "name": "deadline",
          "type": "uint256"
        }
      ],
      "name": "OfferCreated",
      "type": "event"
    },
    {
      "anonymous": false,
      "inputs": [
        {
          "indexed": true,
          "internalType": "address",
          "name": "previousOwner",
          "type": "address"
        },
        {
          "indexed": true,
          "internalType": "address",
          "name": "newOwner",
          "type": "address"
        }
      ],
      "name": "OwnershipTransferred",
      "type": "event"
    },
    {
      "anonymous": false,
      "inputs": [
        {
          "indexed": false,
          "internalType": "uint16",
          "name": "platformFee",
          "type": "uint16"
        }
      ],
      "name": "UpdatePlatformFee",
      "type": "event"
    },
    {
      "anonymous": false,
      "inputs": [
        {
          "indexed": false,
          "internalType": "address payable",
          "name": "platformFeeRecipient",
          "type": "address"
        }
      ],
      "name": "UpdatePlatformFeeRecipient",
      "type": "event"
    },
    {
      "inputs": [
        {
          "internalType": "address",
          "name": "_nftAddress",
          "type": "address"
        },
        {
          "internalType": "uint256",
          "name": "_tokenId",
          "type": "uint256"
        },
        {
          "internalType": "address",
          "name": "_owner",
          "type": "address"
        }
      ],
      "name": "buyItem",
      "outputs": [],
      "stateMutability": "payable",
      "type": "function"
    },
    {
      "inputs": [
        {
          "internalType": "address",
          "name": "_nftAddress",
          "type": "address"
        },
        {
          "internalType": "uint256",
          "name": "_tokenId",
          "type": "uint256"
        }
      ],
      "name": "cancelListing",
      "outputs": [],
      "stateMutability": "nonpayable",
      "type": "function"
    },
    {
      "inputs": [
        {
          "internalType": "address",
          "name": "",
          "type": "address"
        }
      ],
      "name": "collectionRoyalties",
      "outputs": [
        {
          "internalType": "uint16",
          "name": "royalty",
          "type": "uint16"
        },
        {
          "internalType": "uint256",
          "name": "royaltyBalance",
          "type": "uint256"
        }
      ],
      "stateMutability": "view",
      "type": "function"
    },
    {
      "inputs": [],
      "name": "feeReceipient",
      "outputs": [
        {
          "internalType": "address payable",
          "name": "",
          "type": "address"
        }
      ],
      "stateMutability": "view",
      "type": "function"
    },
    {
      "inputs": [
        {
          "internalType": "uint16",
          "name": "_platformFee",
          "type": "uint16"
        },
        {
          "internalType": "address payable",
          "name": "_feeRecipient",
          "type": "address"
        }
      ],
      "name": "initialize",
      "outputs": [],
      "stateMutability": "nonpayable",
      "type": "function"
    },
    {
      "inputs": [
        {
          "internalType": "address",
          "name": "_nftAddress",
          "type": "address"
        },
        {
          "internalType": "uint256",
          "name": "_tokenId",
          "type": "uint256"
        },
        {
          "internalType": "uint256",
          "name": "_price",
          "type": "uint256"
        }
      ],
      "name": "listItem",
      "outputs": [],
      "stateMutability": "nonpayable",
      "type": "function"
    },
    {
      "inputs": [
        {
          "internalType": "address",
          "name": "",
          "type": "address"
        },
        {
          "internalType": "uint256",
          "name": "",
          "type": "uint256"
        }
      ],
      "name": "listingPrices",
      "outputs": [
        {
          "internalType": "uint256",
          "name": "",
          "type": "uint256"
        }
      ],
      "stateMutability": "view",
      "type": "function"
    },
    {
      "inputs": [
        {
          "internalType": "address",
          "name": "",
          "type": "address"
        },
        {
          "internalType": "uint256",
          "name": "",
          "type": "uint256"
        }
      ],
      "name": "minters",
      "outputs": [
        {
          "internalType": "address",
          "name": "",
          "type": "address"
        }
      ],
      "stateMutability": "view",
      "type": "function"
    },
    {
      "inputs": [
        {
          "internalType": "address",
          "name": "",
          "type": "address"
        },
        {
          "internalType": "uint256",
          "name": "",
          "type": "uint256"
        },
        {
          "internalType": "address",
          "name": "",
          "type": "address"
        }
      ],
      "name": "offers",
      "outputs": [
        {
          "internalType": "uint256",
          "name": "price",
          "type": "uint256"
        },
        {
          "internalType": "uint256",
          "name": "deadline",
          "type": "uint256"
        }
      ],
      "stateMutability": "view",
      "type": "function"
    },
    {
      "inputs": [],
      "name": "owner",
      "outputs": [
        {
          "internalType": "address",
          "name": "",
          "type": "address"
        }
      ],
      "stateMutability": "view",
      "type": "function"
    },
    {
      "inputs": [],
      "name": "platformFee",
      "outputs": [
        {
          "internalType": "uint16",
          "name": "",
          "type": "uint16"
        }
      ],
      "stateMutability": "view",
      "type": "function"
    },
    {
      "inputs": [],
      "name": "renounceOwnership",
      "outputs": [],
      "stateMutability": "nonpayable",
      "type": "function"
    },
    {
      "inputs": [
        {
          "internalType": "address",
          "name": "",
          "type": "address"
        }
      ],
      "name": "tokenRoyalties",
      "outputs": [
        {
          "internalType": "uint16",
          "name": "royalty",
          "type": "uint16"
        },
        {
          "internalType": "uint256",
          "name": "royaltyBalance",
          "type": "uint256"
        }
      ],
      "stateMutability": "view",
      "type": "function"
    },
    {
      "inputs": [
        {
          "internalType": "address",
          "name": "newOwner",
          "type": "address"
        }
      ],
      "name": "transferOwnership",
      "outputs": [],
      "stateMutability": "nonpayable",
      "type": "function"
    },
    {
      "inputs": [
        {
          "internalType": "address",
          "name": "_nftAddress",
          "type": "address"
        },
        {
          "internalType": "uint256",
          "name": "_tokenId",
          "type": "uint256"
        },
        {
          "internalType": "uint256",
          "name": "_newPrice",
          "type": "uint256"
        }
      ],
      "name": "updateListing",
      "outputs": [],
      "stateMutability": "nonpayable",
      "type": "function"
    },
    {
      "inputs": [],
      "name": "withdraw",
      "outputs": [],
      "stateMutability": "nonpayable",
      "type": "function"
    }
  ],
  "bytecode": "0x608060405234801561001057600080fd5b50612b59806100206000396000f3fe6080604052600436106100f35760003560e01c80638da5cb5b1161008a578063d3f494cc11610059578063d3f494cc1461030b578063e0dbcde514610349578063f2fde38b14610372578063f772adf11461039b576100f3565b80638da5cb5b1461023c578063ac43e89014610267578063b2ddee06146102a4578063c3c3b2a4146102cd576100f3565b806357b275b4116100c657806357b275b414610181578063715018a6146101bf57806378746d0d146101d657806389bfd38f14610213576100f3565b8063259ca365146100f857806326232a2e146101145780633740ebb31461013f5780633ccfd60b1461016a575b600080fd5b610112600480360381019061010d9190611e4a565b6103c4565b005b34801561012057600080fd5b50610129610c13565b6040516101369190611eba565b60405180910390f35b34801561014b57600080fd5b50610154610c27565b6040516101619190611ef6565b60405180910390f35b34801561017657600080fd5b5061017f610c4d565b005b34801561018d57600080fd5b506101a860048036038101906101a39190611f11565b610dad565b6040516101b6929190611f4d565b60405180910390f35b3480156101cb57600080fd5b506101d4610ddf565b005b3480156101e257600080fd5b506101fd60048036038101906101f89190611f76565b610df3565b60405161020a9190611fc5565b60405180910390f35b34801561021f57600080fd5b5061023a60048036038101906102359190611fe0565b610e35565b005b34801561024857600080fd5b50610251611249565b60405161025e9190611fc5565b60405180910390f35b34801561027357600080fd5b5061028e60048036038101906102899190611f76565b611273565b60405161029b9190612033565b60405180910390f35b3480156102b057600080fd5b506102cb60048036038101906102c69190611f76565b611298565b005b3480156102d957600080fd5b506102f460048036038101906102ef9190611f11565b6113a7565b604051610302929190611f4d565b60405180910390f35b34801561031757600080fd5b50610332600480360381019061032d9190611e4a565b6113d9565b60405161034092919061204e565b60405180910390f35b34801561035557600080fd5b50610370600480360381019061036b91906120cf565b611417565b005b34801561037e57600080fd5b5061039960048036038101906103949190611f11565b6115bd565b005b3480156103a757600080fd5b506103c260048036038101906103bd9190611fe0565b611641565b005b6002606554141561040a576040517f08c379a00000000000000000000000000000000000000000000000000000000081526004016104019061216c565b60405180910390fd5b60026065819055508282826000609960008573ffffffffffffffffffffffffffffffffffffffff1673ffffffffffffffffffffffffffffffffffffffff1681526020019081526020016000206000848152602001908152602001600020549050600081116104ad576040517f08c379a00000000000000000000000000000000000000000000000000000000081526004016104a4906121d8565b60405180910390fd5b6104b8878787611802565b6000609960008973ffffffffffffffffffffffffffffffffffffffff1673ffffffffffffffffffffffffffffffffffffffff168152602001908152602001600020600088815260200190815260200160002054905080341015610550576040517f08c379a000000000000000000000000000000000000000000000000000000000815260040161054790612244565b60405180910390fd5b600061056c82609760009054906101000a900461ffff166119f1565b90506000609760029054906101000a900473ffffffffffffffffffffffffffffffffffffffff1673ffffffffffffffffffffffffffffffffffffffff16826040516105b690612295565b60006040518083038185875af1925050503d80600081146105f3576040519150601f19603f3d011682016040523d82523d6000602084013e6105f8565b606091505b505090508061063c576040517f08c379a0000000000000000000000000000000000000000000000000000000008152600401610633906122f6565b60405180910390fd5b6000609860008c73ffffffffffffffffffffffffffffffffffffffff1673ffffffffffffffffffffffffffffffffffffffff16815260200190815260200160002060008b815260200190815260200160002060009054906101000a900473ffffffffffffffffffffffffffffffffffffffff1690506000609c60008b73ffffffffffffffffffffffffffffffffffffffff1673ffffffffffffffffffffffffffffffffffffffff1681526020019081526020016000206040518060400160405290816000820160009054906101000a900461ffff1661ffff1661ffff1681526020016001820154815250509050600073ffffffffffffffffffffffffffffffffffffffff168273ffffffffffffffffffffffffffffffffffffffff161415801561076f57506000816000015161ffff1614155b156107af5760006107848683600001516119f1565b905080826020018181516107989190612345565b9150818152505080856107ab9190612345565b9450505b6000609b60008e73ffffffffffffffffffffffffffffffffffffffff1673ffffffffffffffffffffffffffffffffffffffff1681526020019081526020016000206040518060400160405290816000820160009054906101000a900461ffff1661ffff1661ffff1681526020016001820154815250509050600073ffffffffffffffffffffffffffffffffffffffff168373ffffffffffffffffffffffffffffffffffffffff161415801561086d57506000816000015161ffff1614155b156108ad5760006108828783600001516119f1565b905080826020018181516108969190612345565b9150818152505080866108a99190612345565b9550505b8c73ffffffffffffffffffffffffffffffffffffffff1663da96577886886108d5919061239b565b8d6040518363ffffffff1660e01b81526004016108f29190611fc5565b6000604051808303818588803b15801561090b57600080fd5b505af115801561091f573d6000803e3d6000fd5b50505050508c73ffffffffffffffffffffffffffffffffffffffff166301ffc9a77f80ac58cd000000000000000000000000000000000000000000000000000000006040518263ffffffff1660e01b815260040161097d919061240a565b60206040518083038186803b15801561099557600080fd5b505afa1580156109a9573d6000803e3d6000fd5b505050506040513d601f19601f820116820180604052508101906109cd919061245d565b15610a42578c73ffffffffffffffffffffffffffffffffffffffff166342842e0e8c338f6040518463ffffffff1660e01b8152600401610a0f9392919061248a565b600060405180830381600087803b158015610a2957600080fd5b505af1158015610a3d573d6000803e3d6000fd5b505050505b85341115610b2a5760003373ffffffffffffffffffffffffffffffffffffffff168734610a6f919061239b565b604051610a7b90612295565b60006040518083038185875af1925050503d8060008114610ab8576040519150601f19603f3d011682016040523d82523d6000602084013e610abd565b606091505b5050905080610b28578634610ad2919061239b565b609d60003373ffffffffffffffffffffffffffffffffffffffff1673ffffffffffffffffffffffffffffffffffffffff1681526020019081526020016000206000828254610b209190612345565b925050819055505b505b8c73ffffffffffffffffffffffffffffffffffffffff163373ffffffffffffffffffffffffffffffffffffffff168c73ffffffffffffffffffffffffffffffffffffffff167fee0ddd6454e05c1b33a8dfcb6cc52418d28020e96e21228bb601f5dbb6790cd08f8a604051610ba092919061204e565b60405180910390a4609960008e73ffffffffffffffffffffffffffffffffffffffff1673ffffffffffffffffffffffffffffffffffffffff16815260200190815260200160002060008d815260200190815260200160002060009055505050505050505050506001606581905550505050565b609760009054906101000a900461ffff1681565b609760029054906101000a900473ffffffffffffffffffffffffffffffffffffffff1681565b6000609d60003373ffffffffffffffffffffffffffffffffffffffff1673ffffffffffffffffffffffffffffffffffffffff1681526020019081526020016000205490506000811415610cd5576040517f08c379a0000000000000000000000000000000000000000000000000000000008152600401610ccc9061250d565b60405180910390fd5b80471015610d18576040517f08c379a0000000000000000000000000000000000000000000000000000000008152600401610d0f90612579565b60405180910390fd5b60003390506000609d60003373ffffffffffffffffffffffffffffffffffffffff1673ffffffffffffffffffffffffffffffffffffffff168152602001908152602001600020819055508073ffffffffffffffffffffffffffffffffffffffff166108fc839081150290604051600060405180830381858888f19350505050158015610da8573d6000803e3d6000fd5b505050565b609b6020528060005260406000206000915090508060000160009054906101000a900461ffff16908060010154905082565b610de7611a18565b610df16000611a96565b565b60986020528160005260406000206020528060005260406000206000915091509054906101000a900473ffffffffffffffffffffffffffffffffffffffff1681565b8282336000609960008573ffffffffffffffffffffffffffffffffffffffff1673ffffffffffffffffffffffffffffffffffffffff168152602001908152602001600020600084815260200190815260200160002054905060008114610ed0576040517f08c379a0000000000000000000000000000000000000000000000000000000008152600401610ec7906125e5565b60405180910390fd5b8673ffffffffffffffffffffffffffffffffffffffff166301ffc9a77f80ac58cd000000000000000000000000000000000000000000000000000000006040518263ffffffff1660e01b8152600401610f29919061240a565b60206040518083038186803b158015610f4157600080fd5b505afa158015610f55573d6000803e3d6000fd5b505050506040513d601f19601f82011682018060405250810190610f79919061245d565b156111495760008790503373ffffffffffffffffffffffffffffffffffffffff168173ffffffffffffffffffffffffffffffffffffffff16636352211e896040518263ffffffff1660e01b8152600401610fd39190612033565b60206040518083038186803b158015610feb57600080fd5b505afa158015610fff573d6000803e3d6000fd5b505050506040513d601f19601f82011682018060405250810190611023919061261a565b73ffffffffffffffffffffffffffffffffffffffff1614611079576040517f08c379a000000000000000000000000000000000000000000000000000000000815260040161107090612693565b60405180910390fd5b8073ffffffffffffffffffffffffffffffffffffffff1663e985e9c533306040518363ffffffff1660e01b81526004016110b49291906126b3565b60206040518083038186803b1580156110cc57600080fd5b505afa1580156110e0573d6000803e3d6000fd5b505050506040513d601f19601f82011682018060405250810190611104919061245d565b611143576040517f08c379a000000000000000000000000000000000000000000000000000000000815260040161113a9061274e565b60405180910390fd5b50611184565b6040517f08c379a000000000000000000000000000000000000000000000000000000000815260040161117b906127ba565b60405180910390fd5b84609960008973ffffffffffffffffffffffffffffffffffffffff1673ffffffffffffffffffffffffffffffffffffffff1681526020019081526020016000206000888152602001908152602001600020819055508673ffffffffffffffffffffffffffffffffffffffff163373ffffffffffffffffffffffffffffffffffffffff167fd547e933094f12a9159076970143ebe73234e64480317844b0dcb36117116de4888860405161123892919061204e565b60405180910390a350505050505050565b6000603360009054906101000a900473ffffffffffffffffffffffffffffffffffffffff16905090565b6099602052816000526040600020602052806000526040600020600091509150505481565b600260655414156112de576040517f08c379a00000000000000000000000000000000000000000000000000000000081526004016112d59061216c565b60405180910390fd5b60026065819055508181336000609960008573ffffffffffffffffffffffffffffffffffffffff1673ffffffffffffffffffffffffffffffffffffffff168152602001908152602001600020600084815260200190815260200160002054905060008111611381576040517f08c379a0000000000000000000000000000000000000000000000000000000008152600401611378906121d8565b60405180910390fd5b61138c868633611802565b611397868633611b5c565b5050505060016065819055505050565b609c6020528060005260406000206000915090508060000160009054906101000a900461ffff16908060010154905082565b609a60205282600052604060002060205281600052604060002060205280600052604060002060009250925050508060000154908060010154905082565b60008060019054906101000a900460ff161590508080156114485750600160008054906101000a900460ff1660ff16105b80611475575061145730611c1a565b1580156114745750600160008054906101000a900460ff1660ff16145b5b6114b4576040517f08c379a00000000000000000000000000000000000000000000000000000000081526004016114ab9061284c565b60405180910390fd5b60016000806101000a81548160ff021916908360ff16021790555080156114f1576001600060016101000a81548160ff0219169083151502179055505b82609760006101000a81548161ffff021916908361ffff16021790555081609760026101000a81548173ffffffffffffffffffffffffffffffffffffffff021916908373ffffffffffffffffffffffffffffffffffffffff160217905550611557611c3d565b61155f611c96565b80156115b85760008060016101000a81548160ff0219169083151502179055507f7f26b83ff96e1f2b6a682f133852f6798a09c465da95921460cefb384740249860016040516115af91906128be565b60405180910390a15b505050565b6115c5611a18565b600073ffffffffffffffffffffffffffffffffffffffff168173ffffffffffffffffffffffffffffffffffffffff161415611635576040517f08c379a000000000000000000000000000000000000000000000000000000000815260040161162c9061294b565b60405180910390fd5b61163e81611a96565b50565b60026065541415611687576040517f08c379a000000000000000000000000000000000000000000000000000000000815260040161167e9061216c565b60405180910390fd5b60026065819055508282336000609960008573ffffffffffffffffffffffffffffffffffffffff1673ffffffffffffffffffffffffffffffffffffffff16815260200190815260200160002060008481526020019081526020016000205490506000811161172a576040517f08c379a0000000000000000000000000000000000000000000000000000000008152600401611721906121d8565b60405180910390fd5b611735878733611802565b84609960008973ffffffffffffffffffffffffffffffffffffffff1673ffffffffffffffffffffffffffffffffffffffff1681526020019081526020016000206000888152602001908152602001600020819055508673ffffffffffffffffffffffffffffffffffffffff163373ffffffffffffffffffffffffffffffffffffffff167f3c33e65e8698294810b631d476d60b44425303828da0b1f8b635231bfda12be288886040516117e992919061204e565b60405180910390a3505050506001606581905550505050565b8273ffffffffffffffffffffffffffffffffffffffff166301ffc9a77f80ac58cd000000000000000000000000000000000000000000000000000000006040518263ffffffff1660e01b815260040161185b919061240a565b60206040518083038186803b15801561187357600080fd5b505afa158015611887573d6000803e3d6000fd5b505050506040513d601f19601f820116820180604052508101906118ab919061245d565b156119b15760008390508173ffffffffffffffffffffffffffffffffffffffff168173ffffffffffffffffffffffffffffffffffffffff16636352211e856040518263ffffffff1660e01b81526004016119059190612033565b60206040518083038186803b15801561191d57600080fd5b505afa158015611931573d6000803e3d6000fd5b505050506040513d601f19601f82011682018060405250810190611955919061261a565b73ffffffffffffffffffffffffffffffffffffffff16146119ab576040517f08c379a00000000000000000000000000000000000000000000000000000000081526004016119a290612693565b60405180910390fd5b506119ec565b6040517f08c379a00000000000000000000000000000000000000000000000000000000081526004016119e3906127ba565b60405180910390fd5b505050565b60006127108261ffff1684611a06919061296b565b611a1091906129f4565b905092915050565b611a20611cef565b73ffffffffffffffffffffffffffffffffffffffff16611a3e611249565b73ffffffffffffffffffffffffffffffffffffffff1614611a94576040517f08c379a0000000000000000000000000000000000000000000000000000000008152600401611a8b90612a71565b60405180910390fd5b565b6000603360009054906101000a900473ffffffffffffffffffffffffffffffffffffffff16905081603360006101000a81548173ffffffffffffffffffffffffffffffffffffffff021916908373ffffffffffffffffffffffffffffffffffffffff1602179055508173ffffffffffffffffffffffffffffffffffffffff168173ffffffffffffffffffffffffffffffffffffffff167f8be0079c531659141344cd1fd0a4f28419497f9722a3daafe3b4186f6b6457e060405160405180910390a35050565b609960008473ffffffffffffffffffffffffffffffffffffffff1673ffffffffffffffffffffffffffffffffffffffff1681526020019081526020016000206000838152602001908152602001600020600090558273ffffffffffffffffffffffffffffffffffffffff168173ffffffffffffffffffffffffffffffffffffffff167f9ba1a3cb55ce8d63d072a886f94d2a744f50cddf82128e897d0661f5ec62315884604051611c0d9190612033565b60405180910390a3505050565b6000808273ffffffffffffffffffffffffffffffffffffffff163b119050919050565b600060019054906101000a900460ff16611c8c576040517f08c379a0000000000000000000000000000000000000000000000000000000008152600401611c8390612b03565b60405180910390fd5b611c94611cf7565b565b600060019054906101000a900460ff16611ce5576040517f08c379a0000000000000000000000000000000000000000000000000000000008152600401611cdc90612b03565b60405180910390fd5b611ced611d58565b565b600033905090565b600060019054906101000a900460ff16611d46576040517f08c379a0000000000000000000000000000000000000000000000000000000008152600401611d3d90612b03565b60405180910390fd5b611d56611d51611cef565b611a96565b565b600060019054906101000a900460ff16611da7576040517f08c379a0000000000000000000000000000000000000000000000000000000008152600401611d9e90612b03565b60405180910390fd5b6001606581905550565b600080fd5b600073ffffffffffffffffffffffffffffffffffffffff82169050919050565b6000611de182611db6565b9050919050565b611df181611dd6565b8114611dfc57600080fd5b50565b600081359050611e0e81611de8565b92915050565b6000819050919050565b611e2781611e14565b8114611e3257600080fd5b50565b600081359050611e4481611e1e565b92915050565b600080600060608486031215611e6357611e62611db1565b5b6000611e7186828701611dff565b9350506020611e8286828701611e35565b9250506040611e9386828701611dff565b9150509250925092565b600061ffff82169050919050565b611eb481611e9d565b82525050565b6000602082019050611ecf6000830184611eab565b92915050565b6000611ee082611db6565b9050919050565b611ef081611ed5565b82525050565b6000602082019050611f0b6000830184611ee7565b92915050565b600060208284031215611f2757611f26611db1565b5b6000611f3584828501611dff565b91505092915050565b611f4781611e14565b82525050565b6000604082019050611f626000830185611eab565b611f6f6020830184611f3e565b9392505050565b60008060408385031215611f8d57611f8c611db1565b5b6000611f9b85828601611dff565b9250506020611fac85828601611e35565b9150509250929050565b611fbf81611dd6565b82525050565b6000602082019050611fda6000830184611fb6565b92915050565b600080600060608486031215611ff957611ff8611db1565b5b600061200786828701611dff565b935050602061201886828701611e35565b925050604061202986828701611e35565b9150509250925092565b60006020820190506120486000830184611f3e565b92915050565b60006040820190506120636000830185611f3e565b6120706020830184611f3e565b9392505050565b61208081611e9d565b811461208b57600080fd5b50565b60008135905061209d81612077565b92915050565b6120ac81611ed5565b81146120b757600080fd5b50565b6000813590506120c9816120a3565b92915050565b600080604083850312156120e6576120e5611db1565b5b60006120f48582860161208e565b9250506020612105858286016120ba565b9150509250929050565b600082825260208201905092915050565b7f5265656e7472616e637947756172643a207265656e7472616e742063616c6c00600082015250565b6000612156601f8361210f565b915061216182612120565b602082019050919050565b6000602082019050818103600083015261218581612149565b9050919050565b7f6e6f74206c6973746564206974656d0000000000000000000000000000000000600082015250565b60006121c2600f8361210f565b91506121cd8261218c565b602082019050919050565b600060208201905081810360008301526121f1816121b5565b9050919050565b7f7061796d656e7420616d6f756e74206e6f7420656e6f75676800000000000000600082015250565b600061222e60198361210f565b9150612239826121f8565b602082019050919050565b6000602082019050818103600083015261225d81612221565b9050919050565b600081905092915050565b50565b600061227f600083612264565b915061228a8261226f565b600082019050919050565b60006122a082612272565b9150819050919050565b7f466565207472616e73666572206661696c656400000000000000000000000000600082015250565b60006122e060138361210f565b91506122eb826122aa565b602082019050919050565b6000602082019050818103600083015261230f816122d3565b9050919050565b7f4e487b7100000000000000000000000000000000000000000000000000000000600052601160045260246000fd5b600061235082611e14565b915061235b83611e14565b9250827fffffffffffffffffffffffffffffffffffffffffffffffffffffffffffffffff038211156123905761238f612316565b5b828201905092915050565b60006123a682611e14565b91506123b183611e14565b9250828210156123c4576123c3612316565b5b828203905092915050565b60007fffffffff0000000000000000000000000000000000000000000000000000000082169050919050565b612404816123cf565b82525050565b600060208201905061241f60008301846123fb565b92915050565b60008115159050919050565b61243a81612425565b811461244557600080fd5b50565b60008151905061245781612431565b92915050565b60006020828403121561247357612472611db1565b5b600061248184828501612448565b91505092915050565b600060608201905061249f6000830186611fb6565b6124ac6020830185611fb6565b6124b96040830184611f3e565b949350505050565b7f6e6f7468696e6720746f20776974686472617700000000000000000000000000600082015250565b60006124f760138361210f565b9150612502826124c1565b602082019050919050565b60006020820190508181036000830152612526816124ea565b9050919050565b7f62616c616e6365206e6f7420656e6f75676820746f2077697468647261770000600082015250565b6000612563601e8361210f565b915061256e8261252d565b602082019050919050565b6000602082019050818103600083015261259281612556565b9050919050565b7f616c7265616479206c6973746564000000000000000000000000000000000000600082015250565b60006125cf600e8361210f565b91506125da82612599565b602082019050919050565b600060208201905081810360008301526125fe816125c2565b9050919050565b60008151905061261481611de8565b92915050565b6000602082840312156126305761262f611db1565b5b600061263e84828501612605565b91505092915050565b7f6e6f74206f776e696e67206974656d0000000000000000000000000000000000600082015250565b600061267d600f8361210f565b915061268882612647565b602082019050919050565b600060208201905081810360008301526126ac81612670565b9050919050565b60006040820190506126c86000830185611fb6565b6126d56020830184611fb6565b9392505050565b7f6172746f6e67206e6f7420617070726f76656420666f7220746869732069746560008201527f6d00000000000000000000000000000000000000000000000000000000000000602082015250565b600061273860218361210f565b9150612743826126dc565b604082019050919050565b600060208201905081810360008301526127678161272b565b9050919050565b7f696e76616c6964206e6674206164647265737300000000000000000000000000600082015250565b60006127a460138361210f565b91506127af8261276e565b602082019050919050565b600060208201905081810360008301526127d381612797565b9050919050565b7f496e697469616c697a61626c653a20636f6e747261637420697320616c72656160008201527f647920696e697469616c697a6564000000000000000000000000000000000000602082015250565b6000612836602e8361210f565b9150612841826127da565b604082019050919050565b6000602082019050818103600083015261286581612829565b9050919050565b6000819050919050565b600060ff82169050919050565b6000819050919050565b60006128a86128a361289e8461286c565b612883565b612876565b9050919050565b6128b88161288d565b82525050565b60006020820190506128d360008301846128af565b92915050565b7f4f776e61626c653a206e6577206f776e657220697320746865207a65726f206160008201527f6464726573730000000000000000000000000000000000000000000000000000602082015250565b600061293560268361210f565b9150612940826128d9565b604082019050919050565b6000602082019050818103600083015261296481612928565b9050919050565b600061297682611e14565b915061298183611e14565b9250817fffffffffffffffffffffffffffffffffffffffffffffffffffffffffffffffff04831182151516156129ba576129b9612316565b5b828202905092915050565b7f4e487b7100000000000000000000000000000000000000000000000000000000600052601260045260246000fd5b60006129ff82611e14565b9150612a0a83611e14565b925082612a1a57612a196129c5565b5b828204905092915050565b7f4f776e61626c653a2063616c6c6572206973206e6f7420746865206f776e6572600082015250565b6000612a5b60208361210f565b9150612a6682612a25565b602082019050919050565b60006020820190508181036000830152612a8a81612a4e565b9050919050565b7f496e697469616c697a61626c653a20636f6e7472616374206973206e6f74206960008201527f6e697469616c697a696e67000000000000000000000000000000000000000000602082015250565b6000612aed602b8361210f565b9150612af882612a91565b604082019050919050565b60006020820190508181036000830152612b1c81612ae0565b905091905056fea26469706673582212209e91e57025bb86439379a753f432cf8d9f61fd65387d9294cdd5646385221c4164736f6c63430008090033",
  "linkReferences": {},
  "deployedLinkReferences": {}
}