{
  "_format": "hh-sol-artifact-1",
  "contractName": "ArtongMarketplace",
  "sourceName": "contracts/ArtongMarketplace.sol",
  "abi": [
    {
      "anonymous": false,
      "inputs": [
        {
          "indexed": false,
          "internalType": "uint8",
          "name": "version",
          "type": "uint8"
        }
      ],
      "name": "Initialized",
      "type": "event"
    },
    {
      "anonymous": false,
      "inputs": [
        {
          "indexed": true,
          "internalType": "address",
          "name": "owner",
          "type": "address"
        },
        {
          "indexed": true,
          "internalType": "address",
          "name": "nft",
          "type": "address"
        },
        {
          "indexed": false,
          "internalType": "uint256",
          "name": "tokenId",
          "type": "uint256"
        }
      ],
      "name": "ItemCanceled",
      "type": "event"
    },
    {
      "anonymous": false,
      "inputs": [
        {
          "indexed": true,
          "internalType": "address",
          "name": "owner",
          "type": "address"
        },
        {
          "indexed": true,
          "internalType": "address",
          "name": "nft",
          "type": "address"
        },
        {
          "indexed": false,
          "internalType": "uint256",
          "name": "tokenId",
          "type": "uint256"
        },
        {
          "indexed": false,
          "internalType": "uint256",
          "name": "price",
          "type": "uint256"
        }
      ],
      "name": "ItemListed",
      "type": "event"
    },
    {
      "anonymous": false,
      "inputs": [
        {
          "indexed": true,
          "internalType": "address",
          "name": "seller",
          "type": "address"
        },
        {
          "indexed": true,
          "internalType": "address",
          "name": "buyer",
          "type": "address"
        },
        {
          "indexed": true,
          "internalType": "address",
          "name": "nft",
          "type": "address"
        },
        {
          "indexed": false,
          "internalType": "uint256",
          "name": "tokenId",
          "type": "uint256"
        },
        {
          "indexed": false,
          "internalType": "uint256",
          "name": "price",
          "type": "uint256"
        }
      ],
      "name": "ItemSold",
      "type": "event"
    },
    {
      "anonymous": false,
      "inputs": [
        {
          "indexed": true,
          "internalType": "address",
          "name": "owner",
          "type": "address"
        },
        {
          "indexed": true,
          "internalType": "address",
          "name": "nft",
          "type": "address"
        },
        {
          "indexed": false,
          "internalType": "uint256",
          "name": "tokenId",
          "type": "uint256"
        },
        {
          "indexed": false,
          "internalType": "uint256",
          "name": "newPrice",
          "type": "uint256"
        }
      ],
      "name": "ItemUpdated",
      "type": "event"
    },
    {
      "anonymous": false,
      "inputs": [
        {
          "indexed": true,
          "internalType": "address",
          "name": "nft",
          "type": "address"
        },
        {
          "indexed": false,
          "internalType": "uint256",
          "name": "tokenId",
          "type": "uint256"
        },
        {
          "indexed": true,
          "internalType": "address",
          "name": "creator",
          "type": "address"
        }
      ],
      "name": "OfferAccepted",
      "type": "event"
    },
    {
      "anonymous": false,
      "inputs": [
        {
          "indexed": true,
          "internalType": "address",
          "name": "creator",
          "type": "address"
        },
        {
          "indexed": true,
          "internalType": "address",
          "name": "nft",
          "type": "address"
        },
        {
          "indexed": false,
          "internalType": "uint256",
          "name": "tokenId",
          "type": "uint256"
        },
        {
          "indexed": false,
          "internalType": "uint256",
          "name": "price",
          "type": "uint256"
        },
        {
          "indexed": false,
          "internalType": "uint256",
          "name": "deadline",
          "type": "uint256"
        }
      ],
      "name": "OfferCreated",
      "type": "event"
    },
    {
      "anonymous": false,
      "inputs": [
        {
          "indexed": true,
          "internalType": "address",
          "name": "previousOwner",
          "type": "address"
        },
        {
          "indexed": true,
          "internalType": "address",
          "name": "newOwner",
          "type": "address"
        }
      ],
      "name": "OwnershipTransferred",
      "type": "event"
    },
    {
      "anonymous": false,
      "inputs": [
        {
          "indexed": false,
          "internalType": "uint16",
          "name": "platformFee",
          "type": "uint16"
        }
      ],
      "name": "UpdatePlatformFee",
      "type": "event"
    },
    {
      "anonymous": false,
      "inputs": [
        {
          "indexed": false,
          "internalType": "address payable",
          "name": "platformFeeRecipient",
          "type": "address"
        }
      ],
      "name": "UpdatePlatformFeeRecipient",
      "type": "event"
    },
    {
      "inputs": [
        {
          "internalType": "address",
          "name": "_nftAddress",
          "type": "address"
        },
        {
          "internalType": "uint256",
          "name": "_tokenId",
          "type": "uint256"
        },
        {
          "internalType": "address",
          "name": "_creator",
          "type": "address"
        }
      ],
      "name": "acceptOffer",
      "outputs": [],
      "stateMutability": "nonpayable",
      "type": "function"
    },
    {
      "inputs": [
        {
          "internalType": "address",
          "name": "_nftAddress",
          "type": "address"
        },
        {
          "internalType": "uint256",
          "name": "_tokenId",
          "type": "uint256"
        },
        {
          "internalType": "address",
          "name": "_owner",
          "type": "address"
        }
      ],
      "name": "buyItem",
      "outputs": [],
      "stateMutability": "payable",
      "type": "function"
    },
    {
      "inputs": [
        {
          "internalType": "address",
          "name": "_nftAddress",
          "type": "address"
        },
        {
          "internalType": "uint256",
          "name": "_tokenId",
          "type": "uint256"
        }
      ],
      "name": "cancelListing",
      "outputs": [],
      "stateMutability": "nonpayable",
      "type": "function"
    },
    {
      "inputs": [
        {
          "internalType": "address",
          "name": "",
          "type": "address"
        }
      ],
      "name": "collectionRoyalties",
      "outputs": [
        {
          "internalType": "uint16",
          "name": "royalty",
          "type": "uint16"
        },
        {
          "internalType": "uint256",
          "name": "royaltyBalance",
          "type": "uint256"
        }
      ],
      "stateMutability": "view",
      "type": "function"
    },
    {
      "inputs": [
        {
          "internalType": "address",
          "name": "_nftAddress",
          "type": "address"
        },
        {
          "internalType": "uint256",
          "name": "_tokenId",
          "type": "uint256"
        },
        {
          "internalType": "uint256",
          "name": "_deadline",
          "type": "uint256"
        }
      ],
      "name": "createOffer",
      "outputs": [],
      "stateMutability": "payable",
      "type": "function"
    },
    {
      "inputs": [],
      "name": "feeReceipient",
      "outputs": [
        {
          "internalType": "address payable",
          "name": "",
          "type": "address"
        }
      ],
      "stateMutability": "view",
      "type": "function"
    },
    {
      "inputs": [
        {
          "internalType": "uint256",
          "name": "moment",
          "type": "uint256"
        }
      ],
      "name": "getArtongBalance",
      "outputs": [
        {
          "internalType": "uint256",
          "name": "",
          "type": "uint256"
        }
      ],
      "stateMutability": "view",
      "type": "function"
    },
    {
      "inputs": [
        {
          "internalType": "uint16",
          "name": "_platformFee",
          "type": "uint16"
        },
        {
          "internalType": "address payable",
          "name": "_feeRecipient",
          "type": "address"
        }
      ],
      "name": "initialize",
      "outputs": [],
      "stateMutability": "nonpayable",
      "type": "function"
    },
    {
      "inputs": [
        {
          "internalType": "address",
          "name": "_nftAddress",
          "type": "address"
        },
        {
          "internalType": "uint256",
          "name": "_tokenId",
          "type": "uint256"
        },
        {
          "internalType": "uint256",
          "name": "_price",
          "type": "uint256"
        }
      ],
      "name": "listItem",
      "outputs": [],
      "stateMutability": "nonpayable",
      "type": "function"
    },
    {
      "inputs": [
        {
          "internalType": "address",
          "name": "",
          "type": "address"
        },
        {
          "internalType": "uint256",
          "name": "",
          "type": "uint256"
        }
      ],
      "name": "listingPrices",
      "outputs": [
        {
          "internalType": "uint256",
          "name": "",
          "type": "uint256"
        }
      ],
      "stateMutability": "view",
      "type": "function"
    },
    {
      "inputs": [
        {
          "internalType": "address",
          "name": "",
          "type": "address"
        },
        {
          "internalType": "uint256",
          "name": "",
          "type": "uint256"
        },
        {
          "internalType": "address",
          "name": "",
          "type": "address"
        }
      ],
      "name": "offers",
      "outputs": [
        {
          "internalType": "uint256",
          "name": "price",
          "type": "uint256"
        },
        {
          "internalType": "uint256",
          "name": "deadline",
          "type": "uint256"
        }
      ],
      "stateMutability": "view",
      "type": "function"
    },
    {
      "inputs": [],
      "name": "owner",
      "outputs": [
        {
          "internalType": "address",
          "name": "",
          "type": "address"
        }
      ],
      "stateMutability": "view",
      "type": "function"
    },
    {
      "inputs": [],
      "name": "platformFee",
      "outputs": [
        {
          "internalType": "uint16",
          "name": "",
          "type": "uint16"
        }
      ],
      "stateMutability": "view",
      "type": "function"
    },
    {
      "inputs": [],
      "name": "renounceOwnership",
      "outputs": [],
      "stateMutability": "nonpayable",
      "type": "function"
    },
    {
      "inputs": [
        {
          "internalType": "address",
          "name": "",
          "type": "address"
        }
      ],
      "name": "tokenRoyalties",
      "outputs": [
        {
          "internalType": "uint16",
          "name": "",
          "type": "uint16"
        }
      ],
      "stateMutability": "view",
      "type": "function"
    },
    {
      "inputs": [
        {
          "internalType": "address",
          "name": "newOwner",
          "type": "address"
        }
      ],
      "name": "transferOwnership",
      "outputs": [],
      "stateMutability": "nonpayable",
      "type": "function"
    },
    {
      "inputs": [
        {
          "internalType": "address",
          "name": "_nftAddress",
          "type": "address"
        },
        {
          "internalType": "uint256",
          "name": "_tokenId",
          "type": "uint256"
        },
        {
          "internalType": "uint256",
          "name": "_newPrice",
          "type": "uint256"
        }
      ],
      "name": "updateListing",
      "outputs": [],
      "stateMutability": "nonpayable",
      "type": "function"
    },
    {
      "inputs": [
        {
          "internalType": "address",
          "name": "",
          "type": "address"
        },
        {
          "internalType": "uint256",
          "name": "",
          "type": "uint256"
        }
      ],
      "name": "userOffers",
      "outputs": [
        {
          "internalType": "uint256",
          "name": "price",
          "type": "uint256"
        },
        {
          "internalType": "uint256",
          "name": "deadline",
          "type": "uint256"
        }
      ],
      "stateMutability": "view",
      "type": "function"
    },
    {
      "inputs": [],
      "name": "withdraw",
      "outputs": [],
      "stateMutability": "nonpayable",
      "type": "function"
    }
  ],
  "bytecode": "0x608060405234801561001057600080fd5b506139b2806100206000396000f3fe6080604052600436106101145760003560e01c80638da5cb5b116100a0578063c3c3b2a411610064578063c3c3b2a414610371578063d3f494cc146103ae578063e0dbcde5146103ec578063f2fde38b14610415578063f772adf11461043e57610114565b80638da5cb5b14610265578063ac43e89014610290578063b2ddee06146102cd578063b876d9d0146102f6578063bd5fec651461033357610114565b80633bbb2806116100e75780633bbb2806146101a75780633ccfd60b146101d057806357b275b4146101e7578063715018a61461022557806389bfd38f1461023c57610114565b80631c6c712814610119578063259ca3651461013557806326232a2e146101515780633740ebb31461017c575b600080fd5b610133600480360381019061012e919061297c565b610467565b005b61014f600480360381019061014a91906129cf565b61095b565b005b34801561015d57600080fd5b50610166610ad6565b6040516101739190612a3f565b60405180910390f35b34801561018857600080fd5b50610191610aea565b60405161019e9190612a7b565b60405180910390f35b3480156101b357600080fd5b506101ce60048036038101906101c991906129cf565b610b10565b005b3480156101dc57600080fd5b506101e5610ec5565b005b3480156101f357600080fd5b5061020e60048036038101906102099190612a96565b611064565b60405161021c929190612ad2565b60405180910390f35b34801561023157600080fd5b5061023a611096565b005b34801561024857600080fd5b50610263600480360381019061025e919061297c565b6110aa565b005b34801561027157600080fd5b5061027a61141e565b6040516102879190612b0a565b60405180910390f35b34801561029c57600080fd5b506102b760048036038101906102b29190612b25565b611448565b6040516102c49190612b65565b60405180910390f35b3480156102d957600080fd5b506102f460048036038101906102ef9190612b25565b61146d565b005b34801561030257600080fd5b5061031d60048036038101906103189190612b80565b61157c565b60405161032a9190612b65565b60405180910390f35b34801561033f57600080fd5b5061035a60048036038101906103559190612b25565b6115b3565b604051610368929190612bad565b60405180910390f35b34801561037d57600080fd5b5061039860048036038101906103939190612a96565b6115f4565b6040516103a59190612a3f565b60405180910390f35b3480156103ba57600080fd5b506103d560048036038101906103d091906129cf565b611615565b6040516103e3929190612bad565b60405180910390f35b3480156103f857600080fd5b50610413600480360381019061040e9190612c2e565b611653565b005b34801561042157600080fd5b5061043c60048036038101906104379190612a96565b6117f9565b005b34801561044a57600080fd5b506104656004803603810190610460919061297c565b61187d565b005b8282336000609960008573ffffffffffffffffffffffffffffffffffffffff1673ffffffffffffffffffffffffffffffffffffffff168152602001908152602001600020600084815260200190815260200160002060008373ffffffffffffffffffffffffffffffffffffffff1673ffffffffffffffffffffffffffffffffffffffff1681526020019081526020016000206040518060400160405290816000820154815260200160018201548152505090506000816000015114806105385750610530611a3e565b816020015111155b610577576040517f08c379a000000000000000000000000000000000000000000000000000000000815260040161056e90612ccb565b60405180910390fd5b66038d7ea4c6800034116105c0576040517f08c379a00000000000000000000000000000000000000000000000000000000081526004016105b790612d37565b60405180910390fd5b6105c987611a46565b610608576040517f08c379a00000000000000000000000000000000000000000000000000000000081526004016105ff90612da3565b60405180910390fd5b60008790508073ffffffffffffffffffffffffffffffffffffffff16636352211e886040518263ffffffff1660e01b81526004016106469190612b65565b60206040518083038186803b15801561065e57600080fd5b505afa158015610672573d6000803e3d6000fd5b505050506040513d601f19601f820116820180604052508101906106969190612dd8565b73ffffffffffffffffffffffffffffffffffffffff163373ffffffffffffffffffffffffffffffffffffffff161415610704576040517f08c379a00000000000000000000000000000000000000000000000000000000081526004016106fb90612e51565b60405180910390fd5b600086141561072a5762015180610719611a3e565b6107239190612ea0565b9550610743565b62015180610736611a3e565b6107409190612ed4565b95505b604051806040016040528034815260200187815250609960008a73ffffffffffffffffffffffffffffffffffffffff1673ffffffffffffffffffffffffffffffffffffffff168152602001908152602001600020600089815260200190815260200160002060003373ffffffffffffffffffffffffffffffffffffffff1673ffffffffffffffffffffffffffffffffffffffff1681526020019081526020016000206000820151816000015560208201518160010155905050609a60003373ffffffffffffffffffffffffffffffffffffffff1673ffffffffffffffffffffffffffffffffffffffff16815260200190815260200160002060405180604001604052803481526020018881525090806001815401808255809150506001900390600052602060002090600202016000909190919091506000820151816000015560208201518160010155505034609d60003373ffffffffffffffffffffffffffffffffffffffff1673ffffffffffffffffffffffffffffffffffffffff16815260200190815260200160002060000160008282546108e19190612ed4565b925050819055508773ffffffffffffffffffffffffffffffffffffffff163373ffffffffffffffffffffffffffffffffffffffff167f0c2598f084a085d4d27e8638b4306b07c633b1e724b3d27fc0af68714fe5402889348a60405161094993929190612f2a565b60405180910390a35050505050505050565b600260655414156109a1576040517f08c379a000000000000000000000000000000000000000000000000000000000815260040161099890612fad565b60405180910390fd5b60026065819055508282826000609860008573ffffffffffffffffffffffffffffffffffffffff1673ffffffffffffffffffffffffffffffffffffffff168152602001908152602001600020600084815260200190815260200160002054905060008111610a44576040517f08c379a0000000000000000000000000000000000000000000000000000000008152600401610a3b90613019565b60405180910390fd5b610a4f878787611af8565b6000609860008973ffffffffffffffffffffffffffffffffffffffff1673ffffffffffffffffffffffffffffffffffffffff1681526020019081526020016000206000888152602001908152602001600020549050600086905060003390506000349050610ac18b8b85858886611c47565b50505050505050506001606581905550505050565b609760009054906101000a900461ffff1681565b609760029054906101000a900473ffffffffffffffffffffffffffffffffffffffff1681565b60026065541415610b56576040517f08c379a0000000000000000000000000000000000000000000000000000000008152600401610b4d90612fad565b60405180910390fd5b60026065819055508282826000609960008573ffffffffffffffffffffffffffffffffffffffff1673ffffffffffffffffffffffffffffffffffffffff168152602001908152602001600020600084815260200190815260200160002060008373ffffffffffffffffffffffffffffffffffffffff1673ffffffffffffffffffffffffffffffffffffffff16815260200190815260200160002060405180604001604052908160008201548152602001600182015481525050905060008160000151118015610c2f5750610c28611a3e565b8160200151115b610c6e576040517f08c379a0000000000000000000000000000000000000000000000000000000008152600401610c6590613085565b60405180910390fd5b610c79878733611af8565b6000609960008973ffffffffffffffffffffffffffffffffffffffff1673ffffffffffffffffffffffffffffffffffffffff168152602001908152602001600020600088815260200190815260200160002060008773ffffffffffffffffffffffffffffffffffffffff1673ffffffffffffffffffffffffffffffffffffffff1681526020019081526020016000206040518060400160405290816000820154815260200160018201548152505090506000610d33611a3e565b90506000610d4182896121cc565b90508260000151811015610d8a576040517f08c379a0000000000000000000000000000000000000000000000000000000008152600401610d81906130f1565b60405180910390fd5b60003390506000899050610daa8c8c848489600001518a60000151611c47565b8973ffffffffffffffffffffffffffffffffffffffff168c73ffffffffffffffffffffffffffffffffffffffff167f1911131efc06f8b35ef19454a244416c23f0cffd91e74ec4d1656a64ec363afe8d604051610e079190612b65565b60405180910390a3609960008d73ffffffffffffffffffffffffffffffffffffffff1673ffffffffffffffffffffffffffffffffffffffff16815260200190815260200160002060008c815260200190815260200160002060008b73ffffffffffffffffffffffffffffffffffffffff1673ffffffffffffffffffffffffffffffffffffffff168152602001908152602001600020600080820160009055600182016000905550505050505050505050506001606581905550505050565b6000610ecf611a3e565b90506000610edc8261157c565b90506000811415610f22576040517f08c379a0000000000000000000000000000000000000000000000000000000008152600401610f199061315d565b60405180910390fd5b80471015610f65576040517f08c379a0000000000000000000000000000000000000000000000000000000008152600401610f5c906131c9565b60405180910390fd5b6000609d60003373ffffffffffffffffffffffffffffffffffffffff1673ffffffffffffffffffffffffffffffffffffffff16815260200190815260200160002060405180606001604052908160008201548152602001600182015481526020016002820154815250509050610fdb83336121cc565b8160000151610fea9190612ea0565b81600001818152505060008160200181815250506000816040018181525050611012836122f9565b60003390508073ffffffffffffffffffffffffffffffffffffffff166108fc849081150290604051600060405180830381858888f1935050505015801561105d573d6000803e3d6000fd5b5050505050565b609b6020528060005260406000206000915090508060000160009054906101000a900461ffff16908060010154905082565b61109e612433565b6110a860006124b1565b565b8282336000609860008573ffffffffffffffffffffffffffffffffffffffff1673ffffffffffffffffffffffffffffffffffffffff168152602001908152602001600020600084815260200190815260200160002054905060008114611145576040517f08c379a000000000000000000000000000000000000000000000000000000000815260040161113c90613235565b60405180910390fd5b61114e87611a46565b1561131e5760008790503373ffffffffffffffffffffffffffffffffffffffff168173ffffffffffffffffffffffffffffffffffffffff16636352211e896040518263ffffffff1660e01b81526004016111a89190612b65565b60206040518083038186803b1580156111c057600080fd5b505afa1580156111d4573d6000803e3d6000fd5b505050506040513d601f19601f820116820180604052508101906111f89190612dd8565b73ffffffffffffffffffffffffffffffffffffffff161461124e576040517f08c379a0000000000000000000000000000000000000000000000000000000008152600401611245906132a1565b60405180910390fd5b8073ffffffffffffffffffffffffffffffffffffffff1663e985e9c533306040518363ffffffff1660e01b81526004016112899291906132c1565b60206040518083038186803b1580156112a157600080fd5b505afa1580156112b5573d6000803e3d6000fd5b505050506040513d601f19601f820116820180604052508101906112d99190613322565b611318576040517f08c379a000000000000000000000000000000000000000000000000000000000815260040161130f906133c1565b60405180910390fd5b50611359565b6040517f08c379a000000000000000000000000000000000000000000000000000000000815260040161135090612da3565b60405180910390fd5b84609860008973ffffffffffffffffffffffffffffffffffffffff1673ffffffffffffffffffffffffffffffffffffffff1681526020019081526020016000206000888152602001908152602001600020819055508673ffffffffffffffffffffffffffffffffffffffff163373ffffffffffffffffffffffffffffffffffffffff167fd547e933094f12a9159076970143ebe73234e64480317844b0dcb36117116de4888860405161140d929190612bad565b60405180910390a350505050505050565b6000603360009054906101000a900473ffffffffffffffffffffffffffffffffffffffff16905090565b6098602052816000526040600020602052806000526040600020600091509150505481565b600260655414156114b3576040517f08c379a00000000000000000000000000000000000000000000000000000000081526004016114aa90612fad565b60405180910390fd5b60026065819055508181336000609860008573ffffffffffffffffffffffffffffffffffffffff1673ffffffffffffffffffffffffffffffffffffffff168152602001908152602001600020600084815260200190815260200160002054905060008111611556576040517f08c379a000000000000000000000000000000000000000000000000000000000815260040161154d90613019565b60405180910390fd5b611561868633611af8565b61156c868633612577565b5050505060016065819055505050565b6000611586612635565b61158e6126ad565b61159884336121cc565b6115a29190612ed4565b6115ac9190612ed4565b9050919050565b609a60205281600052604060002081815481106115cf57600080fd5b9060005260206000209060020201600091509150508060000154908060010154905082565b609c6020528060005260406000206000915054906101000a900461ffff1681565b609960205282600052604060002060205281600052604060002060205280600052604060002060009250925050508060000154908060010154905082565b60008060019054906101000a900460ff161590508080156116845750600160008054906101000a900460ff1660ff16105b806116b1575061169330612725565b1580156116b05750600160008054906101000a900460ff1660ff16145b5b6116f0576040517f08c379a00000000000000000000000000000000000000000000000000000000081526004016116e790613453565b60405180910390fd5b60016000806101000a81548160ff021916908360ff160217905550801561172d576001600060016101000a81548160ff0219169083151502179055505b82609760006101000a81548161ffff021916908361ffff16021790555081609760026101000a81548173ffffffffffffffffffffffffffffffffffffffff021916908373ffffffffffffffffffffffffffffffffffffffff160217905550611793612748565b61179b6127a1565b80156117f45760008060016101000a81548160ff0219169083151502179055507f7f26b83ff96e1f2b6a682f133852f6798a09c465da95921460cefb384740249860016040516117eb91906134c5565b60405180910390a15b505050565b611801612433565b600073ffffffffffffffffffffffffffffffffffffffff168173ffffffffffffffffffffffffffffffffffffffff161415611871576040517f08c379a000000000000000000000000000000000000000000000000000000000815260040161186890613552565b60405180910390fd5b61187a816124b1565b50565b600260655414156118c3576040517f08c379a00000000000000000000000000000000000000000000000000000000081526004016118ba90612fad565b60405180910390fd5b60026065819055508282336000609860008573ffffffffffffffffffffffffffffffffffffffff1673ffffffffffffffffffffffffffffffffffffffff168152602001908152602001600020600084815260200190815260200160002054905060008111611966576040517f08c379a000000000000000000000000000000000000000000000000000000000815260040161195d90613019565b60405180910390fd5b611971878733611af8565b84609860008973ffffffffffffffffffffffffffffffffffffffff1673ffffffffffffffffffffffffffffffffffffffff1681526020019081526020016000206000888152602001908152602001600020819055508673ffffffffffffffffffffffffffffffffffffffff163373ffffffffffffffffffffffffffffffffffffffff167f3c33e65e8698294810b631d476d60b44425303828da0b1f8b635231bfda12be28888604051611a25929190612bad565b60405180910390a3505050506001606581905550505050565b600042905090565b60008173ffffffffffffffffffffffffffffffffffffffff166301ffc9a77f80ac58cd000000000000000000000000000000000000000000000000000000006040518263ffffffff1660e01b8152600401611aa191906135ad565b60206040518083038186803b158015611ab957600080fd5b505afa158015611acd573d6000803e3d6000fd5b505050506040513d601f19601f82011682018060405250810190611af19190613322565b9050919050565b611b0183611a46565b15611c075760008390508073ffffffffffffffffffffffffffffffffffffffff16636352211e846040518263ffffffff1660e01b8152600401611b449190612b65565b60206040518083038186803b158015611b5c57600080fd5b505afa158015611b70573d6000803e3d6000fd5b505050506040513d601f19601f82011682018060405250810190611b949190612dd8565b73ffffffffffffffffffffffffffffffffffffffff168273ffffffffffffffffffffffffffffffffffffffff1614611c01576040517f08c379a0000000000000000000000000000000000000000000000000000000008152600401611bf8906132a1565b60405180910390fd5b50611c42565b6040517f08c379a0000000000000000000000000000000000000000000000000000000008152600401611c3990612da3565b60405180910390fd5b505050565b81811015611c8a576040517f08c379a0000000000000000000000000000000000000000000000000000000008152600401611c8190613614565b60405180910390fd5b6000611ca683609760009054906101000a900461ffff166127fa565b90506000609760029054906101000a900473ffffffffffffffffffffffffffffffffffffffff1673ffffffffffffffffffffffffffffffffffffffff1682604051611cf090613665565b60006040518083038185875af1925050503d8060008114611d2d576040519150601f19603f3d011682016040523d82523d6000602084013e611d32565b606091505b5050905080611d76576040517f08c379a0000000000000000000000000000000000000000000000000000000008152600401611d6d906136c6565b60405180910390fd5b6000609c60008873ffffffffffffffffffffffffffffffffffffffff1673ffffffffffffffffffffffffffffffffffffffff16815260200190815260200160002060009054906101000a900461ffff16905060008161ffff1614611e4b576000611de086836127fa565b905080609d60008a73ffffffffffffffffffffffffffffffffffffffff1673ffffffffffffffffffffffffffffffffffffffff1681526020019081526020016000206001016000828254611e349190612ed4565b925050819055508084611e479190612ed4565b9350505b6000609b60008b73ffffffffffffffffffffffffffffffffffffffff1673ffffffffffffffffffffffffffffffffffffffff1681526020019081526020016000206040518060400160405290816000820160009054906101000a900461ffff1661ffff1661ffff16815260200160018201548152505090506000816000015161ffff1614611f0e576000611ee38783600001516127fa565b90508082602001818151611ef79190612ed4565b915081815250508085611f0a9190612ed4565b9450505b8973ffffffffffffffffffffffffffffffffffffffff1663da9657788588611f369190612ea0565b8a6040518363ffffffff1660e01b8152600401611f539190612b0a565b6000604051808303818588803b158015611f6c57600080fd5b505af1158015611f80573d6000803e3d6000fd5b5050505050611f8e8a611a46565b15612003578973ffffffffffffffffffffffffffffffffffffffff166342842e0e89898c6040518463ffffffff1660e01b8152600401611fd0939291906136e6565b600060405180830381600087803b158015611fea57600080fd5b505af1158015611ffe573d6000803e3d6000fd5b505050505b858511156120ee5760008773ffffffffffffffffffffffffffffffffffffffff1687876120309190612ea0565b60405161203c90613665565b60006040518083038185875af1925050503d8060008114612079576040519150601f19603f3d011682016040523d82523d6000602084013e61207e565b606091505b50509050806120ec5786866120939190612ea0565b609d60008a73ffffffffffffffffffffffffffffffffffffffff1673ffffffffffffffffffffffffffffffffffffffff16815260200190815260200160002060020160008282546120e49190612ed4565b925050819055505b505b8973ffffffffffffffffffffffffffffffffffffffff168773ffffffffffffffffffffffffffffffffffffffff168973ffffffffffffffffffffffffffffffffffffffff167fee0ddd6454e05c1b33a8dfcb6cc52418d28020e96e21228bb601f5dbb6790cd08c8a604051612164929190612bad565b60405180910390a4609860008b73ffffffffffffffffffffffffffffffffffffffff1673ffffffffffffffffffffffffffffffffffffffff16815260200190815260200160002060008a81526020019081526020016000206000905550505050505050505050565b600080609a60008473ffffffffffffffffffffffffffffffffffffffff1673ffffffffffffffffffffffffffffffffffffffff168152602001908152602001600020805480602002602001604051908101604052809291908181526020016000905b828210156122745783829060005260206000209060020201604051806040016040529081600082015481526020016001820154815250508152602001906001019061222e565b5050505090506000805b82518110156122ed578583828151811061229b5761229a61371d565b5b60200260200101516020015111156122da578281815181106122c0576122bf61371d565b5b602002602001015160000151826122d79190612ed4565b91505b80806122e59061374c565b91505061227e565b50809250505092915050565b6000609a60003373ffffffffffffffffffffffffffffffffffffffff1673ffffffffffffffffffffffffffffffffffffffff168152602001908152602001600020905060005b818054905081101561242e578282828154811061235f5761235e61371d565b5b906000526020600020906002020160010154101561241b5781600183805490506123899190612ea0565b8154811061239a5761239961371d565b5b90600052602060002090600202018282815481106123bb576123ba61371d565b5b90600052602060002090600202016000820154816000015560018201548160010155905050818054806123f1576123f0613795565b5b60019003818190600052602060002090600202016000808201600090556001820160009055505090555b80806124269061374c565b91505061233f565b505050565b61243b612821565b73ffffffffffffffffffffffffffffffffffffffff1661245961141e565b73ffffffffffffffffffffffffffffffffffffffff16146124af576040517f08c379a00000000000000000000000000000000000000000000000000000000081526004016124a690613810565b60405180910390fd5b565b6000603360009054906101000a900473ffffffffffffffffffffffffffffffffffffffff16905081603360006101000a81548173ffffffffffffffffffffffffffffffffffffffff021916908373ffffffffffffffffffffffffffffffffffffffff1602179055508173ffffffffffffffffffffffffffffffffffffffff168173ffffffffffffffffffffffffffffffffffffffff167f8be0079c531659141344cd1fd0a4f28419497f9722a3daafe3b4186f6b6457e060405160405180910390a35050565b609860008473ffffffffffffffffffffffffffffffffffffffff1673ffffffffffffffffffffffffffffffffffffffff1681526020019081526020016000206000838152602001908152602001600020600090558273ffffffffffffffffffffffffffffffffffffffff168173ffffffffffffffffffffffffffffffffffffffff167f9ba1a3cb55ce8d63d072a886f94d2a744f50cddf82128e897d0661f5ec623158846040516126289190612b65565b60405180910390a3505050565b600080609d60003373ffffffffffffffffffffffffffffffffffffffff1673ffffffffffffffffffffffffffffffffffffffff16815260200190815260200160002060405180606001604052908160008201548152602001600182015481526020016002820154815250509050806040015191505090565b600080609d60003373ffffffffffffffffffffffffffffffffffffffff1673ffffffffffffffffffffffffffffffffffffffff16815260200190815260200160002060405180606001604052908160008201548152602001600182015481526020016002820154815250509050806020015191505090565b6000808273ffffffffffffffffffffffffffffffffffffffff163b119050919050565b600060019054906101000a900460ff16612797576040517f08c379a000000000000000000000000000000000000000000000000000000000815260040161278e906138a2565b60405180910390fd5b61279f612829565b565b600060019054906101000a900460ff166127f0576040517f08c379a00000000000000000000000000000000000000000000000000000000081526004016127e7906138a2565b60405180910390fd5b6127f861288a565b565b60006127108261ffff168461280f91906138c2565b612819919061394b565b905092915050565b600033905090565b600060019054906101000a900460ff16612878576040517f08c379a000000000000000000000000000000000000000000000000000000000815260040161286f906138a2565b60405180910390fd5b612888612883612821565b6124b1565b565b600060019054906101000a900460ff166128d9576040517f08c379a00000000000000000000000000000000000000000000000000000000081526004016128d0906138a2565b60405180910390fd5b6001606581905550565b600080fd5b600073ffffffffffffffffffffffffffffffffffffffff82169050919050565b6000612913826128e8565b9050919050565b61292381612908565b811461292e57600080fd5b50565b6000813590506129408161291a565b92915050565b6000819050919050565b61295981612946565b811461296457600080fd5b50565b60008135905061297681612950565b92915050565b600080600060608486031215612995576129946128e3565b5b60006129a386828701612931565b93505060206129b486828701612967565b92505060406129c586828701612967565b9150509250925092565b6000806000606084860312156129e8576129e76128e3565b5b60006129f686828701612931565b9350506020612a0786828701612967565b9250506040612a1886828701612931565b9150509250925092565b600061ffff82169050919050565b612a3981612a22565b82525050565b6000602082019050612a546000830184612a30565b92915050565b6000612a65826128e8565b9050919050565b612a7581612a5a565b82525050565b6000602082019050612a906000830184612a6c565b92915050565b600060208284031215612aac57612aab6128e3565b5b6000612aba84828501612931565b91505092915050565b612acc81612946565b82525050565b6000604082019050612ae76000830185612a30565b612af46020830184612ac3565b9392505050565b612b0481612908565b82525050565b6000602082019050612b1f6000830184612afb565b92915050565b60008060408385031215612b3c57612b3b6128e3565b5b6000612b4a85828601612931565b9250506020612b5b85828601612967565b9150509250929050565b6000602082019050612b7a6000830184612ac3565b92915050565b600060208284031215612b9657612b956128e3565b5b6000612ba484828501612967565b91505092915050565b6000604082019050612bc26000830185612ac3565b612bcf6020830184612ac3565b9392505050565b612bdf81612a22565b8114612bea57600080fd5b50565b600081359050612bfc81612bd6565b92915050565b612c0b81612a5a565b8114612c1657600080fd5b50565b600081359050612c2881612c02565b92915050565b60008060408385031215612c4557612c446128e3565b5b6000612c5385828601612bed565b9250506020612c6485828601612c19565b9150509250929050565b600082825260208201905092915050565b7f6f6666657220616c726561647920637265617465640000000000000000000000600082015250565b6000612cb5601583612c6e565b9150612cc082612c7f565b602082019050919050565b60006020820190508181036000830152612ce481612ca8565b9050919050565b7f6f6666657220616d6f756e7420746f6f20736d616c6c00000000000000000000600082015250565b6000612d21601683612c6e565b9150612d2c82612ceb565b602082019050919050565b60006020820190508181036000830152612d5081612d14565b9050919050565b7f696e76616c6964206e6674206164647265737300000000000000000000000000600082015250565b6000612d8d601383612c6e565b9150612d9882612d57565b602082019050919050565b60006020820190508181036000830152612dbc81612d80565b9050919050565b600081519050612dd28161291a565b92915050565b600060208284031215612dee57612ded6128e3565b5b6000612dfc84828501612dc3565b91505092915050565b7f63616e6e6f742073656c66206f66666572000000000000000000000000000000600082015250565b6000612e3b601183612c6e565b9150612e4682612e05565b602082019050919050565b60006020820190508181036000830152612e6a81612e2e565b9050919050565b7f4e487b7100000000000000000000000000000000000000000000000000000000600052601160045260246000fd5b6000612eab82612946565b9150612eb683612946565b925082821015612ec957612ec8612e71565b5b828203905092915050565b6000612edf82612946565b9150612eea83612946565b9250827fffffffffffffffffffffffffffffffffffffffffffffffffffffffffffffffff03821115612f1f57612f1e612e71565b5b828201905092915050565b6000606082019050612f3f6000830186612ac3565b612f4c6020830185612ac3565b612f596040830184612ac3565b949350505050565b7f5265656e7472616e637947756172643a207265656e7472616e742063616c6c00600082015250565b6000612f97601f83612c6e565b9150612fa282612f61565b602082019050919050565b60006020820190508181036000830152612fc681612f8a565b9050919050565b7f6e6f74206c6973746564206974656d0000000000000000000000000000000000600082015250565b6000613003600f83612c6e565b915061300e82612fcd565b602082019050919050565b6000602082019050818103600083015261303281612ff6565b9050919050565b7f6f66666572206e6f7420657869737473206f7220657870697265640000000000600082015250565b600061306f601b83612c6e565b915061307a82613039565b602082019050919050565b6000602082019050818103600083015261309e81613062565b9050919050565b7f62616c616e6365206e6f7420656e6f75676820746f20627579206974656d0000600082015250565b60006130db601e83612c6e565b91506130e6826130a5565b602082019050919050565b6000602082019050818103600083015261310a816130ce565b9050919050565b7f6e6f7468696e6720746f20776974686472617700000000000000000000000000600082015250565b6000613147601383612c6e565b915061315282613111565b602082019050919050565b600060208201905081810360008301526131768161313a565b9050919050565b7f62616c616e6365206e6f7420656e6f75676820746f2077697468647261770000600082015250565b60006131b3601e83612c6e565b91506131be8261317d565b602082019050919050565b600060208201905081810360008301526131e2816131a6565b9050919050565b7f616c7265616479206c6973746564000000000000000000000000000000000000600082015250565b600061321f600e83612c6e565b915061322a826131e9565b602082019050919050565b6000602082019050818103600083015261324e81613212565b9050919050565b7f6e6f74206f776e696e67206974656d0000000000000000000000000000000000600082015250565b600061328b600f83612c6e565b915061329682613255565b602082019050919050565b600060208201905081810360008301526132ba8161327e565b9050919050565b60006040820190506132d66000830185612afb565b6132e36020830184612afb565b9392505050565b60008115159050919050565b6132ff816132ea565b811461330a57600080fd5b50565b60008151905061331c816132f6565b92915050565b600060208284031215613338576133376128e3565b5b60006133468482850161330d565b91505092915050565b7f6172746f6e67206e6f7420617070726f76656420666f7220746869732069746560008201527f6d00000000000000000000000000000000000000000000000000000000000000602082015250565b60006133ab602183612c6e565b91506133b68261334f565b604082019050919050565b600060208201905081810360008301526133da8161339e565b9050919050565b7f496e697469616c697a61626c653a20636f6e747261637420697320616c72656160008201527f647920696e697469616c697a6564000000000000000000000000000000000000602082015250565b600061343d602e83612c6e565b9150613448826133e1565b604082019050919050565b6000602082019050818103600083015261346c81613430565b9050919050565b6000819050919050565b600060ff82169050919050565b6000819050919050565b60006134af6134aa6134a584613473565b61348a565b61347d565b9050919050565b6134bf81613494565b82525050565b60006020820190506134da60008301846134b6565b92915050565b7f4f776e61626c653a206e6577206f776e657220697320746865207a65726f206160008201527f6464726573730000000000000000000000000000000000000000000000000000602082015250565b600061353c602683612c6e565b9150613547826134e0565b604082019050919050565b6000602082019050818103600083015261356b8161352f565b9050919050565b60007fffffffff0000000000000000000000000000000000000000000000000000000082169050919050565b6135a781613572565b82525050565b60006020820190506135c2600083018461359e565b92915050565b7f7061796d656e7420616d6f756e74206e6f7420656e6f75676800000000000000600082015250565b60006135fe601983612c6e565b9150613609826135c8565b602082019050919050565b6000602082019050818103600083015261362d816135f1565b9050919050565b600081905092915050565b50565b600061364f600083613634565b915061365a8261363f565b600082019050919050565b600061367082613642565b9150819050919050565b7f466565207472616e73666572206661696c656400000000000000000000000000600082015250565b60006136b0601383612c6e565b91506136bb8261367a565b602082019050919050565b600060208201905081810360008301526136df816136a3565b9050919050565b60006060820190506136fb6000830186612afb565b6137086020830185612afb565b6137156040830184612ac3565b949350505050565b7f4e487b7100000000000000000000000000000000000000000000000000000000600052603260045260246000fd5b600061375782612946565b91507fffffffffffffffffffffffffffffffffffffffffffffffffffffffffffffffff82141561378a57613789612e71565b5b600182019050919050565b7f4e487b7100000000000000000000000000000000000000000000000000000000600052603160045260246000fd5b7f4f776e61626c653a2063616c6c6572206973206e6f7420746865206f776e6572600082015250565b60006137fa602083612c6e565b9150613805826137c4565b602082019050919050565b60006020820190508181036000830152613829816137ed565b9050919050565b7f496e697469616c697a61626c653a20636f6e7472616374206973206e6f74206960008201527f6e697469616c697a696e67000000000000000000000000000000000000000000602082015250565b600061388c602b83612c6e565b915061389782613830565b604082019050919050565b600060208201905081810360008301526138bb8161387f565b9050919050565b60006138cd82612946565b91506138d883612946565b9250817fffffffffffffffffffffffffffffffffffffffffffffffffffffffffffffffff048311821515161561391157613910612e71565b5b828202905092915050565b7f4e487b7100000000000000000000000000000000000000000000000000000000600052601260045260246000fd5b600061395682612946565b915061396183612946565b9250826139715761397061391c565b5b82820490509291505056fea2646970667358221220edc049b5db9f6d249c223e4b02aaa560f0821a94bbd43546cec322fe297443f264736f6c63430008090033",
  "linkReferences": {},
  "deployedLinkReferences": {}
}