{
  "_format": "hh-sol-artifact-1",
  "contractName": "ArtongMarketplace",
  "sourceName": "contracts/ArtongMarketplace.sol",
  "abi": [
    {
      "anonymous": false,
      "inputs": [
        {
          "indexed": false,
          "internalType": "uint8",
          "name": "version",
          "type": "uint8"
        }
      ],
      "name": "Initialized",
      "type": "event"
    },
    {
      "anonymous": false,
      "inputs": [
        {
          "indexed": true,
          "internalType": "address",
          "name": "owner",
          "type": "address"
        },
        {
          "indexed": true,
          "internalType": "address",
          "name": "nft",
          "type": "address"
        },
        {
          "indexed": false,
          "internalType": "uint256",
          "name": "tokenId",
          "type": "uint256"
        }
      ],
      "name": "ItemCanceled",
      "type": "event"
    },
    {
      "anonymous": false,
      "inputs": [
        {
          "indexed": true,
          "internalType": "address",
          "name": "owner",
          "type": "address"
        },
        {
          "indexed": true,
          "internalType": "address",
          "name": "nft",
          "type": "address"
        },
        {
          "indexed": false,
          "internalType": "uint256",
          "name": "tokenId",
          "type": "uint256"
        },
        {
          "indexed": false,
          "internalType": "uint256",
          "name": "price",
          "type": "uint256"
        }
      ],
      "name": "ItemListed",
      "type": "event"
    },
    {
      "anonymous": false,
      "inputs": [
        {
          "indexed": true,
          "internalType": "address",
          "name": "seller",
          "type": "address"
        },
        {
          "indexed": true,
          "internalType": "address",
          "name": "buyer",
          "type": "address"
        },
        {
          "indexed": true,
          "internalType": "address",
          "name": "nft",
          "type": "address"
        },
        {
          "indexed": false,
          "internalType": "uint256",
          "name": "tokenId",
          "type": "uint256"
        },
        {
          "indexed": false,
          "internalType": "uint256",
          "name": "price",
          "type": "uint256"
        }
      ],
      "name": "ItemSold",
      "type": "event"
    },
    {
      "anonymous": false,
      "inputs": [
        {
          "indexed": true,
          "internalType": "address",
          "name": "owner",
          "type": "address"
        },
        {
          "indexed": true,
          "internalType": "address",
          "name": "nft",
          "type": "address"
        },
        {
          "indexed": false,
          "internalType": "uint256",
          "name": "tokenId",
          "type": "uint256"
        },
        {
          "indexed": false,
          "internalType": "uint256",
          "name": "newPrice",
          "type": "uint256"
        }
      ],
      "name": "ItemUpdated",
      "type": "event"
    },
    {
      "anonymous": false,
      "inputs": [
        {
          "indexed": true,
          "internalType": "address",
          "name": "owner",
          "type": "address"
        },
        {
          "indexed": true,
          "internalType": "address",
          "name": "nft",
          "type": "address"
        },
        {
          "indexed": false,
          "internalType": "uint256",
          "name": "tokenId",
          "type": "uint256"
        },
        {
          "indexed": false,
          "internalType": "uint256",
          "name": "price",
          "type": "uint256"
        }
      ],
      "name": "ListedItemSold",
      "type": "event"
    },
    {
      "anonymous": false,
      "inputs": [
        {
          "indexed": false,
          "internalType": "uint256",
          "name": "offerId",
          "type": "uint256"
        },
        {
          "indexed": true,
          "internalType": "address",
          "name": "nft",
          "type": "address"
        },
        {
          "indexed": false,
          "internalType": "uint256",
          "name": "tokenId",
          "type": "uint256"
        },
        {
          "indexed": true,
          "internalType": "address",
          "name": "creator",
          "type": "address"
        }
      ],
      "name": "OfferAccepted",
      "type": "event"
    },
    {
      "anonymous": false,
      "inputs": [
        {
          "indexed": false,
          "internalType": "uint256",
          "name": "offerId",
          "type": "uint256"
        },
        {
          "indexed": true,
          "internalType": "address",
          "name": "creator",
          "type": "address"
        },
        {
          "indexed": true,
          "internalType": "address",
          "name": "nft",
          "type": "address"
        },
        {
          "indexed": false,
          "internalType": "uint256",
          "name": "tokenId",
          "type": "uint256"
        },
        {
          "indexed": false,
          "internalType": "uint256",
          "name": "price",
          "type": "uint256"
        },
        {
          "indexed": false,
          "internalType": "uint256",
          "name": "deadline",
          "type": "uint256"
        }
      ],
      "name": "OfferCreated",
      "type": "event"
    },
    {
      "anonymous": false,
      "inputs": [
        {
          "indexed": true,
          "internalType": "address",
          "name": "previousOwner",
          "type": "address"
        },
        {
          "indexed": true,
          "internalType": "address",
          "name": "newOwner",
          "type": "address"
        }
      ],
      "name": "OwnershipTransferred",
      "type": "event"
    },
    {
      "anonymous": false,
      "inputs": [
        {
          "indexed": true,
          "internalType": "address",
          "name": "sender",
          "type": "address"
        },
        {
          "indexed": false,
          "internalType": "uint256",
          "name": "amount",
          "type": "uint256"
        }
      ],
      "name": "Received",
      "type": "event"
    },
    {
      "anonymous": false,
      "inputs": [
        {
          "indexed": true,
          "internalType": "address",
          "name": "collectionOwner",
          "type": "address"
        },
        {
          "indexed": true,
          "internalType": "address",
          "name": "nft",
          "type": "address"
        },
        {
          "indexed": false,
          "internalType": "uint16",
          "name": "royalty",
          "type": "uint16"
        }
      ],
      "name": "UpdateCollectionRoyalty",
      "type": "event"
    },
    {
      "anonymous": false,
      "inputs": [
        {
          "indexed": false,
          "internalType": "uint16",
          "name": "platformFee",
          "type": "uint16"
        }
      ],
      "name": "UpdatePlatformFee",
      "type": "event"
    },
    {
      "anonymous": false,
      "inputs": [
        {
          "indexed": false,
          "internalType": "address payable",
          "name": "platformFeeRecipient",
          "type": "address"
        }
      ],
      "name": "UpdatePlatformFeeRecipient",
      "type": "event"
    },
    {
      "anonymous": false,
      "inputs": [
        {
          "indexed": true,
          "internalType": "address",
          "name": "tokenOwner",
          "type": "address"
        },
        {
          "indexed": false,
          "internalType": "uint16",
          "name": "royalty",
          "type": "uint16"
        }
      ],
      "name": "UpdateTokenRoyalty",
      "type": "event"
    },
    {
      "inputs": [
        {
          "internalType": "address",
          "name": "_nftAddress",
          "type": "address"
        },
        {
          "internalType": "uint256",
          "name": "_tokenId",
          "type": "uint256"
        },
        {
          "internalType": "address",
          "name": "_creator",
          "type": "address"
        }
      ],
      "name": "acceptOffer",
      "outputs": [],
      "stateMutability": "nonpayable",
      "type": "function"
    },
    {
      "inputs": [
        {
          "internalType": "address",
          "name": "_nftAddress",
          "type": "address"
        },
        {
          "internalType": "uint256",
          "name": "_tokenId",
          "type": "uint256"
        },
        {
          "internalType": "address",
          "name": "_owner",
          "type": "address"
        }
      ],
      "name": "buyItem",
      "outputs": [],
      "stateMutability": "payable",
      "type": "function"
    },
    {
      "inputs": [
        {
          "internalType": "address",
          "name": "_nftAddress",
          "type": "address"
        },
        {
          "internalType": "uint256",
          "name": "_tokenId",
          "type": "uint256"
        }
      ],
      "name": "cancelListing",
      "outputs": [],
      "stateMutability": "nonpayable",
      "type": "function"
    },
    {
      "inputs": [
        {
          "internalType": "address",
          "name": "_nftAddress",
          "type": "address"
        },
        {
          "internalType": "uint256",
          "name": "_tokenId",
          "type": "uint256"
        },
        {
          "internalType": "uint256",
          "name": "_deadline",
          "type": "uint256"
        }
      ],
      "name": "createOffer",
      "outputs": [],
      "stateMutability": "payable",
      "type": "function"
    },
    {
      "inputs": [],
      "name": "feeReceipient",
      "outputs": [
        {
          "internalType": "address payable",
          "name": "",
          "type": "address"
        }
      ],
      "stateMutability": "view",
      "type": "function"
    },
    {
      "inputs": [
        {
          "internalType": "uint256",
          "name": "_moment",
          "type": "uint256"
        },
        {
          "internalType": "address",
          "name": "user",
          "type": "address"
        }
      ],
      "name": "getArtongBalance",
      "outputs": [
        {
          "internalType": "uint256",
          "name": "",
          "type": "uint256"
        }
      ],
      "stateMutability": "view",
      "type": "function"
    },
    {
      "inputs": [
        {
          "internalType": "address",
          "name": "_nftAddress",
          "type": "address"
        }
      ],
      "name": "getCollectionRoyalty",
      "outputs": [
        {
          "components": [
            {
              "internalType": "uint16",
              "name": "royalty",
              "type": "uint16"
            },
            {
              "internalType": "uint256",
              "name": "royaltyBalance",
              "type": "uint256"
            }
          ],
          "internalType": "struct ArtongMarketplace.CollectionRoyalty",
          "name": "",
          "type": "tuple"
        }
      ],
      "stateMutability": "view",
      "type": "function"
    },
    {
      "inputs": [
        {
          "internalType": "uint256",
          "name": "_moment",
          "type": "uint256"
        },
        {
          "internalType": "address",
          "name": "user",
          "type": "address"
        }
      ],
      "name": "getOfferBalance",
      "outputs": [
        {
          "internalType": "uint256",
          "name": "",
          "type": "uint256"
        }
      ],
      "stateMutability": "view",
      "type": "function"
    },
    {
      "inputs": [
        {
          "internalType": "uint16",
          "name": "_platformFee",
          "type": "uint16"
        },
        {
          "internalType": "address payable",
          "name": "_feeRecipient",
          "type": "address"
        }
      ],
      "name": "initialize",
      "outputs": [],
      "stateMutability": "nonpayable",
      "type": "function"
    },
    {
      "inputs": [
        {
          "internalType": "address",
          "name": "_nftAddress",
          "type": "address"
        },
        {
          "internalType": "uint256",
          "name": "_tokenId",
          "type": "uint256"
        },
        {
          "internalType": "uint256",
          "name": "_price",
          "type": "uint256"
        }
      ],
      "name": "listItem",
      "outputs": [],
      "stateMutability": "nonpayable",
      "type": "function"
    },
    {
      "inputs": [],
      "name": "offerId",
      "outputs": [
        {
          "internalType": "uint256",
          "name": "",
          "type": "uint256"
        }
      ],
      "stateMutability": "view",
      "type": "function"
    },
    {
      "inputs": [
        {
          "internalType": "address",
          "name": "",
          "type": "address"
        },
        {
          "internalType": "uint256",
          "name": "",
          "type": "uint256"
        },
        {
          "internalType": "address",
          "name": "",
          "type": "address"
        }
      ],
      "name": "offers",
      "outputs": [
        {
          "internalType": "uint256",
          "name": "offerId",
          "type": "uint256"
        },
        {
          "internalType": "uint256",
          "name": "price",
          "type": "uint256"
        },
        {
          "internalType": "uint256",
          "name": "deadline",
          "type": "uint256"
        }
      ],
      "stateMutability": "view",
      "type": "function"
    },
    {
      "inputs": [],
      "name": "owner",
      "outputs": [
        {
          "internalType": "address",
          "name": "",
          "type": "address"
        }
      ],
      "stateMutability": "view",
      "type": "function"
    },
    {
      "inputs": [],
      "name": "platformFee",
      "outputs": [
        {
          "internalType": "uint16",
          "name": "",
          "type": "uint16"
        }
      ],
      "stateMutability": "view",
      "type": "function"
    },
    {
      "inputs": [
        {
          "internalType": "address",
          "name": "_minter",
          "type": "address"
        },
        {
          "internalType": "address",
          "name": "_nftAddress",
          "type": "address"
        },
        {
          "internalType": "uint256",
          "name": "_tokenId",
          "type": "uint256"
        }
      ],
      "name": "registerMinter",
      "outputs": [],
      "stateMutability": "nonpayable",
      "type": "function"
    },
    {
      "inputs": [],
      "name": "renounceOwnership",
      "outputs": [],
      "stateMutability": "nonpayable",
      "type": "function"
    },
    {
      "inputs": [
        {
          "internalType": "address",
          "name": "user",
          "type": "address"
        }
      ],
      "name": "sendArtongBalance",
      "outputs": [],
      "stateMutability": "payable",
      "type": "function"
    },
    {
      "inputs": [
        {
          "internalType": "address",
          "name": "newOwner",
          "type": "address"
        }
      ],
      "name": "transferOwnership",
      "outputs": [],
      "stateMutability": "nonpayable",
      "type": "function"
    },
    {
      "inputs": [
        {
          "internalType": "address",
          "name": "_nftAddress",
          "type": "address"
        },
        {
          "internalType": "uint16",
          "name": "_royalty",
          "type": "uint16"
        }
      ],
      "name": "updateCollectionRoyalty",
      "outputs": [],
      "stateMutability": "nonpayable",
      "type": "function"
    },
    {
      "inputs": [
        {
          "internalType": "address",
          "name": "_nftAddress",
          "type": "address"
        },
        {
          "internalType": "uint256",
          "name": "_tokenId",
          "type": "uint256"
        },
        {
          "internalType": "uint256",
          "name": "_newPrice",
          "type": "uint256"
        }
      ],
      "name": "updateListing",
      "outputs": [],
      "stateMutability": "nonpayable",
      "type": "function"
    },
    {
      "inputs": [
        {
          "internalType": "uint16",
          "name": "_platformFee",
          "type": "uint16"
        }
      ],
      "name": "updatePlatformFee",
      "outputs": [],
      "stateMutability": "nonpayable",
      "type": "function"
    },
    {
      "inputs": [
        {
          "internalType": "address payable",
          "name": "_platformFeeRecipient",
          "type": "address"
        }
      ],
      "name": "updatePlatformFeeRecipient",
      "outputs": [],
      "stateMutability": "nonpayable",
      "type": "function"
    },
    {
      "inputs": [
        {
          "internalType": "uint16",
          "name": "_royalty",
          "type": "uint16"
        }
      ],
      "name": "updateTokenRoyalty",
      "outputs": [],
      "stateMutability": "nonpayable",
      "type": "function"
    },
    {
      "inputs": [
        {
          "internalType": "address",
          "name": "",
          "type": "address"
        },
        {
          "internalType": "uint256",
          "name": "",
          "type": "uint256"
        }
      ],
      "name": "userOffers",
      "outputs": [
        {
          "internalType": "uint256",
          "name": "offerId",
          "type": "uint256"
        },
        {
          "internalType": "uint256",
          "name": "price",
          "type": "uint256"
        },
        {
          "internalType": "uint256",
          "name": "deadline",
          "type": "uint256"
        }
      ],
      "stateMutability": "view",
      "type": "function"
    },
    {
      "inputs": [],
      "name": "withdraw",
      "outputs": [],
      "stateMutability": "nonpayable",
      "type": "function"
    },
    {
      "stateMutability": "payable",
      "type": "receive"
    }
  ],
  "bytecode": "0x608060405234801561001057600080fd5b5061271d806100206000396000f3fe6080604052600436106101695760003560e01c8063715018a6116100d1578063bd5fec651161008a578063e6d07de911610064578063e6d07de9146104fc578063f2fde38b1461050f578063f5fe7f711461052f578063f772adf11461054f57600080fd5b8063bd5fec6514610454578063d3f494cc1461048f578063e0dbcde5146104dc57600080fd5b8063715018a6146103a157806374a5ea91146103b657806389bfd38f146103d65780638da5cb5b146103f6578063afb0695214610414578063b2ddee061461043457600080fd5b80633740ebb3116101235780633740ebb3146102ce5780633bbb28061461030c5780633ccfd60b1461032c5780634d0228e4146103415780635e6c00f5146103615780636b8522881461038157600080fd5b8062e56c6d146101aa5780631c6c7128146101cc57806321ce9f91146101df578063259ca3651461020857806326232a2e1461021b57806333ff94221461024957600080fd5b366101a55760405134815233907f88a5966d370b9919b20f3e2c13ff65706f196a4e32cc2c12bf57088f885258749060200160405180910390a2005b600080fd5b3480156101b657600080fd5b506101ca6101c536600461231b565b61056f565b005b6101ca6101da36600461234b565b610614565b3480156101eb57600080fd5b506101f560985481565b6040519081526020015b60405180910390f35b6101ca610216366004612380565b610a02565b34801561022757600080fd5b506097546102369061ffff1681565b60405161ffff90911681526020016101ff565b34801561025557600080fd5b506102af6102643660046123c2565b6040805180820190915260008082526020820152506001600160a01b03166000908152609c60209081526040918290208251808401909352805461ffff168352600101549082015290565b60408051825161ffff16815260209283015192810192909252016101ff565b3480156102da57600080fd5b506097546102f4906201000090046001600160a01b031681565b6040516001600160a01b0390911681526020016101ff565b34801561031857600080fd5b506101ca610327366004612380565b610b16565b34801561033857600080fd5b506101ca610d70565b34801561034d57600080fd5b506101ca61035c3660046123df565b610ee0565b34801561036d57600080fd5b506101f561037c366004612420565b610f8d565b34801561038d57600080fd5b506101ca61039c366004612450565b610fc3565b3480156103ad57600080fd5b506101ca6111ab565b3480156103c257600080fd5b506101f56103d1366004612420565b6111bf565b3480156103e257600080fd5b506101ca6103f136600461234b565b6112c1565b34801561040257600080fd5b506033546001600160a01b03166102f4565b34801561042057600080fd5b506101ca61042f36600461231b565b611552565b34801561044057600080fd5b506101ca61044f366004612485565b6115a5565b34801561046057600080fd5b5061047461046f366004612485565b611634565b604080519384526020840192909252908201526060016101ff565b34801561049b57600080fd5b506104746104aa366004612380565b609a60209081526000938452604080852082529284528284209052825290208054600182015460029092015490919083565b3480156104e857600080fd5b506101ca6104f73660046124b1565b611676565b6101ca61050a3660046123c2565b6117b9565b34801561051b57600080fd5b506101ca61052a3660046123c2565b6117e9565b34801561053b57600080fd5b506101ca61054a3660046123c2565b611862565b34801561055b57600080fd5b506101ca61056a36600461234b565b6118c2565b6127108161ffff1611156105bc5760405162461bcd60e51b815260206004820152600f60248201526e696e76616c696420726f79616c747960881b60448201526064015b60405180910390fd5b336000818152609d6020908152604091829020805461ffff191661ffff861690811790915591519182527ff4eaba062863d26f46b81ed47ea2f6458cfd0c72a2686ec3dcd31177d240aab5910160405180910390a250565b6001600160a01b0383166000908152609a602090815260408083208584528252808320338085529083529281902081516060810183528154815260018201549381018490526002909101549181019190915285928592909190158061067d575042816040015111155b6106c15760405162461bcd60e51b81526020600482015260156024820152741bd999995c88185b1c9958591e4818dc99585d1959605a1b60448201526064016105b3565b66038d7ea4c6800034116107105760405162461bcd60e51b81526020600482015260166024820152751bd999995c88185b5bdd5b9d081d1bdbc81cdb585b1b60521b60448201526064016105b3565b610719876119a6565b6107355760405162461bcd60e51b81526004016105b3906124dd565b6040516331a9108f60e11b81526004810187905287906001600160a01b03821690636352211e9060240160206040518083038186803b15801561077757600080fd5b505afa15801561078b573d6000803e3d6000fd5b505050506040513d601f19601f820116820180604052508101906107af919061250a565b6001600160a01b0316336001600160a01b031614156108045760405162461bcd60e51b815260206004820152601160248201527031b0b73737ba1039b2b6331037b33332b960791b60448201526064016105b3565b8561081d57610816620151804261253d565b955061082d565b61082a4262015180612554565b95505b6001609860008282546108409190612554565b925050819055506040518060600160405280609854815260200134815260200187815250609a60008a6001600160a01b03166001600160a01b0316815260200190815260200160002060008981526020019081526020016000206000336001600160a01b03166001600160a01b03168152602001908152602001600020600082015181600001556020820151816001015560408201518160020155905050609b6000336001600160a01b03166001600160a01b0316815260200190815260200160002060405180606001604052806098548152602001348152602001888152509080600181540180825580915050600190039060005260206000209060030201600090919091909150600082015181600001556020820151816001015560408201518160020155505034609f6000336001600160a01b03166001600160a01b03168152602001908152602001600020600082825461099e9190612554565b90915550506098546040805191825260208201899052348282015260608201889052516001600160a01b038a169133917fa5b221016d244158f755de9c5739283f750d2f7285cde6af0a9e11aafa1d60229181900360800190a35050505050505050565b60026065541415610a255760405162461bcd60e51b81526004016105b39061256c565b60026065556001600160a01b03831660009081526099602090815260408083208584529091529020548390839080610a6f5760405162461bcd60e51b81526004016105b3906125a3565b610a7a868686611a2d565b6001600160a01b0386166000908152609960209081526040808320888452909152902054843334610aaf8a8a85858886611b07565b896001600160a01b0316836001600160a01b03167f15c7b51ce366ab742c37d88fa542ad517859c32b76df70b7234e0e96f5f801c48b87604051610afd929190918252602082015260400190565b60405180910390a3505060016065555050505050505050565b60026065541415610b395760405162461bcd60e51b81526004016105b39061256c565b600260658190556001600160a01b038085166000908152609a6020908152604080832087845282528083209386168352928152908290208251606081018452815481526001820154928101839052930154918301919091528491849184919015801590610ba95750428160400151115b610bf55760405162461bcd60e51b815260206004820152601b60248201527f6f66666572206e6f7420657869737473206f722065787069726564000000000060448201526064016105b3565b610c00878733611a2d565b6001600160a01b038781166000908152609a602090815260408083208a8452825280832093891683529281528282208351606081018552815481526001820154928101929092526002015492810192909252610c5c42886111bf565b90508160200151811015610cb25760405162461bcd60e51b815260206004820152601e60248201527f62616c616e6365206e6f7420656e6f75676820746f20627579206974656d000060448201526064016105b3565b602082015133908890610ccd908c908c908590859080611b07565b835160408051918252602082018c90526001600160a01b03808c1692908e16917f55b7d87f50df42aab01a782c0f678035ee284155051f20b56dca2de85791bbac910160405180910390a36001600160a01b03808c166000908152609a602090815260408083208e84528252808320938d1683529290529081208181556001810182905560020155610d5e84611f9e565b50506001606555505050505050505050565b426000610d7d8233610f8d565b905080610dc25760405162461bcd60e51b81526020600482015260136024820152726e6f7468696e6720746f20776974686472617760681b60448201526064016105b3565b80471015610e125760405162461bcd60e51b815260206004820152601e60248201527f62616c616e6365206e6f7420656e6f75676820746f207769746864726177000060448201526064016105b3565b336000908152609f602052604081208054839290610e3190849061253d565b90915550610e40905082612027565b6040513390600090829084908381818185875af1925050503d8060008114610e84576040519150601f19603f3d011682016040523d82523d6000602084013e610e89565b606091505b5050905080610eda5760405162461bcd60e51b815260206004820152601e60248201527f4172746f6e672062616c616e6365207472616e73666572206661696c6564000060448201526064016105b3565b50505050565b6001600160a01b038281166000908152609e602090815260408083208584529091529020541615610f535760405162461bcd60e51b815260206004820152601960248201527f6d696e74657220616c726561647920726567697374657265640000000000000060448201526064016105b3565b6001600160a01b039182166000908152609e60209081526040808320938352929052208054919092166001600160a01b0319909116179055565b6000610f9983836111bf565b6001600160a01b0383166000908152609f6020526040902054610fbc919061253d565b9392505050565b6127108161ffff16111561100b5760405162461bcd60e51b815260206004820152600f60248201526e696e76616c696420726f79616c747960881b60448201526064016105b3565b611014826119a6565b6110305760405162461bcd60e51b81526004016105b3906124dd565b6000829050806001600160a01b0316638da5cb5b6040518163ffffffff1660e01b815260040160206040518083038186803b15801561106e57600080fd5b505afa158015611082573d6000803e3d6000fd5b505050506040513d601f19601f820116820180604052508101906110a6919061250a565b6001600160a01b0316336001600160a01b0316146111065760405162461bcd60e51b815260206004820152601f60248201527f75736572206e6f7420617070726f76656420666f722074686973206974656d0060448201526064016105b3565b6001600160a01b0383166000818152609c6020818152604080842081518083018352815461ffff8082168352600184018054848801908152865180880188528d84168082529151818a019081529a8c9052988852975190911661ffff1990921691909117909255945190555191825291929133917f3d01e4a63a15c293fb21704a30354cf8fbf55355606eca15bce5602e409f3ad7910160405180910390a350505050565b6111b361211d565b6111bd6000612177565b565b6001600160a01b0381166000908152609b6020908152604080832080548251818502810185019093528083528493849084015b8282101561124257838290600052602060002090600302016040518060600160405290816000820154815260200160018201548152602001600282015481525050815260200190600101906111f2565b5050505090506000805b82518110156112b85785838281518110611268576112686125cc565b60200260200101516040015111156112a65782818151811061128c5761128c6125cc565b602002602001015160200151826112a39190612554565b91505b806112b0816125e2565b91505061124c565b50949350505050565b6001600160a01b03831660009081526099602090815260408083208584529091529020548390839080156113285760405162461bcd60e51b815260206004820152600e60248201526d185b1c9958591e481b1a5cdd195960921b60448201526064016105b3565b611331866119a6565b156114d3576040516331a9108f60e11b815260048101869052869033906001600160a01b03831690636352211e9060240160206040518083038186803b15801561137a57600080fd5b505afa15801561138e573d6000803e3d6000fd5b505050506040513d601f19601f820116820180604052508101906113b2919061250a565b6001600160a01b0316146113fa5760405162461bcd60e51b815260206004820152600f60248201526e6e6f74206f776e696e67206974656d60881b60448201526064016105b3565b60405163e985e9c560e01b81523360048201523060248201526001600160a01b0382169063e985e9c59060440160206040518083038186803b15801561143f57600080fd5b505afa158015611453573d6000803e3d6000fd5b505050506040513d601f19601f8201168201806040525081019061147791906125fd565b6114cd5760405162461bcd60e51b815260206004820152602160248201527f6172746f6e67206e6f7420617070726f76656420666f722074686973206974656044820152606d60f81b60648201526084016105b3565b506114eb565b60405162461bcd60e51b81526004016105b3906124dd565b6001600160a01b0386166000818152609960209081526040808320898452825291829020879055815188815290810187905233917fd547e933094f12a9159076970143ebe73234e64480317844b0dcb36117116de4910160405180910390a3505050505050565b61155a61211d565b6097805461ffff191661ffff83169081179091556040519081527fcabead39256298cdf7d1228eee68b47bc54a2192283d8d93574da08d2d7ac303906020015b60405180910390a150565b600260655414156115c85760405162461bcd60e51b81526004016105b39061256c565b60026065556001600160a01b038216600090815260996020908152604080832084845290915290205482908290806116125760405162461bcd60e51b81526004016105b3906125a3565b61161d858533611a2d565b6116288585336121c9565b50506001606555505050565b609b602052816000526040600020818154811061165057600080fd5b600091825260209091206003909102018054600182015460029092015490935090915083565b600054610100900460ff16158080156116965750600054600160ff909116105b806116b05750303b1580156116b0575060005460ff166001145b6117135760405162461bcd60e51b815260206004820152602e60248201527f496e697469616c697a61626c653a20636f6e747261637420697320616c72656160448201526d191e481a5b9a5d1a585b1a5e995960921b60648201526084016105b3565b6000805460ff191660011790558015611736576000805461ff0019166101001790555b609780546001600160a01b03841662010000026001600160b01b031990911661ffff86161717905561176661222b565b61176e61225a565b80156117b4576000805461ff0019169055604051600181527f7f26b83ff96e1f2b6a682f133852f6798a09c465da95921460cefb38474024989060200160405180910390a15b505050565b6001600160a01b0381166000908152609f6020526040812080543492906117e1908490612554565b909155505050565b6117f161211d565b6001600160a01b0381166118565760405162461bcd60e51b815260206004820152602660248201527f4f776e61626c653a206e6577206f776e657220697320746865207a65726f206160448201526564647265737360d01b60648201526084016105b3565b61185f81612177565b50565b61186a61211d565b6097805462010000600160b01b031916620100006001600160a01b038416908102919091179091556040519081527fe57e7c1f36cc83fade34e32351e6eee7eb9da532662b1b5da10c631e8222aca79060200161159a565b600260655414156118e55760405162461bcd60e51b81526004016105b39061256c565b60026065556001600160a01b0383166000908152609960209081526040808320858452909152902054839083908061192f5760405162461bcd60e51b81526004016105b3906125a3565b61193a868633611a2d565b6001600160a01b0386166000818152609960209081526040808320898452825291829020879055815188815290810187905233917f3c33e65e8698294810b631d476d60b44425303828da0b1f8b635231bfda12be2910160405180910390a35050600160655550505050565b6040516301ffc9a760e01b81526380ac58cd60e01b60048201526000906001600160a01b038316906301ffc9a79060240160206040518083038186803b1580156119ef57600080fd5b505afa158015611a03573d6000803e3d6000fd5b505050506040513d601f19601f82011682018060405250810190611a2791906125fd565b92915050565b611a36836119a6565b156114d3576040516331a9108f60e11b81526004810183905283906001600160a01b03821690636352211e9060240160206040518083038186803b158015611a7d57600080fd5b505afa158015611a91573d6000803e3d6000fd5b505050506040513d601f19601f82011682018060405250810190611ab5919061250a565b6001600160a01b0316826001600160a01b031614610eda5760405162461bcd60e51b815260206004820152600f60248201526e6e6f74206f776e696e67206974656d60881b60448201526064016105b3565b81811015611b575760405162461bcd60e51b815260206004820152601960248201527f7061796d656e7420616d6f756e74206e6f7420656e6f7567680000000000000060448201526064016105b3565b611b60866119a6565b611b7c5760405162461bcd60e51b81526004016105b3906124dd565b6001600160a01b038681166000818152609e602090815260408083208a8452825280832054909416808352609d825284832054938352609c8252918490208451808601909552805461ffff908116808752600190920154928601929092526097549294938216939261271092611bf49186911661261f565b611bfe919061261f565b61ffff161115611c5e5760405162461bcd60e51b815260206004820152602560248201527f53756d206f6620666565732061726520626967676572207468616e2074686520604482015264707269636560d81b60648201526084016105b3565b609754600090611c7390879061ffff16612289565b609754604051919250600091620100009091046001600160a01b03169083908381818185875af1925050503d8060008114611cca576040519150601f19603f3d011682016040523d82523d6000602084013e611ccf565b606091505b5050905080611d165760405162461bcd60e51b8152602060048201526013602482015272119959481d1c985b9cd9995c8819985a5b1959606a1b60448201526064016105b3565b86861115611d5657611d28878761253d565b6001600160a01b0389166000908152609f602052604081208054909190611d50908490612554565b90915550505b61ffff841615611dad576000611d6c8886612289565b6001600160a01b0387166000908152609f6020526040812080549293508392909190611d99908490612554565b90915550611da990508184612554565b9250505b825161ffff1615611e69576000611dc8888560000151612289565b90508084602001818151611ddc9190612554565b915081815250506040518060400160405280856000015161ffff1681526020018560200151815250609c60008e6001600160a01b03166001600160a01b0316815260200190815260200160002060008201518160000160006101000a81548161ffff021916908361ffff160217905550602082015181600101559050508083611e659190612554565b9250505b611e73828861253d565b6001600160a01b038a166000908152609f602052604081208054909190611e9b908490612554565b9091555050604051632142170760e11b81526001600160a01b038a811660048301528981166024830152604482018c90528c16906342842e0e90606401600060405180830381600087803b158015611ef257600080fd5b505af1158015611f06573d6000803e3d6000fd5b505050508a6001600160a01b0316886001600160a01b03168a6001600160a01b03167fee0ddd6454e05c1b33a8dfcb6cc52418d28020e96e21228bb601f5dbb6790cd08d8b604051611f62929190918252602082015260400190565b60405180910390a45050506001600160a01b03909716600090815260996020908152604080832098835297905295862095909555505050505050565b336000908152609b60205260408120905b81548110156117b4578260000151828281548110611fcf57611fcf6125cc565b9060005260206000209060030201600001541415612015576000828281548110611ffb57611ffb6125cc565b906000526020600020906003020160020181905550505050565b8061201f816125e2565b915050611faf565b336000908152609b60205260408120905b81548110156117b45782828281548110612054576120546125cc565b906000526020600020906003020160020154101561210b578154829061207c9060019061253d565b8154811061208c5761208c6125cc565b90600052602060002090600302018282815481106120ac576120ac6125cc565b6000918252602090912082546003909202019081556001808301549082015560029182015491015581548290806120e5576120e5612645565b600082815260208120600360001990930192830201818155600181018290556002015590555b80612115816125e2565b915050612038565b6033546001600160a01b031633146111bd5760405162461bcd60e51b815260206004820181905260248201527f4f776e61626c653a2063616c6c6572206973206e6f7420746865206f776e657260448201526064016105b3565b603380546001600160a01b038381166001600160a01b0319831681179093556040519116919082907f8be0079c531659141344cd1fd0a4f28419497f9722a3daafe3b4186f6b6457e090600090a35050565b6001600160a01b038381166000818152609960209081526040808320878452825280832092909255905185815291928416917f9ba1a3cb55ce8d63d072a886f94d2a744f50cddf82128e897d0661f5ec623158910160405180910390a3505050565b600054610100900460ff166122525760405162461bcd60e51b81526004016105b39061265b565b6111bd6122a6565b600054610100900460ff166122815760405162461bcd60e51b81526004016105b39061265b565b6111bd6122d6565b600061271061229c61ffff8416856126a6565b610fbc91906126c5565b600054610100900460ff166122cd5760405162461bcd60e51b81526004016105b39061265b565b6111bd33612177565b600054610100900460ff166122fd5760405162461bcd60e51b81526004016105b39061265b565b6001606555565b803561ffff8116811461231657600080fd5b919050565b60006020828403121561232d57600080fd5b610fbc82612304565b6001600160a01b038116811461185f57600080fd5b60008060006060848603121561236057600080fd5b833561236b81612336565b95602085013595506040909401359392505050565b60008060006060848603121561239557600080fd5b83356123a081612336565b92506020840135915060408401356123b781612336565b809150509250925092565b6000602082840312156123d457600080fd5b8135610fbc81612336565b6000806000606084860312156123f457600080fd5b83356123ff81612336565b9250602084013561240f81612336565b929592945050506040919091013590565b6000806040838503121561243357600080fd5b82359150602083013561244581612336565b809150509250929050565b6000806040838503121561246357600080fd5b823561246e81612336565b915061247c60208401612304565b90509250929050565b6000806040838503121561249857600080fd5b82356124a381612336565b946020939093013593505050565b600080604083850312156124c457600080fd5b6124cd83612304565b9150602083013561244581612336565b602080825260139082015272696e76616c6964206e6674206164647265737360681b604082015260600190565b60006020828403121561251c57600080fd5b8151610fbc81612336565b634e487b7160e01b600052601160045260246000fd5b60008282101561254f5761254f612527565b500390565b6000821982111561256757612567612527565b500190565b6020808252601f908201527f5265656e7472616e637947756172643a207265656e7472616e742063616c6c00604082015260600190565b6020808252600f908201526e6e6f74206c6973746564206974656d60881b604082015260600190565b634e487b7160e01b600052603260045260246000fd5b60006000198214156125f6576125f6612527565b5060010190565b60006020828403121561260f57600080fd5b81518015158114610fbc57600080fd5b600061ffff80831681851680830382111561263c5761263c612527565b01949350505050565b634e487b7160e01b600052603160045260246000fd5b6020808252602b908201527f496e697469616c697a61626c653a20636f6e7472616374206973206e6f74206960408201526a6e697469616c697a696e6760a81b606082015260800190565b60008160001904831182151516156126c0576126c0612527565b500290565b6000826126e257634e487b7160e01b600052601260045260246000fd5b50049056fea2646970667358221220547bbe3f7fc4be12c2a07066d7e0b4e623fdd5e111f36b5c44faa1fc9a023f6c64736f6c63430008090033",
  "linkReferences": {},
  "deployedLinkReferences": {}
}